{
	"contracts/Usuarios.sol": {
		"Usuarios": {
			"abi": [
				{
					"inputs": [],
					"stateMutability": "nonpayable",
					"type": "constructor"
				},
				{
					"anonymous": false,
					"inputs": [
						{
							"indexed": false,
							"internalType": "address",
							"name": "cuenta",
							"type": "address"
						}
					],
					"name": "GuiaEliminado",
					"type": "event"
				},
				{
					"anonymous": false,
					"inputs": [
						{
							"indexed": false,
							"internalType": "address",
							"name": "cuenta",
							"type": "address"
						},
						{
							"indexed": false,
							"internalType": "string",
							"name": "nombre",
							"type": "string"
						}
					],
					"name": "GuiaRegistrado",
					"type": "event"
				},
				{
					"anonymous": false,
					"inputs": [
						{
							"indexed": false,
							"internalType": "address",
							"name": "turista",
							"type": "address"
						}
					],
					"name": "TuristaEliminado",
					"type": "event"
				},
				{
					"anonymous": false,
					"inputs": [
						{
							"indexed": false,
							"internalType": "address",
							"name": "cuenta",
							"type": "address"
						},
						{
							"indexed": false,
							"internalType": "string",
							"name": "nombre",
							"type": "string"
						}
					],
					"name": "TuristaRegistrado",
					"type": "event"
				},
				{
					"inputs": [],
					"name": "duenno",
					"outputs": [
						{
							"internalType": "address",
							"name": "",
							"type": "address"
						}
					],
					"stateMutability": "view",
					"type": "function"
				},
				{
					"inputs": [
						{
							"internalType": "address",
							"name": "",
							"type": "address"
						}
					],
					"name": "guiasRegistrados",
					"outputs": [
						{
							"internalType": "address",
							"name": "cuenta",
							"type": "address"
						},
						{
							"internalType": "string",
							"name": "nombreCompleto",
							"type": "string"
						},
						{
							"internalType": "bool",
							"name": "estado",
							"type": "bool"
						}
					],
					"stateMutability": "view",
					"type": "function"
				},
				{
					"inputs": [
						{
							"internalType": "address",
							"name": "_cuenta",
							"type": "address"
						},
						{
							"internalType": "string",
							"name": "_nombre",
							"type": "string"
						}
					],
					"name": "registrarGuiaTurista",
					"outputs": [
						{
							"internalType": "string",
							"name": "mensaje",
							"type": "string"
						}
					],
					"stateMutability": "nonpayable",
					"type": "function"
				},
				{
					"inputs": [
						{
							"internalType": "address",
							"name": "_cuenta",
							"type": "address"
						},
						{
							"internalType": "string",
							"name": "_nombre",
							"type": "string"
						},
						{
							"internalType": "uint8",
							"name": "_edad",
							"type": "uint8"
						}
					],
					"name": "registrarTurista",
					"outputs": [
						{
							"internalType": "string",
							"name": "mensaje",
							"type": "string"
						}
					],
					"stateMutability": "nonpayable",
					"type": "function"
				},
				{
					"inputs": [
						{
							"internalType": "address",
							"name": "",
							"type": "address"
						}
					],
					"name": "turistasRegistrados",
					"outputs": [
						{
							"internalType": "address",
							"name": "cuenta",
							"type": "address"
						},
						{
							"internalType": "string",
							"name": "nombreCompleto",
							"type": "string"
						},
						{
							"internalType": "uint8",
							"name": "edad",
							"type": "uint8"
						},
						{
							"internalType": "bool",
							"name": "estado",
							"type": "bool"
						}
					],
					"stateMutability": "view",
					"type": "function"
				},
				{
					"inputs": [
						{
							"internalType": "address",
							"name": "_cuenta",
							"type": "address"
						}
					],
					"name": "verGuia",
					"outputs": [
						{
							"components": [
								{
									"internalType": "address",
									"name": "cuenta",
									"type": "address"
								},
								{
									"internalType": "string",
									"name": "nombreCompleto",
									"type": "string"
								},
								{
									"internalType": "bool",
									"name": "estado",
									"type": "bool"
								}
							],
							"internalType": "struct Usuarios.GuiaTuristas",
							"name": "",
							"type": "tuple"
						}
					],
					"stateMutability": "view",
					"type": "function"
				},
				{
					"inputs": [
						{
							"internalType": "address",
							"name": "_cuenta",
							"type": "address"
						}
					],
					"name": "verTurista",
					"outputs": [
						{
							"internalType": "address",
							"name": "cuenta",
							"type": "address"
						},
						{
							"internalType": "string",
							"name": "nombre",
							"type": "string"
						},
						{
							"internalType": "uint8",
							"name": "edad",
							"type": "uint8"
						},
						{
							"internalType": "bool",
							"name": "activo",
							"type": "bool"
						}
					],
					"stateMutability": "view",
					"type": "function"
				}
			],
			"devdoc": {
				"kind": "dev",
				"methods": {},
				"version": 1
			},
			"evm": {
				"assembly": "    /* \"contracts/Usuarios.sol\":244:6207  contract Usuarios {... */\n  mstore(0x40, 0x80)\n    /* \"contracts/Usuarios.sol\":903:953  constructor() {... */\n  callvalue\n  dup1\n  iszero\n  tag_1\n  jumpi\n  0x00\n  dup1\n  revert\ntag_1:\n  pop\n    /* \"contracts/Usuarios.sol\":936:946  msg.sender */\n  caller\n    /* \"contracts/Usuarios.sol\":927:933  duenno */\n  0x00\n  dup1\n    /* \"contracts/Usuarios.sol\":927:946  duenno = msg.sender */\n  0x0100\n  exp\n  dup2\n  sload\n  dup2\n  0xffffffffffffffffffffffffffffffffffffffff\n  mul\n  not\n  and\n  swap1\n  dup4\n  0xffffffffffffffffffffffffffffffffffffffff\n  and\n  mul\n  or\n  swap1\n  sstore\n  pop\n    /* \"contracts/Usuarios.sol\":244:6207  contract Usuarios {... */\n  dataSize(sub_0)\n  dup1\n  dataOffset(sub_0)\n  0x00\n  codecopy\n  0x00\n  return\nstop\n\nsub_0: assembly {\n        /* \"contracts/Usuarios.sol\":244:6207  contract Usuarios {... */\n      mstore(0x40, 0x80)\n      callvalue\n      dup1\n      iszero\n      tag_1\n      jumpi\n      0x00\n      dup1\n      revert\n    tag_1:\n      pop\n      jumpi(tag_2, lt(calldatasize, 0x04))\n      shr(0xe0, calldataload(0x00))\n      dup1\n      0x5ac34098\n      gt\n      tag_10\n      jumpi\n      dup1\n      0x5ac34098\n      eq\n      tag_6\n      jumpi\n      dup1\n      0x8e12bf87\n      eq\n      tag_7\n      jumpi\n      dup1\n      0x9dc43f77\n      eq\n      tag_8\n      jumpi\n      dup1\n      0xdb096f25\n      eq\n      tag_9\n      jumpi\n      jump(tag_2)\n    tag_10:\n      dup1\n      0x2eb72875\n      eq\n      tag_3\n      jumpi\n      dup1\n      0x40280a63\n      eq\n      tag_4\n      jumpi\n      dup1\n      0x5922f385\n      eq\n      tag_5\n      jumpi\n    tag_2:\n      0x00\n      dup1\n      revert\n        /* \"contracts/Usuarios.sol\":1633:2192  function registrarGuiaTurista(address _cuenta, string memory _nombre)... */\n    tag_3:\n      tag_11\n      0x04\n      dup1\n      calldatasize\n      sub\n      dup2\n      add\n      swap1\n      tag_12\n      swap2\n      swap1\n      tag_13\n      jump\t// in\n    tag_12:\n      tag_14\n      jump\t// in\n    tag_11:\n      mload(0x40)\n      tag_15\n      swap2\n      swap1\n      tag_16\n      jump\t// in\n    tag_15:\n      mload(0x40)\n      dup1\n      swap2\n      sub\n      swap1\n      return\n        /* \"contracts/Usuarios.sol\":1073:1127  mapping(address => Turista) public turistasRegistrados */\n    tag_4:\n      tag_17\n      0x04\n      dup1\n      calldatasize\n      sub\n      dup2\n      add\n      swap1\n      tag_18\n      swap2\n      swap1\n      tag_19\n      jump\t// in\n    tag_18:\n      tag_20\n      jump\t// in\n    tag_17:\n      mload(0x40)\n      tag_21\n      swap5\n      swap4\n      swap3\n      swap2\n      swap1\n      tag_22\n      jump\t// in\n    tag_21:\n      mload(0x40)\n      dup1\n      swap2\n      sub\n      swap1\n      return\n        /* \"contracts/Usuarios.sol\":2198:2744  function registrarTurista(... */\n    tag_5:\n      tag_23\n      0x04\n      dup1\n      calldatasize\n      sub\n      dup2\n      add\n      swap1\n      tag_24\n      swap2\n      swap1\n      tag_25\n      jump\t// in\n    tag_24:\n      tag_26\n      jump\t// in\n    tag_23:\n      mload(0x40)\n      tag_27\n      swap2\n      swap1\n      tag_16\n      jump\t// in\n    tag_27:\n      mload(0x40)\n      dup1\n      swap2\n      sub\n      swap1\n      return\n        /* \"contracts/Usuarios.sol\":1011:1067  mapping(address => GuiaTuristas) public guiasRegistrados */\n    tag_6:\n      tag_28\n      0x04\n      dup1\n      calldatasize\n      sub\n      dup2\n      add\n      swap1\n      tag_29\n      swap2\n      swap1\n      tag_19\n      jump\t// in\n    tag_29:\n      tag_30\n      jump\t// in\n    tag_28:\n      mload(0x40)\n      tag_31\n      swap4\n      swap3\n      swap2\n      swap1\n      tag_32\n      jump\t// in\n    tag_31:\n      mload(0x40)\n      dup1\n      swap2\n      sub\n      swap1\n      return\n        /* \"contracts/Usuarios.sol\":2975:3402  function verTurista(address _cuenta)... */\n    tag_7:\n      tag_33\n      0x04\n      dup1\n      calldatasize\n      sub\n      dup2\n      add\n      swap1\n      tag_34\n      swap2\n      swap1\n      tag_19\n      jump\t// in\n    tag_34:\n      tag_35\n      jump\t// in\n    tag_33:\n      mload(0x40)\n      tag_36\n      swap5\n      swap4\n      swap3\n      swap2\n      swap1\n      tag_22\n      jump\t// in\n    tag_36:\n      mload(0x40)\n      dup1\n      swap2\n      sub\n      swap1\n      return\n        /* \"contracts/Usuarios.sol\":666:687  address public duenno */\n    tag_8:\n      tag_37\n      tag_38\n      jump\t// in\n    tag_37:\n      mload(0x40)\n      tag_39\n      swap2\n      swap1\n      tag_40\n      jump\t// in\n    tag_39:\n      mload(0x40)\n      dup1\n      swap2\n      sub\n      swap1\n      return\n        /* \"contracts/Usuarios.sol\":2750:2969  function verGuia(address _cuenta)... */\n    tag_9:\n      tag_41\n      0x04\n      dup1\n      calldatasize\n      sub\n      dup2\n      add\n      swap1\n      tag_42\n      swap2\n      swap1\n      tag_19\n      jump\t// in\n    tag_42:\n      tag_43\n      jump\t// in\n    tag_41:\n      mload(0x40)\n      tag_44\n      swap2\n      swap1\n      tag_45\n      jump\t// in\n    tag_44:\n      mload(0x40)\n      dup1\n      swap2\n      sub\n      swap1\n      return\n        /* \"contracts/Usuarios.sol\":1633:2192  function registrarGuiaTurista(address _cuenta, string memory _nombre)... */\n    tag_14:\n        /* \"contracts/Usuarios.sol\":1754:1775  string memory mensaje */\n      0x60\n        /* \"contracts/Usuarios.sol\":1247:1253  duenno */\n      0x00\n      dup1\n      sload\n      swap1\n      0x0100\n      exp\n      swap1\n      div\n      0xffffffffffffffffffffffffffffffffffffffff\n      and\n        /* \"contracts/Usuarios.sol\":1233:1253  msg.sender == duenno */\n      0xffffffffffffffffffffffffffffffffffffffff\n      and\n        /* \"contracts/Usuarios.sol\":1233:1243  msg.sender */\n      caller\n        /* \"contracts/Usuarios.sol\":1233:1253  msg.sender == duenno */\n      0xffffffffffffffffffffffffffffffffffffffff\n      and\n      eq\n        /* \"contracts/Usuarios.sol\":1212:1320  require(... */\n      tag_47\n      jumpi\n      mload(0x40)\n      0x08c379a000000000000000000000000000000000000000000000000000000000\n      dup2\n      mstore\n      0x04\n      add\n      tag_48\n      swap1\n      tag_49\n      jump\t// in\n    tag_48:\n      mload(0x40)\n      dup1\n      swap2\n      sub\n      swap1\n      revert\n    tag_47:\n        /* \"contracts/Usuarios.sol\":1813:1829  guiasRegistrados */\n      0x01\n        /* \"contracts/Usuarios.sol\":1813:1838  guiasRegistrados[_cuenta] */\n      0x00\n        /* \"contracts/Usuarios.sol\":1830:1837  _cuenta */\n      dup5\n        /* \"contracts/Usuarios.sol\":1813:1838  guiasRegistrados[_cuenta] */\n      0xffffffffffffffffffffffffffffffffffffffff\n      and\n      0xffffffffffffffffffffffffffffffffffffffff\n      and\n      dup2\n      mstore\n      0x20\n      add\n      swap1\n      dup2\n      mstore\n      0x20\n      add\n      0x00\n      keccak256\n        /* \"contracts/Usuarios.sol\":1813:1845  guiasRegistrados[_cuenta].estado */\n      0x02\n      add\n      0x00\n      swap1\n      sload\n      swap1\n      0x0100\n      exp\n      swap1\n      div\n      0xff\n      and\n        /* \"contracts/Usuarios.sol\":1812:1845  !guiasRegistrados[_cuenta].estado */\n      iszero\n        /* \"contracts/Usuarios.sol\":1791:1906  require(... */\n      tag_51\n      jumpi\n      mload(0x40)\n      0x08c379a000000000000000000000000000000000000000000000000000000000\n      dup2\n      mstore\n      0x04\n      add\n      tag_52\n      swap1\n      tag_53\n      jump\t// in\n    tag_52:\n      mload(0x40)\n      dup1\n      swap2\n      sub\n      swap1\n      revert\n    tag_51:\n        /* \"contracts/Usuarios.sol\":1916:1949  GuiaTuristas memory _guiaTuristas */\n      0x00\n        /* \"contracts/Usuarios.sol\":1952:1988  GuiaTuristas(_cuenta, _nombre, true) */\n      mload(0x40)\n      dup1\n      0x60\n      add\n      0x40\n      mstore\n      dup1\n        /* \"contracts/Usuarios.sol\":1965:1972  _cuenta */\n      dup6\n        /* \"contracts/Usuarios.sol\":1952:1988  GuiaTuristas(_cuenta, _nombre, true) */\n      0xffffffffffffffffffffffffffffffffffffffff\n      and\n      dup2\n      mstore\n      0x20\n      add\n        /* \"contracts/Usuarios.sol\":1974:1981  _nombre */\n      dup5\n        /* \"contracts/Usuarios.sol\":1952:1988  GuiaTuristas(_cuenta, _nombre, true) */\n      dup2\n      mstore\n      0x20\n      add\n        /* \"contracts/Usuarios.sol\":1983:1987  true */\n      0x01\n        /* \"contracts/Usuarios.sol\":1952:1988  GuiaTuristas(_cuenta, _nombre, true) */\n      iszero\n      iszero\n      dup2\n      mstore\n      pop\n        /* \"contracts/Usuarios.sol\":1916:1988  GuiaTuristas memory _guiaTuristas = GuiaTuristas(_cuenta, _nombre, true) */\n      swap1\n      pop\n        /* \"contracts/Usuarios.sol\":2026:2039  _guiaTuristas */\n      dup1\n        /* \"contracts/Usuarios.sol\":1998:2014  guiasRegistrados */\n      0x01\n        /* \"contracts/Usuarios.sol\":1998:2023  guiasRegistrados[_cuenta] */\n      0x00\n        /* \"contracts/Usuarios.sol\":2015:2022  _cuenta */\n      dup7\n        /* \"contracts/Usuarios.sol\":1998:2023  guiasRegistrados[_cuenta] */\n      0xffffffffffffffffffffffffffffffffffffffff\n      and\n      0xffffffffffffffffffffffffffffffffffffffff\n      and\n      dup2\n      mstore\n      0x20\n      add\n      swap1\n      dup2\n      mstore\n      0x20\n      add\n      0x00\n      keccak256\n        /* \"contracts/Usuarios.sol\":1998:2039  guiasRegistrados[_cuenta] = _guiaTuristas */\n      0x00\n      dup3\n      add\n      mload\n      dup2\n      0x00\n      add\n      exp(0x0100, 0x00)\n      dup2\n      sload\n      dup2\n      0xffffffffffffffffffffffffffffffffffffffff\n      mul\n      not\n      and\n      swap1\n      dup4\n      0xffffffffffffffffffffffffffffffffffffffff\n      and\n      mul\n      or\n      swap1\n      sstore\n      pop\n      0x20\n      dup3\n      add\n      mload\n      dup2\n      0x01\n      add\n      swap1\n      dup1\n      mload\n      swap1\n      0x20\n      add\n      swap1\n      tag_54\n      swap3\n      swap2\n      swap1\n      tag_55\n      jump\t// in\n    tag_54:\n      pop\n      0x40\n      dup3\n      add\n      mload\n      dup2\n      0x02\n      add\n      exp(0x0100, 0x00)\n      dup2\n      sload\n      dup2\n      0xff\n      mul\n      not\n      and\n      swap1\n      dup4\n      iszero\n      iszero\n      mul\n      or\n      swap1\n      sstore\n      pop\n      swap1\n      pop\n      pop\n        /* \"contracts/Usuarios.sol\":2097:2129  GuiaRegistrado(_cuenta, _nombre) */\n      0x51d926f521aa5bce4104e82a66580aa7251d9a3598bccb8ddf76febbff83576a\n        /* \"contracts/Usuarios.sol\":2112:2119  _cuenta */\n      dup5\n        /* \"contracts/Usuarios.sol\":2121:2128  _nombre */\n      dup5\n        /* \"contracts/Usuarios.sol\":2097:2129  GuiaRegistrado(_cuenta, _nombre) */\n      mload(0x40)\n      tag_56\n      swap3\n      swap2\n      swap1\n      tag_57\n      jump\t// in\n    tag_56:\n      mload(0x40)\n      dup1\n      swap2\n      sub\n      swap1\n      log1\n        /* \"contracts/Usuarios.sol\":2139:2185  return \"Guia de Turistas registrado con exito\" */\n      mload(0x40)\n      dup1\n      0x60\n      add\n      0x40\n      mstore\n      dup1\n      0x25\n      dup2\n      mstore\n      0x20\n      add\n      data_ab5ecbcd895f46bb6ad5a983fd00ba29b72331686909f50871dc662956b121c9\n      0x25\n      swap2\n      codecopy\n      swap2\n      pop\n      pop\n        /* \"contracts/Usuarios.sol\":1633:2192  function registrarGuiaTurista(address _cuenta, string memory _nombre)... */\n      swap3\n      swap2\n      pop\n      pop\n      jump\t// out\n        /* \"contracts/Usuarios.sol\":1073:1127  mapping(address => Turista) public turistasRegistrados */\n    tag_20:\n      mstore(0x20, 0x02)\n      dup1\n      0x00\n      mstore\n      keccak256(0x00, 0x40)\n      0x00\n      swap2\n      pop\n      swap1\n      pop\n      dup1\n      0x00\n      add\n      0x00\n      swap1\n      sload\n      swap1\n      0x0100\n      exp\n      swap1\n      div\n      0xffffffffffffffffffffffffffffffffffffffff\n      and\n      swap1\n      dup1\n      0x01\n      add\n      dup1\n      sload\n      tag_58\n      swap1\n      tag_59\n      jump\t// in\n    tag_58:\n      dup1\n      0x1f\n      add\n      0x20\n      dup1\n      swap2\n      div\n      mul\n      0x20\n      add\n      mload(0x40)\n      swap1\n      dup2\n      add\n      0x40\n      mstore\n      dup1\n      swap3\n      swap2\n      swap1\n      dup2\n      dup2\n      mstore\n      0x20\n      add\n      dup3\n      dup1\n      sload\n      tag_60\n      swap1\n      tag_59\n      jump\t// in\n    tag_60:\n      dup1\n      iszero\n      tag_61\n      jumpi\n      dup1\n      0x1f\n      lt\n      tag_62\n      jumpi\n      0x0100\n      dup1\n      dup4\n      sload\n      div\n      mul\n      dup4\n      mstore\n      swap2\n      0x20\n      add\n      swap2\n      jump(tag_61)\n    tag_62:\n      dup3\n      add\n      swap2\n      swap1\n      0x00\n      mstore\n      keccak256(0x00, 0x20)\n      swap1\n    tag_63:\n      dup2\n      sload\n      dup2\n      mstore\n      swap1\n      0x01\n      add\n      swap1\n      0x20\n      add\n      dup1\n      dup4\n      gt\n      tag_63\n      jumpi\n      dup3\n      swap1\n      sub\n      0x1f\n      and\n      dup3\n      add\n      swap2\n    tag_61:\n      pop\n      pop\n      pop\n      pop\n      pop\n      swap1\n      dup1\n      0x02\n      add\n      0x00\n      swap1\n      sload\n      swap1\n      0x0100\n      exp\n      swap1\n      div\n      0xff\n      and\n      swap1\n      dup1\n      0x02\n      add\n      0x01\n      swap1\n      sload\n      swap1\n      0x0100\n      exp\n      swap1\n      div\n      0xff\n      and\n      swap1\n      pop\n      dup5\n      jump\t// out\n        /* \"contracts/Usuarios.sol\":2198:2744  function registrarTurista(... */\n    tag_26:\n        /* \"contracts/Usuarios.sol\":2333:2354  string memory mensaje */\n      0x60\n        /* \"contracts/Usuarios.sol\":1477:1483  duenno */\n      0x00\n      dup1\n      sload\n      swap1\n      0x0100\n      exp\n      swap1\n      div\n      0xffffffffffffffffffffffffffffffffffffffff\n      and\n        /* \"contracts/Usuarios.sol\":1463:1483  msg.sender == duenno */\n      0xffffffffffffffffffffffffffffffffffffffff\n      and\n        /* \"contracts/Usuarios.sol\":1463:1473  msg.sender */\n      caller\n        /* \"contracts/Usuarios.sol\":1463:1483  msg.sender == duenno */\n      0xffffffffffffffffffffffffffffffffffffffff\n      and\n      eq\n        /* \"contracts/Usuarios.sol\":1463:1522  msg.sender == duenno || guiasRegistrados[msg.sender].estado */\n      dup1\n      tag_65\n      jumpi\n      pop\n        /* \"contracts/Usuarios.sol\":1487:1503  guiasRegistrados */\n      0x01\n        /* \"contracts/Usuarios.sol\":1487:1515  guiasRegistrados[msg.sender] */\n      0x00\n        /* \"contracts/Usuarios.sol\":1504:1514  msg.sender */\n      caller\n        /* \"contracts/Usuarios.sol\":1487:1515  guiasRegistrados[msg.sender] */\n      0xffffffffffffffffffffffffffffffffffffffff\n      and\n      0xffffffffffffffffffffffffffffffffffffffff\n      and\n      dup2\n      mstore\n      0x20\n      add\n      swap1\n      dup2\n      mstore\n      0x20\n      add\n      0x00\n      keccak256\n        /* \"contracts/Usuarios.sol\":1487:1522  guiasRegistrados[msg.sender].estado */\n      0x02\n      add\n      0x00\n      swap1\n      sload\n      swap1\n      0x0100\n      exp\n      swap1\n      div\n      0xff\n      and\n        /* \"contracts/Usuarios.sol\":1463:1522  msg.sender == duenno || guiasRegistrados[msg.sender].estado */\n    tag_65:\n        /* \"contracts/Usuarios.sol\":1442:1609  require(... */\n      tag_66\n      jumpi\n      mload(0x40)\n      0x08c379a000000000000000000000000000000000000000000000000000000000\n      dup2\n      mstore\n      0x04\n      add\n      tag_67\n      swap1\n      tag_68\n      jump\t// in\n    tag_67:\n      mload(0x40)\n      dup1\n      swap2\n      sub\n      swap1\n      revert\n    tag_66:\n        /* \"contracts/Usuarios.sol\":2388:2407  turistasRegistrados */\n      0x02\n        /* \"contracts/Usuarios.sol\":2388:2416  turistasRegistrados[_cuenta] */\n      0x00\n        /* \"contracts/Usuarios.sol\":2408:2415  _cuenta */\n      dup6\n        /* \"contracts/Usuarios.sol\":2388:2416  turistasRegistrados[_cuenta] */\n      0xffffffffffffffffffffffffffffffffffffffff\n      and\n      0xffffffffffffffffffffffffffffffffffffffff\n      and\n      dup2\n      mstore\n      0x20\n      add\n      swap1\n      dup2\n      mstore\n      0x20\n      add\n      0x00\n      keccak256\n        /* \"contracts/Usuarios.sol\":2388:2423  turistasRegistrados[_cuenta].estado */\n      0x02\n      add\n      0x01\n      swap1\n      sload\n      swap1\n      0x0100\n      exp\n      swap1\n      div\n      0xff\n      and\n        /* \"contracts/Usuarios.sol\":2387:2423  !turistasRegistrados[_cuenta].estado */\n      iszero\n        /* \"contracts/Usuarios.sol\":2366:2475  require(... */\n      tag_70\n      jumpi\n      mload(0x40)\n      0x08c379a000000000000000000000000000000000000000000000000000000000\n      dup2\n      mstore\n      0x04\n      add\n      tag_71\n      swap1\n      tag_72\n      jump\t// in\n    tag_71:\n      mload(0x40)\n      dup1\n      swap2\n      sub\n      swap1\n      revert\n    tag_70:\n        /* \"contracts/Usuarios.sol\":2485:2508  Turista memory _turista */\n      0x00\n        /* \"contracts/Usuarios.sol\":2512:2550  Turista(_cuenta, _nombre, _edad, true) */\n      mload(0x40)\n      dup1\n      0x80\n      add\n      0x40\n      mstore\n      dup1\n        /* \"contracts/Usuarios.sol\":2520:2527  _cuenta */\n      dup7\n        /* \"contracts/Usuarios.sol\":2512:2550  Turista(_cuenta, _nombre, _edad, true) */\n      0xffffffffffffffffffffffffffffffffffffffff\n      and\n      dup2\n      mstore\n      0x20\n      add\n        /* \"contracts/Usuarios.sol\":2529:2536  _nombre */\n      dup6\n        /* \"contracts/Usuarios.sol\":2512:2550  Turista(_cuenta, _nombre, _edad, true) */\n      dup2\n      mstore\n      0x20\n      add\n        /* \"contracts/Usuarios.sol\":2538:2543  _edad */\n      dup5\n        /* \"contracts/Usuarios.sol\":2512:2550  Turista(_cuenta, _nombre, _edad, true) */\n      0xff\n      and\n      dup2\n      mstore\n      0x20\n      add\n        /* \"contracts/Usuarios.sol\":2545:2549  true */\n      0x01\n        /* \"contracts/Usuarios.sol\":2512:2550  Turista(_cuenta, _nombre, _edad, true) */\n      iszero\n      iszero\n      dup2\n      mstore\n      pop\n        /* \"contracts/Usuarios.sol\":2485:2550  Turista memory _turista =  Turista(_cuenta, _nombre, _edad, true) */\n      swap1\n      pop\n        /* \"contracts/Usuarios.sol\":2591:2599  _turista */\n      dup1\n        /* \"contracts/Usuarios.sol\":2560:2579  turistasRegistrados */\n      0x02\n        /* \"contracts/Usuarios.sol\":2560:2588  turistasRegistrados[_cuenta] */\n      0x00\n        /* \"contracts/Usuarios.sol\":2580:2587  _cuenta */\n      dup8\n        /* \"contracts/Usuarios.sol\":2560:2588  turistasRegistrados[_cuenta] */\n      0xffffffffffffffffffffffffffffffffffffffff\n      and\n      0xffffffffffffffffffffffffffffffffffffffff\n      and\n      dup2\n      mstore\n      0x20\n      add\n      swap1\n      dup2\n      mstore\n      0x20\n      add\n      0x00\n      keccak256\n        /* \"contracts/Usuarios.sol\":2560:2599  turistasRegistrados[_cuenta] = _turista */\n      0x00\n      dup3\n      add\n      mload\n      dup2\n      0x00\n      add\n      exp(0x0100, 0x00)\n      dup2\n      sload\n      dup2\n      0xffffffffffffffffffffffffffffffffffffffff\n      mul\n      not\n      and\n      swap1\n      dup4\n      0xffffffffffffffffffffffffffffffffffffffff\n      and\n      mul\n      or\n      swap1\n      sstore\n      pop\n      0x20\n      dup3\n      add\n      mload\n      dup2\n      0x01\n      add\n      swap1\n      dup1\n      mload\n      swap1\n      0x20\n      add\n      swap1\n      tag_73\n      swap3\n      swap2\n      swap1\n      tag_55\n      jump\t// in\n    tag_73:\n      pop\n      0x40\n      dup3\n      add\n      mload\n      dup2\n      0x02\n      add\n      exp(0x0100, 0x00)\n      dup2\n      sload\n      dup2\n      0xff\n      mul\n      not\n      and\n      swap1\n      dup4\n      0xff\n      and\n      mul\n      or\n      swap1\n      sstore\n      pop\n      0x60\n      dup3\n      add\n      mload\n      dup2\n      0x02\n      add\n      exp(0x0100, 0x01)\n      dup2\n      sload\n      dup2\n      0xff\n      mul\n      not\n      and\n      swap1\n      dup4\n      iszero\n      iszero\n      mul\n      or\n      swap1\n      sstore\n      pop\n      swap1\n      pop\n      pop\n        /* \"contracts/Usuarios.sol\":2655:2690  TuristaRegistrado(_cuenta, _nombre) */\n      0x6e3e05804c481790319a6706171e0354dbe5b600f1a3a8b4e12a70a2892f8d7d\n        /* \"contracts/Usuarios.sol\":2673:2680  _cuenta */\n      dup6\n        /* \"contracts/Usuarios.sol\":2682:2689  _nombre */\n      dup6\n        /* \"contracts/Usuarios.sol\":2655:2690  TuristaRegistrado(_cuenta, _nombre) */\n      mload(0x40)\n      tag_74\n      swap3\n      swap2\n      swap1\n      tag_57\n      jump\t// in\n    tag_74:\n      mload(0x40)\n      dup1\n      swap2\n      sub\n      swap1\n      log1\n        /* \"contracts/Usuarios.sol\":2700:2737  return \"Turista registrado con exito\" */\n      mload(0x40)\n      dup1\n      0x40\n      add\n      0x40\n      mstore\n      dup1\n      0x1c\n      dup2\n      mstore\n      0x20\n      add\n      0x54757269737461207265676973747261646f20636f6e20657869746f00000000\n      dup2\n      mstore\n      pop\n      swap2\n      pop\n      pop\n        /* \"contracts/Usuarios.sol\":2198:2744  function registrarTurista(... */\n      swap4\n      swap3\n      pop\n      pop\n      pop\n      jump\t// out\n        /* \"contracts/Usuarios.sol\":1011:1067  mapping(address => GuiaTuristas) public guiasRegistrados */\n    tag_30:\n      mstore(0x20, 0x01)\n      dup1\n      0x00\n      mstore\n      keccak256(0x00, 0x40)\n      0x00\n      swap2\n      pop\n      swap1\n      pop\n      dup1\n      0x00\n      add\n      0x00\n      swap1\n      sload\n      swap1\n      0x0100\n      exp\n      swap1\n      div\n      0xffffffffffffffffffffffffffffffffffffffff\n      and\n      swap1\n      dup1\n      0x01\n      add\n      dup1\n      sload\n      tag_75\n      swap1\n      tag_59\n      jump\t// in\n    tag_75:\n      dup1\n      0x1f\n      add\n      0x20\n      dup1\n      swap2\n      div\n      mul\n      0x20\n      add\n      mload(0x40)\n      swap1\n      dup2\n      add\n      0x40\n      mstore\n      dup1\n      swap3\n      swap2\n      swap1\n      dup2\n      dup2\n      mstore\n      0x20\n      add\n      dup3\n      dup1\n      sload\n      tag_76\n      swap1\n      tag_59\n      jump\t// in\n    tag_76:\n      dup1\n      iszero\n      tag_77\n      jumpi\n      dup1\n      0x1f\n      lt\n      tag_78\n      jumpi\n      0x0100\n      dup1\n      dup4\n      sload\n      div\n      mul\n      dup4\n      mstore\n      swap2\n      0x20\n      add\n      swap2\n      jump(tag_77)\n    tag_78:\n      dup3\n      add\n      swap2\n      swap1\n      0x00\n      mstore\n      keccak256(0x00, 0x20)\n      swap1\n    tag_79:\n      dup2\n      sload\n      dup2\n      mstore\n      swap1\n      0x01\n      add\n      swap1\n      0x20\n      add\n      dup1\n      dup4\n      gt\n      tag_79\n      jumpi\n      dup3\n      swap1\n      sub\n      0x1f\n      and\n      dup3\n      add\n      swap2\n    tag_77:\n      pop\n      pop\n      pop\n      pop\n      pop\n      swap1\n      dup1\n      0x02\n      add\n      0x00\n      swap1\n      sload\n      swap1\n      0x0100\n      exp\n      swap1\n      div\n      0xff\n      and\n      swap1\n      pop\n      dup4\n      jump\t// out\n        /* \"contracts/Usuarios.sol\":2975:3402  function verTurista(address _cuenta)... */\n    tag_35:\n        /* \"contracts/Usuarios.sol\":3070:3084  address cuenta */\n      0x00\n        /* \"contracts/Usuarios.sol\":3098:3118  string memory nombre */\n      0x60\n        /* \"contracts/Usuarios.sol\":3132:3142  uint8 edad */\n      0x00\n        /* \"contracts/Usuarios.sol\":3156:3167  bool activo */\n      dup1\n        /* \"contracts/Usuarios.sol\":3192:3215  Turista memory _turista */\n      0x00\n        /* \"contracts/Usuarios.sol\":3218:3237  turistasRegistrados */\n      0x02\n        /* \"contracts/Usuarios.sol\":3218:3246  turistasRegistrados[_cuenta] */\n      0x00\n        /* \"contracts/Usuarios.sol\":3238:3245  _cuenta */\n      dup8\n        /* \"contracts/Usuarios.sol\":3218:3246  turistasRegistrados[_cuenta] */\n      0xffffffffffffffffffffffffffffffffffffffff\n      and\n      0xffffffffffffffffffffffffffffffffffffffff\n      and\n      dup2\n      mstore\n      0x20\n      add\n      swap1\n      dup2\n      mstore\n      0x20\n      add\n      0x00\n      keccak256\n        /* \"contracts/Usuarios.sol\":3192:3246  Turista memory _turista = turistasRegistrados[_cuenta] */\n      mload(0x40)\n      dup1\n      0x80\n      add\n      0x40\n      mstore\n      swap1\n      dup2\n      0x00\n      dup3\n      add\n      0x00\n      swap1\n      sload\n      swap1\n      0x0100\n      exp\n      swap1\n      div\n      0xffffffffffffffffffffffffffffffffffffffff\n      and\n      0xffffffffffffffffffffffffffffffffffffffff\n      and\n      0xffffffffffffffffffffffffffffffffffffffff\n      and\n      dup2\n      mstore\n      0x20\n      add\n      0x01\n      dup3\n      add\n      dup1\n      sload\n      tag_81\n      swap1\n      tag_59\n      jump\t// in\n    tag_81:\n      dup1\n      0x1f\n      add\n      0x20\n      dup1\n      swap2\n      div\n      mul\n      0x20\n      add\n      mload(0x40)\n      swap1\n      dup2\n      add\n      0x40\n      mstore\n      dup1\n      swap3\n      swap2\n      swap1\n      dup2\n      dup2\n      mstore\n      0x20\n      add\n      dup3\n      dup1\n      sload\n      tag_82\n      swap1\n      tag_59\n      jump\t// in\n    tag_82:\n      dup1\n      iszero\n      tag_83\n      jumpi\n      dup1\n      0x1f\n      lt\n      tag_84\n      jumpi\n      0x0100\n      dup1\n      dup4\n      sload\n      div\n      mul\n      dup4\n      mstore\n      swap2\n      0x20\n      add\n      swap2\n      jump(tag_83)\n    tag_84:\n      dup3\n      add\n      swap2\n      swap1\n      0x00\n      mstore\n      keccak256(0x00, 0x20)\n      swap1\n    tag_85:\n      dup2\n      sload\n      dup2\n      mstore\n      swap1\n      0x01\n      add\n      swap1\n      0x20\n      add\n      dup1\n      dup4\n      gt\n      tag_85\n      jumpi\n      dup3\n      swap1\n      sub\n      0x1f\n      and\n      dup3\n      add\n      swap2\n    tag_83:\n      pop\n      pop\n      pop\n      pop\n      pop\n      dup2\n      mstore\n      0x20\n      add\n      0x02\n      dup3\n      add\n      0x00\n      swap1\n      sload\n      swap1\n      0x0100\n      exp\n      swap1\n      div\n      0xff\n      and\n      0xff\n      and\n      0xff\n      and\n      dup2\n      mstore\n      0x20\n      add\n      0x02\n      dup3\n      add\n      0x01\n      swap1\n      sload\n      swap1\n      0x0100\n      exp\n      swap1\n      div\n      0xff\n      and\n      iszero\n      iszero\n      iszero\n      iszero\n      dup2\n      mstore\n      pop\n      pop\n      swap1\n      pop\n        /* \"contracts/Usuarios.sol\":3277:3285  _turista */\n      dup1\n        /* \"contracts/Usuarios.sol\":3277:3292  _turista.cuenta */\n      0x00\n      add\n      mload\n        /* \"contracts/Usuarios.sol\":3306:3314  _turista */\n      dup2\n        /* \"contracts/Usuarios.sol\":3306:3329  _turista.nombreCompleto */\n      0x20\n      add\n      mload\n        /* \"contracts/Usuarios.sol\":3343:3351  _turista */\n      dup3\n        /* \"contracts/Usuarios.sol\":3343:3356  _turista.edad */\n      0x40\n      add\n      mload\n        /* \"contracts/Usuarios.sol\":3370:3378  _turista */\n      dup4\n        /* \"contracts/Usuarios.sol\":3370:3385  _turista.estado */\n      0x60\n      add\n      mload\n        /* \"contracts/Usuarios.sol\":3256:3395  return (... */\n      swap5\n      pop\n      swap5\n      pop\n      swap5\n      pop\n      swap5\n      pop\n      pop\n        /* \"contracts/Usuarios.sol\":2975:3402  function verTurista(address _cuenta)... */\n      swap2\n      swap4\n      pop\n      swap2\n      swap4\n      jump\t// out\n        /* \"contracts/Usuarios.sol\":666:687  address public duenno */\n    tag_38:\n      0x00\n      dup1\n      sload\n      swap1\n      0x0100\n      exp\n      swap1\n      div\n      0xffffffffffffffffffffffffffffffffffffffff\n      and\n      dup2\n      jump\t// out\n        /* \"contracts/Usuarios.sol\":2750:2969  function verGuia(address _cuenta)... */\n    tag_43:\n        /* \"contracts/Usuarios.sol\":2841:2860  GuiaTuristas memory */\n      tag_86\n      tag_87\n      jump\t// in\n    tag_86:\n        /* \"contracts/Usuarios.sol\":2885:2910  GuiaTuristas memory _guia */\n      0x00\n        /* \"contracts/Usuarios.sol\":2913:2929  guiasRegistrados */\n      0x01\n        /* \"contracts/Usuarios.sol\":2913:2938  guiasRegistrados[_cuenta] */\n      0x00\n        /* \"contracts/Usuarios.sol\":2930:2937  _cuenta */\n      dup5\n        /* \"contracts/Usuarios.sol\":2913:2938  guiasRegistrados[_cuenta] */\n      0xffffffffffffffffffffffffffffffffffffffff\n      and\n      0xffffffffffffffffffffffffffffffffffffffff\n      and\n      dup2\n      mstore\n      0x20\n      add\n      swap1\n      dup2\n      mstore\n      0x20\n      add\n      0x00\n      keccak256\n        /* \"contracts/Usuarios.sol\":2885:2938  GuiaTuristas memory _guia = guiasRegistrados[_cuenta] */\n      mload(0x40)\n      dup1\n      0x60\n      add\n      0x40\n      mstore\n      swap1\n      dup2\n      0x00\n      dup3\n      add\n      0x00\n      swap1\n      sload\n      swap1\n      0x0100\n      exp\n      swap1\n      div\n      0xffffffffffffffffffffffffffffffffffffffff\n      and\n      0xffffffffffffffffffffffffffffffffffffffff\n      and\n      0xffffffffffffffffffffffffffffffffffffffff\n      and\n      dup2\n      mstore\n      0x20\n      add\n      0x01\n      dup3\n      add\n      dup1\n      sload\n      tag_89\n      swap1\n      tag_59\n      jump\t// in\n    tag_89:\n      dup1\n      0x1f\n      add\n      0x20\n      dup1\n      swap2\n      div\n      mul\n      0x20\n      add\n      mload(0x40)\n      swap1\n      dup2\n      add\n      0x40\n      mstore\n      dup1\n      swap3\n      swap2\n      swap1\n      dup2\n      dup2\n      mstore\n      0x20\n      add\n      dup3\n      dup1\n      sload\n      tag_90\n      swap1\n      tag_59\n      jump\t// in\n    tag_90:\n      dup1\n      iszero\n      tag_91\n      jumpi\n      dup1\n      0x1f\n      lt\n      tag_92\n      jumpi\n      0x0100\n      dup1\n      dup4\n      sload\n      div\n      mul\n      dup4\n      mstore\n      swap2\n      0x20\n      add\n      swap2\n      jump(tag_91)\n    tag_92:\n      dup3\n      add\n      swap2\n      swap1\n      0x00\n      mstore\n      keccak256(0x00, 0x20)\n      swap1\n    tag_93:\n      dup2\n      sload\n      dup2\n      mstore\n      swap1\n      0x01\n      add\n      swap1\n      0x20\n      add\n      dup1\n      dup4\n      gt\n      tag_93\n      jumpi\n      dup3\n      swap1\n      sub\n      0x1f\n      and\n      dup3\n      add\n      swap2\n    tag_91:\n      pop\n      pop\n      pop\n      pop\n      pop\n      dup2\n      mstore\n      0x20\n      add\n      0x02\n      dup3\n      add\n      0x00\n      swap1\n      sload\n      swap1\n      0x0100\n      exp\n      swap1\n      div\n      0xff\n      and\n      iszero\n      iszero\n      iszero\n      iszero\n      dup2\n      mstore\n      pop\n      pop\n      swap1\n      pop\n        /* \"contracts/Usuarios.sol\":2956:2961  _guia */\n      dup1\n        /* \"contracts/Usuarios.sol\":2948:2962  return (_guia) */\n      swap2\n      pop\n      pop\n        /* \"contracts/Usuarios.sol\":2750:2969  function verGuia(address _cuenta)... */\n      swap2\n      swap1\n      pop\n      jump\t// out\n    tag_55:\n      dup3\n      dup1\n      sload\n      tag_94\n      swap1\n      tag_59\n      jump\t// in\n    tag_94:\n      swap1\n      0x00\n      mstore\n      keccak256(0x00, 0x20)\n      swap1\n      0x1f\n      add\n      0x20\n      swap1\n      div\n      dup2\n      add\n      swap3\n      dup3\n      tag_96\n      jumpi\n      0x00\n      dup6\n      sstore\n      jump(tag_95)\n    tag_96:\n      dup3\n      0x1f\n      lt\n      tag_97\n      jumpi\n      dup1\n      mload\n      not(0xff)\n      and\n      dup4\n      dup1\n      add\n      or\n      dup6\n      sstore\n      jump(tag_95)\n    tag_97:\n      dup3\n      dup1\n      add\n      0x01\n      add\n      dup6\n      sstore\n      dup3\n      iszero\n      tag_95\n      jumpi\n      swap2\n      dup3\n      add\n    tag_98:\n      dup3\n      dup2\n      gt\n      iszero\n      tag_99\n      jumpi\n      dup3\n      mload\n      dup3\n      sstore\n      swap2\n      0x20\n      add\n      swap2\n      swap1\n      0x01\n      add\n      swap1\n      jump(tag_98)\n    tag_99:\n    tag_95:\n      pop\n      swap1\n      pop\n      tag_100\n      swap2\n      swap1\n      tag_101\n      jump\t// in\n    tag_100:\n      pop\n      swap1\n      jump\t// out\n    tag_87:\n      mload(0x40)\n      dup1\n      0x60\n      add\n      0x40\n      mstore\n      dup1\n      and(0xffffffffffffffffffffffffffffffffffffffff, 0x00)\n      dup2\n      mstore\n      0x20\n      add\n      0x60\n      dup2\n      mstore\n      0x20\n      add\n      iszero(iszero(0x00))\n      dup2\n      mstore\n      pop\n      swap1\n      jump\t// out\n    tag_101:\n    tag_102:\n      dup1\n      dup3\n      gt\n      iszero\n      tag_103\n      jumpi\n      0x00\n      dup2\n      0x00\n      swap1\n      sstore\n      pop\n      0x01\n      add\n      jump(tag_102)\n    tag_103:\n      pop\n      swap1\n      jump\t// out\n        /* \"#utility.yul\":7:351   */\n    tag_105:\n      0x00\n        /* \"#utility.yul\":110:175   */\n      tag_107\n        /* \"#utility.yul\":125:174   */\n      tag_108\n        /* \"#utility.yul\":167:173   */\n      dup5\n        /* \"#utility.yul\":125:174   */\n      tag_109\n      jump\t// in\n    tag_108:\n        /* \"#utility.yul\":110:175   */\n      tag_110\n      jump\t// in\n    tag_107:\n        /* \"#utility.yul\":101:175   */\n      swap1\n      pop\n        /* \"#utility.yul\":198:204   */\n      dup3\n        /* \"#utility.yul\":191:196   */\n      dup2\n        /* \"#utility.yul\":184:205   */\n      mstore\n        /* \"#utility.yul\":236:240   */\n      0x20\n        /* \"#utility.yul\":229:234   */\n      dup2\n        /* \"#utility.yul\":225:241   */\n      add\n        /* \"#utility.yul\":274:277   */\n      dup5\n        /* \"#utility.yul\":265:271   */\n      dup5\n        /* \"#utility.yul\":260:263   */\n      dup5\n        /* \"#utility.yul\":256:272   */\n      add\n        /* \"#utility.yul\":253:278   */\n      gt\n        /* \"#utility.yul\":250:252   */\n      iszero\n      tag_111\n      jumpi\n        /* \"#utility.yul\":291:292   */\n      0x00\n        /* \"#utility.yul\":288:289   */\n      dup1\n        /* \"#utility.yul\":281:293   */\n      revert\n        /* \"#utility.yul\":250:252   */\n    tag_111:\n        /* \"#utility.yul\":304:345   */\n      tag_112\n        /* \"#utility.yul\":338:344   */\n      dup5\n        /* \"#utility.yul\":333:336   */\n      dup3\n        /* \"#utility.yul\":328:331   */\n      dup6\n        /* \"#utility.yul\":304:345   */\n      tag_113\n      jump\t// in\n    tag_112:\n        /* \"#utility.yul\":91:351   */\n      pop\n      swap4\n      swap3\n      pop\n      pop\n      pop\n      jump\t// out\n        /* \"#utility.yul\":357:496   */\n    tag_114:\n      0x00\n        /* \"#utility.yul\":441:447   */\n      dup2\n        /* \"#utility.yul\":428:448   */\n      calldataload\n        /* \"#utility.yul\":419:448   */\n      swap1\n      pop\n        /* \"#utility.yul\":457:490   */\n      tag_116\n        /* \"#utility.yul\":484:489   */\n      dup2\n        /* \"#utility.yul\":457:490   */\n      tag_117\n      jump\t// in\n    tag_116:\n        /* \"#utility.yul\":409:496   */\n      swap3\n      swap2\n      pop\n      pop\n      jump\t// out\n        /* \"#utility.yul\":516:789   */\n    tag_118:\n      0x00\n        /* \"#utility.yul\":621:624   */\n      dup3\n        /* \"#utility.yul\":614:618   */\n      0x1f\n        /* \"#utility.yul\":606:612   */\n      dup4\n        /* \"#utility.yul\":602:619   */\n      add\n        /* \"#utility.yul\":598:625   */\n      slt\n        /* \"#utility.yul\":588:590   */\n      tag_120\n      jumpi\n        /* \"#utility.yul\":639:640   */\n      0x00\n        /* \"#utility.yul\":636:637   */\n      dup1\n        /* \"#utility.yul\":629:641   */\n      revert\n        /* \"#utility.yul\":588:590   */\n    tag_120:\n        /* \"#utility.yul\":679:685   */\n      dup2\n        /* \"#utility.yul\":666:686   */\n      calldataload\n        /* \"#utility.yul\":704:783   */\n      tag_121\n        /* \"#utility.yul\":779:782   */\n      dup5\n        /* \"#utility.yul\":771:777   */\n      dup3\n        /* \"#utility.yul\":764:768   */\n      0x20\n        /* \"#utility.yul\":756:762   */\n      dup7\n        /* \"#utility.yul\":752:769   */\n      add\n        /* \"#utility.yul\":704:783   */\n      tag_105\n      jump\t// in\n    tag_121:\n        /* \"#utility.yul\":695:783   */\n      swap2\n      pop\n        /* \"#utility.yul\":578:789   */\n      pop\n      swap3\n      swap2\n      pop\n      pop\n      jump\t// out\n        /* \"#utility.yul\":795:930   */\n    tag_122:\n      0x00\n        /* \"#utility.yul\":877:883   */\n      dup2\n        /* \"#utility.yul\":864:884   */\n      calldataload\n        /* \"#utility.yul\":855:884   */\n      swap1\n      pop\n        /* \"#utility.yul\":893:924   */\n      tag_124\n        /* \"#utility.yul\":918:923   */\n      dup2\n        /* \"#utility.yul\":893:924   */\n      tag_125\n      jump\t// in\n    tag_124:\n        /* \"#utility.yul\":845:930   */\n      swap3\n      swap2\n      pop\n      pop\n      jump\t// out\n        /* \"#utility.yul\":936:1198   */\n    tag_19:\n      0x00\n        /* \"#utility.yul\":1044:1046   */\n      0x20\n        /* \"#utility.yul\":1032:1041   */\n      dup3\n        /* \"#utility.yul\":1023:1030   */\n      dup5\n        /* \"#utility.yul\":1019:1042   */\n      sub\n        /* \"#utility.yul\":1015:1047   */\n      slt\n        /* \"#utility.yul\":1012:1014   */\n      iszero\n      tag_127\n      jumpi\n        /* \"#utility.yul\":1060:1061   */\n      0x00\n        /* \"#utility.yul\":1057:1058   */\n      dup1\n        /* \"#utility.yul\":1050:1062   */\n      revert\n        /* \"#utility.yul\":1012:1014   */\n    tag_127:\n        /* \"#utility.yul\":1103:1104   */\n      0x00\n        /* \"#utility.yul\":1128:1181   */\n      tag_128\n        /* \"#utility.yul\":1173:1180   */\n      dup5\n        /* \"#utility.yul\":1164:1170   */\n      dup3\n        /* \"#utility.yul\":1153:1162   */\n      dup6\n        /* \"#utility.yul\":1149:1171   */\n      add\n        /* \"#utility.yul\":1128:1181   */\n      tag_114\n      jump\t// in\n    tag_128:\n        /* \"#utility.yul\":1118:1181   */\n      swap2\n      pop\n        /* \"#utility.yul\":1074:1191   */\n      pop\n        /* \"#utility.yul\":1002:1198   */\n      swap3\n      swap2\n      pop\n      pop\n      jump\t// out\n        /* \"#utility.yul\":1204:1724   */\n    tag_13:\n      0x00\n      dup1\n        /* \"#utility.yul\":1339:1341   */\n      0x40\n        /* \"#utility.yul\":1327:1336   */\n      dup4\n        /* \"#utility.yul\":1318:1325   */\n      dup6\n        /* \"#utility.yul\":1314:1337   */\n      sub\n        /* \"#utility.yul\":1310:1342   */\n      slt\n        /* \"#utility.yul\":1307:1309   */\n      iszero\n      tag_130\n      jumpi\n        /* \"#utility.yul\":1355:1356   */\n      0x00\n        /* \"#utility.yul\":1352:1353   */\n      dup1\n        /* \"#utility.yul\":1345:1357   */\n      revert\n        /* \"#utility.yul\":1307:1309   */\n    tag_130:\n        /* \"#utility.yul\":1398:1399   */\n      0x00\n        /* \"#utility.yul\":1423:1476   */\n      tag_131\n        /* \"#utility.yul\":1468:1475   */\n      dup6\n        /* \"#utility.yul\":1459:1465   */\n      dup3\n        /* \"#utility.yul\":1448:1457   */\n      dup7\n        /* \"#utility.yul\":1444:1466   */\n      add\n        /* \"#utility.yul\":1423:1476   */\n      tag_114\n      jump\t// in\n    tag_131:\n        /* \"#utility.yul\":1413:1476   */\n      swap3\n      pop\n        /* \"#utility.yul\":1369:1486   */\n      pop\n        /* \"#utility.yul\":1553:1555   */\n      0x20\n        /* \"#utility.yul\":1542:1551   */\n      dup4\n        /* \"#utility.yul\":1538:1556   */\n      add\n        /* \"#utility.yul\":1525:1557   */\n      calldataload\n        /* \"#utility.yul\":1584:1602   */\n      0xffffffffffffffff\n        /* \"#utility.yul\":1576:1582   */\n      dup2\n        /* \"#utility.yul\":1573:1603   */\n      gt\n        /* \"#utility.yul\":1570:1572   */\n      iszero\n      tag_132\n      jumpi\n        /* \"#utility.yul\":1616:1617   */\n      0x00\n        /* \"#utility.yul\":1613:1614   */\n      dup1\n        /* \"#utility.yul\":1606:1618   */\n      revert\n        /* \"#utility.yul\":1570:1572   */\n    tag_132:\n        /* \"#utility.yul\":1644:1707   */\n      tag_133\n        /* \"#utility.yul\":1699:1706   */\n      dup6\n        /* \"#utility.yul\":1690:1696   */\n      dup3\n        /* \"#utility.yul\":1679:1688   */\n      dup7\n        /* \"#utility.yul\":1675:1697   */\n      add\n        /* \"#utility.yul\":1644:1707   */\n      tag_118\n      jump\t// in\n    tag_133:\n        /* \"#utility.yul\":1634:1707   */\n      swap2\n      pop\n        /* \"#utility.yul\":1496:1717   */\n      pop\n        /* \"#utility.yul\":1297:1724   */\n      swap3\n      pop\n      swap3\n      swap1\n      pop\n      jump\t// out\n        /* \"#utility.yul\":1730:2391   */\n    tag_25:\n      0x00\n      dup1\n      0x00\n        /* \"#utility.yul\":1880:1882   */\n      0x60\n        /* \"#utility.yul\":1868:1877   */\n      dup5\n        /* \"#utility.yul\":1859:1866   */\n      dup7\n        /* \"#utility.yul\":1855:1878   */\n      sub\n        /* \"#utility.yul\":1851:1883   */\n      slt\n        /* \"#utility.yul\":1848:1850   */\n      iszero\n      tag_135\n      jumpi\n        /* \"#utility.yul\":1896:1897   */\n      0x00\n        /* \"#utility.yul\":1893:1894   */\n      dup1\n        /* \"#utility.yul\":1886:1898   */\n      revert\n        /* \"#utility.yul\":1848:1850   */\n    tag_135:\n        /* \"#utility.yul\":1939:1940   */\n      0x00\n        /* \"#utility.yul\":1964:2017   */\n      tag_136\n        /* \"#utility.yul\":2009:2016   */\n      dup7\n        /* \"#utility.yul\":2000:2006   */\n      dup3\n        /* \"#utility.yul\":1989:1998   */\n      dup8\n        /* \"#utility.yul\":1985:2007   */\n      add\n        /* \"#utility.yul\":1964:2017   */\n      tag_114\n      jump\t// in\n    tag_136:\n        /* \"#utility.yul\":1954:2017   */\n      swap4\n      pop\n        /* \"#utility.yul\":1910:2027   */\n      pop\n        /* \"#utility.yul\":2094:2096   */\n      0x20\n        /* \"#utility.yul\":2083:2092   */\n      dup5\n        /* \"#utility.yul\":2079:2097   */\n      add\n        /* \"#utility.yul\":2066:2098   */\n      calldataload\n        /* \"#utility.yul\":2125:2143   */\n      0xffffffffffffffff\n        /* \"#utility.yul\":2117:2123   */\n      dup2\n        /* \"#utility.yul\":2114:2144   */\n      gt\n        /* \"#utility.yul\":2111:2113   */\n      iszero\n      tag_137\n      jumpi\n        /* \"#utility.yul\":2157:2158   */\n      0x00\n        /* \"#utility.yul\":2154:2155   */\n      dup1\n        /* \"#utility.yul\":2147:2159   */\n      revert\n        /* \"#utility.yul\":2111:2113   */\n    tag_137:\n        /* \"#utility.yul\":2185:2248   */\n      tag_138\n        /* \"#utility.yul\":2240:2247   */\n      dup7\n        /* \"#utility.yul\":2231:2237   */\n      dup3\n        /* \"#utility.yul\":2220:2229   */\n      dup8\n        /* \"#utility.yul\":2216:2238   */\n      add\n        /* \"#utility.yul\":2185:2248   */\n      tag_118\n      jump\t// in\n    tag_138:\n        /* \"#utility.yul\":2175:2248   */\n      swap3\n      pop\n        /* \"#utility.yul\":2037:2258   */\n      pop\n        /* \"#utility.yul\":2297:2299   */\n      0x40\n        /* \"#utility.yul\":2323:2374   */\n      tag_139\n        /* \"#utility.yul\":2366:2373   */\n      dup7\n        /* \"#utility.yul\":2357:2363   */\n      dup3\n        /* \"#utility.yul\":2346:2355   */\n      dup8\n        /* \"#utility.yul\":2342:2364   */\n      add\n        /* \"#utility.yul\":2323:2374   */\n      tag_122\n      jump\t// in\n    tag_139:\n        /* \"#utility.yul\":2313:2374   */\n      swap2\n      pop\n        /* \"#utility.yul\":2268:2384   */\n      pop\n        /* \"#utility.yul\":1838:2391   */\n      swap3\n      pop\n      swap3\n      pop\n      swap3\n      jump\t// out\n        /* \"#utility.yul\":2397:2505   */\n    tag_140:\n        /* \"#utility.yul\":2474:2498   */\n      tag_142\n        /* \"#utility.yul\":2492:2497   */\n      dup2\n        /* \"#utility.yul\":2474:2498   */\n      tag_143\n      jump\t// in\n    tag_142:\n        /* \"#utility.yul\":2469:2472   */\n      dup3\n        /* \"#utility.yul\":2462:2499   */\n      mstore\n        /* \"#utility.yul\":2452:2505   */\n      pop\n      pop\n      jump\t// out\n        /* \"#utility.yul\":2511:2629   */\n    tag_144:\n        /* \"#utility.yul\":2598:2622   */\n      tag_146\n        /* \"#utility.yul\":2616:2621   */\n      dup2\n        /* \"#utility.yul\":2598:2622   */\n      tag_143\n      jump\t// in\n    tag_146:\n        /* \"#utility.yul\":2593:2596   */\n      dup3\n        /* \"#utility.yul\":2586:2623   */\n      mstore\n        /* \"#utility.yul\":2576:2629   */\n      pop\n      pop\n      jump\t// out\n        /* \"#utility.yul\":2635:2734   */\n    tag_147:\n        /* \"#utility.yul\":2706:2727   */\n      tag_149\n        /* \"#utility.yul\":2721:2726   */\n      dup2\n        /* \"#utility.yul\":2706:2727   */\n      tag_150\n      jump\t// in\n    tag_149:\n        /* \"#utility.yul\":2701:2704   */\n      dup3\n        /* \"#utility.yul\":2694:2728   */\n      mstore\n        /* \"#utility.yul\":2684:2734   */\n      pop\n      pop\n      jump\t// out\n        /* \"#utility.yul\":2740:2849   */\n    tag_151:\n        /* \"#utility.yul\":2821:2842   */\n      tag_153\n        /* \"#utility.yul\":2836:2841   */\n      dup2\n        /* \"#utility.yul\":2821:2842   */\n      tag_150\n      jump\t// in\n    tag_153:\n        /* \"#utility.yul\":2816:2819   */\n      dup3\n        /* \"#utility.yul\":2809:2843   */\n      mstore\n        /* \"#utility.yul\":2799:2849   */\n      pop\n      pop\n      jump\t// out\n        /* \"#utility.yul\":2855:3199   */\n    tag_154:\n      0x00\n        /* \"#utility.yul\":2961:3000   */\n      tag_156\n        /* \"#utility.yul\":2994:2999   */\n      dup3\n        /* \"#utility.yul\":2961:3000   */\n      tag_157\n      jump\t// in\n    tag_156:\n        /* \"#utility.yul\":3016:3077   */\n      tag_158\n        /* \"#utility.yul\":3070:3076   */\n      dup2\n        /* \"#utility.yul\":3065:3068   */\n      dup6\n        /* \"#utility.yul\":3016:3077   */\n      tag_159\n      jump\t// in\n    tag_158:\n        /* \"#utility.yul\":3009:3077   */\n      swap4\n      pop\n        /* \"#utility.yul\":3086:3138   */\n      tag_160\n        /* \"#utility.yul\":3131:3137   */\n      dup2\n        /* \"#utility.yul\":3126:3129   */\n      dup6\n        /* \"#utility.yul\":3119:3123   */\n      0x20\n        /* \"#utility.yul\":3112:3117   */\n      dup7\n        /* \"#utility.yul\":3108:3124   */\n      add\n        /* \"#utility.yul\":3086:3138   */\n      tag_161\n      jump\t// in\n    tag_160:\n        /* \"#utility.yul\":3163:3192   */\n      tag_162\n        /* \"#utility.yul\":3185:3191   */\n      dup2\n        /* \"#utility.yul\":3163:3192   */\n      tag_163\n      jump\t// in\n    tag_162:\n        /* \"#utility.yul\":3158:3161   */\n      dup5\n        /* \"#utility.yul\":3154:3193   */\n      add\n        /* \"#utility.yul\":3147:3193   */\n      swap2\n      pop\n        /* \"#utility.yul\":2937:3199   */\n      pop\n      swap3\n      swap2\n      pop\n      pop\n      jump\t// out\n        /* \"#utility.yul\":3205:3569   */\n    tag_164:\n      0x00\n        /* \"#utility.yul\":3321:3360   */\n      tag_166\n        /* \"#utility.yul\":3354:3359   */\n      dup3\n        /* \"#utility.yul\":3321:3360   */\n      tag_157\n      jump\t// in\n    tag_166:\n        /* \"#utility.yul\":3376:3447   */\n      tag_167\n        /* \"#utility.yul\":3440:3446   */\n      dup2\n        /* \"#utility.yul\":3435:3438   */\n      dup6\n        /* \"#utility.yul\":3376:3447   */\n      tag_168\n      jump\t// in\n    tag_167:\n        /* \"#utility.yul\":3369:3447   */\n      swap4\n      pop\n        /* \"#utility.yul\":3456:3508   */\n      tag_169\n        /* \"#utility.yul\":3501:3507   */\n      dup2\n        /* \"#utility.yul\":3496:3499   */\n      dup6\n        /* \"#utility.yul\":3489:3493   */\n      0x20\n        /* \"#utility.yul\":3482:3487   */\n      dup7\n        /* \"#utility.yul\":3478:3494   */\n      add\n        /* \"#utility.yul\":3456:3508   */\n      tag_161\n      jump\t// in\n    tag_169:\n        /* \"#utility.yul\":3533:3562   */\n      tag_170\n        /* \"#utility.yul\":3555:3561   */\n      dup2\n        /* \"#utility.yul\":3533:3562   */\n      tag_163\n      jump\t// in\n    tag_170:\n        /* \"#utility.yul\":3528:3531   */\n      dup5\n        /* \"#utility.yul\":3524:3563   */\n      add\n        /* \"#utility.yul\":3517:3563   */\n      swap2\n      pop\n        /* \"#utility.yul\":3297:3569   */\n      pop\n      swap3\n      swap2\n      pop\n      pop\n      jump\t// out\n        /* \"#utility.yul\":3575:3968   */\n    tag_171:\n      0x00\n        /* \"#utility.yul\":3738:3805   */\n      tag_173\n        /* \"#utility.yul\":3802:3804   */\n      0x3d\n        /* \"#utility.yul\":3797:3800   */\n      dup4\n        /* \"#utility.yul\":3738:3805   */\n      tag_168\n      jump\t// in\n    tag_173:\n        /* \"#utility.yul\":3731:3805   */\n      swap2\n      pop\n        /* \"#utility.yul\":3835:3869   */\n      0x536f6c6f20656c204475656e6e6f206f20477569617320646520747572697374\n        /* \"#utility.yul\":3831:3832   */\n      0x00\n        /* \"#utility.yul\":3826:3829   */\n      dup4\n        /* \"#utility.yul\":3822:3833   */\n      add\n        /* \"#utility.yul\":3815:3870   */\n      mstore\n        /* \"#utility.yul\":3901:3932   */\n      0x6173207075656465207265616c697a6172206573746120616363696f6e000000\n        /* \"#utility.yul\":3896:3898   */\n      0x20\n        /* \"#utility.yul\":3891:3894   */\n      dup4\n        /* \"#utility.yul\":3887:3899   */\n      add\n        /* \"#utility.yul\":3880:3933   */\n      mstore\n        /* \"#utility.yul\":3959:3961   */\n      0x40\n        /* \"#utility.yul\":3954:3957   */\n      dup3\n        /* \"#utility.yul\":3950:3962   */\n      add\n        /* \"#utility.yul\":3943:3962   */\n      swap1\n      pop\n        /* \"#utility.yul\":3721:3968   */\n      swap2\n      swap1\n      pop\n      jump\t// out\n        /* \"#utility.yul\":3974:4341   */\n    tag_174:\n      0x00\n        /* \"#utility.yul\":4137:4204   */\n      tag_176\n        /* \"#utility.yul\":4201:4203   */\n      0x23\n        /* \"#utility.yul\":4196:4199   */\n      dup4\n        /* \"#utility.yul\":4137:4204   */\n      tag_168\n      jump\t// in\n    tag_176:\n        /* \"#utility.yul\":4130:4204   */\n      swap2\n      pop\n        /* \"#utility.yul\":4234:4268   */\n      0x4775696120646520547572697374617320796120657374612072656769737472\n        /* \"#utility.yul\":4230:4231   */\n      0x00\n        /* \"#utility.yul\":4225:4228   */\n      dup4\n        /* \"#utility.yul\":4221:4232   */\n      add\n        /* \"#utility.yul\":4214:4269   */\n      mstore\n        /* \"#utility.yul\":4300:4305   */\n      0x61646f0000000000000000000000000000000000000000000000000000000000\n        /* \"#utility.yul\":4295:4297   */\n      0x20\n        /* \"#utility.yul\":4290:4293   */\n      dup4\n        /* \"#utility.yul\":4286:4298   */\n      add\n        /* \"#utility.yul\":4279:4306   */\n      mstore\n        /* \"#utility.yul\":4332:4334   */\n      0x40\n        /* \"#utility.yul\":4327:4330   */\n      dup3\n        /* \"#utility.yul\":4323:4335   */\n      add\n        /* \"#utility.yul\":4316:4335   */\n      swap1\n      pop\n        /* \"#utility.yul\":4120:4341   */\n      swap2\n      swap1\n      pop\n      jump\t// out\n        /* \"#utility.yul\":4347:4671   */\n    tag_177:\n      0x00\n        /* \"#utility.yul\":4510:4577   */\n      tag_179\n        /* \"#utility.yul\":4574:4576   */\n      0x1a\n        /* \"#utility.yul\":4569:4572   */\n      dup4\n        /* \"#utility.yul\":4510:4577   */\n      tag_168\n      jump\t// in\n    tag_179:\n        /* \"#utility.yul\":4503:4577   */\n      swap2\n      pop\n        /* \"#utility.yul\":4607:4635   */\n      0x547572697374612079612065737461207265676973747261646f000000000000\n        /* \"#utility.yul\":4603:4604   */\n      0x00\n        /* \"#utility.yul\":4598:4601   */\n      dup4\n        /* \"#utility.yul\":4594:4605   */\n      add\n        /* \"#utility.yul\":4587:4636   */\n      mstore\n        /* \"#utility.yul\":4662:4664   */\n      0x20\n        /* \"#utility.yul\":4657:4660   */\n      dup3\n        /* \"#utility.yul\":4653:4665   */\n      add\n        /* \"#utility.yul\":4646:4665   */\n      swap1\n      pop\n        /* \"#utility.yul\":4493:4671   */\n      swap2\n      swap1\n      pop\n      jump\t// out\n        /* \"#utility.yul\":4677:5050   */\n    tag_180:\n      0x00\n        /* \"#utility.yul\":4840:4907   */\n      tag_182\n        /* \"#utility.yul\":4904:4906   */\n      0x29\n        /* \"#utility.yul\":4899:4902   */\n      dup4\n        /* \"#utility.yul\":4840:4907   */\n      tag_168\n      jump\t// in\n    tag_182:\n        /* \"#utility.yul\":4833:4907   */\n      swap2\n      pop\n        /* \"#utility.yul\":4937:4971   */\n      0x536f6c6f20656c204475656e6e6f207075656465207265616c697a6172206573\n        /* \"#utility.yul\":4933:4934   */\n      0x00\n        /* \"#utility.yul\":4928:4931   */\n      dup4\n        /* \"#utility.yul\":4924:4935   */\n      add\n        /* \"#utility.yul\":4917:4972   */\n      mstore\n        /* \"#utility.yul\":5003:5014   */\n      0x746120616363696f6e0000000000000000000000000000000000000000000000\n        /* \"#utility.yul\":4998:5000   */\n      0x20\n        /* \"#utility.yul\":4993:4996   */\n      dup4\n        /* \"#utility.yul\":4989:5001   */\n      add\n        /* \"#utility.yul\":4982:5015   */\n      mstore\n        /* \"#utility.yul\":5041:5043   */\n      0x40\n        /* \"#utility.yul\":5036:5039   */\n      dup3\n        /* \"#utility.yul\":5032:5044   */\n      add\n        /* \"#utility.yul\":5025:5044   */\n      swap1\n      pop\n        /* \"#utility.yul\":4823:5050   */\n      swap2\n      swap1\n      pop\n      jump\t// out\n        /* \"#utility.yul\":5124:5916   */\n    tag_183:\n      0x00\n        /* \"#utility.yul\":5283:5287   */\n      0x60\n        /* \"#utility.yul\":5278:5281   */\n      dup4\n        /* \"#utility.yul\":5274:5288   */\n      add\n        /* \"#utility.yul\":5372:5376   */\n      0x00\n        /* \"#utility.yul\":5365:5370   */\n      dup4\n        /* \"#utility.yul\":5361:5377   */\n      add\n        /* \"#utility.yul\":5355:5378   */\n      mload\n        /* \"#utility.yul\":5391:5454   */\n      tag_185\n        /* \"#utility.yul\":5448:5452   */\n      0x00\n        /* \"#utility.yul\":5443:5446   */\n      dup7\n        /* \"#utility.yul\":5439:5453   */\n      add\n        /* \"#utility.yul\":5425:5437   */\n      dup3\n        /* \"#utility.yul\":5391:5454   */\n      tag_140\n      jump\t// in\n    tag_185:\n        /* \"#utility.yul\":5298:5464   */\n      pop\n        /* \"#utility.yul\":5556:5560   */\n      0x20\n        /* \"#utility.yul\":5549:5554   */\n      dup4\n        /* \"#utility.yul\":5545:5561   */\n      add\n        /* \"#utility.yul\":5539:5562   */\n      mload\n        /* \"#utility.yul\":5609:5612   */\n      dup5\n        /* \"#utility.yul\":5603:5607   */\n      dup3\n        /* \"#utility.yul\":5599:5613   */\n      sub\n        /* \"#utility.yul\":5592:5596   */\n      0x20\n        /* \"#utility.yul\":5587:5590   */\n      dup7\n        /* \"#utility.yul\":5583:5597   */\n      add\n        /* \"#utility.yul\":5576:5614   */\n      mstore\n        /* \"#utility.yul\":5635:5708   */\n      tag_186\n        /* \"#utility.yul\":5703:5707   */\n      dup3\n        /* \"#utility.yul\":5689:5701   */\n      dup3\n        /* \"#utility.yul\":5635:5708   */\n      tag_154\n      jump\t// in\n    tag_186:\n        /* \"#utility.yul\":5627:5708   */\n      swap2\n      pop\n        /* \"#utility.yul\":5474:5719   */\n      pop\n        /* \"#utility.yul\":5803:5807   */\n      0x40\n        /* \"#utility.yul\":5796:5801   */\n      dup4\n        /* \"#utility.yul\":5792:5808   */\n      add\n        /* \"#utility.yul\":5786:5809   */\n      mload\n        /* \"#utility.yul\":5822:5879   */\n      tag_187\n        /* \"#utility.yul\":5873:5877   */\n      0x40\n        /* \"#utility.yul\":5868:5871   */\n      dup7\n        /* \"#utility.yul\":5864:5878   */\n      add\n        /* \"#utility.yul\":5850:5862   */\n      dup3\n        /* \"#utility.yul\":5822:5879   */\n      tag_147\n      jump\t// in\n    tag_187:\n        /* \"#utility.yul\":5729:5889   */\n      pop\n        /* \"#utility.yul\":5906:5910   */\n      dup1\n        /* \"#utility.yul\":5899:5910   */\n      swap2\n      pop\n        /* \"#utility.yul\":5252:5916   */\n      pop\n      swap3\n      swap2\n      pop\n      pop\n      jump\t// out\n        /* \"#utility.yul\":5922:6034   */\n    tag_188:\n        /* \"#utility.yul\":6005:6027   */\n      tag_190\n        /* \"#utility.yul\":6021:6026   */\n      dup2\n        /* \"#utility.yul\":6005:6027   */\n      tag_191\n      jump\t// in\n    tag_190:\n        /* \"#utility.yul\":6000:6003   */\n      dup3\n        /* \"#utility.yul\":5993:6028   */\n      mstore\n        /* \"#utility.yul\":5983:6034   */\n      pop\n      pop\n      jump\t// out\n        /* \"#utility.yul\":6040:6262   */\n    tag_40:\n      0x00\n        /* \"#utility.yul\":6171:6173   */\n      0x20\n        /* \"#utility.yul\":6160:6169   */\n      dup3\n        /* \"#utility.yul\":6156:6174   */\n      add\n        /* \"#utility.yul\":6148:6174   */\n      swap1\n      pop\n        /* \"#utility.yul\":6184:6255   */\n      tag_193\n        /* \"#utility.yul\":6252:6253   */\n      0x00\n        /* \"#utility.yul\":6241:6250   */\n      dup4\n        /* \"#utility.yul\":6237:6254   */\n      add\n        /* \"#utility.yul\":6228:6234   */\n      dup5\n        /* \"#utility.yul\":6184:6255   */\n      tag_144\n      jump\t// in\n    tag_193:\n        /* \"#utility.yul\":6138:6262   */\n      swap3\n      swap2\n      pop\n      pop\n      jump\t// out\n        /* \"#utility.yul\":6268:6691   */\n    tag_57:\n      0x00\n        /* \"#utility.yul\":6447:6449   */\n      0x40\n        /* \"#utility.yul\":6436:6445   */\n      dup3\n        /* \"#utility.yul\":6432:6450   */\n      add\n        /* \"#utility.yul\":6424:6450   */\n      swap1\n      pop\n        /* \"#utility.yul\":6460:6531   */\n      tag_195\n        /* \"#utility.yul\":6528:6529   */\n      0x00\n        /* \"#utility.yul\":6517:6526   */\n      dup4\n        /* \"#utility.yul\":6513:6530   */\n      add\n        /* \"#utility.yul\":6504:6510   */\n      dup6\n        /* \"#utility.yul\":6460:6531   */\n      tag_144\n      jump\t// in\n    tag_195:\n        /* \"#utility.yul\":6578:6587   */\n      dup2\n        /* \"#utility.yul\":6572:6576   */\n      dup2\n        /* \"#utility.yul\":6568:6588   */\n      sub\n        /* \"#utility.yul\":6563:6565   */\n      0x20\n        /* \"#utility.yul\":6552:6561   */\n      dup4\n        /* \"#utility.yul\":6548:6566   */\n      add\n        /* \"#utility.yul\":6541:6589   */\n      mstore\n        /* \"#utility.yul\":6606:6684   */\n      tag_196\n        /* \"#utility.yul\":6679:6683   */\n      dup2\n        /* \"#utility.yul\":6670:6676   */\n      dup5\n        /* \"#utility.yul\":6606:6684   */\n      tag_164\n      jump\t// in\n    tag_196:\n        /* \"#utility.yul\":6598:6684   */\n      swap1\n      pop\n        /* \"#utility.yul\":6414:6691   */\n      swap4\n      swap3\n      pop\n      pop\n      pop\n      jump\t// out\n        /* \"#utility.yul\":6697:7218   */\n    tag_32:\n      0x00\n        /* \"#utility.yul\":6898:6900   */\n      0x60\n        /* \"#utility.yul\":6887:6896   */\n      dup3\n        /* \"#utility.yul\":6883:6901   */\n      add\n        /* \"#utility.yul\":6875:6901   */\n      swap1\n      pop\n        /* \"#utility.yul\":6911:6982   */\n      tag_198\n        /* \"#utility.yul\":6979:6980   */\n      0x00\n        /* \"#utility.yul\":6968:6977   */\n      dup4\n        /* \"#utility.yul\":6964:6981   */\n      add\n        /* \"#utility.yul\":6955:6961   */\n      dup7\n        /* \"#utility.yul\":6911:6982   */\n      tag_144\n      jump\t// in\n    tag_198:\n        /* \"#utility.yul\":7029:7038   */\n      dup2\n        /* \"#utility.yul\":7023:7027   */\n      dup2\n        /* \"#utility.yul\":7019:7039   */\n      sub\n        /* \"#utility.yul\":7014:7016   */\n      0x20\n        /* \"#utility.yul\":7003:7012   */\n      dup4\n        /* \"#utility.yul\":6999:7017   */\n      add\n        /* \"#utility.yul\":6992:7040   */\n      mstore\n        /* \"#utility.yul\":7057:7135   */\n      tag_199\n        /* \"#utility.yul\":7130:7134   */\n      dup2\n        /* \"#utility.yul\":7121:7127   */\n      dup6\n        /* \"#utility.yul\":7057:7135   */\n      tag_164\n      jump\t// in\n    tag_199:\n        /* \"#utility.yul\":7049:7135   */\n      swap1\n      pop\n        /* \"#utility.yul\":7145:7211   */\n      tag_200\n        /* \"#utility.yul\":7207:7209   */\n      0x40\n        /* \"#utility.yul\":7196:7205   */\n      dup4\n        /* \"#utility.yul\":7192:7210   */\n      add\n        /* \"#utility.yul\":7183:7189   */\n      dup5\n        /* \"#utility.yul\":7145:7211   */\n      tag_151\n      jump\t// in\n    tag_200:\n        /* \"#utility.yul\":6865:7218   */\n      swap5\n      swap4\n      pop\n      pop\n      pop\n      pop\n      jump\t// out\n        /* \"#utility.yul\":7224:7848   */\n    tag_22:\n      0x00\n        /* \"#utility.yul\":7449:7452   */\n      0x80\n        /* \"#utility.yul\":7438:7447   */\n      dup3\n        /* \"#utility.yul\":7434:7453   */\n      add\n        /* \"#utility.yul\":7426:7453   */\n      swap1\n      pop\n        /* \"#utility.yul\":7463:7534   */\n      tag_202\n        /* \"#utility.yul\":7531:7532   */\n      0x00\n        /* \"#utility.yul\":7520:7529   */\n      dup4\n        /* \"#utility.yul\":7516:7533   */\n      add\n        /* \"#utility.yul\":7507:7513   */\n      dup8\n        /* \"#utility.yul\":7463:7534   */\n      tag_144\n      jump\t// in\n    tag_202:\n        /* \"#utility.yul\":7581:7590   */\n      dup2\n        /* \"#utility.yul\":7575:7579   */\n      dup2\n        /* \"#utility.yul\":7571:7591   */\n      sub\n        /* \"#utility.yul\":7566:7568   */\n      0x20\n        /* \"#utility.yul\":7555:7564   */\n      dup4\n        /* \"#utility.yul\":7551:7569   */\n      add\n        /* \"#utility.yul\":7544:7592   */\n      mstore\n        /* \"#utility.yul\":7609:7687   */\n      tag_203\n        /* \"#utility.yul\":7682:7686   */\n      dup2\n        /* \"#utility.yul\":7673:7679   */\n      dup7\n        /* \"#utility.yul\":7609:7687   */\n      tag_164\n      jump\t// in\n    tag_203:\n        /* \"#utility.yul\":7601:7687   */\n      swap1\n      pop\n        /* \"#utility.yul\":7697:7765   */\n      tag_204\n        /* \"#utility.yul\":7761:7763   */\n      0x40\n        /* \"#utility.yul\":7750:7759   */\n      dup4\n        /* \"#utility.yul\":7746:7764   */\n      add\n        /* \"#utility.yul\":7737:7743   */\n      dup6\n        /* \"#utility.yul\":7697:7765   */\n      tag_188\n      jump\t// in\n    tag_204:\n        /* \"#utility.yul\":7775:7841   */\n      tag_205\n        /* \"#utility.yul\":7837:7839   */\n      0x60\n        /* \"#utility.yul\":7826:7835   */\n      dup4\n        /* \"#utility.yul\":7822:7840   */\n      add\n        /* \"#utility.yul\":7813:7819   */\n      dup5\n        /* \"#utility.yul\":7775:7841   */\n      tag_151\n      jump\t// in\n    tag_205:\n        /* \"#utility.yul\":7416:7848   */\n      swap6\n      swap5\n      pop\n      pop\n      pop\n      pop\n      pop\n      jump\t// out\n        /* \"#utility.yul\":7854:8167   */\n    tag_16:\n      0x00\n        /* \"#utility.yul\":8005:8007   */\n      0x20\n        /* \"#utility.yul\":7994:8003   */\n      dup3\n        /* \"#utility.yul\":7990:8008   */\n      add\n        /* \"#utility.yul\":7982:8008   */\n      swap1\n      pop\n        /* \"#utility.yul\":8054:8063   */\n      dup2\n        /* \"#utility.yul\":8048:8052   */\n      dup2\n        /* \"#utility.yul\":8044:8064   */\n      sub\n        /* \"#utility.yul\":8040:8041   */\n      0x00\n        /* \"#utility.yul\":8029:8038   */\n      dup4\n        /* \"#utility.yul\":8025:8042   */\n      add\n        /* \"#utility.yul\":8018:8065   */\n      mstore\n        /* \"#utility.yul\":8082:8160   */\n      tag_207\n        /* \"#utility.yul\":8155:8159   */\n      dup2\n        /* \"#utility.yul\":8146:8152   */\n      dup5\n        /* \"#utility.yul\":8082:8160   */\n      tag_164\n      jump\t// in\n    tag_207:\n        /* \"#utility.yul\":8074:8160   */\n      swap1\n      pop\n        /* \"#utility.yul\":7972:8167   */\n      swap3\n      swap2\n      pop\n      pop\n      jump\t// out\n        /* \"#utility.yul\":8173:8592   */\n    tag_68:\n      0x00\n        /* \"#utility.yul\":8377:8379   */\n      0x20\n        /* \"#utility.yul\":8366:8375   */\n      dup3\n        /* \"#utility.yul\":8362:8380   */\n      add\n        /* \"#utility.yul\":8354:8380   */\n      swap1\n      pop\n        /* \"#utility.yul\":8426:8435   */\n      dup2\n        /* \"#utility.yul\":8420:8424   */\n      dup2\n        /* \"#utility.yul\":8416:8436   */\n      sub\n        /* \"#utility.yul\":8412:8413   */\n      0x00\n        /* \"#utility.yul\":8401:8410   */\n      dup4\n        /* \"#utility.yul\":8397:8414   */\n      add\n        /* \"#utility.yul\":8390:8437   */\n      mstore\n        /* \"#utility.yul\":8454:8585   */\n      tag_209\n        /* \"#utility.yul\":8580:8584   */\n      dup2\n        /* \"#utility.yul\":8454:8585   */\n      tag_171\n      jump\t// in\n    tag_209:\n        /* \"#utility.yul\":8446:8585   */\n      swap1\n      pop\n        /* \"#utility.yul\":8344:8592   */\n      swap2\n      swap1\n      pop\n      jump\t// out\n        /* \"#utility.yul\":8598:9017   */\n    tag_53:\n      0x00\n        /* \"#utility.yul\":8802:8804   */\n      0x20\n        /* \"#utility.yul\":8791:8800   */\n      dup3\n        /* \"#utility.yul\":8787:8805   */\n      add\n        /* \"#utility.yul\":8779:8805   */\n      swap1\n      pop\n        /* \"#utility.yul\":8851:8860   */\n      dup2\n        /* \"#utility.yul\":8845:8849   */\n      dup2\n        /* \"#utility.yul\":8841:8861   */\n      sub\n        /* \"#utility.yul\":8837:8838   */\n      0x00\n        /* \"#utility.yul\":8826:8835   */\n      dup4\n        /* \"#utility.yul\":8822:8839   */\n      add\n        /* \"#utility.yul\":8815:8862   */\n      mstore\n        /* \"#utility.yul\":8879:9010   */\n      tag_211\n        /* \"#utility.yul\":9005:9009   */\n      dup2\n        /* \"#utility.yul\":8879:9010   */\n      tag_174\n      jump\t// in\n    tag_211:\n        /* \"#utility.yul\":8871:9010   */\n      swap1\n      pop\n        /* \"#utility.yul\":8769:9017   */\n      swap2\n      swap1\n      pop\n      jump\t// out\n        /* \"#utility.yul\":9023:9442   */\n    tag_72:\n      0x00\n        /* \"#utility.yul\":9227:9229   */\n      0x20\n        /* \"#utility.yul\":9216:9225   */\n      dup3\n        /* \"#utility.yul\":9212:9230   */\n      add\n        /* \"#utility.yul\":9204:9230   */\n      swap1\n      pop\n        /* \"#utility.yul\":9276:9285   */\n      dup2\n        /* \"#utility.yul\":9270:9274   */\n      dup2\n        /* \"#utility.yul\":9266:9286   */\n      sub\n        /* \"#utility.yul\":9262:9263   */\n      0x00\n        /* \"#utility.yul\":9251:9260   */\n      dup4\n        /* \"#utility.yul\":9247:9264   */\n      add\n        /* \"#utility.yul\":9240:9287   */\n      mstore\n        /* \"#utility.yul\":9304:9435   */\n      tag_213\n        /* \"#utility.yul\":9430:9434   */\n      dup2\n        /* \"#utility.yul\":9304:9435   */\n      tag_177\n      jump\t// in\n    tag_213:\n        /* \"#utility.yul\":9296:9435   */\n      swap1\n      pop\n        /* \"#utility.yul\":9194:9442   */\n      swap2\n      swap1\n      pop\n      jump\t// out\n        /* \"#utility.yul\":9448:9867   */\n    tag_49:\n      0x00\n        /* \"#utility.yul\":9652:9654   */\n      0x20\n        /* \"#utility.yul\":9641:9650   */\n      dup3\n        /* \"#utility.yul\":9637:9655   */\n      add\n        /* \"#utility.yul\":9629:9655   */\n      swap1\n      pop\n        /* \"#utility.yul\":9701:9710   */\n      dup2\n        /* \"#utility.yul\":9695:9699   */\n      dup2\n        /* \"#utility.yul\":9691:9711   */\n      sub\n        /* \"#utility.yul\":9687:9688   */\n      0x00\n        /* \"#utility.yul\":9676:9685   */\n      dup4\n        /* \"#utility.yul\":9672:9689   */\n      add\n        /* \"#utility.yul\":9665:9712   */\n      mstore\n        /* \"#utility.yul\":9729:9860   */\n      tag_215\n        /* \"#utility.yul\":9855:9859   */\n      dup2\n        /* \"#utility.yul\":9729:9860   */\n      tag_180\n      jump\t// in\n    tag_215:\n        /* \"#utility.yul\":9721:9860   */\n      swap1\n      pop\n        /* \"#utility.yul\":9619:9867   */\n      swap2\n      swap1\n      pop\n      jump\t// out\n        /* \"#utility.yul\":9873:10254   */\n    tag_45:\n      0x00\n        /* \"#utility.yul\":10058:10060   */\n      0x20\n        /* \"#utility.yul\":10047:10056   */\n      dup3\n        /* \"#utility.yul\":10043:10061   */\n      add\n        /* \"#utility.yul\":10035:10061   */\n      swap1\n      pop\n        /* \"#utility.yul\":10107:10116   */\n      dup2\n        /* \"#utility.yul\":10101:10105   */\n      dup2\n        /* \"#utility.yul\":10097:10117   */\n      sub\n        /* \"#utility.yul\":10093:10094   */\n      0x00\n        /* \"#utility.yul\":10082:10091   */\n      dup4\n        /* \"#utility.yul\":10078:10095   */\n      add\n        /* \"#utility.yul\":10071:10118   */\n      mstore\n        /* \"#utility.yul\":10135:10247   */\n      tag_217\n        /* \"#utility.yul\":10242:10246   */\n      dup2\n        /* \"#utility.yul\":10233:10239   */\n      dup5\n        /* \"#utility.yul\":10135:10247   */\n      tag_183\n      jump\t// in\n    tag_217:\n        /* \"#utility.yul\":10127:10247   */\n      swap1\n      pop\n        /* \"#utility.yul\":10025:10254   */\n      swap3\n      swap2\n      pop\n      pop\n      jump\t// out\n        /* \"#utility.yul\":10260:10543   */\n    tag_110:\n      0x00\n        /* \"#utility.yul\":10326:10328   */\n      0x40\n        /* \"#utility.yul\":10320:10329   */\n      mload\n        /* \"#utility.yul\":10310:10329   */\n      swap1\n      pop\n        /* \"#utility.yul\":10368:10372   */\n      dup2\n        /* \"#utility.yul\":10360:10366   */\n      dup2\n        /* \"#utility.yul\":10356:10373   */\n      add\n        /* \"#utility.yul\":10475:10481   */\n      dup2\n        /* \"#utility.yul\":10463:10473   */\n      dup2\n        /* \"#utility.yul\":10460:10482   */\n      lt\n        /* \"#utility.yul\":10439:10457   */\n      0xffffffffffffffff\n        /* \"#utility.yul\":10427:10437   */\n      dup3\n        /* \"#utility.yul\":10424:10458   */\n      gt\n        /* \"#utility.yul\":10421:10483   */\n      or\n        /* \"#utility.yul\":10418:10420   */\n      iszero\n      tag_219\n      jumpi\n        /* \"#utility.yul\":10486:10504   */\n      tag_220\n      tag_221\n      jump\t// in\n    tag_220:\n        /* \"#utility.yul\":10418:10420   */\n    tag_219:\n        /* \"#utility.yul\":10526:10536   */\n      dup1\n        /* \"#utility.yul\":10522:10524   */\n      0x40\n        /* \"#utility.yul\":10515:10537   */\n      mstore\n        /* \"#utility.yul\":10300:10543   */\n      pop\n      swap2\n      swap1\n      pop\n      jump\t// out\n        /* \"#utility.yul\":10549:10881   */\n    tag_109:\n      0x00\n        /* \"#utility.yul\":10701:10719   */\n      0xffffffffffffffff\n        /* \"#utility.yul\":10693:10699   */\n      dup3\n        /* \"#utility.yul\":10690:10720   */\n      gt\n        /* \"#utility.yul\":10687:10689   */\n      iszero\n      tag_223\n      jumpi\n        /* \"#utility.yul\":10723:10741   */\n      tag_224\n      tag_221\n      jump\t// in\n    tag_224:\n        /* \"#utility.yul\":10687:10689   */\n    tag_223:\n        /* \"#utility.yul\":10808:10812   */\n      0x1f\n        /* \"#utility.yul\":10804:10813   */\n      not\n        /* \"#utility.yul\":10797:10801   */\n      0x1f\n        /* \"#utility.yul\":10789:10795   */\n      dup4\n        /* \"#utility.yul\":10785:10802   */\n      add\n        /* \"#utility.yul\":10781:10814   */\n      and\n        /* \"#utility.yul\":10773:10814   */\n      swap1\n      pop\n        /* \"#utility.yul\":10869:10873   */\n      0x20\n        /* \"#utility.yul\":10863:10867   */\n      dup2\n        /* \"#utility.yul\":10859:10874   */\n      add\n        /* \"#utility.yul\":10851:10874   */\n      swap1\n      pop\n        /* \"#utility.yul\":10616:10881   */\n      swap2\n      swap1\n      pop\n      jump\t// out\n        /* \"#utility.yul\":10887:10986   */\n    tag_157:\n      0x00\n        /* \"#utility.yul\":10973:10978   */\n      dup2\n        /* \"#utility.yul\":10967:10979   */\n      mload\n        /* \"#utility.yul\":10957:10979   */\n      swap1\n      pop\n        /* \"#utility.yul\":10946:10986   */\n      swap2\n      swap1\n      pop\n      jump\t// out\n        /* \"#utility.yul\":10992:11151   */\n    tag_159:\n      0x00\n        /* \"#utility.yul\":11100:11106   */\n      dup3\n        /* \"#utility.yul\":11095:11098   */\n      dup3\n        /* \"#utility.yul\":11088:11107   */\n      mstore\n        /* \"#utility.yul\":11140:11144   */\n      0x20\n        /* \"#utility.yul\":11135:11138   */\n      dup3\n        /* \"#utility.yul\":11131:11145   */\n      add\n        /* \"#utility.yul\":11116:11145   */\n      swap1\n      pop\n        /* \"#utility.yul\":11078:11151   */\n      swap3\n      swap2\n      pop\n      pop\n      jump\t// out\n        /* \"#utility.yul\":11157:11326   */\n    tag_168:\n      0x00\n        /* \"#utility.yul\":11275:11281   */\n      dup3\n        /* \"#utility.yul\":11270:11273   */\n      dup3\n        /* \"#utility.yul\":11263:11282   */\n      mstore\n        /* \"#utility.yul\":11315:11319   */\n      0x20\n        /* \"#utility.yul\":11310:11313   */\n      dup3\n        /* \"#utility.yul\":11306:11320   */\n      add\n        /* \"#utility.yul\":11291:11320   */\n      swap1\n      pop\n        /* \"#utility.yul\":11253:11326   */\n      swap3\n      swap2\n      pop\n      pop\n      jump\t// out\n        /* \"#utility.yul\":11332:11428   */\n    tag_143:\n      0x00\n        /* \"#utility.yul\":11398:11422   */\n      tag_229\n        /* \"#utility.yul\":11416:11421   */\n      dup3\n        /* \"#utility.yul\":11398:11422   */\n      tag_230\n      jump\t// in\n    tag_229:\n        /* \"#utility.yul\":11387:11422   */\n      swap1\n      pop\n        /* \"#utility.yul\":11377:11428   */\n      swap2\n      swap1\n      pop\n      jump\t// out\n        /* \"#utility.yul\":11434:11524   */\n    tag_150:\n      0x00\n        /* \"#utility.yul\":11511:11516   */\n      dup2\n        /* \"#utility.yul\":11504:11517   */\n      iszero\n        /* \"#utility.yul\":11497:11518   */\n      iszero\n        /* \"#utility.yul\":11486:11518   */\n      swap1\n      pop\n        /* \"#utility.yul\":11476:11524   */\n      swap2\n      swap1\n      pop\n      jump\t// out\n        /* \"#utility.yul\":11530:11656   */\n    tag_230:\n      0x00\n        /* \"#utility.yul\":11607:11649   */\n      0xffffffffffffffffffffffffffffffffffffffff\n        /* \"#utility.yul\":11600:11605   */\n      dup3\n        /* \"#utility.yul\":11596:11650   */\n      and\n        /* \"#utility.yul\":11585:11650   */\n      swap1\n      pop\n        /* \"#utility.yul\":11575:11656   */\n      swap2\n      swap1\n      pop\n      jump\t// out\n        /* \"#utility.yul\":11662:11748   */\n    tag_191:\n      0x00\n        /* \"#utility.yul\":11737:11741   */\n      0xff\n        /* \"#utility.yul\":11730:11735   */\n      dup3\n        /* \"#utility.yul\":11726:11742   */\n      and\n        /* \"#utility.yul\":11715:11742   */\n      swap1\n      pop\n        /* \"#utility.yul\":11705:11748   */\n      swap2\n      swap1\n      pop\n      jump\t// out\n        /* \"#utility.yul\":11754:11908   */\n    tag_113:\n        /* \"#utility.yul\":11838:11844   */\n      dup3\n        /* \"#utility.yul\":11833:11836   */\n      dup2\n        /* \"#utility.yul\":11828:11831   */\n      dup4\n        /* \"#utility.yul\":11815:11845   */\n      calldatacopy\n        /* \"#utility.yul\":11900:11901   */\n      0x00\n        /* \"#utility.yul\":11891:11897   */\n      dup4\n        /* \"#utility.yul\":11886:11889   */\n      dup4\n        /* \"#utility.yul\":11882:11898   */\n      add\n        /* \"#utility.yul\":11875:11902   */\n      mstore\n        /* \"#utility.yul\":11805:11908   */\n      pop\n      pop\n      pop\n      jump\t// out\n        /* \"#utility.yul\":11914:12221   */\n    tag_161:\n        /* \"#utility.yul\":11982:11983   */\n      0x00\n        /* \"#utility.yul\":11992:12105   */\n    tag_236:\n        /* \"#utility.yul\":12006:12012   */\n      dup4\n        /* \"#utility.yul\":12003:12004   */\n      dup2\n        /* \"#utility.yul\":12000:12013   */\n      lt\n        /* \"#utility.yul\":11992:12105   */\n      iszero\n      tag_238\n      jumpi\n        /* \"#utility.yul\":12091:12092   */\n      dup1\n        /* \"#utility.yul\":12086:12089   */\n      dup3\n        /* \"#utility.yul\":12082:12093   */\n      add\n        /* \"#utility.yul\":12076:12094   */\n      mload\n        /* \"#utility.yul\":12072:12073   */\n      dup2\n        /* \"#utility.yul\":12067:12070   */\n      dup5\n        /* \"#utility.yul\":12063:12074   */\n      add\n        /* \"#utility.yul\":12056:12095   */\n      mstore\n        /* \"#utility.yul\":12028:12030   */\n      0x20\n        /* \"#utility.yul\":12025:12026   */\n      dup2\n        /* \"#utility.yul\":12021:12031   */\n      add\n        /* \"#utility.yul\":12016:12031   */\n      swap1\n      pop\n        /* \"#utility.yul\":11992:12105   */\n      jump(tag_236)\n    tag_238:\n        /* \"#utility.yul\":12123:12129   */\n      dup4\n        /* \"#utility.yul\":12120:12121   */\n      dup2\n        /* \"#utility.yul\":12117:12130   */\n      gt\n        /* \"#utility.yul\":12114:12116   */\n      iszero\n      tag_239\n      jumpi\n        /* \"#utility.yul\":12203:12204   */\n      0x00\n        /* \"#utility.yul\":12194:12200   */\n      dup5\n        /* \"#utility.yul\":12189:12192   */\n      dup5\n        /* \"#utility.yul\":12185:12201   */\n      add\n        /* \"#utility.yul\":12178:12205   */\n      mstore\n        /* \"#utility.yul\":12114:12116   */\n    tag_239:\n        /* \"#utility.yul\":11963:12221   */\n      pop\n      pop\n      pop\n      pop\n      jump\t// out\n        /* \"#utility.yul\":12227:12547   */\n    tag_59:\n      0x00\n        /* \"#utility.yul\":12308:12309   */\n      0x02\n        /* \"#utility.yul\":12302:12306   */\n      dup3\n        /* \"#utility.yul\":12298:12310   */\n      div\n        /* \"#utility.yul\":12288:12310   */\n      swap1\n      pop\n        /* \"#utility.yul\":12355:12356   */\n      0x01\n        /* \"#utility.yul\":12349:12353   */\n      dup3\n        /* \"#utility.yul\":12345:12357   */\n      and\n        /* \"#utility.yul\":12376:12394   */\n      dup1\n        /* \"#utility.yul\":12366:12368   */\n      tag_241\n      jumpi\n        /* \"#utility.yul\":12432:12436   */\n      0x7f\n        /* \"#utility.yul\":12424:12430   */\n      dup3\n        /* \"#utility.yul\":12420:12437   */\n      and\n        /* \"#utility.yul\":12410:12437   */\n      swap2\n      pop\n        /* \"#utility.yul\":12366:12368   */\n    tag_241:\n        /* \"#utility.yul\":12494:12496   */\n      0x20\n        /* \"#utility.yul\":12486:12492   */\n      dup3\n        /* \"#utility.yul\":12483:12497   */\n      lt\n        /* \"#utility.yul\":12463:12481   */\n      dup2\n        /* \"#utility.yul\":12460:12498   */\n      eq\n        /* \"#utility.yul\":12457:12459   */\n      iszero\n      tag_242\n      jumpi\n        /* \"#utility.yul\":12513:12531   */\n      tag_243\n      tag_244\n      jump\t// in\n    tag_243:\n        /* \"#utility.yul\":12457:12459   */\n    tag_242:\n        /* \"#utility.yul\":12278:12547   */\n      pop\n      swap2\n      swap1\n      pop\n      jump\t// out\n        /* \"#utility.yul\":12553:12733   */\n    tag_244:\n        /* \"#utility.yul\":12601:12678   */\n      0x4e487b7100000000000000000000000000000000000000000000000000000000\n        /* \"#utility.yul\":12598:12599   */\n      0x00\n        /* \"#utility.yul\":12591:12679   */\n      mstore\n        /* \"#utility.yul\":12698:12702   */\n      0x22\n        /* \"#utility.yul\":12695:12696   */\n      0x04\n        /* \"#utility.yul\":12688:12703   */\n      mstore\n        /* \"#utility.yul\":12722:12726   */\n      0x24\n        /* \"#utility.yul\":12719:12720   */\n      0x00\n        /* \"#utility.yul\":12712:12727   */\n      revert\n        /* \"#utility.yul\":12739:12919   */\n    tag_221:\n        /* \"#utility.yul\":12787:12864   */\n      0x4e487b7100000000000000000000000000000000000000000000000000000000\n        /* \"#utility.yul\":12784:12785   */\n      0x00\n        /* \"#utility.yul\":12777:12865   */\n      mstore\n        /* \"#utility.yul\":12884:12888   */\n      0x41\n        /* \"#utility.yul\":12881:12882   */\n      0x04\n        /* \"#utility.yul\":12874:12889   */\n      mstore\n        /* \"#utility.yul\":12908:12912   */\n      0x24\n        /* \"#utility.yul\":12905:12906   */\n      0x00\n        /* \"#utility.yul\":12898:12913   */\n      revert\n        /* \"#utility.yul\":12925:13027   */\n    tag_163:\n      0x00\n        /* \"#utility.yul\":13017:13019   */\n      0x1f\n        /* \"#utility.yul\":13013:13020   */\n      not\n        /* \"#utility.yul\":13008:13010   */\n      0x1f\n        /* \"#utility.yul\":13001:13006   */\n      dup4\n        /* \"#utility.yul\":12997:13011   */\n      add\n        /* \"#utility.yul\":12993:13021   */\n      and\n        /* \"#utility.yul\":12983:13021   */\n      swap1\n      pop\n        /* \"#utility.yul\":12973:13027   */\n      swap2\n      swap1\n      pop\n      jump\t// out\n        /* \"#utility.yul\":13033:13155   */\n    tag_117:\n        /* \"#utility.yul\":13106:13130   */\n      tag_249\n        /* \"#utility.yul\":13124:13129   */\n      dup2\n        /* \"#utility.yul\":13106:13130   */\n      tag_143\n      jump\t// in\n    tag_249:\n        /* \"#utility.yul\":13099:13104   */\n      dup2\n        /* \"#utility.yul\":13096:13131   */\n      eq\n        /* \"#utility.yul\":13086:13088   */\n      tag_250\n      jumpi\n        /* \"#utility.yul\":13145:13146   */\n      0x00\n        /* \"#utility.yul\":13142:13143   */\n      dup1\n        /* \"#utility.yul\":13135:13147   */\n      revert\n        /* \"#utility.yul\":13086:13088   */\n    tag_250:\n        /* \"#utility.yul\":13076:13155   */\n      pop\n      jump\t// out\n        /* \"#utility.yul\":13161:13279   */\n    tag_125:\n        /* \"#utility.yul\":13232:13254   */\n      tag_252\n        /* \"#utility.yul\":13248:13253   */\n      dup2\n        /* \"#utility.yul\":13232:13254   */\n      tag_191\n      jump\t// in\n    tag_252:\n        /* \"#utility.yul\":13225:13230   */\n      dup2\n        /* \"#utility.yul\":13222:13255   */\n      eq\n        /* \"#utility.yul\":13212:13214   */\n      tag_253\n      jumpi\n        /* \"#utility.yul\":13269:13270   */\n      0x00\n        /* \"#utility.yul\":13266:13267   */\n      dup1\n        /* \"#utility.yul\":13259:13271   */\n      revert\n        /* \"#utility.yul\":13212:13214   */\n    tag_253:\n        /* \"#utility.yul\":13202:13279   */\n      pop\n      jump\t// out\n    stop\n    data_ab5ecbcd895f46bb6ad5a983fd00ba29b72331686909f50871dc662956b121c9 47756961206465205475726973746173207265676973747261646f20636f6e20657869746f\n\n    auxdata: 0xa2646970667358221220b15c7e57d4fa06c7b9449a1e904dd066fcaf86ceb2b7c50985921afdbc18adcd64736f6c63430008000033\n}\n",
				"bytecode": {
					"linkReferences": {},
					"object": "608060405234801561001057600080fd5b50336000806101000a81548173ffffffffffffffffffffffffffffffffffffffff021916908373ffffffffffffffffffffffffffffffffffffffff1602179055506114fa806100606000396000f3fe608060405234801561001057600080fd5b506004361061007d5760003560e01c80635ac340981161005b5780635ac34098146101155780638e12bf87146101475780639dc43f771461017a578063db096f25146101985761007d565b80632eb728751461008257806340280a63146100b25780635922f385146100e5575b600080fd5b61009c60048036038101906100979190610de2565b6101c8565b6040516100a991906111f1565b60405180910390f35b6100cc60048036038101906100c79190610db9565b610442565b6040516100dc94939291906111a5565b60405180910390f35b6100ff60048036038101906100fa9190610e36565b610534565b60405161010c91906111f1565b60405180910390f35b61012f600480360381019061012a9190610db9565b61084d565b60405161013e93929190611167565b60405180910390f35b610161600480360381019061015c9190610db9565b61092c565b60405161017194939291906111a5565b60405180910390f35b610182610ac5565b60405161018f919061111c565b60405180910390f35b6101b260048036038101906101ad9190610db9565b610ae9565b6040516101bf9190611293565b60405180910390f35b606060008054906101000a900473ffffffffffffffffffffffffffffffffffffffff1673ffffffffffffffffffffffffffffffffffffffff163373ffffffffffffffffffffffffffffffffffffffff1614610258576040517f08c379a000000000000000000000000000000000000000000000000000000000815260040161024f90611273565b60405180910390fd5b600160008473ffffffffffffffffffffffffffffffffffffffff1673ffffffffffffffffffffffffffffffffffffffff16815260200190815260200160002060020160009054906101000a900460ff16156102e8576040517f08c379a00000000000000000000000000000000000000000000000000000000081526004016102df90611233565b60405180910390fd5b600060405180606001604052808573ffffffffffffffffffffffffffffffffffffffff16815260200184815260200160011515815250905080600160008673ffffffffffffffffffffffffffffffffffffffff1673ffffffffffffffffffffffffffffffffffffffff16815260200190815260200160002060008201518160000160006101000a81548173ffffffffffffffffffffffffffffffffffffffff021916908373ffffffffffffffffffffffffffffffffffffffff16021790555060208201518160010190805190602001906103c3929190610c4b565b5060408201518160020160006101000a81548160ff0219169083151502179055509050507f51d926f521aa5bce4104e82a66580aa7251d9a3598bccb8ddf76febbff83576a8484604051610418929190611137565b60405180910390a16040518060600160405280602581526020016114a06025913991505092915050565b60026020528060005260406000206000915090508060000160009054906101000a900473ffffffffffffffffffffffffffffffffffffffff169080600101805461048b906113d0565b80601f01602080910402602001604051908101604052809291908181526020018280546104b7906113d0565b80156105045780601f106104d957610100808354040283529160200191610504565b820191906000526020600020905b8154815290600101906020018083116104e757829003601f168201915b5050505050908060020160009054906101000a900460ff16908060020160019054906101000a900460ff16905084565b606060008054906101000a900473ffffffffffffffffffffffffffffffffffffffff1673ffffffffffffffffffffffffffffffffffffffff163373ffffffffffffffffffffffffffffffffffffffff1614806105dc5750600160003373ffffffffffffffffffffffffffffffffffffffff1673ffffffffffffffffffffffffffffffffffffffff16815260200190815260200160002060020160009054906101000a900460ff165b61061b576040517f08c379a000000000000000000000000000000000000000000000000000000000815260040161061290611213565b60405180910390fd5b600260008573ffffffffffffffffffffffffffffffffffffffff1673ffffffffffffffffffffffffffffffffffffffff16815260200190815260200160002060020160019054906101000a900460ff16156106ab576040517f08c379a00000000000000000000000000000000000000000000000000000000081526004016106a290611253565b60405180910390fd5b600060405180608001604052808673ffffffffffffffffffffffffffffffffffffffff1681526020018581526020018460ff16815260200160011515815250905080600260008773ffffffffffffffffffffffffffffffffffffffff1673ffffffffffffffffffffffffffffffffffffffff16815260200190815260200160002060008201518160000160006101000a81548173ffffffffffffffffffffffffffffffffffffffff021916908373ffffffffffffffffffffffffffffffffffffffff160217905550602082015181600101908051906020019061078f929190610c4b565b5060408201518160020160006101000a81548160ff021916908360ff16021790555060608201518160020160016101000a81548160ff0219169083151502179055509050507f6e3e05804c481790319a6706171e0354dbe5b600f1a3a8b4e12a70a2892f8d7d8585604051610805929190611137565b60405180910390a16040518060400160405280601c81526020017f54757269737461207265676973747261646f20636f6e20657869746f000000008152509150509392505050565b60016020528060005260406000206000915090508060000160009054906101000a900473ffffffffffffffffffffffffffffffffffffffff1690806001018054610896906113d0565b80601f01602080910402602001604051908101604052809291908181526020018280546108c2906113d0565b801561090f5780601f106108e45761010080835404028352916020019161090f565b820191906000526020600020905b8154815290600101906020018083116108f257829003601f168201915b5050505050908060020160009054906101000a900460ff16905083565b600060606000806000600260008773ffffffffffffffffffffffffffffffffffffffff1673ffffffffffffffffffffffffffffffffffffffff1681526020019081526020016000206040518060800160405290816000820160009054906101000a900473ffffffffffffffffffffffffffffffffffffffff1673ffffffffffffffffffffffffffffffffffffffff1673ffffffffffffffffffffffffffffffffffffffff1681526020016001820180546109e5906113d0565b80601f0160208091040260200160405190810160405280929190818152602001828054610a11906113d0565b8015610a5e5780601f10610a3357610100808354040283529160200191610a5e565b820191906000526020600020905b815481529060010190602001808311610a4157829003601f168201915b505050505081526020016002820160009054906101000a900460ff1660ff1660ff1681526020016002820160019054906101000a900460ff161515151581525050905080600001518160200151826040015183606001519450945094509450509193509193565b60008054906101000a900473ffffffffffffffffffffffffffffffffffffffff1681565b610af1610cd1565b6000600160008473ffffffffffffffffffffffffffffffffffffffff1673ffffffffffffffffffffffffffffffffffffffff1681526020019081526020016000206040518060600160405290816000820160009054906101000a900473ffffffffffffffffffffffffffffffffffffffff1673ffffffffffffffffffffffffffffffffffffffff1673ffffffffffffffffffffffffffffffffffffffff168152602001600182018054610ba3906113d0565b80601f0160208091040260200160405190810160405280929190818152602001828054610bcf906113d0565b8015610c1c5780601f10610bf157610100808354040283529160200191610c1c565b820191906000526020600020905b815481529060010190602001808311610bff57829003601f168201915b505050505081526020016002820160009054906101000a900460ff161515151581525050905080915050919050565b828054610c57906113d0565b90600052602060002090601f016020900481019282610c795760008555610cc0565b82601f10610c9257805160ff1916838001178555610cc0565b82800160010185558215610cc0579182015b82811115610cbf578251825591602001919060010190610ca4565b5b509050610ccd9190610d0a565b5090565b6040518060600160405280600073ffffffffffffffffffffffffffffffffffffffff168152602001606081526020016000151581525090565b5b80821115610d23576000816000905550600101610d0b565b5090565b6000610d3a610d35846112e6565b6112b5565b905082815260208101848484011115610d5257600080fd5b610d5d84828561138e565b509392505050565b600081359050610d7481611471565b92915050565b600082601f830112610d8b57600080fd5b8135610d9b848260208601610d27565b91505092915050565b600081359050610db381611488565b92915050565b600060208284031215610dcb57600080fd5b6000610dd984828501610d65565b91505092915050565b60008060408385031215610df557600080fd5b6000610e0385828601610d65565b925050602083013567ffffffffffffffff811115610e2057600080fd5b610e2c85828601610d7a565b9150509250929050565b600080600060608486031215610e4b57600080fd5b6000610e5986828701610d65565b935050602084013567ffffffffffffffff811115610e7657600080fd5b610e8286828701610d7a565b9250506040610e9386828701610da4565b9150509250925092565b610ea681611343565b82525050565b610eb581611343565b82525050565b610ec481611355565b82525050565b610ed381611355565b82525050565b6000610ee482611316565b610eee8185611321565b9350610efe81856020860161139d565b610f0781611460565b840191505092915050565b6000610f1d82611316565b610f278185611332565b9350610f3781856020860161139d565b610f4081611460565b840191505092915050565b6000610f58603d83611332565b91507f536f6c6f20656c204475656e6e6f206f2047756961732064652074757269737460008301527f6173207075656465207265616c697a6172206573746120616363696f6e0000006020830152604082019050919050565b6000610fbe602383611332565b91507f477569612064652054757269737461732079612065737461207265676973747260008301527f61646f00000000000000000000000000000000000000000000000000000000006020830152604082019050919050565b6000611024601a83611332565b91507f547572697374612079612065737461207265676973747261646f0000000000006000830152602082019050919050565b6000611064602983611332565b91507f536f6c6f20656c204475656e6e6f207075656465207265616c697a617220657360008301527f746120616363696f6e00000000000000000000000000000000000000000000006020830152604082019050919050565b60006060830160008301516110d56000860182610e9d565b50602083015184820360208601526110ed8282610ed9565b91505060408301516111026040860182610ebb565b508091505092915050565b61111681611381565b82525050565b60006020820190506111316000830184610eac565b92915050565b600060408201905061114c6000830185610eac565b818103602083015261115e8184610f12565b90509392505050565b600060608201905061117c6000830186610eac565b818103602083015261118e8185610f12565b905061119d6040830184610eca565b949350505050565b60006080820190506111ba6000830187610eac565b81810360208301526111cc8186610f12565b90506111db604083018561110d565b6111e86060830184610eca565b95945050505050565b6000602082019050818103600083015261120b8184610f12565b905092915050565b6000602082019050818103600083015261122c81610f4b565b9050919050565b6000602082019050818103600083015261124c81610fb1565b9050919050565b6000602082019050818103600083015261126c81611017565b9050919050565b6000602082019050818103600083015261128c81611057565b9050919050565b600060208201905081810360008301526112ad81846110bd565b905092915050565b6000604051905081810181811067ffffffffffffffff821117156112dc576112db611431565b5b8060405250919050565b600067ffffffffffffffff82111561130157611300611431565b5b601f19601f8301169050602081019050919050565b600081519050919050565b600082825260208201905092915050565b600082825260208201905092915050565b600061134e82611361565b9050919050565b60008115159050919050565b600073ffffffffffffffffffffffffffffffffffffffff82169050919050565b600060ff82169050919050565b82818337600083830152505050565b60005b838110156113bb5780820151818401526020810190506113a0565b838111156113ca576000848401525b50505050565b600060028204905060018216806113e857607f821691505b602082108114156113fc576113fb611402565b5b50919050565b7f4e487b7100000000000000000000000000000000000000000000000000000000600052602260045260246000fd5b7f4e487b7100000000000000000000000000000000000000000000000000000000600052604160045260246000fd5b6000601f19601f8301169050919050565b61147a81611343565b811461148557600080fd5b50565b61149181611381565b811461149c57600080fd5b5056fe47756961206465205475726973746173207265676973747261646f20636f6e20657869746fa2646970667358221220b15c7e57d4fa06c7b9449a1e904dd066fcaf86ceb2b7c50985921afdbc18adcd64736f6c63430008000033",
					"opcodes": "PUSH1 0x80 PUSH1 0x40 MSTORE CALLVALUE DUP1 ISZERO PUSH2 0x10 JUMPI PUSH1 0x0 DUP1 REVERT JUMPDEST POP CALLER PUSH1 0x0 DUP1 PUSH2 0x100 EXP DUP2 SLOAD DUP2 PUSH20 0xFFFFFFFFFFFFFFFFFFFFFFFFFFFFFFFFFFFFFFFF MUL NOT AND SWAP1 DUP4 PUSH20 0xFFFFFFFFFFFFFFFFFFFFFFFFFFFFFFFFFFFFFFFF AND MUL OR SWAP1 SSTORE POP PUSH2 0x14FA DUP1 PUSH2 0x60 PUSH1 0x0 CODECOPY PUSH1 0x0 RETURN INVALID PUSH1 0x80 PUSH1 0x40 MSTORE CALLVALUE DUP1 ISZERO PUSH2 0x10 JUMPI PUSH1 0x0 DUP1 REVERT JUMPDEST POP PUSH1 0x4 CALLDATASIZE LT PUSH2 0x7D JUMPI PUSH1 0x0 CALLDATALOAD PUSH1 0xE0 SHR DUP1 PUSH4 0x5AC34098 GT PUSH2 0x5B JUMPI DUP1 PUSH4 0x5AC34098 EQ PUSH2 0x115 JUMPI DUP1 PUSH4 0x8E12BF87 EQ PUSH2 0x147 JUMPI DUP1 PUSH4 0x9DC43F77 EQ PUSH2 0x17A JUMPI DUP1 PUSH4 0xDB096F25 EQ PUSH2 0x198 JUMPI PUSH2 0x7D JUMP JUMPDEST DUP1 PUSH4 0x2EB72875 EQ PUSH2 0x82 JUMPI DUP1 PUSH4 0x40280A63 EQ PUSH2 0xB2 JUMPI DUP1 PUSH4 0x5922F385 EQ PUSH2 0xE5 JUMPI JUMPDEST PUSH1 0x0 DUP1 REVERT JUMPDEST PUSH2 0x9C PUSH1 0x4 DUP1 CALLDATASIZE SUB DUP2 ADD SWAP1 PUSH2 0x97 SWAP2 SWAP1 PUSH2 0xDE2 JUMP JUMPDEST PUSH2 0x1C8 JUMP JUMPDEST PUSH1 0x40 MLOAD PUSH2 0xA9 SWAP2 SWAP1 PUSH2 0x11F1 JUMP JUMPDEST PUSH1 0x40 MLOAD DUP1 SWAP2 SUB SWAP1 RETURN JUMPDEST PUSH2 0xCC PUSH1 0x4 DUP1 CALLDATASIZE SUB DUP2 ADD SWAP1 PUSH2 0xC7 SWAP2 SWAP1 PUSH2 0xDB9 JUMP JUMPDEST PUSH2 0x442 JUMP JUMPDEST PUSH1 0x40 MLOAD PUSH2 0xDC SWAP5 SWAP4 SWAP3 SWAP2 SWAP1 PUSH2 0x11A5 JUMP JUMPDEST PUSH1 0x40 MLOAD DUP1 SWAP2 SUB SWAP1 RETURN JUMPDEST PUSH2 0xFF PUSH1 0x4 DUP1 CALLDATASIZE SUB DUP2 ADD SWAP1 PUSH2 0xFA SWAP2 SWAP1 PUSH2 0xE36 JUMP JUMPDEST PUSH2 0x534 JUMP JUMPDEST PUSH1 0x40 MLOAD PUSH2 0x10C SWAP2 SWAP1 PUSH2 0x11F1 JUMP JUMPDEST PUSH1 0x40 MLOAD DUP1 SWAP2 SUB SWAP1 RETURN JUMPDEST PUSH2 0x12F PUSH1 0x4 DUP1 CALLDATASIZE SUB DUP2 ADD SWAP1 PUSH2 0x12A SWAP2 SWAP1 PUSH2 0xDB9 JUMP JUMPDEST PUSH2 0x84D JUMP JUMPDEST PUSH1 0x40 MLOAD PUSH2 0x13E SWAP4 SWAP3 SWAP2 SWAP1 PUSH2 0x1167 JUMP JUMPDEST PUSH1 0x40 MLOAD DUP1 SWAP2 SUB SWAP1 RETURN JUMPDEST PUSH2 0x161 PUSH1 0x4 DUP1 CALLDATASIZE SUB DUP2 ADD SWAP1 PUSH2 0x15C SWAP2 SWAP1 PUSH2 0xDB9 JUMP JUMPDEST PUSH2 0x92C JUMP JUMPDEST PUSH1 0x40 MLOAD PUSH2 0x171 SWAP5 SWAP4 SWAP3 SWAP2 SWAP1 PUSH2 0x11A5 JUMP JUMPDEST PUSH1 0x40 MLOAD DUP1 SWAP2 SUB SWAP1 RETURN JUMPDEST PUSH2 0x182 PUSH2 0xAC5 JUMP JUMPDEST PUSH1 0x40 MLOAD PUSH2 0x18F SWAP2 SWAP1 PUSH2 0x111C JUMP JUMPDEST PUSH1 0x40 MLOAD DUP1 SWAP2 SUB SWAP1 RETURN JUMPDEST PUSH2 0x1B2 PUSH1 0x4 DUP1 CALLDATASIZE SUB DUP2 ADD SWAP1 PUSH2 0x1AD SWAP2 SWAP1 PUSH2 0xDB9 JUMP JUMPDEST PUSH2 0xAE9 JUMP JUMPDEST PUSH1 0x40 MLOAD PUSH2 0x1BF SWAP2 SWAP1 PUSH2 0x1293 JUMP JUMPDEST PUSH1 0x40 MLOAD DUP1 SWAP2 SUB SWAP1 RETURN JUMPDEST PUSH1 0x60 PUSH1 0x0 DUP1 SLOAD SWAP1 PUSH2 0x100 EXP SWAP1 DIV PUSH20 0xFFFFFFFFFFFFFFFFFFFFFFFFFFFFFFFFFFFFFFFF AND PUSH20 0xFFFFFFFFFFFFFFFFFFFFFFFFFFFFFFFFFFFFFFFF AND CALLER PUSH20 0xFFFFFFFFFFFFFFFFFFFFFFFFFFFFFFFFFFFFFFFF AND EQ PUSH2 0x258 JUMPI PUSH1 0x40 MLOAD PUSH32 0x8C379A000000000000000000000000000000000000000000000000000000000 DUP2 MSTORE PUSH1 0x4 ADD PUSH2 0x24F SWAP1 PUSH2 0x1273 JUMP JUMPDEST PUSH1 0x40 MLOAD DUP1 SWAP2 SUB SWAP1 REVERT JUMPDEST PUSH1 0x1 PUSH1 0x0 DUP5 PUSH20 0xFFFFFFFFFFFFFFFFFFFFFFFFFFFFFFFFFFFFFFFF AND PUSH20 0xFFFFFFFFFFFFFFFFFFFFFFFFFFFFFFFFFFFFFFFF AND DUP2 MSTORE PUSH1 0x20 ADD SWAP1 DUP2 MSTORE PUSH1 0x20 ADD PUSH1 0x0 KECCAK256 PUSH1 0x2 ADD PUSH1 0x0 SWAP1 SLOAD SWAP1 PUSH2 0x100 EXP SWAP1 DIV PUSH1 0xFF AND ISZERO PUSH2 0x2E8 JUMPI PUSH1 0x40 MLOAD PUSH32 0x8C379A000000000000000000000000000000000000000000000000000000000 DUP2 MSTORE PUSH1 0x4 ADD PUSH2 0x2DF SWAP1 PUSH2 0x1233 JUMP JUMPDEST PUSH1 0x40 MLOAD DUP1 SWAP2 SUB SWAP1 REVERT JUMPDEST PUSH1 0x0 PUSH1 0x40 MLOAD DUP1 PUSH1 0x60 ADD PUSH1 0x40 MSTORE DUP1 DUP6 PUSH20 0xFFFFFFFFFFFFFFFFFFFFFFFFFFFFFFFFFFFFFFFF AND DUP2 MSTORE PUSH1 0x20 ADD DUP5 DUP2 MSTORE PUSH1 0x20 ADD PUSH1 0x1 ISZERO ISZERO DUP2 MSTORE POP SWAP1 POP DUP1 PUSH1 0x1 PUSH1 0x0 DUP7 PUSH20 0xFFFFFFFFFFFFFFFFFFFFFFFFFFFFFFFFFFFFFFFF AND PUSH20 0xFFFFFFFFFFFFFFFFFFFFFFFFFFFFFFFFFFFFFFFF AND DUP2 MSTORE PUSH1 0x20 ADD SWAP1 DUP2 MSTORE PUSH1 0x20 ADD PUSH1 0x0 KECCAK256 PUSH1 0x0 DUP3 ADD MLOAD DUP2 PUSH1 0x0 ADD PUSH1 0x0 PUSH2 0x100 EXP DUP2 SLOAD DUP2 PUSH20 0xFFFFFFFFFFFFFFFFFFFFFFFFFFFFFFFFFFFFFFFF MUL NOT AND SWAP1 DUP4 PUSH20 0xFFFFFFFFFFFFFFFFFFFFFFFFFFFFFFFFFFFFFFFF AND MUL OR SWAP1 SSTORE POP PUSH1 0x20 DUP3 ADD MLOAD DUP2 PUSH1 0x1 ADD SWAP1 DUP1 MLOAD SWAP1 PUSH1 0x20 ADD SWAP1 PUSH2 0x3C3 SWAP3 SWAP2 SWAP1 PUSH2 0xC4B JUMP JUMPDEST POP PUSH1 0x40 DUP3 ADD MLOAD DUP2 PUSH1 0x2 ADD PUSH1 0x0 PUSH2 0x100 EXP DUP2 SLOAD DUP2 PUSH1 0xFF MUL NOT AND SWAP1 DUP4 ISZERO ISZERO MUL OR SWAP1 SSTORE POP SWAP1 POP POP PUSH32 0x51D926F521AA5BCE4104E82A66580AA7251D9A3598BCCB8DDF76FEBBFF83576A DUP5 DUP5 PUSH1 0x40 MLOAD PUSH2 0x418 SWAP3 SWAP2 SWAP1 PUSH2 0x1137 JUMP JUMPDEST PUSH1 0x40 MLOAD DUP1 SWAP2 SUB SWAP1 LOG1 PUSH1 0x40 MLOAD DUP1 PUSH1 0x60 ADD PUSH1 0x40 MSTORE DUP1 PUSH1 0x25 DUP2 MSTORE PUSH1 0x20 ADD PUSH2 0x14A0 PUSH1 0x25 SWAP2 CODECOPY SWAP2 POP POP SWAP3 SWAP2 POP POP JUMP JUMPDEST PUSH1 0x2 PUSH1 0x20 MSTORE DUP1 PUSH1 0x0 MSTORE PUSH1 0x40 PUSH1 0x0 KECCAK256 PUSH1 0x0 SWAP2 POP SWAP1 POP DUP1 PUSH1 0x0 ADD PUSH1 0x0 SWAP1 SLOAD SWAP1 PUSH2 0x100 EXP SWAP1 DIV PUSH20 0xFFFFFFFFFFFFFFFFFFFFFFFFFFFFFFFFFFFFFFFF AND SWAP1 DUP1 PUSH1 0x1 ADD DUP1 SLOAD PUSH2 0x48B SWAP1 PUSH2 0x13D0 JUMP JUMPDEST DUP1 PUSH1 0x1F ADD PUSH1 0x20 DUP1 SWAP2 DIV MUL PUSH1 0x20 ADD PUSH1 0x40 MLOAD SWAP1 DUP2 ADD PUSH1 0x40 MSTORE DUP1 SWAP3 SWAP2 SWAP1 DUP2 DUP2 MSTORE PUSH1 0x20 ADD DUP3 DUP1 SLOAD PUSH2 0x4B7 SWAP1 PUSH2 0x13D0 JUMP JUMPDEST DUP1 ISZERO PUSH2 0x504 JUMPI DUP1 PUSH1 0x1F LT PUSH2 0x4D9 JUMPI PUSH2 0x100 DUP1 DUP4 SLOAD DIV MUL DUP4 MSTORE SWAP2 PUSH1 0x20 ADD SWAP2 PUSH2 0x504 JUMP JUMPDEST DUP3 ADD SWAP2 SWAP1 PUSH1 0x0 MSTORE PUSH1 0x20 PUSH1 0x0 KECCAK256 SWAP1 JUMPDEST DUP2 SLOAD DUP2 MSTORE SWAP1 PUSH1 0x1 ADD SWAP1 PUSH1 0x20 ADD DUP1 DUP4 GT PUSH2 0x4E7 JUMPI DUP3 SWAP1 SUB PUSH1 0x1F AND DUP3 ADD SWAP2 JUMPDEST POP POP POP POP POP SWAP1 DUP1 PUSH1 0x2 ADD PUSH1 0x0 SWAP1 SLOAD SWAP1 PUSH2 0x100 EXP SWAP1 DIV PUSH1 0xFF AND SWAP1 DUP1 PUSH1 0x2 ADD PUSH1 0x1 SWAP1 SLOAD SWAP1 PUSH2 0x100 EXP SWAP1 DIV PUSH1 0xFF AND SWAP1 POP DUP5 JUMP JUMPDEST PUSH1 0x60 PUSH1 0x0 DUP1 SLOAD SWAP1 PUSH2 0x100 EXP SWAP1 DIV PUSH20 0xFFFFFFFFFFFFFFFFFFFFFFFFFFFFFFFFFFFFFFFF AND PUSH20 0xFFFFFFFFFFFFFFFFFFFFFFFFFFFFFFFFFFFFFFFF AND CALLER PUSH20 0xFFFFFFFFFFFFFFFFFFFFFFFFFFFFFFFFFFFFFFFF AND EQ DUP1 PUSH2 0x5DC JUMPI POP PUSH1 0x1 PUSH1 0x0 CALLER PUSH20 0xFFFFFFFFFFFFFFFFFFFFFFFFFFFFFFFFFFFFFFFF AND PUSH20 0xFFFFFFFFFFFFFFFFFFFFFFFFFFFFFFFFFFFFFFFF AND DUP2 MSTORE PUSH1 0x20 ADD SWAP1 DUP2 MSTORE PUSH1 0x20 ADD PUSH1 0x0 KECCAK256 PUSH1 0x2 ADD PUSH1 0x0 SWAP1 SLOAD SWAP1 PUSH2 0x100 EXP SWAP1 DIV PUSH1 0xFF AND JUMPDEST PUSH2 0x61B JUMPI PUSH1 0x40 MLOAD PUSH32 0x8C379A000000000000000000000000000000000000000000000000000000000 DUP2 MSTORE PUSH1 0x4 ADD PUSH2 0x612 SWAP1 PUSH2 0x1213 JUMP JUMPDEST PUSH1 0x40 MLOAD DUP1 SWAP2 SUB SWAP1 REVERT JUMPDEST PUSH1 0x2 PUSH1 0x0 DUP6 PUSH20 0xFFFFFFFFFFFFFFFFFFFFFFFFFFFFFFFFFFFFFFFF AND PUSH20 0xFFFFFFFFFFFFFFFFFFFFFFFFFFFFFFFFFFFFFFFF AND DUP2 MSTORE PUSH1 0x20 ADD SWAP1 DUP2 MSTORE PUSH1 0x20 ADD PUSH1 0x0 KECCAK256 PUSH1 0x2 ADD PUSH1 0x1 SWAP1 SLOAD SWAP1 PUSH2 0x100 EXP SWAP1 DIV PUSH1 0xFF AND ISZERO PUSH2 0x6AB JUMPI PUSH1 0x40 MLOAD PUSH32 0x8C379A000000000000000000000000000000000000000000000000000000000 DUP2 MSTORE PUSH1 0x4 ADD PUSH2 0x6A2 SWAP1 PUSH2 0x1253 JUMP JUMPDEST PUSH1 0x40 MLOAD DUP1 SWAP2 SUB SWAP1 REVERT JUMPDEST PUSH1 0x0 PUSH1 0x40 MLOAD DUP1 PUSH1 0x80 ADD PUSH1 0x40 MSTORE DUP1 DUP7 PUSH20 0xFFFFFFFFFFFFFFFFFFFFFFFFFFFFFFFFFFFFFFFF AND DUP2 MSTORE PUSH1 0x20 ADD DUP6 DUP2 MSTORE PUSH1 0x20 ADD DUP5 PUSH1 0xFF AND DUP2 MSTORE PUSH1 0x20 ADD PUSH1 0x1 ISZERO ISZERO DUP2 MSTORE POP SWAP1 POP DUP1 PUSH1 0x2 PUSH1 0x0 DUP8 PUSH20 0xFFFFFFFFFFFFFFFFFFFFFFFFFFFFFFFFFFFFFFFF AND PUSH20 0xFFFFFFFFFFFFFFFFFFFFFFFFFFFFFFFFFFFFFFFF AND DUP2 MSTORE PUSH1 0x20 ADD SWAP1 DUP2 MSTORE PUSH1 0x20 ADD PUSH1 0x0 KECCAK256 PUSH1 0x0 DUP3 ADD MLOAD DUP2 PUSH1 0x0 ADD PUSH1 0x0 PUSH2 0x100 EXP DUP2 SLOAD DUP2 PUSH20 0xFFFFFFFFFFFFFFFFFFFFFFFFFFFFFFFFFFFFFFFF MUL NOT AND SWAP1 DUP4 PUSH20 0xFFFFFFFFFFFFFFFFFFFFFFFFFFFFFFFFFFFFFFFF AND MUL OR SWAP1 SSTORE POP PUSH1 0x20 DUP3 ADD MLOAD DUP2 PUSH1 0x1 ADD SWAP1 DUP1 MLOAD SWAP1 PUSH1 0x20 ADD SWAP1 PUSH2 0x78F SWAP3 SWAP2 SWAP1 PUSH2 0xC4B JUMP JUMPDEST POP PUSH1 0x40 DUP3 ADD MLOAD DUP2 PUSH1 0x2 ADD PUSH1 0x0 PUSH2 0x100 EXP DUP2 SLOAD DUP2 PUSH1 0xFF MUL NOT AND SWAP1 DUP4 PUSH1 0xFF AND MUL OR SWAP1 SSTORE POP PUSH1 0x60 DUP3 ADD MLOAD DUP2 PUSH1 0x2 ADD PUSH1 0x1 PUSH2 0x100 EXP DUP2 SLOAD DUP2 PUSH1 0xFF MUL NOT AND SWAP1 DUP4 ISZERO ISZERO MUL OR SWAP1 SSTORE POP SWAP1 POP POP PUSH32 0x6E3E05804C481790319A6706171E0354DBE5B600F1A3A8B4E12A70A2892F8D7D DUP6 DUP6 PUSH1 0x40 MLOAD PUSH2 0x805 SWAP3 SWAP2 SWAP1 PUSH2 0x1137 JUMP JUMPDEST PUSH1 0x40 MLOAD DUP1 SWAP2 SUB SWAP1 LOG1 PUSH1 0x40 MLOAD DUP1 PUSH1 0x40 ADD PUSH1 0x40 MSTORE DUP1 PUSH1 0x1C DUP2 MSTORE PUSH1 0x20 ADD PUSH32 0x54757269737461207265676973747261646F20636F6E20657869746F00000000 DUP2 MSTORE POP SWAP2 POP POP SWAP4 SWAP3 POP POP POP JUMP JUMPDEST PUSH1 0x1 PUSH1 0x20 MSTORE DUP1 PUSH1 0x0 MSTORE PUSH1 0x40 PUSH1 0x0 KECCAK256 PUSH1 0x0 SWAP2 POP SWAP1 POP DUP1 PUSH1 0x0 ADD PUSH1 0x0 SWAP1 SLOAD SWAP1 PUSH2 0x100 EXP SWAP1 DIV PUSH20 0xFFFFFFFFFFFFFFFFFFFFFFFFFFFFFFFFFFFFFFFF AND SWAP1 DUP1 PUSH1 0x1 ADD DUP1 SLOAD PUSH2 0x896 SWAP1 PUSH2 0x13D0 JUMP JUMPDEST DUP1 PUSH1 0x1F ADD PUSH1 0x20 DUP1 SWAP2 DIV MUL PUSH1 0x20 ADD PUSH1 0x40 MLOAD SWAP1 DUP2 ADD PUSH1 0x40 MSTORE DUP1 SWAP3 SWAP2 SWAP1 DUP2 DUP2 MSTORE PUSH1 0x20 ADD DUP3 DUP1 SLOAD PUSH2 0x8C2 SWAP1 PUSH2 0x13D0 JUMP JUMPDEST DUP1 ISZERO PUSH2 0x90F JUMPI DUP1 PUSH1 0x1F LT PUSH2 0x8E4 JUMPI PUSH2 0x100 DUP1 DUP4 SLOAD DIV MUL DUP4 MSTORE SWAP2 PUSH1 0x20 ADD SWAP2 PUSH2 0x90F JUMP JUMPDEST DUP3 ADD SWAP2 SWAP1 PUSH1 0x0 MSTORE PUSH1 0x20 PUSH1 0x0 KECCAK256 SWAP1 JUMPDEST DUP2 SLOAD DUP2 MSTORE SWAP1 PUSH1 0x1 ADD SWAP1 PUSH1 0x20 ADD DUP1 DUP4 GT PUSH2 0x8F2 JUMPI DUP3 SWAP1 SUB PUSH1 0x1F AND DUP3 ADD SWAP2 JUMPDEST POP POP POP POP POP SWAP1 DUP1 PUSH1 0x2 ADD PUSH1 0x0 SWAP1 SLOAD SWAP1 PUSH2 0x100 EXP SWAP1 DIV PUSH1 0xFF AND SWAP1 POP DUP4 JUMP JUMPDEST PUSH1 0x0 PUSH1 0x60 PUSH1 0x0 DUP1 PUSH1 0x0 PUSH1 0x2 PUSH1 0x0 DUP8 PUSH20 0xFFFFFFFFFFFFFFFFFFFFFFFFFFFFFFFFFFFFFFFF AND PUSH20 0xFFFFFFFFFFFFFFFFFFFFFFFFFFFFFFFFFFFFFFFF AND DUP2 MSTORE PUSH1 0x20 ADD SWAP1 DUP2 MSTORE PUSH1 0x20 ADD PUSH1 0x0 KECCAK256 PUSH1 0x40 MLOAD DUP1 PUSH1 0x80 ADD PUSH1 0x40 MSTORE SWAP1 DUP2 PUSH1 0x0 DUP3 ADD PUSH1 0x0 SWAP1 SLOAD SWAP1 PUSH2 0x100 EXP SWAP1 DIV PUSH20 0xFFFFFFFFFFFFFFFFFFFFFFFFFFFFFFFFFFFFFFFF AND PUSH20 0xFFFFFFFFFFFFFFFFFFFFFFFFFFFFFFFFFFFFFFFF AND PUSH20 0xFFFFFFFFFFFFFFFFFFFFFFFFFFFFFFFFFFFFFFFF AND DUP2 MSTORE PUSH1 0x20 ADD PUSH1 0x1 DUP3 ADD DUP1 SLOAD PUSH2 0x9E5 SWAP1 PUSH2 0x13D0 JUMP JUMPDEST DUP1 PUSH1 0x1F ADD PUSH1 0x20 DUP1 SWAP2 DIV MUL PUSH1 0x20 ADD PUSH1 0x40 MLOAD SWAP1 DUP2 ADD PUSH1 0x40 MSTORE DUP1 SWAP3 SWAP2 SWAP1 DUP2 DUP2 MSTORE PUSH1 0x20 ADD DUP3 DUP1 SLOAD PUSH2 0xA11 SWAP1 PUSH2 0x13D0 JUMP JUMPDEST DUP1 ISZERO PUSH2 0xA5E JUMPI DUP1 PUSH1 0x1F LT PUSH2 0xA33 JUMPI PUSH2 0x100 DUP1 DUP4 SLOAD DIV MUL DUP4 MSTORE SWAP2 PUSH1 0x20 ADD SWAP2 PUSH2 0xA5E JUMP JUMPDEST DUP3 ADD SWAP2 SWAP1 PUSH1 0x0 MSTORE PUSH1 0x20 PUSH1 0x0 KECCAK256 SWAP1 JUMPDEST DUP2 SLOAD DUP2 MSTORE SWAP1 PUSH1 0x1 ADD SWAP1 PUSH1 0x20 ADD DUP1 DUP4 GT PUSH2 0xA41 JUMPI DUP3 SWAP1 SUB PUSH1 0x1F AND DUP3 ADD SWAP2 JUMPDEST POP POP POP POP POP DUP2 MSTORE PUSH1 0x20 ADD PUSH1 0x2 DUP3 ADD PUSH1 0x0 SWAP1 SLOAD SWAP1 PUSH2 0x100 EXP SWAP1 DIV PUSH1 0xFF AND PUSH1 0xFF AND PUSH1 0xFF AND DUP2 MSTORE PUSH1 0x20 ADD PUSH1 0x2 DUP3 ADD PUSH1 0x1 SWAP1 SLOAD SWAP1 PUSH2 0x100 EXP SWAP1 DIV PUSH1 0xFF AND ISZERO ISZERO ISZERO ISZERO DUP2 MSTORE POP POP SWAP1 POP DUP1 PUSH1 0x0 ADD MLOAD DUP2 PUSH1 0x20 ADD MLOAD DUP3 PUSH1 0x40 ADD MLOAD DUP4 PUSH1 0x60 ADD MLOAD SWAP5 POP SWAP5 POP SWAP5 POP SWAP5 POP POP SWAP2 SWAP4 POP SWAP2 SWAP4 JUMP JUMPDEST PUSH1 0x0 DUP1 SLOAD SWAP1 PUSH2 0x100 EXP SWAP1 DIV PUSH20 0xFFFFFFFFFFFFFFFFFFFFFFFFFFFFFFFFFFFFFFFF AND DUP2 JUMP JUMPDEST PUSH2 0xAF1 PUSH2 0xCD1 JUMP JUMPDEST PUSH1 0x0 PUSH1 0x1 PUSH1 0x0 DUP5 PUSH20 0xFFFFFFFFFFFFFFFFFFFFFFFFFFFFFFFFFFFFFFFF AND PUSH20 0xFFFFFFFFFFFFFFFFFFFFFFFFFFFFFFFFFFFFFFFF AND DUP2 MSTORE PUSH1 0x20 ADD SWAP1 DUP2 MSTORE PUSH1 0x20 ADD PUSH1 0x0 KECCAK256 PUSH1 0x40 MLOAD DUP1 PUSH1 0x60 ADD PUSH1 0x40 MSTORE SWAP1 DUP2 PUSH1 0x0 DUP3 ADD PUSH1 0x0 SWAP1 SLOAD SWAP1 PUSH2 0x100 EXP SWAP1 DIV PUSH20 0xFFFFFFFFFFFFFFFFFFFFFFFFFFFFFFFFFFFFFFFF AND PUSH20 0xFFFFFFFFFFFFFFFFFFFFFFFFFFFFFFFFFFFFFFFF AND PUSH20 0xFFFFFFFFFFFFFFFFFFFFFFFFFFFFFFFFFFFFFFFF AND DUP2 MSTORE PUSH1 0x20 ADD PUSH1 0x1 DUP3 ADD DUP1 SLOAD PUSH2 0xBA3 SWAP1 PUSH2 0x13D0 JUMP JUMPDEST DUP1 PUSH1 0x1F ADD PUSH1 0x20 DUP1 SWAP2 DIV MUL PUSH1 0x20 ADD PUSH1 0x40 MLOAD SWAP1 DUP2 ADD PUSH1 0x40 MSTORE DUP1 SWAP3 SWAP2 SWAP1 DUP2 DUP2 MSTORE PUSH1 0x20 ADD DUP3 DUP1 SLOAD PUSH2 0xBCF SWAP1 PUSH2 0x13D0 JUMP JUMPDEST DUP1 ISZERO PUSH2 0xC1C JUMPI DUP1 PUSH1 0x1F LT PUSH2 0xBF1 JUMPI PUSH2 0x100 DUP1 DUP4 SLOAD DIV MUL DUP4 MSTORE SWAP2 PUSH1 0x20 ADD SWAP2 PUSH2 0xC1C JUMP JUMPDEST DUP3 ADD SWAP2 SWAP1 PUSH1 0x0 MSTORE PUSH1 0x20 PUSH1 0x0 KECCAK256 SWAP1 JUMPDEST DUP2 SLOAD DUP2 MSTORE SWAP1 PUSH1 0x1 ADD SWAP1 PUSH1 0x20 ADD DUP1 DUP4 GT PUSH2 0xBFF JUMPI DUP3 SWAP1 SUB PUSH1 0x1F AND DUP3 ADD SWAP2 JUMPDEST POP POP POP POP POP DUP2 MSTORE PUSH1 0x20 ADD PUSH1 0x2 DUP3 ADD PUSH1 0x0 SWAP1 SLOAD SWAP1 PUSH2 0x100 EXP SWAP1 DIV PUSH1 0xFF AND ISZERO ISZERO ISZERO ISZERO DUP2 MSTORE POP POP SWAP1 POP DUP1 SWAP2 POP POP SWAP2 SWAP1 POP JUMP JUMPDEST DUP3 DUP1 SLOAD PUSH2 0xC57 SWAP1 PUSH2 0x13D0 JUMP JUMPDEST SWAP1 PUSH1 0x0 MSTORE PUSH1 0x20 PUSH1 0x0 KECCAK256 SWAP1 PUSH1 0x1F ADD PUSH1 0x20 SWAP1 DIV DUP2 ADD SWAP3 DUP3 PUSH2 0xC79 JUMPI PUSH1 0x0 DUP6 SSTORE PUSH2 0xCC0 JUMP JUMPDEST DUP3 PUSH1 0x1F LT PUSH2 0xC92 JUMPI DUP1 MLOAD PUSH1 0xFF NOT AND DUP4 DUP1 ADD OR DUP6 SSTORE PUSH2 0xCC0 JUMP JUMPDEST DUP3 DUP1 ADD PUSH1 0x1 ADD DUP6 SSTORE DUP3 ISZERO PUSH2 0xCC0 JUMPI SWAP2 DUP3 ADD JUMPDEST DUP3 DUP2 GT ISZERO PUSH2 0xCBF JUMPI DUP3 MLOAD DUP3 SSTORE SWAP2 PUSH1 0x20 ADD SWAP2 SWAP1 PUSH1 0x1 ADD SWAP1 PUSH2 0xCA4 JUMP JUMPDEST JUMPDEST POP SWAP1 POP PUSH2 0xCCD SWAP2 SWAP1 PUSH2 0xD0A JUMP JUMPDEST POP SWAP1 JUMP JUMPDEST PUSH1 0x40 MLOAD DUP1 PUSH1 0x60 ADD PUSH1 0x40 MSTORE DUP1 PUSH1 0x0 PUSH20 0xFFFFFFFFFFFFFFFFFFFFFFFFFFFFFFFFFFFFFFFF AND DUP2 MSTORE PUSH1 0x20 ADD PUSH1 0x60 DUP2 MSTORE PUSH1 0x20 ADD PUSH1 0x0 ISZERO ISZERO DUP2 MSTORE POP SWAP1 JUMP JUMPDEST JUMPDEST DUP1 DUP3 GT ISZERO PUSH2 0xD23 JUMPI PUSH1 0x0 DUP2 PUSH1 0x0 SWAP1 SSTORE POP PUSH1 0x1 ADD PUSH2 0xD0B JUMP JUMPDEST POP SWAP1 JUMP JUMPDEST PUSH1 0x0 PUSH2 0xD3A PUSH2 0xD35 DUP5 PUSH2 0x12E6 JUMP JUMPDEST PUSH2 0x12B5 JUMP JUMPDEST SWAP1 POP DUP3 DUP2 MSTORE PUSH1 0x20 DUP2 ADD DUP5 DUP5 DUP5 ADD GT ISZERO PUSH2 0xD52 JUMPI PUSH1 0x0 DUP1 REVERT JUMPDEST PUSH2 0xD5D DUP5 DUP3 DUP6 PUSH2 0x138E JUMP JUMPDEST POP SWAP4 SWAP3 POP POP POP JUMP JUMPDEST PUSH1 0x0 DUP2 CALLDATALOAD SWAP1 POP PUSH2 0xD74 DUP2 PUSH2 0x1471 JUMP JUMPDEST SWAP3 SWAP2 POP POP JUMP JUMPDEST PUSH1 0x0 DUP3 PUSH1 0x1F DUP4 ADD SLT PUSH2 0xD8B JUMPI PUSH1 0x0 DUP1 REVERT JUMPDEST DUP2 CALLDATALOAD PUSH2 0xD9B DUP5 DUP3 PUSH1 0x20 DUP7 ADD PUSH2 0xD27 JUMP JUMPDEST SWAP2 POP POP SWAP3 SWAP2 POP POP JUMP JUMPDEST PUSH1 0x0 DUP2 CALLDATALOAD SWAP1 POP PUSH2 0xDB3 DUP2 PUSH2 0x1488 JUMP JUMPDEST SWAP3 SWAP2 POP POP JUMP JUMPDEST PUSH1 0x0 PUSH1 0x20 DUP3 DUP5 SUB SLT ISZERO PUSH2 0xDCB JUMPI PUSH1 0x0 DUP1 REVERT JUMPDEST PUSH1 0x0 PUSH2 0xDD9 DUP5 DUP3 DUP6 ADD PUSH2 0xD65 JUMP JUMPDEST SWAP2 POP POP SWAP3 SWAP2 POP POP JUMP JUMPDEST PUSH1 0x0 DUP1 PUSH1 0x40 DUP4 DUP6 SUB SLT ISZERO PUSH2 0xDF5 JUMPI PUSH1 0x0 DUP1 REVERT JUMPDEST PUSH1 0x0 PUSH2 0xE03 DUP6 DUP3 DUP7 ADD PUSH2 0xD65 JUMP JUMPDEST SWAP3 POP POP PUSH1 0x20 DUP4 ADD CALLDATALOAD PUSH8 0xFFFFFFFFFFFFFFFF DUP2 GT ISZERO PUSH2 0xE20 JUMPI PUSH1 0x0 DUP1 REVERT JUMPDEST PUSH2 0xE2C DUP6 DUP3 DUP7 ADD PUSH2 0xD7A JUMP JUMPDEST SWAP2 POP POP SWAP3 POP SWAP3 SWAP1 POP JUMP JUMPDEST PUSH1 0x0 DUP1 PUSH1 0x0 PUSH1 0x60 DUP5 DUP7 SUB SLT ISZERO PUSH2 0xE4B JUMPI PUSH1 0x0 DUP1 REVERT JUMPDEST PUSH1 0x0 PUSH2 0xE59 DUP7 DUP3 DUP8 ADD PUSH2 0xD65 JUMP JUMPDEST SWAP4 POP POP PUSH1 0x20 DUP5 ADD CALLDATALOAD PUSH8 0xFFFFFFFFFFFFFFFF DUP2 GT ISZERO PUSH2 0xE76 JUMPI PUSH1 0x0 DUP1 REVERT JUMPDEST PUSH2 0xE82 DUP7 DUP3 DUP8 ADD PUSH2 0xD7A JUMP JUMPDEST SWAP3 POP POP PUSH1 0x40 PUSH2 0xE93 DUP7 DUP3 DUP8 ADD PUSH2 0xDA4 JUMP JUMPDEST SWAP2 POP POP SWAP3 POP SWAP3 POP SWAP3 JUMP JUMPDEST PUSH2 0xEA6 DUP2 PUSH2 0x1343 JUMP JUMPDEST DUP3 MSTORE POP POP JUMP JUMPDEST PUSH2 0xEB5 DUP2 PUSH2 0x1343 JUMP JUMPDEST DUP3 MSTORE POP POP JUMP JUMPDEST PUSH2 0xEC4 DUP2 PUSH2 0x1355 JUMP JUMPDEST DUP3 MSTORE POP POP JUMP JUMPDEST PUSH2 0xED3 DUP2 PUSH2 0x1355 JUMP JUMPDEST DUP3 MSTORE POP POP JUMP JUMPDEST PUSH1 0x0 PUSH2 0xEE4 DUP3 PUSH2 0x1316 JUMP JUMPDEST PUSH2 0xEEE DUP2 DUP6 PUSH2 0x1321 JUMP JUMPDEST SWAP4 POP PUSH2 0xEFE DUP2 DUP6 PUSH1 0x20 DUP7 ADD PUSH2 0x139D JUMP JUMPDEST PUSH2 0xF07 DUP2 PUSH2 0x1460 JUMP JUMPDEST DUP5 ADD SWAP2 POP POP SWAP3 SWAP2 POP POP JUMP JUMPDEST PUSH1 0x0 PUSH2 0xF1D DUP3 PUSH2 0x1316 JUMP JUMPDEST PUSH2 0xF27 DUP2 DUP6 PUSH2 0x1332 JUMP JUMPDEST SWAP4 POP PUSH2 0xF37 DUP2 DUP6 PUSH1 0x20 DUP7 ADD PUSH2 0x139D JUMP JUMPDEST PUSH2 0xF40 DUP2 PUSH2 0x1460 JUMP JUMPDEST DUP5 ADD SWAP2 POP POP SWAP3 SWAP2 POP POP JUMP JUMPDEST PUSH1 0x0 PUSH2 0xF58 PUSH1 0x3D DUP4 PUSH2 0x1332 JUMP JUMPDEST SWAP2 POP PUSH32 0x536F6C6F20656C204475656E6E6F206F20477569617320646520747572697374 PUSH1 0x0 DUP4 ADD MSTORE PUSH32 0x6173207075656465207265616C697A6172206573746120616363696F6E000000 PUSH1 0x20 DUP4 ADD MSTORE PUSH1 0x40 DUP3 ADD SWAP1 POP SWAP2 SWAP1 POP JUMP JUMPDEST PUSH1 0x0 PUSH2 0xFBE PUSH1 0x23 DUP4 PUSH2 0x1332 JUMP JUMPDEST SWAP2 POP PUSH32 0x4775696120646520547572697374617320796120657374612072656769737472 PUSH1 0x0 DUP4 ADD MSTORE PUSH32 0x61646F0000000000000000000000000000000000000000000000000000000000 PUSH1 0x20 DUP4 ADD MSTORE PUSH1 0x40 DUP3 ADD SWAP1 POP SWAP2 SWAP1 POP JUMP JUMPDEST PUSH1 0x0 PUSH2 0x1024 PUSH1 0x1A DUP4 PUSH2 0x1332 JUMP JUMPDEST SWAP2 POP PUSH32 0x547572697374612079612065737461207265676973747261646F000000000000 PUSH1 0x0 DUP4 ADD MSTORE PUSH1 0x20 DUP3 ADD SWAP1 POP SWAP2 SWAP1 POP JUMP JUMPDEST PUSH1 0x0 PUSH2 0x1064 PUSH1 0x29 DUP4 PUSH2 0x1332 JUMP JUMPDEST SWAP2 POP PUSH32 0x536F6C6F20656C204475656E6E6F207075656465207265616C697A6172206573 PUSH1 0x0 DUP4 ADD MSTORE PUSH32 0x746120616363696F6E0000000000000000000000000000000000000000000000 PUSH1 0x20 DUP4 ADD MSTORE PUSH1 0x40 DUP3 ADD SWAP1 POP SWAP2 SWAP1 POP JUMP JUMPDEST PUSH1 0x0 PUSH1 0x60 DUP4 ADD PUSH1 0x0 DUP4 ADD MLOAD PUSH2 0x10D5 PUSH1 0x0 DUP7 ADD DUP3 PUSH2 0xE9D JUMP JUMPDEST POP PUSH1 0x20 DUP4 ADD MLOAD DUP5 DUP3 SUB PUSH1 0x20 DUP7 ADD MSTORE PUSH2 0x10ED DUP3 DUP3 PUSH2 0xED9 JUMP JUMPDEST SWAP2 POP POP PUSH1 0x40 DUP4 ADD MLOAD PUSH2 0x1102 PUSH1 0x40 DUP7 ADD DUP3 PUSH2 0xEBB JUMP JUMPDEST POP DUP1 SWAP2 POP POP SWAP3 SWAP2 POP POP JUMP JUMPDEST PUSH2 0x1116 DUP2 PUSH2 0x1381 JUMP JUMPDEST DUP3 MSTORE POP POP JUMP JUMPDEST PUSH1 0x0 PUSH1 0x20 DUP3 ADD SWAP1 POP PUSH2 0x1131 PUSH1 0x0 DUP4 ADD DUP5 PUSH2 0xEAC JUMP JUMPDEST SWAP3 SWAP2 POP POP JUMP JUMPDEST PUSH1 0x0 PUSH1 0x40 DUP3 ADD SWAP1 POP PUSH2 0x114C PUSH1 0x0 DUP4 ADD DUP6 PUSH2 0xEAC JUMP JUMPDEST DUP2 DUP2 SUB PUSH1 0x20 DUP4 ADD MSTORE PUSH2 0x115E DUP2 DUP5 PUSH2 0xF12 JUMP JUMPDEST SWAP1 POP SWAP4 SWAP3 POP POP POP JUMP JUMPDEST PUSH1 0x0 PUSH1 0x60 DUP3 ADD SWAP1 POP PUSH2 0x117C PUSH1 0x0 DUP4 ADD DUP7 PUSH2 0xEAC JUMP JUMPDEST DUP2 DUP2 SUB PUSH1 0x20 DUP4 ADD MSTORE PUSH2 0x118E DUP2 DUP6 PUSH2 0xF12 JUMP JUMPDEST SWAP1 POP PUSH2 0x119D PUSH1 0x40 DUP4 ADD DUP5 PUSH2 0xECA JUMP JUMPDEST SWAP5 SWAP4 POP POP POP POP JUMP JUMPDEST PUSH1 0x0 PUSH1 0x80 DUP3 ADD SWAP1 POP PUSH2 0x11BA PUSH1 0x0 DUP4 ADD DUP8 PUSH2 0xEAC JUMP JUMPDEST DUP2 DUP2 SUB PUSH1 0x20 DUP4 ADD MSTORE PUSH2 0x11CC DUP2 DUP7 PUSH2 0xF12 JUMP JUMPDEST SWAP1 POP PUSH2 0x11DB PUSH1 0x40 DUP4 ADD DUP6 PUSH2 0x110D JUMP JUMPDEST PUSH2 0x11E8 PUSH1 0x60 DUP4 ADD DUP5 PUSH2 0xECA JUMP JUMPDEST SWAP6 SWAP5 POP POP POP POP POP JUMP JUMPDEST PUSH1 0x0 PUSH1 0x20 DUP3 ADD SWAP1 POP DUP2 DUP2 SUB PUSH1 0x0 DUP4 ADD MSTORE PUSH2 0x120B DUP2 DUP5 PUSH2 0xF12 JUMP JUMPDEST SWAP1 POP SWAP3 SWAP2 POP POP JUMP JUMPDEST PUSH1 0x0 PUSH1 0x20 DUP3 ADD SWAP1 POP DUP2 DUP2 SUB PUSH1 0x0 DUP4 ADD MSTORE PUSH2 0x122C DUP2 PUSH2 0xF4B JUMP JUMPDEST SWAP1 POP SWAP2 SWAP1 POP JUMP JUMPDEST PUSH1 0x0 PUSH1 0x20 DUP3 ADD SWAP1 POP DUP2 DUP2 SUB PUSH1 0x0 DUP4 ADD MSTORE PUSH2 0x124C DUP2 PUSH2 0xFB1 JUMP JUMPDEST SWAP1 POP SWAP2 SWAP1 POP JUMP JUMPDEST PUSH1 0x0 PUSH1 0x20 DUP3 ADD SWAP1 POP DUP2 DUP2 SUB PUSH1 0x0 DUP4 ADD MSTORE PUSH2 0x126C DUP2 PUSH2 0x1017 JUMP JUMPDEST SWAP1 POP SWAP2 SWAP1 POP JUMP JUMPDEST PUSH1 0x0 PUSH1 0x20 DUP3 ADD SWAP1 POP DUP2 DUP2 SUB PUSH1 0x0 DUP4 ADD MSTORE PUSH2 0x128C DUP2 PUSH2 0x1057 JUMP JUMPDEST SWAP1 POP SWAP2 SWAP1 POP JUMP JUMPDEST PUSH1 0x0 PUSH1 0x20 DUP3 ADD SWAP1 POP DUP2 DUP2 SUB PUSH1 0x0 DUP4 ADD MSTORE PUSH2 0x12AD DUP2 DUP5 PUSH2 0x10BD JUMP JUMPDEST SWAP1 POP SWAP3 SWAP2 POP POP JUMP JUMPDEST PUSH1 0x0 PUSH1 0x40 MLOAD SWAP1 POP DUP2 DUP2 ADD DUP2 DUP2 LT PUSH8 0xFFFFFFFFFFFFFFFF DUP3 GT OR ISZERO PUSH2 0x12DC JUMPI PUSH2 0x12DB PUSH2 0x1431 JUMP JUMPDEST JUMPDEST DUP1 PUSH1 0x40 MSTORE POP SWAP2 SWAP1 POP JUMP JUMPDEST PUSH1 0x0 PUSH8 0xFFFFFFFFFFFFFFFF DUP3 GT ISZERO PUSH2 0x1301 JUMPI PUSH2 0x1300 PUSH2 0x1431 JUMP JUMPDEST JUMPDEST PUSH1 0x1F NOT PUSH1 0x1F DUP4 ADD AND SWAP1 POP PUSH1 0x20 DUP2 ADD SWAP1 POP SWAP2 SWAP1 POP JUMP JUMPDEST PUSH1 0x0 DUP2 MLOAD SWAP1 POP SWAP2 SWAP1 POP JUMP JUMPDEST PUSH1 0x0 DUP3 DUP3 MSTORE PUSH1 0x20 DUP3 ADD SWAP1 POP SWAP3 SWAP2 POP POP JUMP JUMPDEST PUSH1 0x0 DUP3 DUP3 MSTORE PUSH1 0x20 DUP3 ADD SWAP1 POP SWAP3 SWAP2 POP POP JUMP JUMPDEST PUSH1 0x0 PUSH2 0x134E DUP3 PUSH2 0x1361 JUMP JUMPDEST SWAP1 POP SWAP2 SWAP1 POP JUMP JUMPDEST PUSH1 0x0 DUP2 ISZERO ISZERO SWAP1 POP SWAP2 SWAP1 POP JUMP JUMPDEST PUSH1 0x0 PUSH20 0xFFFFFFFFFFFFFFFFFFFFFFFFFFFFFFFFFFFFFFFF DUP3 AND SWAP1 POP SWAP2 SWAP1 POP JUMP JUMPDEST PUSH1 0x0 PUSH1 0xFF DUP3 AND SWAP1 POP SWAP2 SWAP1 POP JUMP JUMPDEST DUP3 DUP2 DUP4 CALLDATACOPY PUSH1 0x0 DUP4 DUP4 ADD MSTORE POP POP POP JUMP JUMPDEST PUSH1 0x0 JUMPDEST DUP4 DUP2 LT ISZERO PUSH2 0x13BB JUMPI DUP1 DUP3 ADD MLOAD DUP2 DUP5 ADD MSTORE PUSH1 0x20 DUP2 ADD SWAP1 POP PUSH2 0x13A0 JUMP JUMPDEST DUP4 DUP2 GT ISZERO PUSH2 0x13CA JUMPI PUSH1 0x0 DUP5 DUP5 ADD MSTORE JUMPDEST POP POP POP POP JUMP JUMPDEST PUSH1 0x0 PUSH1 0x2 DUP3 DIV SWAP1 POP PUSH1 0x1 DUP3 AND DUP1 PUSH2 0x13E8 JUMPI PUSH1 0x7F DUP3 AND SWAP2 POP JUMPDEST PUSH1 0x20 DUP3 LT DUP2 EQ ISZERO PUSH2 0x13FC JUMPI PUSH2 0x13FB PUSH2 0x1402 JUMP JUMPDEST JUMPDEST POP SWAP2 SWAP1 POP JUMP JUMPDEST PUSH32 0x4E487B7100000000000000000000000000000000000000000000000000000000 PUSH1 0x0 MSTORE PUSH1 0x22 PUSH1 0x4 MSTORE PUSH1 0x24 PUSH1 0x0 REVERT JUMPDEST PUSH32 0x4E487B7100000000000000000000000000000000000000000000000000000000 PUSH1 0x0 MSTORE PUSH1 0x41 PUSH1 0x4 MSTORE PUSH1 0x24 PUSH1 0x0 REVERT JUMPDEST PUSH1 0x0 PUSH1 0x1F NOT PUSH1 0x1F DUP4 ADD AND SWAP1 POP SWAP2 SWAP1 POP JUMP JUMPDEST PUSH2 0x147A DUP2 PUSH2 0x1343 JUMP JUMPDEST DUP2 EQ PUSH2 0x1485 JUMPI PUSH1 0x0 DUP1 REVERT JUMPDEST POP JUMP JUMPDEST PUSH2 0x1491 DUP2 PUSH2 0x1381 JUMP JUMPDEST DUP2 EQ PUSH2 0x149C JUMPI PUSH1 0x0 DUP1 REVERT JUMPDEST POP JUMP INVALID SELFBALANCE PUSH22 0x69612064652054757269737461732072656769737472 PUSH2 0x646F KECCAK256 PUSH4 0x6F6E2065 PUSH25 0x69746FA2646970667358221220B15C7E57D4FA06C7B9449A1E SWAP1 0x4D 0xD0 PUSH7 0xFCAF86CEB2B7C5 MULMOD DUP6 SWAP3 BYTE REVERT 0xBC XOR 0xAD 0xCD PUSH5 0x736F6C6343 STOP ADDMOD STOP STOP CALLER "
				},
				"gasEstimates": {
					"creation": {
						"codeDepositCost": "1074000",
						"executionCost": "21980",
						"totalCost": "1095980"
					},
					"external": {
						"duenno()": "1255",
						"guiasRegistrados(address)": "infinite",
						"registrarGuiaTurista(address,string)": "infinite",
						"registrarTurista(address,string,uint8)": "infinite",
						"turistasRegistrados(address)": "infinite",
						"verGuia(address)": "infinite",
						"verTurista(address)": "infinite"
					}
				},
				"methodIdentifiers": {
					"duenno()": "9dc43f77",
					"guiasRegistrados(address)": "5ac34098",
					"registrarGuiaTurista(address,string)": "2eb72875",
					"registrarTurista(address,string,uint8)": "5922f385",
					"turistasRegistrados(address)": "40280a63",
					"verGuia(address)": "db096f25",
					"verTurista(address)": "8e12bf87"
				}
			},
			"storageLayout": {
				"storage": [
					{
						"astId": 19,
						"contract": "contracts/Usuarios.sol:Usuarios",
						"label": "duenno",
						"offset": 0,
						"slot": "0",
						"type": "t_address"
					},
					{
						"astId": 33,
						"contract": "contracts/Usuarios.sol:Usuarios",
						"label": "guiasRegistrados",
						"offset": 0,
						"slot": "1",
						"type": "t_mapping(t_address,t_struct(GuiaTuristas)8_storage)"
					},
					{
						"astId": 38,
						"contract": "contracts/Usuarios.sol:Usuarios",
						"label": "turistasRegistrados",
						"offset": 0,
						"slot": "2",
						"type": "t_mapping(t_address,t_struct(Turista)17_storage)"
					}
				],
				"types": {
					"t_address": {
						"encoding": "inplace",
						"label": "address",
						"numberOfBytes": "20"
					},
					"t_bool": {
						"encoding": "inplace",
						"label": "bool",
						"numberOfBytes": "1"
					},
					"t_mapping(t_address,t_struct(GuiaTuristas)8_storage)": {
						"encoding": "mapping",
						"key": "t_address",
						"label": "mapping(address => struct Usuarios.GuiaTuristas)",
						"numberOfBytes": "32",
						"value": "t_struct(GuiaTuristas)8_storage"
					},
					"t_mapping(t_address,t_struct(Turista)17_storage)": {
						"encoding": "mapping",
						"key": "t_address",
						"label": "mapping(address => struct Usuarios.Turista)",
						"numberOfBytes": "32",
						"value": "t_struct(Turista)17_storage"
					},
					"t_string_storage": {
						"encoding": "bytes",
						"label": "string",
						"numberOfBytes": "32"
					},
					"t_struct(GuiaTuristas)8_storage": {
						"encoding": "inplace",
						"label": "struct Usuarios.GuiaTuristas",
						"members": [
							{
								"astId": 3,
								"contract": "contracts/Usuarios.sol:Usuarios",
								"label": "cuenta",
								"offset": 0,
								"slot": "0",
								"type": "t_address"
							},
							{
								"astId": 5,
								"contract": "contracts/Usuarios.sol:Usuarios",
								"label": "nombreCompleto",
								"offset": 0,
								"slot": "1",
								"type": "t_string_storage"
							},
							{
								"astId": 7,
								"contract": "contracts/Usuarios.sol:Usuarios",
								"label": "estado",
								"offset": 0,
								"slot": "2",
								"type": "t_bool"
							}
						],
						"numberOfBytes": "96"
					},
					"t_struct(Turista)17_storage": {
						"encoding": "inplace",
						"label": "struct Usuarios.Turista",
						"members": [
							{
								"astId": 10,
								"contract": "contracts/Usuarios.sol:Usuarios",
								"label": "cuenta",
								"offset": 0,
								"slot": "0",
								"type": "t_address"
							},
							{
								"astId": 12,
								"contract": "contracts/Usuarios.sol:Usuarios",
								"label": "nombreCompleto",
								"offset": 0,
								"slot": "1",
								"type": "t_string_storage"
							},
							{
								"astId": 14,
								"contract": "contracts/Usuarios.sol:Usuarios",
								"label": "edad",
								"offset": 0,
								"slot": "2",
								"type": "t_uint8"
							},
							{
								"astId": 16,
								"contract": "contracts/Usuarios.sol:Usuarios",
								"label": "estado",
								"offset": 1,
								"slot": "2",
								"type": "t_bool"
							}
						],
						"numberOfBytes": "96"
					},
					"t_uint8": {
						"encoding": "inplace",
						"label": "uint8",
						"numberOfBytes": "1"
					}
				}
			},
			"userdoc": {
				"kind": "user",
				"methods": {},
				"version": 1
			}
		}
	}
}