{
	"contracts/Usuarios.sol": {
		"Usuarios": {
			"abi": [
				{
					"inputs": [],
					"stateMutability": "nonpayable",
					"type": "constructor"
				},
				{
					"anonymous": false,
					"inputs": [
						{
							"indexed": false,
							"internalType": "address",
							"name": "cuenta",
							"type": "address"
						}
					],
					"name": "GuiaEliminado",
					"type": "event"
				},
				{
					"anonymous": false,
					"inputs": [
						{
							"indexed": false,
							"internalType": "address",
							"name": "cuenta",
							"type": "address"
						},
						{
							"indexed": false,
							"internalType": "string",
							"name": "nombre",
							"type": "string"
						}
					],
					"name": "GuiaRegistrado",
					"type": "event"
				},
				{
					"anonymous": false,
					"inputs": [
						{
							"indexed": false,
							"internalType": "address",
							"name": "turista",
							"type": "address"
						}
					],
					"name": "TuristaEliminado",
					"type": "event"
				},
				{
					"anonymous": false,
					"inputs": [
						{
							"indexed": false,
							"internalType": "address",
							"name": "cuenta",
							"type": "address"
						},
						{
							"indexed": false,
							"internalType": "string",
							"name": "nombre",
							"type": "string"
						}
					],
					"name": "TuristaRegistrado",
					"type": "event"
				},
				{
					"inputs": [
						{
							"internalType": "address",
							"name": "_cuenta",
							"type": "address"
						}
					],
					"name": "eliminarGuiaTurista",
					"outputs": [],
					"stateMutability": "nonpayable",
					"type": "function"
				},
				{
					"inputs": [
						{
							"internalType": "address",
							"name": "_cuenta",
							"type": "address"
						}
					],
					"name": "eliminarTurista",
					"outputs": [],
					"stateMutability": "nonpayable",
					"type": "function"
				},
				{
					"inputs": [
						{
							"internalType": "address",
							"name": "",
							"type": "address"
						}
					],
					"name": "guiasRegistrados",
					"outputs": [
						{
							"internalType": "address",
							"name": "cuenta",
							"type": "address"
						},
						{
							"internalType": "string",
							"name": "nombreCompleto",
							"type": "string"
						},
						{
							"internalType": "bool",
							"name": "estado",
							"type": "bool"
						}
					],
					"stateMutability": "view",
					"type": "function"
				},
				{
					"inputs": [
						{
							"internalType": "uint256",
							"name": "",
							"type": "uint256"
						}
					],
					"name": "listaGuiaTuristas",
					"outputs": [
						{
							"internalType": "address",
							"name": "",
							"type": "address"
						}
					],
					"stateMutability": "view",
					"type": "function"
				},
				{
					"inputs": [
						{
							"internalType": "uint256",
							"name": "",
							"type": "uint256"
						}
					],
					"name": "listaTuristas",
					"outputs": [
						{
							"internalType": "address",
							"name": "",
							"type": "address"
						}
					],
					"stateMutability": "view",
					"type": "function"
				},
				{
					"inputs": [
						{
							"internalType": "address",
							"name": "_cuenta",
							"type": "address"
						},
						{
							"internalType": "string",
							"name": "_nombre",
							"type": "string"
						}
					],
					"name": "registrarGuiaTurista",
					"outputs": [],
					"stateMutability": "nonpayable",
					"type": "function"
				},
				{
					"inputs": [
						{
							"internalType": "address",
							"name": "_cuenta",
							"type": "address"
						},
						{
							"internalType": "string",
							"name": "_nombre",
							"type": "string"
						},
						{
							"internalType": "uint8",
							"name": "_edad",
							"type": "uint8"
						}
					],
					"name": "registrarTurista",
					"outputs": [],
					"stateMutability": "nonpayable",
					"type": "function"
				},
				{
					"inputs": [
						{
							"internalType": "address",
							"name": "",
							"type": "address"
						}
					],
					"name": "turistasRegistrados",
					"outputs": [
						{
							"internalType": "address",
							"name": "cuenta",
							"type": "address"
						},
						{
							"internalType": "string",
							"name": "nombreCompleto",
							"type": "string"
						},
						{
							"internalType": "uint8",
							"name": "edad",
							"type": "uint8"
						},
						{
							"internalType": "bool",
							"name": "estado",
							"type": "bool"
						}
					],
					"stateMutability": "view",
					"type": "function"
				},
				{
					"inputs": [
						{
							"internalType": "address",
							"name": "_cuenta",
							"type": "address"
						}
					],
					"name": "verGuia",
					"outputs": [
						{
							"internalType": "string",
							"name": "",
							"type": "string"
						}
					],
					"stateMutability": "view",
					"type": "function"
				},
				{
					"inputs": [],
					"name": "verGuias",
					"outputs": [
						{
							"components": [
								{
									"internalType": "address",
									"name": "cuenta",
									"type": "address"
								},
								{
									"internalType": "string",
									"name": "nombreCompleto",
									"type": "string"
								},
								{
									"internalType": "bool",
									"name": "estado",
									"type": "bool"
								}
							],
							"internalType": "struct Usuarios.GuiaTuristas[]",
							"name": "_resultado",
							"type": "tuple[]"
						}
					],
					"stateMutability": "view",
					"type": "function"
				},
				{
					"inputs": [
						{
							"internalType": "address",
							"name": "_cuenta",
							"type": "address"
						}
					],
					"name": "verTurista",
					"outputs": [
						{
							"components": [
								{
									"internalType": "address",
									"name": "cuenta",
									"type": "address"
								},
								{
									"internalType": "string",
									"name": "nombreCompleto",
									"type": "string"
								},
								{
									"internalType": "uint8",
									"name": "edad",
									"type": "uint8"
								},
								{
									"internalType": "bool",
									"name": "estado",
									"type": "bool"
								}
							],
							"internalType": "struct Usuarios.Turista",
							"name": "",
							"type": "tuple"
						}
					],
					"stateMutability": "view",
					"type": "function"
				},
				{
					"inputs": [],
					"name": "verTuristas",
					"outputs": [
						{
							"components": [
								{
									"internalType": "address",
									"name": "cuenta",
									"type": "address"
								},
								{
									"internalType": "string",
									"name": "nombreCompleto",
									"type": "string"
								},
								{
									"internalType": "uint8",
									"name": "edad",
									"type": "uint8"
								},
								{
									"internalType": "bool",
									"name": "estado",
									"type": "bool"
								}
							],
							"internalType": "struct Usuarios.Turista[]",
							"name": "resultado",
							"type": "tuple[]"
						}
					],
					"stateMutability": "view",
					"type": "function"
				}
			],
			"devdoc": {
				"kind": "dev",
				"methods": {},
				"version": 1
			},
			"evm": {
				"assembly": "    /* \"contracts/Usuarios.sol\":244:5790  contract Usuarios {... */\n  mstore(0x40, 0x80)\n    /* \"contracts/Usuarios.sol\":1468:1518  constructor() {... */\n  callvalue\n  dup1\n  iszero\n  tag_1\n  jumpi\n  0x00\n  dup1\n  revert\ntag_1:\n  pop\n    /* \"contracts/Usuarios.sol\":1501:1511  msg.sender */\n  caller\n    /* \"contracts/Usuarios.sol\":1492:1498  duenno */\n  0x00\n  dup1\n    /* \"contracts/Usuarios.sol\":1492:1511  duenno = msg.sender */\n  0x0100\n  exp\n  dup2\n  sload\n  dup2\n  0xffffffffffffffffffffffffffffffffffffffff\n  mul\n  not\n  and\n  swap1\n  dup4\n  0xffffffffffffffffffffffffffffffffffffffff\n  and\n  mul\n  or\n  swap1\n  sstore\n  pop\n    /* \"contracts/Usuarios.sol\":244:5790  contract Usuarios {... */\n  dataSize(sub_0)\n  dup1\n  dataOffset(sub_0)\n  0x00\n  codecopy\n  0x00\n  return\nstop\n\nsub_0: assembly {\n        /* \"contracts/Usuarios.sol\":244:5790  contract Usuarios {... */\n      mstore(0x40, 0x80)\n      callvalue\n      dup1\n      iszero\n      tag_1\n      jumpi\n      0x00\n      dup1\n      revert\n    tag_1:\n      pop\n      jumpi(tag_2, lt(calldatasize, 0x04))\n      shr(0xe0, calldataload(0x00))\n      dup1\n      0x5922f385\n      gt\n      tag_15\n      jumpi\n      dup1\n      0x5922f385\n      eq\n      tag_9\n      jumpi\n      dup1\n      0x5ac34098\n      eq\n      tag_10\n      jumpi\n      dup1\n      0x8e12bf87\n      eq\n      tag_11\n      jumpi\n      dup1\n      0x966549e5\n      eq\n      tag_12\n      jumpi\n      dup1\n      0xdb096f25\n      eq\n      tag_13\n      jumpi\n      dup1\n      0xf0963a11\n      eq\n      tag_14\n      jumpi\n      jump(tag_2)\n    tag_15:\n      dup1\n      0x0a6c512c\n      eq\n      tag_3\n      jumpi\n      dup1\n      0x0e768dbf\n      eq\n      tag_4\n      jumpi\n      dup1\n      0x2bdaa8c9\n      eq\n      tag_5\n      jumpi\n      dup1\n      0x2eb72875\n      eq\n      tag_6\n      jumpi\n      dup1\n      0x40280a63\n      eq\n      tag_7\n      jumpi\n      dup1\n      0x47c58865\n      eq\n      tag_8\n      jumpi\n    tag_2:\n      0x00\n      dup1\n      revert\n        /* \"contracts/Usuarios.sol\":479:513  address[] public listaGuiaTuristas */\n    tag_3:\n      tag_16\n      0x04\n      dup1\n      calldatasize\n      sub\n      dup2\n      add\n      swap1\n      tag_17\n      swap2\n      swap1\n      tag_18\n      jump\t// in\n    tag_17:\n      tag_19\n      jump\t// in\n    tag_16:\n      mload(0x40)\n      tag_20\n      swap2\n      swap1\n      tag_21\n      jump\t// in\n    tag_20:\n      mload(0x40)\n      dup1\n      swap2\n      sub\n      swap1\n      return\n        /* \"contracts/Usuarios.sol\":5459:5788  function eliminarTurista(address _cuenta) public soloGuias {... */\n    tag_4:\n      tag_22\n      0x04\n      dup1\n      calldatasize\n      sub\n      dup2\n      add\n      swap1\n      tag_23\n      swap2\n      swap1\n      tag_24\n      jump\t// in\n    tag_23:\n      tag_25\n      jump\t// in\n    tag_22:\n      stop\n        /* \"contracts/Usuarios.sol\":5124:5453  function eliminarGuiaTurista(address _cuenta) public soloDuenno {... */\n    tag_5:\n      tag_26\n      0x04\n      dup1\n      calldatasize\n      sub\n      dup2\n      add\n      swap1\n      tag_27\n      swap2\n      swap1\n      tag_24\n      jump\t// in\n    tag_27:\n      tag_28\n      jump\t// in\n    tag_26:\n      stop\n        /* \"contracts/Usuarios.sol\":2023:2537  function registrarGuiaTurista(address _cuenta, string memory _nombre)... */\n    tag_6:\n      tag_29\n      0x04\n      dup1\n      calldatasize\n      sub\n      dup2\n      add\n      swap1\n      tag_30\n      swap2\n      swap1\n      tag_31\n      jump\t// in\n    tag_30:\n      tag_32\n      jump\t// in\n    tag_29:\n      stop\n        /* \"contracts/Usuarios.sol\":670:724  mapping(address => Turista) public turistasRegistrados */\n    tag_7:\n      tag_33\n      0x04\n      dup1\n      calldatasize\n      sub\n      dup2\n      add\n      swap1\n      tag_34\n      swap2\n      swap1\n      tag_24\n      jump\t// in\n    tag_34:\n      tag_35\n      jump\t// in\n    tag_33:\n      mload(0x40)\n      tag_36\n      swap5\n      swap4\n      swap3\n      swap2\n      swap1\n      tag_37\n      jump\t// in\n    tag_36:\n      mload(0x40)\n      dup1\n      swap2\n      sub\n      swap1\n      return\n        /* \"contracts/Usuarios.sol\":4650:5118  function verTuristas()... */\n    tag_8:\n      tag_38\n      tag_39\n      jump\t// in\n    tag_38:\n      mload(0x40)\n      tag_40\n      swap2\n      swap1\n      tag_41\n      jump\t// in\n    tag_40:\n      mload(0x40)\n      dup1\n      swap2\n      sub\n      swap1\n      return\n        /* \"contracts/Usuarios.sol\":2543:3073  function registrarTurista(... */\n    tag_9:\n      tag_42\n      0x04\n      dup1\n      calldatasize\n      sub\n      dup2\n      add\n      swap1\n      tag_43\n      swap2\n      swap1\n      tag_44\n      jump\t// in\n    tag_43:\n      tag_45\n      jump\t// in\n    tag_42:\n      stop\n        /* \"contracts/Usuarios.sol\":608:664  mapping(address => GuiaTuristas) public guiasRegistrados */\n    tag_10:\n      tag_46\n      0x04\n      dup1\n      calldatasize\n      sub\n      dup2\n      add\n      swap1\n      tag_47\n      swap2\n      swap1\n      tag_24\n      jump\t// in\n    tag_47:\n      tag_48\n      jump\t// in\n    tag_46:\n      mload(0x40)\n      tag_49\n      swap4\n      swap3\n      swap2\n      swap1\n      tag_50\n      jump\t// in\n    tag_49:\n      mload(0x40)\n      dup1\n      swap2\n      sub\n      swap1\n      return\n        /* \"contracts/Usuarios.sol\":3316:3517  function verTurista(address _cuenta) public view returns (Turista memory) {... */\n    tag_11:\n      tag_51\n      0x04\n      dup1\n      calldatasize\n      sub\n      dup2\n      add\n      swap1\n      tag_52\n      swap2\n      swap1\n      tag_24\n      jump\t// in\n    tag_52:\n      tag_53\n      jump\t// in\n    tag_51:\n      mload(0x40)\n      tag_54\n      swap2\n      swap1\n      tag_55\n      jump\t// in\n    tag_54:\n      mload(0x40)\n      dup1\n      swap2\n      sub\n      swap1\n      return\n        /* \"contracts/Usuarios.sol\":3597:4571  function verGuias()... */\n    tag_12:\n      tag_56\n      tag_57\n      jump\t// in\n    tag_56:\n      mload(0x40)\n      tag_58\n      swap2\n      swap1\n      tag_59\n      jump\t// in\n    tag_58:\n      mload(0x40)\n      dup1\n      swap2\n      sub\n      swap1\n      return\n        /* \"contracts/Usuarios.sol\":3079:3310  function verGuia(address _cuenta)... */\n    tag_13:\n      tag_60\n      0x04\n      dup1\n      calldatasize\n      sub\n      dup2\n      add\n      swap1\n      tag_61\n      swap2\n      swap1\n      tag_24\n      jump\t// in\n    tag_61:\n      tag_62\n      jump\t// in\n    tag_60:\n      mload(0x40)\n      tag_63\n      swap2\n      swap1\n      tag_64\n      jump\t// in\n    tag_63:\n      mload(0x40)\n      dup1\n      swap2\n      sub\n      swap1\n      return\n        /* \"contracts/Usuarios.sol\":519:549  address[] public listaTuristas */\n    tag_14:\n      tag_65\n      0x04\n      dup1\n      calldatasize\n      sub\n      dup2\n      add\n      swap1\n      tag_66\n      swap2\n      swap1\n      tag_18\n      jump\t// in\n    tag_66:\n      tag_67\n      jump\t// in\n    tag_65:\n      mload(0x40)\n      tag_68\n      swap2\n      swap1\n      tag_21\n      jump\t// in\n    tag_68:\n      mload(0x40)\n      dup1\n      swap2\n      sub\n      swap1\n      return\n        /* \"contracts/Usuarios.sol\":479:513  address[] public listaGuiaTuristas */\n    tag_19:\n      0x01\n      dup2\n      dup2\n      sload\n      dup2\n      lt\n      tag_69\n      jumpi\n      0x00\n      dup1\n      revert\n    tag_69:\n      swap1\n      0x00\n      mstore\n      keccak256(0x00, 0x20)\n      add\n      0x00\n      swap2\n      pop\n      sload\n      swap1\n      0x0100\n      exp\n      swap1\n      div\n      0xffffffffffffffffffffffffffffffffffffffff\n      and\n      dup2\n      jump\t// out\n        /* \"contracts/Usuarios.sol\":5459:5788  function eliminarTurista(address _cuenta) public soloGuias {... */\n    tag_25:\n        /* \"contracts/Usuarios.sol\":1867:1873  duenno */\n      0x00\n      dup1\n      sload\n      swap1\n      0x0100\n      exp\n      swap1\n      div\n      0xffffffffffffffffffffffffffffffffffffffff\n      and\n        /* \"contracts/Usuarios.sol\":1853:1873  msg.sender == duenno */\n      0xffffffffffffffffffffffffffffffffffffffff\n      and\n        /* \"contracts/Usuarios.sol\":1853:1863  msg.sender */\n      caller\n        /* \"contracts/Usuarios.sol\":1853:1873  msg.sender == duenno */\n      0xffffffffffffffffffffffffffffffffffffffff\n      and\n      eq\n        /* \"contracts/Usuarios.sol\":1853:1912  msg.sender == duenno || guiasRegistrados[msg.sender].estado */\n      dup1\n      tag_72\n      jumpi\n      pop\n        /* \"contracts/Usuarios.sol\":1877:1893  guiasRegistrados */\n      0x03\n        /* \"contracts/Usuarios.sol\":1877:1905  guiasRegistrados[msg.sender] */\n      0x00\n        /* \"contracts/Usuarios.sol\":1894:1904  msg.sender */\n      caller\n        /* \"contracts/Usuarios.sol\":1877:1905  guiasRegistrados[msg.sender] */\n      0xffffffffffffffffffffffffffffffffffffffff\n      and\n      0xffffffffffffffffffffffffffffffffffffffff\n      and\n      dup2\n      mstore\n      0x20\n      add\n      swap1\n      dup2\n      mstore\n      0x20\n      add\n      0x00\n      keccak256\n        /* \"contracts/Usuarios.sol\":1877:1912  guiasRegistrados[msg.sender].estado */\n      0x02\n      add\n      0x00\n      swap1\n      sload\n      swap1\n      0x0100\n      exp\n      swap1\n      div\n      0xff\n      and\n        /* \"contracts/Usuarios.sol\":1853:1912  msg.sender == duenno || guiasRegistrados[msg.sender].estado */\n    tag_72:\n        /* \"contracts/Usuarios.sol\":1832:1999  require(... */\n      tag_73\n      jumpi\n      mload(0x40)\n      0x08c379a000000000000000000000000000000000000000000000000000000000\n      dup2\n      mstore\n      0x04\n      add\n      tag_74\n      swap1\n      tag_75\n      jump\t// in\n    tag_74:\n      mload(0x40)\n      dup1\n      swap2\n      sub\n      swap1\n      revert\n    tag_73:\n        /* \"contracts/Usuarios.sol\":5631:5650  turistasRegistrados */\n      0x04\n        /* \"contracts/Usuarios.sol\":5631:5659  turistasRegistrados[_cuenta] */\n      0x00\n        /* \"contracts/Usuarios.sol\":5651:5658  _cuenta */\n      dup3\n        /* \"contracts/Usuarios.sol\":5631:5659  turistasRegistrados[_cuenta] */\n      0xffffffffffffffffffffffffffffffffffffffff\n      and\n      0xffffffffffffffffffffffffffffffffffffffff\n      and\n      dup2\n      mstore\n      0x20\n      add\n      swap1\n      dup2\n      mstore\n      0x20\n      add\n      0x00\n      keccak256\n        /* \"contracts/Usuarios.sol\":5631:5666  turistasRegistrados[_cuenta].estado */\n      0x02\n      add\n      0x01\n      swap1\n      sload\n      swap1\n      0x0100\n      exp\n      swap1\n      div\n      0xff\n      and\n        /* \"contracts/Usuarios.sol\":5623:5688  require(turistasRegistrados[_cuenta].estado, \"Turista no existe\") */\n      tag_77\n      jumpi\n      mload(0x40)\n      0x08c379a000000000000000000000000000000000000000000000000000000000\n      dup2\n      mstore\n      0x04\n      add\n      tag_78\n      swap1\n      tag_79\n      jump\t// in\n    tag_78:\n      mload(0x40)\n      dup1\n      swap2\n      sub\n      swap1\n      revert\n    tag_77:\n        /* \"contracts/Usuarios.sol\":5736:5741  false */\n      0x00\n        /* \"contracts/Usuarios.sol\":5698:5717  turistasRegistrados */\n      0x04\n        /* \"contracts/Usuarios.sol\":5698:5726  turistasRegistrados[_cuenta] */\n      0x00\n        /* \"contracts/Usuarios.sol\":5718:5725  _cuenta */\n      dup4\n        /* \"contracts/Usuarios.sol\":5698:5726  turistasRegistrados[_cuenta] */\n      0xffffffffffffffffffffffffffffffffffffffff\n      and\n      0xffffffffffffffffffffffffffffffffffffffff\n      and\n      dup2\n      mstore\n      0x20\n      add\n      swap1\n      dup2\n      mstore\n      0x20\n      add\n      0x00\n      keccak256\n        /* \"contracts/Usuarios.sol\":5698:5733  turistasRegistrados[_cuenta].estado */\n      0x02\n      add\n      0x01\n        /* \"contracts/Usuarios.sol\":5698:5741  turistasRegistrados[_cuenta].estado = false */\n      0x0100\n      exp\n      dup2\n      sload\n      dup2\n      0xff\n      mul\n      not\n      and\n      swap1\n      dup4\n      iszero\n      iszero\n      mul\n      or\n      swap1\n      sstore\n      pop\n        /* \"contracts/Usuarios.sol\":5756:5781  TuristaEliminado(_cuenta) */\n      0xb132297e629aea39de2a0b95087d354abbad2860bc2dec703085f02ee09e372b\n        /* \"contracts/Usuarios.sol\":5773:5780  _cuenta */\n      dup2\n        /* \"contracts/Usuarios.sol\":5756:5781  TuristaEliminado(_cuenta) */\n      mload(0x40)\n      tag_80\n      swap2\n      swap1\n      tag_21\n      jump\t// in\n    tag_80:\n      mload(0x40)\n      dup1\n      swap2\n      sub\n      swap1\n      log1\n        /* \"contracts/Usuarios.sol\":5459:5788  function eliminarTurista(address _cuenta) public soloGuias {... */\n      pop\n      jump\t// out\n        /* \"contracts/Usuarios.sol\":5124:5453  function eliminarGuiaTurista(address _cuenta) public soloDuenno {... */\n    tag_28:\n        /* \"contracts/Usuarios.sol\":1637:1643  duenno */\n      0x00\n      dup1\n      sload\n      swap1\n      0x0100\n      exp\n      swap1\n      div\n      0xffffffffffffffffffffffffffffffffffffffff\n      and\n        /* \"contracts/Usuarios.sol\":1623:1643  msg.sender == duenno */\n      0xffffffffffffffffffffffffffffffffffffffff\n      and\n        /* \"contracts/Usuarios.sol\":1623:1633  msg.sender */\n      caller\n        /* \"contracts/Usuarios.sol\":1623:1643  msg.sender == duenno */\n      0xffffffffffffffffffffffffffffffffffffffff\n      and\n      eq\n        /* \"contracts/Usuarios.sol\":1602:1710  require(... */\n      tag_82\n      jumpi\n      mload(0x40)\n      0x08c379a000000000000000000000000000000000000000000000000000000000\n      dup2\n      mstore\n      0x04\n      add\n      tag_83\n      swap1\n      tag_84\n      jump\t// in\n    tag_83:\n      mload(0x40)\n      dup1\n      swap2\n      sub\n      swap1\n      revert\n    tag_82:\n        /* \"contracts/Usuarios.sol\":5308:5324  guiasRegistrados */\n      0x03\n        /* \"contracts/Usuarios.sol\":5308:5333  guiasRegistrados[_cuenta] */\n      0x00\n        /* \"contracts/Usuarios.sol\":5325:5332  _cuenta */\n      dup3\n        /* \"contracts/Usuarios.sol\":5308:5333  guiasRegistrados[_cuenta] */\n      0xffffffffffffffffffffffffffffffffffffffff\n      and\n      0xffffffffffffffffffffffffffffffffffffffff\n      and\n      dup2\n      mstore\n      0x20\n      add\n      swap1\n      dup2\n      mstore\n      0x20\n      add\n      0x00\n      keccak256\n        /* \"contracts/Usuarios.sol\":5308:5340  guiasRegistrados[_cuenta].estado */\n      0x02\n      add\n      0x00\n      swap1\n      sload\n      swap1\n      0x0100\n      exp\n      swap1\n      div\n      0xff\n      and\n        /* \"contracts/Usuarios.sol\":5300:5359  require(guiasRegistrados[_cuenta].estado, \"Guia no existe\") */\n      tag_86\n      jumpi\n      mload(0x40)\n      0x08c379a000000000000000000000000000000000000000000000000000000000\n      dup2\n      mstore\n      0x04\n      add\n      tag_87\n      swap1\n      tag_88\n      jump\t// in\n    tag_87:\n      mload(0x40)\n      dup1\n      swap2\n      sub\n      swap1\n      revert\n    tag_86:\n        /* \"contracts/Usuarios.sol\":5404:5409  false */\n      0x00\n        /* \"contracts/Usuarios.sol\":5369:5385  guiasRegistrados */\n      0x03\n        /* \"contracts/Usuarios.sol\":5369:5394  guiasRegistrados[_cuenta] */\n      0x00\n        /* \"contracts/Usuarios.sol\":5386:5393  _cuenta */\n      dup4\n        /* \"contracts/Usuarios.sol\":5369:5394  guiasRegistrados[_cuenta] */\n      0xffffffffffffffffffffffffffffffffffffffff\n      and\n      0xffffffffffffffffffffffffffffffffffffffff\n      and\n      dup2\n      mstore\n      0x20\n      add\n      swap1\n      dup2\n      mstore\n      0x20\n      add\n      0x00\n      keccak256\n        /* \"contracts/Usuarios.sol\":5369:5401  guiasRegistrados[_cuenta].estado */\n      0x02\n      add\n      0x00\n        /* \"contracts/Usuarios.sol\":5369:5409  guiasRegistrados[_cuenta].estado = false */\n      0x0100\n      exp\n      dup2\n      sload\n      dup2\n      0xff\n      mul\n      not\n      and\n      swap1\n      dup4\n      iszero\n      iszero\n      mul\n      or\n      swap1\n      sstore\n      pop\n        /* \"contracts/Usuarios.sol\":5424:5446  GuiaEliminado(_cuenta) */\n      0x93d0e91b2385480f16c2e324398638f59df15184797653484a2e7a4d851540f1\n        /* \"contracts/Usuarios.sol\":5438:5445  _cuenta */\n      dup2\n        /* \"contracts/Usuarios.sol\":5424:5446  GuiaEliminado(_cuenta) */\n      mload(0x40)\n      tag_89\n      swap2\n      swap1\n      tag_21\n      jump\t// in\n    tag_89:\n      mload(0x40)\n      dup1\n      swap2\n      sub\n      swap1\n      log1\n        /* \"contracts/Usuarios.sol\":5124:5453  function eliminarGuiaTurista(address _cuenta) public soloDuenno {... */\n      pop\n      jump\t// out\n        /* \"contracts/Usuarios.sol\":2023:2537  function registrarGuiaTurista(address _cuenta, string memory _nombre)... */\n    tag_32:\n        /* \"contracts/Usuarios.sol\":1637:1643  duenno */\n      0x00\n      dup1\n      sload\n      swap1\n      0x0100\n      exp\n      swap1\n      div\n      0xffffffffffffffffffffffffffffffffffffffff\n      and\n        /* \"contracts/Usuarios.sol\":1623:1643  msg.sender == duenno */\n      0xffffffffffffffffffffffffffffffffffffffff\n      and\n        /* \"contracts/Usuarios.sol\":1623:1633  msg.sender */\n      caller\n        /* \"contracts/Usuarios.sol\":1623:1643  msg.sender == duenno */\n      0xffffffffffffffffffffffffffffffffffffffff\n      and\n      eq\n        /* \"contracts/Usuarios.sol\":1602:1710  require(... */\n      tag_91\n      jumpi\n      mload(0x40)\n      0x08c379a000000000000000000000000000000000000000000000000000000000\n      dup2\n      mstore\n      0x04\n      add\n      tag_92\n      swap1\n      tag_84\n      jump\t// in\n    tag_92:\n      mload(0x40)\n      dup1\n      swap2\n      sub\n      swap1\n      revert\n    tag_91:\n        /* \"contracts/Usuarios.sol\":2163:2179  guiasRegistrados */\n      0x03\n        /* \"contracts/Usuarios.sol\":2163:2188  guiasRegistrados[_cuenta] */\n      0x00\n        /* \"contracts/Usuarios.sol\":2180:2187  _cuenta */\n      dup4\n        /* \"contracts/Usuarios.sol\":2163:2188  guiasRegistrados[_cuenta] */\n      0xffffffffffffffffffffffffffffffffffffffff\n      and\n      0xffffffffffffffffffffffffffffffffffffffff\n      and\n      dup2\n      mstore\n      0x20\n      add\n      swap1\n      dup2\n      mstore\n      0x20\n      add\n      0x00\n      keccak256\n        /* \"contracts/Usuarios.sol\":2163:2195  guiasRegistrados[_cuenta].estado */\n      0x02\n      add\n      0x00\n      swap1\n      sload\n      swap1\n      0x0100\n      exp\n      swap1\n      div\n      0xff\n      and\n        /* \"contracts/Usuarios.sol\":2162:2195  !guiasRegistrados[_cuenta].estado */\n      iszero\n        /* \"contracts/Usuarios.sol\":2141:2256  require(... */\n      tag_94\n      jumpi\n      mload(0x40)\n      0x08c379a000000000000000000000000000000000000000000000000000000000\n      dup2\n      mstore\n      0x04\n      add\n      tag_95\n      swap1\n      tag_96\n      jump\t// in\n    tag_95:\n      mload(0x40)\n      dup1\n      swap2\n      sub\n      swap1\n      revert\n    tag_94:\n        /* \"contracts/Usuarios.sol\":2294:2330  GuiaTuristas(_cuenta, _nombre, true) */\n      mload(0x40)\n      dup1\n      0x60\n      add\n      0x40\n      mstore\n      dup1\n        /* \"contracts/Usuarios.sol\":2307:2314  _cuenta */\n      dup4\n        /* \"contracts/Usuarios.sol\":2294:2330  GuiaTuristas(_cuenta, _nombre, true) */\n      0xffffffffffffffffffffffffffffffffffffffff\n      and\n      dup2\n      mstore\n      0x20\n      add\n        /* \"contracts/Usuarios.sol\":2316:2323  _nombre */\n      dup3\n        /* \"contracts/Usuarios.sol\":2294:2330  GuiaTuristas(_cuenta, _nombre, true) */\n      dup2\n      mstore\n      0x20\n      add\n        /* \"contracts/Usuarios.sol\":2325:2329  true */\n      0x01\n        /* \"contracts/Usuarios.sol\":2294:2330  GuiaTuristas(_cuenta, _nombre, true) */\n      iszero\n      iszero\n      dup2\n      mstore\n      pop\n        /* \"contracts/Usuarios.sol\":2266:2282  guiasRegistrados */\n      0x03\n        /* \"contracts/Usuarios.sol\":2266:2291  guiasRegistrados[_cuenta] */\n      0x00\n        /* \"contracts/Usuarios.sol\":2283:2290  _cuenta */\n      dup5\n        /* \"contracts/Usuarios.sol\":2266:2291  guiasRegistrados[_cuenta] */\n      0xffffffffffffffffffffffffffffffffffffffff\n      and\n      0xffffffffffffffffffffffffffffffffffffffff\n      and\n      dup2\n      mstore\n      0x20\n      add\n      swap1\n      dup2\n      mstore\n      0x20\n      add\n      0x00\n      keccak256\n        /* \"contracts/Usuarios.sol\":2266:2330  guiasRegistrados[_cuenta] = GuiaTuristas(_cuenta, _nombre, true) */\n      0x00\n      dup3\n      add\n      mload\n      dup2\n      0x00\n      add\n      exp(0x0100, 0x00)\n      dup2\n      sload\n      dup2\n      0xffffffffffffffffffffffffffffffffffffffff\n      mul\n      not\n      and\n      swap1\n      dup4\n      0xffffffffffffffffffffffffffffffffffffffff\n      and\n      mul\n      or\n      swap1\n      sstore\n      pop\n      0x20\n      dup3\n      add\n      mload\n      dup2\n      0x01\n      add\n      swap1\n      dup1\n      mload\n      swap1\n      0x20\n      add\n      swap1\n      tag_97\n      swap3\n      swap2\n      swap1\n      tag_98\n      jump\t// in\n    tag_97:\n      pop\n      0x40\n      dup3\n      add\n      mload\n      dup2\n      0x02\n      add\n      exp(0x0100, 0x00)\n      dup2\n      sload\n      dup2\n      0xff\n      mul\n      not\n      and\n      swap1\n      dup4\n      iszero\n      iszero\n      mul\n      or\n      swap1\n      sstore\n      pop\n      swap1\n      pop\n      pop\n        /* \"contracts/Usuarios.sol\":2452:2469  listaGuiaTuristas */\n      0x01\n        /* \"contracts/Usuarios.sol\":2475:2482  _cuenta */\n      dup3\n        /* \"contracts/Usuarios.sol\":2452:2483  listaGuiaTuristas.push(_cuenta) */\n      swap1\n      dup1\n      0x01\n      dup2\n      sload\n      add\n      dup1\n      dup3\n      sstore\n      dup1\n      swap2\n      pop\n      pop\n      0x01\n      swap1\n      sub\n      swap1\n      0x00\n      mstore\n      keccak256(0x00, 0x20)\n      add\n      0x00\n      swap1\n      swap2\n      swap1\n      swap2\n      swap1\n      swap2\n      0x0100\n      exp\n      dup2\n      sload\n      dup2\n      0xffffffffffffffffffffffffffffffffffffffff\n      mul\n      not\n      and\n      swap1\n      dup4\n      0xffffffffffffffffffffffffffffffffffffffff\n      and\n      mul\n      or\n      swap1\n      sstore\n      pop\n        /* \"contracts/Usuarios.sol\":2498:2530  GuiaRegistrado(_cuenta, _nombre) */\n      0x51d926f521aa5bce4104e82a66580aa7251d9a3598bccb8ddf76febbff83576a\n        /* \"contracts/Usuarios.sol\":2513:2520  _cuenta */\n      dup3\n        /* \"contracts/Usuarios.sol\":2522:2529  _nombre */\n      dup3\n        /* \"contracts/Usuarios.sol\":2498:2530  GuiaRegistrado(_cuenta, _nombre) */\n      mload(0x40)\n      tag_100\n      swap3\n      swap2\n      swap1\n      tag_101\n      jump\t// in\n    tag_100:\n      mload(0x40)\n      dup1\n      swap2\n      sub\n      swap1\n      log1\n        /* \"contracts/Usuarios.sol\":2023:2537  function registrarGuiaTurista(address _cuenta, string memory _nombre)... */\n      pop\n      pop\n      jump\t// out\n        /* \"contracts/Usuarios.sol\":670:724  mapping(address => Turista) public turistasRegistrados */\n    tag_35:\n      mstore(0x20, 0x04)\n      dup1\n      0x00\n      mstore\n      keccak256(0x00, 0x40)\n      0x00\n      swap2\n      pop\n      swap1\n      pop\n      dup1\n      0x00\n      add\n      0x00\n      swap1\n      sload\n      swap1\n      0x0100\n      exp\n      swap1\n      div\n      0xffffffffffffffffffffffffffffffffffffffff\n      and\n      swap1\n      dup1\n      0x01\n      add\n      dup1\n      sload\n      tag_102\n      swap1\n      tag_103\n      jump\t// in\n    tag_102:\n      dup1\n      0x1f\n      add\n      0x20\n      dup1\n      swap2\n      div\n      mul\n      0x20\n      add\n      mload(0x40)\n      swap1\n      dup2\n      add\n      0x40\n      mstore\n      dup1\n      swap3\n      swap2\n      swap1\n      dup2\n      dup2\n      mstore\n      0x20\n      add\n      dup3\n      dup1\n      sload\n      tag_104\n      swap1\n      tag_103\n      jump\t// in\n    tag_104:\n      dup1\n      iszero\n      tag_105\n      jumpi\n      dup1\n      0x1f\n      lt\n      tag_106\n      jumpi\n      0x0100\n      dup1\n      dup4\n      sload\n      div\n      mul\n      dup4\n      mstore\n      swap2\n      0x20\n      add\n      swap2\n      jump(tag_105)\n    tag_106:\n      dup3\n      add\n      swap2\n      swap1\n      0x00\n      mstore\n      keccak256(0x00, 0x20)\n      swap1\n    tag_107:\n      dup2\n      sload\n      dup2\n      mstore\n      swap1\n      0x01\n      add\n      swap1\n      0x20\n      add\n      dup1\n      dup4\n      gt\n      tag_107\n      jumpi\n      dup3\n      swap1\n      sub\n      0x1f\n      and\n      dup3\n      add\n      swap2\n    tag_105:\n      pop\n      pop\n      pop\n      pop\n      pop\n      swap1\n      dup1\n      0x02\n      add\n      0x00\n      swap1\n      sload\n      swap1\n      0x0100\n      exp\n      swap1\n      div\n      0xff\n      and\n      swap1\n      dup1\n      0x02\n      add\n      0x01\n      swap1\n      sload\n      swap1\n      0x0100\n      exp\n      swap1\n      div\n      0xff\n      and\n      swap1\n      pop\n      dup5\n      jump\t// out\n        /* \"contracts/Usuarios.sol\":4650:5118  function verTuristas()... */\n    tag_39:\n        /* \"contracts/Usuarios.sol\":4736:4762  Turista[] memory resultado */\n      0x60\n        /* \"contracts/Usuarios.sol\":1867:1873  duenno */\n      0x00\n      dup1\n      sload\n      swap1\n      0x0100\n      exp\n      swap1\n      div\n      0xffffffffffffffffffffffffffffffffffffffff\n      and\n        /* \"contracts/Usuarios.sol\":1853:1873  msg.sender == duenno */\n      0xffffffffffffffffffffffffffffffffffffffff\n      and\n        /* \"contracts/Usuarios.sol\":1853:1863  msg.sender */\n      caller\n        /* \"contracts/Usuarios.sol\":1853:1873  msg.sender == duenno */\n      0xffffffffffffffffffffffffffffffffffffffff\n      and\n      eq\n        /* \"contracts/Usuarios.sol\":1853:1912  msg.sender == duenno || guiasRegistrados[msg.sender].estado */\n      dup1\n      tag_109\n      jumpi\n      pop\n        /* \"contracts/Usuarios.sol\":1877:1893  guiasRegistrados */\n      0x03\n        /* \"contracts/Usuarios.sol\":1877:1905  guiasRegistrados[msg.sender] */\n      0x00\n        /* \"contracts/Usuarios.sol\":1894:1904  msg.sender */\n      caller\n        /* \"contracts/Usuarios.sol\":1877:1905  guiasRegistrados[msg.sender] */\n      0xffffffffffffffffffffffffffffffffffffffff\n      and\n      0xffffffffffffffffffffffffffffffffffffffff\n      and\n      dup2\n      mstore\n      0x20\n      add\n      swap1\n      dup2\n      mstore\n      0x20\n      add\n      0x00\n      keccak256\n        /* \"contracts/Usuarios.sol\":1877:1912  guiasRegistrados[msg.sender].estado */\n      0x02\n      add\n      0x00\n      swap1\n      sload\n      swap1\n      0x0100\n      exp\n      swap1\n      div\n      0xff\n      and\n        /* \"contracts/Usuarios.sol\":1853:1912  msg.sender == duenno || guiasRegistrados[msg.sender].estado */\n    tag_109:\n        /* \"contracts/Usuarios.sol\":1832:1999  require(... */\n      tag_110\n      jumpi\n      mload(0x40)\n      0x08c379a000000000000000000000000000000000000000000000000000000000\n      dup2\n      mstore\n      0x04\n      add\n      tag_111\n      swap1\n      tag_75\n      jump\t// in\n    tag_111:\n      mload(0x40)\n      dup1\n      swap2\n      sub\n      swap1\n      revert\n    tag_110:\n        /* \"contracts/Usuarios.sol\":4804:4817  listaTuristas */\n      0x02\n        /* \"contracts/Usuarios.sol\":4804:4824  listaTuristas.length */\n      dup1\n      sload\n      swap1\n      pop\n        /* \"contracts/Usuarios.sol\":4790:4825  new Turista[](listaTuristas.length) */\n      0xffffffffffffffff\n      dup2\n      gt\n      iszero\n      tag_113\n      jumpi\n      mstore(0x00, 0x4e487b7100000000000000000000000000000000000000000000000000000000)\n      mstore(0x04, 0x41)\n      revert(0x00, 0x24)\n    tag_113:\n      mload(0x40)\n      swap1\n      dup1\n      dup3\n      mstore\n      dup1\n      0x20\n      mul\n      0x20\n      add\n      dup3\n      add\n      0x40\n      mstore\n      dup1\n      iszero\n      tag_114\n      jumpi\n      dup2\n      0x20\n      add\n    tag_115:\n      tag_116\n      tag_117\n      jump\t// in\n    tag_116:\n      dup2\n      mstore\n      0x20\n      add\n      swap1\n      0x01\n      swap1\n      sub\n      swap1\n      dup2\n      tag_115\n      jumpi\n      swap1\n      pop\n    tag_114:\n      pop\n        /* \"contracts/Usuarios.sol\":4778:4825  resultado = new Turista[](listaTuristas.length) */\n      swap1\n      pop\n        /* \"contracts/Usuarios.sol\":4840:4848  uint16 i */\n      0x00\n        /* \"contracts/Usuarios.sol\":4835:5086  for (uint16 i = 0; i < listaTuristas.length; i++) {... */\n    tag_118:\n        /* \"contracts/Usuarios.sol\":4858:4871  listaTuristas */\n      0x02\n        /* \"contracts/Usuarios.sol\":4858:4878  listaTuristas.length */\n      dup1\n      sload\n      swap1\n      pop\n        /* \"contracts/Usuarios.sol\":4854:4855  i */\n      dup2\n        /* \"contracts/Usuarios.sol\":4854:4878  i < listaTuristas.length */\n      0xffff\n      and\n      lt\n        /* \"contracts/Usuarios.sol\":4835:5086  for (uint16 i = 0; i < listaTuristas.length; i++) {... */\n      iszero\n      tag_119\n      jumpi\n        /* \"contracts/Usuarios.sol\":4903:4922  turistasRegistrados */\n      0x04\n        /* \"contracts/Usuarios.sol\":4903:4940  turistasRegistrados[listaTuristas[i]] */\n      0x00\n        /* \"contracts/Usuarios.sol\":4923:4936  listaTuristas */\n      0x02\n        /* \"contracts/Usuarios.sol\":4937:4938  i */\n      dup4\n        /* \"contracts/Usuarios.sol\":4923:4939  listaTuristas[i] */\n      0xffff\n      and\n      dup2\n      sload\n      dup2\n      lt\n      tag_121\n      jumpi\n      mstore(0x00, 0x4e487b7100000000000000000000000000000000000000000000000000000000)\n      mstore(0x04, 0x32)\n      revert(0x00, 0x24)\n    tag_121:\n      swap1\n      0x00\n      mstore\n      keccak256(0x00, 0x20)\n      add\n      0x00\n      swap1\n      sload\n      swap1\n      0x0100\n      exp\n      swap1\n      div\n      0xffffffffffffffffffffffffffffffffffffffff\n      and\n        /* \"contracts/Usuarios.sol\":4903:4940  turistasRegistrados[listaTuristas[i]] */\n      0xffffffffffffffffffffffffffffffffffffffff\n      and\n      0xffffffffffffffffffffffffffffffffffffffff\n      and\n      dup2\n      mstore\n      0x20\n      add\n      swap1\n      dup2\n      mstore\n      0x20\n      add\n      0x00\n      keccak256\n        /* \"contracts/Usuarios.sol\":4903:4947  turistasRegistrados[listaTuristas[i]].estado */\n      0x02\n      add\n      0x01\n      swap1\n      sload\n      swap1\n      0x0100\n      exp\n      swap1\n      div\n      0xff\n      and\n        /* \"contracts/Usuarios.sol\":4899:5076  if (turistasRegistrados[listaTuristas[i]].estado) {... */\n      iszero\n      tag_123\n      jumpi\n        /* \"contracts/Usuarios.sol\":4982:5001  turistasRegistrados */\n      0x04\n        /* \"contracts/Usuarios.sol\":4982:5019  turistasRegistrados[listaTuristas[i]] */\n      0x00\n        /* \"contracts/Usuarios.sol\":5002:5015  listaTuristas */\n      0x02\n        /* \"contracts/Usuarios.sol\":5016:5017  i */\n      dup4\n        /* \"contracts/Usuarios.sol\":5002:5018  listaTuristas[i] */\n      0xffff\n      and\n      dup2\n      sload\n      dup2\n      lt\n      tag_124\n      jumpi\n      mstore(0x00, 0x4e487b7100000000000000000000000000000000000000000000000000000000)\n      mstore(0x04, 0x32)\n      revert(0x00, 0x24)\n    tag_124:\n      swap1\n      0x00\n      mstore\n      keccak256(0x00, 0x20)\n      add\n      0x00\n      swap1\n      sload\n      swap1\n      0x0100\n      exp\n      swap1\n      div\n      0xffffffffffffffffffffffffffffffffffffffff\n      and\n        /* \"contracts/Usuarios.sol\":4982:5019  turistasRegistrados[listaTuristas[i]] */\n      0xffffffffffffffffffffffffffffffffffffffff\n      and\n      0xffffffffffffffffffffffffffffffffffffffff\n      and\n      dup2\n      mstore\n      0x20\n      add\n      swap1\n      dup2\n      mstore\n      0x20\n      add\n      0x00\n      keccak256\n        /* \"contracts/Usuarios.sol\":4967:5019  resultado[i] = turistasRegistrados[listaTuristas[i]] */\n      mload(0x40)\n      dup1\n      0x80\n      add\n      0x40\n      mstore\n      swap1\n      dup2\n      0x00\n      dup3\n      add\n      0x00\n      swap1\n      sload\n      swap1\n      0x0100\n      exp\n      swap1\n      div\n      0xffffffffffffffffffffffffffffffffffffffff\n      and\n      0xffffffffffffffffffffffffffffffffffffffff\n      and\n      0xffffffffffffffffffffffffffffffffffffffff\n      and\n      dup2\n      mstore\n      0x20\n      add\n      0x01\n      dup3\n      add\n      dup1\n      sload\n      tag_126\n      swap1\n      tag_103\n      jump\t// in\n    tag_126:\n      dup1\n      0x1f\n      add\n      0x20\n      dup1\n      swap2\n      div\n      mul\n      0x20\n      add\n      mload(0x40)\n      swap1\n      dup2\n      add\n      0x40\n      mstore\n      dup1\n      swap3\n      swap2\n      swap1\n      dup2\n      dup2\n      mstore\n      0x20\n      add\n      dup3\n      dup1\n      sload\n      tag_127\n      swap1\n      tag_103\n      jump\t// in\n    tag_127:\n      dup1\n      iszero\n      tag_128\n      jumpi\n      dup1\n      0x1f\n      lt\n      tag_129\n      jumpi\n      0x0100\n      dup1\n      dup4\n      sload\n      div\n      mul\n      dup4\n      mstore\n      swap2\n      0x20\n      add\n      swap2\n      jump(tag_128)\n    tag_129:\n      dup3\n      add\n      swap2\n      swap1\n      0x00\n      mstore\n      keccak256(0x00, 0x20)\n      swap1\n    tag_130:\n      dup2\n      sload\n      dup2\n      mstore\n      swap1\n      0x01\n      add\n      swap1\n      0x20\n      add\n      dup1\n      dup4\n      gt\n      tag_130\n      jumpi\n      dup3\n      swap1\n      sub\n      0x1f\n      and\n      dup3\n      add\n      swap2\n    tag_128:\n      pop\n      pop\n      pop\n      pop\n      pop\n      dup2\n      mstore\n      0x20\n      add\n      0x02\n      dup3\n      add\n      0x00\n      swap1\n      sload\n      swap1\n      0x0100\n      exp\n      swap1\n      div\n      0xff\n      and\n      0xff\n      and\n      0xff\n      and\n      dup2\n      mstore\n      0x20\n      add\n      0x02\n      dup3\n      add\n      0x01\n      swap1\n      sload\n      swap1\n      0x0100\n      exp\n      swap1\n      div\n      0xff\n      and\n      iszero\n      iszero\n      iszero\n      iszero\n      dup2\n      mstore\n      pop\n      pop\n        /* \"contracts/Usuarios.sol\":4967:4976  resultado */\n      dup3\n        /* \"contracts/Usuarios.sol\":4977:4978  i */\n      dup3\n        /* \"contracts/Usuarios.sol\":4967:4979  resultado[i] */\n      0xffff\n      and\n      dup2\n      mload\n      dup2\n      lt\n      tag_131\n      jumpi\n      mstore(0x00, 0x4e487b7100000000000000000000000000000000000000000000000000000000)\n      mstore(0x04, 0x32)\n      revert(0x00, 0x24)\n    tag_131:\n      0x20\n      mul\n      0x20\n      add\n      add\n        /* \"contracts/Usuarios.sol\":4967:5019  resultado[i] = turistasRegistrados[listaTuristas[i]] */\n      dup2\n      swap1\n      mstore\n      pop\n        /* \"contracts/Usuarios.sol\":4899:5076  if (turistasRegistrados[listaTuristas[i]].estado) {... */\n      jump(tag_132)\n    tag_123:\n        /* \"contracts/Usuarios.sol\":5058:5061  i-- */\n      dup1\n      dup1\n      tag_133\n      swap1\n      tag_134\n      jump\t// in\n    tag_133:\n      swap2\n      pop\n      pop\n        /* \"contracts/Usuarios.sol\":4899:5076  if (turistasRegistrados[listaTuristas[i]].estado) {... */\n    tag_132:\n        /* \"contracts/Usuarios.sol\":4880:4883  i++ */\n      dup1\n      dup1\n      tag_135\n      swap1\n      tag_136\n      jump\t// in\n    tag_135:\n      swap2\n      pop\n      pop\n        /* \"contracts/Usuarios.sol\":4835:5086  for (uint16 i = 0; i < listaTuristas.length; i++) {... */\n      jump(tag_118)\n    tag_119:\n      pop\n        /* \"contracts/Usuarios.sol\":4650:5118  function verTuristas()... */\n      swap1\n      jump\t// out\n        /* \"contracts/Usuarios.sol\":2543:3073  function registrarTurista(... */\n    tag_45:\n        /* \"contracts/Usuarios.sol\":1867:1873  duenno */\n      0x00\n      dup1\n      sload\n      swap1\n      0x0100\n      exp\n      swap1\n      div\n      0xffffffffffffffffffffffffffffffffffffffff\n      and\n        /* \"contracts/Usuarios.sol\":1853:1873  msg.sender == duenno */\n      0xffffffffffffffffffffffffffffffffffffffff\n      and\n        /* \"contracts/Usuarios.sol\":1853:1863  msg.sender */\n      caller\n        /* \"contracts/Usuarios.sol\":1853:1873  msg.sender == duenno */\n      0xffffffffffffffffffffffffffffffffffffffff\n      and\n      eq\n        /* \"contracts/Usuarios.sol\":1853:1912  msg.sender == duenno || guiasRegistrados[msg.sender].estado */\n      dup1\n      tag_138\n      jumpi\n      pop\n        /* \"contracts/Usuarios.sol\":1877:1893  guiasRegistrados */\n      0x03\n        /* \"contracts/Usuarios.sol\":1877:1905  guiasRegistrados[msg.sender] */\n      0x00\n        /* \"contracts/Usuarios.sol\":1894:1904  msg.sender */\n      caller\n        /* \"contracts/Usuarios.sol\":1877:1905  guiasRegistrados[msg.sender] */\n      0xffffffffffffffffffffffffffffffffffffffff\n      and\n      0xffffffffffffffffffffffffffffffffffffffff\n      and\n      dup2\n      mstore\n      0x20\n      add\n      swap1\n      dup2\n      mstore\n      0x20\n      add\n      0x00\n      keccak256\n        /* \"contracts/Usuarios.sol\":1877:1912  guiasRegistrados[msg.sender].estado */\n      0x02\n      add\n      0x00\n      swap1\n      sload\n      swap1\n      0x0100\n      exp\n      swap1\n      div\n      0xff\n      and\n        /* \"contracts/Usuarios.sol\":1853:1912  msg.sender == duenno || guiasRegistrados[msg.sender].estado */\n    tag_138:\n        /* \"contracts/Usuarios.sol\":1832:1999  require(... */\n      tag_139\n      jumpi\n      mload(0x40)\n      0x08c379a000000000000000000000000000000000000000000000000000000000\n      dup2\n      mstore\n      0x04\n      add\n      tag_140\n      swap1\n      tag_75\n      jump\t// in\n    tag_140:\n      mload(0x40)\n      dup1\n      swap2\n      sub\n      swap1\n      revert\n    tag_139:\n        /* \"contracts/Usuarios.sol\":2701:2720  turistasRegistrados */\n      0x04\n        /* \"contracts/Usuarios.sol\":2701:2729  turistasRegistrados[_cuenta] */\n      0x00\n        /* \"contracts/Usuarios.sol\":2721:2728  _cuenta */\n      dup5\n        /* \"contracts/Usuarios.sol\":2701:2729  turistasRegistrados[_cuenta] */\n      0xffffffffffffffffffffffffffffffffffffffff\n      and\n      0xffffffffffffffffffffffffffffffffffffffff\n      and\n      dup2\n      mstore\n      0x20\n      add\n      swap1\n      dup2\n      mstore\n      0x20\n      add\n      0x00\n      keccak256\n        /* \"contracts/Usuarios.sol\":2701:2736  turistasRegistrados[_cuenta].estado */\n      0x02\n      add\n      0x01\n      swap1\n      sload\n      swap1\n      0x0100\n      exp\n      swap1\n      div\n      0xff\n      and\n        /* \"contracts/Usuarios.sol\":2700:2736  !turistasRegistrados[_cuenta].estado */\n      iszero\n        /* \"contracts/Usuarios.sol\":2679:2788  require(... */\n      tag_142\n      jumpi\n      mload(0x40)\n      0x08c379a000000000000000000000000000000000000000000000000000000000\n      dup2\n      mstore\n      0x04\n      add\n      tag_143\n      swap1\n      tag_144\n      jump\t// in\n    tag_143:\n      mload(0x40)\n      dup1\n      swap2\n      sub\n      swap1\n      revert\n    tag_142:\n        /* \"contracts/Usuarios.sol\":2829:2867  Turista(_cuenta, _nombre, _edad, true) */\n      mload(0x40)\n      dup1\n      0x80\n      add\n      0x40\n      mstore\n      dup1\n        /* \"contracts/Usuarios.sol\":2837:2844  _cuenta */\n      dup5\n        /* \"contracts/Usuarios.sol\":2829:2867  Turista(_cuenta, _nombre, _edad, true) */\n      0xffffffffffffffffffffffffffffffffffffffff\n      and\n      dup2\n      mstore\n      0x20\n      add\n        /* \"contracts/Usuarios.sol\":2846:2853  _nombre */\n      dup4\n        /* \"contracts/Usuarios.sol\":2829:2867  Turista(_cuenta, _nombre, _edad, true) */\n      dup2\n      mstore\n      0x20\n      add\n        /* \"contracts/Usuarios.sol\":2855:2860  _edad */\n      dup3\n        /* \"contracts/Usuarios.sol\":2829:2867  Turista(_cuenta, _nombre, _edad, true) */\n      0xff\n      and\n      dup2\n      mstore\n      0x20\n      add\n        /* \"contracts/Usuarios.sol\":2862:2866  true */\n      0x01\n        /* \"contracts/Usuarios.sol\":2829:2867  Turista(_cuenta, _nombre, _edad, true) */\n      iszero\n      iszero\n      dup2\n      mstore\n      pop\n        /* \"contracts/Usuarios.sol\":2798:2817  turistasRegistrados */\n      0x04\n        /* \"contracts/Usuarios.sol\":2798:2826  turistasRegistrados[_cuenta] */\n      0x00\n        /* \"contracts/Usuarios.sol\":2818:2825  _cuenta */\n      dup6\n        /* \"contracts/Usuarios.sol\":2798:2826  turistasRegistrados[_cuenta] */\n      0xffffffffffffffffffffffffffffffffffffffff\n      and\n      0xffffffffffffffffffffffffffffffffffffffff\n      and\n      dup2\n      mstore\n      0x20\n      add\n      swap1\n      dup2\n      mstore\n      0x20\n      add\n      0x00\n      keccak256\n        /* \"contracts/Usuarios.sol\":2798:2867  turistasRegistrados[_cuenta] = Turista(_cuenta, _nombre, _edad, true) */\n      0x00\n      dup3\n      add\n      mload\n      dup2\n      0x00\n      add\n      exp(0x0100, 0x00)\n      dup2\n      sload\n      dup2\n      0xffffffffffffffffffffffffffffffffffffffff\n      mul\n      not\n      and\n      swap1\n      dup4\n      0xffffffffffffffffffffffffffffffffffffffff\n      and\n      mul\n      or\n      swap1\n      sstore\n      pop\n      0x20\n      dup3\n      add\n      mload\n      dup2\n      0x01\n      add\n      swap1\n      dup1\n      mload\n      swap1\n      0x20\n      add\n      swap1\n      tag_145\n      swap3\n      swap2\n      swap1\n      tag_98\n      jump\t// in\n    tag_145:\n      pop\n      0x40\n      dup3\n      add\n      mload\n      dup2\n      0x02\n      add\n      exp(0x0100, 0x00)\n      dup2\n      sload\n      dup2\n      0xff\n      mul\n      not\n      and\n      swap1\n      dup4\n      0xff\n      and\n      mul\n      or\n      swap1\n      sstore\n      pop\n      0x60\n      dup3\n      add\n      mload\n      dup2\n      0x02\n      add\n      exp(0x0100, 0x01)\n      dup2\n      sload\n      dup2\n      0xff\n      mul\n      not\n      and\n      swap1\n      dup4\n      iszero\n      iszero\n      mul\n      or\n      swap1\n      sstore\n      pop\n      swap1\n      pop\n      pop\n        /* \"contracts/Usuarios.sol\":2989:3002  listaTuristas */\n      0x02\n        /* \"contracts/Usuarios.sol\":3008:3015  _cuenta */\n      dup4\n        /* \"contracts/Usuarios.sol\":2989:3016  listaTuristas.push(_cuenta) */\n      swap1\n      dup1\n      0x01\n      dup2\n      sload\n      add\n      dup1\n      dup3\n      sstore\n      dup1\n      swap2\n      pop\n      pop\n      0x01\n      swap1\n      sub\n      swap1\n      0x00\n      mstore\n      keccak256(0x00, 0x20)\n      add\n      0x00\n      swap1\n      swap2\n      swap1\n      swap2\n      swap1\n      swap2\n      0x0100\n      exp\n      dup2\n      sload\n      dup2\n      0xffffffffffffffffffffffffffffffffffffffff\n      mul\n      not\n      and\n      swap1\n      dup4\n      0xffffffffffffffffffffffffffffffffffffffff\n      and\n      mul\n      or\n      swap1\n      sstore\n      pop\n        /* \"contracts/Usuarios.sol\":3031:3066  TuristaRegistrado(_cuenta, _nombre) */\n      0x6e3e05804c481790319a6706171e0354dbe5b600f1a3a8b4e12a70a2892f8d7d\n        /* \"contracts/Usuarios.sol\":3049:3056  _cuenta */\n      dup4\n        /* \"contracts/Usuarios.sol\":3058:3065  _nombre */\n      dup4\n        /* \"contracts/Usuarios.sol\":3031:3066  TuristaRegistrado(_cuenta, _nombre) */\n      mload(0x40)\n      tag_147\n      swap3\n      swap2\n      swap1\n      tag_101\n      jump\t// in\n    tag_147:\n      mload(0x40)\n      dup1\n      swap2\n      sub\n      swap1\n      log1\n        /* \"contracts/Usuarios.sol\":2543:3073  function registrarTurista(... */\n      pop\n      pop\n      pop\n      jump\t// out\n        /* \"contracts/Usuarios.sol\":608:664  mapping(address => GuiaTuristas) public guiasRegistrados */\n    tag_48:\n      mstore(0x20, 0x03)\n      dup1\n      0x00\n      mstore\n      keccak256(0x00, 0x40)\n      0x00\n      swap2\n      pop\n      swap1\n      pop\n      dup1\n      0x00\n      add\n      0x00\n      swap1\n      sload\n      swap1\n      0x0100\n      exp\n      swap1\n      div\n      0xffffffffffffffffffffffffffffffffffffffff\n      and\n      swap1\n      dup1\n      0x01\n      add\n      dup1\n      sload\n      tag_148\n      swap1\n      tag_103\n      jump\t// in\n    tag_148:\n      dup1\n      0x1f\n      add\n      0x20\n      dup1\n      swap2\n      div\n      mul\n      0x20\n      add\n      mload(0x40)\n      swap1\n      dup2\n      add\n      0x40\n      mstore\n      dup1\n      swap3\n      swap2\n      swap1\n      dup2\n      dup2\n      mstore\n      0x20\n      add\n      dup3\n      dup1\n      sload\n      tag_149\n      swap1\n      tag_103\n      jump\t// in\n    tag_149:\n      dup1\n      iszero\n      tag_150\n      jumpi\n      dup1\n      0x1f\n      lt\n      tag_151\n      jumpi\n      0x0100\n      dup1\n      dup4\n      sload\n      div\n      mul\n      dup4\n      mstore\n      swap2\n      0x20\n      add\n      swap2\n      jump(tag_150)\n    tag_151:\n      dup3\n      add\n      swap2\n      swap1\n      0x00\n      mstore\n      keccak256(0x00, 0x20)\n      swap1\n    tag_152:\n      dup2\n      sload\n      dup2\n      mstore\n      swap1\n      0x01\n      add\n      swap1\n      0x20\n      add\n      dup1\n      dup4\n      gt\n      tag_152\n      jumpi\n      dup3\n      swap1\n      sub\n      0x1f\n      and\n      dup3\n      add\n      swap2\n    tag_150:\n      pop\n      pop\n      pop\n      pop\n      pop\n      swap1\n      dup1\n      0x02\n      add\n      0x00\n      swap1\n      sload\n      swap1\n      0x0100\n      exp\n      swap1\n      div\n      0xff\n      and\n      swap1\n      pop\n      dup4\n      jump\t// out\n        /* \"contracts/Usuarios.sol\":3316:3517  function verTurista(address _cuenta) public view returns (Turista memory) {... */\n    tag_53:\n        /* \"contracts/Usuarios.sol\":3374:3388  Turista memory */\n      tag_153\n      tag_117\n      jump\t// in\n    tag_153:\n        /* \"contracts/Usuarios.sol\":3408:3427  turistasRegistrados */\n      0x04\n        /* \"contracts/Usuarios.sol\":3408:3436  turistasRegistrados[_cuenta] */\n      0x00\n        /* \"contracts/Usuarios.sol\":3428:3435  _cuenta */\n      dup4\n        /* \"contracts/Usuarios.sol\":3408:3436  turistasRegistrados[_cuenta] */\n      0xffffffffffffffffffffffffffffffffffffffff\n      and\n      0xffffffffffffffffffffffffffffffffffffffff\n      and\n      dup2\n      mstore\n      0x20\n      add\n      swap1\n      dup2\n      mstore\n      0x20\n      add\n      0x00\n      keccak256\n        /* \"contracts/Usuarios.sol\":3408:3443  turistasRegistrados[_cuenta].estado */\n      0x02\n      add\n      0x01\n      swap1\n      sload\n      swap1\n      0x0100\n      exp\n      swap1\n      div\n      0xff\n      and\n        /* \"contracts/Usuarios.sol\":3400:3465  require(turistasRegistrados[_cuenta].estado, \"Turista no existe\") */\n      tag_155\n      jumpi\n      mload(0x40)\n      0x08c379a000000000000000000000000000000000000000000000000000000000\n      dup2\n      mstore\n      0x04\n      add\n      tag_156\n      swap1\n      tag_79\n      jump\t// in\n    tag_156:\n      mload(0x40)\n      dup1\n      swap2\n      sub\n      swap1\n      revert\n    tag_155:\n        /* \"contracts/Usuarios.sol\":3482:3501  turistasRegistrados */\n      0x04\n        /* \"contracts/Usuarios.sol\":3482:3510  turistasRegistrados[_cuenta] */\n      0x00\n        /* \"contracts/Usuarios.sol\":3502:3509  _cuenta */\n      dup4\n        /* \"contracts/Usuarios.sol\":3482:3510  turistasRegistrados[_cuenta] */\n      0xffffffffffffffffffffffffffffffffffffffff\n      and\n      0xffffffffffffffffffffffffffffffffffffffff\n      and\n      dup2\n      mstore\n      0x20\n      add\n      swap1\n      dup2\n      mstore\n      0x20\n      add\n      0x00\n      keccak256\n        /* \"contracts/Usuarios.sol\":3475:3510  return turistasRegistrados[_cuenta] */\n      mload(0x40)\n      dup1\n      0x80\n      add\n      0x40\n      mstore\n      swap1\n      dup2\n      0x00\n      dup3\n      add\n      0x00\n      swap1\n      sload\n      swap1\n      0x0100\n      exp\n      swap1\n      div\n      0xffffffffffffffffffffffffffffffffffffffff\n      and\n      0xffffffffffffffffffffffffffffffffffffffff\n      and\n      0xffffffffffffffffffffffffffffffffffffffff\n      and\n      dup2\n      mstore\n      0x20\n      add\n      0x01\n      dup3\n      add\n      dup1\n      sload\n      tag_157\n      swap1\n      tag_103\n      jump\t// in\n    tag_157:\n      dup1\n      0x1f\n      add\n      0x20\n      dup1\n      swap2\n      div\n      mul\n      0x20\n      add\n      mload(0x40)\n      swap1\n      dup2\n      add\n      0x40\n      mstore\n      dup1\n      swap3\n      swap2\n      swap1\n      dup2\n      dup2\n      mstore\n      0x20\n      add\n      dup3\n      dup1\n      sload\n      tag_158\n      swap1\n      tag_103\n      jump\t// in\n    tag_158:\n      dup1\n      iszero\n      tag_159\n      jumpi\n      dup1\n      0x1f\n      lt\n      tag_160\n      jumpi\n      0x0100\n      dup1\n      dup4\n      sload\n      div\n      mul\n      dup4\n      mstore\n      swap2\n      0x20\n      add\n      swap2\n      jump(tag_159)\n    tag_160:\n      dup3\n      add\n      swap2\n      swap1\n      0x00\n      mstore\n      keccak256(0x00, 0x20)\n      swap1\n    tag_161:\n      dup2\n      sload\n      dup2\n      mstore\n      swap1\n      0x01\n      add\n      swap1\n      0x20\n      add\n      dup1\n      dup4\n      gt\n      tag_161\n      jumpi\n      dup3\n      swap1\n      sub\n      0x1f\n      and\n      dup3\n      add\n      swap2\n    tag_159:\n      pop\n      pop\n      pop\n      pop\n      pop\n      dup2\n      mstore\n      0x20\n      add\n      0x02\n      dup3\n      add\n      0x00\n      swap1\n      sload\n      swap1\n      0x0100\n      exp\n      swap1\n      div\n      0xff\n      and\n      0xff\n      and\n      0xff\n      and\n      dup2\n      mstore\n      0x20\n      add\n      0x02\n      dup3\n      add\n      0x01\n      swap1\n      sload\n      swap1\n      0x0100\n      exp\n      swap1\n      div\n      0xff\n      and\n      iszero\n      iszero\n      iszero\n      iszero\n      dup2\n      mstore\n      pop\n      pop\n      swap1\n      pop\n        /* \"contracts/Usuarios.sol\":3316:3517  function verTurista(address _cuenta) public view returns (Turista memory) {... */\n      swap2\n      swap1\n      pop\n      jump\t// out\n        /* \"contracts/Usuarios.sol\":3597:4571  function verGuias()... */\n    tag_57:\n        /* \"contracts/Usuarios.sol\":3681:3713  GuiaTuristas[] memory _resultado */\n      0x60\n        /* \"contracts/Usuarios.sol\":1637:1643  duenno */\n      0x00\n      dup1\n      sload\n      swap1\n      0x0100\n      exp\n      swap1\n      div\n      0xffffffffffffffffffffffffffffffffffffffff\n      and\n        /* \"contracts/Usuarios.sol\":1623:1643  msg.sender == duenno */\n      0xffffffffffffffffffffffffffffffffffffffff\n      and\n        /* \"contracts/Usuarios.sol\":1623:1633  msg.sender */\n      caller\n        /* \"contracts/Usuarios.sol\":1623:1643  msg.sender == duenno */\n      0xffffffffffffffffffffffffffffffffffffffff\n      and\n      eq\n        /* \"contracts/Usuarios.sol\":1602:1710  require(... */\n      tag_163\n      jumpi\n      mload(0x40)\n      0x08c379a000000000000000000000000000000000000000000000000000000000\n      dup2\n      mstore\n      0x04\n      add\n      tag_164\n      swap1\n      tag_84\n      jump\t// in\n    tag_164:\n      mload(0x40)\n      dup1\n      swap2\n      sub\n      swap1\n      revert\n    tag_163:\n        /* \"contracts/Usuarios.sol\":3856:3873  listaGuiaTuristas */\n      0x01\n        /* \"contracts/Usuarios.sol\":3856:3880  listaGuiaTuristas.length */\n      dup1\n      sload\n      swap1\n      pop\n        /* \"contracts/Usuarios.sol\":3837:3881  new GuiaTuristas[](listaGuiaTuristas.length) */\n      0xffffffffffffffff\n      dup2\n      gt\n      iszero\n      tag_166\n      jumpi\n      mstore(0x00, 0x4e487b7100000000000000000000000000000000000000000000000000000000)\n      mstore(0x04, 0x41)\n      revert(0x00, 0x24)\n    tag_166:\n      mload(0x40)\n      swap1\n      dup1\n      dup3\n      mstore\n      dup1\n      0x20\n      mul\n      0x20\n      add\n      dup3\n      add\n      0x40\n      mstore\n      dup1\n      iszero\n      tag_167\n      jumpi\n      dup2\n      0x20\n      add\n    tag_168:\n      tag_169\n      tag_170\n      jump\t// in\n    tag_169:\n      dup2\n      mstore\n      0x20\n      add\n      swap1\n      0x01\n      swap1\n      sub\n      swap1\n      dup2\n      tag_168\n      jumpi\n      swap1\n      pop\n    tag_167:\n      pop\n        /* \"contracts/Usuarios.sol\":3824:3881  _resultado = new GuiaTuristas[](listaGuiaTuristas.length) */\n      swap1\n      pop\n        /* \"contracts/Usuarios.sol\":4066:4073  uint8 i */\n      0x00\n        /* \"contracts/Usuarios.sol\":4061:4538  for (uint8 i = 0; i < listaGuiaTuristas.length; i++) {... */\n    tag_171:\n        /* \"contracts/Usuarios.sol\":4083:4100  listaGuiaTuristas */\n      0x01\n        /* \"contracts/Usuarios.sol\":4083:4107  listaGuiaTuristas.length */\n      dup1\n      sload\n      swap1\n      pop\n        /* \"contracts/Usuarios.sol\":4079:4080  i */\n      dup2\n        /* \"contracts/Usuarios.sol\":4079:4107  i < listaGuiaTuristas.length */\n      0xff\n      and\n      lt\n        /* \"contracts/Usuarios.sol\":4061:4538  for (uint8 i = 0; i < listaGuiaTuristas.length; i++) {... */\n      iszero\n      tag_172\n      jumpi\n        /* \"contracts/Usuarios.sol\":4219:4235  guiasRegistrados */\n      0x03\n        /* \"contracts/Usuarios.sol\":4219:4257  guiasRegistrados[listaGuiaTuristas[i]] */\n      0x00\n        /* \"contracts/Usuarios.sol\":4236:4253  listaGuiaTuristas */\n      0x01\n        /* \"contracts/Usuarios.sol\":4254:4255  i */\n      dup4\n        /* \"contracts/Usuarios.sol\":4236:4256  listaGuiaTuristas[i] */\n      0xff\n      and\n      dup2\n      sload\n      dup2\n      lt\n      tag_174\n      jumpi\n      mstore(0x00, 0x4e487b7100000000000000000000000000000000000000000000000000000000)\n      mstore(0x04, 0x32)\n      revert(0x00, 0x24)\n    tag_174:\n      swap1\n      0x00\n      mstore\n      keccak256(0x00, 0x20)\n      add\n      0x00\n      swap1\n      sload\n      swap1\n      0x0100\n      exp\n      swap1\n      div\n      0xffffffffffffffffffffffffffffffffffffffff\n      and\n        /* \"contracts/Usuarios.sol\":4219:4257  guiasRegistrados[listaGuiaTuristas[i]] */\n      0xffffffffffffffffffffffffffffffffffffffff\n      and\n      0xffffffffffffffffffffffffffffffffffffffff\n      and\n      dup2\n      mstore\n      0x20\n      add\n      swap1\n      dup2\n      mstore\n      0x20\n      add\n      0x00\n      keccak256\n        /* \"contracts/Usuarios.sol\":4219:4264  guiasRegistrados[listaGuiaTuristas[i]].estado */\n      0x02\n      add\n      0x00\n      swap1\n      sload\n      swap1\n      0x0100\n      exp\n      swap1\n      div\n      0xff\n      and\n        /* \"contracts/Usuarios.sol\":4215:4528  if (guiasRegistrados[listaGuiaTuristas[i]].estado) {... */\n      iszero\n      tag_176\n      jumpi\n        /* \"contracts/Usuarios.sol\":4300:4316  guiasRegistrados */\n      0x03\n        /* \"contracts/Usuarios.sol\":4300:4338  guiasRegistrados[listaGuiaTuristas[i]] */\n      0x00\n        /* \"contracts/Usuarios.sol\":4317:4334  listaGuiaTuristas */\n      0x01\n        /* \"contracts/Usuarios.sol\":4335:4336  i */\n      dup4\n        /* \"contracts/Usuarios.sol\":4317:4337  listaGuiaTuristas[i] */\n      0xff\n      and\n      dup2\n      sload\n      dup2\n      lt\n      tag_177\n      jumpi\n      mstore(0x00, 0x4e487b7100000000000000000000000000000000000000000000000000000000)\n      mstore(0x04, 0x32)\n      revert(0x00, 0x24)\n    tag_177:\n      swap1\n      0x00\n      mstore\n      keccak256(0x00, 0x20)\n      add\n      0x00\n      swap1\n      sload\n      swap1\n      0x0100\n      exp\n      swap1\n      div\n      0xffffffffffffffffffffffffffffffffffffffff\n      and\n        /* \"contracts/Usuarios.sol\":4300:4338  guiasRegistrados[listaGuiaTuristas[i]] */\n      0xffffffffffffffffffffffffffffffffffffffff\n      and\n      0xffffffffffffffffffffffffffffffffffffffff\n      and\n      dup2\n      mstore\n      0x20\n      add\n      swap1\n      dup2\n      mstore\n      0x20\n      add\n      0x00\n      keccak256\n        /* \"contracts/Usuarios.sol\":4284:4338  _resultado[i] = guiasRegistrados[listaGuiaTuristas[i]] */\n      mload(0x40)\n      dup1\n      0x60\n      add\n      0x40\n      mstore\n      swap1\n      dup2\n      0x00\n      dup3\n      add\n      0x00\n      swap1\n      sload\n      swap1\n      0x0100\n      exp\n      swap1\n      div\n      0xffffffffffffffffffffffffffffffffffffffff\n      and\n      0xffffffffffffffffffffffffffffffffffffffff\n      and\n      0xffffffffffffffffffffffffffffffffffffffff\n      and\n      dup2\n      mstore\n      0x20\n      add\n      0x01\n      dup3\n      add\n      dup1\n      sload\n      tag_179\n      swap1\n      tag_103\n      jump\t// in\n    tag_179:\n      dup1\n      0x1f\n      add\n      0x20\n      dup1\n      swap2\n      div\n      mul\n      0x20\n      add\n      mload(0x40)\n      swap1\n      dup2\n      add\n      0x40\n      mstore\n      dup1\n      swap3\n      swap2\n      swap1\n      dup2\n      dup2\n      mstore\n      0x20\n      add\n      dup3\n      dup1\n      sload\n      tag_180\n      swap1\n      tag_103\n      jump\t// in\n    tag_180:\n      dup1\n      iszero\n      tag_181\n      jumpi\n      dup1\n      0x1f\n      lt\n      tag_182\n      jumpi\n      0x0100\n      dup1\n      dup4\n      sload\n      div\n      mul\n      dup4\n      mstore\n      swap2\n      0x20\n      add\n      swap2\n      jump(tag_181)\n    tag_182:\n      dup3\n      add\n      swap2\n      swap1\n      0x00\n      mstore\n      keccak256(0x00, 0x20)\n      swap1\n    tag_183:\n      dup2\n      sload\n      dup2\n      mstore\n      swap1\n      0x01\n      add\n      swap1\n      0x20\n      add\n      dup1\n      dup4\n      gt\n      tag_183\n      jumpi\n      dup3\n      swap1\n      sub\n      0x1f\n      and\n      dup3\n      add\n      swap2\n    tag_181:\n      pop\n      pop\n      pop\n      pop\n      pop\n      dup2\n      mstore\n      0x20\n      add\n      0x02\n      dup3\n      add\n      0x00\n      swap1\n      sload\n      swap1\n      0x0100\n      exp\n      swap1\n      div\n      0xff\n      and\n      iszero\n      iszero\n      iszero\n      iszero\n      dup2\n      mstore\n      pop\n      pop\n        /* \"contracts/Usuarios.sol\":4284:4294  _resultado */\n      dup3\n        /* \"contracts/Usuarios.sol\":4295:4296  i */\n      dup3\n        /* \"contracts/Usuarios.sol\":4284:4297  _resultado[i] */\n      0xff\n      and\n      dup2\n      mload\n      dup2\n      lt\n      tag_184\n      jumpi\n      mstore(0x00, 0x4e487b7100000000000000000000000000000000000000000000000000000000)\n      mstore(0x04, 0x32)\n      revert(0x00, 0x24)\n    tag_184:\n      0x20\n      mul\n      0x20\n      add\n      add\n        /* \"contracts/Usuarios.sol\":4284:4338  _resultado[i] = guiasRegistrados[listaGuiaTuristas[i]] */\n      dup2\n      swap1\n      mstore\n      pop\n        /* \"contracts/Usuarios.sol\":4215:4528  if (guiasRegistrados[listaGuiaTuristas[i]].estado) {... */\n      jump(tag_185)\n    tag_176:\n        /* \"contracts/Usuarios.sol\":4510:4513  i-- */\n      dup1\n      dup1\n      tag_186\n      swap1\n      tag_187\n      jump\t// in\n    tag_186:\n      swap2\n      pop\n      pop\n        /* \"contracts/Usuarios.sol\":4215:4528  if (guiasRegistrados[listaGuiaTuristas[i]].estado) {... */\n    tag_185:\n        /* \"contracts/Usuarios.sol\":4109:4112  i++ */\n      dup1\n      dup1\n      tag_188\n      swap1\n      tag_189\n      jump\t// in\n    tag_188:\n      swap2\n      pop\n      pop\n        /* \"contracts/Usuarios.sol\":4061:4538  for (uint8 i = 0; i < listaGuiaTuristas.length; i++) {... */\n      jump(tag_171)\n    tag_172:\n      pop\n        /* \"contracts/Usuarios.sol\":3597:4571  function verGuias()... */\n      swap1\n      jump\t// out\n        /* \"contracts/Usuarios.sol\":3079:3310  function verGuia(address _cuenta)... */\n    tag_62:\n        /* \"contracts/Usuarios.sol\":3158:3171  string memory */\n      0x60\n        /* \"contracts/Usuarios.sol\":3195:3211  guiasRegistrados */\n      0x03\n        /* \"contracts/Usuarios.sol\":3195:3220  guiasRegistrados[_cuenta] */\n      0x00\n        /* \"contracts/Usuarios.sol\":3212:3219  _cuenta */\n      dup4\n        /* \"contracts/Usuarios.sol\":3195:3220  guiasRegistrados[_cuenta] */\n      0xffffffffffffffffffffffffffffffffffffffff\n      and\n      0xffffffffffffffffffffffffffffffffffffffff\n      and\n      dup2\n      mstore\n      0x20\n      add\n      swap1\n      dup2\n      mstore\n      0x20\n      add\n      0x00\n      keccak256\n        /* \"contracts/Usuarios.sol\":3195:3227  guiasRegistrados[_cuenta].estado */\n      0x02\n      add\n      0x00\n      swap1\n      sload\n      swap1\n      0x0100\n      exp\n      swap1\n      div\n      0xff\n      and\n        /* \"contracts/Usuarios.sol\":3187:3246  require(guiasRegistrados[_cuenta].estado, \"Guia no existe\") */\n      tag_191\n      jumpi\n      mload(0x40)\n      0x08c379a000000000000000000000000000000000000000000000000000000000\n      dup2\n      mstore\n      0x04\n      add\n      tag_192\n      swap1\n      tag_88\n      jump\t// in\n    tag_192:\n      mload(0x40)\n      dup1\n      swap2\n      sub\n      swap1\n      revert\n    tag_191:\n        /* \"contracts/Usuarios.sol\":3263:3279  guiasRegistrados */\n      0x03\n        /* \"contracts/Usuarios.sol\":3263:3288  guiasRegistrados[_cuenta] */\n      0x00\n        /* \"contracts/Usuarios.sol\":3280:3287  _cuenta */\n      dup4\n        /* \"contracts/Usuarios.sol\":3263:3288  guiasRegistrados[_cuenta] */\n      0xffffffffffffffffffffffffffffffffffffffff\n      and\n      0xffffffffffffffffffffffffffffffffffffffff\n      and\n      dup2\n      mstore\n      0x20\n      add\n      swap1\n      dup2\n      mstore\n      0x20\n      add\n      0x00\n      keccak256\n        /* \"contracts/Usuarios.sol\":3263:3303  guiasRegistrados[_cuenta].nombreCompleto */\n      0x01\n      add\n        /* \"contracts/Usuarios.sol\":3256:3303  return guiasRegistrados[_cuenta].nombreCompleto */\n      dup1\n      sload\n      tag_193\n      swap1\n      tag_103\n      jump\t// in\n    tag_193:\n      dup1\n      0x1f\n      add\n      0x20\n      dup1\n      swap2\n      div\n      mul\n      0x20\n      add\n      mload(0x40)\n      swap1\n      dup2\n      add\n      0x40\n      mstore\n      dup1\n      swap3\n      swap2\n      swap1\n      dup2\n      dup2\n      mstore\n      0x20\n      add\n      dup3\n      dup1\n      sload\n      tag_194\n      swap1\n      tag_103\n      jump\t// in\n    tag_194:\n      dup1\n      iszero\n      tag_195\n      jumpi\n      dup1\n      0x1f\n      lt\n      tag_196\n      jumpi\n      0x0100\n      dup1\n      dup4\n      sload\n      div\n      mul\n      dup4\n      mstore\n      swap2\n      0x20\n      add\n      swap2\n      jump(tag_195)\n    tag_196:\n      dup3\n      add\n      swap2\n      swap1\n      0x00\n      mstore\n      keccak256(0x00, 0x20)\n      swap1\n    tag_197:\n      dup2\n      sload\n      dup2\n      mstore\n      swap1\n      0x01\n      add\n      swap1\n      0x20\n      add\n      dup1\n      dup4\n      gt\n      tag_197\n      jumpi\n      dup3\n      swap1\n      sub\n      0x1f\n      and\n      dup3\n      add\n      swap2\n    tag_195:\n      pop\n      pop\n      pop\n      pop\n      pop\n      swap1\n      pop\n        /* \"contracts/Usuarios.sol\":3079:3310  function verGuia(address _cuenta)... */\n      swap2\n      swap1\n      pop\n      jump\t// out\n        /* \"contracts/Usuarios.sol\":519:549  address[] public listaTuristas */\n    tag_67:\n      0x02\n      dup2\n      dup2\n      sload\n      dup2\n      lt\n      tag_198\n      jumpi\n      0x00\n      dup1\n      revert\n    tag_198:\n      swap1\n      0x00\n      mstore\n      keccak256(0x00, 0x20)\n      add\n      0x00\n      swap2\n      pop\n      sload\n      swap1\n      0x0100\n      exp\n      swap1\n      div\n      0xffffffffffffffffffffffffffffffffffffffff\n      and\n      dup2\n      jump\t// out\n    tag_98:\n      dup3\n      dup1\n      sload\n      tag_200\n      swap1\n      tag_103\n      jump\t// in\n    tag_200:\n      swap1\n      0x00\n      mstore\n      keccak256(0x00, 0x20)\n      swap1\n      0x1f\n      add\n      0x20\n      swap1\n      div\n      dup2\n      add\n      swap3\n      dup3\n      tag_202\n      jumpi\n      0x00\n      dup6\n      sstore\n      jump(tag_201)\n    tag_202:\n      dup3\n      0x1f\n      lt\n      tag_203\n      jumpi\n      dup1\n      mload\n      not(0xff)\n      and\n      dup4\n      dup1\n      add\n      or\n      dup6\n      sstore\n      jump(tag_201)\n    tag_203:\n      dup3\n      dup1\n      add\n      0x01\n      add\n      dup6\n      sstore\n      dup3\n      iszero\n      tag_201\n      jumpi\n      swap2\n      dup3\n      add\n    tag_204:\n      dup3\n      dup2\n      gt\n      iszero\n      tag_205\n      jumpi\n      dup3\n      mload\n      dup3\n      sstore\n      swap2\n      0x20\n      add\n      swap2\n      swap1\n      0x01\n      add\n      swap1\n      jump(tag_204)\n    tag_205:\n    tag_201:\n      pop\n      swap1\n      pop\n      tag_206\n      swap2\n      swap1\n      tag_207\n      jump\t// in\n    tag_206:\n      pop\n      swap1\n      jump\t// out\n    tag_117:\n      mload(0x40)\n      dup1\n      0x80\n      add\n      0x40\n      mstore\n      dup1\n      and(0xffffffffffffffffffffffffffffffffffffffff, 0x00)\n      dup2\n      mstore\n      0x20\n      add\n      0x60\n      dup2\n      mstore\n      0x20\n      add\n      and(0xff, 0x00)\n      dup2\n      mstore\n      0x20\n      add\n      iszero(iszero(0x00))\n      dup2\n      mstore\n      pop\n      swap1\n      jump\t// out\n    tag_170:\n      mload(0x40)\n      dup1\n      0x60\n      add\n      0x40\n      mstore\n      dup1\n      and(0xffffffffffffffffffffffffffffffffffffffff, 0x00)\n      dup2\n      mstore\n      0x20\n      add\n      0x60\n      dup2\n      mstore\n      0x20\n      add\n      iszero(iszero(0x00))\n      dup2\n      mstore\n      pop\n      swap1\n      jump\t// out\n    tag_207:\n    tag_208:\n      dup1\n      dup3\n      gt\n      iszero\n      tag_209\n      jumpi\n      0x00\n      dup2\n      0x00\n      swap1\n      sstore\n      pop\n      0x01\n      add\n      jump(tag_208)\n    tag_209:\n      pop\n      swap1\n      jump\t// out\n        /* \"#utility.yul\":7:351   */\n    tag_211:\n      0x00\n        /* \"#utility.yul\":110:175   */\n      tag_213\n        /* \"#utility.yul\":125:174   */\n      tag_214\n        /* \"#utility.yul\":167:173   */\n      dup5\n        /* \"#utility.yul\":125:174   */\n      tag_215\n      jump\t// in\n    tag_214:\n        /* \"#utility.yul\":110:175   */\n      tag_216\n      jump\t// in\n    tag_213:\n        /* \"#utility.yul\":101:175   */\n      swap1\n      pop\n        /* \"#utility.yul\":198:204   */\n      dup3\n        /* \"#utility.yul\":191:196   */\n      dup2\n        /* \"#utility.yul\":184:205   */\n      mstore\n        /* \"#utility.yul\":236:240   */\n      0x20\n        /* \"#utility.yul\":229:234   */\n      dup2\n        /* \"#utility.yul\":225:241   */\n      add\n        /* \"#utility.yul\":274:277   */\n      dup5\n        /* \"#utility.yul\":265:271   */\n      dup5\n        /* \"#utility.yul\":260:263   */\n      dup5\n        /* \"#utility.yul\":256:272   */\n      add\n        /* \"#utility.yul\":253:278   */\n      gt\n        /* \"#utility.yul\":250:252   */\n      iszero\n      tag_217\n      jumpi\n        /* \"#utility.yul\":291:292   */\n      0x00\n        /* \"#utility.yul\":288:289   */\n      dup1\n        /* \"#utility.yul\":281:293   */\n      revert\n        /* \"#utility.yul\":250:252   */\n    tag_217:\n        /* \"#utility.yul\":304:345   */\n      tag_218\n        /* \"#utility.yul\":338:344   */\n      dup5\n        /* \"#utility.yul\":333:336   */\n      dup3\n        /* \"#utility.yul\":328:331   */\n      dup6\n        /* \"#utility.yul\":304:345   */\n      tag_219\n      jump\t// in\n    tag_218:\n        /* \"#utility.yul\":91:351   */\n      pop\n      swap4\n      swap3\n      pop\n      pop\n      pop\n      jump\t// out\n        /* \"#utility.yul\":357:496   */\n    tag_220:\n      0x00\n        /* \"#utility.yul\":441:447   */\n      dup2\n        /* \"#utility.yul\":428:448   */\n      calldataload\n        /* \"#utility.yul\":419:448   */\n      swap1\n      pop\n        /* \"#utility.yul\":457:490   */\n      tag_222\n        /* \"#utility.yul\":484:489   */\n      dup2\n        /* \"#utility.yul\":457:490   */\n      tag_223\n      jump\t// in\n    tag_222:\n        /* \"#utility.yul\":409:496   */\n      swap3\n      swap2\n      pop\n      pop\n      jump\t// out\n        /* \"#utility.yul\":516:789   */\n    tag_224:\n      0x00\n        /* \"#utility.yul\":621:624   */\n      dup3\n        /* \"#utility.yul\":614:618   */\n      0x1f\n        /* \"#utility.yul\":606:612   */\n      dup4\n        /* \"#utility.yul\":602:619   */\n      add\n        /* \"#utility.yul\":598:625   */\n      slt\n        /* \"#utility.yul\":588:590   */\n      tag_226\n      jumpi\n        /* \"#utility.yul\":639:640   */\n      0x00\n        /* \"#utility.yul\":636:637   */\n      dup1\n        /* \"#utility.yul\":629:641   */\n      revert\n        /* \"#utility.yul\":588:590   */\n    tag_226:\n        /* \"#utility.yul\":679:685   */\n      dup2\n        /* \"#utility.yul\":666:686   */\n      calldataload\n        /* \"#utility.yul\":704:783   */\n      tag_227\n        /* \"#utility.yul\":779:782   */\n      dup5\n        /* \"#utility.yul\":771:777   */\n      dup3\n        /* \"#utility.yul\":764:768   */\n      0x20\n        /* \"#utility.yul\":756:762   */\n      dup7\n        /* \"#utility.yul\":752:769   */\n      add\n        /* \"#utility.yul\":704:783   */\n      tag_211\n      jump\t// in\n    tag_227:\n        /* \"#utility.yul\":695:783   */\n      swap2\n      pop\n        /* \"#utility.yul\":578:789   */\n      pop\n      swap3\n      swap2\n      pop\n      pop\n      jump\t// out\n        /* \"#utility.yul\":795:934   */\n    tag_228:\n      0x00\n        /* \"#utility.yul\":879:885   */\n      dup2\n        /* \"#utility.yul\":866:886   */\n      calldataload\n        /* \"#utility.yul\":857:886   */\n      swap1\n      pop\n        /* \"#utility.yul\":895:928   */\n      tag_230\n        /* \"#utility.yul\":922:927   */\n      dup2\n        /* \"#utility.yul\":895:928   */\n      tag_231\n      jump\t// in\n    tag_230:\n        /* \"#utility.yul\":847:934   */\n      swap3\n      swap2\n      pop\n      pop\n      jump\t// out\n        /* \"#utility.yul\":940:1075   */\n    tag_232:\n      0x00\n        /* \"#utility.yul\":1022:1028   */\n      dup2\n        /* \"#utility.yul\":1009:1029   */\n      calldataload\n        /* \"#utility.yul\":1000:1029   */\n      swap1\n      pop\n        /* \"#utility.yul\":1038:1069   */\n      tag_234\n        /* \"#utility.yul\":1063:1068   */\n      dup2\n        /* \"#utility.yul\":1038:1069   */\n      tag_235\n      jump\t// in\n    tag_234:\n        /* \"#utility.yul\":990:1075   */\n      swap3\n      swap2\n      pop\n      pop\n      jump\t// out\n        /* \"#utility.yul\":1081:1343   */\n    tag_24:\n      0x00\n        /* \"#utility.yul\":1189:1191   */\n      0x20\n        /* \"#utility.yul\":1177:1186   */\n      dup3\n        /* \"#utility.yul\":1168:1175   */\n      dup5\n        /* \"#utility.yul\":1164:1187   */\n      sub\n        /* \"#utility.yul\":1160:1192   */\n      slt\n        /* \"#utility.yul\":1157:1159   */\n      iszero\n      tag_237\n      jumpi\n        /* \"#utility.yul\":1205:1206   */\n      0x00\n        /* \"#utility.yul\":1202:1203   */\n      dup1\n        /* \"#utility.yul\":1195:1207   */\n      revert\n        /* \"#utility.yul\":1157:1159   */\n    tag_237:\n        /* \"#utility.yul\":1248:1249   */\n      0x00\n        /* \"#utility.yul\":1273:1326   */\n      tag_238\n        /* \"#utility.yul\":1318:1325   */\n      dup5\n        /* \"#utility.yul\":1309:1315   */\n      dup3\n        /* \"#utility.yul\":1298:1307   */\n      dup6\n        /* \"#utility.yul\":1294:1316   */\n      add\n        /* \"#utility.yul\":1273:1326   */\n      tag_220\n      jump\t// in\n    tag_238:\n        /* \"#utility.yul\":1263:1326   */\n      swap2\n      pop\n        /* \"#utility.yul\":1219:1336   */\n      pop\n        /* \"#utility.yul\":1147:1343   */\n      swap3\n      swap2\n      pop\n      pop\n      jump\t// out\n        /* \"#utility.yul\":1349:1869   */\n    tag_31:\n      0x00\n      dup1\n        /* \"#utility.yul\":1484:1486   */\n      0x40\n        /* \"#utility.yul\":1472:1481   */\n      dup4\n        /* \"#utility.yul\":1463:1470   */\n      dup6\n        /* \"#utility.yul\":1459:1482   */\n      sub\n        /* \"#utility.yul\":1455:1487   */\n      slt\n        /* \"#utility.yul\":1452:1454   */\n      iszero\n      tag_240\n      jumpi\n        /* \"#utility.yul\":1500:1501   */\n      0x00\n        /* \"#utility.yul\":1497:1498   */\n      dup1\n        /* \"#utility.yul\":1490:1502   */\n      revert\n        /* \"#utility.yul\":1452:1454   */\n    tag_240:\n        /* \"#utility.yul\":1543:1544   */\n      0x00\n        /* \"#utility.yul\":1568:1621   */\n      tag_241\n        /* \"#utility.yul\":1613:1620   */\n      dup6\n        /* \"#utility.yul\":1604:1610   */\n      dup3\n        /* \"#utility.yul\":1593:1602   */\n      dup7\n        /* \"#utility.yul\":1589:1611   */\n      add\n        /* \"#utility.yul\":1568:1621   */\n      tag_220\n      jump\t// in\n    tag_241:\n        /* \"#utility.yul\":1558:1621   */\n      swap3\n      pop\n        /* \"#utility.yul\":1514:1631   */\n      pop\n        /* \"#utility.yul\":1698:1700   */\n      0x20\n        /* \"#utility.yul\":1687:1696   */\n      dup4\n        /* \"#utility.yul\":1683:1701   */\n      add\n        /* \"#utility.yul\":1670:1702   */\n      calldataload\n        /* \"#utility.yul\":1729:1747   */\n      0xffffffffffffffff\n        /* \"#utility.yul\":1721:1727   */\n      dup2\n        /* \"#utility.yul\":1718:1748   */\n      gt\n        /* \"#utility.yul\":1715:1717   */\n      iszero\n      tag_242\n      jumpi\n        /* \"#utility.yul\":1761:1762   */\n      0x00\n        /* \"#utility.yul\":1758:1759   */\n      dup1\n        /* \"#utility.yul\":1751:1763   */\n      revert\n        /* \"#utility.yul\":1715:1717   */\n    tag_242:\n        /* \"#utility.yul\":1789:1852   */\n      tag_243\n        /* \"#utility.yul\":1844:1851   */\n      dup6\n        /* \"#utility.yul\":1835:1841   */\n      dup3\n        /* \"#utility.yul\":1824:1833   */\n      dup7\n        /* \"#utility.yul\":1820:1842   */\n      add\n        /* \"#utility.yul\":1789:1852   */\n      tag_224\n      jump\t// in\n    tag_243:\n        /* \"#utility.yul\":1779:1852   */\n      swap2\n      pop\n        /* \"#utility.yul\":1641:1862   */\n      pop\n        /* \"#utility.yul\":1442:1869   */\n      swap3\n      pop\n      swap3\n      swap1\n      pop\n      jump\t// out\n        /* \"#utility.yul\":1875:2536   */\n    tag_44:\n      0x00\n      dup1\n      0x00\n        /* \"#utility.yul\":2025:2027   */\n      0x60\n        /* \"#utility.yul\":2013:2022   */\n      dup5\n        /* \"#utility.yul\":2004:2011   */\n      dup7\n        /* \"#utility.yul\":2000:2023   */\n      sub\n        /* \"#utility.yul\":1996:2028   */\n      slt\n        /* \"#utility.yul\":1993:1995   */\n      iszero\n      tag_245\n      jumpi\n        /* \"#utility.yul\":2041:2042   */\n      0x00\n        /* \"#utility.yul\":2038:2039   */\n      dup1\n        /* \"#utility.yul\":2031:2043   */\n      revert\n        /* \"#utility.yul\":1993:1995   */\n    tag_245:\n        /* \"#utility.yul\":2084:2085   */\n      0x00\n        /* \"#utility.yul\":2109:2162   */\n      tag_246\n        /* \"#utility.yul\":2154:2161   */\n      dup7\n        /* \"#utility.yul\":2145:2151   */\n      dup3\n        /* \"#utility.yul\":2134:2143   */\n      dup8\n        /* \"#utility.yul\":2130:2152   */\n      add\n        /* \"#utility.yul\":2109:2162   */\n      tag_220\n      jump\t// in\n    tag_246:\n        /* \"#utility.yul\":2099:2162   */\n      swap4\n      pop\n        /* \"#utility.yul\":2055:2172   */\n      pop\n        /* \"#utility.yul\":2239:2241   */\n      0x20\n        /* \"#utility.yul\":2228:2237   */\n      dup5\n        /* \"#utility.yul\":2224:2242   */\n      add\n        /* \"#utility.yul\":2211:2243   */\n      calldataload\n        /* \"#utility.yul\":2270:2288   */\n      0xffffffffffffffff\n        /* \"#utility.yul\":2262:2268   */\n      dup2\n        /* \"#utility.yul\":2259:2289   */\n      gt\n        /* \"#utility.yul\":2256:2258   */\n      iszero\n      tag_247\n      jumpi\n        /* \"#utility.yul\":2302:2303   */\n      0x00\n        /* \"#utility.yul\":2299:2300   */\n      dup1\n        /* \"#utility.yul\":2292:2304   */\n      revert\n        /* \"#utility.yul\":2256:2258   */\n    tag_247:\n        /* \"#utility.yul\":2330:2393   */\n      tag_248\n        /* \"#utility.yul\":2385:2392   */\n      dup7\n        /* \"#utility.yul\":2376:2382   */\n      dup3\n        /* \"#utility.yul\":2365:2374   */\n      dup8\n        /* \"#utility.yul\":2361:2383   */\n      add\n        /* \"#utility.yul\":2330:2393   */\n      tag_224\n      jump\t// in\n    tag_248:\n        /* \"#utility.yul\":2320:2393   */\n      swap3\n      pop\n        /* \"#utility.yul\":2182:2403   */\n      pop\n        /* \"#utility.yul\":2442:2444   */\n      0x40\n        /* \"#utility.yul\":2468:2519   */\n      tag_249\n        /* \"#utility.yul\":2511:2518   */\n      dup7\n        /* \"#utility.yul\":2502:2508   */\n      dup3\n        /* \"#utility.yul\":2491:2500   */\n      dup8\n        /* \"#utility.yul\":2487:2509   */\n      add\n        /* \"#utility.yul\":2468:2519   */\n      tag_232\n      jump\t// in\n    tag_249:\n        /* \"#utility.yul\":2458:2519   */\n      swap2\n      pop\n        /* \"#utility.yul\":2413:2529   */\n      pop\n        /* \"#utility.yul\":1983:2536   */\n      swap3\n      pop\n      swap3\n      pop\n      swap3\n      jump\t// out\n        /* \"#utility.yul\":2542:2804   */\n    tag_18:\n      0x00\n        /* \"#utility.yul\":2650:2652   */\n      0x20\n        /* \"#utility.yul\":2638:2647   */\n      dup3\n        /* \"#utility.yul\":2629:2636   */\n      dup5\n        /* \"#utility.yul\":2625:2648   */\n      sub\n        /* \"#utility.yul\":2621:2653   */\n      slt\n        /* \"#utility.yul\":2618:2620   */\n      iszero\n      tag_251\n      jumpi\n        /* \"#utility.yul\":2666:2667   */\n      0x00\n        /* \"#utility.yul\":2663:2664   */\n      dup1\n        /* \"#utility.yul\":2656:2668   */\n      revert\n        /* \"#utility.yul\":2618:2620   */\n    tag_251:\n        /* \"#utility.yul\":2709:2710   */\n      0x00\n        /* \"#utility.yul\":2734:2787   */\n      tag_252\n        /* \"#utility.yul\":2779:2786   */\n      dup5\n        /* \"#utility.yul\":2770:2776   */\n      dup3\n        /* \"#utility.yul\":2759:2768   */\n      dup6\n        /* \"#utility.yul\":2755:2777   */\n      add\n        /* \"#utility.yul\":2734:2787   */\n      tag_228\n      jump\t// in\n    tag_252:\n        /* \"#utility.yul\":2724:2787   */\n      swap2\n      pop\n        /* \"#utility.yul\":2680:2797   */\n      pop\n        /* \"#utility.yul\":2608:2804   */\n      swap3\n      swap2\n      pop\n      pop\n      jump\t// out\n        /* \"#utility.yul\":2810:3078   */\n    tag_253:\n      0x00\n        /* \"#utility.yul\":2970:3072   */\n      tag_255\n        /* \"#utility.yul\":3068:3071   */\n      dup4\n        /* \"#utility.yul\":3060:3066   */\n      dup4\n        /* \"#utility.yul\":2970:3072   */\n      tag_256\n      jump\t// in\n    tag_255:\n        /* \"#utility.yul\":2956:3072   */\n      swap1\n      pop\n        /* \"#utility.yul\":2946:3078   */\n      swap3\n      swap2\n      pop\n      pop\n      jump\t// out\n        /* \"#utility.yul\":3084:3332   */\n    tag_257:\n      0x00\n        /* \"#utility.yul\":3234:3326   */\n      tag_259\n        /* \"#utility.yul\":3322:3325   */\n      dup4\n        /* \"#utility.yul\":3314:3320   */\n      dup4\n        /* \"#utility.yul\":3234:3326   */\n      tag_260\n      jump\t// in\n    tag_259:\n        /* \"#utility.yul\":3220:3326   */\n      swap1\n      pop\n        /* \"#utility.yul\":3210:3332   */\n      swap3\n      swap2\n      pop\n      pop\n      jump\t// out\n        /* \"#utility.yul\":3338:3446   */\n    tag_261:\n        /* \"#utility.yul\":3415:3439   */\n      tag_263\n        /* \"#utility.yul\":3433:3438   */\n      dup2\n        /* \"#utility.yul\":3415:3439   */\n      tag_264\n      jump\t// in\n    tag_263:\n        /* \"#utility.yul\":3410:3413   */\n      dup3\n        /* \"#utility.yul\":3403:3440   */\n      mstore\n        /* \"#utility.yul\":3393:3446   */\n      pop\n      pop\n      jump\t// out\n        /* \"#utility.yul\":3452:3570   */\n    tag_265:\n        /* \"#utility.yul\":3539:3563   */\n      tag_267\n        /* \"#utility.yul\":3557:3562   */\n      dup2\n        /* \"#utility.yul\":3539:3563   */\n      tag_264\n      jump\t// in\n    tag_267:\n        /* \"#utility.yul\":3534:3537   */\n      dup3\n        /* \"#utility.yul\":3527:3564   */\n      mstore\n        /* \"#utility.yul\":3517:3570   */\n      pop\n      pop\n      jump\t// out\n        /* \"#utility.yul\":3648:4783   */\n    tag_268:\n      0x00\n        /* \"#utility.yul\":3852:3934   */\n      tag_270\n        /* \"#utility.yul\":3928:3933   */\n      dup3\n        /* \"#utility.yul\":3852:3934   */\n      tag_271\n      jump\t// in\n    tag_270:\n        /* \"#utility.yul\":3950:4064   */\n      tag_272\n        /* \"#utility.yul\":4057:4063   */\n      dup2\n        /* \"#utility.yul\":4052:4055   */\n      dup6\n        /* \"#utility.yul\":3950:4064   */\n      tag_273\n      jump\t// in\n    tag_272:\n        /* \"#utility.yul\":3943:4064   */\n      swap4\n      pop\n        /* \"#utility.yul\":4090:4093   */\n      dup4\n        /* \"#utility.yul\":4135:4139   */\n      0x20\n        /* \"#utility.yul\":4127:4133   */\n      dup3\n        /* \"#utility.yul\":4123:4140   */\n      mul\n        /* \"#utility.yul\":4118:4121   */\n      dup6\n        /* \"#utility.yul\":4114:4141   */\n      add\n        /* \"#utility.yul\":4165:4249   */\n      tag_274\n        /* \"#utility.yul\":4243:4248   */\n      dup6\n        /* \"#utility.yul\":4165:4249   */\n      tag_275\n      jump\t// in\n    tag_274:\n        /* \"#utility.yul\":4272:4279   */\n      dup1\n        /* \"#utility.yul\":4303:4304   */\n      0x00\n        /* \"#utility.yul\":4288:4738   */\n    tag_276:\n        /* \"#utility.yul\":4313:4319   */\n      dup6\n        /* \"#utility.yul\":4310:4311   */\n      dup2\n        /* \"#utility.yul\":4307:4320   */\n      lt\n        /* \"#utility.yul\":4288:4738   */\n      iszero\n      tag_278\n      jumpi\n        /* \"#utility.yul\":4384:4393   */\n      dup5\n        /* \"#utility.yul\":4378:4382   */\n      dup5\n        /* \"#utility.yul\":4374:4394   */\n      sub\n        /* \"#utility.yul\":4369:4372   */\n      dup10\n        /* \"#utility.yul\":4362:4395   */\n      mstore\n        /* \"#utility.yul\":4435:4441   */\n      dup2\n        /* \"#utility.yul\":4429:4442   */\n      mload\n        /* \"#utility.yul\":4463:4583   */\n      tag_279\n        /* \"#utility.yul\":4578:4582   */\n      dup6\n        /* \"#utility.yul\":4563:4576   */\n      dup3\n        /* \"#utility.yul\":4463:4583   */\n      tag_253\n      jump\t// in\n    tag_279:\n        /* \"#utility.yul\":4455:4583   */\n      swap5\n      pop\n        /* \"#utility.yul\":4606:4694   */\n      tag_280\n        /* \"#utility.yul\":4687:4693   */\n      dup4\n        /* \"#utility.yul\":4606:4694   */\n      tag_281\n      jump\t// in\n    tag_280:\n        /* \"#utility.yul\":4596:4694   */\n      swap3\n      pop\n        /* \"#utility.yul\":4723:4727   */\n      0x20\n        /* \"#utility.yul\":4718:4721   */\n      dup11\n        /* \"#utility.yul\":4714:4728   */\n      add\n        /* \"#utility.yul\":4707:4728   */\n      swap10\n      pop\n        /* \"#utility.yul\":4348:4738   */\n      pop\n        /* \"#utility.yul\":4335:4336   */\n      0x01\n        /* \"#utility.yul\":4332:4333   */\n      dup2\n        /* \"#utility.yul\":4328:4337   */\n      add\n        /* \"#utility.yul\":4323:4337   */\n      swap1\n      pop\n        /* \"#utility.yul\":4288:4738   */\n      jump(tag_276)\n    tag_278:\n        /* \"#utility.yul\":4292:4306   */\n      pop\n        /* \"#utility.yul\":4754:4758   */\n      dup3\n        /* \"#utility.yul\":4747:4758   */\n      swap8\n      pop\n        /* \"#utility.yul\":4774:4777   */\n      dup8\n        /* \"#utility.yul\":4767:4777   */\n      swap6\n      pop\n        /* \"#utility.yul\":3828:4783   */\n      pop\n      pop\n      pop\n      pop\n      pop\n      swap3\n      swap2\n      pop\n      pop\n      jump\t// out\n        /* \"#utility.yul\":4851:5946   */\n    tag_282:\n      0x00\n        /* \"#utility.yul\":5045:5122   */\n      tag_284\n        /* \"#utility.yul\":5116:5121   */\n      dup3\n        /* \"#utility.yul\":5045:5122   */\n      tag_285\n      jump\t// in\n    tag_284:\n        /* \"#utility.yul\":5138:5247   */\n      tag_286\n        /* \"#utility.yul\":5240:5246   */\n      dup2\n        /* \"#utility.yul\":5235:5238   */\n      dup6\n        /* \"#utility.yul\":5138:5247   */\n      tag_287\n      jump\t// in\n    tag_286:\n        /* \"#utility.yul\":5131:5247   */\n      swap4\n      pop\n        /* \"#utility.yul\":5273:5276   */\n      dup4\n        /* \"#utility.yul\":5318:5322   */\n      0x20\n        /* \"#utility.yul\":5310:5316   */\n      dup3\n        /* \"#utility.yul\":5306:5323   */\n      mul\n        /* \"#utility.yul\":5301:5304   */\n      dup6\n        /* \"#utility.yul\":5297:5324   */\n      add\n        /* \"#utility.yul\":5348:5427   */\n      tag_288\n        /* \"#utility.yul\":5421:5426   */\n      dup6\n        /* \"#utility.yul\":5348:5427   */\n      tag_289\n      jump\t// in\n    tag_288:\n        /* \"#utility.yul\":5450:5457   */\n      dup1\n        /* \"#utility.yul\":5481:5482   */\n      0x00\n        /* \"#utility.yul\":5466:5901   */\n    tag_290:\n        /* \"#utility.yul\":5491:5497   */\n      dup6\n        /* \"#utility.yul\":5488:5489   */\n      dup2\n        /* \"#utility.yul\":5485:5498   */\n      lt\n        /* \"#utility.yul\":5466:5901   */\n      iszero\n      tag_292\n      jumpi\n        /* \"#utility.yul\":5562:5571   */\n      dup5\n        /* \"#utility.yul\":5556:5560   */\n      dup5\n        /* \"#utility.yul\":5552:5572   */\n      sub\n        /* \"#utility.yul\":5547:5550   */\n      dup10\n        /* \"#utility.yul\":5540:5573   */\n      mstore\n        /* \"#utility.yul\":5613:5619   */\n      dup2\n        /* \"#utility.yul\":5607:5620   */\n      mload\n        /* \"#utility.yul\":5641:5751   */\n      tag_293\n        /* \"#utility.yul\":5746:5750   */\n      dup6\n        /* \"#utility.yul\":5731:5744   */\n      dup3\n        /* \"#utility.yul\":5641:5751   */\n      tag_257\n      jump\t// in\n    tag_293:\n        /* \"#utility.yul\":5633:5751   */\n      swap5\n      pop\n        /* \"#utility.yul\":5774:5857   */\n      tag_294\n        /* \"#utility.yul\":5850:5856   */\n      dup4\n        /* \"#utility.yul\":5774:5857   */\n      tag_295\n      jump\t// in\n    tag_294:\n        /* \"#utility.yul\":5764:5857   */\n      swap3\n      pop\n        /* \"#utility.yul\":5886:5890   */\n      0x20\n        /* \"#utility.yul\":5881:5884   */\n      dup11\n        /* \"#utility.yul\":5877:5891   */\n      add\n        /* \"#utility.yul\":5870:5891   */\n      swap10\n      pop\n        /* \"#utility.yul\":5526:5901   */\n      pop\n        /* \"#utility.yul\":5513:5514   */\n      0x01\n        /* \"#utility.yul\":5510:5511   */\n      dup2\n        /* \"#utility.yul\":5506:5515   */\n      add\n        /* \"#utility.yul\":5501:5515   */\n      swap1\n      pop\n        /* \"#utility.yul\":5466:5901   */\n      jump(tag_290)\n    tag_292:\n        /* \"#utility.yul\":5470:5484   */\n      pop\n        /* \"#utility.yul\":5917:5921   */\n      dup3\n        /* \"#utility.yul\":5910:5921   */\n      swap8\n      pop\n        /* \"#utility.yul\":5937:5940   */\n      dup8\n        /* \"#utility.yul\":5930:5940   */\n      swap6\n      pop\n        /* \"#utility.yul\":5021:5946   */\n      pop\n      pop\n      pop\n      pop\n      pop\n      swap3\n      swap2\n      pop\n      pop\n      jump\t// out\n        /* \"#utility.yul\":5952:6051   */\n    tag_296:\n        /* \"#utility.yul\":6023:6044   */\n      tag_298\n        /* \"#utility.yul\":6038:6043   */\n      dup2\n        /* \"#utility.yul\":6023:6044   */\n      tag_299\n      jump\t// in\n    tag_298:\n        /* \"#utility.yul\":6018:6021   */\n      dup3\n        /* \"#utility.yul\":6011:6045   */\n      mstore\n        /* \"#utility.yul\":6001:6051   */\n      pop\n      pop\n      jump\t// out\n        /* \"#utility.yul\":6057:6166   */\n    tag_300:\n        /* \"#utility.yul\":6138:6159   */\n      tag_302\n        /* \"#utility.yul\":6153:6158   */\n      dup2\n        /* \"#utility.yul\":6138:6159   */\n      tag_299\n      jump\t// in\n    tag_302:\n        /* \"#utility.yul\":6133:6136   */\n      dup3\n        /* \"#utility.yul\":6126:6160   */\n      mstore\n        /* \"#utility.yul\":6116:6166   */\n      pop\n      pop\n      jump\t// out\n        /* \"#utility.yul\":6172:6516   */\n    tag_303:\n      0x00\n        /* \"#utility.yul\":6278:6317   */\n      tag_305\n        /* \"#utility.yul\":6311:6316   */\n      dup3\n        /* \"#utility.yul\":6278:6317   */\n      tag_306\n      jump\t// in\n    tag_305:\n        /* \"#utility.yul\":6333:6394   */\n      tag_307\n        /* \"#utility.yul\":6387:6393   */\n      dup2\n        /* \"#utility.yul\":6382:6385   */\n      dup6\n        /* \"#utility.yul\":6333:6394   */\n      tag_308\n      jump\t// in\n    tag_307:\n        /* \"#utility.yul\":6326:6394   */\n      swap4\n      pop\n        /* \"#utility.yul\":6403:6455   */\n      tag_309\n        /* \"#utility.yul\":6448:6454   */\n      dup2\n        /* \"#utility.yul\":6443:6446   */\n      dup6\n        /* \"#utility.yul\":6436:6440   */\n      0x20\n        /* \"#utility.yul\":6429:6434   */\n      dup7\n        /* \"#utility.yul\":6425:6441   */\n      add\n        /* \"#utility.yul\":6403:6455   */\n      tag_310\n      jump\t// in\n    tag_309:\n        /* \"#utility.yul\":6480:6509   */\n      tag_311\n        /* \"#utility.yul\":6502:6508   */\n      dup2\n        /* \"#utility.yul\":6480:6509   */\n      tag_312\n      jump\t// in\n    tag_311:\n        /* \"#utility.yul\":6475:6478   */\n      dup5\n        /* \"#utility.yul\":6471:6510   */\n      add\n        /* \"#utility.yul\":6464:6510   */\n      swap2\n      pop\n        /* \"#utility.yul\":6254:6516   */\n      pop\n      swap3\n      swap2\n      pop\n      pop\n      jump\t// out\n        /* \"#utility.yul\":6522:6886   */\n    tag_313:\n      0x00\n        /* \"#utility.yul\":6638:6677   */\n      tag_315\n        /* \"#utility.yul\":6671:6676   */\n      dup3\n        /* \"#utility.yul\":6638:6677   */\n      tag_306\n      jump\t// in\n    tag_315:\n        /* \"#utility.yul\":6693:6764   */\n      tag_316\n        /* \"#utility.yul\":6757:6763   */\n      dup2\n        /* \"#utility.yul\":6752:6755   */\n      dup6\n        /* \"#utility.yul\":6693:6764   */\n      tag_317\n      jump\t// in\n    tag_316:\n        /* \"#utility.yul\":6686:6764   */\n      swap4\n      pop\n        /* \"#utility.yul\":6773:6825   */\n      tag_318\n        /* \"#utility.yul\":6818:6824   */\n      dup2\n        /* \"#utility.yul\":6813:6816   */\n      dup6\n        /* \"#utility.yul\":6806:6810   */\n      0x20\n        /* \"#utility.yul\":6799:6804   */\n      dup7\n        /* \"#utility.yul\":6795:6811   */\n      add\n        /* \"#utility.yul\":6773:6825   */\n      tag_310\n      jump\t// in\n    tag_318:\n        /* \"#utility.yul\":6850:6879   */\n      tag_319\n        /* \"#utility.yul\":6872:6878   */\n      dup2\n        /* \"#utility.yul\":6850:6879   */\n      tag_312\n      jump\t// in\n    tag_319:\n        /* \"#utility.yul\":6845:6848   */\n      dup5\n        /* \"#utility.yul\":6841:6880   */\n      add\n        /* \"#utility.yul\":6834:6880   */\n      swap2\n      pop\n        /* \"#utility.yul\":6614:6886   */\n      pop\n      swap3\n      swap2\n      pop\n      pop\n      jump\t// out\n        /* \"#utility.yul\":6892:7285   */\n    tag_320:\n      0x00\n        /* \"#utility.yul\":7055:7122   */\n      tag_322\n        /* \"#utility.yul\":7119:7121   */\n      0x3d\n        /* \"#utility.yul\":7114:7117   */\n      dup4\n        /* \"#utility.yul\":7055:7122   */\n      tag_317\n      jump\t// in\n    tag_322:\n        /* \"#utility.yul\":7048:7122   */\n      swap2\n      pop\n        /* \"#utility.yul\":7152:7186   */\n      0x536f6c6f20656c204475656e6e6f206f20477569617320646520747572697374\n        /* \"#utility.yul\":7148:7149   */\n      0x00\n        /* \"#utility.yul\":7143:7146   */\n      dup4\n        /* \"#utility.yul\":7139:7150   */\n      add\n        /* \"#utility.yul\":7132:7187   */\n      mstore\n        /* \"#utility.yul\":7218:7249   */\n      0x6173207075656465207265616c697a6172206573746120616363696f6e000000\n        /* \"#utility.yul\":7213:7215   */\n      0x20\n        /* \"#utility.yul\":7208:7211   */\n      dup4\n        /* \"#utility.yul\":7204:7216   */\n      add\n        /* \"#utility.yul\":7197:7250   */\n      mstore\n        /* \"#utility.yul\":7276:7278   */\n      0x40\n        /* \"#utility.yul\":7271:7274   */\n      dup3\n        /* \"#utility.yul\":7267:7279   */\n      add\n        /* \"#utility.yul\":7260:7279   */\n      swap1\n      pop\n        /* \"#utility.yul\":7038:7285   */\n      swap2\n      swap1\n      pop\n      jump\t// out\n        /* \"#utility.yul\":7291:7658   */\n    tag_323:\n      0x00\n        /* \"#utility.yul\":7454:7521   */\n      tag_325\n        /* \"#utility.yul\":7518:7520   */\n      0x23\n        /* \"#utility.yul\":7513:7516   */\n      dup4\n        /* \"#utility.yul\":7454:7521   */\n      tag_317\n      jump\t// in\n    tag_325:\n        /* \"#utility.yul\":7447:7521   */\n      swap2\n      pop\n        /* \"#utility.yul\":7551:7585   */\n      0x4775696120646520547572697374617320796120657374612072656769737472\n        /* \"#utility.yul\":7547:7548   */\n      0x00\n        /* \"#utility.yul\":7542:7545   */\n      dup4\n        /* \"#utility.yul\":7538:7549   */\n      add\n        /* \"#utility.yul\":7531:7586   */\n      mstore\n        /* \"#utility.yul\":7617:7622   */\n      0x61646f0000000000000000000000000000000000000000000000000000000000\n        /* \"#utility.yul\":7612:7614   */\n      0x20\n        /* \"#utility.yul\":7607:7610   */\n      dup4\n        /* \"#utility.yul\":7603:7615   */\n      add\n        /* \"#utility.yul\":7596:7623   */\n      mstore\n        /* \"#utility.yul\":7649:7651   */\n      0x40\n        /* \"#utility.yul\":7644:7647   */\n      dup3\n        /* \"#utility.yul\":7640:7652   */\n      add\n        /* \"#utility.yul\":7633:7652   */\n      swap1\n      pop\n        /* \"#utility.yul\":7437:7658   */\n      swap2\n      swap1\n      pop\n      jump\t// out\n        /* \"#utility.yul\":7664:7988   */\n    tag_326:\n      0x00\n        /* \"#utility.yul\":7827:7894   */\n      tag_328\n        /* \"#utility.yul\":7891:7893   */\n      0x1a\n        /* \"#utility.yul\":7886:7889   */\n      dup4\n        /* \"#utility.yul\":7827:7894   */\n      tag_317\n      jump\t// in\n    tag_328:\n        /* \"#utility.yul\":7820:7894   */\n      swap2\n      pop\n        /* \"#utility.yul\":7924:7952   */\n      0x547572697374612079612065737461207265676973747261646f000000000000\n        /* \"#utility.yul\":7920:7921   */\n      0x00\n        /* \"#utility.yul\":7915:7918   */\n      dup4\n        /* \"#utility.yul\":7911:7922   */\n      add\n        /* \"#utility.yul\":7904:7953   */\n      mstore\n        /* \"#utility.yul\":7979:7981   */\n      0x20\n        /* \"#utility.yul\":7974:7977   */\n      dup3\n        /* \"#utility.yul\":7970:7982   */\n      add\n        /* \"#utility.yul\":7963:7982   */\n      swap1\n      pop\n        /* \"#utility.yul\":7810:7988   */\n      swap2\n      swap1\n      pop\n      jump\t// out\n        /* \"#utility.yul\":7994:8306   */\n    tag_329:\n      0x00\n        /* \"#utility.yul\":8157:8224   */\n      tag_331\n        /* \"#utility.yul\":8221:8223   */\n      0x0e\n        /* \"#utility.yul\":8216:8219   */\n      dup4\n        /* \"#utility.yul\":8157:8224   */\n      tag_317\n      jump\t// in\n    tag_331:\n        /* \"#utility.yul\":8150:8224   */\n      swap2\n      pop\n        /* \"#utility.yul\":8254:8270   */\n      0x47756961206e6f20657869737465000000000000000000000000000000000000\n        /* \"#utility.yul\":8250:8251   */\n      0x00\n        /* \"#utility.yul\":8245:8248   */\n      dup4\n        /* \"#utility.yul\":8241:8252   */\n      add\n        /* \"#utility.yul\":8234:8271   */\n      mstore\n        /* \"#utility.yul\":8297:8299   */\n      0x20\n        /* \"#utility.yul\":8292:8295   */\n      dup3\n        /* \"#utility.yul\":8288:8300   */\n      add\n        /* \"#utility.yul\":8281:8300   */\n      swap1\n      pop\n        /* \"#utility.yul\":8140:8306   */\n      swap2\n      swap1\n      pop\n      jump\t// out\n        /* \"#utility.yul\":8312:8685   */\n    tag_332:\n      0x00\n        /* \"#utility.yul\":8475:8542   */\n      tag_334\n        /* \"#utility.yul\":8539:8541   */\n      0x29\n        /* \"#utility.yul\":8534:8537   */\n      dup4\n        /* \"#utility.yul\":8475:8542   */\n      tag_317\n      jump\t// in\n    tag_334:\n        /* \"#utility.yul\":8468:8542   */\n      swap2\n      pop\n        /* \"#utility.yul\":8572:8606   */\n      0x536f6c6f20656c204475656e6e6f207075656465207265616c697a6172206573\n        /* \"#utility.yul\":8568:8569   */\n      0x00\n        /* \"#utility.yul\":8563:8566   */\n      dup4\n        /* \"#utility.yul\":8559:8570   */\n      add\n        /* \"#utility.yul\":8552:8607   */\n      mstore\n        /* \"#utility.yul\":8638:8649   */\n      0x746120616363696f6e0000000000000000000000000000000000000000000000\n        /* \"#utility.yul\":8633:8635   */\n      0x20\n        /* \"#utility.yul\":8628:8631   */\n      dup4\n        /* \"#utility.yul\":8624:8636   */\n      add\n        /* \"#utility.yul\":8617:8650   */\n      mstore\n        /* \"#utility.yul\":8676:8678   */\n      0x40\n        /* \"#utility.yul\":8671:8674   */\n      dup3\n        /* \"#utility.yul\":8667:8679   */\n      add\n        /* \"#utility.yul\":8660:8679   */\n      swap1\n      pop\n        /* \"#utility.yul\":8458:8685   */\n      swap2\n      swap1\n      pop\n      jump\t// out\n        /* \"#utility.yul\":8691:9006   */\n    tag_335:\n      0x00\n        /* \"#utility.yul\":8854:8921   */\n      tag_337\n        /* \"#utility.yul\":8918:8920   */\n      0x11\n        /* \"#utility.yul\":8913:8916   */\n      dup4\n        /* \"#utility.yul\":8854:8921   */\n      tag_317\n      jump\t// in\n    tag_337:\n        /* \"#utility.yul\":8847:8921   */\n      swap2\n      pop\n        /* \"#utility.yul\":8951:8970   */\n      0x54757269737461206e6f20657869737465000000000000000000000000000000\n        /* \"#utility.yul\":8947:8948   */\n      0x00\n        /* \"#utility.yul\":8942:8945   */\n      dup4\n        /* \"#utility.yul\":8938:8949   */\n      add\n        /* \"#utility.yul\":8931:8971   */\n      mstore\n        /* \"#utility.yul\":8997:8999   */\n      0x20\n        /* \"#utility.yul\":8992:8995   */\n      dup3\n        /* \"#utility.yul\":8988:9000   */\n      add\n        /* \"#utility.yul\":8981:9000   */\n      swap1\n      pop\n        /* \"#utility.yul\":8837:9006   */\n      swap2\n      swap1\n      pop\n      jump\t// out\n        /* \"#utility.yul\":9080:9864   */\n    tag_256:\n      0x00\n        /* \"#utility.yul\":9231:9235   */\n      0x60\n        /* \"#utility.yul\":9226:9229   */\n      dup4\n        /* \"#utility.yul\":9222:9236   */\n      add\n        /* \"#utility.yul\":9320:9324   */\n      0x00\n        /* \"#utility.yul\":9313:9318   */\n      dup4\n        /* \"#utility.yul\":9309:9325   */\n      add\n        /* \"#utility.yul\":9303:9326   */\n      mload\n        /* \"#utility.yul\":9339:9402   */\n      tag_339\n        /* \"#utility.yul\":9396:9400   */\n      0x00\n        /* \"#utility.yul\":9391:9394   */\n      dup7\n        /* \"#utility.yul\":9387:9401   */\n      add\n        /* \"#utility.yul\":9373:9385   */\n      dup3\n        /* \"#utility.yul\":9339:9402   */\n      tag_261\n      jump\t// in\n    tag_339:\n        /* \"#utility.yul\":9246:9412   */\n      pop\n        /* \"#utility.yul\":9504:9508   */\n      0x20\n        /* \"#utility.yul\":9497:9502   */\n      dup4\n        /* \"#utility.yul\":9493:9509   */\n      add\n        /* \"#utility.yul\":9487:9510   */\n      mload\n        /* \"#utility.yul\":9557:9560   */\n      dup5\n        /* \"#utility.yul\":9551:9555   */\n      dup3\n        /* \"#utility.yul\":9547:9561   */\n      sub\n        /* \"#utility.yul\":9540:9544   */\n      0x20\n        /* \"#utility.yul\":9535:9538   */\n      dup7\n        /* \"#utility.yul\":9531:9545   */\n      add\n        /* \"#utility.yul\":9524:9562   */\n      mstore\n        /* \"#utility.yul\":9583:9656   */\n      tag_340\n        /* \"#utility.yul\":9651:9655   */\n      dup3\n        /* \"#utility.yul\":9637:9649   */\n      dup3\n        /* \"#utility.yul\":9583:9656   */\n      tag_303\n      jump\t// in\n    tag_340:\n        /* \"#utility.yul\":9575:9656   */\n      swap2\n      pop\n        /* \"#utility.yul\":9422:9667   */\n      pop\n        /* \"#utility.yul\":9751:9755   */\n      0x40\n        /* \"#utility.yul\":9744:9749   */\n      dup4\n        /* \"#utility.yul\":9740:9756   */\n      add\n        /* \"#utility.yul\":9734:9757   */\n      mload\n        /* \"#utility.yul\":9770:9827   */\n      tag_341\n        /* \"#utility.yul\":9821:9825   */\n      0x40\n        /* \"#utility.yul\":9816:9819   */\n      dup7\n        /* \"#utility.yul\":9812:9826   */\n      add\n        /* \"#utility.yul\":9798:9810   */\n      dup3\n        /* \"#utility.yul\":9770:9827   */\n      tag_296\n      jump\t// in\n    tag_341:\n        /* \"#utility.yul\":9677:9837   */\n      pop\n        /* \"#utility.yul\":9854:9858   */\n      dup1\n        /* \"#utility.yul\":9847:9858   */\n      swap2\n      pop\n        /* \"#utility.yul\":9200:9864   */\n      pop\n      swap3\n      swap2\n      pop\n      pop\n      jump\t// out\n        /* \"#utility.yul\":9928:10872   */\n    tag_260:\n      0x00\n        /* \"#utility.yul\":10069:10073   */\n      0x80\n        /* \"#utility.yul\":10064:10067   */\n      dup4\n        /* \"#utility.yul\":10060:10074   */\n      add\n        /* \"#utility.yul\":10158:10162   */\n      0x00\n        /* \"#utility.yul\":10151:10156   */\n      dup4\n        /* \"#utility.yul\":10147:10163   */\n      add\n        /* \"#utility.yul\":10141:10164   */\n      mload\n        /* \"#utility.yul\":10177:10240   */\n      tag_343\n        /* \"#utility.yul\":10234:10238   */\n      0x00\n        /* \"#utility.yul\":10229:10232   */\n      dup7\n        /* \"#utility.yul\":10225:10239   */\n      add\n        /* \"#utility.yul\":10211:10223   */\n      dup3\n        /* \"#utility.yul\":10177:10240   */\n      tag_261\n      jump\t// in\n    tag_343:\n        /* \"#utility.yul\":10084:10250   */\n      pop\n        /* \"#utility.yul\":10342:10346   */\n      0x20\n        /* \"#utility.yul\":10335:10340   */\n      dup4\n        /* \"#utility.yul\":10331:10347   */\n      add\n        /* \"#utility.yul\":10325:10348   */\n      mload\n        /* \"#utility.yul\":10395:10398   */\n      dup5\n        /* \"#utility.yul\":10389:10393   */\n      dup3\n        /* \"#utility.yul\":10385:10399   */\n      sub\n        /* \"#utility.yul\":10378:10382   */\n      0x20\n        /* \"#utility.yul\":10373:10376   */\n      dup7\n        /* \"#utility.yul\":10369:10383   */\n      add\n        /* \"#utility.yul\":10362:10400   */\n      mstore\n        /* \"#utility.yul\":10421:10494   */\n      tag_344\n        /* \"#utility.yul\":10489:10493   */\n      dup3\n        /* \"#utility.yul\":10475:10487   */\n      dup3\n        /* \"#utility.yul\":10421:10494   */\n      tag_303\n      jump\t// in\n    tag_344:\n        /* \"#utility.yul\":10413:10494   */\n      swap2\n      pop\n        /* \"#utility.yul\":10260:10505   */\n      pop\n        /* \"#utility.yul\":10587:10591   */\n      0x40\n        /* \"#utility.yul\":10580:10585   */\n      dup4\n        /* \"#utility.yul\":10576:10592   */\n      add\n        /* \"#utility.yul\":10570:10593   */\n      mload\n        /* \"#utility.yul\":10606:10665   */\n      tag_345\n        /* \"#utility.yul\":10659:10663   */\n      0x40\n        /* \"#utility.yul\":10654:10657   */\n      dup7\n        /* \"#utility.yul\":10650:10664   */\n      add\n        /* \"#utility.yul\":10636:10648   */\n      dup3\n        /* \"#utility.yul\":10606:10665   */\n      tag_346\n      jump\t// in\n    tag_345:\n        /* \"#utility.yul\":10515:10675   */\n      pop\n        /* \"#utility.yul\":10759:10763   */\n      0x60\n        /* \"#utility.yul\":10752:10757   */\n      dup4\n        /* \"#utility.yul\":10748:10764   */\n      add\n        /* \"#utility.yul\":10742:10765   */\n      mload\n        /* \"#utility.yul\":10778:10835   */\n      tag_347\n        /* \"#utility.yul\":10829:10833   */\n      0x60\n        /* \"#utility.yul\":10824:10827   */\n      dup7\n        /* \"#utility.yul\":10820:10834   */\n      add\n        /* \"#utility.yul\":10806:10818   */\n      dup3\n        /* \"#utility.yul\":10778:10835   */\n      tag_296\n      jump\t// in\n    tag_347:\n        /* \"#utility.yul\":10685:10845   */\n      pop\n        /* \"#utility.yul\":10862:10866   */\n      dup1\n        /* \"#utility.yul\":10855:10866   */\n      swap2\n      pop\n        /* \"#utility.yul\":10038:10872   */\n      pop\n      swap3\n      swap2\n      pop\n      pop\n      jump\t// out\n        /* \"#utility.yul\":10936:11890   */\n    tag_348:\n      0x00\n        /* \"#utility.yul\":11087:11091   */\n      0x80\n        /* \"#utility.yul\":11082:11085   */\n      dup4\n        /* \"#utility.yul\":11078:11092   */\n      add\n        /* \"#utility.yul\":11176:11180   */\n      0x00\n        /* \"#utility.yul\":11169:11174   */\n      dup4\n        /* \"#utility.yul\":11165:11181   */\n      add\n        /* \"#utility.yul\":11159:11182   */\n      mload\n        /* \"#utility.yul\":11195:11258   */\n      tag_350\n        /* \"#utility.yul\":11252:11256   */\n      0x00\n        /* \"#utility.yul\":11247:11250   */\n      dup7\n        /* \"#utility.yul\":11243:11257   */\n      add\n        /* \"#utility.yul\":11229:11241   */\n      dup3\n        /* \"#utility.yul\":11195:11258   */\n      tag_261\n      jump\t// in\n    tag_350:\n        /* \"#utility.yul\":11102:11268   */\n      pop\n        /* \"#utility.yul\":11360:11364   */\n      0x20\n        /* \"#utility.yul\":11353:11358   */\n      dup4\n        /* \"#utility.yul\":11349:11365   */\n      add\n        /* \"#utility.yul\":11343:11366   */\n      mload\n        /* \"#utility.yul\":11413:11416   */\n      dup5\n        /* \"#utility.yul\":11407:11411   */\n      dup3\n        /* \"#utility.yul\":11403:11417   */\n      sub\n        /* \"#utility.yul\":11396:11400   */\n      0x20\n        /* \"#utility.yul\":11391:11394   */\n      dup7\n        /* \"#utility.yul\":11387:11401   */\n      add\n        /* \"#utility.yul\":11380:11418   */\n      mstore\n        /* \"#utility.yul\":11439:11512   */\n      tag_351\n        /* \"#utility.yul\":11507:11511   */\n      dup3\n        /* \"#utility.yul\":11493:11505   */\n      dup3\n        /* \"#utility.yul\":11439:11512   */\n      tag_303\n      jump\t// in\n    tag_351:\n        /* \"#utility.yul\":11431:11512   */\n      swap2\n      pop\n        /* \"#utility.yul\":11278:11523   */\n      pop\n        /* \"#utility.yul\":11605:11609   */\n      0x40\n        /* \"#utility.yul\":11598:11603   */\n      dup4\n        /* \"#utility.yul\":11594:11610   */\n      add\n        /* \"#utility.yul\":11588:11611   */\n      mload\n        /* \"#utility.yul\":11624:11683   */\n      tag_352\n        /* \"#utility.yul\":11677:11681   */\n      0x40\n        /* \"#utility.yul\":11672:11675   */\n      dup7\n        /* \"#utility.yul\":11668:11682   */\n      add\n        /* \"#utility.yul\":11654:11666   */\n      dup3\n        /* \"#utility.yul\":11624:11683   */\n      tag_346\n      jump\t// in\n    tag_352:\n        /* \"#utility.yul\":11533:11693   */\n      pop\n        /* \"#utility.yul\":11777:11781   */\n      0x60\n        /* \"#utility.yul\":11770:11775   */\n      dup4\n        /* \"#utility.yul\":11766:11782   */\n      add\n        /* \"#utility.yul\":11760:11783   */\n      mload\n        /* \"#utility.yul\":11796:11853   */\n      tag_353\n        /* \"#utility.yul\":11847:11851   */\n      0x60\n        /* \"#utility.yul\":11842:11845   */\n      dup7\n        /* \"#utility.yul\":11838:11852   */\n      add\n        /* \"#utility.yul\":11824:11836   */\n      dup3\n        /* \"#utility.yul\":11796:11853   */\n      tag_296\n      jump\t// in\n    tag_353:\n        /* \"#utility.yul\":11703:11863   */\n      pop\n        /* \"#utility.yul\":11880:11884   */\n      dup1\n        /* \"#utility.yul\":11873:11884   */\n      swap2\n      pop\n        /* \"#utility.yul\":11056:11890   */\n      pop\n      swap3\n      swap2\n      pop\n      pop\n      jump\t// out\n        /* \"#utility.yul\":11896:11998   */\n    tag_346:\n        /* \"#utility.yul\":11969:11991   */\n      tag_355\n        /* \"#utility.yul\":11985:11990   */\n      dup2\n        /* \"#utility.yul\":11969:11991   */\n      tag_356\n      jump\t// in\n    tag_355:\n        /* \"#utility.yul\":11964:11967   */\n      dup3\n        /* \"#utility.yul\":11957:11992   */\n      mstore\n        /* \"#utility.yul\":11947:11998   */\n      pop\n      pop\n      jump\t// out\n        /* \"#utility.yul\":12004:12116   */\n    tag_357:\n        /* \"#utility.yul\":12087:12109   */\n      tag_359\n        /* \"#utility.yul\":12103:12108   */\n      dup2\n        /* \"#utility.yul\":12087:12109   */\n      tag_356\n      jump\t// in\n    tag_359:\n        /* \"#utility.yul\":12082:12085   */\n      dup3\n        /* \"#utility.yul\":12075:12110   */\n      mstore\n        /* \"#utility.yul\":12065:12116   */\n      pop\n      pop\n      jump\t// out\n        /* \"#utility.yul\":12122:12344   */\n    tag_21:\n      0x00\n        /* \"#utility.yul\":12253:12255   */\n      0x20\n        /* \"#utility.yul\":12242:12251   */\n      dup3\n        /* \"#utility.yul\":12238:12256   */\n      add\n        /* \"#utility.yul\":12230:12256   */\n      swap1\n      pop\n        /* \"#utility.yul\":12266:12337   */\n      tag_361\n        /* \"#utility.yul\":12334:12335   */\n      0x00\n        /* \"#utility.yul\":12323:12332   */\n      dup4\n        /* \"#utility.yul\":12319:12336   */\n      add\n        /* \"#utility.yul\":12310:12316   */\n      dup5\n        /* \"#utility.yul\":12266:12337   */\n      tag_265\n      jump\t// in\n    tag_361:\n        /* \"#utility.yul\":12220:12344   */\n      swap3\n      swap2\n      pop\n      pop\n      jump\t// out\n        /* \"#utility.yul\":12350:12773   */\n    tag_101:\n      0x00\n        /* \"#utility.yul\":12529:12531   */\n      0x40\n        /* \"#utility.yul\":12518:12527   */\n      dup3\n        /* \"#utility.yul\":12514:12532   */\n      add\n        /* \"#utility.yul\":12506:12532   */\n      swap1\n      pop\n        /* \"#utility.yul\":12542:12613   */\n      tag_363\n        /* \"#utility.yul\":12610:12611   */\n      0x00\n        /* \"#utility.yul\":12599:12608   */\n      dup4\n        /* \"#utility.yul\":12595:12612   */\n      add\n        /* \"#utility.yul\":12586:12592   */\n      dup6\n        /* \"#utility.yul\":12542:12613   */\n      tag_265\n      jump\t// in\n    tag_363:\n        /* \"#utility.yul\":12660:12669   */\n      dup2\n        /* \"#utility.yul\":12654:12658   */\n      dup2\n        /* \"#utility.yul\":12650:12670   */\n      sub\n        /* \"#utility.yul\":12645:12647   */\n      0x20\n        /* \"#utility.yul\":12634:12643   */\n      dup4\n        /* \"#utility.yul\":12630:12648   */\n      add\n        /* \"#utility.yul\":12623:12671   */\n      mstore\n        /* \"#utility.yul\":12688:12766   */\n      tag_364\n        /* \"#utility.yul\":12761:12765   */\n      dup2\n        /* \"#utility.yul\":12752:12758   */\n      dup5\n        /* \"#utility.yul\":12688:12766   */\n      tag_313\n      jump\t// in\n    tag_364:\n        /* \"#utility.yul\":12680:12766   */\n      swap1\n      pop\n        /* \"#utility.yul\":12496:12773   */\n      swap4\n      swap3\n      pop\n      pop\n      pop\n      jump\t// out\n        /* \"#utility.yul\":12779:13300   */\n    tag_50:\n      0x00\n        /* \"#utility.yul\":12980:12982   */\n      0x60\n        /* \"#utility.yul\":12969:12978   */\n      dup3\n        /* \"#utility.yul\":12965:12983   */\n      add\n        /* \"#utility.yul\":12957:12983   */\n      swap1\n      pop\n        /* \"#utility.yul\":12993:13064   */\n      tag_366\n        /* \"#utility.yul\":13061:13062   */\n      0x00\n        /* \"#utility.yul\":13050:13059   */\n      dup4\n        /* \"#utility.yul\":13046:13063   */\n      add\n        /* \"#utility.yul\":13037:13043   */\n      dup7\n        /* \"#utility.yul\":12993:13064   */\n      tag_265\n      jump\t// in\n    tag_366:\n        /* \"#utility.yul\":13111:13120   */\n      dup2\n        /* \"#utility.yul\":13105:13109   */\n      dup2\n        /* \"#utility.yul\":13101:13121   */\n      sub\n        /* \"#utility.yul\":13096:13098   */\n      0x20\n        /* \"#utility.yul\":13085:13094   */\n      dup4\n        /* \"#utility.yul\":13081:13099   */\n      add\n        /* \"#utility.yul\":13074:13122   */\n      mstore\n        /* \"#utility.yul\":13139:13217   */\n      tag_367\n        /* \"#utility.yul\":13212:13216   */\n      dup2\n        /* \"#utility.yul\":13203:13209   */\n      dup6\n        /* \"#utility.yul\":13139:13217   */\n      tag_313\n      jump\t// in\n    tag_367:\n        /* \"#utility.yul\":13131:13217   */\n      swap1\n      pop\n        /* \"#utility.yul\":13227:13293   */\n      tag_368\n        /* \"#utility.yul\":13289:13291   */\n      0x40\n        /* \"#utility.yul\":13278:13287   */\n      dup4\n        /* \"#utility.yul\":13274:13292   */\n      add\n        /* \"#utility.yul\":13265:13271   */\n      dup5\n        /* \"#utility.yul\":13227:13293   */\n      tag_300\n      jump\t// in\n    tag_368:\n        /* \"#utility.yul\":12947:13300   */\n      swap5\n      swap4\n      pop\n      pop\n      pop\n      pop\n      jump\t// out\n        /* \"#utility.yul\":13306:13930   */\n    tag_37:\n      0x00\n        /* \"#utility.yul\":13531:13534   */\n      0x80\n        /* \"#utility.yul\":13520:13529   */\n      dup3\n        /* \"#utility.yul\":13516:13535   */\n      add\n        /* \"#utility.yul\":13508:13535   */\n      swap1\n      pop\n        /* \"#utility.yul\":13545:13616   */\n      tag_370\n        /* \"#utility.yul\":13613:13614   */\n      0x00\n        /* \"#utility.yul\":13602:13611   */\n      dup4\n        /* \"#utility.yul\":13598:13615   */\n      add\n        /* \"#utility.yul\":13589:13595   */\n      dup8\n        /* \"#utility.yul\":13545:13616   */\n      tag_265\n      jump\t// in\n    tag_370:\n        /* \"#utility.yul\":13663:13672   */\n      dup2\n        /* \"#utility.yul\":13657:13661   */\n      dup2\n        /* \"#utility.yul\":13653:13673   */\n      sub\n        /* \"#utility.yul\":13648:13650   */\n      0x20\n        /* \"#utility.yul\":13637:13646   */\n      dup4\n        /* \"#utility.yul\":13633:13651   */\n      add\n        /* \"#utility.yul\":13626:13674   */\n      mstore\n        /* \"#utility.yul\":13691:13769   */\n      tag_371\n        /* \"#utility.yul\":13764:13768   */\n      dup2\n        /* \"#utility.yul\":13755:13761   */\n      dup7\n        /* \"#utility.yul\":13691:13769   */\n      tag_313\n      jump\t// in\n    tag_371:\n        /* \"#utility.yul\":13683:13769   */\n      swap1\n      pop\n        /* \"#utility.yul\":13779:13847   */\n      tag_372\n        /* \"#utility.yul\":13843:13845   */\n      0x40\n        /* \"#utility.yul\":13832:13841   */\n      dup4\n        /* \"#utility.yul\":13828:13846   */\n      add\n        /* \"#utility.yul\":13819:13825   */\n      dup6\n        /* \"#utility.yul\":13779:13847   */\n      tag_357\n      jump\t// in\n    tag_372:\n        /* \"#utility.yul\":13857:13923   */\n      tag_373\n        /* \"#utility.yul\":13919:13921   */\n      0x60\n        /* \"#utility.yul\":13908:13917   */\n      dup4\n        /* \"#utility.yul\":13904:13922   */\n      add\n        /* \"#utility.yul\":13895:13901   */\n      dup5\n        /* \"#utility.yul\":13857:13923   */\n      tag_300\n      jump\t// in\n    tag_373:\n        /* \"#utility.yul\":13498:13930   */\n      swap6\n      swap5\n      pop\n      pop\n      pop\n      pop\n      pop\n      jump\t// out\n        /* \"#utility.yul\":13936:14421   */\n    tag_59:\n      0x00\n        /* \"#utility.yul\":14173:14175   */\n      0x20\n        /* \"#utility.yul\":14162:14171   */\n      dup3\n        /* \"#utility.yul\":14158:14176   */\n      add\n        /* \"#utility.yul\":14150:14176   */\n      swap1\n      pop\n        /* \"#utility.yul\":14222:14231   */\n      dup2\n        /* \"#utility.yul\":14216:14220   */\n      dup2\n        /* \"#utility.yul\":14212:14232   */\n      sub\n        /* \"#utility.yul\":14208:14209   */\n      0x00\n        /* \"#utility.yul\":14197:14206   */\n      dup4\n        /* \"#utility.yul\":14193:14210   */\n      add\n        /* \"#utility.yul\":14186:14233   */\n      mstore\n        /* \"#utility.yul\":14250:14414   */\n      tag_375\n        /* \"#utility.yul\":14409:14413   */\n      dup2\n        /* \"#utility.yul\":14400:14406   */\n      dup5\n        /* \"#utility.yul\":14250:14414   */\n      tag_268\n      jump\t// in\n    tag_375:\n        /* \"#utility.yul\":14242:14414   */\n      swap1\n      pop\n        /* \"#utility.yul\":14140:14421   */\n      swap3\n      swap2\n      pop\n      pop\n      jump\t// out\n        /* \"#utility.yul\":14427:14892   */\n    tag_41:\n      0x00\n        /* \"#utility.yul\":14654:14656   */\n      0x20\n        /* \"#utility.yul\":14643:14652   */\n      dup3\n        /* \"#utility.yul\":14639:14657   */\n      add\n        /* \"#utility.yul\":14631:14657   */\n      swap1\n      pop\n        /* \"#utility.yul\":14703:14712   */\n      dup2\n        /* \"#utility.yul\":14697:14701   */\n      dup2\n        /* \"#utility.yul\":14693:14713   */\n      sub\n        /* \"#utility.yul\":14689:14690   */\n      0x00\n        /* \"#utility.yul\":14678:14687   */\n      dup4\n        /* \"#utility.yul\":14674:14691   */\n      add\n        /* \"#utility.yul\":14667:14714   */\n      mstore\n        /* \"#utility.yul\":14731:14885   */\n      tag_377\n        /* \"#utility.yul\":14880:14884   */\n      dup2\n        /* \"#utility.yul\":14871:14877   */\n      dup5\n        /* \"#utility.yul\":14731:14885   */\n      tag_282\n      jump\t// in\n    tag_377:\n        /* \"#utility.yul\":14723:14885   */\n      swap1\n      pop\n        /* \"#utility.yul\":14621:14892   */\n      swap3\n      swap2\n      pop\n      pop\n      jump\t// out\n        /* \"#utility.yul\":14898:15211   */\n    tag_64:\n      0x00\n        /* \"#utility.yul\":15049:15051   */\n      0x20\n        /* \"#utility.yul\":15038:15047   */\n      dup3\n        /* \"#utility.yul\":15034:15052   */\n      add\n        /* \"#utility.yul\":15026:15052   */\n      swap1\n      pop\n        /* \"#utility.yul\":15098:15107   */\n      dup2\n        /* \"#utility.yul\":15092:15096   */\n      dup2\n        /* \"#utility.yul\":15088:15108   */\n      sub\n        /* \"#utility.yul\":15084:15085   */\n      0x00\n        /* \"#utility.yul\":15073:15082   */\n      dup4\n        /* \"#utility.yul\":15069:15086   */\n      add\n        /* \"#utility.yul\":15062:15109   */\n      mstore\n        /* \"#utility.yul\":15126:15204   */\n      tag_379\n        /* \"#utility.yul\":15199:15203   */\n      dup2\n        /* \"#utility.yul\":15190:15196   */\n      dup5\n        /* \"#utility.yul\":15126:15204   */\n      tag_313\n      jump\t// in\n    tag_379:\n        /* \"#utility.yul\":15118:15204   */\n      swap1\n      pop\n        /* \"#utility.yul\":15016:15211   */\n      swap3\n      swap2\n      pop\n      pop\n      jump\t// out\n        /* \"#utility.yul\":15217:15636   */\n    tag_75:\n      0x00\n        /* \"#utility.yul\":15421:15423   */\n      0x20\n        /* \"#utility.yul\":15410:15419   */\n      dup3\n        /* \"#utility.yul\":15406:15424   */\n      add\n        /* \"#utility.yul\":15398:15424   */\n      swap1\n      pop\n        /* \"#utility.yul\":15470:15479   */\n      dup2\n        /* \"#utility.yul\":15464:15468   */\n      dup2\n        /* \"#utility.yul\":15460:15480   */\n      sub\n        /* \"#utility.yul\":15456:15457   */\n      0x00\n        /* \"#utility.yul\":15445:15454   */\n      dup4\n        /* \"#utility.yul\":15441:15458   */\n      add\n        /* \"#utility.yul\":15434:15481   */\n      mstore\n        /* \"#utility.yul\":15498:15629   */\n      tag_381\n        /* \"#utility.yul\":15624:15628   */\n      dup2\n        /* \"#utility.yul\":15498:15629   */\n      tag_320\n      jump\t// in\n    tag_381:\n        /* \"#utility.yul\":15490:15629   */\n      swap1\n      pop\n        /* \"#utility.yul\":15388:15636   */\n      swap2\n      swap1\n      pop\n      jump\t// out\n        /* \"#utility.yul\":15642:16061   */\n    tag_96:\n      0x00\n        /* \"#utility.yul\":15846:15848   */\n      0x20\n        /* \"#utility.yul\":15835:15844   */\n      dup3\n        /* \"#utility.yul\":15831:15849   */\n      add\n        /* \"#utility.yul\":15823:15849   */\n      swap1\n      pop\n        /* \"#utility.yul\":15895:15904   */\n      dup2\n        /* \"#utility.yul\":15889:15893   */\n      dup2\n        /* \"#utility.yul\":15885:15905   */\n      sub\n        /* \"#utility.yul\":15881:15882   */\n      0x00\n        /* \"#utility.yul\":15870:15879   */\n      dup4\n        /* \"#utility.yul\":15866:15883   */\n      add\n        /* \"#utility.yul\":15859:15906   */\n      mstore\n        /* \"#utility.yul\":15923:16054   */\n      tag_383\n        /* \"#utility.yul\":16049:16053   */\n      dup2\n        /* \"#utility.yul\":15923:16054   */\n      tag_323\n      jump\t// in\n    tag_383:\n        /* \"#utility.yul\":15915:16054   */\n      swap1\n      pop\n        /* \"#utility.yul\":15813:16061   */\n      swap2\n      swap1\n      pop\n      jump\t// out\n        /* \"#utility.yul\":16067:16486   */\n    tag_144:\n      0x00\n        /* \"#utility.yul\":16271:16273   */\n      0x20\n        /* \"#utility.yul\":16260:16269   */\n      dup3\n        /* \"#utility.yul\":16256:16274   */\n      add\n        /* \"#utility.yul\":16248:16274   */\n      swap1\n      pop\n        /* \"#utility.yul\":16320:16329   */\n      dup2\n        /* \"#utility.yul\":16314:16318   */\n      dup2\n        /* \"#utility.yul\":16310:16330   */\n      sub\n        /* \"#utility.yul\":16306:16307   */\n      0x00\n        /* \"#utility.yul\":16295:16304   */\n      dup4\n        /* \"#utility.yul\":16291:16308   */\n      add\n        /* \"#utility.yul\":16284:16331   */\n      mstore\n        /* \"#utility.yul\":16348:16479   */\n      tag_385\n        /* \"#utility.yul\":16474:16478   */\n      dup2\n        /* \"#utility.yul\":16348:16479   */\n      tag_326\n      jump\t// in\n    tag_385:\n        /* \"#utility.yul\":16340:16479   */\n      swap1\n      pop\n        /* \"#utility.yul\":16238:16486   */\n      swap2\n      swap1\n      pop\n      jump\t// out\n        /* \"#utility.yul\":16492:16911   */\n    tag_88:\n      0x00\n        /* \"#utility.yul\":16696:16698   */\n      0x20\n        /* \"#utility.yul\":16685:16694   */\n      dup3\n        /* \"#utility.yul\":16681:16699   */\n      add\n        /* \"#utility.yul\":16673:16699   */\n      swap1\n      pop\n        /* \"#utility.yul\":16745:16754   */\n      dup2\n        /* \"#utility.yul\":16739:16743   */\n      dup2\n        /* \"#utility.yul\":16735:16755   */\n      sub\n        /* \"#utility.yul\":16731:16732   */\n      0x00\n        /* \"#utility.yul\":16720:16729   */\n      dup4\n        /* \"#utility.yul\":16716:16733   */\n      add\n        /* \"#utility.yul\":16709:16756   */\n      mstore\n        /* \"#utility.yul\":16773:16904   */\n      tag_387\n        /* \"#utility.yul\":16899:16903   */\n      dup2\n        /* \"#utility.yul\":16773:16904   */\n      tag_329\n      jump\t// in\n    tag_387:\n        /* \"#utility.yul\":16765:16904   */\n      swap1\n      pop\n        /* \"#utility.yul\":16663:16911   */\n      swap2\n      swap1\n      pop\n      jump\t// out\n        /* \"#utility.yul\":16917:17336   */\n    tag_84:\n      0x00\n        /* \"#utility.yul\":17121:17123   */\n      0x20\n        /* \"#utility.yul\":17110:17119   */\n      dup3\n        /* \"#utility.yul\":17106:17124   */\n      add\n        /* \"#utility.yul\":17098:17124   */\n      swap1\n      pop\n        /* \"#utility.yul\":17170:17179   */\n      dup2\n        /* \"#utility.yul\":17164:17168   */\n      dup2\n        /* \"#utility.yul\":17160:17180   */\n      sub\n        /* \"#utility.yul\":17156:17157   */\n      0x00\n        /* \"#utility.yul\":17145:17154   */\n      dup4\n        /* \"#utility.yul\":17141:17158   */\n      add\n        /* \"#utility.yul\":17134:17181   */\n      mstore\n        /* \"#utility.yul\":17198:17329   */\n      tag_389\n        /* \"#utility.yul\":17324:17328   */\n      dup2\n        /* \"#utility.yul\":17198:17329   */\n      tag_332\n      jump\t// in\n    tag_389:\n        /* \"#utility.yul\":17190:17329   */\n      swap1\n      pop\n        /* \"#utility.yul\":17088:17336   */\n      swap2\n      swap1\n      pop\n      jump\t// out\n        /* \"#utility.yul\":17342:17761   */\n    tag_79:\n      0x00\n        /* \"#utility.yul\":17546:17548   */\n      0x20\n        /* \"#utility.yul\":17535:17544   */\n      dup3\n        /* \"#utility.yul\":17531:17549   */\n      add\n        /* \"#utility.yul\":17523:17549   */\n      swap1\n      pop\n        /* \"#utility.yul\":17595:17604   */\n      dup2\n        /* \"#utility.yul\":17589:17593   */\n      dup2\n        /* \"#utility.yul\":17585:17605   */\n      sub\n        /* \"#utility.yul\":17581:17582   */\n      0x00\n        /* \"#utility.yul\":17570:17579   */\n      dup4\n        /* \"#utility.yul\":17566:17583   */\n      add\n        /* \"#utility.yul\":17559:17606   */\n      mstore\n        /* \"#utility.yul\":17623:17754   */\n      tag_391\n        /* \"#utility.yul\":17749:17753   */\n      dup2\n        /* \"#utility.yul\":17623:17754   */\n      tag_335\n      jump\t// in\n    tag_391:\n        /* \"#utility.yul\":17615:17754   */\n      swap1\n      pop\n        /* \"#utility.yul\":17513:17761   */\n      swap2\n      swap1\n      pop\n      jump\t// out\n        /* \"#utility.yul\":17767:18132   */\n    tag_55:\n      0x00\n        /* \"#utility.yul\":17944:17946   */\n      0x20\n        /* \"#utility.yul\":17933:17942   */\n      dup3\n        /* \"#utility.yul\":17929:17947   */\n      add\n        /* \"#utility.yul\":17921:17947   */\n      swap1\n      pop\n        /* \"#utility.yul\":17993:18002   */\n      dup2\n        /* \"#utility.yul\":17987:17991   */\n      dup2\n        /* \"#utility.yul\":17983:18003   */\n      sub\n        /* \"#utility.yul\":17979:17980   */\n      0x00\n        /* \"#utility.yul\":17968:17977   */\n      dup4\n        /* \"#utility.yul\":17964:17981   */\n      add\n        /* \"#utility.yul\":17957:18004   */\n      mstore\n        /* \"#utility.yul\":18021:18125   */\n      tag_393\n        /* \"#utility.yul\":18120:18124   */\n      dup2\n        /* \"#utility.yul\":18111:18117   */\n      dup5\n        /* \"#utility.yul\":18021:18125   */\n      tag_348\n      jump\t// in\n    tag_393:\n        /* \"#utility.yul\":18013:18125   */\n      swap1\n      pop\n        /* \"#utility.yul\":17911:18132   */\n      swap3\n      swap2\n      pop\n      pop\n      jump\t// out\n        /* \"#utility.yul\":18138:18421   */\n    tag_216:\n      0x00\n        /* \"#utility.yul\":18204:18206   */\n      0x40\n        /* \"#utility.yul\":18198:18207   */\n      mload\n        /* \"#utility.yul\":18188:18207   */\n      swap1\n      pop\n        /* \"#utility.yul\":18246:18250   */\n      dup2\n        /* \"#utility.yul\":18238:18244   */\n      dup2\n        /* \"#utility.yul\":18234:18251   */\n      add\n        /* \"#utility.yul\":18353:18359   */\n      dup2\n        /* \"#utility.yul\":18341:18351   */\n      dup2\n        /* \"#utility.yul\":18338:18360   */\n      lt\n        /* \"#utility.yul\":18317:18335   */\n      0xffffffffffffffff\n        /* \"#utility.yul\":18305:18315   */\n      dup3\n        /* \"#utility.yul\":18302:18336   */\n      gt\n        /* \"#utility.yul\":18299:18361   */\n      or\n        /* \"#utility.yul\":18296:18298   */\n      iszero\n      tag_395\n      jumpi\n        /* \"#utility.yul\":18364:18382   */\n      tag_396\n      tag_397\n      jump\t// in\n    tag_396:\n        /* \"#utility.yul\":18296:18298   */\n    tag_395:\n        /* \"#utility.yul\":18404:18414   */\n      dup1\n        /* \"#utility.yul\":18400:18402   */\n      0x40\n        /* \"#utility.yul\":18393:18415   */\n      mstore\n        /* \"#utility.yul\":18178:18421   */\n      pop\n      swap2\n      swap1\n      pop\n      jump\t// out\n        /* \"#utility.yul\":18427:18759   */\n    tag_215:\n      0x00\n        /* \"#utility.yul\":18579:18597   */\n      0xffffffffffffffff\n        /* \"#utility.yul\":18571:18577   */\n      dup3\n        /* \"#utility.yul\":18568:18598   */\n      gt\n        /* \"#utility.yul\":18565:18567   */\n      iszero\n      tag_399\n      jumpi\n        /* \"#utility.yul\":18601:18619   */\n      tag_400\n      tag_397\n      jump\t// in\n    tag_400:\n        /* \"#utility.yul\":18565:18567   */\n    tag_399:\n        /* \"#utility.yul\":18686:18690   */\n      0x1f\n        /* \"#utility.yul\":18682:18691   */\n      not\n        /* \"#utility.yul\":18675:18679   */\n      0x1f\n        /* \"#utility.yul\":18667:18673   */\n      dup4\n        /* \"#utility.yul\":18663:18680   */\n      add\n        /* \"#utility.yul\":18659:18692   */\n      and\n        /* \"#utility.yul\":18651:18692   */\n      swap1\n      pop\n        /* \"#utility.yul\":18747:18751   */\n      0x20\n        /* \"#utility.yul\":18741:18745   */\n      dup2\n        /* \"#utility.yul\":18737:18752   */\n      add\n        /* \"#utility.yul\":18729:18752   */\n      swap1\n      pop\n        /* \"#utility.yul\":18494:18759   */\n      swap2\n      swap1\n      pop\n      jump\t// out\n        /* \"#utility.yul\":18765:18925   */\n    tag_275:\n      0x00\n        /* \"#utility.yul\":18883:18886   */\n      dup2\n        /* \"#utility.yul\":18875:18886   */\n      swap1\n      pop\n        /* \"#utility.yul\":18913:18917   */\n      0x20\n        /* \"#utility.yul\":18908:18911   */\n      dup3\n        /* \"#utility.yul\":18904:18918   */\n      add\n        /* \"#utility.yul\":18896:18918   */\n      swap1\n      pop\n        /* \"#utility.yul\":18865:18925   */\n      swap2\n      swap1\n      pop\n      jump\t// out\n        /* \"#utility.yul\":18931:19086   */\n    tag_289:\n      0x00\n        /* \"#utility.yul\":19044:19047   */\n      dup2\n        /* \"#utility.yul\":19036:19047   */\n      swap1\n      pop\n        /* \"#utility.yul\":19074:19078   */\n      0x20\n        /* \"#utility.yul\":19069:19072   */\n      dup3\n        /* \"#utility.yul\":19065:19079   */\n      add\n        /* \"#utility.yul\":19057:19079   */\n      swap1\n      pop\n        /* \"#utility.yul\":19026:19086   */\n      swap2\n      swap1\n      pop\n      jump\t// out\n        /* \"#utility.yul\":19092:19234   */\n    tag_271:\n      0x00\n        /* \"#utility.yul\":19221:19226   */\n      dup2\n        /* \"#utility.yul\":19215:19227   */\n      mload\n        /* \"#utility.yul\":19205:19227   */\n      swap1\n      pop\n        /* \"#utility.yul\":19194:19234   */\n      swap2\n      swap1\n      pop\n      jump\t// out\n        /* \"#utility.yul\":19240:19377   */\n    tag_285:\n      0x00\n        /* \"#utility.yul\":19364:19369   */\n      dup2\n        /* \"#utility.yul\":19358:19370   */\n      mload\n        /* \"#utility.yul\":19348:19370   */\n      swap1\n      pop\n        /* \"#utility.yul\":19337:19377   */\n      swap2\n      swap1\n      pop\n      jump\t// out\n        /* \"#utility.yul\":19383:19482   */\n    tag_306:\n      0x00\n        /* \"#utility.yul\":19469:19474   */\n      dup2\n        /* \"#utility.yul\":19463:19475   */\n      mload\n        /* \"#utility.yul\":19453:19475   */\n      swap1\n      pop\n        /* \"#utility.yul\":19442:19482   */\n      swap2\n      swap1\n      pop\n      jump\t// out\n        /* \"#utility.yul\":19488:19629   */\n    tag_281:\n      0x00\n        /* \"#utility.yul\":19618:19622   */\n      0x20\n        /* \"#utility.yul\":19613:19616   */\n      dup3\n        /* \"#utility.yul\":19609:19623   */\n      add\n        /* \"#utility.yul\":19601:19623   */\n      swap1\n      pop\n        /* \"#utility.yul\":19591:19629   */\n      swap2\n      swap1\n      pop\n      jump\t// out\n        /* \"#utility.yul\":19635:19771   */\n    tag_295:\n      0x00\n        /* \"#utility.yul\":19760:19764   */\n      0x20\n        /* \"#utility.yul\":19755:19758   */\n      dup3\n        /* \"#utility.yul\":19751:19765   */\n      add\n        /* \"#utility.yul\":19743:19765   */\n      swap1\n      pop\n        /* \"#utility.yul\":19733:19771   */\n      swap2\n      swap1\n      pop\n      jump\t// out\n        /* \"#utility.yul\":19777:19989   */\n    tag_273:\n      0x00\n        /* \"#utility.yul\":19938:19944   */\n      dup3\n        /* \"#utility.yul\":19933:19936   */\n      dup3\n        /* \"#utility.yul\":19926:19945   */\n      mstore\n        /* \"#utility.yul\":19978:19982   */\n      0x20\n        /* \"#utility.yul\":19973:19976   */\n      dup3\n        /* \"#utility.yul\":19969:19983   */\n      add\n        /* \"#utility.yul\":19954:19983   */\n      swap1\n      pop\n        /* \"#utility.yul\":19916:19989   */\n      swap3\n      swap2\n      pop\n      pop\n      jump\t// out\n        /* \"#utility.yul\":19995:20202   */\n    tag_287:\n      0x00\n        /* \"#utility.yul\":20151:20157   */\n      dup3\n        /* \"#utility.yul\":20146:20149   */\n      dup3\n        /* \"#utility.yul\":20139:20158   */\n      mstore\n        /* \"#utility.yul\":20191:20195   */\n      0x20\n        /* \"#utility.yul\":20186:20189   */\n      dup3\n        /* \"#utility.yul\":20182:20196   */\n      add\n        /* \"#utility.yul\":20167:20196   */\n      swap1\n      pop\n        /* \"#utility.yul\":20129:20202   */\n      swap3\n      swap2\n      pop\n      pop\n      jump\t// out\n        /* \"#utility.yul\":20208:20367   */\n    tag_308:\n      0x00\n        /* \"#utility.yul\":20316:20322   */\n      dup3\n        /* \"#utility.yul\":20311:20314   */\n      dup3\n        /* \"#utility.yul\":20304:20323   */\n      mstore\n        /* \"#utility.yul\":20356:20360   */\n      0x20\n        /* \"#utility.yul\":20351:20354   */\n      dup3\n        /* \"#utility.yul\":20347:20361   */\n      add\n        /* \"#utility.yul\":20332:20361   */\n      swap1\n      pop\n        /* \"#utility.yul\":20294:20367   */\n      swap3\n      swap2\n      pop\n      pop\n      jump\t// out\n        /* \"#utility.yul\":20373:20542   */\n    tag_317:\n      0x00\n        /* \"#utility.yul\":20491:20497   */\n      dup3\n        /* \"#utility.yul\":20486:20489   */\n      dup3\n        /* \"#utility.yul\":20479:20498   */\n      mstore\n        /* \"#utility.yul\":20531:20535   */\n      0x20\n        /* \"#utility.yul\":20526:20529   */\n      dup3\n        /* \"#utility.yul\":20522:20536   */\n      add\n        /* \"#utility.yul\":20507:20536   */\n      swap1\n      pop\n        /* \"#utility.yul\":20469:20542   */\n      swap3\n      swap2\n      pop\n      pop\n      jump\t// out\n        /* \"#utility.yul\":20548:20644   */\n    tag_264:\n      0x00\n        /* \"#utility.yul\":20614:20638   */\n      tag_413\n        /* \"#utility.yul\":20632:20637   */\n      dup3\n        /* \"#utility.yul\":20614:20638   */\n      tag_414\n      jump\t// in\n    tag_413:\n        /* \"#utility.yul\":20603:20638   */\n      swap1\n      pop\n        /* \"#utility.yul\":20593:20644   */\n      swap2\n      swap1\n      pop\n      jump\t// out\n        /* \"#utility.yul\":20650:20740   */\n    tag_299:\n      0x00\n        /* \"#utility.yul\":20727:20732   */\n      dup2\n        /* \"#utility.yul\":20720:20733   */\n      iszero\n        /* \"#utility.yul\":20713:20734   */\n      iszero\n        /* \"#utility.yul\":20702:20734   */\n      swap1\n      pop\n        /* \"#utility.yul\":20692:20740   */\n      swap2\n      swap1\n      pop\n      jump\t// out\n        /* \"#utility.yul\":20746:20835   */\n    tag_416:\n      0x00\n        /* \"#utility.yul\":20822:20828   */\n      0xffff\n        /* \"#utility.yul\":20815:20820   */\n      dup3\n        /* \"#utility.yul\":20811:20829   */\n      and\n        /* \"#utility.yul\":20800:20829   */\n      swap1\n      pop\n        /* \"#utility.yul\":20790:20835   */\n      swap2\n      swap1\n      pop\n      jump\t// out\n        /* \"#utility.yul\":20841:20967   */\n    tag_414:\n      0x00\n        /* \"#utility.yul\":20918:20960   */\n      0xffffffffffffffffffffffffffffffffffffffff\n        /* \"#utility.yul\":20911:20916   */\n      dup3\n        /* \"#utility.yul\":20907:20961   */\n      and\n        /* \"#utility.yul\":20896:20961   */\n      swap1\n      pop\n        /* \"#utility.yul\":20886:20967   */\n      swap2\n      swap1\n      pop\n      jump\t// out\n        /* \"#utility.yul\":20973:21050   */\n    tag_419:\n      0x00\n        /* \"#utility.yul\":21039:21044   */\n      dup2\n        /* \"#utility.yul\":21028:21044   */\n      swap1\n      pop\n        /* \"#utility.yul\":21018:21050   */\n      swap2\n      swap1\n      pop\n      jump\t// out\n        /* \"#utility.yul\":21056:21142   */\n    tag_356:\n      0x00\n        /* \"#utility.yul\":21131:21135   */\n      0xff\n        /* \"#utility.yul\":21124:21129   */\n      dup3\n        /* \"#utility.yul\":21120:21136   */\n      and\n        /* \"#utility.yul\":21109:21136   */\n      swap1\n      pop\n        /* \"#utility.yul\":21099:21142   */\n      swap2\n      swap1\n      pop\n      jump\t// out\n        /* \"#utility.yul\":21148:21302   */\n    tag_219:\n        /* \"#utility.yul\":21232:21238   */\n      dup3\n        /* \"#utility.yul\":21227:21230   */\n      dup2\n        /* \"#utility.yul\":21222:21225   */\n      dup4\n        /* \"#utility.yul\":21209:21239   */\n      calldatacopy\n        /* \"#utility.yul\":21294:21295   */\n      0x00\n        /* \"#utility.yul\":21285:21291   */\n      dup4\n        /* \"#utility.yul\":21280:21283   */\n      dup4\n        /* \"#utility.yul\":21276:21292   */\n      add\n        /* \"#utility.yul\":21269:21296   */\n      mstore\n        /* \"#utility.yul\":21199:21302   */\n      pop\n      pop\n      pop\n      jump\t// out\n        /* \"#utility.yul\":21308:21615   */\n    tag_310:\n        /* \"#utility.yul\":21376:21377   */\n      0x00\n        /* \"#utility.yul\":21386:21499   */\n    tag_424:\n        /* \"#utility.yul\":21400:21406   */\n      dup4\n        /* \"#utility.yul\":21397:21398   */\n      dup2\n        /* \"#utility.yul\":21394:21407   */\n      lt\n        /* \"#utility.yul\":21386:21499   */\n      iszero\n      tag_426\n      jumpi\n        /* \"#utility.yul\":21485:21486   */\n      dup1\n        /* \"#utility.yul\":21480:21483   */\n      dup3\n        /* \"#utility.yul\":21476:21487   */\n      add\n        /* \"#utility.yul\":21470:21488   */\n      mload\n        /* \"#utility.yul\":21466:21467   */\n      dup2\n        /* \"#utility.yul\":21461:21464   */\n      dup5\n        /* \"#utility.yul\":21457:21468   */\n      add\n        /* \"#utility.yul\":21450:21489   */\n      mstore\n        /* \"#utility.yul\":21422:21424   */\n      0x20\n        /* \"#utility.yul\":21419:21420   */\n      dup2\n        /* \"#utility.yul\":21415:21425   */\n      add\n        /* \"#utility.yul\":21410:21425   */\n      swap1\n      pop\n        /* \"#utility.yul\":21386:21499   */\n      jump(tag_424)\n    tag_426:\n        /* \"#utility.yul\":21517:21523   */\n      dup4\n        /* \"#utility.yul\":21514:21515   */\n      dup2\n        /* \"#utility.yul\":21511:21524   */\n      gt\n        /* \"#utility.yul\":21508:21510   */\n      iszero\n      tag_427\n      jumpi\n        /* \"#utility.yul\":21597:21598   */\n      0x00\n        /* \"#utility.yul\":21588:21594   */\n      dup5\n        /* \"#utility.yul\":21583:21586   */\n      dup5\n        /* \"#utility.yul\":21579:21595   */\n      add\n        /* \"#utility.yul\":21572:21599   */\n      mstore\n        /* \"#utility.yul\":21508:21510   */\n    tag_427:\n        /* \"#utility.yul\":21357:21615   */\n      pop\n      pop\n      pop\n      pop\n      jump\t// out\n        /* \"#utility.yul\":21621:21790   */\n    tag_134:\n      0x00\n        /* \"#utility.yul\":21682:21705   */\n      tag_429\n        /* \"#utility.yul\":21699:21704   */\n      dup3\n        /* \"#utility.yul\":21682:21705   */\n      tag_416\n      jump\t// in\n    tag_429:\n        /* \"#utility.yul\":21673:21705   */\n      swap2\n      pop\n        /* \"#utility.yul\":21727:21731   */\n      0x00\n        /* \"#utility.yul\":21720:21725   */\n      dup3\n        /* \"#utility.yul\":21717:21732   */\n      eq\n        /* \"#utility.yul\":21714:21716   */\n      iszero\n      tag_430\n      jumpi\n        /* \"#utility.yul\":21735:21753   */\n      tag_431\n      tag_432\n      jump\t// in\n    tag_431:\n        /* \"#utility.yul\":21714:21716   */\n    tag_430:\n        /* \"#utility.yul\":21782:21783   */\n      0x01\n        /* \"#utility.yul\":21775:21780   */\n      dup3\n        /* \"#utility.yul\":21771:21784   */\n      sub\n        /* \"#utility.yul\":21764:21784   */\n      swap1\n      pop\n        /* \"#utility.yul\":21663:21790   */\n      swap2\n      swap1\n      pop\n      jump\t// out\n        /* \"#utility.yul\":21796:21963   */\n    tag_187:\n      0x00\n        /* \"#utility.yul\":21856:21878   */\n      tag_434\n        /* \"#utility.yul\":21872:21877   */\n      dup3\n        /* \"#utility.yul\":21856:21878   */\n      tag_356\n      jump\t// in\n    tag_434:\n        /* \"#utility.yul\":21847:21878   */\n      swap2\n      pop\n        /* \"#utility.yul\":21900:21904   */\n      0x00\n        /* \"#utility.yul\":21893:21898   */\n      dup3\n        /* \"#utility.yul\":21890:21905   */\n      eq\n        /* \"#utility.yul\":21887:21889   */\n      iszero\n      tag_435\n      jumpi\n        /* \"#utility.yul\":21908:21926   */\n      tag_436\n      tag_432\n      jump\t// in\n    tag_436:\n        /* \"#utility.yul\":21887:21889   */\n    tag_435:\n        /* \"#utility.yul\":21955:21956   */\n      0x01\n        /* \"#utility.yul\":21948:21953   */\n      dup3\n        /* \"#utility.yul\":21944:21957   */\n      sub\n        /* \"#utility.yul\":21937:21957   */\n      swap1\n      pop\n        /* \"#utility.yul\":21837:21963   */\n      swap2\n      swap1\n      pop\n      jump\t// out\n        /* \"#utility.yul\":21969:22289   */\n    tag_103:\n      0x00\n        /* \"#utility.yul\":22050:22051   */\n      0x02\n        /* \"#utility.yul\":22044:22048   */\n      dup3\n        /* \"#utility.yul\":22040:22052   */\n      div\n        /* \"#utility.yul\":22030:22052   */\n      swap1\n      pop\n        /* \"#utility.yul\":22097:22098   */\n      0x01\n        /* \"#utility.yul\":22091:22095   */\n      dup3\n        /* \"#utility.yul\":22087:22099   */\n      and\n        /* \"#utility.yul\":22118:22136   */\n      dup1\n        /* \"#utility.yul\":22108:22110   */\n      tag_438\n      jumpi\n        /* \"#utility.yul\":22174:22178   */\n      0x7f\n        /* \"#utility.yul\":22166:22172   */\n      dup3\n        /* \"#utility.yul\":22162:22179   */\n      and\n        /* \"#utility.yul\":22152:22179   */\n      swap2\n      pop\n        /* \"#utility.yul\":22108:22110   */\n    tag_438:\n        /* \"#utility.yul\":22236:22238   */\n      0x20\n        /* \"#utility.yul\":22228:22234   */\n      dup3\n        /* \"#utility.yul\":22225:22239   */\n      lt\n        /* \"#utility.yul\":22205:22223   */\n      dup2\n        /* \"#utility.yul\":22202:22240   */\n      eq\n        /* \"#utility.yul\":22199:22201   */\n      iszero\n      tag_439\n      jumpi\n        /* \"#utility.yul\":22255:22273   */\n      tag_440\n      tag_441\n      jump\t// in\n    tag_440:\n        /* \"#utility.yul\":22199:22201   */\n    tag_439:\n        /* \"#utility.yul\":22020:22289   */\n      pop\n      swap2\n      swap1\n      pop\n      jump\t// out\n        /* \"#utility.yul\":22295:22466   */\n    tag_136:\n      0x00\n        /* \"#utility.yul\":22356:22379   */\n      tag_443\n        /* \"#utility.yul\":22373:22378   */\n      dup3\n        /* \"#utility.yul\":22356:22379   */\n      tag_416\n      jump\t// in\n    tag_443:\n        /* \"#utility.yul\":22347:22379   */\n      swap2\n      pop\n        /* \"#utility.yul\":22401:22407   */\n      0xffff\n        /* \"#utility.yul\":22394:22399   */\n      dup3\n        /* \"#utility.yul\":22391:22408   */\n      eq\n        /* \"#utility.yul\":22388:22390   */\n      iszero\n      tag_444\n      jumpi\n        /* \"#utility.yul\":22411:22429   */\n      tag_445\n      tag_432\n      jump\t// in\n    tag_445:\n        /* \"#utility.yul\":22388:22390   */\n    tag_444:\n        /* \"#utility.yul\":22458:22459   */\n      0x01\n        /* \"#utility.yul\":22451:22456   */\n      dup3\n        /* \"#utility.yul\":22447:22460   */\n      add\n        /* \"#utility.yul\":22440:22460   */\n      swap1\n      pop\n        /* \"#utility.yul\":22337:22466   */\n      swap2\n      swap1\n      pop\n      jump\t// out\n        /* \"#utility.yul\":22472:22639   */\n    tag_189:\n      0x00\n        /* \"#utility.yul\":22532:22554   */\n      tag_447\n        /* \"#utility.yul\":22548:22553   */\n      dup3\n        /* \"#utility.yul\":22532:22554   */\n      tag_356\n      jump\t// in\n    tag_447:\n        /* \"#utility.yul\":22523:22554   */\n      swap2\n      pop\n        /* \"#utility.yul\":22576:22580   */\n      0xff\n        /* \"#utility.yul\":22569:22574   */\n      dup3\n        /* \"#utility.yul\":22566:22581   */\n      eq\n        /* \"#utility.yul\":22563:22565   */\n      iszero\n      tag_448\n      jumpi\n        /* \"#utility.yul\":22584:22602   */\n      tag_449\n      tag_432\n      jump\t// in\n    tag_449:\n        /* \"#utility.yul\":22563:22565   */\n    tag_448:\n        /* \"#utility.yul\":22631:22632   */\n      0x01\n        /* \"#utility.yul\":22624:22629   */\n      dup3\n        /* \"#utility.yul\":22620:22633   */\n      add\n        /* \"#utility.yul\":22613:22633   */\n      swap1\n      pop\n        /* \"#utility.yul\":22513:22639   */\n      swap2\n      swap1\n      pop\n      jump\t// out\n        /* \"#utility.yul\":22645:22825   */\n    tag_432:\n        /* \"#utility.yul\":22693:22770   */\n      0x4e487b7100000000000000000000000000000000000000000000000000000000\n        /* \"#utility.yul\":22690:22691   */\n      0x00\n        /* \"#utility.yul\":22683:22771   */\n      mstore\n        /* \"#utility.yul\":22790:22794   */\n      0x11\n        /* \"#utility.yul\":22787:22788   */\n      0x04\n        /* \"#utility.yul\":22780:22795   */\n      mstore\n        /* \"#utility.yul\":22814:22818   */\n      0x24\n        /* \"#utility.yul\":22811:22812   */\n      0x00\n        /* \"#utility.yul\":22804:22819   */\n      revert\n        /* \"#utility.yul\":22831:23011   */\n    tag_441:\n        /* \"#utility.yul\":22879:22956   */\n      0x4e487b7100000000000000000000000000000000000000000000000000000000\n        /* \"#utility.yul\":22876:22877   */\n      0x00\n        /* \"#utility.yul\":22869:22957   */\n      mstore\n        /* \"#utility.yul\":22976:22980   */\n      0x22\n        /* \"#utility.yul\":22973:22974   */\n      0x04\n        /* \"#utility.yul\":22966:22981   */\n      mstore\n        /* \"#utility.yul\":23000:23004   */\n      0x24\n        /* \"#utility.yul\":22997:22998   */\n      0x00\n        /* \"#utility.yul\":22990:23005   */\n      revert\n        /* \"#utility.yul\":23017:23197   */\n    tag_397:\n        /* \"#utility.yul\":23065:23142   */\n      0x4e487b7100000000000000000000000000000000000000000000000000000000\n        /* \"#utility.yul\":23062:23063   */\n      0x00\n        /* \"#utility.yul\":23055:23143   */\n      mstore\n        /* \"#utility.yul\":23162:23166   */\n      0x41\n        /* \"#utility.yul\":23159:23160   */\n      0x04\n        /* \"#utility.yul\":23152:23167   */\n      mstore\n        /* \"#utility.yul\":23186:23190   */\n      0x24\n        /* \"#utility.yul\":23183:23184   */\n      0x00\n        /* \"#utility.yul\":23176:23191   */\n      revert\n        /* \"#utility.yul\":23203:23305   */\n    tag_312:\n      0x00\n        /* \"#utility.yul\":23295:23297   */\n      0x1f\n        /* \"#utility.yul\":23291:23298   */\n      not\n        /* \"#utility.yul\":23286:23288   */\n      0x1f\n        /* \"#utility.yul\":23279:23284   */\n      dup4\n        /* \"#utility.yul\":23275:23289   */\n      add\n        /* \"#utility.yul\":23271:23299   */\n      and\n        /* \"#utility.yul\":23261:23299   */\n      swap1\n      pop\n        /* \"#utility.yul\":23251:23305   */\n      swap2\n      swap1\n      pop\n      jump\t// out\n        /* \"#utility.yul\":23311:23433   */\n    tag_223:\n        /* \"#utility.yul\":23384:23408   */\n      tag_455\n        /* \"#utility.yul\":23402:23407   */\n      dup2\n        /* \"#utility.yul\":23384:23408   */\n      tag_264\n      jump\t// in\n    tag_455:\n        /* \"#utility.yul\":23377:23382   */\n      dup2\n        /* \"#utility.yul\":23374:23409   */\n      eq\n        /* \"#utility.yul\":23364:23366   */\n      tag_456\n      jumpi\n        /* \"#utility.yul\":23423:23424   */\n      0x00\n        /* \"#utility.yul\":23420:23421   */\n      dup1\n        /* \"#utility.yul\":23413:23425   */\n      revert\n        /* \"#utility.yul\":23364:23366   */\n    tag_456:\n        /* \"#utility.yul\":23354:23433   */\n      pop\n      jump\t// out\n        /* \"#utility.yul\":23439:23561   */\n    tag_231:\n        /* \"#utility.yul\":23512:23536   */\n      tag_458\n        /* \"#utility.yul\":23530:23535   */\n      dup2\n        /* \"#utility.yul\":23512:23536   */\n      tag_419\n      jump\t// in\n    tag_458:\n        /* \"#utility.yul\":23505:23510   */\n      dup2\n        /* \"#utility.yul\":23502:23537   */\n      eq\n        /* \"#utility.yul\":23492:23494   */\n      tag_459\n      jumpi\n        /* \"#utility.yul\":23551:23552   */\n      0x00\n        /* \"#utility.yul\":23548:23549   */\n      dup1\n        /* \"#utility.yul\":23541:23553   */\n      revert\n        /* \"#utility.yul\":23492:23494   */\n    tag_459:\n        /* \"#utility.yul\":23482:23561   */\n      pop\n      jump\t// out\n        /* \"#utility.yul\":23567:23685   */\n    tag_235:\n        /* \"#utility.yul\":23638:23660   */\n      tag_461\n        /* \"#utility.yul\":23654:23659   */\n      dup2\n        /* \"#utility.yul\":23638:23660   */\n      tag_356\n      jump\t// in\n    tag_461:\n        /* \"#utility.yul\":23631:23636   */\n      dup2\n        /* \"#utility.yul\":23628:23661   */\n      eq\n        /* \"#utility.yul\":23618:23620   */\n      tag_462\n      jumpi\n        /* \"#utility.yul\":23675:23676   */\n      0x00\n        /* \"#utility.yul\":23672:23673   */\n      dup1\n        /* \"#utility.yul\":23665:23677   */\n      revert\n        /* \"#utility.yul\":23618:23620   */\n    tag_462:\n        /* \"#utility.yul\":23608:23685   */\n      pop\n      jump\t// out\n\n    auxdata: 0xa26469706673582212209d33b4da88c3748ac621241ac59914f670c40ed6c30028775aa29e75c9582abb64736f6c63430008000033\n}\n",
				"bytecode": {
					"linkReferences": {},
					"object": "608060405234801561001057600080fd5b50336000806101000a81548173ffffffffffffffffffffffffffffffffffffffff021916908373ffffffffffffffffffffffffffffffffffffffff1602179055506127e4806100606000396000f3fe608060405234801561001057600080fd5b50600436106100b45760003560e01c80635922f385116100715780635922f3851461018e5780635ac34098146101aa5780638e12bf87146101dc578063966549e51461020c578063db096f251461022a578063f0963a111461025a576100b4565b80630a6c512c146100b95780630e768dbf146100e95780632bdaa8c9146101055780632eb728751461012157806340280a631461013d57806347c5886514610170575b600080fd5b6100d360048036038101906100ce9190611d1f565b61028a565b6040516100e0919061222e565b60405180910390f35b61010360048036038101906100fe9190611c3b565b6102c9565b005b61011f600480360381019061011a9190611c3b565b6104d2565b005b61013b60048036038101906101369190611c64565b610684565b005b61015760048036038101906101529190611c3b565b61093c565b60405161016794939291906122b7565b60405180910390f35b610178610a2e565b6040516101859190612325565b60405180910390f35b6101a860048036038101906101a39190611cb8565b610eac565b005b6101c460048036038101906101bf9190611c3b565b6111e6565b6040516101d393929190612279565b60405180910390f35b6101f660048036038101906101f19190611c3b565b6112c5565b6040516102039190612429565b60405180910390f35b6102146114cd565b6040516102219190612303565b60405180910390f35b610244600480360381019061023f9190611c3b565b6118d3565b6040516102519190612347565b60405180910390f35b610274600480360381019061026f9190611d1f565b611a36565b604051610281919061222e565b60405180910390f35b6001818154811061029a57600080fd5b906000526020600020016000915054906101000a900473ffffffffffffffffffffffffffffffffffffffff1681565b60008054906101000a900473ffffffffffffffffffffffffffffffffffffffff1673ffffffffffffffffffffffffffffffffffffffff163373ffffffffffffffffffffffffffffffffffffffff16148061036f5750600360003373ffffffffffffffffffffffffffffffffffffffff1673ffffffffffffffffffffffffffffffffffffffff16815260200190815260200160002060020160009054906101000a900460ff165b6103ae576040517f08c379a00000000000000000000000000000000000000000000000000000000081526004016103a590612369565b60405180910390fd5b600460008273ffffffffffffffffffffffffffffffffffffffff1673ffffffffffffffffffffffffffffffffffffffff16815260200190815260200160002060020160019054906101000a900460ff1661043d576040517f08c379a000000000000000000000000000000000000000000000000000000000815260040161043490612409565b60405180910390fd5b6000600460008373ffffffffffffffffffffffffffffffffffffffff1673ffffffffffffffffffffffffffffffffffffffff16815260200190815260200160002060020160016101000a81548160ff0219169083151502179055507fb132297e629aea39de2a0b95087d354abbad2860bc2dec703085f02ee09e372b816040516104c7919061222e565b60405180910390a150565b60008054906101000a900473ffffffffffffffffffffffffffffffffffffffff1673ffffffffffffffffffffffffffffffffffffffff163373ffffffffffffffffffffffffffffffffffffffff1614610560576040517f08c379a0000000000000000000000000000000000000000000000000000000008152600401610557906123e9565b60405180910390fd5b600360008273ffffffffffffffffffffffffffffffffffffffff1673ffffffffffffffffffffffffffffffffffffffff16815260200190815260200160002060020160009054906101000a900460ff166105ef576040517f08c379a00000000000000000000000000000000000000000000000000000000081526004016105e6906123c9565b60405180910390fd5b6000600360008373ffffffffffffffffffffffffffffffffffffffff1673ffffffffffffffffffffffffffffffffffffffff16815260200190815260200160002060020160006101000a81548160ff0219169083151502179055507f93d0e91b2385480f16c2e324398638f59df15184797653484a2e7a4d851540f181604051610679919061222e565b60405180910390a150565b60008054906101000a900473ffffffffffffffffffffffffffffffffffffffff1673ffffffffffffffffffffffffffffffffffffffff163373ffffffffffffffffffffffffffffffffffffffff1614610712576040517f08c379a0000000000000000000000000000000000000000000000000000000008152600401610709906123e9565b60405180910390fd5b600360008373ffffffffffffffffffffffffffffffffffffffff1673ffffffffffffffffffffffffffffffffffffffff16815260200190815260200160002060020160009054906101000a900460ff16156107a2576040517f08c379a000000000000000000000000000000000000000000000000000000000815260040161079990612389565b60405180910390fd5b60405180606001604052808373ffffffffffffffffffffffffffffffffffffffff16815260200182815260200160011515815250600360008473ffffffffffffffffffffffffffffffffffffffff1673ffffffffffffffffffffffffffffffffffffffff16815260200190815260200160002060008201518160000160006101000a81548173ffffffffffffffffffffffffffffffffffffffff021916908373ffffffffffffffffffffffffffffffffffffffff1602179055506020820151816001019080519060200190610878929190611a75565b5060408201518160020160006101000a81548160ff0219169083151502179055509050506001829080600181540180825580915050600190039060005260206000200160009091909190916101000a81548173ffffffffffffffffffffffffffffffffffffffff021916908373ffffffffffffffffffffffffffffffffffffffff1602179055507f51d926f521aa5bce4104e82a66580aa7251d9a3598bccb8ddf76febbff83576a8282604051610930929190612249565b60405180910390a15050565b60046020528060005260406000206000915090508060000160009054906101000a900473ffffffffffffffffffffffffffffffffffffffff169080600101805461098590612644565b80601f01602080910402602001604051908101604052809291908181526020018280546109b190612644565b80156109fe5780601f106109d3576101008083540402835291602001916109fe565b820191906000526020600020905b8154815290600101906020018083116109e157829003601f168201915b5050505050908060020160009054906101000a900460ff16908060020160019054906101000a900460ff16905084565b606060008054906101000a900473ffffffffffffffffffffffffffffffffffffffff1673ffffffffffffffffffffffffffffffffffffffff163373ffffffffffffffffffffffffffffffffffffffff161480610ad65750600360003373ffffffffffffffffffffffffffffffffffffffff1673ffffffffffffffffffffffffffffffffffffffff16815260200190815260200160002060020160009054906101000a900460ff165b610b15576040517f08c379a0000000000000000000000000000000000000000000000000000000008152600401610b0c90612369565b60405180910390fd5b60028054905067ffffffffffffffff811115610b5a577f4e487b7100000000000000000000000000000000000000000000000000000000600052604160045260246000fd5b604051908082528060200260200182016040528015610b9357816020015b610b80611afb565b815260200190600190039081610b785790505b50905060005b6002805490508161ffff161015610ea8576004600060028361ffff1681548110610bec577f4e487b7100000000000000000000000000000000000000000000000000000000600052603260045260246000fd5b9060005260206000200160009054906101000a900473ffffffffffffffffffffffffffffffffffffffff1673ffffffffffffffffffffffffffffffffffffffff1673ffffffffffffffffffffffffffffffffffffffff16815260200190815260200160002060020160019054906101000a900460ff1615610e86576004600060028361ffff1681548110610ca9577f4e487b7100000000000000000000000000000000000000000000000000000000600052603260045260246000fd5b9060005260206000200160009054906101000a900473ffffffffffffffffffffffffffffffffffffffff1673ffffffffffffffffffffffffffffffffffffffff1673ffffffffffffffffffffffffffffffffffffffff1681526020019081526020016000206040518060800160405290816000820160009054906101000a900473ffffffffffffffffffffffffffffffffffffffff1673ffffffffffffffffffffffffffffffffffffffff1673ffffffffffffffffffffffffffffffffffffffff168152602001600182018054610d7f90612644565b80601f0160208091040260200160405190810160405280929190818152602001828054610dab90612644565b8015610df85780601f10610dcd57610100808354040283529160200191610df8565b820191906000526020600020905b815481529060010190602001808311610ddb57829003601f168201915b505050505081526020016002820160009054906101000a900460ff1660ff1660ff1681526020016002820160019054906101000a900460ff161515151581525050828261ffff1681518110610e76577f4e487b7100000000000000000000000000000000000000000000000000000000600052603260045260246000fd5b6020026020010181905250610e95565b8080610e91906125f0565b9150505b8080610ea090612676565b915050610b99565b5090565b60008054906101000a900473ffffffffffffffffffffffffffffffffffffffff1673ffffffffffffffffffffffffffffffffffffffff163373ffffffffffffffffffffffffffffffffffffffff161480610f525750600360003373ffffffffffffffffffffffffffffffffffffffff1673ffffffffffffffffffffffffffffffffffffffff16815260200190815260200160002060020160009054906101000a900460ff165b610f91576040517f08c379a0000000000000000000000000000000000000000000000000000000008152600401610f8890612369565b60405180910390fd5b600460008473ffffffffffffffffffffffffffffffffffffffff1673ffffffffffffffffffffffffffffffffffffffff16815260200190815260200160002060020160019054906101000a900460ff1615611021576040517f08c379a0000000000000000000000000000000000000000000000000000000008152600401611018906123a9565b60405180910390fd5b60405180608001604052808473ffffffffffffffffffffffffffffffffffffffff1681526020018381526020018260ff16815260200160011515815250600460008573ffffffffffffffffffffffffffffffffffffffff1673ffffffffffffffffffffffffffffffffffffffff16815260200190815260200160002060008201518160000160006101000a81548173ffffffffffffffffffffffffffffffffffffffff021916908373ffffffffffffffffffffffffffffffffffffffff1602179055506020820151816001019080519060200190611100929190611a75565b5060408201518160020160006101000a81548160ff021916908360ff16021790555060608201518160020160016101000a81548160ff0219169083151502179055509050506002839080600181540180825580915050600190039060005260206000200160009091909190916101000a81548173ffffffffffffffffffffffffffffffffffffffff021916908373ffffffffffffffffffffffffffffffffffffffff1602179055507f6e3e05804c481790319a6706171e0354dbe5b600f1a3a8b4e12a70a2892f8d7d83836040516111d9929190612249565b60405180910390a1505050565b60036020528060005260406000206000915090508060000160009054906101000a900473ffffffffffffffffffffffffffffffffffffffff169080600101805461122f90612644565b80601f016020809104026020016040519081016040528092919081815260200182805461125b90612644565b80156112a85780601f1061127d576101008083540402835291602001916112a8565b820191906000526020600020905b81548152906001019060200180831161128b57829003601f168201915b5050505050908060020160009054906101000a900460ff16905083565b6112cd611afb565b600460008373ffffffffffffffffffffffffffffffffffffffff1673ffffffffffffffffffffffffffffffffffffffff16815260200190815260200160002060020160019054906101000a900460ff1661135c576040517f08c379a000000000000000000000000000000000000000000000000000000000815260040161135390612409565b60405180910390fd5b600460008373ffffffffffffffffffffffffffffffffffffffff1673ffffffffffffffffffffffffffffffffffffffff1681526020019081526020016000206040518060800160405290816000820160009054906101000a900473ffffffffffffffffffffffffffffffffffffffff1673ffffffffffffffffffffffffffffffffffffffff1673ffffffffffffffffffffffffffffffffffffffff16815260200160018201805461140c90612644565b80601f016020809104026020016040519081016040528092919081815260200182805461143890612644565b80156114855780601f1061145a57610100808354040283529160200191611485565b820191906000526020600020905b81548152906001019060200180831161146857829003601f168201915b505050505081526020016002820160009054906101000a900460ff1660ff1660ff1681526020016002820160019054906101000a900460ff1615151515815250509050919050565b606060008054906101000a900473ffffffffffffffffffffffffffffffffffffffff1673ffffffffffffffffffffffffffffffffffffffff163373ffffffffffffffffffffffffffffffffffffffff161461155d576040517f08c379a0000000000000000000000000000000000000000000000000000000008152600401611554906123e9565b60405180910390fd5b60018054905067ffffffffffffffff8111156115a2577f4e487b7100000000000000000000000000000000000000000000000000000000600052604160045260246000fd5b6040519080825280602002602001820160405280156115db57816020015b6115c8611b3e565b8152602001906001900390816115c05790505b50905060005b6001805490508160ff1610156118cf576003600060018360ff1681548110611632577f4e487b7100000000000000000000000000000000000000000000000000000000600052603260045260246000fd5b9060005260206000200160009054906101000a900473ffffffffffffffffffffffffffffffffffffffff1673ffffffffffffffffffffffffffffffffffffffff1673ffffffffffffffffffffffffffffffffffffffff16815260200190815260200160002060020160009054906101000a900460ff16156118ad576003600060018360ff16815481106116ee577f4e487b7100000000000000000000000000000000000000000000000000000000600052603260045260246000fd5b9060005260206000200160009054906101000a900473ffffffffffffffffffffffffffffffffffffffff1673ffffffffffffffffffffffffffffffffffffffff1673ffffffffffffffffffffffffffffffffffffffff1681526020019081526020016000206040518060600160405290816000820160009054906101000a900473ffffffffffffffffffffffffffffffffffffffff1673ffffffffffffffffffffffffffffffffffffffff1673ffffffffffffffffffffffffffffffffffffffff1681526020016001820180546117c490612644565b80601f01602080910402602001604051908101604052809291908181526020018280546117f090612644565b801561183d5780601f106118125761010080835404028352916020019161183d565b820191906000526020600020905b81548152906001019060200180831161182057829003601f168201915b505050505081526020016002820160009054906101000a900460ff161515151581525050828260ff168151811061189d577f4e487b7100000000000000000000000000000000000000000000000000000000600052603260045260246000fd5b60200260200101819052506118bc565b80806118b89061261a565b9150505b80806118c7906126a1565b9150506115e1565b5090565b6060600360008373ffffffffffffffffffffffffffffffffffffffff1673ffffffffffffffffffffffffffffffffffffffff16815260200190815260200160002060020160009054906101000a900460ff16611964576040517f08c379a000000000000000000000000000000000000000000000000000000000815260040161195b906123c9565b60405180910390fd5b600360008373ffffffffffffffffffffffffffffffffffffffff1673ffffffffffffffffffffffffffffffffffffffff16815260200190815260200160002060010180546119b190612644565b80601f01602080910402602001604051908101604052809291908181526020018280546119dd90612644565b8015611a2a5780601f106119ff57610100808354040283529160200191611a2a565b820191906000526020600020905b815481529060010190602001808311611a0d57829003601f168201915b50505050509050919050565b60028181548110611a4657600080fd5b906000526020600020016000915054906101000a900473ffffffffffffffffffffffffffffffffffffffff1681565b828054611a8190612644565b90600052602060002090601f016020900481019282611aa35760008555611aea565b82601f10611abc57805160ff1916838001178555611aea565b82800160010185558215611aea579182015b82811115611ae9578251825591602001919060010190611ace565b5b509050611af79190611b77565b5090565b6040518060800160405280600073ffffffffffffffffffffffffffffffffffffffff16815260200160608152602001600060ff1681526020016000151581525090565b6040518060600160405280600073ffffffffffffffffffffffffffffffffffffffff168152602001606081526020016000151581525090565b5b80821115611b90576000816000905550600101611b78565b5090565b6000611ba7611ba28461247c565b61244b565b905082815260208101848484011115611bbf57600080fd5b611bca8482856125ae565b509392505050565b600081359050611be181612769565b92915050565b600082601f830112611bf857600080fd5b8135611c08848260208601611b94565b91505092915050565b600081359050611c2081612780565b92915050565b600081359050611c3581612797565b92915050565b600060208284031215611c4d57600080fd5b6000611c5b84828501611bd2565b91505092915050565b60008060408385031215611c7757600080fd5b6000611c8585828601611bd2565b925050602083013567ffffffffffffffff811115611ca257600080fd5b611cae85828601611be7565b9150509250929050565b600080600060608486031215611ccd57600080fd5b6000611cdb86828701611bd2565b935050602084013567ffffffffffffffff811115611cf857600080fd5b611d0486828701611be7565b9250506040611d1586828701611c26565b9150509250925092565b600060208284031215611d3157600080fd5b6000611d3f84828501611c11565b91505092915050565b6000611d5483836120fa565b905092915050565b6000611d68838361214a565b905092915050565b611d798161254b565b82525050565b611d888161254b565b82525050565b6000611d99826124cc565b611da38185612507565b935083602082028501611db5856124ac565b8060005b85811015611df15784840389528151611dd28582611d48565b9450611ddd836124ed565b925060208a01995050600181019050611db9565b50829750879550505050505092915050565b6000611e0e826124d7565b611e188185612518565b935083602082028501611e2a856124bc565b8060005b85811015611e665784840389528151611e478582611d5c565b9450611e52836124fa565b925060208a01995050600181019050611e2e565b50829750879550505050505092915050565b611e818161255d565b82525050565b611e908161255d565b82525050565b6000611ea1826124e2565b611eab8185612529565b9350611ebb8185602086016125bd565b611ec481612758565b840191505092915050565b6000611eda826124e2565b611ee4818561253a565b9350611ef48185602086016125bd565b611efd81612758565b840191505092915050565b6000611f15603d8361253a565b91507f536f6c6f20656c204475656e6e6f206f2047756961732064652074757269737460008301527f6173207075656465207265616c697a6172206573746120616363696f6e0000006020830152604082019050919050565b6000611f7b60238361253a565b91507f477569612064652054757269737461732079612065737461207265676973747260008301527f61646f00000000000000000000000000000000000000000000000000000000006020830152604082019050919050565b6000611fe1601a8361253a565b91507f547572697374612079612065737461207265676973747261646f0000000000006000830152602082019050919050565b6000612021600e8361253a565b91507f47756961206e6f206578697374650000000000000000000000000000000000006000830152602082019050919050565b600061206160298361253a565b91507f536f6c6f20656c204475656e6e6f207075656465207265616c697a617220657360008301527f746120616363696f6e00000000000000000000000000000000000000000000006020830152604082019050919050565b60006120c760118361253a565b91507f54757269737461206e6f206578697374650000000000000000000000000000006000830152602082019050919050565b60006060830160008301516121126000860182611d70565b506020830151848203602086015261212a8282611e96565b915050604083015161213f6040860182611e78565b508091505092915050565b60006080830160008301516121626000860182611d70565b506020830151848203602086015261217a8282611e96565b915050604083015161218f6040860182612210565b5060608301516121a26060860182611e78565b508091505092915050565b60006080830160008301516121c56000860182611d70565b50602083015184820360208601526121dd8282611e96565b91505060408301516121f26040860182612210565b5060608301516122056060860182611e78565b508091505092915050565b612219816125a1565b82525050565b612228816125a1565b82525050565b60006020820190506122436000830184611d7f565b92915050565b600060408201905061225e6000830185611d7f565b81810360208301526122708184611ecf565b90509392505050565b600060608201905061228e6000830186611d7f565b81810360208301526122a08185611ecf565b90506122af6040830184611e87565b949350505050565b60006080820190506122cc6000830187611d7f565b81810360208301526122de8186611ecf565b90506122ed604083018561221f565b6122fa6060830184611e87565b95945050505050565b6000602082019050818103600083015261231d8184611d8e565b905092915050565b6000602082019050818103600083015261233f8184611e03565b905092915050565b600060208201905081810360008301526123618184611ecf565b905092915050565b6000602082019050818103600083015261238281611f08565b9050919050565b600060208201905081810360008301526123a281611f6e565b9050919050565b600060208201905081810360008301526123c281611fd4565b9050919050565b600060208201905081810360008301526123e281612014565b9050919050565b6000602082019050818103600083015261240281612054565b9050919050565b60006020820190508181036000830152612422816120ba565b9050919050565b6000602082019050818103600083015261244381846121ad565b905092915050565b6000604051905081810181811067ffffffffffffffff8211171561247257612471612729565b5b8060405250919050565b600067ffffffffffffffff82111561249757612496612729565b5b601f19601f8301169050602081019050919050565b6000819050602082019050919050565b6000819050602082019050919050565b600081519050919050565b600081519050919050565b600081519050919050565b6000602082019050919050565b6000602082019050919050565b600082825260208201905092915050565b600082825260208201905092915050565b600082825260208201905092915050565b600082825260208201905092915050565b600061255682612577565b9050919050565b60008115159050919050565b600061ffff82169050919050565b600073ffffffffffffffffffffffffffffffffffffffff82169050919050565b6000819050919050565b600060ff82169050919050565b82818337600083830152505050565b60005b838110156125db5780820151818401526020810190506125c0565b838111156125ea576000848401525b50505050565b60006125fb82612569565b9150600082141561260f5761260e6126cb565b5b600182039050919050565b6000612625826125a1565b91506000821415612639576126386126cb565b5b600182039050919050565b6000600282049050600182168061265c57607f821691505b602082108114156126705761266f6126fa565b5b50919050565b600061268182612569565b915061ffff821415612696576126956126cb565b5b600182019050919050565b60006126ac826125a1565b915060ff8214156126c0576126bf6126cb565b5b600182019050919050565b7f4e487b7100000000000000000000000000000000000000000000000000000000600052601160045260246000fd5b7f4e487b7100000000000000000000000000000000000000000000000000000000600052602260045260246000fd5b7f4e487b7100000000000000000000000000000000000000000000000000000000600052604160045260246000fd5b6000601f19601f8301169050919050565b6127728161254b565b811461277d57600080fd5b50565b61278981612597565b811461279457600080fd5b50565b6127a0816125a1565b81146127ab57600080fd5b5056fea26469706673582212209d33b4da88c3748ac621241ac59914f670c40ed6c30028775aa29e75c9582abb64736f6c63430008000033",
					"opcodes": "PUSH1 0x80 PUSH1 0x40 MSTORE CALLVALUE DUP1 ISZERO PUSH2 0x10 JUMPI PUSH1 0x0 DUP1 REVERT JUMPDEST POP CALLER PUSH1 0x0 DUP1 PUSH2 0x100 EXP DUP2 SLOAD DUP2 PUSH20 0xFFFFFFFFFFFFFFFFFFFFFFFFFFFFFFFFFFFFFFFF MUL NOT AND SWAP1 DUP4 PUSH20 0xFFFFFFFFFFFFFFFFFFFFFFFFFFFFFFFFFFFFFFFF AND MUL OR SWAP1 SSTORE POP PUSH2 0x27E4 DUP1 PUSH2 0x60 PUSH1 0x0 CODECOPY PUSH1 0x0 RETURN INVALID PUSH1 0x80 PUSH1 0x40 MSTORE CALLVALUE DUP1 ISZERO PUSH2 0x10 JUMPI PUSH1 0x0 DUP1 REVERT JUMPDEST POP PUSH1 0x4 CALLDATASIZE LT PUSH2 0xB4 JUMPI PUSH1 0x0 CALLDATALOAD PUSH1 0xE0 SHR DUP1 PUSH4 0x5922F385 GT PUSH2 0x71 JUMPI DUP1 PUSH4 0x5922F385 EQ PUSH2 0x18E JUMPI DUP1 PUSH4 0x5AC34098 EQ PUSH2 0x1AA JUMPI DUP1 PUSH4 0x8E12BF87 EQ PUSH2 0x1DC JUMPI DUP1 PUSH4 0x966549E5 EQ PUSH2 0x20C JUMPI DUP1 PUSH4 0xDB096F25 EQ PUSH2 0x22A JUMPI DUP1 PUSH4 0xF0963A11 EQ PUSH2 0x25A JUMPI PUSH2 0xB4 JUMP JUMPDEST DUP1 PUSH4 0xA6C512C EQ PUSH2 0xB9 JUMPI DUP1 PUSH4 0xE768DBF EQ PUSH2 0xE9 JUMPI DUP1 PUSH4 0x2BDAA8C9 EQ PUSH2 0x105 JUMPI DUP1 PUSH4 0x2EB72875 EQ PUSH2 0x121 JUMPI DUP1 PUSH4 0x40280A63 EQ PUSH2 0x13D JUMPI DUP1 PUSH4 0x47C58865 EQ PUSH2 0x170 JUMPI JUMPDEST PUSH1 0x0 DUP1 REVERT JUMPDEST PUSH2 0xD3 PUSH1 0x4 DUP1 CALLDATASIZE SUB DUP2 ADD SWAP1 PUSH2 0xCE SWAP2 SWAP1 PUSH2 0x1D1F JUMP JUMPDEST PUSH2 0x28A JUMP JUMPDEST PUSH1 0x40 MLOAD PUSH2 0xE0 SWAP2 SWAP1 PUSH2 0x222E JUMP JUMPDEST PUSH1 0x40 MLOAD DUP1 SWAP2 SUB SWAP1 RETURN JUMPDEST PUSH2 0x103 PUSH1 0x4 DUP1 CALLDATASIZE SUB DUP2 ADD SWAP1 PUSH2 0xFE SWAP2 SWAP1 PUSH2 0x1C3B JUMP JUMPDEST PUSH2 0x2C9 JUMP JUMPDEST STOP JUMPDEST PUSH2 0x11F PUSH1 0x4 DUP1 CALLDATASIZE SUB DUP2 ADD SWAP1 PUSH2 0x11A SWAP2 SWAP1 PUSH2 0x1C3B JUMP JUMPDEST PUSH2 0x4D2 JUMP JUMPDEST STOP JUMPDEST PUSH2 0x13B PUSH1 0x4 DUP1 CALLDATASIZE SUB DUP2 ADD SWAP1 PUSH2 0x136 SWAP2 SWAP1 PUSH2 0x1C64 JUMP JUMPDEST PUSH2 0x684 JUMP JUMPDEST STOP JUMPDEST PUSH2 0x157 PUSH1 0x4 DUP1 CALLDATASIZE SUB DUP2 ADD SWAP1 PUSH2 0x152 SWAP2 SWAP1 PUSH2 0x1C3B JUMP JUMPDEST PUSH2 0x93C JUMP JUMPDEST PUSH1 0x40 MLOAD PUSH2 0x167 SWAP5 SWAP4 SWAP3 SWAP2 SWAP1 PUSH2 0x22B7 JUMP JUMPDEST PUSH1 0x40 MLOAD DUP1 SWAP2 SUB SWAP1 RETURN JUMPDEST PUSH2 0x178 PUSH2 0xA2E JUMP JUMPDEST PUSH1 0x40 MLOAD PUSH2 0x185 SWAP2 SWAP1 PUSH2 0x2325 JUMP JUMPDEST PUSH1 0x40 MLOAD DUP1 SWAP2 SUB SWAP1 RETURN JUMPDEST PUSH2 0x1A8 PUSH1 0x4 DUP1 CALLDATASIZE SUB DUP2 ADD SWAP1 PUSH2 0x1A3 SWAP2 SWAP1 PUSH2 0x1CB8 JUMP JUMPDEST PUSH2 0xEAC JUMP JUMPDEST STOP JUMPDEST PUSH2 0x1C4 PUSH1 0x4 DUP1 CALLDATASIZE SUB DUP2 ADD SWAP1 PUSH2 0x1BF SWAP2 SWAP1 PUSH2 0x1C3B JUMP JUMPDEST PUSH2 0x11E6 JUMP JUMPDEST PUSH1 0x40 MLOAD PUSH2 0x1D3 SWAP4 SWAP3 SWAP2 SWAP1 PUSH2 0x2279 JUMP JUMPDEST PUSH1 0x40 MLOAD DUP1 SWAP2 SUB SWAP1 RETURN JUMPDEST PUSH2 0x1F6 PUSH1 0x4 DUP1 CALLDATASIZE SUB DUP2 ADD SWAP1 PUSH2 0x1F1 SWAP2 SWAP1 PUSH2 0x1C3B JUMP JUMPDEST PUSH2 0x12C5 JUMP JUMPDEST PUSH1 0x40 MLOAD PUSH2 0x203 SWAP2 SWAP1 PUSH2 0x2429 JUMP JUMPDEST PUSH1 0x40 MLOAD DUP1 SWAP2 SUB SWAP1 RETURN JUMPDEST PUSH2 0x214 PUSH2 0x14CD JUMP JUMPDEST PUSH1 0x40 MLOAD PUSH2 0x221 SWAP2 SWAP1 PUSH2 0x2303 JUMP JUMPDEST PUSH1 0x40 MLOAD DUP1 SWAP2 SUB SWAP1 RETURN JUMPDEST PUSH2 0x244 PUSH1 0x4 DUP1 CALLDATASIZE SUB DUP2 ADD SWAP1 PUSH2 0x23F SWAP2 SWAP1 PUSH2 0x1C3B JUMP JUMPDEST PUSH2 0x18D3 JUMP JUMPDEST PUSH1 0x40 MLOAD PUSH2 0x251 SWAP2 SWAP1 PUSH2 0x2347 JUMP JUMPDEST PUSH1 0x40 MLOAD DUP1 SWAP2 SUB SWAP1 RETURN JUMPDEST PUSH2 0x274 PUSH1 0x4 DUP1 CALLDATASIZE SUB DUP2 ADD SWAP1 PUSH2 0x26F SWAP2 SWAP1 PUSH2 0x1D1F JUMP JUMPDEST PUSH2 0x1A36 JUMP JUMPDEST PUSH1 0x40 MLOAD PUSH2 0x281 SWAP2 SWAP1 PUSH2 0x222E JUMP JUMPDEST PUSH1 0x40 MLOAD DUP1 SWAP2 SUB SWAP1 RETURN JUMPDEST PUSH1 0x1 DUP2 DUP2 SLOAD DUP2 LT PUSH2 0x29A JUMPI PUSH1 0x0 DUP1 REVERT JUMPDEST SWAP1 PUSH1 0x0 MSTORE PUSH1 0x20 PUSH1 0x0 KECCAK256 ADD PUSH1 0x0 SWAP2 POP SLOAD SWAP1 PUSH2 0x100 EXP SWAP1 DIV PUSH20 0xFFFFFFFFFFFFFFFFFFFFFFFFFFFFFFFFFFFFFFFF AND DUP2 JUMP JUMPDEST PUSH1 0x0 DUP1 SLOAD SWAP1 PUSH2 0x100 EXP SWAP1 DIV PUSH20 0xFFFFFFFFFFFFFFFFFFFFFFFFFFFFFFFFFFFFFFFF AND PUSH20 0xFFFFFFFFFFFFFFFFFFFFFFFFFFFFFFFFFFFFFFFF AND CALLER PUSH20 0xFFFFFFFFFFFFFFFFFFFFFFFFFFFFFFFFFFFFFFFF AND EQ DUP1 PUSH2 0x36F JUMPI POP PUSH1 0x3 PUSH1 0x0 CALLER PUSH20 0xFFFFFFFFFFFFFFFFFFFFFFFFFFFFFFFFFFFFFFFF AND PUSH20 0xFFFFFFFFFFFFFFFFFFFFFFFFFFFFFFFFFFFFFFFF AND DUP2 MSTORE PUSH1 0x20 ADD SWAP1 DUP2 MSTORE PUSH1 0x20 ADD PUSH1 0x0 KECCAK256 PUSH1 0x2 ADD PUSH1 0x0 SWAP1 SLOAD SWAP1 PUSH2 0x100 EXP SWAP1 DIV PUSH1 0xFF AND JUMPDEST PUSH2 0x3AE JUMPI PUSH1 0x40 MLOAD PUSH32 0x8C379A000000000000000000000000000000000000000000000000000000000 DUP2 MSTORE PUSH1 0x4 ADD PUSH2 0x3A5 SWAP1 PUSH2 0x2369 JUMP JUMPDEST PUSH1 0x40 MLOAD DUP1 SWAP2 SUB SWAP1 REVERT JUMPDEST PUSH1 0x4 PUSH1 0x0 DUP3 PUSH20 0xFFFFFFFFFFFFFFFFFFFFFFFFFFFFFFFFFFFFFFFF AND PUSH20 0xFFFFFFFFFFFFFFFFFFFFFFFFFFFFFFFFFFFFFFFF AND DUP2 MSTORE PUSH1 0x20 ADD SWAP1 DUP2 MSTORE PUSH1 0x20 ADD PUSH1 0x0 KECCAK256 PUSH1 0x2 ADD PUSH1 0x1 SWAP1 SLOAD SWAP1 PUSH2 0x100 EXP SWAP1 DIV PUSH1 0xFF AND PUSH2 0x43D JUMPI PUSH1 0x40 MLOAD PUSH32 0x8C379A000000000000000000000000000000000000000000000000000000000 DUP2 MSTORE PUSH1 0x4 ADD PUSH2 0x434 SWAP1 PUSH2 0x2409 JUMP JUMPDEST PUSH1 0x40 MLOAD DUP1 SWAP2 SUB SWAP1 REVERT JUMPDEST PUSH1 0x0 PUSH1 0x4 PUSH1 0x0 DUP4 PUSH20 0xFFFFFFFFFFFFFFFFFFFFFFFFFFFFFFFFFFFFFFFF AND PUSH20 0xFFFFFFFFFFFFFFFFFFFFFFFFFFFFFFFFFFFFFFFF AND DUP2 MSTORE PUSH1 0x20 ADD SWAP1 DUP2 MSTORE PUSH1 0x20 ADD PUSH1 0x0 KECCAK256 PUSH1 0x2 ADD PUSH1 0x1 PUSH2 0x100 EXP DUP2 SLOAD DUP2 PUSH1 0xFF MUL NOT AND SWAP1 DUP4 ISZERO ISZERO MUL OR SWAP1 SSTORE POP PUSH32 0xB132297E629AEA39DE2A0B95087D354ABBAD2860BC2DEC703085F02EE09E372B DUP2 PUSH1 0x40 MLOAD PUSH2 0x4C7 SWAP2 SWAP1 PUSH2 0x222E JUMP JUMPDEST PUSH1 0x40 MLOAD DUP1 SWAP2 SUB SWAP1 LOG1 POP JUMP JUMPDEST PUSH1 0x0 DUP1 SLOAD SWAP1 PUSH2 0x100 EXP SWAP1 DIV PUSH20 0xFFFFFFFFFFFFFFFFFFFFFFFFFFFFFFFFFFFFFFFF AND PUSH20 0xFFFFFFFFFFFFFFFFFFFFFFFFFFFFFFFFFFFFFFFF AND CALLER PUSH20 0xFFFFFFFFFFFFFFFFFFFFFFFFFFFFFFFFFFFFFFFF AND EQ PUSH2 0x560 JUMPI PUSH1 0x40 MLOAD PUSH32 0x8C379A000000000000000000000000000000000000000000000000000000000 DUP2 MSTORE PUSH1 0x4 ADD PUSH2 0x557 SWAP1 PUSH2 0x23E9 JUMP JUMPDEST PUSH1 0x40 MLOAD DUP1 SWAP2 SUB SWAP1 REVERT JUMPDEST PUSH1 0x3 PUSH1 0x0 DUP3 PUSH20 0xFFFFFFFFFFFFFFFFFFFFFFFFFFFFFFFFFFFFFFFF AND PUSH20 0xFFFFFFFFFFFFFFFFFFFFFFFFFFFFFFFFFFFFFFFF AND DUP2 MSTORE PUSH1 0x20 ADD SWAP1 DUP2 MSTORE PUSH1 0x20 ADD PUSH1 0x0 KECCAK256 PUSH1 0x2 ADD PUSH1 0x0 SWAP1 SLOAD SWAP1 PUSH2 0x100 EXP SWAP1 DIV PUSH1 0xFF AND PUSH2 0x5EF JUMPI PUSH1 0x40 MLOAD PUSH32 0x8C379A000000000000000000000000000000000000000000000000000000000 DUP2 MSTORE PUSH1 0x4 ADD PUSH2 0x5E6 SWAP1 PUSH2 0x23C9 JUMP JUMPDEST PUSH1 0x40 MLOAD DUP1 SWAP2 SUB SWAP1 REVERT JUMPDEST PUSH1 0x0 PUSH1 0x3 PUSH1 0x0 DUP4 PUSH20 0xFFFFFFFFFFFFFFFFFFFFFFFFFFFFFFFFFFFFFFFF AND PUSH20 0xFFFFFFFFFFFFFFFFFFFFFFFFFFFFFFFFFFFFFFFF AND DUP2 MSTORE PUSH1 0x20 ADD SWAP1 DUP2 MSTORE PUSH1 0x20 ADD PUSH1 0x0 KECCAK256 PUSH1 0x2 ADD PUSH1 0x0 PUSH2 0x100 EXP DUP2 SLOAD DUP2 PUSH1 0xFF MUL NOT AND SWAP1 DUP4 ISZERO ISZERO MUL OR SWAP1 SSTORE POP PUSH32 0x93D0E91B2385480F16C2E324398638F59DF15184797653484A2E7A4D851540F1 DUP2 PUSH1 0x40 MLOAD PUSH2 0x679 SWAP2 SWAP1 PUSH2 0x222E JUMP JUMPDEST PUSH1 0x40 MLOAD DUP1 SWAP2 SUB SWAP1 LOG1 POP JUMP JUMPDEST PUSH1 0x0 DUP1 SLOAD SWAP1 PUSH2 0x100 EXP SWAP1 DIV PUSH20 0xFFFFFFFFFFFFFFFFFFFFFFFFFFFFFFFFFFFFFFFF AND PUSH20 0xFFFFFFFFFFFFFFFFFFFFFFFFFFFFFFFFFFFFFFFF AND CALLER PUSH20 0xFFFFFFFFFFFFFFFFFFFFFFFFFFFFFFFFFFFFFFFF AND EQ PUSH2 0x712 JUMPI PUSH1 0x40 MLOAD PUSH32 0x8C379A000000000000000000000000000000000000000000000000000000000 DUP2 MSTORE PUSH1 0x4 ADD PUSH2 0x709 SWAP1 PUSH2 0x23E9 JUMP JUMPDEST PUSH1 0x40 MLOAD DUP1 SWAP2 SUB SWAP1 REVERT JUMPDEST PUSH1 0x3 PUSH1 0x0 DUP4 PUSH20 0xFFFFFFFFFFFFFFFFFFFFFFFFFFFFFFFFFFFFFFFF AND PUSH20 0xFFFFFFFFFFFFFFFFFFFFFFFFFFFFFFFFFFFFFFFF AND DUP2 MSTORE PUSH1 0x20 ADD SWAP1 DUP2 MSTORE PUSH1 0x20 ADD PUSH1 0x0 KECCAK256 PUSH1 0x2 ADD PUSH1 0x0 SWAP1 SLOAD SWAP1 PUSH2 0x100 EXP SWAP1 DIV PUSH1 0xFF AND ISZERO PUSH2 0x7A2 JUMPI PUSH1 0x40 MLOAD PUSH32 0x8C379A000000000000000000000000000000000000000000000000000000000 DUP2 MSTORE PUSH1 0x4 ADD PUSH2 0x799 SWAP1 PUSH2 0x2389 JUMP JUMPDEST PUSH1 0x40 MLOAD DUP1 SWAP2 SUB SWAP1 REVERT JUMPDEST PUSH1 0x40 MLOAD DUP1 PUSH1 0x60 ADD PUSH1 0x40 MSTORE DUP1 DUP4 PUSH20 0xFFFFFFFFFFFFFFFFFFFFFFFFFFFFFFFFFFFFFFFF AND DUP2 MSTORE PUSH1 0x20 ADD DUP3 DUP2 MSTORE PUSH1 0x20 ADD PUSH1 0x1 ISZERO ISZERO DUP2 MSTORE POP PUSH1 0x3 PUSH1 0x0 DUP5 PUSH20 0xFFFFFFFFFFFFFFFFFFFFFFFFFFFFFFFFFFFFFFFF AND PUSH20 0xFFFFFFFFFFFFFFFFFFFFFFFFFFFFFFFFFFFFFFFF AND DUP2 MSTORE PUSH1 0x20 ADD SWAP1 DUP2 MSTORE PUSH1 0x20 ADD PUSH1 0x0 KECCAK256 PUSH1 0x0 DUP3 ADD MLOAD DUP2 PUSH1 0x0 ADD PUSH1 0x0 PUSH2 0x100 EXP DUP2 SLOAD DUP2 PUSH20 0xFFFFFFFFFFFFFFFFFFFFFFFFFFFFFFFFFFFFFFFF MUL NOT AND SWAP1 DUP4 PUSH20 0xFFFFFFFFFFFFFFFFFFFFFFFFFFFFFFFFFFFFFFFF AND MUL OR SWAP1 SSTORE POP PUSH1 0x20 DUP3 ADD MLOAD DUP2 PUSH1 0x1 ADD SWAP1 DUP1 MLOAD SWAP1 PUSH1 0x20 ADD SWAP1 PUSH2 0x878 SWAP3 SWAP2 SWAP1 PUSH2 0x1A75 JUMP JUMPDEST POP PUSH1 0x40 DUP3 ADD MLOAD DUP2 PUSH1 0x2 ADD PUSH1 0x0 PUSH2 0x100 EXP DUP2 SLOAD DUP2 PUSH1 0xFF MUL NOT AND SWAP1 DUP4 ISZERO ISZERO MUL OR SWAP1 SSTORE POP SWAP1 POP POP PUSH1 0x1 DUP3 SWAP1 DUP1 PUSH1 0x1 DUP2 SLOAD ADD DUP1 DUP3 SSTORE DUP1 SWAP2 POP POP PUSH1 0x1 SWAP1 SUB SWAP1 PUSH1 0x0 MSTORE PUSH1 0x20 PUSH1 0x0 KECCAK256 ADD PUSH1 0x0 SWAP1 SWAP2 SWAP1 SWAP2 SWAP1 SWAP2 PUSH2 0x100 EXP DUP2 SLOAD DUP2 PUSH20 0xFFFFFFFFFFFFFFFFFFFFFFFFFFFFFFFFFFFFFFFF MUL NOT AND SWAP1 DUP4 PUSH20 0xFFFFFFFFFFFFFFFFFFFFFFFFFFFFFFFFFFFFFFFF AND MUL OR SWAP1 SSTORE POP PUSH32 0x51D926F521AA5BCE4104E82A66580AA7251D9A3598BCCB8DDF76FEBBFF83576A DUP3 DUP3 PUSH1 0x40 MLOAD PUSH2 0x930 SWAP3 SWAP2 SWAP1 PUSH2 0x2249 JUMP JUMPDEST PUSH1 0x40 MLOAD DUP1 SWAP2 SUB SWAP1 LOG1 POP POP JUMP JUMPDEST PUSH1 0x4 PUSH1 0x20 MSTORE DUP1 PUSH1 0x0 MSTORE PUSH1 0x40 PUSH1 0x0 KECCAK256 PUSH1 0x0 SWAP2 POP SWAP1 POP DUP1 PUSH1 0x0 ADD PUSH1 0x0 SWAP1 SLOAD SWAP1 PUSH2 0x100 EXP SWAP1 DIV PUSH20 0xFFFFFFFFFFFFFFFFFFFFFFFFFFFFFFFFFFFFFFFF AND SWAP1 DUP1 PUSH1 0x1 ADD DUP1 SLOAD PUSH2 0x985 SWAP1 PUSH2 0x2644 JUMP JUMPDEST DUP1 PUSH1 0x1F ADD PUSH1 0x20 DUP1 SWAP2 DIV MUL PUSH1 0x20 ADD PUSH1 0x40 MLOAD SWAP1 DUP2 ADD PUSH1 0x40 MSTORE DUP1 SWAP3 SWAP2 SWAP1 DUP2 DUP2 MSTORE PUSH1 0x20 ADD DUP3 DUP1 SLOAD PUSH2 0x9B1 SWAP1 PUSH2 0x2644 JUMP JUMPDEST DUP1 ISZERO PUSH2 0x9FE JUMPI DUP1 PUSH1 0x1F LT PUSH2 0x9D3 JUMPI PUSH2 0x100 DUP1 DUP4 SLOAD DIV MUL DUP4 MSTORE SWAP2 PUSH1 0x20 ADD SWAP2 PUSH2 0x9FE JUMP JUMPDEST DUP3 ADD SWAP2 SWAP1 PUSH1 0x0 MSTORE PUSH1 0x20 PUSH1 0x0 KECCAK256 SWAP1 JUMPDEST DUP2 SLOAD DUP2 MSTORE SWAP1 PUSH1 0x1 ADD SWAP1 PUSH1 0x20 ADD DUP1 DUP4 GT PUSH2 0x9E1 JUMPI DUP3 SWAP1 SUB PUSH1 0x1F AND DUP3 ADD SWAP2 JUMPDEST POP POP POP POP POP SWAP1 DUP1 PUSH1 0x2 ADD PUSH1 0x0 SWAP1 SLOAD SWAP1 PUSH2 0x100 EXP SWAP1 DIV PUSH1 0xFF AND SWAP1 DUP1 PUSH1 0x2 ADD PUSH1 0x1 SWAP1 SLOAD SWAP1 PUSH2 0x100 EXP SWAP1 DIV PUSH1 0xFF AND SWAP1 POP DUP5 JUMP JUMPDEST PUSH1 0x60 PUSH1 0x0 DUP1 SLOAD SWAP1 PUSH2 0x100 EXP SWAP1 DIV PUSH20 0xFFFFFFFFFFFFFFFFFFFFFFFFFFFFFFFFFFFFFFFF AND PUSH20 0xFFFFFFFFFFFFFFFFFFFFFFFFFFFFFFFFFFFFFFFF AND CALLER PUSH20 0xFFFFFFFFFFFFFFFFFFFFFFFFFFFFFFFFFFFFFFFF AND EQ DUP1 PUSH2 0xAD6 JUMPI POP PUSH1 0x3 PUSH1 0x0 CALLER PUSH20 0xFFFFFFFFFFFFFFFFFFFFFFFFFFFFFFFFFFFFFFFF AND PUSH20 0xFFFFFFFFFFFFFFFFFFFFFFFFFFFFFFFFFFFFFFFF AND DUP2 MSTORE PUSH1 0x20 ADD SWAP1 DUP2 MSTORE PUSH1 0x20 ADD PUSH1 0x0 KECCAK256 PUSH1 0x2 ADD PUSH1 0x0 SWAP1 SLOAD SWAP1 PUSH2 0x100 EXP SWAP1 DIV PUSH1 0xFF AND JUMPDEST PUSH2 0xB15 JUMPI PUSH1 0x40 MLOAD PUSH32 0x8C379A000000000000000000000000000000000000000000000000000000000 DUP2 MSTORE PUSH1 0x4 ADD PUSH2 0xB0C SWAP1 PUSH2 0x2369 JUMP JUMPDEST PUSH1 0x40 MLOAD DUP1 SWAP2 SUB SWAP1 REVERT JUMPDEST PUSH1 0x2 DUP1 SLOAD SWAP1 POP PUSH8 0xFFFFFFFFFFFFFFFF DUP2 GT ISZERO PUSH2 0xB5A JUMPI PUSH32 0x4E487B7100000000000000000000000000000000000000000000000000000000 PUSH1 0x0 MSTORE PUSH1 0x41 PUSH1 0x4 MSTORE PUSH1 0x24 PUSH1 0x0 REVERT JUMPDEST PUSH1 0x40 MLOAD SWAP1 DUP1 DUP3 MSTORE DUP1 PUSH1 0x20 MUL PUSH1 0x20 ADD DUP3 ADD PUSH1 0x40 MSTORE DUP1 ISZERO PUSH2 0xB93 JUMPI DUP2 PUSH1 0x20 ADD JUMPDEST PUSH2 0xB80 PUSH2 0x1AFB JUMP JUMPDEST DUP2 MSTORE PUSH1 0x20 ADD SWAP1 PUSH1 0x1 SWAP1 SUB SWAP1 DUP2 PUSH2 0xB78 JUMPI SWAP1 POP JUMPDEST POP SWAP1 POP PUSH1 0x0 JUMPDEST PUSH1 0x2 DUP1 SLOAD SWAP1 POP DUP2 PUSH2 0xFFFF AND LT ISZERO PUSH2 0xEA8 JUMPI PUSH1 0x4 PUSH1 0x0 PUSH1 0x2 DUP4 PUSH2 0xFFFF AND DUP2 SLOAD DUP2 LT PUSH2 0xBEC JUMPI PUSH32 0x4E487B7100000000000000000000000000000000000000000000000000000000 PUSH1 0x0 MSTORE PUSH1 0x32 PUSH1 0x4 MSTORE PUSH1 0x24 PUSH1 0x0 REVERT JUMPDEST SWAP1 PUSH1 0x0 MSTORE PUSH1 0x20 PUSH1 0x0 KECCAK256 ADD PUSH1 0x0 SWAP1 SLOAD SWAP1 PUSH2 0x100 EXP SWAP1 DIV PUSH20 0xFFFFFFFFFFFFFFFFFFFFFFFFFFFFFFFFFFFFFFFF AND PUSH20 0xFFFFFFFFFFFFFFFFFFFFFFFFFFFFFFFFFFFFFFFF AND PUSH20 0xFFFFFFFFFFFFFFFFFFFFFFFFFFFFFFFFFFFFFFFF AND DUP2 MSTORE PUSH1 0x20 ADD SWAP1 DUP2 MSTORE PUSH1 0x20 ADD PUSH1 0x0 KECCAK256 PUSH1 0x2 ADD PUSH1 0x1 SWAP1 SLOAD SWAP1 PUSH2 0x100 EXP SWAP1 DIV PUSH1 0xFF AND ISZERO PUSH2 0xE86 JUMPI PUSH1 0x4 PUSH1 0x0 PUSH1 0x2 DUP4 PUSH2 0xFFFF AND DUP2 SLOAD DUP2 LT PUSH2 0xCA9 JUMPI PUSH32 0x4E487B7100000000000000000000000000000000000000000000000000000000 PUSH1 0x0 MSTORE PUSH1 0x32 PUSH1 0x4 MSTORE PUSH1 0x24 PUSH1 0x0 REVERT JUMPDEST SWAP1 PUSH1 0x0 MSTORE PUSH1 0x20 PUSH1 0x0 KECCAK256 ADD PUSH1 0x0 SWAP1 SLOAD SWAP1 PUSH2 0x100 EXP SWAP1 DIV PUSH20 0xFFFFFFFFFFFFFFFFFFFFFFFFFFFFFFFFFFFFFFFF AND PUSH20 0xFFFFFFFFFFFFFFFFFFFFFFFFFFFFFFFFFFFFFFFF AND PUSH20 0xFFFFFFFFFFFFFFFFFFFFFFFFFFFFFFFFFFFFFFFF AND DUP2 MSTORE PUSH1 0x20 ADD SWAP1 DUP2 MSTORE PUSH1 0x20 ADD PUSH1 0x0 KECCAK256 PUSH1 0x40 MLOAD DUP1 PUSH1 0x80 ADD PUSH1 0x40 MSTORE SWAP1 DUP2 PUSH1 0x0 DUP3 ADD PUSH1 0x0 SWAP1 SLOAD SWAP1 PUSH2 0x100 EXP SWAP1 DIV PUSH20 0xFFFFFFFFFFFFFFFFFFFFFFFFFFFFFFFFFFFFFFFF AND PUSH20 0xFFFFFFFFFFFFFFFFFFFFFFFFFFFFFFFFFFFFFFFF AND PUSH20 0xFFFFFFFFFFFFFFFFFFFFFFFFFFFFFFFFFFFFFFFF AND DUP2 MSTORE PUSH1 0x20 ADD PUSH1 0x1 DUP3 ADD DUP1 SLOAD PUSH2 0xD7F SWAP1 PUSH2 0x2644 JUMP JUMPDEST DUP1 PUSH1 0x1F ADD PUSH1 0x20 DUP1 SWAP2 DIV MUL PUSH1 0x20 ADD PUSH1 0x40 MLOAD SWAP1 DUP2 ADD PUSH1 0x40 MSTORE DUP1 SWAP3 SWAP2 SWAP1 DUP2 DUP2 MSTORE PUSH1 0x20 ADD DUP3 DUP1 SLOAD PUSH2 0xDAB SWAP1 PUSH2 0x2644 JUMP JUMPDEST DUP1 ISZERO PUSH2 0xDF8 JUMPI DUP1 PUSH1 0x1F LT PUSH2 0xDCD JUMPI PUSH2 0x100 DUP1 DUP4 SLOAD DIV MUL DUP4 MSTORE SWAP2 PUSH1 0x20 ADD SWAP2 PUSH2 0xDF8 JUMP JUMPDEST DUP3 ADD SWAP2 SWAP1 PUSH1 0x0 MSTORE PUSH1 0x20 PUSH1 0x0 KECCAK256 SWAP1 JUMPDEST DUP2 SLOAD DUP2 MSTORE SWAP1 PUSH1 0x1 ADD SWAP1 PUSH1 0x20 ADD DUP1 DUP4 GT PUSH2 0xDDB JUMPI DUP3 SWAP1 SUB PUSH1 0x1F AND DUP3 ADD SWAP2 JUMPDEST POP POP POP POP POP DUP2 MSTORE PUSH1 0x20 ADD PUSH1 0x2 DUP3 ADD PUSH1 0x0 SWAP1 SLOAD SWAP1 PUSH2 0x100 EXP SWAP1 DIV PUSH1 0xFF AND PUSH1 0xFF AND PUSH1 0xFF AND DUP2 MSTORE PUSH1 0x20 ADD PUSH1 0x2 DUP3 ADD PUSH1 0x1 SWAP1 SLOAD SWAP1 PUSH2 0x100 EXP SWAP1 DIV PUSH1 0xFF AND ISZERO ISZERO ISZERO ISZERO DUP2 MSTORE POP POP DUP3 DUP3 PUSH2 0xFFFF AND DUP2 MLOAD DUP2 LT PUSH2 0xE76 JUMPI PUSH32 0x4E487B7100000000000000000000000000000000000000000000000000000000 PUSH1 0x0 MSTORE PUSH1 0x32 PUSH1 0x4 MSTORE PUSH1 0x24 PUSH1 0x0 REVERT JUMPDEST PUSH1 0x20 MUL PUSH1 0x20 ADD ADD DUP2 SWAP1 MSTORE POP PUSH2 0xE95 JUMP JUMPDEST DUP1 DUP1 PUSH2 0xE91 SWAP1 PUSH2 0x25F0 JUMP JUMPDEST SWAP2 POP POP JUMPDEST DUP1 DUP1 PUSH2 0xEA0 SWAP1 PUSH2 0x2676 JUMP JUMPDEST SWAP2 POP POP PUSH2 0xB99 JUMP JUMPDEST POP SWAP1 JUMP JUMPDEST PUSH1 0x0 DUP1 SLOAD SWAP1 PUSH2 0x100 EXP SWAP1 DIV PUSH20 0xFFFFFFFFFFFFFFFFFFFFFFFFFFFFFFFFFFFFFFFF AND PUSH20 0xFFFFFFFFFFFFFFFFFFFFFFFFFFFFFFFFFFFFFFFF AND CALLER PUSH20 0xFFFFFFFFFFFFFFFFFFFFFFFFFFFFFFFFFFFFFFFF AND EQ DUP1 PUSH2 0xF52 JUMPI POP PUSH1 0x3 PUSH1 0x0 CALLER PUSH20 0xFFFFFFFFFFFFFFFFFFFFFFFFFFFFFFFFFFFFFFFF AND PUSH20 0xFFFFFFFFFFFFFFFFFFFFFFFFFFFFFFFFFFFFFFFF AND DUP2 MSTORE PUSH1 0x20 ADD SWAP1 DUP2 MSTORE PUSH1 0x20 ADD PUSH1 0x0 KECCAK256 PUSH1 0x2 ADD PUSH1 0x0 SWAP1 SLOAD SWAP1 PUSH2 0x100 EXP SWAP1 DIV PUSH1 0xFF AND JUMPDEST PUSH2 0xF91 JUMPI PUSH1 0x40 MLOAD PUSH32 0x8C379A000000000000000000000000000000000000000000000000000000000 DUP2 MSTORE PUSH1 0x4 ADD PUSH2 0xF88 SWAP1 PUSH2 0x2369 JUMP JUMPDEST PUSH1 0x40 MLOAD DUP1 SWAP2 SUB SWAP1 REVERT JUMPDEST PUSH1 0x4 PUSH1 0x0 DUP5 PUSH20 0xFFFFFFFFFFFFFFFFFFFFFFFFFFFFFFFFFFFFFFFF AND PUSH20 0xFFFFFFFFFFFFFFFFFFFFFFFFFFFFFFFFFFFFFFFF AND DUP2 MSTORE PUSH1 0x20 ADD SWAP1 DUP2 MSTORE PUSH1 0x20 ADD PUSH1 0x0 KECCAK256 PUSH1 0x2 ADD PUSH1 0x1 SWAP1 SLOAD SWAP1 PUSH2 0x100 EXP SWAP1 DIV PUSH1 0xFF AND ISZERO PUSH2 0x1021 JUMPI PUSH1 0x40 MLOAD PUSH32 0x8C379A000000000000000000000000000000000000000000000000000000000 DUP2 MSTORE PUSH1 0x4 ADD PUSH2 0x1018 SWAP1 PUSH2 0x23A9 JUMP JUMPDEST PUSH1 0x40 MLOAD DUP1 SWAP2 SUB SWAP1 REVERT JUMPDEST PUSH1 0x40 MLOAD DUP1 PUSH1 0x80 ADD PUSH1 0x40 MSTORE DUP1 DUP5 PUSH20 0xFFFFFFFFFFFFFFFFFFFFFFFFFFFFFFFFFFFFFFFF AND DUP2 MSTORE PUSH1 0x20 ADD DUP4 DUP2 MSTORE PUSH1 0x20 ADD DUP3 PUSH1 0xFF AND DUP2 MSTORE PUSH1 0x20 ADD PUSH1 0x1 ISZERO ISZERO DUP2 MSTORE POP PUSH1 0x4 PUSH1 0x0 DUP6 PUSH20 0xFFFFFFFFFFFFFFFFFFFFFFFFFFFFFFFFFFFFFFFF AND PUSH20 0xFFFFFFFFFFFFFFFFFFFFFFFFFFFFFFFFFFFFFFFF AND DUP2 MSTORE PUSH1 0x20 ADD SWAP1 DUP2 MSTORE PUSH1 0x20 ADD PUSH1 0x0 KECCAK256 PUSH1 0x0 DUP3 ADD MLOAD DUP2 PUSH1 0x0 ADD PUSH1 0x0 PUSH2 0x100 EXP DUP2 SLOAD DUP2 PUSH20 0xFFFFFFFFFFFFFFFFFFFFFFFFFFFFFFFFFFFFFFFF MUL NOT AND SWAP1 DUP4 PUSH20 0xFFFFFFFFFFFFFFFFFFFFFFFFFFFFFFFFFFFFFFFF AND MUL OR SWAP1 SSTORE POP PUSH1 0x20 DUP3 ADD MLOAD DUP2 PUSH1 0x1 ADD SWAP1 DUP1 MLOAD SWAP1 PUSH1 0x20 ADD SWAP1 PUSH2 0x1100 SWAP3 SWAP2 SWAP1 PUSH2 0x1A75 JUMP JUMPDEST POP PUSH1 0x40 DUP3 ADD MLOAD DUP2 PUSH1 0x2 ADD PUSH1 0x0 PUSH2 0x100 EXP DUP2 SLOAD DUP2 PUSH1 0xFF MUL NOT AND SWAP1 DUP4 PUSH1 0xFF AND MUL OR SWAP1 SSTORE POP PUSH1 0x60 DUP3 ADD MLOAD DUP2 PUSH1 0x2 ADD PUSH1 0x1 PUSH2 0x100 EXP DUP2 SLOAD DUP2 PUSH1 0xFF MUL NOT AND SWAP1 DUP4 ISZERO ISZERO MUL OR SWAP1 SSTORE POP SWAP1 POP POP PUSH1 0x2 DUP4 SWAP1 DUP1 PUSH1 0x1 DUP2 SLOAD ADD DUP1 DUP3 SSTORE DUP1 SWAP2 POP POP PUSH1 0x1 SWAP1 SUB SWAP1 PUSH1 0x0 MSTORE PUSH1 0x20 PUSH1 0x0 KECCAK256 ADD PUSH1 0x0 SWAP1 SWAP2 SWAP1 SWAP2 SWAP1 SWAP2 PUSH2 0x100 EXP DUP2 SLOAD DUP2 PUSH20 0xFFFFFFFFFFFFFFFFFFFFFFFFFFFFFFFFFFFFFFFF MUL NOT AND SWAP1 DUP4 PUSH20 0xFFFFFFFFFFFFFFFFFFFFFFFFFFFFFFFFFFFFFFFF AND MUL OR SWAP1 SSTORE POP PUSH32 0x6E3E05804C481790319A6706171E0354DBE5B600F1A3A8B4E12A70A2892F8D7D DUP4 DUP4 PUSH1 0x40 MLOAD PUSH2 0x11D9 SWAP3 SWAP2 SWAP1 PUSH2 0x2249 JUMP JUMPDEST PUSH1 0x40 MLOAD DUP1 SWAP2 SUB SWAP1 LOG1 POP POP POP JUMP JUMPDEST PUSH1 0x3 PUSH1 0x20 MSTORE DUP1 PUSH1 0x0 MSTORE PUSH1 0x40 PUSH1 0x0 KECCAK256 PUSH1 0x0 SWAP2 POP SWAP1 POP DUP1 PUSH1 0x0 ADD PUSH1 0x0 SWAP1 SLOAD SWAP1 PUSH2 0x100 EXP SWAP1 DIV PUSH20 0xFFFFFFFFFFFFFFFFFFFFFFFFFFFFFFFFFFFFFFFF AND SWAP1 DUP1 PUSH1 0x1 ADD DUP1 SLOAD PUSH2 0x122F SWAP1 PUSH2 0x2644 JUMP JUMPDEST DUP1 PUSH1 0x1F ADD PUSH1 0x20 DUP1 SWAP2 DIV MUL PUSH1 0x20 ADD PUSH1 0x40 MLOAD SWAP1 DUP2 ADD PUSH1 0x40 MSTORE DUP1 SWAP3 SWAP2 SWAP1 DUP2 DUP2 MSTORE PUSH1 0x20 ADD DUP3 DUP1 SLOAD PUSH2 0x125B SWAP1 PUSH2 0x2644 JUMP JUMPDEST DUP1 ISZERO PUSH2 0x12A8 JUMPI DUP1 PUSH1 0x1F LT PUSH2 0x127D JUMPI PUSH2 0x100 DUP1 DUP4 SLOAD DIV MUL DUP4 MSTORE SWAP2 PUSH1 0x20 ADD SWAP2 PUSH2 0x12A8 JUMP JUMPDEST DUP3 ADD SWAP2 SWAP1 PUSH1 0x0 MSTORE PUSH1 0x20 PUSH1 0x0 KECCAK256 SWAP1 JUMPDEST DUP2 SLOAD DUP2 MSTORE SWAP1 PUSH1 0x1 ADD SWAP1 PUSH1 0x20 ADD DUP1 DUP4 GT PUSH2 0x128B JUMPI DUP3 SWAP1 SUB PUSH1 0x1F AND DUP3 ADD SWAP2 JUMPDEST POP POP POP POP POP SWAP1 DUP1 PUSH1 0x2 ADD PUSH1 0x0 SWAP1 SLOAD SWAP1 PUSH2 0x100 EXP SWAP1 DIV PUSH1 0xFF AND SWAP1 POP DUP4 JUMP JUMPDEST PUSH2 0x12CD PUSH2 0x1AFB JUMP JUMPDEST PUSH1 0x4 PUSH1 0x0 DUP4 PUSH20 0xFFFFFFFFFFFFFFFFFFFFFFFFFFFFFFFFFFFFFFFF AND PUSH20 0xFFFFFFFFFFFFFFFFFFFFFFFFFFFFFFFFFFFFFFFF AND DUP2 MSTORE PUSH1 0x20 ADD SWAP1 DUP2 MSTORE PUSH1 0x20 ADD PUSH1 0x0 KECCAK256 PUSH1 0x2 ADD PUSH1 0x1 SWAP1 SLOAD SWAP1 PUSH2 0x100 EXP SWAP1 DIV PUSH1 0xFF AND PUSH2 0x135C JUMPI PUSH1 0x40 MLOAD PUSH32 0x8C379A000000000000000000000000000000000000000000000000000000000 DUP2 MSTORE PUSH1 0x4 ADD PUSH2 0x1353 SWAP1 PUSH2 0x2409 JUMP JUMPDEST PUSH1 0x40 MLOAD DUP1 SWAP2 SUB SWAP1 REVERT JUMPDEST PUSH1 0x4 PUSH1 0x0 DUP4 PUSH20 0xFFFFFFFFFFFFFFFFFFFFFFFFFFFFFFFFFFFFFFFF AND PUSH20 0xFFFFFFFFFFFFFFFFFFFFFFFFFFFFFFFFFFFFFFFF AND DUP2 MSTORE PUSH1 0x20 ADD SWAP1 DUP2 MSTORE PUSH1 0x20 ADD PUSH1 0x0 KECCAK256 PUSH1 0x40 MLOAD DUP1 PUSH1 0x80 ADD PUSH1 0x40 MSTORE SWAP1 DUP2 PUSH1 0x0 DUP3 ADD PUSH1 0x0 SWAP1 SLOAD SWAP1 PUSH2 0x100 EXP SWAP1 DIV PUSH20 0xFFFFFFFFFFFFFFFFFFFFFFFFFFFFFFFFFFFFFFFF AND PUSH20 0xFFFFFFFFFFFFFFFFFFFFFFFFFFFFFFFFFFFFFFFF AND PUSH20 0xFFFFFFFFFFFFFFFFFFFFFFFFFFFFFFFFFFFFFFFF AND DUP2 MSTORE PUSH1 0x20 ADD PUSH1 0x1 DUP3 ADD DUP1 SLOAD PUSH2 0x140C SWAP1 PUSH2 0x2644 JUMP JUMPDEST DUP1 PUSH1 0x1F ADD PUSH1 0x20 DUP1 SWAP2 DIV MUL PUSH1 0x20 ADD PUSH1 0x40 MLOAD SWAP1 DUP2 ADD PUSH1 0x40 MSTORE DUP1 SWAP3 SWAP2 SWAP1 DUP2 DUP2 MSTORE PUSH1 0x20 ADD DUP3 DUP1 SLOAD PUSH2 0x1438 SWAP1 PUSH2 0x2644 JUMP JUMPDEST DUP1 ISZERO PUSH2 0x1485 JUMPI DUP1 PUSH1 0x1F LT PUSH2 0x145A JUMPI PUSH2 0x100 DUP1 DUP4 SLOAD DIV MUL DUP4 MSTORE SWAP2 PUSH1 0x20 ADD SWAP2 PUSH2 0x1485 JUMP JUMPDEST DUP3 ADD SWAP2 SWAP1 PUSH1 0x0 MSTORE PUSH1 0x20 PUSH1 0x0 KECCAK256 SWAP1 JUMPDEST DUP2 SLOAD DUP2 MSTORE SWAP1 PUSH1 0x1 ADD SWAP1 PUSH1 0x20 ADD DUP1 DUP4 GT PUSH2 0x1468 JUMPI DUP3 SWAP1 SUB PUSH1 0x1F AND DUP3 ADD SWAP2 JUMPDEST POP POP POP POP POP DUP2 MSTORE PUSH1 0x20 ADD PUSH1 0x2 DUP3 ADD PUSH1 0x0 SWAP1 SLOAD SWAP1 PUSH2 0x100 EXP SWAP1 DIV PUSH1 0xFF AND PUSH1 0xFF AND PUSH1 0xFF AND DUP2 MSTORE PUSH1 0x20 ADD PUSH1 0x2 DUP3 ADD PUSH1 0x1 SWAP1 SLOAD SWAP1 PUSH2 0x100 EXP SWAP1 DIV PUSH1 0xFF AND ISZERO ISZERO ISZERO ISZERO DUP2 MSTORE POP POP SWAP1 POP SWAP2 SWAP1 POP JUMP JUMPDEST PUSH1 0x60 PUSH1 0x0 DUP1 SLOAD SWAP1 PUSH2 0x100 EXP SWAP1 DIV PUSH20 0xFFFFFFFFFFFFFFFFFFFFFFFFFFFFFFFFFFFFFFFF AND PUSH20 0xFFFFFFFFFFFFFFFFFFFFFFFFFFFFFFFFFFFFFFFF AND CALLER PUSH20 0xFFFFFFFFFFFFFFFFFFFFFFFFFFFFFFFFFFFFFFFF AND EQ PUSH2 0x155D JUMPI PUSH1 0x40 MLOAD PUSH32 0x8C379A000000000000000000000000000000000000000000000000000000000 DUP2 MSTORE PUSH1 0x4 ADD PUSH2 0x1554 SWAP1 PUSH2 0x23E9 JUMP JUMPDEST PUSH1 0x40 MLOAD DUP1 SWAP2 SUB SWAP1 REVERT JUMPDEST PUSH1 0x1 DUP1 SLOAD SWAP1 POP PUSH8 0xFFFFFFFFFFFFFFFF DUP2 GT ISZERO PUSH2 0x15A2 JUMPI PUSH32 0x4E487B7100000000000000000000000000000000000000000000000000000000 PUSH1 0x0 MSTORE PUSH1 0x41 PUSH1 0x4 MSTORE PUSH1 0x24 PUSH1 0x0 REVERT JUMPDEST PUSH1 0x40 MLOAD SWAP1 DUP1 DUP3 MSTORE DUP1 PUSH1 0x20 MUL PUSH1 0x20 ADD DUP3 ADD PUSH1 0x40 MSTORE DUP1 ISZERO PUSH2 0x15DB JUMPI DUP2 PUSH1 0x20 ADD JUMPDEST PUSH2 0x15C8 PUSH2 0x1B3E JUMP JUMPDEST DUP2 MSTORE PUSH1 0x20 ADD SWAP1 PUSH1 0x1 SWAP1 SUB SWAP1 DUP2 PUSH2 0x15C0 JUMPI SWAP1 POP JUMPDEST POP SWAP1 POP PUSH1 0x0 JUMPDEST PUSH1 0x1 DUP1 SLOAD SWAP1 POP DUP2 PUSH1 0xFF AND LT ISZERO PUSH2 0x18CF JUMPI PUSH1 0x3 PUSH1 0x0 PUSH1 0x1 DUP4 PUSH1 0xFF AND DUP2 SLOAD DUP2 LT PUSH2 0x1632 JUMPI PUSH32 0x4E487B7100000000000000000000000000000000000000000000000000000000 PUSH1 0x0 MSTORE PUSH1 0x32 PUSH1 0x4 MSTORE PUSH1 0x24 PUSH1 0x0 REVERT JUMPDEST SWAP1 PUSH1 0x0 MSTORE PUSH1 0x20 PUSH1 0x0 KECCAK256 ADD PUSH1 0x0 SWAP1 SLOAD SWAP1 PUSH2 0x100 EXP SWAP1 DIV PUSH20 0xFFFFFFFFFFFFFFFFFFFFFFFFFFFFFFFFFFFFFFFF AND PUSH20 0xFFFFFFFFFFFFFFFFFFFFFFFFFFFFFFFFFFFFFFFF AND PUSH20 0xFFFFFFFFFFFFFFFFFFFFFFFFFFFFFFFFFFFFFFFF AND DUP2 MSTORE PUSH1 0x20 ADD SWAP1 DUP2 MSTORE PUSH1 0x20 ADD PUSH1 0x0 KECCAK256 PUSH1 0x2 ADD PUSH1 0x0 SWAP1 SLOAD SWAP1 PUSH2 0x100 EXP SWAP1 DIV PUSH1 0xFF AND ISZERO PUSH2 0x18AD JUMPI PUSH1 0x3 PUSH1 0x0 PUSH1 0x1 DUP4 PUSH1 0xFF AND DUP2 SLOAD DUP2 LT PUSH2 0x16EE JUMPI PUSH32 0x4E487B7100000000000000000000000000000000000000000000000000000000 PUSH1 0x0 MSTORE PUSH1 0x32 PUSH1 0x4 MSTORE PUSH1 0x24 PUSH1 0x0 REVERT JUMPDEST SWAP1 PUSH1 0x0 MSTORE PUSH1 0x20 PUSH1 0x0 KECCAK256 ADD PUSH1 0x0 SWAP1 SLOAD SWAP1 PUSH2 0x100 EXP SWAP1 DIV PUSH20 0xFFFFFFFFFFFFFFFFFFFFFFFFFFFFFFFFFFFFFFFF AND PUSH20 0xFFFFFFFFFFFFFFFFFFFFFFFFFFFFFFFFFFFFFFFF AND PUSH20 0xFFFFFFFFFFFFFFFFFFFFFFFFFFFFFFFFFFFFFFFF AND DUP2 MSTORE PUSH1 0x20 ADD SWAP1 DUP2 MSTORE PUSH1 0x20 ADD PUSH1 0x0 KECCAK256 PUSH1 0x40 MLOAD DUP1 PUSH1 0x60 ADD PUSH1 0x40 MSTORE SWAP1 DUP2 PUSH1 0x0 DUP3 ADD PUSH1 0x0 SWAP1 SLOAD SWAP1 PUSH2 0x100 EXP SWAP1 DIV PUSH20 0xFFFFFFFFFFFFFFFFFFFFFFFFFFFFFFFFFFFFFFFF AND PUSH20 0xFFFFFFFFFFFFFFFFFFFFFFFFFFFFFFFFFFFFFFFF AND PUSH20 0xFFFFFFFFFFFFFFFFFFFFFFFFFFFFFFFFFFFFFFFF AND DUP2 MSTORE PUSH1 0x20 ADD PUSH1 0x1 DUP3 ADD DUP1 SLOAD PUSH2 0x17C4 SWAP1 PUSH2 0x2644 JUMP JUMPDEST DUP1 PUSH1 0x1F ADD PUSH1 0x20 DUP1 SWAP2 DIV MUL PUSH1 0x20 ADD PUSH1 0x40 MLOAD SWAP1 DUP2 ADD PUSH1 0x40 MSTORE DUP1 SWAP3 SWAP2 SWAP1 DUP2 DUP2 MSTORE PUSH1 0x20 ADD DUP3 DUP1 SLOAD PUSH2 0x17F0 SWAP1 PUSH2 0x2644 JUMP JUMPDEST DUP1 ISZERO PUSH2 0x183D JUMPI DUP1 PUSH1 0x1F LT PUSH2 0x1812 JUMPI PUSH2 0x100 DUP1 DUP4 SLOAD DIV MUL DUP4 MSTORE SWAP2 PUSH1 0x20 ADD SWAP2 PUSH2 0x183D JUMP JUMPDEST DUP3 ADD SWAP2 SWAP1 PUSH1 0x0 MSTORE PUSH1 0x20 PUSH1 0x0 KECCAK256 SWAP1 JUMPDEST DUP2 SLOAD DUP2 MSTORE SWAP1 PUSH1 0x1 ADD SWAP1 PUSH1 0x20 ADD DUP1 DUP4 GT PUSH2 0x1820 JUMPI DUP3 SWAP1 SUB PUSH1 0x1F AND DUP3 ADD SWAP2 JUMPDEST POP POP POP POP POP DUP2 MSTORE PUSH1 0x20 ADD PUSH1 0x2 DUP3 ADD PUSH1 0x0 SWAP1 SLOAD SWAP1 PUSH2 0x100 EXP SWAP1 DIV PUSH1 0xFF AND ISZERO ISZERO ISZERO ISZERO DUP2 MSTORE POP POP DUP3 DUP3 PUSH1 0xFF AND DUP2 MLOAD DUP2 LT PUSH2 0x189D JUMPI PUSH32 0x4E487B7100000000000000000000000000000000000000000000000000000000 PUSH1 0x0 MSTORE PUSH1 0x32 PUSH1 0x4 MSTORE PUSH1 0x24 PUSH1 0x0 REVERT JUMPDEST PUSH1 0x20 MUL PUSH1 0x20 ADD ADD DUP2 SWAP1 MSTORE POP PUSH2 0x18BC JUMP JUMPDEST DUP1 DUP1 PUSH2 0x18B8 SWAP1 PUSH2 0x261A JUMP JUMPDEST SWAP2 POP POP JUMPDEST DUP1 DUP1 PUSH2 0x18C7 SWAP1 PUSH2 0x26A1 JUMP JUMPDEST SWAP2 POP POP PUSH2 0x15E1 JUMP JUMPDEST POP SWAP1 JUMP JUMPDEST PUSH1 0x60 PUSH1 0x3 PUSH1 0x0 DUP4 PUSH20 0xFFFFFFFFFFFFFFFFFFFFFFFFFFFFFFFFFFFFFFFF AND PUSH20 0xFFFFFFFFFFFFFFFFFFFFFFFFFFFFFFFFFFFFFFFF AND DUP2 MSTORE PUSH1 0x20 ADD SWAP1 DUP2 MSTORE PUSH1 0x20 ADD PUSH1 0x0 KECCAK256 PUSH1 0x2 ADD PUSH1 0x0 SWAP1 SLOAD SWAP1 PUSH2 0x100 EXP SWAP1 DIV PUSH1 0xFF AND PUSH2 0x1964 JUMPI PUSH1 0x40 MLOAD PUSH32 0x8C379A000000000000000000000000000000000000000000000000000000000 DUP2 MSTORE PUSH1 0x4 ADD PUSH2 0x195B SWAP1 PUSH2 0x23C9 JUMP JUMPDEST PUSH1 0x40 MLOAD DUP1 SWAP2 SUB SWAP1 REVERT JUMPDEST PUSH1 0x3 PUSH1 0x0 DUP4 PUSH20 0xFFFFFFFFFFFFFFFFFFFFFFFFFFFFFFFFFFFFFFFF AND PUSH20 0xFFFFFFFFFFFFFFFFFFFFFFFFFFFFFFFFFFFFFFFF AND DUP2 MSTORE PUSH1 0x20 ADD SWAP1 DUP2 MSTORE PUSH1 0x20 ADD PUSH1 0x0 KECCAK256 PUSH1 0x1 ADD DUP1 SLOAD PUSH2 0x19B1 SWAP1 PUSH2 0x2644 JUMP JUMPDEST DUP1 PUSH1 0x1F ADD PUSH1 0x20 DUP1 SWAP2 DIV MUL PUSH1 0x20 ADD PUSH1 0x40 MLOAD SWAP1 DUP2 ADD PUSH1 0x40 MSTORE DUP1 SWAP3 SWAP2 SWAP1 DUP2 DUP2 MSTORE PUSH1 0x20 ADD DUP3 DUP1 SLOAD PUSH2 0x19DD SWAP1 PUSH2 0x2644 JUMP JUMPDEST DUP1 ISZERO PUSH2 0x1A2A JUMPI DUP1 PUSH1 0x1F LT PUSH2 0x19FF JUMPI PUSH2 0x100 DUP1 DUP4 SLOAD DIV MUL DUP4 MSTORE SWAP2 PUSH1 0x20 ADD SWAP2 PUSH2 0x1A2A JUMP JUMPDEST DUP3 ADD SWAP2 SWAP1 PUSH1 0x0 MSTORE PUSH1 0x20 PUSH1 0x0 KECCAK256 SWAP1 JUMPDEST DUP2 SLOAD DUP2 MSTORE SWAP1 PUSH1 0x1 ADD SWAP1 PUSH1 0x20 ADD DUP1 DUP4 GT PUSH2 0x1A0D JUMPI DUP3 SWAP1 SUB PUSH1 0x1F AND DUP3 ADD SWAP2 JUMPDEST POP POP POP POP POP SWAP1 POP SWAP2 SWAP1 POP JUMP JUMPDEST PUSH1 0x2 DUP2 DUP2 SLOAD DUP2 LT PUSH2 0x1A46 JUMPI PUSH1 0x0 DUP1 REVERT JUMPDEST SWAP1 PUSH1 0x0 MSTORE PUSH1 0x20 PUSH1 0x0 KECCAK256 ADD PUSH1 0x0 SWAP2 POP SLOAD SWAP1 PUSH2 0x100 EXP SWAP1 DIV PUSH20 0xFFFFFFFFFFFFFFFFFFFFFFFFFFFFFFFFFFFFFFFF AND DUP2 JUMP JUMPDEST DUP3 DUP1 SLOAD PUSH2 0x1A81 SWAP1 PUSH2 0x2644 JUMP JUMPDEST SWAP1 PUSH1 0x0 MSTORE PUSH1 0x20 PUSH1 0x0 KECCAK256 SWAP1 PUSH1 0x1F ADD PUSH1 0x20 SWAP1 DIV DUP2 ADD SWAP3 DUP3 PUSH2 0x1AA3 JUMPI PUSH1 0x0 DUP6 SSTORE PUSH2 0x1AEA JUMP JUMPDEST DUP3 PUSH1 0x1F LT PUSH2 0x1ABC JUMPI DUP1 MLOAD PUSH1 0xFF NOT AND DUP4 DUP1 ADD OR DUP6 SSTORE PUSH2 0x1AEA JUMP JUMPDEST DUP3 DUP1 ADD PUSH1 0x1 ADD DUP6 SSTORE DUP3 ISZERO PUSH2 0x1AEA JUMPI SWAP2 DUP3 ADD JUMPDEST DUP3 DUP2 GT ISZERO PUSH2 0x1AE9 JUMPI DUP3 MLOAD DUP3 SSTORE SWAP2 PUSH1 0x20 ADD SWAP2 SWAP1 PUSH1 0x1 ADD SWAP1 PUSH2 0x1ACE JUMP JUMPDEST JUMPDEST POP SWAP1 POP PUSH2 0x1AF7 SWAP2 SWAP1 PUSH2 0x1B77 JUMP JUMPDEST POP SWAP1 JUMP JUMPDEST PUSH1 0x40 MLOAD DUP1 PUSH1 0x80 ADD PUSH1 0x40 MSTORE DUP1 PUSH1 0x0 PUSH20 0xFFFFFFFFFFFFFFFFFFFFFFFFFFFFFFFFFFFFFFFF AND DUP2 MSTORE PUSH1 0x20 ADD PUSH1 0x60 DUP2 MSTORE PUSH1 0x20 ADD PUSH1 0x0 PUSH1 0xFF AND DUP2 MSTORE PUSH1 0x20 ADD PUSH1 0x0 ISZERO ISZERO DUP2 MSTORE POP SWAP1 JUMP JUMPDEST PUSH1 0x40 MLOAD DUP1 PUSH1 0x60 ADD PUSH1 0x40 MSTORE DUP1 PUSH1 0x0 PUSH20 0xFFFFFFFFFFFFFFFFFFFFFFFFFFFFFFFFFFFFFFFF AND DUP2 MSTORE PUSH1 0x20 ADD PUSH1 0x60 DUP2 MSTORE PUSH1 0x20 ADD PUSH1 0x0 ISZERO ISZERO DUP2 MSTORE POP SWAP1 JUMP JUMPDEST JUMPDEST DUP1 DUP3 GT ISZERO PUSH2 0x1B90 JUMPI PUSH1 0x0 DUP2 PUSH1 0x0 SWAP1 SSTORE POP PUSH1 0x1 ADD PUSH2 0x1B78 JUMP JUMPDEST POP SWAP1 JUMP JUMPDEST PUSH1 0x0 PUSH2 0x1BA7 PUSH2 0x1BA2 DUP5 PUSH2 0x247C JUMP JUMPDEST PUSH2 0x244B JUMP JUMPDEST SWAP1 POP DUP3 DUP2 MSTORE PUSH1 0x20 DUP2 ADD DUP5 DUP5 DUP5 ADD GT ISZERO PUSH2 0x1BBF JUMPI PUSH1 0x0 DUP1 REVERT JUMPDEST PUSH2 0x1BCA DUP5 DUP3 DUP6 PUSH2 0x25AE JUMP JUMPDEST POP SWAP4 SWAP3 POP POP POP JUMP JUMPDEST PUSH1 0x0 DUP2 CALLDATALOAD SWAP1 POP PUSH2 0x1BE1 DUP2 PUSH2 0x2769 JUMP JUMPDEST SWAP3 SWAP2 POP POP JUMP JUMPDEST PUSH1 0x0 DUP3 PUSH1 0x1F DUP4 ADD SLT PUSH2 0x1BF8 JUMPI PUSH1 0x0 DUP1 REVERT JUMPDEST DUP2 CALLDATALOAD PUSH2 0x1C08 DUP5 DUP3 PUSH1 0x20 DUP7 ADD PUSH2 0x1B94 JUMP JUMPDEST SWAP2 POP POP SWAP3 SWAP2 POP POP JUMP JUMPDEST PUSH1 0x0 DUP2 CALLDATALOAD SWAP1 POP PUSH2 0x1C20 DUP2 PUSH2 0x2780 JUMP JUMPDEST SWAP3 SWAP2 POP POP JUMP JUMPDEST PUSH1 0x0 DUP2 CALLDATALOAD SWAP1 POP PUSH2 0x1C35 DUP2 PUSH2 0x2797 JUMP JUMPDEST SWAP3 SWAP2 POP POP JUMP JUMPDEST PUSH1 0x0 PUSH1 0x20 DUP3 DUP5 SUB SLT ISZERO PUSH2 0x1C4D JUMPI PUSH1 0x0 DUP1 REVERT JUMPDEST PUSH1 0x0 PUSH2 0x1C5B DUP5 DUP3 DUP6 ADD PUSH2 0x1BD2 JUMP JUMPDEST SWAP2 POP POP SWAP3 SWAP2 POP POP JUMP JUMPDEST PUSH1 0x0 DUP1 PUSH1 0x40 DUP4 DUP6 SUB SLT ISZERO PUSH2 0x1C77 JUMPI PUSH1 0x0 DUP1 REVERT JUMPDEST PUSH1 0x0 PUSH2 0x1C85 DUP6 DUP3 DUP7 ADD PUSH2 0x1BD2 JUMP JUMPDEST SWAP3 POP POP PUSH1 0x20 DUP4 ADD CALLDATALOAD PUSH8 0xFFFFFFFFFFFFFFFF DUP2 GT ISZERO PUSH2 0x1CA2 JUMPI PUSH1 0x0 DUP1 REVERT JUMPDEST PUSH2 0x1CAE DUP6 DUP3 DUP7 ADD PUSH2 0x1BE7 JUMP JUMPDEST SWAP2 POP POP SWAP3 POP SWAP3 SWAP1 POP JUMP JUMPDEST PUSH1 0x0 DUP1 PUSH1 0x0 PUSH1 0x60 DUP5 DUP7 SUB SLT ISZERO PUSH2 0x1CCD JUMPI PUSH1 0x0 DUP1 REVERT JUMPDEST PUSH1 0x0 PUSH2 0x1CDB DUP7 DUP3 DUP8 ADD PUSH2 0x1BD2 JUMP JUMPDEST SWAP4 POP POP PUSH1 0x20 DUP5 ADD CALLDATALOAD PUSH8 0xFFFFFFFFFFFFFFFF DUP2 GT ISZERO PUSH2 0x1CF8 JUMPI PUSH1 0x0 DUP1 REVERT JUMPDEST PUSH2 0x1D04 DUP7 DUP3 DUP8 ADD PUSH2 0x1BE7 JUMP JUMPDEST SWAP3 POP POP PUSH1 0x40 PUSH2 0x1D15 DUP7 DUP3 DUP8 ADD PUSH2 0x1C26 JUMP JUMPDEST SWAP2 POP POP SWAP3 POP SWAP3 POP SWAP3 JUMP JUMPDEST PUSH1 0x0 PUSH1 0x20 DUP3 DUP5 SUB SLT ISZERO PUSH2 0x1D31 JUMPI PUSH1 0x0 DUP1 REVERT JUMPDEST PUSH1 0x0 PUSH2 0x1D3F DUP5 DUP3 DUP6 ADD PUSH2 0x1C11 JUMP JUMPDEST SWAP2 POP POP SWAP3 SWAP2 POP POP JUMP JUMPDEST PUSH1 0x0 PUSH2 0x1D54 DUP4 DUP4 PUSH2 0x20FA JUMP JUMPDEST SWAP1 POP SWAP3 SWAP2 POP POP JUMP JUMPDEST PUSH1 0x0 PUSH2 0x1D68 DUP4 DUP4 PUSH2 0x214A JUMP JUMPDEST SWAP1 POP SWAP3 SWAP2 POP POP JUMP JUMPDEST PUSH2 0x1D79 DUP2 PUSH2 0x254B JUMP JUMPDEST DUP3 MSTORE POP POP JUMP JUMPDEST PUSH2 0x1D88 DUP2 PUSH2 0x254B JUMP JUMPDEST DUP3 MSTORE POP POP JUMP JUMPDEST PUSH1 0x0 PUSH2 0x1D99 DUP3 PUSH2 0x24CC JUMP JUMPDEST PUSH2 0x1DA3 DUP2 DUP6 PUSH2 0x2507 JUMP JUMPDEST SWAP4 POP DUP4 PUSH1 0x20 DUP3 MUL DUP6 ADD PUSH2 0x1DB5 DUP6 PUSH2 0x24AC JUMP JUMPDEST DUP1 PUSH1 0x0 JUMPDEST DUP6 DUP2 LT ISZERO PUSH2 0x1DF1 JUMPI DUP5 DUP5 SUB DUP10 MSTORE DUP2 MLOAD PUSH2 0x1DD2 DUP6 DUP3 PUSH2 0x1D48 JUMP JUMPDEST SWAP5 POP PUSH2 0x1DDD DUP4 PUSH2 0x24ED JUMP JUMPDEST SWAP3 POP PUSH1 0x20 DUP11 ADD SWAP10 POP POP PUSH1 0x1 DUP2 ADD SWAP1 POP PUSH2 0x1DB9 JUMP JUMPDEST POP DUP3 SWAP8 POP DUP8 SWAP6 POP POP POP POP POP POP SWAP3 SWAP2 POP POP JUMP JUMPDEST PUSH1 0x0 PUSH2 0x1E0E DUP3 PUSH2 0x24D7 JUMP JUMPDEST PUSH2 0x1E18 DUP2 DUP6 PUSH2 0x2518 JUMP JUMPDEST SWAP4 POP DUP4 PUSH1 0x20 DUP3 MUL DUP6 ADD PUSH2 0x1E2A DUP6 PUSH2 0x24BC JUMP JUMPDEST DUP1 PUSH1 0x0 JUMPDEST DUP6 DUP2 LT ISZERO PUSH2 0x1E66 JUMPI DUP5 DUP5 SUB DUP10 MSTORE DUP2 MLOAD PUSH2 0x1E47 DUP6 DUP3 PUSH2 0x1D5C JUMP JUMPDEST SWAP5 POP PUSH2 0x1E52 DUP4 PUSH2 0x24FA JUMP JUMPDEST SWAP3 POP PUSH1 0x20 DUP11 ADD SWAP10 POP POP PUSH1 0x1 DUP2 ADD SWAP1 POP PUSH2 0x1E2E JUMP JUMPDEST POP DUP3 SWAP8 POP DUP8 SWAP6 POP POP POP POP POP POP SWAP3 SWAP2 POP POP JUMP JUMPDEST PUSH2 0x1E81 DUP2 PUSH2 0x255D JUMP JUMPDEST DUP3 MSTORE POP POP JUMP JUMPDEST PUSH2 0x1E90 DUP2 PUSH2 0x255D JUMP JUMPDEST DUP3 MSTORE POP POP JUMP JUMPDEST PUSH1 0x0 PUSH2 0x1EA1 DUP3 PUSH2 0x24E2 JUMP JUMPDEST PUSH2 0x1EAB DUP2 DUP6 PUSH2 0x2529 JUMP JUMPDEST SWAP4 POP PUSH2 0x1EBB DUP2 DUP6 PUSH1 0x20 DUP7 ADD PUSH2 0x25BD JUMP JUMPDEST PUSH2 0x1EC4 DUP2 PUSH2 0x2758 JUMP JUMPDEST DUP5 ADD SWAP2 POP POP SWAP3 SWAP2 POP POP JUMP JUMPDEST PUSH1 0x0 PUSH2 0x1EDA DUP3 PUSH2 0x24E2 JUMP JUMPDEST PUSH2 0x1EE4 DUP2 DUP6 PUSH2 0x253A JUMP JUMPDEST SWAP4 POP PUSH2 0x1EF4 DUP2 DUP6 PUSH1 0x20 DUP7 ADD PUSH2 0x25BD JUMP JUMPDEST PUSH2 0x1EFD DUP2 PUSH2 0x2758 JUMP JUMPDEST DUP5 ADD SWAP2 POP POP SWAP3 SWAP2 POP POP JUMP JUMPDEST PUSH1 0x0 PUSH2 0x1F15 PUSH1 0x3D DUP4 PUSH2 0x253A JUMP JUMPDEST SWAP2 POP PUSH32 0x536F6C6F20656C204475656E6E6F206F20477569617320646520747572697374 PUSH1 0x0 DUP4 ADD MSTORE PUSH32 0x6173207075656465207265616C697A6172206573746120616363696F6E000000 PUSH1 0x20 DUP4 ADD MSTORE PUSH1 0x40 DUP3 ADD SWAP1 POP SWAP2 SWAP1 POP JUMP JUMPDEST PUSH1 0x0 PUSH2 0x1F7B PUSH1 0x23 DUP4 PUSH2 0x253A JUMP JUMPDEST SWAP2 POP PUSH32 0x4775696120646520547572697374617320796120657374612072656769737472 PUSH1 0x0 DUP4 ADD MSTORE PUSH32 0x61646F0000000000000000000000000000000000000000000000000000000000 PUSH1 0x20 DUP4 ADD MSTORE PUSH1 0x40 DUP3 ADD SWAP1 POP SWAP2 SWAP1 POP JUMP JUMPDEST PUSH1 0x0 PUSH2 0x1FE1 PUSH1 0x1A DUP4 PUSH2 0x253A JUMP JUMPDEST SWAP2 POP PUSH32 0x547572697374612079612065737461207265676973747261646F000000000000 PUSH1 0x0 DUP4 ADD MSTORE PUSH1 0x20 DUP3 ADD SWAP1 POP SWAP2 SWAP1 POP JUMP JUMPDEST PUSH1 0x0 PUSH2 0x2021 PUSH1 0xE DUP4 PUSH2 0x253A JUMP JUMPDEST SWAP2 POP PUSH32 0x47756961206E6F20657869737465000000000000000000000000000000000000 PUSH1 0x0 DUP4 ADD MSTORE PUSH1 0x20 DUP3 ADD SWAP1 POP SWAP2 SWAP1 POP JUMP JUMPDEST PUSH1 0x0 PUSH2 0x2061 PUSH1 0x29 DUP4 PUSH2 0x253A JUMP JUMPDEST SWAP2 POP PUSH32 0x536F6C6F20656C204475656E6E6F207075656465207265616C697A6172206573 PUSH1 0x0 DUP4 ADD MSTORE PUSH32 0x746120616363696F6E0000000000000000000000000000000000000000000000 PUSH1 0x20 DUP4 ADD MSTORE PUSH1 0x40 DUP3 ADD SWAP1 POP SWAP2 SWAP1 POP JUMP JUMPDEST PUSH1 0x0 PUSH2 0x20C7 PUSH1 0x11 DUP4 PUSH2 0x253A JUMP JUMPDEST SWAP2 POP PUSH32 0x54757269737461206E6F20657869737465000000000000000000000000000000 PUSH1 0x0 DUP4 ADD MSTORE PUSH1 0x20 DUP3 ADD SWAP1 POP SWAP2 SWAP1 POP JUMP JUMPDEST PUSH1 0x0 PUSH1 0x60 DUP4 ADD PUSH1 0x0 DUP4 ADD MLOAD PUSH2 0x2112 PUSH1 0x0 DUP7 ADD DUP3 PUSH2 0x1D70 JUMP JUMPDEST POP PUSH1 0x20 DUP4 ADD MLOAD DUP5 DUP3 SUB PUSH1 0x20 DUP7 ADD MSTORE PUSH2 0x212A DUP3 DUP3 PUSH2 0x1E96 JUMP JUMPDEST SWAP2 POP POP PUSH1 0x40 DUP4 ADD MLOAD PUSH2 0x213F PUSH1 0x40 DUP7 ADD DUP3 PUSH2 0x1E78 JUMP JUMPDEST POP DUP1 SWAP2 POP POP SWAP3 SWAP2 POP POP JUMP JUMPDEST PUSH1 0x0 PUSH1 0x80 DUP4 ADD PUSH1 0x0 DUP4 ADD MLOAD PUSH2 0x2162 PUSH1 0x0 DUP7 ADD DUP3 PUSH2 0x1D70 JUMP JUMPDEST POP PUSH1 0x20 DUP4 ADD MLOAD DUP5 DUP3 SUB PUSH1 0x20 DUP7 ADD MSTORE PUSH2 0x217A DUP3 DUP3 PUSH2 0x1E96 JUMP JUMPDEST SWAP2 POP POP PUSH1 0x40 DUP4 ADD MLOAD PUSH2 0x218F PUSH1 0x40 DUP7 ADD DUP3 PUSH2 0x2210 JUMP JUMPDEST POP PUSH1 0x60 DUP4 ADD MLOAD PUSH2 0x21A2 PUSH1 0x60 DUP7 ADD DUP3 PUSH2 0x1E78 JUMP JUMPDEST POP DUP1 SWAP2 POP POP SWAP3 SWAP2 POP POP JUMP JUMPDEST PUSH1 0x0 PUSH1 0x80 DUP4 ADD PUSH1 0x0 DUP4 ADD MLOAD PUSH2 0x21C5 PUSH1 0x0 DUP7 ADD DUP3 PUSH2 0x1D70 JUMP JUMPDEST POP PUSH1 0x20 DUP4 ADD MLOAD DUP5 DUP3 SUB PUSH1 0x20 DUP7 ADD MSTORE PUSH2 0x21DD DUP3 DUP3 PUSH2 0x1E96 JUMP JUMPDEST SWAP2 POP POP PUSH1 0x40 DUP4 ADD MLOAD PUSH2 0x21F2 PUSH1 0x40 DUP7 ADD DUP3 PUSH2 0x2210 JUMP JUMPDEST POP PUSH1 0x60 DUP4 ADD MLOAD PUSH2 0x2205 PUSH1 0x60 DUP7 ADD DUP3 PUSH2 0x1E78 JUMP JUMPDEST POP DUP1 SWAP2 POP POP SWAP3 SWAP2 POP POP JUMP JUMPDEST PUSH2 0x2219 DUP2 PUSH2 0x25A1 JUMP JUMPDEST DUP3 MSTORE POP POP JUMP JUMPDEST PUSH2 0x2228 DUP2 PUSH2 0x25A1 JUMP JUMPDEST DUP3 MSTORE POP POP JUMP JUMPDEST PUSH1 0x0 PUSH1 0x20 DUP3 ADD SWAP1 POP PUSH2 0x2243 PUSH1 0x0 DUP4 ADD DUP5 PUSH2 0x1D7F JUMP JUMPDEST SWAP3 SWAP2 POP POP JUMP JUMPDEST PUSH1 0x0 PUSH1 0x40 DUP3 ADD SWAP1 POP PUSH2 0x225E PUSH1 0x0 DUP4 ADD DUP6 PUSH2 0x1D7F JUMP JUMPDEST DUP2 DUP2 SUB PUSH1 0x20 DUP4 ADD MSTORE PUSH2 0x2270 DUP2 DUP5 PUSH2 0x1ECF JUMP JUMPDEST SWAP1 POP SWAP4 SWAP3 POP POP POP JUMP JUMPDEST PUSH1 0x0 PUSH1 0x60 DUP3 ADD SWAP1 POP PUSH2 0x228E PUSH1 0x0 DUP4 ADD DUP7 PUSH2 0x1D7F JUMP JUMPDEST DUP2 DUP2 SUB PUSH1 0x20 DUP4 ADD MSTORE PUSH2 0x22A0 DUP2 DUP6 PUSH2 0x1ECF JUMP JUMPDEST SWAP1 POP PUSH2 0x22AF PUSH1 0x40 DUP4 ADD DUP5 PUSH2 0x1E87 JUMP JUMPDEST SWAP5 SWAP4 POP POP POP POP JUMP JUMPDEST PUSH1 0x0 PUSH1 0x80 DUP3 ADD SWAP1 POP PUSH2 0x22CC PUSH1 0x0 DUP4 ADD DUP8 PUSH2 0x1D7F JUMP JUMPDEST DUP2 DUP2 SUB PUSH1 0x20 DUP4 ADD MSTORE PUSH2 0x22DE DUP2 DUP7 PUSH2 0x1ECF JUMP JUMPDEST SWAP1 POP PUSH2 0x22ED PUSH1 0x40 DUP4 ADD DUP6 PUSH2 0x221F JUMP JUMPDEST PUSH2 0x22FA PUSH1 0x60 DUP4 ADD DUP5 PUSH2 0x1E87 JUMP JUMPDEST SWAP6 SWAP5 POP POP POP POP POP JUMP JUMPDEST PUSH1 0x0 PUSH1 0x20 DUP3 ADD SWAP1 POP DUP2 DUP2 SUB PUSH1 0x0 DUP4 ADD MSTORE PUSH2 0x231D DUP2 DUP5 PUSH2 0x1D8E JUMP JUMPDEST SWAP1 POP SWAP3 SWAP2 POP POP JUMP JUMPDEST PUSH1 0x0 PUSH1 0x20 DUP3 ADD SWAP1 POP DUP2 DUP2 SUB PUSH1 0x0 DUP4 ADD MSTORE PUSH2 0x233F DUP2 DUP5 PUSH2 0x1E03 JUMP JUMPDEST SWAP1 POP SWAP3 SWAP2 POP POP JUMP JUMPDEST PUSH1 0x0 PUSH1 0x20 DUP3 ADD SWAP1 POP DUP2 DUP2 SUB PUSH1 0x0 DUP4 ADD MSTORE PUSH2 0x2361 DUP2 DUP5 PUSH2 0x1ECF JUMP JUMPDEST SWAP1 POP SWAP3 SWAP2 POP POP JUMP JUMPDEST PUSH1 0x0 PUSH1 0x20 DUP3 ADD SWAP1 POP DUP2 DUP2 SUB PUSH1 0x0 DUP4 ADD MSTORE PUSH2 0x2382 DUP2 PUSH2 0x1F08 JUMP JUMPDEST SWAP1 POP SWAP2 SWAP1 POP JUMP JUMPDEST PUSH1 0x0 PUSH1 0x20 DUP3 ADD SWAP1 POP DUP2 DUP2 SUB PUSH1 0x0 DUP4 ADD MSTORE PUSH2 0x23A2 DUP2 PUSH2 0x1F6E JUMP JUMPDEST SWAP1 POP SWAP2 SWAP1 POP JUMP JUMPDEST PUSH1 0x0 PUSH1 0x20 DUP3 ADD SWAP1 POP DUP2 DUP2 SUB PUSH1 0x0 DUP4 ADD MSTORE PUSH2 0x23C2 DUP2 PUSH2 0x1FD4 JUMP JUMPDEST SWAP1 POP SWAP2 SWAP1 POP JUMP JUMPDEST PUSH1 0x0 PUSH1 0x20 DUP3 ADD SWAP1 POP DUP2 DUP2 SUB PUSH1 0x0 DUP4 ADD MSTORE PUSH2 0x23E2 DUP2 PUSH2 0x2014 JUMP JUMPDEST SWAP1 POP SWAP2 SWAP1 POP JUMP JUMPDEST PUSH1 0x0 PUSH1 0x20 DUP3 ADD SWAP1 POP DUP2 DUP2 SUB PUSH1 0x0 DUP4 ADD MSTORE PUSH2 0x2402 DUP2 PUSH2 0x2054 JUMP JUMPDEST SWAP1 POP SWAP2 SWAP1 POP JUMP JUMPDEST PUSH1 0x0 PUSH1 0x20 DUP3 ADD SWAP1 POP DUP2 DUP2 SUB PUSH1 0x0 DUP4 ADD MSTORE PUSH2 0x2422 DUP2 PUSH2 0x20BA JUMP JUMPDEST SWAP1 POP SWAP2 SWAP1 POP JUMP JUMPDEST PUSH1 0x0 PUSH1 0x20 DUP3 ADD SWAP1 POP DUP2 DUP2 SUB PUSH1 0x0 DUP4 ADD MSTORE PUSH2 0x2443 DUP2 DUP5 PUSH2 0x21AD JUMP JUMPDEST SWAP1 POP SWAP3 SWAP2 POP POP JUMP JUMPDEST PUSH1 0x0 PUSH1 0x40 MLOAD SWAP1 POP DUP2 DUP2 ADD DUP2 DUP2 LT PUSH8 0xFFFFFFFFFFFFFFFF DUP3 GT OR ISZERO PUSH2 0x2472 JUMPI PUSH2 0x2471 PUSH2 0x2729 JUMP JUMPDEST JUMPDEST DUP1 PUSH1 0x40 MSTORE POP SWAP2 SWAP1 POP JUMP JUMPDEST PUSH1 0x0 PUSH8 0xFFFFFFFFFFFFFFFF DUP3 GT ISZERO PUSH2 0x2497 JUMPI PUSH2 0x2496 PUSH2 0x2729 JUMP JUMPDEST JUMPDEST PUSH1 0x1F NOT PUSH1 0x1F DUP4 ADD AND SWAP1 POP PUSH1 0x20 DUP2 ADD SWAP1 POP SWAP2 SWAP1 POP JUMP JUMPDEST PUSH1 0x0 DUP2 SWAP1 POP PUSH1 0x20 DUP3 ADD SWAP1 POP SWAP2 SWAP1 POP JUMP JUMPDEST PUSH1 0x0 DUP2 SWAP1 POP PUSH1 0x20 DUP3 ADD SWAP1 POP SWAP2 SWAP1 POP JUMP JUMPDEST PUSH1 0x0 DUP2 MLOAD SWAP1 POP SWAP2 SWAP1 POP JUMP JUMPDEST PUSH1 0x0 DUP2 MLOAD SWAP1 POP SWAP2 SWAP1 POP JUMP JUMPDEST PUSH1 0x0 DUP2 MLOAD SWAP1 POP SWAP2 SWAP1 POP JUMP JUMPDEST PUSH1 0x0 PUSH1 0x20 DUP3 ADD SWAP1 POP SWAP2 SWAP1 POP JUMP JUMPDEST PUSH1 0x0 PUSH1 0x20 DUP3 ADD SWAP1 POP SWAP2 SWAP1 POP JUMP JUMPDEST PUSH1 0x0 DUP3 DUP3 MSTORE PUSH1 0x20 DUP3 ADD SWAP1 POP SWAP3 SWAP2 POP POP JUMP JUMPDEST PUSH1 0x0 DUP3 DUP3 MSTORE PUSH1 0x20 DUP3 ADD SWAP1 POP SWAP3 SWAP2 POP POP JUMP JUMPDEST PUSH1 0x0 DUP3 DUP3 MSTORE PUSH1 0x20 DUP3 ADD SWAP1 POP SWAP3 SWAP2 POP POP JUMP JUMPDEST PUSH1 0x0 DUP3 DUP3 MSTORE PUSH1 0x20 DUP3 ADD SWAP1 POP SWAP3 SWAP2 POP POP JUMP JUMPDEST PUSH1 0x0 PUSH2 0x2556 DUP3 PUSH2 0x2577 JUMP JUMPDEST SWAP1 POP SWAP2 SWAP1 POP JUMP JUMPDEST PUSH1 0x0 DUP2 ISZERO ISZERO SWAP1 POP SWAP2 SWAP1 POP JUMP JUMPDEST PUSH1 0x0 PUSH2 0xFFFF DUP3 AND SWAP1 POP SWAP2 SWAP1 POP JUMP JUMPDEST PUSH1 0x0 PUSH20 0xFFFFFFFFFFFFFFFFFFFFFFFFFFFFFFFFFFFFFFFF DUP3 AND SWAP1 POP SWAP2 SWAP1 POP JUMP JUMPDEST PUSH1 0x0 DUP2 SWAP1 POP SWAP2 SWAP1 POP JUMP JUMPDEST PUSH1 0x0 PUSH1 0xFF DUP3 AND SWAP1 POP SWAP2 SWAP1 POP JUMP JUMPDEST DUP3 DUP2 DUP4 CALLDATACOPY PUSH1 0x0 DUP4 DUP4 ADD MSTORE POP POP POP JUMP JUMPDEST PUSH1 0x0 JUMPDEST DUP4 DUP2 LT ISZERO PUSH2 0x25DB JUMPI DUP1 DUP3 ADD MLOAD DUP2 DUP5 ADD MSTORE PUSH1 0x20 DUP2 ADD SWAP1 POP PUSH2 0x25C0 JUMP JUMPDEST DUP4 DUP2 GT ISZERO PUSH2 0x25EA JUMPI PUSH1 0x0 DUP5 DUP5 ADD MSTORE JUMPDEST POP POP POP POP JUMP JUMPDEST PUSH1 0x0 PUSH2 0x25FB DUP3 PUSH2 0x2569 JUMP JUMPDEST SWAP2 POP PUSH1 0x0 DUP3 EQ ISZERO PUSH2 0x260F JUMPI PUSH2 0x260E PUSH2 0x26CB JUMP JUMPDEST JUMPDEST PUSH1 0x1 DUP3 SUB SWAP1 POP SWAP2 SWAP1 POP JUMP JUMPDEST PUSH1 0x0 PUSH2 0x2625 DUP3 PUSH2 0x25A1 JUMP JUMPDEST SWAP2 POP PUSH1 0x0 DUP3 EQ ISZERO PUSH2 0x2639 JUMPI PUSH2 0x2638 PUSH2 0x26CB JUMP JUMPDEST JUMPDEST PUSH1 0x1 DUP3 SUB SWAP1 POP SWAP2 SWAP1 POP JUMP JUMPDEST PUSH1 0x0 PUSH1 0x2 DUP3 DIV SWAP1 POP PUSH1 0x1 DUP3 AND DUP1 PUSH2 0x265C JUMPI PUSH1 0x7F DUP3 AND SWAP2 POP JUMPDEST PUSH1 0x20 DUP3 LT DUP2 EQ ISZERO PUSH2 0x2670 JUMPI PUSH2 0x266F PUSH2 0x26FA JUMP JUMPDEST JUMPDEST POP SWAP2 SWAP1 POP JUMP JUMPDEST PUSH1 0x0 PUSH2 0x2681 DUP3 PUSH2 0x2569 JUMP JUMPDEST SWAP2 POP PUSH2 0xFFFF DUP3 EQ ISZERO PUSH2 0x2696 JUMPI PUSH2 0x2695 PUSH2 0x26CB JUMP JUMPDEST JUMPDEST PUSH1 0x1 DUP3 ADD SWAP1 POP SWAP2 SWAP1 POP JUMP JUMPDEST PUSH1 0x0 PUSH2 0x26AC DUP3 PUSH2 0x25A1 JUMP JUMPDEST SWAP2 POP PUSH1 0xFF DUP3 EQ ISZERO PUSH2 0x26C0 JUMPI PUSH2 0x26BF PUSH2 0x26CB JUMP JUMPDEST JUMPDEST PUSH1 0x1 DUP3 ADD SWAP1 POP SWAP2 SWAP1 POP JUMP JUMPDEST PUSH32 0x4E487B7100000000000000000000000000000000000000000000000000000000 PUSH1 0x0 MSTORE PUSH1 0x11 PUSH1 0x4 MSTORE PUSH1 0x24 PUSH1 0x0 REVERT JUMPDEST PUSH32 0x4E487B7100000000000000000000000000000000000000000000000000000000 PUSH1 0x0 MSTORE PUSH1 0x22 PUSH1 0x4 MSTORE PUSH1 0x24 PUSH1 0x0 REVERT JUMPDEST PUSH32 0x4E487B7100000000000000000000000000000000000000000000000000000000 PUSH1 0x0 MSTORE PUSH1 0x41 PUSH1 0x4 MSTORE PUSH1 0x24 PUSH1 0x0 REVERT JUMPDEST PUSH1 0x0 PUSH1 0x1F NOT PUSH1 0x1F DUP4 ADD AND SWAP1 POP SWAP2 SWAP1 POP JUMP JUMPDEST PUSH2 0x2772 DUP2 PUSH2 0x254B JUMP JUMPDEST DUP2 EQ PUSH2 0x277D JUMPI PUSH1 0x0 DUP1 REVERT JUMPDEST POP JUMP JUMPDEST PUSH2 0x2789 DUP2 PUSH2 0x2597 JUMP JUMPDEST DUP2 EQ PUSH2 0x2794 JUMPI PUSH1 0x0 DUP1 REVERT JUMPDEST POP JUMP JUMPDEST PUSH2 0x27A0 DUP2 PUSH2 0x25A1 JUMP JUMPDEST DUP2 EQ PUSH2 0x27AB JUMPI PUSH1 0x0 DUP1 REVERT JUMPDEST POP JUMP INVALID LOG2 PUSH5 0x6970667358 0x22 SLT KECCAK256 SWAP14 CALLER 0xB4 0xDA DUP9 0xC3 PUSH21 0x8AC621241AC59914F670C40ED6C30028775AA29E75 0xC9 PC 0x2A 0xBB PUSH5 0x736F6C6343 STOP ADDMOD STOP STOP CALLER "
				},
				"gasEstimates": {
					"creation": {
						"codeDepositCost": "2042400",
						"executionCost": "23037",
						"totalCost": "2065437"
					},
					"external": {
						"eliminarGuiaTurista(address)": "infinite",
						"eliminarTurista(address)": "infinite",
						"guiasRegistrados(address)": "infinite",
						"listaGuiaTuristas(uint256)": "2357",
						"listaTuristas(uint256)": "2466",
						"registrarGuiaTurista(address,string)": "infinite",
						"registrarTurista(address,string,uint8)": "infinite",
						"turistasRegistrados(address)": "infinite",
						"verGuia(address)": "infinite",
						"verGuias()": "infinite",
						"verTurista(address)": "infinite",
						"verTuristas()": "infinite"
					}
				},
				"methodIdentifiers": {
					"eliminarGuiaTurista(address)": "2bdaa8c9",
					"eliminarTurista(address)": "0e768dbf",
					"guiasRegistrados(address)": "5ac34098",
					"listaGuiaTuristas(uint256)": "0a6c512c",
					"listaTuristas(uint256)": "f0963a11",
					"registrarGuiaTurista(address,string)": "2eb72875",
					"registrarTurista(address,string,uint8)": "5922f385",
					"turistasRegistrados(address)": "40280a63",
					"verGuia(address)": "db096f25",
					"verGuias()": "966549e5",
					"verTurista(address)": "8e12bf87",
					"verTuristas()": "47c58865"
				}
			},
			"storageLayout": {
				"storage": [
					{
						"astId": 3,
						"contract": "contracts/Usuarios.sol:Usuarios",
						"label": "duenno",
						"offset": 0,
						"slot": "0",
						"type": "t_address"
					},
					{
						"astId": 6,
						"contract": "contracts/Usuarios.sol:Usuarios",
						"label": "listaGuiaTuristas",
						"offset": 0,
						"slot": "1",
						"type": "t_array(t_address)dyn_storage"
					},
					{
						"astId": 9,
						"contract": "contracts/Usuarios.sol:Usuarios",
						"label": "listaTuristas",
						"offset": 0,
						"slot": "2",
						"type": "t_array(t_address)dyn_storage"
					},
					{
						"astId": 14,
						"contract": "contracts/Usuarios.sol:Usuarios",
						"label": "guiasRegistrados",
						"offset": 0,
						"slot": "3",
						"type": "t_mapping(t_address,t_struct(GuiaTuristas)26_storage)"
					},
					{
						"astId": 19,
						"contract": "contracts/Usuarios.sol:Usuarios",
						"label": "turistasRegistrados",
						"offset": 0,
						"slot": "4",
						"type": "t_mapping(t_address,t_struct(Turista)35_storage)"
					}
				],
				"types": {
					"t_address": {
						"encoding": "inplace",
						"label": "address",
						"numberOfBytes": "20"
					},
					"t_array(t_address)dyn_storage": {
						"base": "t_address",
						"encoding": "dynamic_array",
						"label": "address[]",
						"numberOfBytes": "32"
					},
					"t_bool": {
						"encoding": "inplace",
						"label": "bool",
						"numberOfBytes": "1"
					},
					"t_mapping(t_address,t_struct(GuiaTuristas)26_storage)": {
						"encoding": "mapping",
						"key": "t_address",
						"label": "mapping(address => struct Usuarios.GuiaTuristas)",
						"numberOfBytes": "32",
						"value": "t_struct(GuiaTuristas)26_storage"
					},
					"t_mapping(t_address,t_struct(Turista)35_storage)": {
						"encoding": "mapping",
						"key": "t_address",
						"label": "mapping(address => struct Usuarios.Turista)",
						"numberOfBytes": "32",
						"value": "t_struct(Turista)35_storage"
					},
					"t_string_storage": {
						"encoding": "bytes",
						"label": "string",
						"numberOfBytes": "32"
					},
					"t_struct(GuiaTuristas)26_storage": {
						"encoding": "inplace",
						"label": "struct Usuarios.GuiaTuristas",
						"members": [
							{
								"astId": 21,
								"contract": "contracts/Usuarios.sol:Usuarios",
								"label": "cuenta",
								"offset": 0,
								"slot": "0",
								"type": "t_address"
							},
							{
								"astId": 23,
								"contract": "contracts/Usuarios.sol:Usuarios",
								"label": "nombreCompleto",
								"offset": 0,
								"slot": "1",
								"type": "t_string_storage"
							},
							{
								"astId": 25,
								"contract": "contracts/Usuarios.sol:Usuarios",
								"label": "estado",
								"offset": 0,
								"slot": "2",
								"type": "t_bool"
							}
						],
						"numberOfBytes": "96"
					},
					"t_struct(Turista)35_storage": {
						"encoding": "inplace",
						"label": "struct Usuarios.Turista",
						"members": [
							{
								"astId": 28,
								"contract": "contracts/Usuarios.sol:Usuarios",
								"label": "cuenta",
								"offset": 0,
								"slot": "0",
								"type": "t_address"
							},
							{
								"astId": 30,
								"contract": "contracts/Usuarios.sol:Usuarios",
								"label": "nombreCompleto",
								"offset": 0,
								"slot": "1",
								"type": "t_string_storage"
							},
							{
								"astId": 32,
								"contract": "contracts/Usuarios.sol:Usuarios",
								"label": "edad",
								"offset": 0,
								"slot": "2",
								"type": "t_uint8"
							},
							{
								"astId": 34,
								"contract": "contracts/Usuarios.sol:Usuarios",
								"label": "estado",
								"offset": 1,
								"slot": "2",
								"type": "t_bool"
							}
						],
						"numberOfBytes": "96"
					},
					"t_uint8": {
						"encoding": "inplace",
						"label": "uint8",
						"numberOfBytes": "1"
					}
				}
			},
			"userdoc": {
				"kind": "user",
				"methods": {},
				"version": 1
			}
		}
	}
}