{
	"contracts/Usuarios.sol": {
		"Usuarios": {
			"abi": [
				{
					"inputs": [],
					"stateMutability": "nonpayable",
					"type": "constructor"
				},
				{
					"anonymous": false,
					"inputs": [
						{
							"indexed": false,
							"internalType": "address",
							"name": "cuenta",
							"type": "address"
						}
					],
					"name": "GuiaEliminado",
					"type": "event"
				},
				{
					"anonymous": false,
					"inputs": [
						{
							"indexed": false,
							"internalType": "address",
							"name": "cuenta",
							"type": "address"
						},
						{
							"indexed": false,
							"internalType": "string",
							"name": "nombre",
							"type": "string"
						}
					],
					"name": "GuiaRegistrado",
					"type": "event"
				},
				{
					"anonymous": false,
					"inputs": [
						{
							"indexed": false,
							"internalType": "address",
							"name": "turista",
							"type": "address"
						}
					],
					"name": "TuristaEliminado",
					"type": "event"
				},
				{
					"anonymous": false,
					"inputs": [
						{
							"indexed": false,
							"internalType": "address",
							"name": "cuenta",
							"type": "address"
						},
						{
							"indexed": false,
							"internalType": "string",
							"name": "nombre",
							"type": "string"
						}
					],
					"name": "TuristaRegistrado",
					"type": "event"
				},
				{
					"inputs": [],
					"name": "duenno",
					"outputs": [
						{
							"internalType": "address",
							"name": "",
							"type": "address"
						}
					],
					"stateMutability": "view",
					"type": "function"
				},
				{
					"inputs": [
						{
							"internalType": "address",
							"name": "_cuenta",
							"type": "address"
						}
					],
					"name": "eliminarGuiaTurista",
					"outputs": [
						{
							"internalType": "string",
							"name": "mensaje",
							"type": "string"
						}
					],
					"stateMutability": "nonpayable",
					"type": "function"
				},
				{
					"inputs": [
						{
							"internalType": "address",
							"name": "_cuenta",
							"type": "address"
						}
					],
					"name": "eliminarTurista",
					"outputs": [
						{
							"internalType": "string",
							"name": "mensaje",
							"type": "string"
						}
					],
					"stateMutability": "nonpayable",
					"type": "function"
				},
				{
					"inputs": [
						{
							"internalType": "address",
							"name": "",
							"type": "address"
						}
					],
					"name": "guiasRegistrados",
					"outputs": [
						{
							"internalType": "address",
							"name": "cuenta",
							"type": "address"
						},
						{
							"internalType": "string",
							"name": "nombreCompleto",
							"type": "string"
						},
						{
							"internalType": "bool",
							"name": "estado",
							"type": "bool"
						}
					],
					"stateMutability": "view",
					"type": "function"
				},
				{
					"inputs": [
						{
							"internalType": "uint256",
							"name": "",
							"type": "uint256"
						}
					],
					"name": "listaGuias",
					"outputs": [
						{
							"internalType": "address",
							"name": "cuenta",
							"type": "address"
						},
						{
							"internalType": "string",
							"name": "nombreCompleto",
							"type": "string"
						},
						{
							"internalType": "bool",
							"name": "estado",
							"type": "bool"
						}
					],
					"stateMutability": "view",
					"type": "function"
				},
				{
					"inputs": [
						{
							"internalType": "uint256",
							"name": "",
							"type": "uint256"
						}
					],
					"name": "listaTuristas",
					"outputs": [
						{
							"internalType": "address",
							"name": "cuenta",
							"type": "address"
						},
						{
							"internalType": "string",
							"name": "nombreCompleto",
							"type": "string"
						},
						{
							"internalType": "uint8",
							"name": "edad",
							"type": "uint8"
						},
						{
							"internalType": "bool",
							"name": "estado",
							"type": "bool"
						}
					],
					"stateMutability": "view",
					"type": "function"
				},
				{
					"inputs": [
						{
							"internalType": "address",
							"name": "_cuenta",
							"type": "address"
						},
						{
							"internalType": "string",
							"name": "_nombre",
							"type": "string"
						}
					],
					"name": "registrarGuiaTurista",
					"outputs": [
						{
							"internalType": "string",
							"name": "mensaje",
							"type": "string"
						}
					],
					"stateMutability": "nonpayable",
					"type": "function"
				},
				{
					"inputs": [
						{
							"internalType": "address",
							"name": "_cuenta",
							"type": "address"
						},
						{
							"internalType": "string",
							"name": "_nombre",
							"type": "string"
						},
						{
							"internalType": "uint8",
							"name": "_edad",
							"type": "uint8"
						}
					],
					"name": "registrarTurista",
					"outputs": [
						{
							"internalType": "string",
							"name": "mensaje",
							"type": "string"
						}
					],
					"stateMutability": "nonpayable",
					"type": "function"
				},
				{
					"inputs": [
						{
							"internalType": "address",
							"name": "",
							"type": "address"
						}
					],
					"name": "turistasRegistrados",
					"outputs": [
						{
							"internalType": "address",
							"name": "cuenta",
							"type": "address"
						},
						{
							"internalType": "string",
							"name": "nombreCompleto",
							"type": "string"
						},
						{
							"internalType": "uint8",
							"name": "edad",
							"type": "uint8"
						},
						{
							"internalType": "bool",
							"name": "estado",
							"type": "bool"
						}
					],
					"stateMutability": "view",
					"type": "function"
				},
				{
					"inputs": [
						{
							"internalType": "address",
							"name": "_cuenta",
							"type": "address"
						}
					],
					"name": "verGuia",
					"outputs": [
						{
							"internalType": "address",
							"name": "cuenta",
							"type": "address"
						},
						{
							"internalType": "string",
							"name": "nombre",
							"type": "string"
						},
						{
							"internalType": "bool",
							"name": "activo",
							"type": "bool"
						}
					],
					"stateMutability": "view",
					"type": "function"
				},
				{
					"inputs": [],
					"name": "verGuias",
					"outputs": [
						{
							"components": [
								{
									"internalType": "address",
									"name": "cuenta",
									"type": "address"
								},
								{
									"internalType": "string",
									"name": "nombreCompleto",
									"type": "string"
								},
								{
									"internalType": "bool",
									"name": "estado",
									"type": "bool"
								}
							],
							"internalType": "struct Usuarios.GuiaTuristas[]",
							"name": "resultado",
							"type": "tuple[]"
						}
					],
					"stateMutability": "view",
					"type": "function"
				},
				{
					"inputs": [
						{
							"internalType": "address",
							"name": "_cuenta",
							"type": "address"
						}
					],
					"name": "verTurista",
					"outputs": [
						{
							"internalType": "address",
							"name": "cuenta",
							"type": "address"
						},
						{
							"internalType": "string",
							"name": "nombre",
							"type": "string"
						},
						{
							"internalType": "uint8",
							"name": "edad",
							"type": "uint8"
						},
						{
							"internalType": "bool",
							"name": "activo",
							"type": "bool"
						}
					],
					"stateMutability": "view",
					"type": "function"
				},
				{
					"inputs": [],
					"name": "verTuristas",
					"outputs": [
						{
							"components": [
								{
									"internalType": "address",
									"name": "cuenta",
									"type": "address"
								},
								{
									"internalType": "string",
									"name": "nombreCompleto",
									"type": "string"
								},
								{
									"internalType": "uint8",
									"name": "edad",
									"type": "uint8"
								},
								{
									"internalType": "bool",
									"name": "estado",
									"type": "bool"
								}
							],
							"internalType": "struct Usuarios.Turista[]",
							"name": "resultado",
							"type": "tuple[]"
						}
					],
					"stateMutability": "view",
					"type": "function"
				}
			],
			"devdoc": {
				"kind": "dev",
				"methods": {},
				"version": 1
			},
			"evm": {
				"assembly": "    /* \"contracts/Usuarios.sol\":244:6098  contract Usuarios {... */\n  mstore(0x40, 0x80)\n    /* \"contracts/Usuarios.sol\":897:947  constructor() {... */\n  callvalue\n  dup1\n  iszero\n  tag_1\n  jumpi\n  0x00\n  dup1\n  revert\ntag_1:\n  pop\n    /* \"contracts/Usuarios.sol\":930:940  msg.sender */\n  caller\n    /* \"contracts/Usuarios.sol\":921:927  duenno */\n  0x00\n  dup1\n    /* \"contracts/Usuarios.sol\":921:940  duenno = msg.sender */\n  0x0100\n  exp\n  dup2\n  sload\n  dup2\n  0xffffffffffffffffffffffffffffffffffffffff\n  mul\n  not\n  and\n  swap1\n  dup4\n  0xffffffffffffffffffffffffffffffffffffffff\n  and\n  mul\n  or\n  swap1\n  sstore\n  pop\n    /* \"contracts/Usuarios.sol\":244:6098  contract Usuarios {... */\n  dataSize(sub_0)\n  dup1\n  dataOffset(sub_0)\n  0x00\n  codecopy\n  0x00\n  return\nstop\n\nsub_0: assembly {\n        /* \"contracts/Usuarios.sol\":244:6098  contract Usuarios {... */\n      mstore(0x40, 0x80)\n      callvalue\n      dup1\n      iszero\n      tag_1\n      jumpi\n      0x00\n      dup1\n      revert\n    tag_1:\n      pop\n      jumpi(tag_2, lt(calldatasize, 0x04))\n      shr(0xe0, calldataload(0x00))\n      dup1\n      0x5ac34098\n      gt\n      tag_16\n      jumpi\n      dup1\n      0x966549e5\n      gt\n      tag_17\n      jumpi\n      dup1\n      0x966549e5\n      eq\n      tag_12\n      jumpi\n      dup1\n      0x9dc43f77\n      eq\n      tag_13\n      jumpi\n      dup1\n      0xdb096f25\n      eq\n      tag_14\n      jumpi\n      dup1\n      0xf0963a11\n      eq\n      tag_15\n      jumpi\n      jump(tag_2)\n    tag_17:\n      dup1\n      0x5ac34098\n      eq\n      tag_9\n      jumpi\n      dup1\n      0x711422d6\n      eq\n      tag_10\n      jumpi\n      dup1\n      0x8e12bf87\n      eq\n      tag_11\n      jumpi\n      jump(tag_2)\n    tag_16:\n      dup1\n      0x0e768dbf\n      eq\n      tag_3\n      jumpi\n      dup1\n      0x2bdaa8c9\n      eq\n      tag_4\n      jumpi\n      dup1\n      0x2eb72875\n      eq\n      tag_5\n      jumpi\n      dup1\n      0x40280a63\n      eq\n      tag_6\n      jumpi\n      dup1\n      0x47c58865\n      eq\n      tag_7\n      jumpi\n      dup1\n      0x5922f385\n      eq\n      tag_8\n      jumpi\n    tag_2:\n      0x00\n      dup1\n      revert\n        /* \"contracts/Usuarios.sol\":4972:5750  function eliminarTurista(address _cuenta)... */\n    tag_3:\n      tag_18\n      0x04\n      dup1\n      calldatasize\n      sub\n      dup2\n      add\n      swap1\n      tag_19\n      swap2\n      swap1\n      tag_20\n      jump\t// in\n    tag_19:\n      tag_21\n      jump\t// in\n    tag_18:\n      mload(0x40)\n      tag_22\n      swap2\n      swap1\n      tag_23\n      jump\t// in\n    tag_22:\n      mload(0x40)\n      dup1\n      swap2\n      sub\n      swap1\n      return\n        /* \"contracts/Usuarios.sol\":4206:4966  function eliminarGuiaTurista(address _cuenta)... */\n    tag_4:\n      tag_24\n      0x04\n      dup1\n      calldatasize\n      sub\n      dup2\n      add\n      swap1\n      tag_25\n      swap2\n      swap1\n      tag_20\n      jump\t// in\n    tag_25:\n      tag_26\n      jump\t// in\n    tag_24:\n      mload(0x40)\n      tag_27\n      swap2\n      swap1\n      tag_23\n      jump\t// in\n    tag_27:\n      mload(0x40)\n      dup1\n      swap2\n      sub\n      swap1\n      return\n        /* \"contracts/Usuarios.sol\":1627:2183  function registrarGuiaTurista(address _cuenta, string memory _nombre)... */\n    tag_5:\n      tag_28\n      0x04\n      dup1\n      calldatasize\n      sub\n      dup2\n      add\n      swap1\n      tag_29\n      swap2\n      swap1\n      tag_30\n      jump\t// in\n    tag_29:\n      tag_31\n      jump\t// in\n    tag_28:\n      mload(0x40)\n      tag_32\n      swap2\n      swap1\n      tag_23\n      jump\t// in\n    tag_32:\n      mload(0x40)\n      dup1\n      swap2\n      sub\n      swap1\n      return\n        /* \"contracts/Usuarios.sol\":1067:1121  mapping(address => Turista) public turistasRegistrados */\n    tag_6:\n      tag_33\n      0x04\n      dup1\n      calldatasize\n      sub\n      dup2\n      add\n      swap1\n      tag_34\n      swap2\n      swap1\n      tag_20\n      jump\t// in\n    tag_34:\n      tag_35\n      jump\t// in\n    tag_33:\n      mload(0x40)\n      tag_36\n      swap5\n      swap4\n      swap3\n      swap2\n      swap1\n      tag_37\n      jump\t// in\n    tag_36:\n      mload(0x40)\n      dup1\n      swap2\n      sub\n      swap1\n      return\n        /* \"contracts/Usuarios.sol\":3848:4200  function verTuristas()... */\n    tag_7:\n      tag_38\n      tag_39\n      jump\t// in\n    tag_38:\n      mload(0x40)\n      tag_40\n      swap2\n      swap1\n      tag_41\n      jump\t// in\n    tag_40:\n      mload(0x40)\n      dup1\n      swap2\n      sub\n      swap1\n      return\n        /* \"contracts/Usuarios.sol\":2189:2732  function registrarTurista(... */\n    tag_8:\n      tag_42\n      0x04\n      dup1\n      calldatasize\n      sub\n      dup2\n      add\n      swap1\n      tag_43\n      swap2\n      swap1\n      tag_44\n      jump\t// in\n    tag_43:\n      tag_45\n      jump\t// in\n    tag_42:\n      mload(0x40)\n      tag_46\n      swap2\n      swap1\n      tag_23\n      jump\t// in\n    tag_46:\n      mload(0x40)\n      dup1\n      swap2\n      sub\n      swap1\n      return\n        /* \"contracts/Usuarios.sol\":1005:1061  mapping(address => GuiaTuristas) public guiasRegistrados */\n    tag_9:\n      tag_47\n      0x04\n      dup1\n      calldatasize\n      sub\n      dup2\n      add\n      swap1\n      tag_48\n      swap2\n      swap1\n      tag_20\n      jump\t// in\n    tag_48:\n      tag_49\n      jump\t// in\n    tag_47:\n      mload(0x40)\n      tag_50\n      swap4\n      swap3\n      swap2\n      swap1\n      tag_51\n      jump\t// in\n    tag_50:\n      mload(0x40)\n      dup1\n      swap2\n      sub\n      swap1\n      return\n        /* \"contracts/Usuarios.sol\":822:854  GuiaTuristas[] public listaGuias */\n    tag_10:\n      tag_52\n      0x04\n      dup1\n      calldatasize\n      sub\n      dup2\n      add\n      swap1\n      tag_53\n      swap2\n      swap1\n      tag_54\n      jump\t// in\n    tag_53:\n      tag_55\n      jump\t// in\n    tag_52:\n      mload(0x40)\n      tag_56\n      swap4\n      swap3\n      swap2\n      swap1\n      tag_51\n      jump\t// in\n    tag_56:\n      mload(0x40)\n      dup1\n      swap2\n      sub\n      swap1\n      return\n        /* \"contracts/Usuarios.sol\":3061:3488  function verTurista(address _cuenta)... */\n    tag_11:\n      tag_57\n      0x04\n      dup1\n      calldatasize\n      sub\n      dup2\n      add\n      swap1\n      tag_58\n      swap2\n      swap1\n      tag_20\n      jump\t// in\n    tag_58:\n      tag_59\n      jump\t// in\n    tag_57:\n      mload(0x40)\n      tag_60\n      swap5\n      swap4\n      swap3\n      swap2\n      swap1\n      tag_37\n      jump\t// in\n    tag_60:\n      mload(0x40)\n      dup1\n      swap2\n      sub\n      swap1\n      return\n        /* \"contracts/Usuarios.sol\":3494:3842  function verGuias()... */\n    tag_12:\n      tag_61\n      tag_62\n      jump\t// in\n    tag_61:\n      mload(0x40)\n      tag_63\n      swap2\n      swap1\n      tag_64\n      jump\t// in\n    tag_63:\n      mload(0x40)\n      dup1\n      swap2\n      sub\n      swap1\n      return\n        /* \"contracts/Usuarios.sol\":666:687  address public duenno */\n    tag_13:\n      tag_65\n      tag_66\n      jump\t// in\n    tag_65:\n      mload(0x40)\n      tag_67\n      swap2\n      swap1\n      tag_68\n      jump\t// in\n    tag_67:\n      mload(0x40)\n      dup1\n      swap2\n      sub\n      swap1\n      return\n        /* \"contracts/Usuarios.sol\":2738:3055  function verGuia(address _cuenta)... */\n    tag_14:\n      tag_69\n      0x04\n      dup1\n      calldatasize\n      sub\n      dup2\n      add\n      swap1\n      tag_70\n      swap2\n      swap1\n      tag_20\n      jump\t// in\n    tag_70:\n      tag_71\n      jump\t// in\n    tag_69:\n      mload(0x40)\n      tag_72\n      swap4\n      swap3\n      swap2\n      swap1\n      tag_51\n      jump\t// in\n    tag_72:\n      mload(0x40)\n      dup1\n      swap2\n      sub\n      swap1\n      return\n        /* \"contracts/Usuarios.sol\":860:890  Turista[] public listaTuristas */\n    tag_15:\n      tag_73\n      0x04\n      dup1\n      calldatasize\n      sub\n      dup2\n      add\n      swap1\n      tag_74\n      swap2\n      swap1\n      tag_54\n      jump\t// in\n    tag_74:\n      tag_75\n      jump\t// in\n    tag_73:\n      mload(0x40)\n      tag_76\n      swap5\n      swap4\n      swap3\n      swap2\n      swap1\n      tag_37\n      jump\t// in\n    tag_76:\n      mload(0x40)\n      dup1\n      swap2\n      sub\n      swap1\n      return\n        /* \"contracts/Usuarios.sol\":4972:5750  function eliminarTurista(address _cuenta)... */\n    tag_21:\n        /* \"contracts/Usuarios.sol\":5064:5085  string memory mensaje */\n      0x60\n        /* \"contracts/Usuarios.sol\":1471:1477  duenno */\n      0x00\n      dup1\n      sload\n      swap1\n      0x0100\n      exp\n      swap1\n      div\n      0xffffffffffffffffffffffffffffffffffffffff\n      and\n        /* \"contracts/Usuarios.sol\":1457:1477  msg.sender == duenno */\n      0xffffffffffffffffffffffffffffffffffffffff\n      and\n        /* \"contracts/Usuarios.sol\":1457:1467  msg.sender */\n      caller\n        /* \"contracts/Usuarios.sol\":1457:1477  msg.sender == duenno */\n      0xffffffffffffffffffffffffffffffffffffffff\n      and\n      eq\n        /* \"contracts/Usuarios.sol\":1457:1516  msg.sender == duenno || guiasRegistrados[msg.sender].estado */\n      dup1\n      tag_78\n      jumpi\n      pop\n        /* \"contracts/Usuarios.sol\":1481:1497  guiasRegistrados */\n      0x03\n        /* \"contracts/Usuarios.sol\":1481:1509  guiasRegistrados[msg.sender] */\n      0x00\n        /* \"contracts/Usuarios.sol\":1498:1508  msg.sender */\n      caller\n        /* \"contracts/Usuarios.sol\":1481:1509  guiasRegistrados[msg.sender] */\n      0xffffffffffffffffffffffffffffffffffffffff\n      and\n      0xffffffffffffffffffffffffffffffffffffffff\n      and\n      dup2\n      mstore\n      0x20\n      add\n      swap1\n      dup2\n      mstore\n      0x20\n      add\n      0x00\n      keccak256\n        /* \"contracts/Usuarios.sol\":1481:1516  guiasRegistrados[msg.sender].estado */\n      0x02\n      add\n      0x00\n      swap1\n      sload\n      swap1\n      0x0100\n      exp\n      swap1\n      div\n      0xff\n      and\n        /* \"contracts/Usuarios.sol\":1457:1516  msg.sender == duenno || guiasRegistrados[msg.sender].estado */\n    tag_78:\n        /* \"contracts/Usuarios.sol\":1436:1603  require(... */\n      tag_79\n      jumpi\n      mload(0x40)\n      0x08c379a000000000000000000000000000000000000000000000000000000000\n      dup2\n      mstore\n      0x04\n      add\n      tag_80\n      swap1\n      tag_81\n      jump\t// in\n    tag_80:\n      mload(0x40)\n      dup1\n      swap2\n      sub\n      swap1\n      revert\n    tag_79:\n        /* \"contracts/Usuarios.sol\":5109:5128  turistasRegistrados */\n      0x04\n        /* \"contracts/Usuarios.sol\":5109:5137  turistasRegistrados[_cuenta] */\n      0x00\n        /* \"contracts/Usuarios.sol\":5129:5136  _cuenta */\n      dup4\n        /* \"contracts/Usuarios.sol\":5109:5137  turistasRegistrados[_cuenta] */\n      0xffffffffffffffffffffffffffffffffffffffff\n      and\n      0xffffffffffffffffffffffffffffffffffffffff\n      and\n      dup2\n      mstore\n      0x20\n      add\n      swap1\n      dup2\n      mstore\n      0x20\n      add\n      0x00\n      keccak256\n        /* \"contracts/Usuarios.sol\":5109:5144  turistasRegistrados[_cuenta].estado */\n      0x02\n      add\n      0x01\n      swap1\n      sload\n      swap1\n      0x0100\n      exp\n      swap1\n      div\n      0xff\n      and\n        /* \"contracts/Usuarios.sol\":5101:5166  require(turistasRegistrados[_cuenta].estado, \"Turista no existe\") */\n      tag_83\n      jumpi\n      mload(0x40)\n      0x08c379a000000000000000000000000000000000000000000000000000000000\n      dup2\n      mstore\n      0x04\n      add\n      tag_84\n      swap1\n      tag_85\n      jump\t// in\n    tag_84:\n      mload(0x40)\n      dup1\n      swap2\n      sub\n      swap1\n      revert\n    tag_83:\n        /* \"contracts/Usuarios.sol\":5214:5219  false */\n      0x00\n        /* \"contracts/Usuarios.sol\":5176:5195  turistasRegistrados */\n      0x04\n        /* \"contracts/Usuarios.sol\":5176:5204  turistasRegistrados[_cuenta] */\n      0x00\n        /* \"contracts/Usuarios.sol\":5196:5203  _cuenta */\n      dup5\n        /* \"contracts/Usuarios.sol\":5176:5204  turistasRegistrados[_cuenta] */\n      0xffffffffffffffffffffffffffffffffffffffff\n      and\n      0xffffffffffffffffffffffffffffffffffffffff\n      and\n      dup2\n      mstore\n      0x20\n      add\n      swap1\n      dup2\n      mstore\n      0x20\n      add\n      0x00\n      keccak256\n        /* \"contracts/Usuarios.sol\":5176:5211  turistasRegistrados[_cuenta].estado */\n      0x02\n      add\n      0x01\n        /* \"contracts/Usuarios.sol\":5176:5219  turistasRegistrados[_cuenta].estado = false */\n      0x0100\n      exp\n      dup2\n      sload\n      dup2\n      0xff\n      mul\n      not\n      and\n      swap1\n      dup4\n      iszero\n      iszero\n      mul\n      or\n      swap1\n      sstore\n      pop\n        /* \"contracts/Usuarios.sol\":5234:5259  TuristaEliminado(_cuenta) */\n      0xb132297e629aea39de2a0b95087d354abbad2860bc2dec703085f02ee09e372b\n        /* \"contracts/Usuarios.sol\":5251:5258  _cuenta */\n      dup3\n        /* \"contracts/Usuarios.sol\":5234:5259  TuristaEliminado(_cuenta) */\n      mload(0x40)\n      tag_86\n      swap2\n      swap1\n      tag_68\n      jump\t// in\n    tag_86:\n      mload(0x40)\n      dup1\n      swap2\n      sub\n      swap1\n      log1\n        /* \"contracts/Usuarios.sol\":5276:5285  uint256 i */\n      0x00\n        /* \"contracts/Usuarios.sol\":5271:5698  for (uint256 i = 0; i < listaTuristas.length; i++) {... */\n    tag_87:\n        /* \"contracts/Usuarios.sol\":5295:5308  listaTuristas */\n      0x02\n        /* \"contracts/Usuarios.sol\":5295:5315  listaTuristas.length */\n      dup1\n      sload\n      swap1\n      pop\n        /* \"contracts/Usuarios.sol\":5291:5292  i */\n      dup2\n        /* \"contracts/Usuarios.sol\":5291:5315  i < listaTuristas.length */\n      lt\n        /* \"contracts/Usuarios.sol\":5271:5698  for (uint256 i = 0; i < listaTuristas.length; i++) {... */\n      iszero\n      tag_88\n      jumpi\n        /* \"contracts/Usuarios.sol\":5367:5374  _cuenta */\n      dup3\n        /* \"contracts/Usuarios.sol\":5340:5374  listaTuristas[i].cuenta == _cuenta */\n      0xffffffffffffffffffffffffffffffffffffffff\n      and\n        /* \"contracts/Usuarios.sol\":5340:5353  listaTuristas */\n      0x02\n        /* \"contracts/Usuarios.sol\":5354:5355  i */\n      dup3\n        /* \"contracts/Usuarios.sol\":5340:5356  listaTuristas[i] */\n      dup2\n      sload\n      dup2\n      lt\n      tag_90\n      jumpi\n      mstore(0x00, 0x4e487b7100000000000000000000000000000000000000000000000000000000)\n      mstore(0x04, 0x32)\n      revert(0x00, 0x24)\n    tag_90:\n      swap1\n      0x00\n      mstore\n      keccak256(0x00, 0x20)\n      swap1\n      0x03\n      mul\n      add\n        /* \"contracts/Usuarios.sol\":5340:5363  listaTuristas[i].cuenta */\n      0x00\n      add\n      0x00\n      swap1\n      sload\n      swap1\n      0x0100\n      exp\n      swap1\n      div\n      0xffffffffffffffffffffffffffffffffffffffff\n      and\n        /* \"contracts/Usuarios.sol\":5340:5374  listaTuristas[i].cuenta == _cuenta */\n      0xffffffffffffffffffffffffffffffffffffffff\n      and\n      eq\n        /* \"contracts/Usuarios.sol\":5336:5688  if (listaTuristas[i].cuenta == _cuenta) {... */\n      iszero\n      tag_92\n      jumpi\n        /* \"contracts/Usuarios.sol\":5574:5587  listaTuristas */\n      0x02\n        /* \"contracts/Usuarios.sol\":5611:5612  1 */\n      0x01\n        /* \"contracts/Usuarios.sol\":5588:5601  listaTuristas */\n      0x02\n        /* \"contracts/Usuarios.sol\":5588:5608  listaTuristas.length */\n      dup1\n      sload\n      swap1\n      pop\n        /* \"contracts/Usuarios.sol\":5588:5612  listaTuristas.length - 1 */\n      tag_93\n      swap2\n      swap1\n      tag_94\n      jump\t// in\n    tag_93:\n        /* \"contracts/Usuarios.sol\":5574:5613  listaTuristas[listaTuristas.length - 1] */\n      dup2\n      sload\n      dup2\n      lt\n      tag_95\n      jumpi\n      mstore(0x00, 0x4e487b7100000000000000000000000000000000000000000000000000000000)\n      mstore(0x04, 0x32)\n      revert(0x00, 0x24)\n    tag_95:\n      swap1\n      0x00\n      mstore\n      keccak256(0x00, 0x20)\n      swap1\n      0x03\n      mul\n      add\n        /* \"contracts/Usuarios.sol\":5555:5568  listaTuristas */\n      0x02\n        /* \"contracts/Usuarios.sol\":5569:5570  i */\n      dup3\n        /* \"contracts/Usuarios.sol\":5555:5571  listaTuristas[i] */\n      dup2\n      sload\n      dup2\n      lt\n      tag_97\n      jumpi\n      mstore(0x00, 0x4e487b7100000000000000000000000000000000000000000000000000000000)\n      mstore(0x04, 0x32)\n      revert(0x00, 0x24)\n    tag_97:\n      swap1\n      0x00\n      mstore\n      keccak256(0x00, 0x20)\n      swap1\n      0x03\n      mul\n      add\n        /* \"contracts/Usuarios.sol\":5555:5613  listaTuristas[i] = listaTuristas[listaTuristas.length - 1] */\n      0x00\n      dup3\n      add\n      0x00\n      swap1\n      sload\n      swap1\n      0x0100\n      exp\n      swap1\n      div\n      0xffffffffffffffffffffffffffffffffffffffff\n      and\n      dup2\n      0x00\n      add\n      exp(0x0100, 0x00)\n      dup2\n      sload\n      dup2\n      0xffffffffffffffffffffffffffffffffffffffff\n      mul\n      not\n      and\n      swap1\n      dup4\n      0xffffffffffffffffffffffffffffffffffffffff\n      and\n      mul\n      or\n      swap1\n      sstore\n      pop\n      0x01\n      dup3\n      add\n      dup2\n      0x01\n      add\n      swap1\n      dup1\n      sload\n      tag_99\n      swap1\n      tag_100\n      jump\t// in\n    tag_99:\n      tag_101\n      swap3\n      swap2\n      swap1\n      tag_102\n      jump\t// in\n    tag_101:\n      pop\n      0x02\n      dup3\n      add\n      0x00\n      swap1\n      sload\n      swap1\n      0x0100\n      exp\n      swap1\n      div\n      0xff\n      and\n      dup2\n      0x02\n      add\n      exp(0x0100, 0x00)\n      dup2\n      sload\n      dup2\n      0xff\n      mul\n      not\n      and\n      swap1\n      dup4\n      0xff\n      and\n      mul\n      or\n      swap1\n      sstore\n      pop\n      0x02\n      dup3\n      add\n      0x01\n      swap1\n      sload\n      swap1\n      0x0100\n      exp\n      swap1\n      div\n      0xff\n      and\n      dup2\n      0x02\n      add\n      exp(0x0100, 0x01)\n      dup2\n      sload\n      dup2\n      0xff\n      mul\n      not\n      and\n      swap1\n      dup4\n      iszero\n      iszero\n      mul\n      or\n      swap1\n      sstore\n      pop\n      swap1\n      pop\n      pop\n        /* \"contracts/Usuarios.sol\":5631:5644  listaTuristas */\n      0x02\n        /* \"contracts/Usuarios.sol\":5631:5650  listaTuristas.pop() */\n      dup1\n      sload\n      dup1\n      tag_103\n      jumpi\n      mstore(0x00, 0x4e487b7100000000000000000000000000000000000000000000000000000000)\n      mstore(0x04, 0x31)\n      revert(0x00, 0x24)\n    tag_103:\n      0x01\n      swap1\n      sub\n      dup2\n      dup2\n      swap1\n      0x00\n      mstore\n      keccak256(0x00, 0x20)\n      swap1\n      0x03\n      mul\n      add\n      0x00\n      dup1\n      dup3\n      add\n      exp(0x0100, 0x00)\n      dup2\n      sload\n      swap1\n      0xffffffffffffffffffffffffffffffffffffffff\n      mul\n      not\n      and\n      swap1\n      sstore\n      0x01\n      dup3\n      add\n      0x00\n      tag_105\n      swap2\n      swap1\n      tag_106\n      jump\t// in\n    tag_105:\n      0x02\n      dup3\n      add\n      exp(0x0100, 0x00)\n      dup2\n      sload\n      swap1\n      0xff\n      mul\n      not\n      and\n      swap1\n      sstore\n      0x02\n      dup3\n      add\n      exp(0x0100, 0x01)\n      dup2\n      sload\n      swap1\n      0xff\n      mul\n      not\n      and\n      swap1\n      sstore\n      pop\n      pop\n      swap1\n      sstore\n        /* \"contracts/Usuarios.sol\":5668:5673  break */\n      jump(tag_88)\n        /* \"contracts/Usuarios.sol\":5336:5688  if (listaTuristas[i].cuenta == _cuenta) {... */\n    tag_92:\n        /* \"contracts/Usuarios.sol\":5317:5320  i++ */\n      dup1\n      dup1\n      tag_107\n      swap1\n      tag_108\n      jump\t// in\n    tag_107:\n      swap2\n      pop\n      pop\n        /* \"contracts/Usuarios.sol\":5271:5698  for (uint256 i = 0; i < listaTuristas.length; i++) {... */\n      jump(tag_87)\n    tag_88:\n      pop\n        /* \"contracts/Usuarios.sol\":5707:5743  return \"Turista eliminado con exito\" */\n      mload(0x40)\n      dup1\n      0x40\n      add\n      0x40\n      mstore\n      dup1\n      0x1b\n      dup2\n      mstore\n      0x20\n      add\n      0x5475726973746120656c696d696e61646f20636f6e20657869746f0000000000\n      dup2\n      mstore\n      pop\n      swap1\n      pop\n        /* \"contracts/Usuarios.sol\":4972:5750  function eliminarTurista(address _cuenta)... */\n      swap2\n      swap1\n      pop\n      jump\t// out\n        /* \"contracts/Usuarios.sol\":4206:4966  function eliminarGuiaTurista(address _cuenta)... */\n    tag_26:\n        /* \"contracts/Usuarios.sol\":4303:4324  string memory mensaje */\n      0x60\n        /* \"contracts/Usuarios.sol\":1241:1247  duenno */\n      0x00\n      dup1\n      sload\n      swap1\n      0x0100\n      exp\n      swap1\n      div\n      0xffffffffffffffffffffffffffffffffffffffff\n      and\n        /* \"contracts/Usuarios.sol\":1227:1247  msg.sender == duenno */\n      0xffffffffffffffffffffffffffffffffffffffff\n      and\n        /* \"contracts/Usuarios.sol\":1227:1237  msg.sender */\n      caller\n        /* \"contracts/Usuarios.sol\":1227:1247  msg.sender == duenno */\n      0xffffffffffffffffffffffffffffffffffffffff\n      and\n      eq\n        /* \"contracts/Usuarios.sol\":1206:1314  require(... */\n      tag_110\n      jumpi\n      mload(0x40)\n      0x08c379a000000000000000000000000000000000000000000000000000000000\n      dup2\n      mstore\n      0x04\n      add\n      tag_111\n      swap1\n      tag_112\n      jump\t// in\n    tag_111:\n      mload(0x40)\n      dup1\n      swap2\n      sub\n      swap1\n      revert\n    tag_110:\n        /* \"contracts/Usuarios.sol\":4348:4364  guiasRegistrados */\n      0x03\n        /* \"contracts/Usuarios.sol\":4348:4373  guiasRegistrados[_cuenta] */\n      0x00\n        /* \"contracts/Usuarios.sol\":4365:4372  _cuenta */\n      dup4\n        /* \"contracts/Usuarios.sol\":4348:4373  guiasRegistrados[_cuenta] */\n      0xffffffffffffffffffffffffffffffffffffffff\n      and\n      0xffffffffffffffffffffffffffffffffffffffff\n      and\n      dup2\n      mstore\n      0x20\n      add\n      swap1\n      dup2\n      mstore\n      0x20\n      add\n      0x00\n      keccak256\n        /* \"contracts/Usuarios.sol\":4348:4380  guiasRegistrados[_cuenta].estado */\n      0x02\n      add\n      0x00\n      swap1\n      sload\n      swap1\n      0x0100\n      exp\n      swap1\n      div\n      0xff\n      and\n        /* \"contracts/Usuarios.sol\":4340:4399  require(guiasRegistrados[_cuenta].estado, \"Guia no existe\") */\n      tag_114\n      jumpi\n      mload(0x40)\n      0x08c379a000000000000000000000000000000000000000000000000000000000\n      dup2\n      mstore\n      0x04\n      add\n      tag_115\n      swap1\n      tag_116\n      jump\t// in\n    tag_115:\n      mload(0x40)\n      dup1\n      swap2\n      sub\n      swap1\n      revert\n    tag_114:\n        /* \"contracts/Usuarios.sol\":4444:4449  false */\n      0x00\n        /* \"contracts/Usuarios.sol\":4409:4425  guiasRegistrados */\n      0x03\n        /* \"contracts/Usuarios.sol\":4409:4434  guiasRegistrados[_cuenta] */\n      0x00\n        /* \"contracts/Usuarios.sol\":4426:4433  _cuenta */\n      dup5\n        /* \"contracts/Usuarios.sol\":4409:4434  guiasRegistrados[_cuenta] */\n      0xffffffffffffffffffffffffffffffffffffffff\n      and\n      0xffffffffffffffffffffffffffffffffffffffff\n      and\n      dup2\n      mstore\n      0x20\n      add\n      swap1\n      dup2\n      mstore\n      0x20\n      add\n      0x00\n      keccak256\n        /* \"contracts/Usuarios.sol\":4409:4441  guiasRegistrados[_cuenta].estado */\n      0x02\n      add\n      0x00\n        /* \"contracts/Usuarios.sol\":4409:4449  guiasRegistrados[_cuenta].estado = false */\n      0x0100\n      exp\n      dup2\n      sload\n      dup2\n      0xff\n      mul\n      not\n      and\n      swap1\n      dup4\n      iszero\n      iszero\n      mul\n      or\n      swap1\n      sstore\n      pop\n        /* \"contracts/Usuarios.sol\":4464:4486  GuiaEliminado(_cuenta) */\n      0x93d0e91b2385480f16c2e324398638f59df15184797653484a2e7a4d851540f1\n        /* \"contracts/Usuarios.sol\":4478:4485  _cuenta */\n      dup3\n        /* \"contracts/Usuarios.sol\":4464:4486  GuiaEliminado(_cuenta) */\n      mload(0x40)\n      tag_117\n      swap2\n      swap1\n      tag_68\n      jump\t// in\n    tag_117:\n      mload(0x40)\n      dup1\n      swap2\n      sub\n      swap1\n      log1\n        /* \"contracts/Usuarios.sol\":4501:4510  uint256 i */\n      0x00\n        /* \"contracts/Usuarios.sol\":4496:4905  for (uint256 i = 0; i < listaGuias.length; i++) {... */\n    tag_118:\n        /* \"contracts/Usuarios.sol\":4520:4530  listaGuias */\n      0x01\n        /* \"contracts/Usuarios.sol\":4520:4537  listaGuias.length */\n      dup1\n      sload\n      swap1\n      pop\n        /* \"contracts/Usuarios.sol\":4516:4517  i */\n      dup2\n        /* \"contracts/Usuarios.sol\":4516:4537  i < listaGuias.length */\n      lt\n        /* \"contracts/Usuarios.sol\":4496:4905  for (uint256 i = 0; i < listaGuias.length; i++) {... */\n      iszero\n      tag_119\n      jumpi\n        /* \"contracts/Usuarios.sol\":4586:4593  _cuenta */\n      dup3\n        /* \"contracts/Usuarios.sol\":4562:4593  listaGuias[i].cuenta == _cuenta */\n      0xffffffffffffffffffffffffffffffffffffffff\n      and\n        /* \"contracts/Usuarios.sol\":4562:4572  listaGuias */\n      0x01\n        /* \"contracts/Usuarios.sol\":4573:4574  i */\n      dup3\n        /* \"contracts/Usuarios.sol\":4562:4575  listaGuias[i] */\n      dup2\n      sload\n      dup2\n      lt\n      tag_121\n      jumpi\n      mstore(0x00, 0x4e487b7100000000000000000000000000000000000000000000000000000000)\n      mstore(0x04, 0x32)\n      revert(0x00, 0x24)\n    tag_121:\n      swap1\n      0x00\n      mstore\n      keccak256(0x00, 0x20)\n      swap1\n      0x03\n      mul\n      add\n        /* \"contracts/Usuarios.sol\":4562:4582  listaGuias[i].cuenta */\n      0x00\n      add\n      0x00\n      swap1\n      sload\n      swap1\n      0x0100\n      exp\n      swap1\n      div\n      0xffffffffffffffffffffffffffffffffffffffff\n      and\n        /* \"contracts/Usuarios.sol\":4562:4593  listaGuias[i].cuenta == _cuenta */\n      0xffffffffffffffffffffffffffffffffffffffff\n      and\n      eq\n        /* \"contracts/Usuarios.sol\":4558:4895  if (listaGuias[i].cuenta == _cuenta) {... */\n      iszero\n      tag_123\n      jumpi\n        /* \"contracts/Usuarios.sol\":4790:4800  listaGuias */\n      0x01\n        /* \"contracts/Usuarios.sol\":4821:4822  1 */\n      dup1\n        /* \"contracts/Usuarios.sol\":4801:4811  listaGuias */\n      dup1\n        /* \"contracts/Usuarios.sol\":4801:4818  listaGuias.length */\n      dup1\n      sload\n      swap1\n      pop\n        /* \"contracts/Usuarios.sol\":4801:4822  listaGuias.length - 1 */\n      tag_124\n      swap2\n      swap1\n      tag_94\n      jump\t// in\n    tag_124:\n        /* \"contracts/Usuarios.sol\":4790:4823  listaGuias[listaGuias.length - 1] */\n      dup2\n      sload\n      dup2\n      lt\n      tag_125\n      jumpi\n      mstore(0x00, 0x4e487b7100000000000000000000000000000000000000000000000000000000)\n      mstore(0x04, 0x32)\n      revert(0x00, 0x24)\n    tag_125:\n      swap1\n      0x00\n      mstore\n      keccak256(0x00, 0x20)\n      swap1\n      0x03\n      mul\n      add\n        /* \"contracts/Usuarios.sol\":4774:4784  listaGuias */\n      0x01\n        /* \"contracts/Usuarios.sol\":4785:4786  i */\n      dup3\n        /* \"contracts/Usuarios.sol\":4774:4787  listaGuias[i] */\n      dup2\n      sload\n      dup2\n      lt\n      tag_127\n      jumpi\n      mstore(0x00, 0x4e487b7100000000000000000000000000000000000000000000000000000000)\n      mstore(0x04, 0x32)\n      revert(0x00, 0x24)\n    tag_127:\n      swap1\n      0x00\n      mstore\n      keccak256(0x00, 0x20)\n      swap1\n      0x03\n      mul\n      add\n        /* \"contracts/Usuarios.sol\":4774:4823  listaGuias[i] = listaGuias[listaGuias.length - 1] */\n      0x00\n      dup3\n      add\n      0x00\n      swap1\n      sload\n      swap1\n      0x0100\n      exp\n      swap1\n      div\n      0xffffffffffffffffffffffffffffffffffffffff\n      and\n      dup2\n      0x00\n      add\n      exp(0x0100, 0x00)\n      dup2\n      sload\n      dup2\n      0xffffffffffffffffffffffffffffffffffffffff\n      mul\n      not\n      and\n      swap1\n      dup4\n      0xffffffffffffffffffffffffffffffffffffffff\n      and\n      mul\n      or\n      swap1\n      sstore\n      pop\n      0x01\n      dup3\n      add\n      dup2\n      0x01\n      add\n      swap1\n      dup1\n      sload\n      tag_129\n      swap1\n      tag_100\n      jump\t// in\n    tag_129:\n      tag_130\n      swap3\n      swap2\n      swap1\n      tag_102\n      jump\t// in\n    tag_130:\n      pop\n      0x02\n      dup3\n      add\n      0x00\n      swap1\n      sload\n      swap1\n      0x0100\n      exp\n      swap1\n      div\n      0xff\n      and\n      dup2\n      0x02\n      add\n      exp(0x0100, 0x00)\n      dup2\n      sload\n      dup2\n      0xff\n      mul\n      not\n      and\n      swap1\n      dup4\n      iszero\n      iszero\n      mul\n      or\n      swap1\n      sstore\n      pop\n      swap1\n      pop\n      pop\n        /* \"contracts/Usuarios.sol\":4841:4851  listaGuias */\n      0x01\n        /* \"contracts/Usuarios.sol\":4841:4857  listaGuias.pop() */\n      dup1\n      sload\n      dup1\n      tag_131\n      jumpi\n      mstore(0x00, 0x4e487b7100000000000000000000000000000000000000000000000000000000)\n      mstore(0x04, 0x31)\n      revert(0x00, 0x24)\n    tag_131:\n      0x01\n      swap1\n      sub\n      dup2\n      dup2\n      swap1\n      0x00\n      mstore\n      keccak256(0x00, 0x20)\n      swap1\n      0x03\n      mul\n      add\n      0x00\n      dup1\n      dup3\n      add\n      exp(0x0100, 0x00)\n      dup2\n      sload\n      swap1\n      0xffffffffffffffffffffffffffffffffffffffff\n      mul\n      not\n      and\n      swap1\n      sstore\n      0x01\n      dup3\n      add\n      0x00\n      tag_133\n      swap2\n      swap1\n      tag_106\n      jump\t// in\n    tag_133:\n      0x02\n      dup3\n      add\n      exp(0x0100, 0x00)\n      dup2\n      sload\n      swap1\n      0xff\n      mul\n      not\n      and\n      swap1\n      sstore\n      pop\n      pop\n      swap1\n      sstore\n        /* \"contracts/Usuarios.sol\":4875:4880  break */\n      jump(tag_119)\n        /* \"contracts/Usuarios.sol\":4558:4895  if (listaGuias[i].cuenta == _cuenta) {... */\n    tag_123:\n        /* \"contracts/Usuarios.sol\":4539:4542  i++ */\n      dup1\n      dup1\n      tag_134\n      swap1\n      tag_108\n      jump\t// in\n    tag_134:\n      swap2\n      pop\n      pop\n        /* \"contracts/Usuarios.sol\":4496:4905  for (uint256 i = 0; i < listaGuias.length; i++) {... */\n      jump(tag_118)\n    tag_119:\n      pop\n        /* \"contracts/Usuarios.sol\":4914:4959  return \"Guia de Turistas eliminado con exito\" */\n      mload(0x40)\n      dup1\n      0x60\n      add\n      0x40\n      mstore\n      dup1\n      0x24\n      dup2\n      mstore\n      0x20\n      add\n      data_c9b19ca271bb17025b274d57613f75f836be0400106b0af07ea082c249005a48\n      0x24\n      swap2\n      codecopy\n      swap1\n      pop\n        /* \"contracts/Usuarios.sol\":4206:4966  function eliminarGuiaTurista(address _cuenta)... */\n      swap2\n      swap1\n      pop\n      jump\t// out\n        /* \"contracts/Usuarios.sol\":1627:2183  function registrarGuiaTurista(address _cuenta, string memory _nombre)... */\n    tag_31:\n        /* \"contracts/Usuarios.sol\":1748:1769  string memory mensaje */\n      0x60\n        /* \"contracts/Usuarios.sol\":1241:1247  duenno */\n      0x00\n      dup1\n      sload\n      swap1\n      0x0100\n      exp\n      swap1\n      div\n      0xffffffffffffffffffffffffffffffffffffffff\n      and\n        /* \"contracts/Usuarios.sol\":1227:1247  msg.sender == duenno */\n      0xffffffffffffffffffffffffffffffffffffffff\n      and\n        /* \"contracts/Usuarios.sol\":1227:1237  msg.sender */\n      caller\n        /* \"contracts/Usuarios.sol\":1227:1247  msg.sender == duenno */\n      0xffffffffffffffffffffffffffffffffffffffff\n      and\n      eq\n        /* \"contracts/Usuarios.sol\":1206:1314  require(... */\n      tag_136\n      jumpi\n      mload(0x40)\n      0x08c379a000000000000000000000000000000000000000000000000000000000\n      dup2\n      mstore\n      0x04\n      add\n      tag_137\n      swap1\n      tag_112\n      jump\t// in\n    tag_137:\n      mload(0x40)\n      dup1\n      swap2\n      sub\n      swap1\n      revert\n    tag_136:\n        /* \"contracts/Usuarios.sol\":1807:1823  guiasRegistrados */\n      0x03\n        /* \"contracts/Usuarios.sol\":1807:1832  guiasRegistrados[_cuenta] */\n      0x00\n        /* \"contracts/Usuarios.sol\":1824:1831  _cuenta */\n      dup5\n        /* \"contracts/Usuarios.sol\":1807:1832  guiasRegistrados[_cuenta] */\n      0xffffffffffffffffffffffffffffffffffffffff\n      and\n      0xffffffffffffffffffffffffffffffffffffffff\n      and\n      dup2\n      mstore\n      0x20\n      add\n      swap1\n      dup2\n      mstore\n      0x20\n      add\n      0x00\n      keccak256\n        /* \"contracts/Usuarios.sol\":1807:1839  guiasRegistrados[_cuenta].estado */\n      0x02\n      add\n      0x00\n      swap1\n      sload\n      swap1\n      0x0100\n      exp\n      swap1\n      div\n      0xff\n      and\n        /* \"contracts/Usuarios.sol\":1806:1839  !guiasRegistrados[_cuenta].estado */\n      iszero\n        /* \"contracts/Usuarios.sol\":1785:1900  require(... */\n      tag_139\n      jumpi\n      mload(0x40)\n      0x08c379a000000000000000000000000000000000000000000000000000000000\n      dup2\n      mstore\n      0x04\n      add\n      tag_140\n      swap1\n      tag_141\n      jump\t// in\n    tag_140:\n      mload(0x40)\n      dup1\n      swap2\n      sub\n      swap1\n      revert\n    tag_139:\n        /* \"contracts/Usuarios.sol\":1910:1943  GuiaTuristas memory _guiaTuristas */\n      0x00\n        /* \"contracts/Usuarios.sol\":1946:1982  GuiaTuristas(_cuenta, _nombre, true) */\n      mload(0x40)\n      dup1\n      0x60\n      add\n      0x40\n      mstore\n      dup1\n        /* \"contracts/Usuarios.sol\":1959:1966  _cuenta */\n      dup6\n        /* \"contracts/Usuarios.sol\":1946:1982  GuiaTuristas(_cuenta, _nombre, true) */\n      0xffffffffffffffffffffffffffffffffffffffff\n      and\n      dup2\n      mstore\n      0x20\n      add\n        /* \"contracts/Usuarios.sol\":1968:1975  _nombre */\n      dup5\n        /* \"contracts/Usuarios.sol\":1946:1982  GuiaTuristas(_cuenta, _nombre, true) */\n      dup2\n      mstore\n      0x20\n      add\n        /* \"contracts/Usuarios.sol\":1977:1981  true */\n      0x01\n        /* \"contracts/Usuarios.sol\":1946:1982  GuiaTuristas(_cuenta, _nombre, true) */\n      iszero\n      iszero\n      dup2\n      mstore\n      pop\n        /* \"contracts/Usuarios.sol\":1910:1982  GuiaTuristas memory _guiaTuristas = GuiaTuristas(_cuenta, _nombre, true) */\n      swap1\n      pop\n        /* \"contracts/Usuarios.sol\":2020:2033  _guiaTuristas */\n      dup1\n        /* \"contracts/Usuarios.sol\":1992:2008  guiasRegistrados */\n      0x03\n        /* \"contracts/Usuarios.sol\":1992:2017  guiasRegistrados[_cuenta] */\n      0x00\n        /* \"contracts/Usuarios.sol\":2009:2016  _cuenta */\n      dup7\n        /* \"contracts/Usuarios.sol\":1992:2017  guiasRegistrados[_cuenta] */\n      0xffffffffffffffffffffffffffffffffffffffff\n      and\n      0xffffffffffffffffffffffffffffffffffffffff\n      and\n      dup2\n      mstore\n      0x20\n      add\n      swap1\n      dup2\n      mstore\n      0x20\n      add\n      0x00\n      keccak256\n        /* \"contracts/Usuarios.sol\":1992:2033  guiasRegistrados[_cuenta] = _guiaTuristas */\n      0x00\n      dup3\n      add\n      mload\n      dup2\n      0x00\n      add\n      exp(0x0100, 0x00)\n      dup2\n      sload\n      dup2\n      0xffffffffffffffffffffffffffffffffffffffff\n      mul\n      not\n      and\n      swap1\n      dup4\n      0xffffffffffffffffffffffffffffffffffffffff\n      and\n      mul\n      or\n      swap1\n      sstore\n      pop\n      0x20\n      dup3\n      add\n      mload\n      dup2\n      0x01\n      add\n      swap1\n      dup1\n      mload\n      swap1\n      0x20\n      add\n      swap1\n      tag_142\n      swap3\n      swap2\n      swap1\n      tag_143\n      jump\t// in\n    tag_142:\n      pop\n      0x40\n      dup3\n      add\n      mload\n      dup2\n      0x02\n      add\n      exp(0x0100, 0x00)\n      dup2\n      sload\n      dup2\n      0xff\n      mul\n      not\n      and\n      swap1\n      dup4\n      iszero\n      iszero\n      mul\n      or\n      swap1\n      sstore\n      pop\n      swap1\n      pop\n      pop\n        /* \"contracts/Usuarios.sol\":2043:2053  listaGuias */\n      0x01\n        /* \"contracts/Usuarios.sol\":2059:2072  _guiaTuristas */\n      dup2\n        /* \"contracts/Usuarios.sol\":2043:2073  listaGuias.push(_guiaTuristas) */\n      swap1\n      dup1\n      0x01\n      dup2\n      sload\n      add\n      dup1\n      dup3\n      sstore\n      dup1\n      swap2\n      pop\n      pop\n      0x01\n      swap1\n      sub\n      swap1\n      0x00\n      mstore\n      keccak256(0x00, 0x20)\n      swap1\n      0x03\n      mul\n      add\n      0x00\n      swap1\n      swap2\n      swap1\n      swap2\n      swap1\n      swap2\n      pop\n      0x00\n      dup3\n      add\n      mload\n      dup2\n      0x00\n      add\n      exp(0x0100, 0x00)\n      dup2\n      sload\n      dup2\n      0xffffffffffffffffffffffffffffffffffffffff\n      mul\n      not\n      and\n      swap1\n      dup4\n      0xffffffffffffffffffffffffffffffffffffffff\n      and\n      mul\n      or\n      swap1\n      sstore\n      pop\n      0x20\n      dup3\n      add\n      mload\n      dup2\n      0x01\n      add\n      swap1\n      dup1\n      mload\n      swap1\n      0x20\n      add\n      swap1\n      tag_145\n      swap3\n      swap2\n      swap1\n      tag_143\n      jump\t// in\n    tag_145:\n      pop\n      0x40\n      dup3\n      add\n      mload\n      dup2\n      0x02\n      add\n      exp(0x0100, 0x00)\n      dup2\n      sload\n      dup2\n      0xff\n      mul\n      not\n      and\n      swap1\n      dup4\n      iszero\n      iszero\n      mul\n      or\n      swap1\n      sstore\n      pop\n      pop\n      pop\n        /* \"contracts/Usuarios.sol\":2088:2120  GuiaRegistrado(_cuenta, _nombre) */\n      0x51d926f521aa5bce4104e82a66580aa7251d9a3598bccb8ddf76febbff83576a\n        /* \"contracts/Usuarios.sol\":2103:2110  _cuenta */\n      dup5\n        /* \"contracts/Usuarios.sol\":2112:2119  _nombre */\n      dup5\n        /* \"contracts/Usuarios.sol\":2088:2120  GuiaRegistrado(_cuenta, _nombre) */\n      mload(0x40)\n      tag_146\n      swap3\n      swap2\n      swap1\n      tag_147\n      jump\t// in\n    tag_146:\n      mload(0x40)\n      dup1\n      swap2\n      sub\n      swap1\n      log1\n        /* \"contracts/Usuarios.sol\":2130:2176  return \"Guia de Turistas registrado con exito\" */\n      mload(0x40)\n      dup1\n      0x60\n      add\n      0x40\n      mstore\n      dup1\n      0x25\n      dup2\n      mstore\n      0x20\n      add\n      data_ab5ecbcd895f46bb6ad5a983fd00ba29b72331686909f50871dc662956b121c9\n      0x25\n      swap2\n      codecopy\n      swap2\n      pop\n      pop\n        /* \"contracts/Usuarios.sol\":1627:2183  function registrarGuiaTurista(address _cuenta, string memory _nombre)... */\n      swap3\n      swap2\n      pop\n      pop\n      jump\t// out\n        /* \"contracts/Usuarios.sol\":1067:1121  mapping(address => Turista) public turistasRegistrados */\n    tag_35:\n      mstore(0x20, 0x04)\n      dup1\n      0x00\n      mstore\n      keccak256(0x00, 0x40)\n      0x00\n      swap2\n      pop\n      swap1\n      pop\n      dup1\n      0x00\n      add\n      0x00\n      swap1\n      sload\n      swap1\n      0x0100\n      exp\n      swap1\n      div\n      0xffffffffffffffffffffffffffffffffffffffff\n      and\n      swap1\n      dup1\n      0x01\n      add\n      dup1\n      sload\n      tag_148\n      swap1\n      tag_100\n      jump\t// in\n    tag_148:\n      dup1\n      0x1f\n      add\n      0x20\n      dup1\n      swap2\n      div\n      mul\n      0x20\n      add\n      mload(0x40)\n      swap1\n      dup2\n      add\n      0x40\n      mstore\n      dup1\n      swap3\n      swap2\n      swap1\n      dup2\n      dup2\n      mstore\n      0x20\n      add\n      dup3\n      dup1\n      sload\n      tag_149\n      swap1\n      tag_100\n      jump\t// in\n    tag_149:\n      dup1\n      iszero\n      tag_150\n      jumpi\n      dup1\n      0x1f\n      lt\n      tag_151\n      jumpi\n      0x0100\n      dup1\n      dup4\n      sload\n      div\n      mul\n      dup4\n      mstore\n      swap2\n      0x20\n      add\n      swap2\n      jump(tag_150)\n    tag_151:\n      dup3\n      add\n      swap2\n      swap1\n      0x00\n      mstore\n      keccak256(0x00, 0x20)\n      swap1\n    tag_152:\n      dup2\n      sload\n      dup2\n      mstore\n      swap1\n      0x01\n      add\n      swap1\n      0x20\n      add\n      dup1\n      dup4\n      gt\n      tag_152\n      jumpi\n      dup3\n      swap1\n      sub\n      0x1f\n      and\n      dup3\n      add\n      swap2\n    tag_150:\n      pop\n      pop\n      pop\n      pop\n      pop\n      swap1\n      dup1\n      0x02\n      add\n      0x00\n      swap1\n      sload\n      swap1\n      0x0100\n      exp\n      swap1\n      div\n      0xff\n      and\n      swap1\n      dup1\n      0x02\n      add\n      0x01\n      swap1\n      sload\n      swap1\n      0x0100\n      exp\n      swap1\n      div\n      0xff\n      and\n      swap1\n      pop\n      dup5\n      jump\t// out\n        /* \"contracts/Usuarios.sol\":3848:4200  function verTuristas()... */\n    tag_39:\n        /* \"contracts/Usuarios.sol\":3934:3960  Turista[] memory resultado */\n      0x60\n        /* \"contracts/Usuarios.sol\":1471:1477  duenno */\n      0x00\n      dup1\n      sload\n      swap1\n      0x0100\n      exp\n      swap1\n      div\n      0xffffffffffffffffffffffffffffffffffffffff\n      and\n        /* \"contracts/Usuarios.sol\":1457:1477  msg.sender == duenno */\n      0xffffffffffffffffffffffffffffffffffffffff\n      and\n        /* \"contracts/Usuarios.sol\":1457:1467  msg.sender */\n      caller\n        /* \"contracts/Usuarios.sol\":1457:1477  msg.sender == duenno */\n      0xffffffffffffffffffffffffffffffffffffffff\n      and\n      eq\n        /* \"contracts/Usuarios.sol\":1457:1516  msg.sender == duenno || guiasRegistrados[msg.sender].estado */\n      dup1\n      tag_154\n      jumpi\n      pop\n        /* \"contracts/Usuarios.sol\":1481:1497  guiasRegistrados */\n      0x03\n        /* \"contracts/Usuarios.sol\":1481:1509  guiasRegistrados[msg.sender] */\n      0x00\n        /* \"contracts/Usuarios.sol\":1498:1508  msg.sender */\n      caller\n        /* \"contracts/Usuarios.sol\":1481:1509  guiasRegistrados[msg.sender] */\n      0xffffffffffffffffffffffffffffffffffffffff\n      and\n      0xffffffffffffffffffffffffffffffffffffffff\n      and\n      dup2\n      mstore\n      0x20\n      add\n      swap1\n      dup2\n      mstore\n      0x20\n      add\n      0x00\n      keccak256\n        /* \"contracts/Usuarios.sol\":1481:1516  guiasRegistrados[msg.sender].estado */\n      0x02\n      add\n      0x00\n      swap1\n      sload\n      swap1\n      0x0100\n      exp\n      swap1\n      div\n      0xff\n      and\n        /* \"contracts/Usuarios.sol\":1457:1516  msg.sender == duenno || guiasRegistrados[msg.sender].estado */\n    tag_154:\n        /* \"contracts/Usuarios.sol\":1436:1603  require(... */\n      tag_155\n      jumpi\n      mload(0x40)\n      0x08c379a000000000000000000000000000000000000000000000000000000000\n      dup2\n      mstore\n      0x04\n      add\n      tag_156\n      swap1\n      tag_81\n      jump\t// in\n    tag_156:\n      mload(0x40)\n      dup1\n      swap2\n      sub\n      swap1\n      revert\n    tag_155:\n        /* \"contracts/Usuarios.sol\":4002:4015  listaTuristas */\n      0x02\n        /* \"contracts/Usuarios.sol\":4002:4022  listaTuristas.length */\n      dup1\n      sload\n      swap1\n      pop\n        /* \"contracts/Usuarios.sol\":3988:4023  new Turista[](listaTuristas.length) */\n      0xffffffffffffffff\n      dup2\n      gt\n      iszero\n      tag_158\n      jumpi\n      mstore(0x00, 0x4e487b7100000000000000000000000000000000000000000000000000000000)\n      mstore(0x04, 0x41)\n      revert(0x00, 0x24)\n    tag_158:\n      mload(0x40)\n      swap1\n      dup1\n      dup3\n      mstore\n      dup1\n      0x20\n      mul\n      0x20\n      add\n      dup3\n      add\n      0x40\n      mstore\n      dup1\n      iszero\n      tag_159\n      jumpi\n      dup2\n      0x20\n      add\n    tag_160:\n      tag_161\n      tag_162\n      jump\t// in\n    tag_161:\n      dup2\n      mstore\n      0x20\n      add\n      swap1\n      0x01\n      swap1\n      sub\n      swap1\n      dup2\n      tag_160\n      jumpi\n      swap1\n      pop\n    tag_159:\n      pop\n        /* \"contracts/Usuarios.sol\":3976:4023  resultado = new Turista[](listaTuristas.length) */\n      swap1\n      pop\n        /* \"contracts/Usuarios.sol\":4038:4047  uint256 i */\n      0x00\n        /* \"contracts/Usuarios.sol\":4033:4168  for (uint256 i = 0; i < listaTuristas.length; i++) {... */\n    tag_163:\n        /* \"contracts/Usuarios.sol\":4057:4070  listaTuristas */\n      0x02\n        /* \"contracts/Usuarios.sol\":4057:4077  listaTuristas.length */\n      dup1\n      sload\n      swap1\n      pop\n        /* \"contracts/Usuarios.sol\":4053:4054  i */\n      dup2\n        /* \"contracts/Usuarios.sol\":4053:4077  i < listaTuristas.length */\n      lt\n        /* \"contracts/Usuarios.sol\":4033:4168  for (uint256 i = 0; i < listaTuristas.length; i++) {... */\n      iszero\n      tag_164\n      jumpi\n        /* \"contracts/Usuarios.sol\":4113:4132  turistasRegistrados */\n      0x04\n        /* \"contracts/Usuarios.sol\":4113:4157  turistasRegistrados[listaTuristas[i].cuenta] */\n      0x00\n        /* \"contracts/Usuarios.sol\":4133:4146  listaTuristas */\n      0x02\n        /* \"contracts/Usuarios.sol\":4147:4148  i */\n      dup4\n        /* \"contracts/Usuarios.sol\":4133:4149  listaTuristas[i] */\n      dup2\n      sload\n      dup2\n      lt\n      tag_166\n      jumpi\n      mstore(0x00, 0x4e487b7100000000000000000000000000000000000000000000000000000000)\n      mstore(0x04, 0x32)\n      revert(0x00, 0x24)\n    tag_166:\n      swap1\n      0x00\n      mstore\n      keccak256(0x00, 0x20)\n      swap1\n      0x03\n      mul\n      add\n        /* \"contracts/Usuarios.sol\":4133:4156  listaTuristas[i].cuenta */\n      0x00\n      add\n      0x00\n      swap1\n      sload\n      swap1\n      0x0100\n      exp\n      swap1\n      div\n      0xffffffffffffffffffffffffffffffffffffffff\n      and\n        /* \"contracts/Usuarios.sol\":4113:4157  turistasRegistrados[listaTuristas[i].cuenta] */\n      0xffffffffffffffffffffffffffffffffffffffff\n      and\n      0xffffffffffffffffffffffffffffffffffffffff\n      and\n      dup2\n      mstore\n      0x20\n      add\n      swap1\n      dup2\n      mstore\n      0x20\n      add\n      0x00\n      keccak256\n        /* \"contracts/Usuarios.sol\":4098:4157  resultado[i] = turistasRegistrados[listaTuristas[i].cuenta] */\n      mload(0x40)\n      dup1\n      0x80\n      add\n      0x40\n      mstore\n      swap1\n      dup2\n      0x00\n      dup3\n      add\n      0x00\n      swap1\n      sload\n      swap1\n      0x0100\n      exp\n      swap1\n      div\n      0xffffffffffffffffffffffffffffffffffffffff\n      and\n      0xffffffffffffffffffffffffffffffffffffffff\n      and\n      0xffffffffffffffffffffffffffffffffffffffff\n      and\n      dup2\n      mstore\n      0x20\n      add\n      0x01\n      dup3\n      add\n      dup1\n      sload\n      tag_168\n      swap1\n      tag_100\n      jump\t// in\n    tag_168:\n      dup1\n      0x1f\n      add\n      0x20\n      dup1\n      swap2\n      div\n      mul\n      0x20\n      add\n      mload(0x40)\n      swap1\n      dup2\n      add\n      0x40\n      mstore\n      dup1\n      swap3\n      swap2\n      swap1\n      dup2\n      dup2\n      mstore\n      0x20\n      add\n      dup3\n      dup1\n      sload\n      tag_169\n      swap1\n      tag_100\n      jump\t// in\n    tag_169:\n      dup1\n      iszero\n      tag_170\n      jumpi\n      dup1\n      0x1f\n      lt\n      tag_171\n      jumpi\n      0x0100\n      dup1\n      dup4\n      sload\n      div\n      mul\n      dup4\n      mstore\n      swap2\n      0x20\n      add\n      swap2\n      jump(tag_170)\n    tag_171:\n      dup3\n      add\n      swap2\n      swap1\n      0x00\n      mstore\n      keccak256(0x00, 0x20)\n      swap1\n    tag_172:\n      dup2\n      sload\n      dup2\n      mstore\n      swap1\n      0x01\n      add\n      swap1\n      0x20\n      add\n      dup1\n      dup4\n      gt\n      tag_172\n      jumpi\n      dup3\n      swap1\n      sub\n      0x1f\n      and\n      dup3\n      add\n      swap2\n    tag_170:\n      pop\n      pop\n      pop\n      pop\n      pop\n      dup2\n      mstore\n      0x20\n      add\n      0x02\n      dup3\n      add\n      0x00\n      swap1\n      sload\n      swap1\n      0x0100\n      exp\n      swap1\n      div\n      0xff\n      and\n      0xff\n      and\n      0xff\n      and\n      dup2\n      mstore\n      0x20\n      add\n      0x02\n      dup3\n      add\n      0x01\n      swap1\n      sload\n      swap1\n      0x0100\n      exp\n      swap1\n      div\n      0xff\n      and\n      iszero\n      iszero\n      iszero\n      iszero\n      dup2\n      mstore\n      pop\n      pop\n        /* \"contracts/Usuarios.sol\":4098:4107  resultado */\n      dup3\n        /* \"contracts/Usuarios.sol\":4108:4109  i */\n      dup3\n        /* \"contracts/Usuarios.sol\":4098:4110  resultado[i] */\n      dup2\n      mload\n      dup2\n      lt\n      tag_173\n      jumpi\n      mstore(0x00, 0x4e487b7100000000000000000000000000000000000000000000000000000000)\n      mstore(0x04, 0x32)\n      revert(0x00, 0x24)\n    tag_173:\n      0x20\n      mul\n      0x20\n      add\n      add\n        /* \"contracts/Usuarios.sol\":4098:4157  resultado[i] = turistasRegistrados[listaTuristas[i].cuenta] */\n      dup2\n      swap1\n      mstore\n      pop\n        /* \"contracts/Usuarios.sol\":4079:4082  i++ */\n      dup1\n      dup1\n      tag_174\n      swap1\n      tag_108\n      jump\t// in\n    tag_174:\n      swap2\n      pop\n      pop\n        /* \"contracts/Usuarios.sol\":4033:4168  for (uint256 i = 0; i < listaTuristas.length; i++) {... */\n      jump(tag_163)\n    tag_164:\n      pop\n        /* \"contracts/Usuarios.sol\":3848:4200  function verTuristas()... */\n      swap1\n      jump\t// out\n        /* \"contracts/Usuarios.sol\":2189:2732  function registrarTurista(... */\n    tag_45:\n        /* \"contracts/Usuarios.sol\":2324:2345  string memory mensaje */\n      0x60\n        /* \"contracts/Usuarios.sol\":1471:1477  duenno */\n      0x00\n      dup1\n      sload\n      swap1\n      0x0100\n      exp\n      swap1\n      div\n      0xffffffffffffffffffffffffffffffffffffffff\n      and\n        /* \"contracts/Usuarios.sol\":1457:1477  msg.sender == duenno */\n      0xffffffffffffffffffffffffffffffffffffffff\n      and\n        /* \"contracts/Usuarios.sol\":1457:1467  msg.sender */\n      caller\n        /* \"contracts/Usuarios.sol\":1457:1477  msg.sender == duenno */\n      0xffffffffffffffffffffffffffffffffffffffff\n      and\n      eq\n        /* \"contracts/Usuarios.sol\":1457:1516  msg.sender == duenno || guiasRegistrados[msg.sender].estado */\n      dup1\n      tag_176\n      jumpi\n      pop\n        /* \"contracts/Usuarios.sol\":1481:1497  guiasRegistrados */\n      0x03\n        /* \"contracts/Usuarios.sol\":1481:1509  guiasRegistrados[msg.sender] */\n      0x00\n        /* \"contracts/Usuarios.sol\":1498:1508  msg.sender */\n      caller\n        /* \"contracts/Usuarios.sol\":1481:1509  guiasRegistrados[msg.sender] */\n      0xffffffffffffffffffffffffffffffffffffffff\n      and\n      0xffffffffffffffffffffffffffffffffffffffff\n      and\n      dup2\n      mstore\n      0x20\n      add\n      swap1\n      dup2\n      mstore\n      0x20\n      add\n      0x00\n      keccak256\n        /* \"contracts/Usuarios.sol\":1481:1516  guiasRegistrados[msg.sender].estado */\n      0x02\n      add\n      0x00\n      swap1\n      sload\n      swap1\n      0x0100\n      exp\n      swap1\n      div\n      0xff\n      and\n        /* \"contracts/Usuarios.sol\":1457:1516  msg.sender == duenno || guiasRegistrados[msg.sender].estado */\n    tag_176:\n        /* \"contracts/Usuarios.sol\":1436:1603  require(... */\n      tag_177\n      jumpi\n      mload(0x40)\n      0x08c379a000000000000000000000000000000000000000000000000000000000\n      dup2\n      mstore\n      0x04\n      add\n      tag_178\n      swap1\n      tag_81\n      jump\t// in\n    tag_178:\n      mload(0x40)\n      dup1\n      swap2\n      sub\n      swap1\n      revert\n    tag_177:\n        /* \"contracts/Usuarios.sol\":2379:2398  turistasRegistrados */\n      0x04\n        /* \"contracts/Usuarios.sol\":2379:2407  turistasRegistrados[_cuenta] */\n      0x00\n        /* \"contracts/Usuarios.sol\":2399:2406  _cuenta */\n      dup6\n        /* \"contracts/Usuarios.sol\":2379:2407  turistasRegistrados[_cuenta] */\n      0xffffffffffffffffffffffffffffffffffffffff\n      and\n      0xffffffffffffffffffffffffffffffffffffffff\n      and\n      dup2\n      mstore\n      0x20\n      add\n      swap1\n      dup2\n      mstore\n      0x20\n      add\n      0x00\n      keccak256\n        /* \"contracts/Usuarios.sol\":2379:2414  turistasRegistrados[_cuenta].estado */\n      0x02\n      add\n      0x01\n      swap1\n      sload\n      swap1\n      0x0100\n      exp\n      swap1\n      div\n      0xff\n      and\n        /* \"contracts/Usuarios.sol\":2378:2414  !turistasRegistrados[_cuenta].estado */\n      iszero\n        /* \"contracts/Usuarios.sol\":2357:2466  require(... */\n      tag_180\n      jumpi\n      mload(0x40)\n      0x08c379a000000000000000000000000000000000000000000000000000000000\n      dup2\n      mstore\n      0x04\n      add\n      tag_181\n      swap1\n      tag_182\n      jump\t// in\n    tag_181:\n      mload(0x40)\n      dup1\n      swap2\n      sub\n      swap1\n      revert\n    tag_180:\n        /* \"contracts/Usuarios.sol\":2476:2499  Turista memory _turista */\n      0x00\n        /* \"contracts/Usuarios.sol\":2503:2541  Turista(_cuenta, _nombre, _edad, true) */\n      mload(0x40)\n      dup1\n      0x80\n      add\n      0x40\n      mstore\n      dup1\n        /* \"contracts/Usuarios.sol\":2511:2518  _cuenta */\n      dup7\n        /* \"contracts/Usuarios.sol\":2503:2541  Turista(_cuenta, _nombre, _edad, true) */\n      0xffffffffffffffffffffffffffffffffffffffff\n      and\n      dup2\n      mstore\n      0x20\n      add\n        /* \"contracts/Usuarios.sol\":2520:2527  _nombre */\n      dup6\n        /* \"contracts/Usuarios.sol\":2503:2541  Turista(_cuenta, _nombre, _edad, true) */\n      dup2\n      mstore\n      0x20\n      add\n        /* \"contracts/Usuarios.sol\":2529:2534  _edad */\n      dup5\n        /* \"contracts/Usuarios.sol\":2503:2541  Turista(_cuenta, _nombre, _edad, true) */\n      0xff\n      and\n      dup2\n      mstore\n      0x20\n      add\n        /* \"contracts/Usuarios.sol\":2536:2540  true */\n      0x01\n        /* \"contracts/Usuarios.sol\":2503:2541  Turista(_cuenta, _nombre, _edad, true) */\n      iszero\n      iszero\n      dup2\n      mstore\n      pop\n        /* \"contracts/Usuarios.sol\":2476:2541  Turista memory _turista =  Turista(_cuenta, _nombre, _edad, true) */\n      swap1\n      pop\n        /* \"contracts/Usuarios.sol\":2582:2590  _turista */\n      dup1\n        /* \"contracts/Usuarios.sol\":2551:2570  turistasRegistrados */\n      0x04\n        /* \"contracts/Usuarios.sol\":2551:2579  turistasRegistrados[_cuenta] */\n      0x00\n        /* \"contracts/Usuarios.sol\":2571:2578  _cuenta */\n      dup8\n        /* \"contracts/Usuarios.sol\":2551:2579  turistasRegistrados[_cuenta] */\n      0xffffffffffffffffffffffffffffffffffffffff\n      and\n      0xffffffffffffffffffffffffffffffffffffffff\n      and\n      dup2\n      mstore\n      0x20\n      add\n      swap1\n      dup2\n      mstore\n      0x20\n      add\n      0x00\n      keccak256\n        /* \"contracts/Usuarios.sol\":2551:2590  turistasRegistrados[_cuenta] = _turista */\n      0x00\n      dup3\n      add\n      mload\n      dup2\n      0x00\n      add\n      exp(0x0100, 0x00)\n      dup2\n      sload\n      dup2\n      0xffffffffffffffffffffffffffffffffffffffff\n      mul\n      not\n      and\n      swap1\n      dup4\n      0xffffffffffffffffffffffffffffffffffffffff\n      and\n      mul\n      or\n      swap1\n      sstore\n      pop\n      0x20\n      dup3\n      add\n      mload\n      dup2\n      0x01\n      add\n      swap1\n      dup1\n      mload\n      swap1\n      0x20\n      add\n      swap1\n      tag_183\n      swap3\n      swap2\n      swap1\n      tag_143\n      jump\t// in\n    tag_183:\n      pop\n      0x40\n      dup3\n      add\n      mload\n      dup2\n      0x02\n      add\n      exp(0x0100, 0x00)\n      dup2\n      sload\n      dup2\n      0xff\n      mul\n      not\n      and\n      swap1\n      dup4\n      0xff\n      and\n      mul\n      or\n      swap1\n      sstore\n      pop\n      0x60\n      dup3\n      add\n      mload\n      dup2\n      0x02\n      add\n      exp(0x0100, 0x01)\n      dup2\n      sload\n      dup2\n      0xff\n      mul\n      not\n      and\n      swap1\n      dup4\n      iszero\n      iszero\n      mul\n      or\n      swap1\n      sstore\n      pop\n      swap1\n      pop\n      pop\n        /* \"contracts/Usuarios.sol\":2600:2613  listaTuristas */\n      0x02\n        /* \"contracts/Usuarios.sol\":2619:2627  _turista */\n      dup2\n        /* \"contracts/Usuarios.sol\":2600:2628  listaTuristas.push(_turista) */\n      swap1\n      dup1\n      0x01\n      dup2\n      sload\n      add\n      dup1\n      dup3\n      sstore\n      dup1\n      swap2\n      pop\n      pop\n      0x01\n      swap1\n      sub\n      swap1\n      0x00\n      mstore\n      keccak256(0x00, 0x20)\n      swap1\n      0x03\n      mul\n      add\n      0x00\n      swap1\n      swap2\n      swap1\n      swap2\n      swap1\n      swap2\n      pop\n      0x00\n      dup3\n      add\n      mload\n      dup2\n      0x00\n      add\n      exp(0x0100, 0x00)\n      dup2\n      sload\n      dup2\n      0xffffffffffffffffffffffffffffffffffffffff\n      mul\n      not\n      and\n      swap1\n      dup4\n      0xffffffffffffffffffffffffffffffffffffffff\n      and\n      mul\n      or\n      swap1\n      sstore\n      pop\n      0x20\n      dup3\n      add\n      mload\n      dup2\n      0x01\n      add\n      swap1\n      dup1\n      mload\n      swap1\n      0x20\n      add\n      swap1\n      tag_185\n      swap3\n      swap2\n      swap1\n      tag_143\n      jump\t// in\n    tag_185:\n      pop\n      0x40\n      dup3\n      add\n      mload\n      dup2\n      0x02\n      add\n      exp(0x0100, 0x00)\n      dup2\n      sload\n      dup2\n      0xff\n      mul\n      not\n      and\n      swap1\n      dup4\n      0xff\n      and\n      mul\n      or\n      swap1\n      sstore\n      pop\n      0x60\n      dup3\n      add\n      mload\n      dup2\n      0x02\n      add\n      exp(0x0100, 0x01)\n      dup2\n      sload\n      dup2\n      0xff\n      mul\n      not\n      and\n      swap1\n      dup4\n      iszero\n      iszero\n      mul\n      or\n      swap1\n      sstore\n      pop\n      pop\n      pop\n        /* \"contracts/Usuarios.sol\":2643:2678  TuristaRegistrado(_cuenta, _nombre) */\n      0x6e3e05804c481790319a6706171e0354dbe5b600f1a3a8b4e12a70a2892f8d7d\n        /* \"contracts/Usuarios.sol\":2661:2668  _cuenta */\n      dup6\n        /* \"contracts/Usuarios.sol\":2670:2677  _nombre */\n      dup6\n        /* \"contracts/Usuarios.sol\":2643:2678  TuristaRegistrado(_cuenta, _nombre) */\n      mload(0x40)\n      tag_186\n      swap3\n      swap2\n      swap1\n      tag_147\n      jump\t// in\n    tag_186:\n      mload(0x40)\n      dup1\n      swap2\n      sub\n      swap1\n      log1\n        /* \"contracts/Usuarios.sol\":2688:2725  return \"Turista registrado con exito\" */\n      mload(0x40)\n      dup1\n      0x40\n      add\n      0x40\n      mstore\n      dup1\n      0x1c\n      dup2\n      mstore\n      0x20\n      add\n      0x54757269737461207265676973747261646f20636f6e20657869746f00000000\n      dup2\n      mstore\n      pop\n      swap2\n      pop\n      pop\n        /* \"contracts/Usuarios.sol\":2189:2732  function registrarTurista(... */\n      swap4\n      swap3\n      pop\n      pop\n      pop\n      jump\t// out\n        /* \"contracts/Usuarios.sol\":1005:1061  mapping(address => GuiaTuristas) public guiasRegistrados */\n    tag_49:\n      mstore(0x20, 0x03)\n      dup1\n      0x00\n      mstore\n      keccak256(0x00, 0x40)\n      0x00\n      swap2\n      pop\n      swap1\n      pop\n      dup1\n      0x00\n      add\n      0x00\n      swap1\n      sload\n      swap1\n      0x0100\n      exp\n      swap1\n      div\n      0xffffffffffffffffffffffffffffffffffffffff\n      and\n      swap1\n      dup1\n      0x01\n      add\n      dup1\n      sload\n      tag_187\n      swap1\n      tag_100\n      jump\t// in\n    tag_187:\n      dup1\n      0x1f\n      add\n      0x20\n      dup1\n      swap2\n      div\n      mul\n      0x20\n      add\n      mload(0x40)\n      swap1\n      dup2\n      add\n      0x40\n      mstore\n      dup1\n      swap3\n      swap2\n      swap1\n      dup2\n      dup2\n      mstore\n      0x20\n      add\n      dup3\n      dup1\n      sload\n      tag_188\n      swap1\n      tag_100\n      jump\t// in\n    tag_188:\n      dup1\n      iszero\n      tag_189\n      jumpi\n      dup1\n      0x1f\n      lt\n      tag_190\n      jumpi\n      0x0100\n      dup1\n      dup4\n      sload\n      div\n      mul\n      dup4\n      mstore\n      swap2\n      0x20\n      add\n      swap2\n      jump(tag_189)\n    tag_190:\n      dup3\n      add\n      swap2\n      swap1\n      0x00\n      mstore\n      keccak256(0x00, 0x20)\n      swap1\n    tag_191:\n      dup2\n      sload\n      dup2\n      mstore\n      swap1\n      0x01\n      add\n      swap1\n      0x20\n      add\n      dup1\n      dup4\n      gt\n      tag_191\n      jumpi\n      dup3\n      swap1\n      sub\n      0x1f\n      and\n      dup3\n      add\n      swap2\n    tag_189:\n      pop\n      pop\n      pop\n      pop\n      pop\n      swap1\n      dup1\n      0x02\n      add\n      0x00\n      swap1\n      sload\n      swap1\n      0x0100\n      exp\n      swap1\n      div\n      0xff\n      and\n      swap1\n      pop\n      dup4\n      jump\t// out\n        /* \"contracts/Usuarios.sol\":822:854  GuiaTuristas[] public listaGuias */\n    tag_55:\n      0x01\n      dup2\n      dup2\n      sload\n      dup2\n      lt\n      tag_192\n      jumpi\n      0x00\n      dup1\n      revert\n    tag_192:\n      swap1\n      0x00\n      mstore\n      keccak256(0x00, 0x20)\n      swap1\n      0x03\n      mul\n      add\n      0x00\n      swap2\n      pop\n      swap1\n      pop\n      dup1\n      0x00\n      add\n      0x00\n      swap1\n      sload\n      swap1\n      0x0100\n      exp\n      swap1\n      div\n      0xffffffffffffffffffffffffffffffffffffffff\n      and\n      swap1\n      dup1\n      0x01\n      add\n      dup1\n      sload\n      tag_194\n      swap1\n      tag_100\n      jump\t// in\n    tag_194:\n      dup1\n      0x1f\n      add\n      0x20\n      dup1\n      swap2\n      div\n      mul\n      0x20\n      add\n      mload(0x40)\n      swap1\n      dup2\n      add\n      0x40\n      mstore\n      dup1\n      swap3\n      swap2\n      swap1\n      dup2\n      dup2\n      mstore\n      0x20\n      add\n      dup3\n      dup1\n      sload\n      tag_195\n      swap1\n      tag_100\n      jump\t// in\n    tag_195:\n      dup1\n      iszero\n      tag_196\n      jumpi\n      dup1\n      0x1f\n      lt\n      tag_197\n      jumpi\n      0x0100\n      dup1\n      dup4\n      sload\n      div\n      mul\n      dup4\n      mstore\n      swap2\n      0x20\n      add\n      swap2\n      jump(tag_196)\n    tag_197:\n      dup3\n      add\n      swap2\n      swap1\n      0x00\n      mstore\n      keccak256(0x00, 0x20)\n      swap1\n    tag_198:\n      dup2\n      sload\n      dup2\n      mstore\n      swap1\n      0x01\n      add\n      swap1\n      0x20\n      add\n      dup1\n      dup4\n      gt\n      tag_198\n      jumpi\n      dup3\n      swap1\n      sub\n      0x1f\n      and\n      dup3\n      add\n      swap2\n    tag_196:\n      pop\n      pop\n      pop\n      pop\n      pop\n      swap1\n      dup1\n      0x02\n      add\n      0x00\n      swap1\n      sload\n      swap1\n      0x0100\n      exp\n      swap1\n      div\n      0xff\n      and\n      swap1\n      pop\n      dup4\n      jump\t// out\n        /* \"contracts/Usuarios.sol\":3061:3488  function verTurista(address _cuenta)... */\n    tag_59:\n        /* \"contracts/Usuarios.sol\":3156:3170  address cuenta */\n      0x00\n        /* \"contracts/Usuarios.sol\":3184:3204  string memory nombre */\n      0x60\n        /* \"contracts/Usuarios.sol\":3218:3228  uint8 edad */\n      0x00\n        /* \"contracts/Usuarios.sol\":3242:3253  bool activo */\n      dup1\n        /* \"contracts/Usuarios.sol\":3278:3301  Turista memory _turista */\n      0x00\n        /* \"contracts/Usuarios.sol\":3304:3323  turistasRegistrados */\n      0x04\n        /* \"contracts/Usuarios.sol\":3304:3332  turistasRegistrados[_cuenta] */\n      0x00\n        /* \"contracts/Usuarios.sol\":3324:3331  _cuenta */\n      dup8\n        /* \"contracts/Usuarios.sol\":3304:3332  turistasRegistrados[_cuenta] */\n      0xffffffffffffffffffffffffffffffffffffffff\n      and\n      0xffffffffffffffffffffffffffffffffffffffff\n      and\n      dup2\n      mstore\n      0x20\n      add\n      swap1\n      dup2\n      mstore\n      0x20\n      add\n      0x00\n      keccak256\n        /* \"contracts/Usuarios.sol\":3278:3332  Turista memory _turista = turistasRegistrados[_cuenta] */\n      mload(0x40)\n      dup1\n      0x80\n      add\n      0x40\n      mstore\n      swap1\n      dup2\n      0x00\n      dup3\n      add\n      0x00\n      swap1\n      sload\n      swap1\n      0x0100\n      exp\n      swap1\n      div\n      0xffffffffffffffffffffffffffffffffffffffff\n      and\n      0xffffffffffffffffffffffffffffffffffffffff\n      and\n      0xffffffffffffffffffffffffffffffffffffffff\n      and\n      dup2\n      mstore\n      0x20\n      add\n      0x01\n      dup3\n      add\n      dup1\n      sload\n      tag_200\n      swap1\n      tag_100\n      jump\t// in\n    tag_200:\n      dup1\n      0x1f\n      add\n      0x20\n      dup1\n      swap2\n      div\n      mul\n      0x20\n      add\n      mload(0x40)\n      swap1\n      dup2\n      add\n      0x40\n      mstore\n      dup1\n      swap3\n      swap2\n      swap1\n      dup2\n      dup2\n      mstore\n      0x20\n      add\n      dup3\n      dup1\n      sload\n      tag_201\n      swap1\n      tag_100\n      jump\t// in\n    tag_201:\n      dup1\n      iszero\n      tag_202\n      jumpi\n      dup1\n      0x1f\n      lt\n      tag_203\n      jumpi\n      0x0100\n      dup1\n      dup4\n      sload\n      div\n      mul\n      dup4\n      mstore\n      swap2\n      0x20\n      add\n      swap2\n      jump(tag_202)\n    tag_203:\n      dup3\n      add\n      swap2\n      swap1\n      0x00\n      mstore\n      keccak256(0x00, 0x20)\n      swap1\n    tag_204:\n      dup2\n      sload\n      dup2\n      mstore\n      swap1\n      0x01\n      add\n      swap1\n      0x20\n      add\n      dup1\n      dup4\n      gt\n      tag_204\n      jumpi\n      dup3\n      swap1\n      sub\n      0x1f\n      and\n      dup3\n      add\n      swap2\n    tag_202:\n      pop\n      pop\n      pop\n      pop\n      pop\n      dup2\n      mstore\n      0x20\n      add\n      0x02\n      dup3\n      add\n      0x00\n      swap1\n      sload\n      swap1\n      0x0100\n      exp\n      swap1\n      div\n      0xff\n      and\n      0xff\n      and\n      0xff\n      and\n      dup2\n      mstore\n      0x20\n      add\n      0x02\n      dup3\n      add\n      0x01\n      swap1\n      sload\n      swap1\n      0x0100\n      exp\n      swap1\n      div\n      0xff\n      and\n      iszero\n      iszero\n      iszero\n      iszero\n      dup2\n      mstore\n      pop\n      pop\n      swap1\n      pop\n        /* \"contracts/Usuarios.sol\":3363:3371  _turista */\n      dup1\n        /* \"contracts/Usuarios.sol\":3363:3378  _turista.cuenta */\n      0x00\n      add\n      mload\n        /* \"contracts/Usuarios.sol\":3392:3400  _turista */\n      dup2\n        /* \"contracts/Usuarios.sol\":3392:3415  _turista.nombreCompleto */\n      0x20\n      add\n      mload\n        /* \"contracts/Usuarios.sol\":3429:3437  _turista */\n      dup3\n        /* \"contracts/Usuarios.sol\":3429:3442  _turista.edad */\n      0x40\n      add\n      mload\n        /* \"contracts/Usuarios.sol\":3456:3464  _turista */\n      dup4\n        /* \"contracts/Usuarios.sol\":3456:3471  _turista.estado */\n      0x60\n      add\n      mload\n        /* \"contracts/Usuarios.sol\":3342:3481  return (... */\n      swap5\n      pop\n      swap5\n      pop\n      swap5\n      pop\n      swap5\n      pop\n      pop\n        /* \"contracts/Usuarios.sol\":3061:3488  function verTurista(address _cuenta)... */\n      swap2\n      swap4\n      pop\n      swap2\n      swap4\n      jump\t// out\n        /* \"contracts/Usuarios.sol\":3494:3842  function verGuias()... */\n    tag_62:\n        /* \"contracts/Usuarios.sol\":3578:3609  GuiaTuristas[] memory resultado */\n      0x60\n        /* \"contracts/Usuarios.sol\":1241:1247  duenno */\n      0x00\n      dup1\n      sload\n      swap1\n      0x0100\n      exp\n      swap1\n      div\n      0xffffffffffffffffffffffffffffffffffffffff\n      and\n        /* \"contracts/Usuarios.sol\":1227:1247  msg.sender == duenno */\n      0xffffffffffffffffffffffffffffffffffffffff\n      and\n        /* \"contracts/Usuarios.sol\":1227:1237  msg.sender */\n      caller\n        /* \"contracts/Usuarios.sol\":1227:1247  msg.sender == duenno */\n      0xffffffffffffffffffffffffffffffffffffffff\n      and\n      eq\n        /* \"contracts/Usuarios.sol\":1206:1314  require(... */\n      tag_206\n      jumpi\n      mload(0x40)\n      0x08c379a000000000000000000000000000000000000000000000000000000000\n      dup2\n      mstore\n      0x04\n      add\n      tag_207\n      swap1\n      tag_112\n      jump\t// in\n    tag_207:\n      mload(0x40)\n      dup1\n      swap2\n      sub\n      swap1\n      revert\n    tag_206:\n        /* \"contracts/Usuarios.sol\":3656:3666  listaGuias */\n      0x01\n        /* \"contracts/Usuarios.sol\":3656:3673  listaGuias.length */\n      dup1\n      sload\n      swap1\n      pop\n        /* \"contracts/Usuarios.sol\":3637:3674  new GuiaTuristas[](listaGuias.length) */\n      0xffffffffffffffff\n      dup2\n      gt\n      iszero\n      tag_209\n      jumpi\n      mstore(0x00, 0x4e487b7100000000000000000000000000000000000000000000000000000000)\n      mstore(0x04, 0x41)\n      revert(0x00, 0x24)\n    tag_209:\n      mload(0x40)\n      swap1\n      dup1\n      dup3\n      mstore\n      dup1\n      0x20\n      mul\n      0x20\n      add\n      dup3\n      add\n      0x40\n      mstore\n      dup1\n      iszero\n      tag_210\n      jumpi\n      dup2\n      0x20\n      add\n    tag_211:\n      tag_212\n      tag_213\n      jump\t// in\n    tag_212:\n      dup2\n      mstore\n      0x20\n      add\n      swap1\n      0x01\n      swap1\n      sub\n      swap1\n      dup2\n      tag_211\n      jumpi\n      swap1\n      pop\n    tag_210:\n      pop\n        /* \"contracts/Usuarios.sol\":3625:3674  resultado = new GuiaTuristas[](listaGuias.length) */\n      swap1\n      pop\n        /* \"contracts/Usuarios.sol\":3689:3698  uint256 i */\n      0x00\n        /* \"contracts/Usuarios.sol\":3684:3810  for (uint256 i = 0; i < listaGuias.length; i++) {... */\n    tag_214:\n        /* \"contracts/Usuarios.sol\":3708:3718  listaGuias */\n      0x01\n        /* \"contracts/Usuarios.sol\":3708:3725  listaGuias.length */\n      dup1\n      sload\n      swap1\n      pop\n        /* \"contracts/Usuarios.sol\":3704:3705  i */\n      dup2\n        /* \"contracts/Usuarios.sol\":3704:3725  i < listaGuias.length */\n      lt\n        /* \"contracts/Usuarios.sol\":3684:3810  for (uint256 i = 0; i < listaGuias.length; i++) {... */\n      iszero\n      tag_215\n      jumpi\n        /* \"contracts/Usuarios.sol\":3761:3777  guiasRegistrados */\n      0x03\n        /* \"contracts/Usuarios.sol\":3761:3799  guiasRegistrados[listaGuias[i].cuenta] */\n      0x00\n        /* \"contracts/Usuarios.sol\":3778:3788  listaGuias */\n      0x01\n        /* \"contracts/Usuarios.sol\":3789:3790  i */\n      dup4\n        /* \"contracts/Usuarios.sol\":3778:3791  listaGuias[i] */\n      dup2\n      sload\n      dup2\n      lt\n      tag_217\n      jumpi\n      mstore(0x00, 0x4e487b7100000000000000000000000000000000000000000000000000000000)\n      mstore(0x04, 0x32)\n      revert(0x00, 0x24)\n    tag_217:\n      swap1\n      0x00\n      mstore\n      keccak256(0x00, 0x20)\n      swap1\n      0x03\n      mul\n      add\n        /* \"contracts/Usuarios.sol\":3778:3798  listaGuias[i].cuenta */\n      0x00\n      add\n      0x00\n      swap1\n      sload\n      swap1\n      0x0100\n      exp\n      swap1\n      div\n      0xffffffffffffffffffffffffffffffffffffffff\n      and\n        /* \"contracts/Usuarios.sol\":3761:3799  guiasRegistrados[listaGuias[i].cuenta] */\n      0xffffffffffffffffffffffffffffffffffffffff\n      and\n      0xffffffffffffffffffffffffffffffffffffffff\n      and\n      dup2\n      mstore\n      0x20\n      add\n      swap1\n      dup2\n      mstore\n      0x20\n      add\n      0x00\n      keccak256\n        /* \"contracts/Usuarios.sol\":3746:3799  resultado[i] = guiasRegistrados[listaGuias[i].cuenta] */\n      mload(0x40)\n      dup1\n      0x60\n      add\n      0x40\n      mstore\n      swap1\n      dup2\n      0x00\n      dup3\n      add\n      0x00\n      swap1\n      sload\n      swap1\n      0x0100\n      exp\n      swap1\n      div\n      0xffffffffffffffffffffffffffffffffffffffff\n      and\n      0xffffffffffffffffffffffffffffffffffffffff\n      and\n      0xffffffffffffffffffffffffffffffffffffffff\n      and\n      dup2\n      mstore\n      0x20\n      add\n      0x01\n      dup3\n      add\n      dup1\n      sload\n      tag_219\n      swap1\n      tag_100\n      jump\t// in\n    tag_219:\n      dup1\n      0x1f\n      add\n      0x20\n      dup1\n      swap2\n      div\n      mul\n      0x20\n      add\n      mload(0x40)\n      swap1\n      dup2\n      add\n      0x40\n      mstore\n      dup1\n      swap3\n      swap2\n      swap1\n      dup2\n      dup2\n      mstore\n      0x20\n      add\n      dup3\n      dup1\n      sload\n      tag_220\n      swap1\n      tag_100\n      jump\t// in\n    tag_220:\n      dup1\n      iszero\n      tag_221\n      jumpi\n      dup1\n      0x1f\n      lt\n      tag_222\n      jumpi\n      0x0100\n      dup1\n      dup4\n      sload\n      div\n      mul\n      dup4\n      mstore\n      swap2\n      0x20\n      add\n      swap2\n      jump(tag_221)\n    tag_222:\n      dup3\n      add\n      swap2\n      swap1\n      0x00\n      mstore\n      keccak256(0x00, 0x20)\n      swap1\n    tag_223:\n      dup2\n      sload\n      dup2\n      mstore\n      swap1\n      0x01\n      add\n      swap1\n      0x20\n      add\n      dup1\n      dup4\n      gt\n      tag_223\n      jumpi\n      dup3\n      swap1\n      sub\n      0x1f\n      and\n      dup3\n      add\n      swap2\n    tag_221:\n      pop\n      pop\n      pop\n      pop\n      pop\n      dup2\n      mstore\n      0x20\n      add\n      0x02\n      dup3\n      add\n      0x00\n      swap1\n      sload\n      swap1\n      0x0100\n      exp\n      swap1\n      div\n      0xff\n      and\n      iszero\n      iszero\n      iszero\n      iszero\n      dup2\n      mstore\n      pop\n      pop\n        /* \"contracts/Usuarios.sol\":3746:3755  resultado */\n      dup3\n        /* \"contracts/Usuarios.sol\":3756:3757  i */\n      dup3\n        /* \"contracts/Usuarios.sol\":3746:3758  resultado[i] */\n      dup2\n      mload\n      dup2\n      lt\n      tag_224\n      jumpi\n      mstore(0x00, 0x4e487b7100000000000000000000000000000000000000000000000000000000)\n      mstore(0x04, 0x32)\n      revert(0x00, 0x24)\n    tag_224:\n      0x20\n      mul\n      0x20\n      add\n      add\n        /* \"contracts/Usuarios.sol\":3746:3799  resultado[i] = guiasRegistrados[listaGuias[i].cuenta] */\n      dup2\n      swap1\n      mstore\n      pop\n        /* \"contracts/Usuarios.sol\":3727:3730  i++ */\n      dup1\n      dup1\n      tag_225\n      swap1\n      tag_108\n      jump\t// in\n    tag_225:\n      swap2\n      pop\n      pop\n        /* \"contracts/Usuarios.sol\":3684:3810  for (uint256 i = 0; i < listaGuias.length; i++) {... */\n      jump(tag_214)\n    tag_215:\n      pop\n        /* \"contracts/Usuarios.sol\":3494:3842  function verGuias()... */\n      swap1\n      jump\t// out\n        /* \"contracts/Usuarios.sol\":666:687  address public duenno */\n    tag_66:\n      0x00\n      dup1\n      sload\n      swap1\n      0x0100\n      exp\n      swap1\n      div\n      0xffffffffffffffffffffffffffffffffffffffff\n      and\n      dup2\n      jump\t// out\n        /* \"contracts/Usuarios.sol\":2738:3055  function verGuia(address _cuenta)... */\n    tag_71:\n        /* \"contracts/Usuarios.sol\":2830:2844  address cuenta */\n      0x00\n        /* \"contracts/Usuarios.sol\":2858:2878  string memory nombre */\n      0x60\n        /* \"contracts/Usuarios.sol\":2892:2903  bool activo */\n      0x00\n        /* \"contracts/Usuarios.sol\":2928:2953  GuiaTuristas memory _guia */\n      dup1\n        /* \"contracts/Usuarios.sol\":2956:2972  guiasRegistrados */\n      0x03\n        /* \"contracts/Usuarios.sol\":2956:2981  guiasRegistrados[_cuenta] */\n      0x00\n        /* \"contracts/Usuarios.sol\":2973:2980  _cuenta */\n      dup7\n        /* \"contracts/Usuarios.sol\":2956:2981  guiasRegistrados[_cuenta] */\n      0xffffffffffffffffffffffffffffffffffffffff\n      and\n      0xffffffffffffffffffffffffffffffffffffffff\n      and\n      dup2\n      mstore\n      0x20\n      add\n      swap1\n      dup2\n      mstore\n      0x20\n      add\n      0x00\n      keccak256\n        /* \"contracts/Usuarios.sol\":2928:2981  GuiaTuristas memory _guia = guiasRegistrados[_cuenta] */\n      mload(0x40)\n      dup1\n      0x60\n      add\n      0x40\n      mstore\n      swap1\n      dup2\n      0x00\n      dup3\n      add\n      0x00\n      swap1\n      sload\n      swap1\n      0x0100\n      exp\n      swap1\n      div\n      0xffffffffffffffffffffffffffffffffffffffff\n      and\n      0xffffffffffffffffffffffffffffffffffffffff\n      and\n      0xffffffffffffffffffffffffffffffffffffffff\n      and\n      dup2\n      mstore\n      0x20\n      add\n      0x01\n      dup3\n      add\n      dup1\n      sload\n      tag_227\n      swap1\n      tag_100\n      jump\t// in\n    tag_227:\n      dup1\n      0x1f\n      add\n      0x20\n      dup1\n      swap2\n      div\n      mul\n      0x20\n      add\n      mload(0x40)\n      swap1\n      dup2\n      add\n      0x40\n      mstore\n      dup1\n      swap3\n      swap2\n      swap1\n      dup2\n      dup2\n      mstore\n      0x20\n      add\n      dup3\n      dup1\n      sload\n      tag_228\n      swap1\n      tag_100\n      jump\t// in\n    tag_228:\n      dup1\n      iszero\n      tag_229\n      jumpi\n      dup1\n      0x1f\n      lt\n      tag_230\n      jumpi\n      0x0100\n      dup1\n      dup4\n      sload\n      div\n      mul\n      dup4\n      mstore\n      swap2\n      0x20\n      add\n      swap2\n      jump(tag_229)\n    tag_230:\n      dup3\n      add\n      swap2\n      swap1\n      0x00\n      mstore\n      keccak256(0x00, 0x20)\n      swap1\n    tag_231:\n      dup2\n      sload\n      dup2\n      mstore\n      swap1\n      0x01\n      add\n      swap1\n      0x20\n      add\n      dup1\n      dup4\n      gt\n      tag_231\n      jumpi\n      dup3\n      swap1\n      sub\n      0x1f\n      and\n      dup3\n      add\n      swap2\n    tag_229:\n      pop\n      pop\n      pop\n      pop\n      pop\n      dup2\n      mstore\n      0x20\n      add\n      0x02\n      dup3\n      add\n      0x00\n      swap1\n      sload\n      swap1\n      0x0100\n      exp\n      swap1\n      div\n      0xff\n      and\n      iszero\n      iszero\n      iszero\n      iszero\n      dup2\n      mstore\n      pop\n      pop\n      swap1\n      pop\n        /* \"contracts/Usuarios.sol\":2999:3004  _guia */\n      dup1\n        /* \"contracts/Usuarios.sol\":2999:3011  _guia.cuenta */\n      0x00\n      add\n      mload\n        /* \"contracts/Usuarios.sol\":3013:3018  _guia */\n      dup2\n        /* \"contracts/Usuarios.sol\":3013:3033  _guia.nombreCompleto */\n      0x20\n      add\n      mload\n        /* \"contracts/Usuarios.sol\":3035:3040  _guia */\n      dup3\n        /* \"contracts/Usuarios.sol\":3035:3047  _guia.estado */\n      0x40\n      add\n      mload\n        /* \"contracts/Usuarios.sol\":2991:3048  return (_guia.cuenta, _guia.nombreCompleto, _guia.estado) */\n      swap4\n      pop\n      swap4\n      pop\n      swap4\n      pop\n      pop\n        /* \"contracts/Usuarios.sol\":2738:3055  function verGuia(address _cuenta)... */\n      swap2\n      swap4\n      swap1\n      swap3\n      pop\n      jump\t// out\n        /* \"contracts/Usuarios.sol\":860:890  Turista[] public listaTuristas */\n    tag_75:\n      0x02\n      dup2\n      dup2\n      sload\n      dup2\n      lt\n      tag_232\n      jumpi\n      0x00\n      dup1\n      revert\n    tag_232:\n      swap1\n      0x00\n      mstore\n      keccak256(0x00, 0x20)\n      swap1\n      0x03\n      mul\n      add\n      0x00\n      swap2\n      pop\n      swap1\n      pop\n      dup1\n      0x00\n      add\n      0x00\n      swap1\n      sload\n      swap1\n      0x0100\n      exp\n      swap1\n      div\n      0xffffffffffffffffffffffffffffffffffffffff\n      and\n      swap1\n      dup1\n      0x01\n      add\n      dup1\n      sload\n      tag_234\n      swap1\n      tag_100\n      jump\t// in\n    tag_234:\n      dup1\n      0x1f\n      add\n      0x20\n      dup1\n      swap2\n      div\n      mul\n      0x20\n      add\n      mload(0x40)\n      swap1\n      dup2\n      add\n      0x40\n      mstore\n      dup1\n      swap3\n      swap2\n      swap1\n      dup2\n      dup2\n      mstore\n      0x20\n      add\n      dup3\n      dup1\n      sload\n      tag_235\n      swap1\n      tag_100\n      jump\t// in\n    tag_235:\n      dup1\n      iszero\n      tag_236\n      jumpi\n      dup1\n      0x1f\n      lt\n      tag_237\n      jumpi\n      0x0100\n      dup1\n      dup4\n      sload\n      div\n      mul\n      dup4\n      mstore\n      swap2\n      0x20\n      add\n      swap2\n      jump(tag_236)\n    tag_237:\n      dup3\n      add\n      swap2\n      swap1\n      0x00\n      mstore\n      keccak256(0x00, 0x20)\n      swap1\n    tag_238:\n      dup2\n      sload\n      dup2\n      mstore\n      swap1\n      0x01\n      add\n      swap1\n      0x20\n      add\n      dup1\n      dup4\n      gt\n      tag_238\n      jumpi\n      dup3\n      swap1\n      sub\n      0x1f\n      and\n      dup3\n      add\n      swap2\n    tag_236:\n      pop\n      pop\n      pop\n      pop\n      pop\n      swap1\n      dup1\n      0x02\n      add\n      0x00\n      swap1\n      sload\n      swap1\n      0x0100\n      exp\n      swap1\n      div\n      0xff\n      and\n      swap1\n      dup1\n      0x02\n      add\n      0x01\n      swap1\n      sload\n      swap1\n      0x0100\n      exp\n      swap1\n      div\n      0xff\n      and\n      swap1\n      pop\n      dup5\n      jump\t// out\n    tag_102:\n      dup3\n      dup1\n      sload\n      tag_239\n      swap1\n      tag_100\n      jump\t// in\n    tag_239:\n      swap1\n      0x00\n      mstore\n      keccak256(0x00, 0x20)\n      swap1\n      0x1f\n      add\n      0x20\n      swap1\n      div\n      dup2\n      add\n      swap3\n      dup3\n      tag_241\n      jumpi\n      0x00\n      dup6\n      sstore\n      jump(tag_240)\n    tag_241:\n      dup3\n      0x1f\n      lt\n      tag_242\n      jumpi\n      dup1\n      sload\n      dup6\n      sstore\n      jump(tag_240)\n    tag_242:\n      dup3\n      dup1\n      add\n      0x01\n      add\n      dup6\n      sstore\n      dup3\n      iszero\n      tag_240\n      jumpi\n      0x00\n      mstore\n      keccak256(0x00, 0x20)\n      swap2\n      0x1f\n      add\n      0x20\n      swap1\n      div\n      dup3\n      add\n    tag_243:\n      dup3\n      dup2\n      gt\n      iszero\n      tag_244\n      jumpi\n      dup3\n      sload\n      dup3\n      sstore\n      swap2\n      0x01\n      add\n      swap2\n      swap1\n      0x01\n      add\n      swap1\n      jump(tag_243)\n    tag_244:\n    tag_240:\n      pop\n      swap1\n      pop\n      tag_245\n      swap2\n      swap1\n      tag_246\n      jump\t// in\n    tag_245:\n      pop\n      swap1\n      jump\t// out\n    tag_106:\n      pop\n      dup1\n      sload\n      tag_247\n      swap1\n      tag_100\n      jump\t// in\n    tag_247:\n      0x00\n      dup3\n      sstore\n      dup1\n      0x1f\n      lt\n      tag_249\n      jumpi\n      pop\n      jump(tag_248)\n    tag_249:\n      0x1f\n      add\n      0x20\n      swap1\n      div\n      swap1\n      0x00\n      mstore\n      keccak256(0x00, 0x20)\n      swap1\n      dup2\n      add\n      swap1\n      tag_250\n      swap2\n      swap1\n      tag_246\n      jump\t// in\n    tag_250:\n    tag_248:\n      pop\n      jump\t// out\n    tag_143:\n      dup3\n      dup1\n      sload\n      tag_251\n      swap1\n      tag_100\n      jump\t// in\n    tag_251:\n      swap1\n      0x00\n      mstore\n      keccak256(0x00, 0x20)\n      swap1\n      0x1f\n      add\n      0x20\n      swap1\n      div\n      dup2\n      add\n      swap3\n      dup3\n      tag_253\n      jumpi\n      0x00\n      dup6\n      sstore\n      jump(tag_252)\n    tag_253:\n      dup3\n      0x1f\n      lt\n      tag_254\n      jumpi\n      dup1\n      mload\n      not(0xff)\n      and\n      dup4\n      dup1\n      add\n      or\n      dup6\n      sstore\n      jump(tag_252)\n    tag_254:\n      dup3\n      dup1\n      add\n      0x01\n      add\n      dup6\n      sstore\n      dup3\n      iszero\n      tag_252\n      jumpi\n      swap2\n      dup3\n      add\n    tag_255:\n      dup3\n      dup2\n      gt\n      iszero\n      tag_256\n      jumpi\n      dup3\n      mload\n      dup3\n      sstore\n      swap2\n      0x20\n      add\n      swap2\n      swap1\n      0x01\n      add\n      swap1\n      jump(tag_255)\n    tag_256:\n    tag_252:\n      pop\n      swap1\n      pop\n      tag_257\n      swap2\n      swap1\n      tag_246\n      jump\t// in\n    tag_257:\n      pop\n      swap1\n      jump\t// out\n    tag_162:\n      mload(0x40)\n      dup1\n      0x80\n      add\n      0x40\n      mstore\n      dup1\n      and(0xffffffffffffffffffffffffffffffffffffffff, 0x00)\n      dup2\n      mstore\n      0x20\n      add\n      0x60\n      dup2\n      mstore\n      0x20\n      add\n      and(0xff, 0x00)\n      dup2\n      mstore\n      0x20\n      add\n      iszero(iszero(0x00))\n      dup2\n      mstore\n      pop\n      swap1\n      jump\t// out\n    tag_213:\n      mload(0x40)\n      dup1\n      0x60\n      add\n      0x40\n      mstore\n      dup1\n      and(0xffffffffffffffffffffffffffffffffffffffff, 0x00)\n      dup2\n      mstore\n      0x20\n      add\n      0x60\n      dup2\n      mstore\n      0x20\n      add\n      iszero(iszero(0x00))\n      dup2\n      mstore\n      pop\n      swap1\n      jump\t// out\n    tag_246:\n    tag_258:\n      dup1\n      dup3\n      gt\n      iszero\n      tag_259\n      jumpi\n      0x00\n      dup2\n      0x00\n      swap1\n      sstore\n      pop\n      0x01\n      add\n      jump(tag_258)\n    tag_259:\n      pop\n      swap1\n      jump\t// out\n        /* \"#utility.yul\":7:351   */\n    tag_261:\n      0x00\n        /* \"#utility.yul\":110:175   */\n      tag_263\n        /* \"#utility.yul\":125:174   */\n      tag_264\n        /* \"#utility.yul\":167:173   */\n      dup5\n        /* \"#utility.yul\":125:174   */\n      tag_265\n      jump\t// in\n    tag_264:\n        /* \"#utility.yul\":110:175   */\n      tag_266\n      jump\t// in\n    tag_263:\n        /* \"#utility.yul\":101:175   */\n      swap1\n      pop\n        /* \"#utility.yul\":198:204   */\n      dup3\n        /* \"#utility.yul\":191:196   */\n      dup2\n        /* \"#utility.yul\":184:205   */\n      mstore\n        /* \"#utility.yul\":236:240   */\n      0x20\n        /* \"#utility.yul\":229:234   */\n      dup2\n        /* \"#utility.yul\":225:241   */\n      add\n        /* \"#utility.yul\":274:277   */\n      dup5\n        /* \"#utility.yul\":265:271   */\n      dup5\n        /* \"#utility.yul\":260:263   */\n      dup5\n        /* \"#utility.yul\":256:272   */\n      add\n        /* \"#utility.yul\":253:278   */\n      gt\n        /* \"#utility.yul\":250:252   */\n      iszero\n      tag_267\n      jumpi\n        /* \"#utility.yul\":291:292   */\n      0x00\n        /* \"#utility.yul\":288:289   */\n      dup1\n        /* \"#utility.yul\":281:293   */\n      revert\n        /* \"#utility.yul\":250:252   */\n    tag_267:\n        /* \"#utility.yul\":304:345   */\n      tag_268\n        /* \"#utility.yul\":338:344   */\n      dup5\n        /* \"#utility.yul\":333:336   */\n      dup3\n        /* \"#utility.yul\":328:331   */\n      dup6\n        /* \"#utility.yul\":304:345   */\n      tag_269\n      jump\t// in\n    tag_268:\n        /* \"#utility.yul\":91:351   */\n      pop\n      swap4\n      swap3\n      pop\n      pop\n      pop\n      jump\t// out\n        /* \"#utility.yul\":357:496   */\n    tag_270:\n      0x00\n        /* \"#utility.yul\":441:447   */\n      dup2\n        /* \"#utility.yul\":428:448   */\n      calldataload\n        /* \"#utility.yul\":419:448   */\n      swap1\n      pop\n        /* \"#utility.yul\":457:490   */\n      tag_272\n        /* \"#utility.yul\":484:489   */\n      dup2\n        /* \"#utility.yul\":457:490   */\n      tag_273\n      jump\t// in\n    tag_272:\n        /* \"#utility.yul\":409:496   */\n      swap3\n      swap2\n      pop\n      pop\n      jump\t// out\n        /* \"#utility.yul\":516:789   */\n    tag_274:\n      0x00\n        /* \"#utility.yul\":621:624   */\n      dup3\n        /* \"#utility.yul\":614:618   */\n      0x1f\n        /* \"#utility.yul\":606:612   */\n      dup4\n        /* \"#utility.yul\":602:619   */\n      add\n        /* \"#utility.yul\":598:625   */\n      slt\n        /* \"#utility.yul\":588:590   */\n      tag_276\n      jumpi\n        /* \"#utility.yul\":639:640   */\n      0x00\n        /* \"#utility.yul\":636:637   */\n      dup1\n        /* \"#utility.yul\":629:641   */\n      revert\n        /* \"#utility.yul\":588:590   */\n    tag_276:\n        /* \"#utility.yul\":679:685   */\n      dup2\n        /* \"#utility.yul\":666:686   */\n      calldataload\n        /* \"#utility.yul\":704:783   */\n      tag_277\n        /* \"#utility.yul\":779:782   */\n      dup5\n        /* \"#utility.yul\":771:777   */\n      dup3\n        /* \"#utility.yul\":764:768   */\n      0x20\n        /* \"#utility.yul\":756:762   */\n      dup7\n        /* \"#utility.yul\":752:769   */\n      add\n        /* \"#utility.yul\":704:783   */\n      tag_261\n      jump\t// in\n    tag_277:\n        /* \"#utility.yul\":695:783   */\n      swap2\n      pop\n        /* \"#utility.yul\":578:789   */\n      pop\n      swap3\n      swap2\n      pop\n      pop\n      jump\t// out\n        /* \"#utility.yul\":795:934   */\n    tag_278:\n      0x00\n        /* \"#utility.yul\":879:885   */\n      dup2\n        /* \"#utility.yul\":866:886   */\n      calldataload\n        /* \"#utility.yul\":857:886   */\n      swap1\n      pop\n        /* \"#utility.yul\":895:928   */\n      tag_280\n        /* \"#utility.yul\":922:927   */\n      dup2\n        /* \"#utility.yul\":895:928   */\n      tag_281\n      jump\t// in\n    tag_280:\n        /* \"#utility.yul\":847:934   */\n      swap3\n      swap2\n      pop\n      pop\n      jump\t// out\n        /* \"#utility.yul\":940:1075   */\n    tag_282:\n      0x00\n        /* \"#utility.yul\":1022:1028   */\n      dup2\n        /* \"#utility.yul\":1009:1029   */\n      calldataload\n        /* \"#utility.yul\":1000:1029   */\n      swap1\n      pop\n        /* \"#utility.yul\":1038:1069   */\n      tag_284\n        /* \"#utility.yul\":1063:1068   */\n      dup2\n        /* \"#utility.yul\":1038:1069   */\n      tag_285\n      jump\t// in\n    tag_284:\n        /* \"#utility.yul\":990:1075   */\n      swap3\n      swap2\n      pop\n      pop\n      jump\t// out\n        /* \"#utility.yul\":1081:1343   */\n    tag_20:\n      0x00\n        /* \"#utility.yul\":1189:1191   */\n      0x20\n        /* \"#utility.yul\":1177:1186   */\n      dup3\n        /* \"#utility.yul\":1168:1175   */\n      dup5\n        /* \"#utility.yul\":1164:1187   */\n      sub\n        /* \"#utility.yul\":1160:1192   */\n      slt\n        /* \"#utility.yul\":1157:1159   */\n      iszero\n      tag_287\n      jumpi\n        /* \"#utility.yul\":1205:1206   */\n      0x00\n        /* \"#utility.yul\":1202:1203   */\n      dup1\n        /* \"#utility.yul\":1195:1207   */\n      revert\n        /* \"#utility.yul\":1157:1159   */\n    tag_287:\n        /* \"#utility.yul\":1248:1249   */\n      0x00\n        /* \"#utility.yul\":1273:1326   */\n      tag_288\n        /* \"#utility.yul\":1318:1325   */\n      dup5\n        /* \"#utility.yul\":1309:1315   */\n      dup3\n        /* \"#utility.yul\":1298:1307   */\n      dup6\n        /* \"#utility.yul\":1294:1316   */\n      add\n        /* \"#utility.yul\":1273:1326   */\n      tag_270\n      jump\t// in\n    tag_288:\n        /* \"#utility.yul\":1263:1326   */\n      swap2\n      pop\n        /* \"#utility.yul\":1219:1336   */\n      pop\n        /* \"#utility.yul\":1147:1343   */\n      swap3\n      swap2\n      pop\n      pop\n      jump\t// out\n        /* \"#utility.yul\":1349:1869   */\n    tag_30:\n      0x00\n      dup1\n        /* \"#utility.yul\":1484:1486   */\n      0x40\n        /* \"#utility.yul\":1472:1481   */\n      dup4\n        /* \"#utility.yul\":1463:1470   */\n      dup6\n        /* \"#utility.yul\":1459:1482   */\n      sub\n        /* \"#utility.yul\":1455:1487   */\n      slt\n        /* \"#utility.yul\":1452:1454   */\n      iszero\n      tag_290\n      jumpi\n        /* \"#utility.yul\":1500:1501   */\n      0x00\n        /* \"#utility.yul\":1497:1498   */\n      dup1\n        /* \"#utility.yul\":1490:1502   */\n      revert\n        /* \"#utility.yul\":1452:1454   */\n    tag_290:\n        /* \"#utility.yul\":1543:1544   */\n      0x00\n        /* \"#utility.yul\":1568:1621   */\n      tag_291\n        /* \"#utility.yul\":1613:1620   */\n      dup6\n        /* \"#utility.yul\":1604:1610   */\n      dup3\n        /* \"#utility.yul\":1593:1602   */\n      dup7\n        /* \"#utility.yul\":1589:1611   */\n      add\n        /* \"#utility.yul\":1568:1621   */\n      tag_270\n      jump\t// in\n    tag_291:\n        /* \"#utility.yul\":1558:1621   */\n      swap3\n      pop\n        /* \"#utility.yul\":1514:1631   */\n      pop\n        /* \"#utility.yul\":1698:1700   */\n      0x20\n        /* \"#utility.yul\":1687:1696   */\n      dup4\n        /* \"#utility.yul\":1683:1701   */\n      add\n        /* \"#utility.yul\":1670:1702   */\n      calldataload\n        /* \"#utility.yul\":1729:1747   */\n      0xffffffffffffffff\n        /* \"#utility.yul\":1721:1727   */\n      dup2\n        /* \"#utility.yul\":1718:1748   */\n      gt\n        /* \"#utility.yul\":1715:1717   */\n      iszero\n      tag_292\n      jumpi\n        /* \"#utility.yul\":1761:1762   */\n      0x00\n        /* \"#utility.yul\":1758:1759   */\n      dup1\n        /* \"#utility.yul\":1751:1763   */\n      revert\n        /* \"#utility.yul\":1715:1717   */\n    tag_292:\n        /* \"#utility.yul\":1789:1852   */\n      tag_293\n        /* \"#utility.yul\":1844:1851   */\n      dup6\n        /* \"#utility.yul\":1835:1841   */\n      dup3\n        /* \"#utility.yul\":1824:1833   */\n      dup7\n        /* \"#utility.yul\":1820:1842   */\n      add\n        /* \"#utility.yul\":1789:1852   */\n      tag_274\n      jump\t// in\n    tag_293:\n        /* \"#utility.yul\":1779:1852   */\n      swap2\n      pop\n        /* \"#utility.yul\":1641:1862   */\n      pop\n        /* \"#utility.yul\":1442:1869   */\n      swap3\n      pop\n      swap3\n      swap1\n      pop\n      jump\t// out\n        /* \"#utility.yul\":1875:2536   */\n    tag_44:\n      0x00\n      dup1\n      0x00\n        /* \"#utility.yul\":2025:2027   */\n      0x60\n        /* \"#utility.yul\":2013:2022   */\n      dup5\n        /* \"#utility.yul\":2004:2011   */\n      dup7\n        /* \"#utility.yul\":2000:2023   */\n      sub\n        /* \"#utility.yul\":1996:2028   */\n      slt\n        /* \"#utility.yul\":1993:1995   */\n      iszero\n      tag_295\n      jumpi\n        /* \"#utility.yul\":2041:2042   */\n      0x00\n        /* \"#utility.yul\":2038:2039   */\n      dup1\n        /* \"#utility.yul\":2031:2043   */\n      revert\n        /* \"#utility.yul\":1993:1995   */\n    tag_295:\n        /* \"#utility.yul\":2084:2085   */\n      0x00\n        /* \"#utility.yul\":2109:2162   */\n      tag_296\n        /* \"#utility.yul\":2154:2161   */\n      dup7\n        /* \"#utility.yul\":2145:2151   */\n      dup3\n        /* \"#utility.yul\":2134:2143   */\n      dup8\n        /* \"#utility.yul\":2130:2152   */\n      add\n        /* \"#utility.yul\":2109:2162   */\n      tag_270\n      jump\t// in\n    tag_296:\n        /* \"#utility.yul\":2099:2162   */\n      swap4\n      pop\n        /* \"#utility.yul\":2055:2172   */\n      pop\n        /* \"#utility.yul\":2239:2241   */\n      0x20\n        /* \"#utility.yul\":2228:2237   */\n      dup5\n        /* \"#utility.yul\":2224:2242   */\n      add\n        /* \"#utility.yul\":2211:2243   */\n      calldataload\n        /* \"#utility.yul\":2270:2288   */\n      0xffffffffffffffff\n        /* \"#utility.yul\":2262:2268   */\n      dup2\n        /* \"#utility.yul\":2259:2289   */\n      gt\n        /* \"#utility.yul\":2256:2258   */\n      iszero\n      tag_297\n      jumpi\n        /* \"#utility.yul\":2302:2303   */\n      0x00\n        /* \"#utility.yul\":2299:2300   */\n      dup1\n        /* \"#utility.yul\":2292:2304   */\n      revert\n        /* \"#utility.yul\":2256:2258   */\n    tag_297:\n        /* \"#utility.yul\":2330:2393   */\n      tag_298\n        /* \"#utility.yul\":2385:2392   */\n      dup7\n        /* \"#utility.yul\":2376:2382   */\n      dup3\n        /* \"#utility.yul\":2365:2374   */\n      dup8\n        /* \"#utility.yul\":2361:2383   */\n      add\n        /* \"#utility.yul\":2330:2393   */\n      tag_274\n      jump\t// in\n    tag_298:\n        /* \"#utility.yul\":2320:2393   */\n      swap3\n      pop\n        /* \"#utility.yul\":2182:2403   */\n      pop\n        /* \"#utility.yul\":2442:2444   */\n      0x40\n        /* \"#utility.yul\":2468:2519   */\n      tag_299\n        /* \"#utility.yul\":2511:2518   */\n      dup7\n        /* \"#utility.yul\":2502:2508   */\n      dup3\n        /* \"#utility.yul\":2491:2500   */\n      dup8\n        /* \"#utility.yul\":2487:2509   */\n      add\n        /* \"#utility.yul\":2468:2519   */\n      tag_282\n      jump\t// in\n    tag_299:\n        /* \"#utility.yul\":2458:2519   */\n      swap2\n      pop\n        /* \"#utility.yul\":2413:2529   */\n      pop\n        /* \"#utility.yul\":1983:2536   */\n      swap3\n      pop\n      swap3\n      pop\n      swap3\n      jump\t// out\n        /* \"#utility.yul\":2542:2804   */\n    tag_54:\n      0x00\n        /* \"#utility.yul\":2650:2652   */\n      0x20\n        /* \"#utility.yul\":2638:2647   */\n      dup3\n        /* \"#utility.yul\":2629:2636   */\n      dup5\n        /* \"#utility.yul\":2625:2648   */\n      sub\n        /* \"#utility.yul\":2621:2653   */\n      slt\n        /* \"#utility.yul\":2618:2620   */\n      iszero\n      tag_301\n      jumpi\n        /* \"#utility.yul\":2666:2667   */\n      0x00\n        /* \"#utility.yul\":2663:2664   */\n      dup1\n        /* \"#utility.yul\":2656:2668   */\n      revert\n        /* \"#utility.yul\":2618:2620   */\n    tag_301:\n        /* \"#utility.yul\":2709:2710   */\n      0x00\n        /* \"#utility.yul\":2734:2787   */\n      tag_302\n        /* \"#utility.yul\":2779:2786   */\n      dup5\n        /* \"#utility.yul\":2770:2776   */\n      dup3\n        /* \"#utility.yul\":2759:2768   */\n      dup6\n        /* \"#utility.yul\":2755:2777   */\n      add\n        /* \"#utility.yul\":2734:2787   */\n      tag_278\n      jump\t// in\n    tag_302:\n        /* \"#utility.yul\":2724:2787   */\n      swap2\n      pop\n        /* \"#utility.yul\":2680:2797   */\n      pop\n        /* \"#utility.yul\":2608:2804   */\n      swap3\n      swap2\n      pop\n      pop\n      jump\t// out\n        /* \"#utility.yul\":2810:3082   */\n    tag_303:\n      0x00\n        /* \"#utility.yul\":2972:3076   */\n      tag_305\n        /* \"#utility.yul\":3072:3075   */\n      dup4\n        /* \"#utility.yul\":3064:3070   */\n      dup4\n        /* \"#utility.yul\":2972:3076   */\n      tag_306\n      jump\t// in\n    tag_305:\n        /* \"#utility.yul\":2958:3076   */\n      swap1\n      pop\n        /* \"#utility.yul\":2948:3082   */\n      swap3\n      swap2\n      pop\n      pop\n      jump\t// out\n        /* \"#utility.yul\":3088:3340   */\n    tag_307:\n      0x00\n        /* \"#utility.yul\":3240:3334   */\n      tag_309\n        /* \"#utility.yul\":3330:3333   */\n      dup4\n        /* \"#utility.yul\":3322:3328   */\n      dup4\n        /* \"#utility.yul\":3240:3334   */\n      tag_310\n      jump\t// in\n    tag_309:\n        /* \"#utility.yul\":3226:3334   */\n      swap1\n      pop\n        /* \"#utility.yul\":3216:3340   */\n      swap3\n      swap2\n      pop\n      pop\n      jump\t// out\n        /* \"#utility.yul\":3346:3454   */\n    tag_311:\n        /* \"#utility.yul\":3423:3447   */\n      tag_313\n        /* \"#utility.yul\":3441:3446   */\n      dup2\n        /* \"#utility.yul\":3423:3447   */\n      tag_314\n      jump\t// in\n    tag_313:\n        /* \"#utility.yul\":3418:3421   */\n      dup3\n        /* \"#utility.yul\":3411:3448   */\n      mstore\n        /* \"#utility.yul\":3401:3454   */\n      pop\n      pop\n      jump\t// out\n        /* \"#utility.yul\":3460:3578   */\n    tag_315:\n        /* \"#utility.yul\":3547:3571   */\n      tag_317\n        /* \"#utility.yul\":3565:3570   */\n      dup2\n        /* \"#utility.yul\":3547:3571   */\n      tag_314\n      jump\t// in\n    tag_317:\n        /* \"#utility.yul\":3542:3545   */\n      dup3\n        /* \"#utility.yul\":3535:3572   */\n      mstore\n        /* \"#utility.yul\":3525:3578   */\n      pop\n      pop\n      jump\t// out\n        /* \"#utility.yul\":3656:4799   */\n    tag_318:\n      0x00\n        /* \"#utility.yul\":3862:3945   */\n      tag_320\n        /* \"#utility.yul\":3939:3944   */\n      dup3\n        /* \"#utility.yul\":3862:3945   */\n      tag_321\n      jump\t// in\n    tag_320:\n        /* \"#utility.yul\":3961:4076   */\n      tag_322\n        /* \"#utility.yul\":4069:4075   */\n      dup2\n        /* \"#utility.yul\":4064:4067   */\n      dup6\n        /* \"#utility.yul\":3961:4076   */\n      tag_323\n      jump\t// in\n    tag_322:\n        /* \"#utility.yul\":3954:4076   */\n      swap4\n      pop\n        /* \"#utility.yul\":4102:4105   */\n      dup4\n        /* \"#utility.yul\":4147:4151   */\n      0x20\n        /* \"#utility.yul\":4139:4145   */\n      dup3\n        /* \"#utility.yul\":4135:4152   */\n      mul\n        /* \"#utility.yul\":4130:4133   */\n      dup6\n        /* \"#utility.yul\":4126:4153   */\n      add\n        /* \"#utility.yul\":4177:4262   */\n      tag_324\n        /* \"#utility.yul\":4256:4261   */\n      dup6\n        /* \"#utility.yul\":4177:4262   */\n      tag_325\n      jump\t// in\n    tag_324:\n        /* \"#utility.yul\":4285:4292   */\n      dup1\n        /* \"#utility.yul\":4316:4317   */\n      0x00\n        /* \"#utility.yul\":4301:4754   */\n    tag_326:\n        /* \"#utility.yul\":4326:4332   */\n      dup6\n        /* \"#utility.yul\":4323:4324   */\n      dup2\n        /* \"#utility.yul\":4320:4333   */\n      lt\n        /* \"#utility.yul\":4301:4754   */\n      iszero\n      tag_328\n      jumpi\n        /* \"#utility.yul\":4397:4406   */\n      dup5\n        /* \"#utility.yul\":4391:4395   */\n      dup5\n        /* \"#utility.yul\":4387:4407   */\n      sub\n        /* \"#utility.yul\":4382:4385   */\n      dup10\n        /* \"#utility.yul\":4375:4408   */\n      mstore\n        /* \"#utility.yul\":4448:4454   */\n      dup2\n        /* \"#utility.yul\":4442:4455   */\n      mload\n        /* \"#utility.yul\":4476:4598   */\n      tag_329\n        /* \"#utility.yul\":4593:4597   */\n      dup6\n        /* \"#utility.yul\":4578:4591   */\n      dup3\n        /* \"#utility.yul\":4476:4598   */\n      tag_303\n      jump\t// in\n    tag_329:\n        /* \"#utility.yul\":4468:4598   */\n      swap5\n      pop\n        /* \"#utility.yul\":4621:4710   */\n      tag_330\n        /* \"#utility.yul\":4703:4709   */\n      dup4\n        /* \"#utility.yul\":4621:4710   */\n      tag_331\n      jump\t// in\n    tag_330:\n        /* \"#utility.yul\":4611:4710   */\n      swap3\n      pop\n        /* \"#utility.yul\":4739:4743   */\n      0x20\n        /* \"#utility.yul\":4734:4737   */\n      dup11\n        /* \"#utility.yul\":4730:4744   */\n      add\n        /* \"#utility.yul\":4723:4744   */\n      swap10\n      pop\n        /* \"#utility.yul\":4361:4754   */\n      pop\n        /* \"#utility.yul\":4348:4349   */\n      0x01\n        /* \"#utility.yul\":4345:4346   */\n      dup2\n        /* \"#utility.yul\":4341:4350   */\n      add\n        /* \"#utility.yul\":4336:4350   */\n      swap1\n      pop\n        /* \"#utility.yul\":4301:4754   */\n      jump(tag_326)\n    tag_328:\n        /* \"#utility.yul\":4305:4319   */\n      pop\n        /* \"#utility.yul\":4770:4774   */\n      dup3\n        /* \"#utility.yul\":4763:4774   */\n      swap8\n      pop\n        /* \"#utility.yul\":4790:4793   */\n      dup8\n        /* \"#utility.yul\":4783:4793   */\n      swap6\n      pop\n        /* \"#utility.yul\":3838:4799   */\n      pop\n      pop\n      pop\n      pop\n      pop\n      swap3\n      swap2\n      pop\n      pop\n      jump\t// out\n        /* \"#utility.yul\":4867:5970   */\n    tag_332:\n      0x00\n        /* \"#utility.yul\":5063:5141   */\n      tag_334\n        /* \"#utility.yul\":5135:5140   */\n      dup3\n        /* \"#utility.yul\":5063:5141   */\n      tag_335\n      jump\t// in\n    tag_334:\n        /* \"#utility.yul\":5157:5267   */\n      tag_336\n        /* \"#utility.yul\":5260:5266   */\n      dup2\n        /* \"#utility.yul\":5255:5258   */\n      dup6\n        /* \"#utility.yul\":5157:5267   */\n      tag_337\n      jump\t// in\n    tag_336:\n        /* \"#utility.yul\":5150:5267   */\n      swap4\n      pop\n        /* \"#utility.yul\":5293:5296   */\n      dup4\n        /* \"#utility.yul\":5338:5342   */\n      0x20\n        /* \"#utility.yul\":5330:5336   */\n      dup3\n        /* \"#utility.yul\":5326:5343   */\n      mul\n        /* \"#utility.yul\":5321:5324   */\n      dup6\n        /* \"#utility.yul\":5317:5344   */\n      add\n        /* \"#utility.yul\":5368:5448   */\n      tag_338\n        /* \"#utility.yul\":5442:5447   */\n      dup6\n        /* \"#utility.yul\":5368:5448   */\n      tag_339\n      jump\t// in\n    tag_338:\n        /* \"#utility.yul\":5471:5478   */\n      dup1\n        /* \"#utility.yul\":5502:5503   */\n      0x00\n        /* \"#utility.yul\":5487:5925   */\n    tag_340:\n        /* \"#utility.yul\":5512:5518   */\n      dup6\n        /* \"#utility.yul\":5509:5510   */\n      dup2\n        /* \"#utility.yul\":5506:5519   */\n      lt\n        /* \"#utility.yul\":5487:5925   */\n      iszero\n      tag_342\n      jumpi\n        /* \"#utility.yul\":5583:5592   */\n      dup5\n        /* \"#utility.yul\":5577:5581   */\n      dup5\n        /* \"#utility.yul\":5573:5593   */\n      sub\n        /* \"#utility.yul\":5568:5571   */\n      dup10\n        /* \"#utility.yul\":5561:5594   */\n      mstore\n        /* \"#utility.yul\":5634:5640   */\n      dup2\n        /* \"#utility.yul\":5628:5641   */\n      mload\n        /* \"#utility.yul\":5662:5774   */\n      tag_343\n        /* \"#utility.yul\":5769:5773   */\n      dup6\n        /* \"#utility.yul\":5754:5767   */\n      dup3\n        /* \"#utility.yul\":5662:5774   */\n      tag_307\n      jump\t// in\n    tag_343:\n        /* \"#utility.yul\":5654:5774   */\n      swap5\n      pop\n        /* \"#utility.yul\":5797:5881   */\n      tag_344\n        /* \"#utility.yul\":5874:5880   */\n      dup4\n        /* \"#utility.yul\":5797:5881   */\n      tag_345\n      jump\t// in\n    tag_344:\n        /* \"#utility.yul\":5787:5881   */\n      swap3\n      pop\n        /* \"#utility.yul\":5910:5914   */\n      0x20\n        /* \"#utility.yul\":5905:5908   */\n      dup11\n        /* \"#utility.yul\":5901:5915   */\n      add\n        /* \"#utility.yul\":5894:5915   */\n      swap10\n      pop\n        /* \"#utility.yul\":5547:5925   */\n      pop\n        /* \"#utility.yul\":5534:5535   */\n      0x01\n        /* \"#utility.yul\":5531:5532   */\n      dup2\n        /* \"#utility.yul\":5527:5536   */\n      add\n        /* \"#utility.yul\":5522:5536   */\n      swap1\n      pop\n        /* \"#utility.yul\":5487:5925   */\n      jump(tag_340)\n    tag_342:\n        /* \"#utility.yul\":5491:5505   */\n      pop\n        /* \"#utility.yul\":5941:5945   */\n      dup3\n        /* \"#utility.yul\":5934:5945   */\n      swap8\n      pop\n        /* \"#utility.yul\":5961:5964   */\n      dup8\n        /* \"#utility.yul\":5954:5964   */\n      swap6\n      pop\n        /* \"#utility.yul\":5039:5970   */\n      pop\n      pop\n      pop\n      pop\n      pop\n      swap3\n      swap2\n      pop\n      pop\n      jump\t// out\n        /* \"#utility.yul\":5976:6075   */\n    tag_346:\n        /* \"#utility.yul\":6047:6068   */\n      tag_348\n        /* \"#utility.yul\":6062:6067   */\n      dup2\n        /* \"#utility.yul\":6047:6068   */\n      tag_349\n      jump\t// in\n    tag_348:\n        /* \"#utility.yul\":6042:6045   */\n      dup3\n        /* \"#utility.yul\":6035:6069   */\n      mstore\n        /* \"#utility.yul\":6025:6075   */\n      pop\n      pop\n      jump\t// out\n        /* \"#utility.yul\":6081:6190   */\n    tag_350:\n        /* \"#utility.yul\":6162:6183   */\n      tag_352\n        /* \"#utility.yul\":6177:6182   */\n      dup2\n        /* \"#utility.yul\":6162:6183   */\n      tag_349\n      jump\t// in\n    tag_352:\n        /* \"#utility.yul\":6157:6160   */\n      dup3\n        /* \"#utility.yul\":6150:6184   */\n      mstore\n        /* \"#utility.yul\":6140:6190   */\n      pop\n      pop\n      jump\t// out\n        /* \"#utility.yul\":6196:6540   */\n    tag_353:\n      0x00\n        /* \"#utility.yul\":6302:6341   */\n      tag_355\n        /* \"#utility.yul\":6335:6340   */\n      dup3\n        /* \"#utility.yul\":6302:6341   */\n      tag_356\n      jump\t// in\n    tag_355:\n        /* \"#utility.yul\":6357:6418   */\n      tag_357\n        /* \"#utility.yul\":6411:6417   */\n      dup2\n        /* \"#utility.yul\":6406:6409   */\n      dup6\n        /* \"#utility.yul\":6357:6418   */\n      tag_358\n      jump\t// in\n    tag_357:\n        /* \"#utility.yul\":6350:6418   */\n      swap4\n      pop\n        /* \"#utility.yul\":6427:6479   */\n      tag_359\n        /* \"#utility.yul\":6472:6478   */\n      dup2\n        /* \"#utility.yul\":6467:6470   */\n      dup6\n        /* \"#utility.yul\":6460:6464   */\n      0x20\n        /* \"#utility.yul\":6453:6458   */\n      dup7\n        /* \"#utility.yul\":6449:6465   */\n      add\n        /* \"#utility.yul\":6427:6479   */\n      tag_360\n      jump\t// in\n    tag_359:\n        /* \"#utility.yul\":6504:6533   */\n      tag_361\n        /* \"#utility.yul\":6526:6532   */\n      dup2\n        /* \"#utility.yul\":6504:6533   */\n      tag_362\n      jump\t// in\n    tag_361:\n        /* \"#utility.yul\":6499:6502   */\n      dup5\n        /* \"#utility.yul\":6495:6534   */\n      add\n        /* \"#utility.yul\":6488:6534   */\n      swap2\n      pop\n        /* \"#utility.yul\":6278:6540   */\n      pop\n      swap3\n      swap2\n      pop\n      pop\n      jump\t// out\n        /* \"#utility.yul\":6546:6910   */\n    tag_363:\n      0x00\n        /* \"#utility.yul\":6662:6701   */\n      tag_365\n        /* \"#utility.yul\":6695:6700   */\n      dup3\n        /* \"#utility.yul\":6662:6701   */\n      tag_356\n      jump\t// in\n    tag_365:\n        /* \"#utility.yul\":6717:6788   */\n      tag_366\n        /* \"#utility.yul\":6781:6787   */\n      dup2\n        /* \"#utility.yul\":6776:6779   */\n      dup6\n        /* \"#utility.yul\":6717:6788   */\n      tag_367\n      jump\t// in\n    tag_366:\n        /* \"#utility.yul\":6710:6788   */\n      swap4\n      pop\n        /* \"#utility.yul\":6797:6849   */\n      tag_368\n        /* \"#utility.yul\":6842:6848   */\n      dup2\n        /* \"#utility.yul\":6837:6840   */\n      dup6\n        /* \"#utility.yul\":6830:6834   */\n      0x20\n        /* \"#utility.yul\":6823:6828   */\n      dup7\n        /* \"#utility.yul\":6819:6835   */\n      add\n        /* \"#utility.yul\":6797:6849   */\n      tag_360\n      jump\t// in\n    tag_368:\n        /* \"#utility.yul\":6874:6903   */\n      tag_369\n        /* \"#utility.yul\":6896:6902   */\n      dup2\n        /* \"#utility.yul\":6874:6903   */\n      tag_362\n      jump\t// in\n    tag_369:\n        /* \"#utility.yul\":6869:6872   */\n      dup5\n        /* \"#utility.yul\":6865:6904   */\n      add\n        /* \"#utility.yul\":6858:6904   */\n      swap2\n      pop\n        /* \"#utility.yul\":6638:6910   */\n      pop\n      swap3\n      swap2\n      pop\n      pop\n      jump\t// out\n        /* \"#utility.yul\":6916:7309   */\n    tag_370:\n      0x00\n        /* \"#utility.yul\":7079:7146   */\n      tag_372\n        /* \"#utility.yul\":7143:7145   */\n      0x3d\n        /* \"#utility.yul\":7138:7141   */\n      dup4\n        /* \"#utility.yul\":7079:7146   */\n      tag_367\n      jump\t// in\n    tag_372:\n        /* \"#utility.yul\":7072:7146   */\n      swap2\n      pop\n        /* \"#utility.yul\":7176:7210   */\n      0x536f6c6f20656c204475656e6e6f206f20477569617320646520747572697374\n        /* \"#utility.yul\":7172:7173   */\n      0x00\n        /* \"#utility.yul\":7167:7170   */\n      dup4\n        /* \"#utility.yul\":7163:7174   */\n      add\n        /* \"#utility.yul\":7156:7211   */\n      mstore\n        /* \"#utility.yul\":7242:7273   */\n      0x6173207075656465207265616c697a6172206573746120616363696f6e000000\n        /* \"#utility.yul\":7237:7239   */\n      0x20\n        /* \"#utility.yul\":7232:7235   */\n      dup4\n        /* \"#utility.yul\":7228:7240   */\n      add\n        /* \"#utility.yul\":7221:7274   */\n      mstore\n        /* \"#utility.yul\":7300:7302   */\n      0x40\n        /* \"#utility.yul\":7295:7298   */\n      dup3\n        /* \"#utility.yul\":7291:7303   */\n      add\n        /* \"#utility.yul\":7284:7303   */\n      swap1\n      pop\n        /* \"#utility.yul\":7062:7309   */\n      swap2\n      swap1\n      pop\n      jump\t// out\n        /* \"#utility.yul\":7315:7682   */\n    tag_373:\n      0x00\n        /* \"#utility.yul\":7478:7545   */\n      tag_375\n        /* \"#utility.yul\":7542:7544   */\n      0x23\n        /* \"#utility.yul\":7537:7540   */\n      dup4\n        /* \"#utility.yul\":7478:7545   */\n      tag_367\n      jump\t// in\n    tag_375:\n        /* \"#utility.yul\":7471:7545   */\n      swap2\n      pop\n        /* \"#utility.yul\":7575:7609   */\n      0x4775696120646520547572697374617320796120657374612072656769737472\n        /* \"#utility.yul\":7571:7572   */\n      0x00\n        /* \"#utility.yul\":7566:7569   */\n      dup4\n        /* \"#utility.yul\":7562:7573   */\n      add\n        /* \"#utility.yul\":7555:7610   */\n      mstore\n        /* \"#utility.yul\":7641:7646   */\n      0x61646f0000000000000000000000000000000000000000000000000000000000\n        /* \"#utility.yul\":7636:7638   */\n      0x20\n        /* \"#utility.yul\":7631:7634   */\n      dup4\n        /* \"#utility.yul\":7627:7639   */\n      add\n        /* \"#utility.yul\":7620:7647   */\n      mstore\n        /* \"#utility.yul\":7673:7675   */\n      0x40\n        /* \"#utility.yul\":7668:7671   */\n      dup3\n        /* \"#utility.yul\":7664:7676   */\n      add\n        /* \"#utility.yul\":7657:7676   */\n      swap1\n      pop\n        /* \"#utility.yul\":7461:7682   */\n      swap2\n      swap1\n      pop\n      jump\t// out\n        /* \"#utility.yul\":7688:8012   */\n    tag_376:\n      0x00\n        /* \"#utility.yul\":7851:7918   */\n      tag_378\n        /* \"#utility.yul\":7915:7917   */\n      0x1a\n        /* \"#utility.yul\":7910:7913   */\n      dup4\n        /* \"#utility.yul\":7851:7918   */\n      tag_367\n      jump\t// in\n    tag_378:\n        /* \"#utility.yul\":7844:7918   */\n      swap2\n      pop\n        /* \"#utility.yul\":7948:7976   */\n      0x547572697374612079612065737461207265676973747261646f000000000000\n        /* \"#utility.yul\":7944:7945   */\n      0x00\n        /* \"#utility.yul\":7939:7942   */\n      dup4\n        /* \"#utility.yul\":7935:7946   */\n      add\n        /* \"#utility.yul\":7928:7977   */\n      mstore\n        /* \"#utility.yul\":8003:8005   */\n      0x20\n        /* \"#utility.yul\":7998:8001   */\n      dup3\n        /* \"#utility.yul\":7994:8006   */\n      add\n        /* \"#utility.yul\":7987:8006   */\n      swap1\n      pop\n        /* \"#utility.yul\":7834:8012   */\n      swap2\n      swap1\n      pop\n      jump\t// out\n        /* \"#utility.yul\":8018:8330   */\n    tag_379:\n      0x00\n        /* \"#utility.yul\":8181:8248   */\n      tag_381\n        /* \"#utility.yul\":8245:8247   */\n      0x0e\n        /* \"#utility.yul\":8240:8243   */\n      dup4\n        /* \"#utility.yul\":8181:8248   */\n      tag_367\n      jump\t// in\n    tag_381:\n        /* \"#utility.yul\":8174:8248   */\n      swap2\n      pop\n        /* \"#utility.yul\":8278:8294   */\n      0x47756961206e6f20657869737465000000000000000000000000000000000000\n        /* \"#utility.yul\":8274:8275   */\n      0x00\n        /* \"#utility.yul\":8269:8272   */\n      dup4\n        /* \"#utility.yul\":8265:8276   */\n      add\n        /* \"#utility.yul\":8258:8295   */\n      mstore\n        /* \"#utility.yul\":8321:8323   */\n      0x20\n        /* \"#utility.yul\":8316:8319   */\n      dup3\n        /* \"#utility.yul\":8312:8324   */\n      add\n        /* \"#utility.yul\":8305:8324   */\n      swap1\n      pop\n        /* \"#utility.yul\":8164:8330   */\n      swap2\n      swap1\n      pop\n      jump\t// out\n        /* \"#utility.yul\":8336:8709   */\n    tag_382:\n      0x00\n        /* \"#utility.yul\":8499:8566   */\n      tag_384\n        /* \"#utility.yul\":8563:8565   */\n      0x29\n        /* \"#utility.yul\":8558:8561   */\n      dup4\n        /* \"#utility.yul\":8499:8566   */\n      tag_367\n      jump\t// in\n    tag_384:\n        /* \"#utility.yul\":8492:8566   */\n      swap2\n      pop\n        /* \"#utility.yul\":8596:8630   */\n      0x536f6c6f20656c204475656e6e6f207075656465207265616c697a6172206573\n        /* \"#utility.yul\":8592:8593   */\n      0x00\n        /* \"#utility.yul\":8587:8590   */\n      dup4\n        /* \"#utility.yul\":8583:8594   */\n      add\n        /* \"#utility.yul\":8576:8631   */\n      mstore\n        /* \"#utility.yul\":8662:8673   */\n      0x746120616363696f6e0000000000000000000000000000000000000000000000\n        /* \"#utility.yul\":8657:8659   */\n      0x20\n        /* \"#utility.yul\":8652:8655   */\n      dup4\n        /* \"#utility.yul\":8648:8660   */\n      add\n        /* \"#utility.yul\":8641:8674   */\n      mstore\n        /* \"#utility.yul\":8700:8702   */\n      0x40\n        /* \"#utility.yul\":8695:8698   */\n      dup3\n        /* \"#utility.yul\":8691:8703   */\n      add\n        /* \"#utility.yul\":8684:8703   */\n      swap1\n      pop\n        /* \"#utility.yul\":8482:8709   */\n      swap2\n      swap1\n      pop\n      jump\t// out\n        /* \"#utility.yul\":8715:9030   */\n    tag_385:\n      0x00\n        /* \"#utility.yul\":8878:8945   */\n      tag_387\n        /* \"#utility.yul\":8942:8944   */\n      0x11\n        /* \"#utility.yul\":8937:8940   */\n      dup4\n        /* \"#utility.yul\":8878:8945   */\n      tag_367\n      jump\t// in\n    tag_387:\n        /* \"#utility.yul\":8871:8945   */\n      swap2\n      pop\n        /* \"#utility.yul\":8975:8994   */\n      0x54757269737461206e6f20657869737465000000000000000000000000000000\n        /* \"#utility.yul\":8971:8972   */\n      0x00\n        /* \"#utility.yul\":8966:8969   */\n      dup4\n        /* \"#utility.yul\":8962:8973   */\n      add\n        /* \"#utility.yul\":8955:8995   */\n      mstore\n        /* \"#utility.yul\":9021:9023   */\n      0x20\n        /* \"#utility.yul\":9016:9019   */\n      dup3\n        /* \"#utility.yul\":9012:9024   */\n      add\n        /* \"#utility.yul\":9005:9024   */\n      swap1\n      pop\n        /* \"#utility.yul\":8861:9030   */\n      swap2\n      swap1\n      pop\n      jump\t// out\n        /* \"#utility.yul\":9104:9890   */\n    tag_306:\n      0x00\n        /* \"#utility.yul\":9257:9261   */\n      0x60\n        /* \"#utility.yul\":9252:9255   */\n      dup4\n        /* \"#utility.yul\":9248:9262   */\n      add\n        /* \"#utility.yul\":9346:9350   */\n      0x00\n        /* \"#utility.yul\":9339:9344   */\n      dup4\n        /* \"#utility.yul\":9335:9351   */\n      add\n        /* \"#utility.yul\":9329:9352   */\n      mload\n        /* \"#utility.yul\":9365:9428   */\n      tag_389\n        /* \"#utility.yul\":9422:9426   */\n      0x00\n        /* \"#utility.yul\":9417:9420   */\n      dup7\n        /* \"#utility.yul\":9413:9427   */\n      add\n        /* \"#utility.yul\":9399:9411   */\n      dup3\n        /* \"#utility.yul\":9365:9428   */\n      tag_311\n      jump\t// in\n    tag_389:\n        /* \"#utility.yul\":9272:9438   */\n      pop\n        /* \"#utility.yul\":9530:9534   */\n      0x20\n        /* \"#utility.yul\":9523:9528   */\n      dup4\n        /* \"#utility.yul\":9519:9535   */\n      add\n        /* \"#utility.yul\":9513:9536   */\n      mload\n        /* \"#utility.yul\":9583:9586   */\n      dup5\n        /* \"#utility.yul\":9577:9581   */\n      dup3\n        /* \"#utility.yul\":9573:9587   */\n      sub\n        /* \"#utility.yul\":9566:9570   */\n      0x20\n        /* \"#utility.yul\":9561:9564   */\n      dup7\n        /* \"#utility.yul\":9557:9571   */\n      add\n        /* \"#utility.yul\":9550:9588   */\n      mstore\n        /* \"#utility.yul\":9609:9682   */\n      tag_390\n        /* \"#utility.yul\":9677:9681   */\n      dup3\n        /* \"#utility.yul\":9663:9675   */\n      dup3\n        /* \"#utility.yul\":9609:9682   */\n      tag_353\n      jump\t// in\n    tag_390:\n        /* \"#utility.yul\":9601:9682   */\n      swap2\n      pop\n        /* \"#utility.yul\":9448:9693   */\n      pop\n        /* \"#utility.yul\":9777:9781   */\n      0x40\n        /* \"#utility.yul\":9770:9775   */\n      dup4\n        /* \"#utility.yul\":9766:9782   */\n      add\n        /* \"#utility.yul\":9760:9783   */\n      mload\n        /* \"#utility.yul\":9796:9853   */\n      tag_391\n        /* \"#utility.yul\":9847:9851   */\n      0x40\n        /* \"#utility.yul\":9842:9845   */\n      dup7\n        /* \"#utility.yul\":9838:9852   */\n      add\n        /* \"#utility.yul\":9824:9836   */\n      dup3\n        /* \"#utility.yul\":9796:9853   */\n      tag_346\n      jump\t// in\n    tag_391:\n        /* \"#utility.yul\":9703:9863   */\n      pop\n        /* \"#utility.yul\":9880:9884   */\n      dup1\n        /* \"#utility.yul\":9873:9884   */\n      swap2\n      pop\n        /* \"#utility.yul\":9226:9890   */\n      pop\n      swap3\n      swap2\n      pop\n      pop\n      jump\t// out\n        /* \"#utility.yul\":9954:10900   */\n    tag_310:\n      0x00\n        /* \"#utility.yul\":10097:10101   */\n      0x80\n        /* \"#utility.yul\":10092:10095   */\n      dup4\n        /* \"#utility.yul\":10088:10102   */\n      add\n        /* \"#utility.yul\":10186:10190   */\n      0x00\n        /* \"#utility.yul\":10179:10184   */\n      dup4\n        /* \"#utility.yul\":10175:10191   */\n      add\n        /* \"#utility.yul\":10169:10192   */\n      mload\n        /* \"#utility.yul\":10205:10268   */\n      tag_393\n        /* \"#utility.yul\":10262:10266   */\n      0x00\n        /* \"#utility.yul\":10257:10260   */\n      dup7\n        /* \"#utility.yul\":10253:10267   */\n      add\n        /* \"#utility.yul\":10239:10251   */\n      dup3\n        /* \"#utility.yul\":10205:10268   */\n      tag_311\n      jump\t// in\n    tag_393:\n        /* \"#utility.yul\":10112:10278   */\n      pop\n        /* \"#utility.yul\":10370:10374   */\n      0x20\n        /* \"#utility.yul\":10363:10368   */\n      dup4\n        /* \"#utility.yul\":10359:10375   */\n      add\n        /* \"#utility.yul\":10353:10376   */\n      mload\n        /* \"#utility.yul\":10423:10426   */\n      dup5\n        /* \"#utility.yul\":10417:10421   */\n      dup3\n        /* \"#utility.yul\":10413:10427   */\n      sub\n        /* \"#utility.yul\":10406:10410   */\n      0x20\n        /* \"#utility.yul\":10401:10404   */\n      dup7\n        /* \"#utility.yul\":10397:10411   */\n      add\n        /* \"#utility.yul\":10390:10428   */\n      mstore\n        /* \"#utility.yul\":10449:10522   */\n      tag_394\n        /* \"#utility.yul\":10517:10521   */\n      dup3\n        /* \"#utility.yul\":10503:10515   */\n      dup3\n        /* \"#utility.yul\":10449:10522   */\n      tag_353\n      jump\t// in\n    tag_394:\n        /* \"#utility.yul\":10441:10522   */\n      swap2\n      pop\n        /* \"#utility.yul\":10288:10533   */\n      pop\n        /* \"#utility.yul\":10615:10619   */\n      0x40\n        /* \"#utility.yul\":10608:10613   */\n      dup4\n        /* \"#utility.yul\":10604:10620   */\n      add\n        /* \"#utility.yul\":10598:10621   */\n      mload\n        /* \"#utility.yul\":10634:10693   */\n      tag_395\n        /* \"#utility.yul\":10687:10691   */\n      0x40\n        /* \"#utility.yul\":10682:10685   */\n      dup7\n        /* \"#utility.yul\":10678:10692   */\n      add\n        /* \"#utility.yul\":10664:10676   */\n      dup3\n        /* \"#utility.yul\":10634:10693   */\n      tag_396\n      jump\t// in\n    tag_395:\n        /* \"#utility.yul\":10543:10703   */\n      pop\n        /* \"#utility.yul\":10787:10791   */\n      0x60\n        /* \"#utility.yul\":10780:10785   */\n      dup4\n        /* \"#utility.yul\":10776:10792   */\n      add\n        /* \"#utility.yul\":10770:10793   */\n      mload\n        /* \"#utility.yul\":10806:10863   */\n      tag_397\n        /* \"#utility.yul\":10857:10861   */\n      0x60\n        /* \"#utility.yul\":10852:10855   */\n      dup7\n        /* \"#utility.yul\":10848:10862   */\n      add\n        /* \"#utility.yul\":10834:10846   */\n      dup3\n        /* \"#utility.yul\":10806:10863   */\n      tag_346\n      jump\t// in\n    tag_397:\n        /* \"#utility.yul\":10713:10873   */\n      pop\n        /* \"#utility.yul\":10890:10894   */\n      dup1\n        /* \"#utility.yul\":10883:10894   */\n      swap2\n      pop\n        /* \"#utility.yul\":10066:10900   */\n      pop\n      swap3\n      swap2\n      pop\n      pop\n      jump\t// out\n        /* \"#utility.yul\":10906:11008   */\n    tag_396:\n        /* \"#utility.yul\":10979:11001   */\n      tag_399\n        /* \"#utility.yul\":10995:11000   */\n      dup2\n        /* \"#utility.yul\":10979:11001   */\n      tag_400\n      jump\t// in\n    tag_399:\n        /* \"#utility.yul\":10974:10977   */\n      dup3\n        /* \"#utility.yul\":10967:11002   */\n      mstore\n        /* \"#utility.yul\":10957:11008   */\n      pop\n      pop\n      jump\t// out\n        /* \"#utility.yul\":11014:11126   */\n    tag_401:\n        /* \"#utility.yul\":11097:11119   */\n      tag_403\n        /* \"#utility.yul\":11113:11118   */\n      dup2\n        /* \"#utility.yul\":11097:11119   */\n      tag_400\n      jump\t// in\n    tag_403:\n        /* \"#utility.yul\":11092:11095   */\n      dup3\n        /* \"#utility.yul\":11085:11120   */\n      mstore\n        /* \"#utility.yul\":11075:11126   */\n      pop\n      pop\n      jump\t// out\n        /* \"#utility.yul\":11132:11354   */\n    tag_68:\n      0x00\n        /* \"#utility.yul\":11263:11265   */\n      0x20\n        /* \"#utility.yul\":11252:11261   */\n      dup3\n        /* \"#utility.yul\":11248:11266   */\n      add\n        /* \"#utility.yul\":11240:11266   */\n      swap1\n      pop\n        /* \"#utility.yul\":11276:11347   */\n      tag_405\n        /* \"#utility.yul\":11344:11345   */\n      0x00\n        /* \"#utility.yul\":11333:11342   */\n      dup4\n        /* \"#utility.yul\":11329:11346   */\n      add\n        /* \"#utility.yul\":11320:11326   */\n      dup5\n        /* \"#utility.yul\":11276:11347   */\n      tag_315\n      jump\t// in\n    tag_405:\n        /* \"#utility.yul\":11230:11354   */\n      swap3\n      swap2\n      pop\n      pop\n      jump\t// out\n        /* \"#utility.yul\":11360:11783   */\n    tag_147:\n      0x00\n        /* \"#utility.yul\":11539:11541   */\n      0x40\n        /* \"#utility.yul\":11528:11537   */\n      dup3\n        /* \"#utility.yul\":11524:11542   */\n      add\n        /* \"#utility.yul\":11516:11542   */\n      swap1\n      pop\n        /* \"#utility.yul\":11552:11623   */\n      tag_407\n        /* \"#utility.yul\":11620:11621   */\n      0x00\n        /* \"#utility.yul\":11609:11618   */\n      dup4\n        /* \"#utility.yul\":11605:11622   */\n      add\n        /* \"#utility.yul\":11596:11602   */\n      dup6\n        /* \"#utility.yul\":11552:11623   */\n      tag_315\n      jump\t// in\n    tag_407:\n        /* \"#utility.yul\":11670:11679   */\n      dup2\n        /* \"#utility.yul\":11664:11668   */\n      dup2\n        /* \"#utility.yul\":11660:11680   */\n      sub\n        /* \"#utility.yul\":11655:11657   */\n      0x20\n        /* \"#utility.yul\":11644:11653   */\n      dup4\n        /* \"#utility.yul\":11640:11658   */\n      add\n        /* \"#utility.yul\":11633:11681   */\n      mstore\n        /* \"#utility.yul\":11698:11776   */\n      tag_408\n        /* \"#utility.yul\":11771:11775   */\n      dup2\n        /* \"#utility.yul\":11762:11768   */\n      dup5\n        /* \"#utility.yul\":11698:11776   */\n      tag_363\n      jump\t// in\n    tag_408:\n        /* \"#utility.yul\":11690:11776   */\n      swap1\n      pop\n        /* \"#utility.yul\":11506:11783   */\n      swap4\n      swap3\n      pop\n      pop\n      pop\n      jump\t// out\n        /* \"#utility.yul\":11789:12310   */\n    tag_51:\n      0x00\n        /* \"#utility.yul\":11990:11992   */\n      0x60\n        /* \"#utility.yul\":11979:11988   */\n      dup3\n        /* \"#utility.yul\":11975:11993   */\n      add\n        /* \"#utility.yul\":11967:11993   */\n      swap1\n      pop\n        /* \"#utility.yul\":12003:12074   */\n      tag_410\n        /* \"#utility.yul\":12071:12072   */\n      0x00\n        /* \"#utility.yul\":12060:12069   */\n      dup4\n        /* \"#utility.yul\":12056:12073   */\n      add\n        /* \"#utility.yul\":12047:12053   */\n      dup7\n        /* \"#utility.yul\":12003:12074   */\n      tag_315\n      jump\t// in\n    tag_410:\n        /* \"#utility.yul\":12121:12130   */\n      dup2\n        /* \"#utility.yul\":12115:12119   */\n      dup2\n        /* \"#utility.yul\":12111:12131   */\n      sub\n        /* \"#utility.yul\":12106:12108   */\n      0x20\n        /* \"#utility.yul\":12095:12104   */\n      dup4\n        /* \"#utility.yul\":12091:12109   */\n      add\n        /* \"#utility.yul\":12084:12132   */\n      mstore\n        /* \"#utility.yul\":12149:12227   */\n      tag_411\n        /* \"#utility.yul\":12222:12226   */\n      dup2\n        /* \"#utility.yul\":12213:12219   */\n      dup6\n        /* \"#utility.yul\":12149:12227   */\n      tag_363\n      jump\t// in\n    tag_411:\n        /* \"#utility.yul\":12141:12227   */\n      swap1\n      pop\n        /* \"#utility.yul\":12237:12303   */\n      tag_412\n        /* \"#utility.yul\":12299:12301   */\n      0x40\n        /* \"#utility.yul\":12288:12297   */\n      dup4\n        /* \"#utility.yul\":12284:12302   */\n      add\n        /* \"#utility.yul\":12275:12281   */\n      dup5\n        /* \"#utility.yul\":12237:12303   */\n      tag_350\n      jump\t// in\n    tag_412:\n        /* \"#utility.yul\":11957:12310   */\n      swap5\n      swap4\n      pop\n      pop\n      pop\n      pop\n      jump\t// out\n        /* \"#utility.yul\":12316:12940   */\n    tag_37:\n      0x00\n        /* \"#utility.yul\":12541:12544   */\n      0x80\n        /* \"#utility.yul\":12530:12539   */\n      dup3\n        /* \"#utility.yul\":12526:12545   */\n      add\n        /* \"#utility.yul\":12518:12545   */\n      swap1\n      pop\n        /* \"#utility.yul\":12555:12626   */\n      tag_414\n        /* \"#utility.yul\":12623:12624   */\n      0x00\n        /* \"#utility.yul\":12612:12621   */\n      dup4\n        /* \"#utility.yul\":12608:12625   */\n      add\n        /* \"#utility.yul\":12599:12605   */\n      dup8\n        /* \"#utility.yul\":12555:12626   */\n      tag_315\n      jump\t// in\n    tag_414:\n        /* \"#utility.yul\":12673:12682   */\n      dup2\n        /* \"#utility.yul\":12667:12671   */\n      dup2\n        /* \"#utility.yul\":12663:12683   */\n      sub\n        /* \"#utility.yul\":12658:12660   */\n      0x20\n        /* \"#utility.yul\":12647:12656   */\n      dup4\n        /* \"#utility.yul\":12643:12661   */\n      add\n        /* \"#utility.yul\":12636:12684   */\n      mstore\n        /* \"#utility.yul\":12701:12779   */\n      tag_415\n        /* \"#utility.yul\":12774:12778   */\n      dup2\n        /* \"#utility.yul\":12765:12771   */\n      dup7\n        /* \"#utility.yul\":12701:12779   */\n      tag_363\n      jump\t// in\n    tag_415:\n        /* \"#utility.yul\":12693:12779   */\n      swap1\n      pop\n        /* \"#utility.yul\":12789:12857   */\n      tag_416\n        /* \"#utility.yul\":12853:12855   */\n      0x40\n        /* \"#utility.yul\":12842:12851   */\n      dup4\n        /* \"#utility.yul\":12838:12856   */\n      add\n        /* \"#utility.yul\":12829:12835   */\n      dup6\n        /* \"#utility.yul\":12789:12857   */\n      tag_401\n      jump\t// in\n    tag_416:\n        /* \"#utility.yul\":12867:12933   */\n      tag_417\n        /* \"#utility.yul\":12929:12931   */\n      0x60\n        /* \"#utility.yul\":12918:12927   */\n      dup4\n        /* \"#utility.yul\":12914:12932   */\n      add\n        /* \"#utility.yul\":12905:12911   */\n      dup5\n        /* \"#utility.yul\":12867:12933   */\n      tag_350\n      jump\t// in\n    tag_417:\n        /* \"#utility.yul\":12508:12940   */\n      swap6\n      swap5\n      pop\n      pop\n      pop\n      pop\n      pop\n      jump\t// out\n        /* \"#utility.yul\":12946:13435   */\n    tag_64:\n      0x00\n        /* \"#utility.yul\":13185:13187   */\n      0x20\n        /* \"#utility.yul\":13174:13183   */\n      dup3\n        /* \"#utility.yul\":13170:13188   */\n      add\n        /* \"#utility.yul\":13162:13188   */\n      swap1\n      pop\n        /* \"#utility.yul\":13234:13243   */\n      dup2\n        /* \"#utility.yul\":13228:13232   */\n      dup2\n        /* \"#utility.yul\":13224:13244   */\n      sub\n        /* \"#utility.yul\":13220:13221   */\n      0x00\n        /* \"#utility.yul\":13209:13218   */\n      dup4\n        /* \"#utility.yul\":13205:13222   */\n      add\n        /* \"#utility.yul\":13198:13245   */\n      mstore\n        /* \"#utility.yul\":13262:13428   */\n      tag_419\n        /* \"#utility.yul\":13423:13427   */\n      dup2\n        /* \"#utility.yul\":13414:13420   */\n      dup5\n        /* \"#utility.yul\":13262:13428   */\n      tag_318\n      jump\t// in\n    tag_419:\n        /* \"#utility.yul\":13254:13428   */\n      swap1\n      pop\n        /* \"#utility.yul\":13152:13435   */\n      swap3\n      swap2\n      pop\n      pop\n      jump\t// out\n        /* \"#utility.yul\":13441:13910   */\n    tag_41:\n      0x00\n        /* \"#utility.yul\":13670:13672   */\n      0x20\n        /* \"#utility.yul\":13659:13668   */\n      dup3\n        /* \"#utility.yul\":13655:13673   */\n      add\n        /* \"#utility.yul\":13647:13673   */\n      swap1\n      pop\n        /* \"#utility.yul\":13719:13728   */\n      dup2\n        /* \"#utility.yul\":13713:13717   */\n      dup2\n        /* \"#utility.yul\":13709:13729   */\n      sub\n        /* \"#utility.yul\":13705:13706   */\n      0x00\n        /* \"#utility.yul\":13694:13703   */\n      dup4\n        /* \"#utility.yul\":13690:13707   */\n      add\n        /* \"#utility.yul\":13683:13730   */\n      mstore\n        /* \"#utility.yul\":13747:13903   */\n      tag_421\n        /* \"#utility.yul\":13898:13902   */\n      dup2\n        /* \"#utility.yul\":13889:13895   */\n      dup5\n        /* \"#utility.yul\":13747:13903   */\n      tag_332\n      jump\t// in\n    tag_421:\n        /* \"#utility.yul\":13739:13903   */\n      swap1\n      pop\n        /* \"#utility.yul\":13637:13910   */\n      swap3\n      swap2\n      pop\n      pop\n      jump\t// out\n        /* \"#utility.yul\":13916:14229   */\n    tag_23:\n      0x00\n        /* \"#utility.yul\":14067:14069   */\n      0x20\n        /* \"#utility.yul\":14056:14065   */\n      dup3\n        /* \"#utility.yul\":14052:14070   */\n      add\n        /* \"#utility.yul\":14044:14070   */\n      swap1\n      pop\n        /* \"#utility.yul\":14116:14125   */\n      dup2\n        /* \"#utility.yul\":14110:14114   */\n      dup2\n        /* \"#utility.yul\":14106:14126   */\n      sub\n        /* \"#utility.yul\":14102:14103   */\n      0x00\n        /* \"#utility.yul\":14091:14100   */\n      dup4\n        /* \"#utility.yul\":14087:14104   */\n      add\n        /* \"#utility.yul\":14080:14127   */\n      mstore\n        /* \"#utility.yul\":14144:14222   */\n      tag_423\n        /* \"#utility.yul\":14217:14221   */\n      dup2\n        /* \"#utility.yul\":14208:14214   */\n      dup5\n        /* \"#utility.yul\":14144:14222   */\n      tag_363\n      jump\t// in\n    tag_423:\n        /* \"#utility.yul\":14136:14222   */\n      swap1\n      pop\n        /* \"#utility.yul\":14034:14229   */\n      swap3\n      swap2\n      pop\n      pop\n      jump\t// out\n        /* \"#utility.yul\":14235:14654   */\n    tag_81:\n      0x00\n        /* \"#utility.yul\":14439:14441   */\n      0x20\n        /* \"#utility.yul\":14428:14437   */\n      dup3\n        /* \"#utility.yul\":14424:14442   */\n      add\n        /* \"#utility.yul\":14416:14442   */\n      swap1\n      pop\n        /* \"#utility.yul\":14488:14497   */\n      dup2\n        /* \"#utility.yul\":14482:14486   */\n      dup2\n        /* \"#utility.yul\":14478:14498   */\n      sub\n        /* \"#utility.yul\":14474:14475   */\n      0x00\n        /* \"#utility.yul\":14463:14472   */\n      dup4\n        /* \"#utility.yul\":14459:14476   */\n      add\n        /* \"#utility.yul\":14452:14499   */\n      mstore\n        /* \"#utility.yul\":14516:14647   */\n      tag_425\n        /* \"#utility.yul\":14642:14646   */\n      dup2\n        /* \"#utility.yul\":14516:14647   */\n      tag_370\n      jump\t// in\n    tag_425:\n        /* \"#utility.yul\":14508:14647   */\n      swap1\n      pop\n        /* \"#utility.yul\":14406:14654   */\n      swap2\n      swap1\n      pop\n      jump\t// out\n        /* \"#utility.yul\":14660:15079   */\n    tag_141:\n      0x00\n        /* \"#utility.yul\":14864:14866   */\n      0x20\n        /* \"#utility.yul\":14853:14862   */\n      dup3\n        /* \"#utility.yul\":14849:14867   */\n      add\n        /* \"#utility.yul\":14841:14867   */\n      swap1\n      pop\n        /* \"#utility.yul\":14913:14922   */\n      dup2\n        /* \"#utility.yul\":14907:14911   */\n      dup2\n        /* \"#utility.yul\":14903:14923   */\n      sub\n        /* \"#utility.yul\":14899:14900   */\n      0x00\n        /* \"#utility.yul\":14888:14897   */\n      dup4\n        /* \"#utility.yul\":14884:14901   */\n      add\n        /* \"#utility.yul\":14877:14924   */\n      mstore\n        /* \"#utility.yul\":14941:15072   */\n      tag_427\n        /* \"#utility.yul\":15067:15071   */\n      dup2\n        /* \"#utility.yul\":14941:15072   */\n      tag_373\n      jump\t// in\n    tag_427:\n        /* \"#utility.yul\":14933:15072   */\n      swap1\n      pop\n        /* \"#utility.yul\":14831:15079   */\n      swap2\n      swap1\n      pop\n      jump\t// out\n        /* \"#utility.yul\":15085:15504   */\n    tag_182:\n      0x00\n        /* \"#utility.yul\":15289:15291   */\n      0x20\n        /* \"#utility.yul\":15278:15287   */\n      dup3\n        /* \"#utility.yul\":15274:15292   */\n      add\n        /* \"#utility.yul\":15266:15292   */\n      swap1\n      pop\n        /* \"#utility.yul\":15338:15347   */\n      dup2\n        /* \"#utility.yul\":15332:15336   */\n      dup2\n        /* \"#utility.yul\":15328:15348   */\n      sub\n        /* \"#utility.yul\":15324:15325   */\n      0x00\n        /* \"#utility.yul\":15313:15322   */\n      dup4\n        /* \"#utility.yul\":15309:15326   */\n      add\n        /* \"#utility.yul\":15302:15349   */\n      mstore\n        /* \"#utility.yul\":15366:15497   */\n      tag_429\n        /* \"#utility.yul\":15492:15496   */\n      dup2\n        /* \"#utility.yul\":15366:15497   */\n      tag_376\n      jump\t// in\n    tag_429:\n        /* \"#utility.yul\":15358:15497   */\n      swap1\n      pop\n        /* \"#utility.yul\":15256:15504   */\n      swap2\n      swap1\n      pop\n      jump\t// out\n        /* \"#utility.yul\":15510:15929   */\n    tag_116:\n      0x00\n        /* \"#utility.yul\":15714:15716   */\n      0x20\n        /* \"#utility.yul\":15703:15712   */\n      dup3\n        /* \"#utility.yul\":15699:15717   */\n      add\n        /* \"#utility.yul\":15691:15717   */\n      swap1\n      pop\n        /* \"#utility.yul\":15763:15772   */\n      dup2\n        /* \"#utility.yul\":15757:15761   */\n      dup2\n        /* \"#utility.yul\":15753:15773   */\n      sub\n        /* \"#utility.yul\":15749:15750   */\n      0x00\n        /* \"#utility.yul\":15738:15747   */\n      dup4\n        /* \"#utility.yul\":15734:15751   */\n      add\n        /* \"#utility.yul\":15727:15774   */\n      mstore\n        /* \"#utility.yul\":15791:15922   */\n      tag_431\n        /* \"#utility.yul\":15917:15921   */\n      dup2\n        /* \"#utility.yul\":15791:15922   */\n      tag_379\n      jump\t// in\n    tag_431:\n        /* \"#utility.yul\":15783:15922   */\n      swap1\n      pop\n        /* \"#utility.yul\":15681:15929   */\n      swap2\n      swap1\n      pop\n      jump\t// out\n        /* \"#utility.yul\":15935:16354   */\n    tag_112:\n      0x00\n        /* \"#utility.yul\":16139:16141   */\n      0x20\n        /* \"#utility.yul\":16128:16137   */\n      dup3\n        /* \"#utility.yul\":16124:16142   */\n      add\n        /* \"#utility.yul\":16116:16142   */\n      swap1\n      pop\n        /* \"#utility.yul\":16188:16197   */\n      dup2\n        /* \"#utility.yul\":16182:16186   */\n      dup2\n        /* \"#utility.yul\":16178:16198   */\n      sub\n        /* \"#utility.yul\":16174:16175   */\n      0x00\n        /* \"#utility.yul\":16163:16172   */\n      dup4\n        /* \"#utility.yul\":16159:16176   */\n      add\n        /* \"#utility.yul\":16152:16199   */\n      mstore\n        /* \"#utility.yul\":16216:16347   */\n      tag_433\n        /* \"#utility.yul\":16342:16346   */\n      dup2\n        /* \"#utility.yul\":16216:16347   */\n      tag_382\n      jump\t// in\n    tag_433:\n        /* \"#utility.yul\":16208:16347   */\n      swap1\n      pop\n        /* \"#utility.yul\":16106:16354   */\n      swap2\n      swap1\n      pop\n      jump\t// out\n        /* \"#utility.yul\":16360:16779   */\n    tag_85:\n      0x00\n        /* \"#utility.yul\":16564:16566   */\n      0x20\n        /* \"#utility.yul\":16553:16562   */\n      dup3\n        /* \"#utility.yul\":16549:16567   */\n      add\n        /* \"#utility.yul\":16541:16567   */\n      swap1\n      pop\n        /* \"#utility.yul\":16613:16622   */\n      dup2\n        /* \"#utility.yul\":16607:16611   */\n      dup2\n        /* \"#utility.yul\":16603:16623   */\n      sub\n        /* \"#utility.yul\":16599:16600   */\n      0x00\n        /* \"#utility.yul\":16588:16597   */\n      dup4\n        /* \"#utility.yul\":16584:16601   */\n      add\n        /* \"#utility.yul\":16577:16624   */\n      mstore\n        /* \"#utility.yul\":16641:16772   */\n      tag_435\n        /* \"#utility.yul\":16767:16771   */\n      dup2\n        /* \"#utility.yul\":16641:16772   */\n      tag_385\n      jump\t// in\n    tag_435:\n        /* \"#utility.yul\":16633:16772   */\n      swap1\n      pop\n        /* \"#utility.yul\":16531:16779   */\n      swap2\n      swap1\n      pop\n      jump\t// out\n        /* \"#utility.yul\":16785:17068   */\n    tag_266:\n      0x00\n        /* \"#utility.yul\":16851:16853   */\n      0x40\n        /* \"#utility.yul\":16845:16854   */\n      mload\n        /* \"#utility.yul\":16835:16854   */\n      swap1\n      pop\n        /* \"#utility.yul\":16893:16897   */\n      dup2\n        /* \"#utility.yul\":16885:16891   */\n      dup2\n        /* \"#utility.yul\":16881:16898   */\n      add\n        /* \"#utility.yul\":17000:17006   */\n      dup2\n        /* \"#utility.yul\":16988:16998   */\n      dup2\n        /* \"#utility.yul\":16985:17007   */\n      lt\n        /* \"#utility.yul\":16964:16982   */\n      0xffffffffffffffff\n        /* \"#utility.yul\":16952:16962   */\n      dup3\n        /* \"#utility.yul\":16949:16983   */\n      gt\n        /* \"#utility.yul\":16946:17008   */\n      or\n        /* \"#utility.yul\":16943:16945   */\n      iszero\n      tag_437\n      jumpi\n        /* \"#utility.yul\":17011:17029   */\n      tag_438\n      tag_439\n      jump\t// in\n    tag_438:\n        /* \"#utility.yul\":16943:16945   */\n    tag_437:\n        /* \"#utility.yul\":17051:17061   */\n      dup1\n        /* \"#utility.yul\":17047:17049   */\n      0x40\n        /* \"#utility.yul\":17040:17062   */\n      mstore\n        /* \"#utility.yul\":16825:17068   */\n      pop\n      swap2\n      swap1\n      pop\n      jump\t// out\n        /* \"#utility.yul\":17074:17406   */\n    tag_265:\n      0x00\n        /* \"#utility.yul\":17226:17244   */\n      0xffffffffffffffff\n        /* \"#utility.yul\":17218:17224   */\n      dup3\n        /* \"#utility.yul\":17215:17245   */\n      gt\n        /* \"#utility.yul\":17212:17214   */\n      iszero\n      tag_441\n      jumpi\n        /* \"#utility.yul\":17248:17266   */\n      tag_442\n      tag_439\n      jump\t// in\n    tag_442:\n        /* \"#utility.yul\":17212:17214   */\n    tag_441:\n        /* \"#utility.yul\":17333:17337   */\n      0x1f\n        /* \"#utility.yul\":17329:17338   */\n      not\n        /* \"#utility.yul\":17322:17326   */\n      0x1f\n        /* \"#utility.yul\":17314:17320   */\n      dup4\n        /* \"#utility.yul\":17310:17327   */\n      add\n        /* \"#utility.yul\":17306:17339   */\n      and\n        /* \"#utility.yul\":17298:17339   */\n      swap1\n      pop\n        /* \"#utility.yul\":17394:17398   */\n      0x20\n        /* \"#utility.yul\":17388:17392   */\n      dup2\n        /* \"#utility.yul\":17384:17399   */\n      add\n        /* \"#utility.yul\":17376:17399   */\n      swap1\n      pop\n        /* \"#utility.yul\":17141:17406   */\n      swap2\n      swap1\n      pop\n      jump\t// out\n        /* \"#utility.yul\":17412:17573   */\n    tag_325:\n      0x00\n        /* \"#utility.yul\":17531:17534   */\n      dup2\n        /* \"#utility.yul\":17523:17534   */\n      swap1\n      pop\n        /* \"#utility.yul\":17561:17565   */\n      0x20\n        /* \"#utility.yul\":17556:17559   */\n      dup3\n        /* \"#utility.yul\":17552:17566   */\n      add\n        /* \"#utility.yul\":17544:17566   */\n      swap1\n      pop\n        /* \"#utility.yul\":17513:17573   */\n      swap2\n      swap1\n      pop\n      jump\t// out\n        /* \"#utility.yul\":17579:17735   */\n    tag_339:\n      0x00\n        /* \"#utility.yul\":17693:17696   */\n      dup2\n        /* \"#utility.yul\":17685:17696   */\n      swap1\n      pop\n        /* \"#utility.yul\":17723:17727   */\n      0x20\n        /* \"#utility.yul\":17718:17721   */\n      dup3\n        /* \"#utility.yul\":17714:17728   */\n      add\n        /* \"#utility.yul\":17706:17728   */\n      swap1\n      pop\n        /* \"#utility.yul\":17675:17735   */\n      swap2\n      swap1\n      pop\n      jump\t// out\n        /* \"#utility.yul\":17741:17884   */\n    tag_321:\n      0x00\n        /* \"#utility.yul\":17871:17876   */\n      dup2\n        /* \"#utility.yul\":17865:17877   */\n      mload\n        /* \"#utility.yul\":17855:17877   */\n      swap1\n      pop\n        /* \"#utility.yul\":17844:17884   */\n      swap2\n      swap1\n      pop\n      jump\t// out\n        /* \"#utility.yul\":17890:18028   */\n    tag_335:\n      0x00\n        /* \"#utility.yul\":18015:18020   */\n      dup2\n        /* \"#utility.yul\":18009:18021   */\n      mload\n        /* \"#utility.yul\":17999:18021   */\n      swap1\n      pop\n        /* \"#utility.yul\":17988:18028   */\n      swap2\n      swap1\n      pop\n      jump\t// out\n        /* \"#utility.yul\":18034:18133   */\n    tag_356:\n      0x00\n        /* \"#utility.yul\":18120:18125   */\n      dup2\n        /* \"#utility.yul\":18114:18126   */\n      mload\n        /* \"#utility.yul\":18104:18126   */\n      swap1\n      pop\n        /* \"#utility.yul\":18093:18133   */\n      swap2\n      swap1\n      pop\n      jump\t// out\n        /* \"#utility.yul\":18139:18281   */\n    tag_331:\n      0x00\n        /* \"#utility.yul\":18270:18274   */\n      0x20\n        /* \"#utility.yul\":18265:18268   */\n      dup3\n        /* \"#utility.yul\":18261:18275   */\n      add\n        /* \"#utility.yul\":18253:18275   */\n      swap1\n      pop\n        /* \"#utility.yul\":18243:18281   */\n      swap2\n      swap1\n      pop\n      jump\t// out\n        /* \"#utility.yul\":18287:18424   */\n    tag_345:\n      0x00\n        /* \"#utility.yul\":18413:18417   */\n      0x20\n        /* \"#utility.yul\":18408:18411   */\n      dup3\n        /* \"#utility.yul\":18404:18418   */\n      add\n        /* \"#utility.yul\":18396:18418   */\n      swap1\n      pop\n        /* \"#utility.yul\":18386:18424   */\n      swap2\n      swap1\n      pop\n      jump\t// out\n        /* \"#utility.yul\":18430:18643   */\n    tag_323:\n      0x00\n        /* \"#utility.yul\":18592:18598   */\n      dup3\n        /* \"#utility.yul\":18587:18590   */\n      dup3\n        /* \"#utility.yul\":18580:18599   */\n      mstore\n        /* \"#utility.yul\":18632:18636   */\n      0x20\n        /* \"#utility.yul\":18627:18630   */\n      dup3\n        /* \"#utility.yul\":18623:18637   */\n      add\n        /* \"#utility.yul\":18608:18637   */\n      swap1\n      pop\n        /* \"#utility.yul\":18570:18643   */\n      swap3\n      swap2\n      pop\n      pop\n      jump\t// out\n        /* \"#utility.yul\":18649:18857   */\n    tag_337:\n      0x00\n        /* \"#utility.yul\":18806:18812   */\n      dup3\n        /* \"#utility.yul\":18801:18804   */\n      dup3\n        /* \"#utility.yul\":18794:18813   */\n      mstore\n        /* \"#utility.yul\":18846:18850   */\n      0x20\n        /* \"#utility.yul\":18841:18844   */\n      dup3\n        /* \"#utility.yul\":18837:18851   */\n      add\n        /* \"#utility.yul\":18822:18851   */\n      swap1\n      pop\n        /* \"#utility.yul\":18784:18857   */\n      swap3\n      swap2\n      pop\n      pop\n      jump\t// out\n        /* \"#utility.yul\":18863:19022   */\n    tag_358:\n      0x00\n        /* \"#utility.yul\":18971:18977   */\n      dup3\n        /* \"#utility.yul\":18966:18969   */\n      dup3\n        /* \"#utility.yul\":18959:18978   */\n      mstore\n        /* \"#utility.yul\":19011:19015   */\n      0x20\n        /* \"#utility.yul\":19006:19009   */\n      dup3\n        /* \"#utility.yul\":19002:19016   */\n      add\n        /* \"#utility.yul\":18987:19016   */\n      swap1\n      pop\n        /* \"#utility.yul\":18949:19022   */\n      swap3\n      swap2\n      pop\n      pop\n      jump\t// out\n        /* \"#utility.yul\":19028:19197   */\n    tag_367:\n      0x00\n        /* \"#utility.yul\":19146:19152   */\n      dup3\n        /* \"#utility.yul\":19141:19144   */\n      dup3\n        /* \"#utility.yul\":19134:19153   */\n      mstore\n        /* \"#utility.yul\":19186:19190   */\n      0x20\n        /* \"#utility.yul\":19181:19184   */\n      dup3\n        /* \"#utility.yul\":19177:19191   */\n      add\n        /* \"#utility.yul\":19162:19191   */\n      swap1\n      pop\n        /* \"#utility.yul\":19124:19197   */\n      swap3\n      swap2\n      pop\n      pop\n      jump\t// out\n        /* \"#utility.yul\":19203:19394   */\n    tag_94:\n      0x00\n        /* \"#utility.yul\":19263:19283   */\n      tag_455\n        /* \"#utility.yul\":19281:19282   */\n      dup3\n        /* \"#utility.yul\":19263:19283   */\n      tag_456\n      jump\t// in\n    tag_455:\n        /* \"#utility.yul\":19258:19283   */\n      swap2\n      pop\n        /* \"#utility.yul\":19297:19317   */\n      tag_457\n        /* \"#utility.yul\":19315:19316   */\n      dup4\n        /* \"#utility.yul\":19297:19317   */\n      tag_456\n      jump\t// in\n    tag_457:\n        /* \"#utility.yul\":19292:19317   */\n      swap3\n      pop\n        /* \"#utility.yul\":19336:19337   */\n      dup3\n        /* \"#utility.yul\":19333:19334   */\n      dup3\n        /* \"#utility.yul\":19330:19338   */\n      lt\n        /* \"#utility.yul\":19327:19329   */\n      iszero\n      tag_458\n      jumpi\n        /* \"#utility.yul\":19341:19359   */\n      tag_459\n      tag_460\n      jump\t// in\n    tag_459:\n        /* \"#utility.yul\":19327:19329   */\n    tag_458:\n        /* \"#utility.yul\":19386:19387   */\n      dup3\n        /* \"#utility.yul\":19383:19384   */\n      dup3\n        /* \"#utility.yul\":19379:19388   */\n      sub\n        /* \"#utility.yul\":19371:19388   */\n      swap1\n      pop\n        /* \"#utility.yul\":19248:19394   */\n      swap3\n      swap2\n      pop\n      pop\n      jump\t// out\n        /* \"#utility.yul\":19400:19496   */\n    tag_314:\n      0x00\n        /* \"#utility.yul\":19466:19490   */\n      tag_462\n        /* \"#utility.yul\":19484:19489   */\n      dup3\n        /* \"#utility.yul\":19466:19490   */\n      tag_463\n      jump\t// in\n    tag_462:\n        /* \"#utility.yul\":19455:19490   */\n      swap1\n      pop\n        /* \"#utility.yul\":19445:19496   */\n      swap2\n      swap1\n      pop\n      jump\t// out\n        /* \"#utility.yul\":19502:19592   */\n    tag_349:\n      0x00\n        /* \"#utility.yul\":19579:19584   */\n      dup2\n        /* \"#utility.yul\":19572:19585   */\n      iszero\n        /* \"#utility.yul\":19565:19586   */\n      iszero\n        /* \"#utility.yul\":19554:19586   */\n      swap1\n      pop\n        /* \"#utility.yul\":19544:19592   */\n      swap2\n      swap1\n      pop\n      jump\t// out\n        /* \"#utility.yul\":19598:19724   */\n    tag_463:\n      0x00\n        /* \"#utility.yul\":19675:19717   */\n      0xffffffffffffffffffffffffffffffffffffffff\n        /* \"#utility.yul\":19668:19673   */\n      dup3\n        /* \"#utility.yul\":19664:19718   */\n      and\n        /* \"#utility.yul\":19653:19718   */\n      swap1\n      pop\n        /* \"#utility.yul\":19643:19724   */\n      swap2\n      swap1\n      pop\n      jump\t// out\n        /* \"#utility.yul\":19730:19807   */\n    tag_456:\n      0x00\n        /* \"#utility.yul\":19796:19801   */\n      dup2\n        /* \"#utility.yul\":19785:19801   */\n      swap1\n      pop\n        /* \"#utility.yul\":19775:19807   */\n      swap2\n      swap1\n      pop\n      jump\t// out\n        /* \"#utility.yul\":19813:19899   */\n    tag_400:\n      0x00\n        /* \"#utility.yul\":19888:19892   */\n      0xff\n        /* \"#utility.yul\":19881:19886   */\n      dup3\n        /* \"#utility.yul\":19877:19893   */\n      and\n        /* \"#utility.yul\":19866:19893   */\n      swap1\n      pop\n        /* \"#utility.yul\":19856:19899   */\n      swap2\n      swap1\n      pop\n      jump\t// out\n        /* \"#utility.yul\":19905:20059   */\n    tag_269:\n        /* \"#utility.yul\":19989:19995   */\n      dup3\n        /* \"#utility.yul\":19984:19987   */\n      dup2\n        /* \"#utility.yul\":19979:19982   */\n      dup4\n        /* \"#utility.yul\":19966:19996   */\n      calldatacopy\n        /* \"#utility.yul\":20051:20052   */\n      0x00\n        /* \"#utility.yul\":20042:20048   */\n      dup4\n        /* \"#utility.yul\":20037:20040   */\n      dup4\n        /* \"#utility.yul\":20033:20049   */\n      add\n        /* \"#utility.yul\":20026:20053   */\n      mstore\n        /* \"#utility.yul\":19956:20059   */\n      pop\n      pop\n      pop\n      jump\t// out\n        /* \"#utility.yul\":20065:20372   */\n    tag_360:\n        /* \"#utility.yul\":20133:20134   */\n      0x00\n        /* \"#utility.yul\":20143:20256   */\n    tag_470:\n        /* \"#utility.yul\":20157:20163   */\n      dup4\n        /* \"#utility.yul\":20154:20155   */\n      dup2\n        /* \"#utility.yul\":20151:20164   */\n      lt\n        /* \"#utility.yul\":20143:20256   */\n      iszero\n      tag_472\n      jumpi\n        /* \"#utility.yul\":20242:20243   */\n      dup1\n        /* \"#utility.yul\":20237:20240   */\n      dup3\n        /* \"#utility.yul\":20233:20244   */\n      add\n        /* \"#utility.yul\":20227:20245   */\n      mload\n        /* \"#utility.yul\":20223:20224   */\n      dup2\n        /* \"#utility.yul\":20218:20221   */\n      dup5\n        /* \"#utility.yul\":20214:20225   */\n      add\n        /* \"#utility.yul\":20207:20246   */\n      mstore\n        /* \"#utility.yul\":20179:20181   */\n      0x20\n        /* \"#utility.yul\":20176:20177   */\n      dup2\n        /* \"#utility.yul\":20172:20182   */\n      add\n        /* \"#utility.yul\":20167:20182   */\n      swap1\n      pop\n        /* \"#utility.yul\":20143:20256   */\n      jump(tag_470)\n    tag_472:\n        /* \"#utility.yul\":20274:20280   */\n      dup4\n        /* \"#utility.yul\":20271:20272   */\n      dup2\n        /* \"#utility.yul\":20268:20281   */\n      gt\n        /* \"#utility.yul\":20265:20267   */\n      iszero\n      tag_473\n      jumpi\n        /* \"#utility.yul\":20354:20355   */\n      0x00\n        /* \"#utility.yul\":20345:20351   */\n      dup5\n        /* \"#utility.yul\":20340:20343   */\n      dup5\n        /* \"#utility.yul\":20336:20352   */\n      add\n        /* \"#utility.yul\":20329:20356   */\n      mstore\n        /* \"#utility.yul\":20265:20267   */\n    tag_473:\n        /* \"#utility.yul\":20114:20372   */\n      pop\n      pop\n      pop\n      pop\n      jump\t// out\n        /* \"#utility.yul\":20378:20698   */\n    tag_100:\n      0x00\n        /* \"#utility.yul\":20459:20460   */\n      0x02\n        /* \"#utility.yul\":20453:20457   */\n      dup3\n        /* \"#utility.yul\":20449:20461   */\n      div\n        /* \"#utility.yul\":20439:20461   */\n      swap1\n      pop\n        /* \"#utility.yul\":20506:20507   */\n      0x01\n        /* \"#utility.yul\":20500:20504   */\n      dup3\n        /* \"#utility.yul\":20496:20508   */\n      and\n        /* \"#utility.yul\":20527:20545   */\n      dup1\n        /* \"#utility.yul\":20517:20519   */\n      tag_475\n      jumpi\n        /* \"#utility.yul\":20583:20587   */\n      0x7f\n        /* \"#utility.yul\":20575:20581   */\n      dup3\n        /* \"#utility.yul\":20571:20588   */\n      and\n        /* \"#utility.yul\":20561:20588   */\n      swap2\n      pop\n        /* \"#utility.yul\":20517:20519   */\n    tag_475:\n        /* \"#utility.yul\":20645:20647   */\n      0x20\n        /* \"#utility.yul\":20637:20643   */\n      dup3\n        /* \"#utility.yul\":20634:20648   */\n      lt\n        /* \"#utility.yul\":20614:20632   */\n      dup2\n        /* \"#utility.yul\":20611:20649   */\n      eq\n        /* \"#utility.yul\":20608:20610   */\n      iszero\n      tag_476\n      jumpi\n        /* \"#utility.yul\":20664:20682   */\n      tag_477\n      tag_478\n      jump\t// in\n    tag_477:\n        /* \"#utility.yul\":20608:20610   */\n    tag_476:\n        /* \"#utility.yul\":20429:20698   */\n      pop\n      swap2\n      swap1\n      pop\n      jump\t// out\n        /* \"#utility.yul\":20704:20937   */\n    tag_108:\n      0x00\n        /* \"#utility.yul\":20766:20790   */\n      tag_480\n        /* \"#utility.yul\":20784:20789   */\n      dup3\n        /* \"#utility.yul\":20766:20790   */\n      tag_456\n      jump\t// in\n    tag_480:\n        /* \"#utility.yul\":20757:20790   */\n      swap2\n      pop\n        /* \"#utility.yul\":20812:20878   */\n      0xffffffffffffffffffffffffffffffffffffffffffffffffffffffffffffffff\n        /* \"#utility.yul\":20805:20810   */\n      dup3\n        /* \"#utility.yul\":20802:20879   */\n      eq\n        /* \"#utility.yul\":20799:20801   */\n      iszero\n      tag_481\n      jumpi\n        /* \"#utility.yul\":20882:20900   */\n      tag_482\n      tag_460\n      jump\t// in\n    tag_482:\n        /* \"#utility.yul\":20799:20801   */\n    tag_481:\n        /* \"#utility.yul\":20929:20930   */\n      0x01\n        /* \"#utility.yul\":20922:20927   */\n      dup3\n        /* \"#utility.yul\":20918:20931   */\n      add\n        /* \"#utility.yul\":20911:20931   */\n      swap1\n      pop\n        /* \"#utility.yul\":20747:20937   */\n      swap2\n      swap1\n      pop\n      jump\t// out\n        /* \"#utility.yul\":20943:21123   */\n    tag_460:\n        /* \"#utility.yul\":20991:21068   */\n      0x4e487b7100000000000000000000000000000000000000000000000000000000\n        /* \"#utility.yul\":20988:20989   */\n      0x00\n        /* \"#utility.yul\":20981:21069   */\n      mstore\n        /* \"#utility.yul\":21088:21092   */\n      0x11\n        /* \"#utility.yul\":21085:21086   */\n      0x04\n        /* \"#utility.yul\":21078:21093   */\n      mstore\n        /* \"#utility.yul\":21112:21116   */\n      0x24\n        /* \"#utility.yul\":21109:21110   */\n      0x00\n        /* \"#utility.yul\":21102:21117   */\n      revert\n        /* \"#utility.yul\":21129:21309   */\n    tag_478:\n        /* \"#utility.yul\":21177:21254   */\n      0x4e487b7100000000000000000000000000000000000000000000000000000000\n        /* \"#utility.yul\":21174:21175   */\n      0x00\n        /* \"#utility.yul\":21167:21255   */\n      mstore\n        /* \"#utility.yul\":21274:21278   */\n      0x22\n        /* \"#utility.yul\":21271:21272   */\n      0x04\n        /* \"#utility.yul\":21264:21279   */\n      mstore\n        /* \"#utility.yul\":21298:21302   */\n      0x24\n        /* \"#utility.yul\":21295:21296   */\n      0x00\n        /* \"#utility.yul\":21288:21303   */\n      revert\n        /* \"#utility.yul\":21315:21495   */\n    tag_439:\n        /* \"#utility.yul\":21363:21440   */\n      0x4e487b7100000000000000000000000000000000000000000000000000000000\n        /* \"#utility.yul\":21360:21361   */\n      0x00\n        /* \"#utility.yul\":21353:21441   */\n      mstore\n        /* \"#utility.yul\":21460:21464   */\n      0x41\n        /* \"#utility.yul\":21457:21458   */\n      0x04\n        /* \"#utility.yul\":21450:21465   */\n      mstore\n        /* \"#utility.yul\":21484:21488   */\n      0x24\n        /* \"#utility.yul\":21481:21482   */\n      0x00\n        /* \"#utility.yul\":21474:21489   */\n      revert\n        /* \"#utility.yul\":21501:21603   */\n    tag_362:\n      0x00\n        /* \"#utility.yul\":21593:21595   */\n      0x1f\n        /* \"#utility.yul\":21589:21596   */\n      not\n        /* \"#utility.yul\":21584:21586   */\n      0x1f\n        /* \"#utility.yul\":21577:21582   */\n      dup4\n        /* \"#utility.yul\":21573:21587   */\n      add\n        /* \"#utility.yul\":21569:21597   */\n      and\n        /* \"#utility.yul\":21559:21597   */\n      swap1\n      pop\n        /* \"#utility.yul\":21549:21603   */\n      swap2\n      swap1\n      pop\n      jump\t// out\n        /* \"#utility.yul\":21609:21731   */\n    tag_273:\n        /* \"#utility.yul\":21682:21706   */\n      tag_488\n        /* \"#utility.yul\":21700:21705   */\n      dup2\n        /* \"#utility.yul\":21682:21706   */\n      tag_314\n      jump\t// in\n    tag_488:\n        /* \"#utility.yul\":21675:21680   */\n      dup2\n        /* \"#utility.yul\":21672:21707   */\n      eq\n        /* \"#utility.yul\":21662:21664   */\n      tag_489\n      jumpi\n        /* \"#utility.yul\":21721:21722   */\n      0x00\n        /* \"#utility.yul\":21718:21719   */\n      dup1\n        /* \"#utility.yul\":21711:21723   */\n      revert\n        /* \"#utility.yul\":21662:21664   */\n    tag_489:\n        /* \"#utility.yul\":21652:21731   */\n      pop\n      jump\t// out\n        /* \"#utility.yul\":21737:21859   */\n    tag_281:\n        /* \"#utility.yul\":21810:21834   */\n      tag_491\n        /* \"#utility.yul\":21828:21833   */\n      dup2\n        /* \"#utility.yul\":21810:21834   */\n      tag_456\n      jump\t// in\n    tag_491:\n        /* \"#utility.yul\":21803:21808   */\n      dup2\n        /* \"#utility.yul\":21800:21835   */\n      eq\n        /* \"#utility.yul\":21790:21792   */\n      tag_492\n      jumpi\n        /* \"#utility.yul\":21849:21850   */\n      0x00\n        /* \"#utility.yul\":21846:21847   */\n      dup1\n        /* \"#utility.yul\":21839:21851   */\n      revert\n        /* \"#utility.yul\":21790:21792   */\n    tag_492:\n        /* \"#utility.yul\":21780:21859   */\n      pop\n      jump\t// out\n        /* \"#utility.yul\":21865:21983   */\n    tag_285:\n        /* \"#utility.yul\":21936:21958   */\n      tag_494\n        /* \"#utility.yul\":21952:21957   */\n      dup2\n        /* \"#utility.yul\":21936:21958   */\n      tag_400\n      jump\t// in\n    tag_494:\n        /* \"#utility.yul\":21929:21934   */\n      dup2\n        /* \"#utility.yul\":21926:21959   */\n      eq\n        /* \"#utility.yul\":21916:21918   */\n      tag_495\n      jumpi\n        /* \"#utility.yul\":21973:21974   */\n      0x00\n        /* \"#utility.yul\":21970:21971   */\n      dup1\n        /* \"#utility.yul\":21963:21975   */\n      revert\n        /* \"#utility.yul\":21916:21918   */\n    tag_495:\n        /* \"#utility.yul\":21906:21983   */\n      pop\n      jump\t// out\n    stop\n    data_ab5ecbcd895f46bb6ad5a983fd00ba29b72331686909f50871dc662956b121c9 47756961206465205475726973746173207265676973747261646f20636f6e20657869746f\n    data_c9b19ca271bb17025b274d57613f75f836be0400106b0af07ea082c249005a48 4775696120646520547572697374617320656c696d696e61646f20636f6e20657869746f\n\n    auxdata: 0xa2646970667358221220968f06caf406c2ef1668194346f0251a8409be4660903d87781ad32d4282b89e64736f6c63430008000033\n}\n",
				"bytecode": {
					"linkReferences": {},
					"object": "608060405234801561001057600080fd5b50336000806101000a81548173ffffffffffffffffffffffffffffffffffffffff021916908373ffffffffffffffffffffffffffffffffffffffff160217905550612f97806100606000396000f3fe608060405234801561001057600080fd5b50600436106100cf5760003560e01c80635ac340981161008c578063966549e511610066578063966549e51461027c5780639dc43f771461029a578063db096f25146102b8578063f0963a11146102ea576100cf565b80635ac34098146101e5578063711422d6146102175780638e12bf8714610249576100cf565b80630e768dbf146100d45780632bdaa8c9146101045780632eb728751461013457806340280a631461016457806347c58865146101975780635922f385146101b5575b600080fd5b6100ee60048036038101906100e99190612464565b61031d565b6040516100fb9190612b0d565b60405180910390f35b61011e60048036038101906101199190612464565b610860565b60405161012b9190612b0d565b60405180910390f35b61014e6004803603810190610149919061248d565b610ceb565b60405161015b9190612b0d565b60405180910390f35b61017e60048036038101906101799190612464565b611017565b60405161018e9493929190612a7d565b60405180910390f35b61019f611109565b6040516101ac9190612aeb565b60405180910390f35b6101cf60048036038101906101ca91906124e1565b6114b1565b6040516101dc9190612b0d565b60405180910390f35b6101ff60048036038101906101fa9190612464565b61189d565b60405161020e93929190612a3f565b60405180910390f35b610231600480360381019061022c9190612548565b61197c565b60405161024093929190612a3f565b60405180910390f35b610263600480360381019061025e9190612464565b611a6b565b6040516102739493929190612a7d565b60405180910390f35b610284611c04565b6040516102919190612ac9565b60405180910390f35b6102a2611f38565b6040516102af91906129f4565b60405180910390f35b6102d260048036038101906102cd9190612464565b611f5c565b6040516102e193929190612a3f565b60405180910390f35b61030460048036038101906102ff9190612548565b6120cf565b6040516103149493929190612a7d565b60405180910390f35b606060008054906101000a900473ffffffffffffffffffffffffffffffffffffffff1673ffffffffffffffffffffffffffffffffffffffff163373ffffffffffffffffffffffffffffffffffffffff1614806103c55750600360003373ffffffffffffffffffffffffffffffffffffffff1673ffffffffffffffffffffffffffffffffffffffff16815260200190815260200160002060020160009054906101000a900460ff165b610404576040517f08c379a00000000000000000000000000000000000000000000000000000000081526004016103fb90612b2f565b60405180910390fd5b600460008373ffffffffffffffffffffffffffffffffffffffff1673ffffffffffffffffffffffffffffffffffffffff16815260200190815260200160002060020160019054906101000a900460ff16610493576040517f08c379a000000000000000000000000000000000000000000000000000000000815260040161048a90612bcf565b60405180910390fd5b6000600460008473ffffffffffffffffffffffffffffffffffffffff1673ffffffffffffffffffffffffffffffffffffffff16815260200190815260200160002060020160016101000a81548160ff0219169083151502179055507fb132297e629aea39de2a0b95087d354abbad2860bc2dec703085f02ee09e372b8260405161051d91906129f4565b60405180910390a160005b600280549050811015610822578273ffffffffffffffffffffffffffffffffffffffff1660028281548110610586577f4e487b7100000000000000000000000000000000000000000000000000000000600052603260045260246000fd5b906000526020600020906003020160000160009054906101000a900473ffffffffffffffffffffffffffffffffffffffff1673ffffffffffffffffffffffffffffffffffffffff16141561080f57600260016002805490506105e89190612cef565b8154811061061f577f4e487b7100000000000000000000000000000000000000000000000000000000600052603260045260246000fd5b906000526020600020906003020160028281548110610667577f4e487b7100000000000000000000000000000000000000000000000000000000600052603260045260246000fd5b90600052602060002090600302016000820160009054906101000a900473ffffffffffffffffffffffffffffffffffffffff168160000160006101000a81548173ffffffffffffffffffffffffffffffffffffffff021916908373ffffffffffffffffffffffffffffffffffffffff16021790555060018201816001019080546106f090612dba565b6106fb9291906121d1565b506002820160009054906101000a900460ff168160020160006101000a81548160ff021916908360ff1602179055506002820160019054906101000a900460ff168160020160016101000a81548160ff0219169083151502179055509050506002805480610792577f4e487b7100000000000000000000000000000000000000000000000000000000600052603160045260246000fd5b6001900381819060005260206000209060030201600080820160006101000a81549073ffffffffffffffffffffffffffffffffffffffff02191690556001820160006107de919061225e565b6002820160006101000a81549060ff02191690556002820160016101000a81549060ff021916905550509055610822565b808061081a90612dec565b915050610528565b506040518060400160405280601b81526020017f5475726973746120656c696d696e61646f20636f6e20657869746f00000000008152509050919050565b606060008054906101000a900473ffffffffffffffffffffffffffffffffffffffff1673ffffffffffffffffffffffffffffffffffffffff163373ffffffffffffffffffffffffffffffffffffffff16146108f0576040517f08c379a00000000000000000000000000000000000000000000000000000000081526004016108e790612baf565b60405180910390fd5b600360008373ffffffffffffffffffffffffffffffffffffffff1673ffffffffffffffffffffffffffffffffffffffff16815260200190815260200160002060020160009054906101000a900460ff1661097f576040517f08c379a000000000000000000000000000000000000000000000000000000000815260040161097690612b8f565b60405180910390fd5b6000600360008473ffffffffffffffffffffffffffffffffffffffff1673ffffffffffffffffffffffffffffffffffffffff16815260200190815260200160002060020160006101000a81548160ff0219169083151502179055507f93d0e91b2385480f16c2e324398638f59df15184797653484a2e7a4d851540f182604051610a0991906129f4565b60405180910390a160005b600180549050811015610cca578273ffffffffffffffffffffffffffffffffffffffff1660018281548110610a72577f4e487b7100000000000000000000000000000000000000000000000000000000600052603260045260246000fd5b906000526020600020906003020160000160009054906101000a900473ffffffffffffffffffffffffffffffffffffffff1673ffffffffffffffffffffffffffffffffffffffff161415610cb7576001808080549050610ad29190612cef565b81548110610b09577f4e487b7100000000000000000000000000000000000000000000000000000000600052603260045260246000fd5b906000526020600020906003020160018281548110610b51577f4e487b7100000000000000000000000000000000000000000000000000000000600052603260045260246000fd5b90600052602060002090600302016000820160009054906101000a900473ffffffffffffffffffffffffffffffffffffffff168160000160006101000a81548173ffffffffffffffffffffffffffffffffffffffff021916908373ffffffffffffffffffffffffffffffffffffffff1602179055506001820181600101908054610bda90612dba565b610be59291906121d1565b506002820160009054906101000a900460ff168160020160006101000a81548160ff0219169083151502179055509050506001805480610c4e577f4e487b7100000000000000000000000000000000000000000000000000000000600052603160045260246000fd5b6001900381819060005260206000209060030201600080820160006101000a81549073ffffffffffffffffffffffffffffffffffffffff0219169055600182016000610c9a919061225e565b6002820160006101000a81549060ff021916905550509055610cca565b8080610cc290612dec565b915050610a14565b50604051806060016040528060248152602001612f3e602491399050919050565b606060008054906101000a900473ffffffffffffffffffffffffffffffffffffffff1673ffffffffffffffffffffffffffffffffffffffff163373ffffffffffffffffffffffffffffffffffffffff1614610d7b576040517f08c379a0000000000000000000000000000000000000000000000000000000008152600401610d7290612baf565b60405180910390fd5b600360008473ffffffffffffffffffffffffffffffffffffffff1673ffffffffffffffffffffffffffffffffffffffff16815260200190815260200160002060020160009054906101000a900460ff1615610e0b576040517f08c379a0000000000000000000000000000000000000000000000000000000008152600401610e0290612b4f565b60405180910390fd5b600060405180606001604052808573ffffffffffffffffffffffffffffffffffffffff16815260200184815260200160011515815250905080600360008673ffffffffffffffffffffffffffffffffffffffff1673ffffffffffffffffffffffffffffffffffffffff16815260200190815260200160002060008201518160000160006101000a81548173ffffffffffffffffffffffffffffffffffffffff021916908373ffffffffffffffffffffffffffffffffffffffff1602179055506020820151816001019080519060200190610ee692919061229e565b5060408201518160020160006101000a81548160ff021916908315150217905550905050600181908060018154018082558091505060019003906000526020600020906003020160009091909190915060008201518160000160006101000a81548173ffffffffffffffffffffffffffffffffffffffff021916908373ffffffffffffffffffffffffffffffffffffffff1602179055506020820151816001019080519060200190610f9992919061229e565b5060408201518160020160006101000a81548160ff02191690831515021790555050507f51d926f521aa5bce4104e82a66580aa7251d9a3598bccb8ddf76febbff83576a8484604051610fed929190612a0f565b60405180910390a1604051806060016040528060258152602001612f196025913991505092915050565b60046020528060005260406000206000915090508060000160009054906101000a900473ffffffffffffffffffffffffffffffffffffffff169080600101805461106090612dba565b80601f016020809104026020016040519081016040528092919081815260200182805461108c90612dba565b80156110d95780601f106110ae576101008083540402835291602001916110d9565b820191906000526020600020905b8154815290600101906020018083116110bc57829003601f168201915b5050505050908060020160009054906101000a900460ff16908060020160019054906101000a900460ff16905084565b606060008054906101000a900473ffffffffffffffffffffffffffffffffffffffff1673ffffffffffffffffffffffffffffffffffffffff163373ffffffffffffffffffffffffffffffffffffffff1614806111b15750600360003373ffffffffffffffffffffffffffffffffffffffff1673ffffffffffffffffffffffffffffffffffffffff16815260200190815260200160002060020160009054906101000a900460ff165b6111f0576040517f08c379a00000000000000000000000000000000000000000000000000000000081526004016111e790612b2f565b60405180910390fd5b60028054905067ffffffffffffffff811115611235577f4e487b7100000000000000000000000000000000000000000000000000000000600052604160045260246000fd5b60405190808252806020026020018201604052801561126e57816020015b61125b612324565b8152602001906001900390816112535790505b50905060005b6002805490508110156114ad5760046000600283815481106112bf577f4e487b7100000000000000000000000000000000000000000000000000000000600052603260045260246000fd5b906000526020600020906003020160000160009054906101000a900473ffffffffffffffffffffffffffffffffffffffff1673ffffffffffffffffffffffffffffffffffffffff1673ffffffffffffffffffffffffffffffffffffffff1681526020019081526020016000206040518060800160405290816000820160009054906101000a900473ffffffffffffffffffffffffffffffffffffffff1673ffffffffffffffffffffffffffffffffffffffff1673ffffffffffffffffffffffffffffffffffffffff16815260200160018201805461139c90612dba565b80601f01602080910402602001604051908101604052809291908181526020018280546113c890612dba565b80156114155780601f106113ea57610100808354040283529160200191611415565b820191906000526020600020905b8154815290600101906020018083116113f857829003601f168201915b505050505081526020016002820160009054906101000a900460ff1660ff1660ff1681526020016002820160019054906101000a900460ff16151515158152505082828151811061148f577f4e487b7100000000000000000000000000000000000000000000000000000000600052603260045260246000fd5b602002602001018190525080806114a590612dec565b915050611274565b5090565b606060008054906101000a900473ffffffffffffffffffffffffffffffffffffffff1673ffffffffffffffffffffffffffffffffffffffff163373ffffffffffffffffffffffffffffffffffffffff1614806115595750600360003373ffffffffffffffffffffffffffffffffffffffff1673ffffffffffffffffffffffffffffffffffffffff16815260200190815260200160002060020160009054906101000a900460ff165b611598576040517f08c379a000000000000000000000000000000000000000000000000000000000815260040161158f90612b2f565b60405180910390fd5b600460008573ffffffffffffffffffffffffffffffffffffffff1673ffffffffffffffffffffffffffffffffffffffff16815260200190815260200160002060020160019054906101000a900460ff1615611628576040517f08c379a000000000000000000000000000000000000000000000000000000000815260040161161f90612b6f565b60405180910390fd5b600060405180608001604052808673ffffffffffffffffffffffffffffffffffffffff1681526020018581526020018460ff16815260200160011515815250905080600460008773ffffffffffffffffffffffffffffffffffffffff1673ffffffffffffffffffffffffffffffffffffffff16815260200190815260200160002060008201518160000160006101000a81548173ffffffffffffffffffffffffffffffffffffffff021916908373ffffffffffffffffffffffffffffffffffffffff160217905550602082015181600101908051906020019061170c92919061229e565b5060408201518160020160006101000a81548160ff021916908360ff16021790555060608201518160020160016101000a81548160ff021916908315150217905550905050600281908060018154018082558091505060019003906000526020600020906003020160009091909190915060008201518160000160006101000a81548173ffffffffffffffffffffffffffffffffffffffff021916908373ffffffffffffffffffffffffffffffffffffffff16021790555060208201518160010190805190602001906117e092919061229e565b5060408201518160020160006101000a81548160ff021916908360ff16021790555060608201518160020160016101000a81548160ff02191690831515021790555050507f6e3e05804c481790319a6706171e0354dbe5b600f1a3a8b4e12a70a2892f8d7d8585604051611855929190612a0f565b60405180910390a16040518060400160405280601c81526020017f54757269737461207265676973747261646f20636f6e20657869746f000000008152509150509392505050565b60036020528060005260406000206000915090508060000160009054906101000a900473ffffffffffffffffffffffffffffffffffffffff16908060010180546118e690612dba565b80601f016020809104026020016040519081016040528092919081815260200182805461191290612dba565b801561195f5780601f106119345761010080835404028352916020019161195f565b820191906000526020600020905b81548152906001019060200180831161194257829003601f168201915b5050505050908060020160009054906101000a900460ff16905083565b6001818154811061198c57600080fd5b90600052602060002090600302016000915090508060000160009054906101000a900473ffffffffffffffffffffffffffffffffffffffff16908060010180546119d590612dba565b80601f0160208091040260200160405190810160405280929190818152602001828054611a0190612dba565b8015611a4e5780601f10611a2357610100808354040283529160200191611a4e565b820191906000526020600020905b815481529060010190602001808311611a3157829003601f168201915b5050505050908060020160009054906101000a900460ff16905083565b600060606000806000600460008773ffffffffffffffffffffffffffffffffffffffff1673ffffffffffffffffffffffffffffffffffffffff1681526020019081526020016000206040518060800160405290816000820160009054906101000a900473ffffffffffffffffffffffffffffffffffffffff1673ffffffffffffffffffffffffffffffffffffffff1673ffffffffffffffffffffffffffffffffffffffff168152602001600182018054611b2490612dba565b80601f0160208091040260200160405190810160405280929190818152602001828054611b5090612dba565b8015611b9d5780601f10611b7257610100808354040283529160200191611b9d565b820191906000526020600020905b815481529060010190602001808311611b8057829003601f168201915b505050505081526020016002820160009054906101000a900460ff1660ff1660ff1681526020016002820160019054906101000a900460ff161515151581525050905080600001518160200151826040015183606001519450945094509450509193509193565b606060008054906101000a900473ffffffffffffffffffffffffffffffffffffffff1673ffffffffffffffffffffffffffffffffffffffff163373ffffffffffffffffffffffffffffffffffffffff1614611c94576040517f08c379a0000000000000000000000000000000000000000000000000000000008152600401611c8b90612baf565b60405180910390fd5b60018054905067ffffffffffffffff811115611cd9577f4e487b7100000000000000000000000000000000000000000000000000000000600052604160045260246000fd5b604051908082528060200260200182016040528015611d1257816020015b611cff612367565b815260200190600190039081611cf75790505b50905060005b600180549050811015611f34576003600060018381548110611d63577f4e487b7100000000000000000000000000000000000000000000000000000000600052603260045260246000fd5b906000526020600020906003020160000160009054906101000a900473ffffffffffffffffffffffffffffffffffffffff1673ffffffffffffffffffffffffffffffffffffffff1673ffffffffffffffffffffffffffffffffffffffff1681526020019081526020016000206040518060600160405290816000820160009054906101000a900473ffffffffffffffffffffffffffffffffffffffff1673ffffffffffffffffffffffffffffffffffffffff1673ffffffffffffffffffffffffffffffffffffffff168152602001600182018054611e4090612dba565b80601f0160208091040260200160405190810160405280929190818152602001828054611e6c90612dba565b8015611eb95780601f10611e8e57610100808354040283529160200191611eb9565b820191906000526020600020905b815481529060010190602001808311611e9c57829003601f168201915b505050505081526020016002820160009054906101000a900460ff161515151581525050828281518110611f16577f4e487b7100000000000000000000000000000000000000000000000000000000600052603260045260246000fd5b60200260200101819052508080611f2c90612dec565b915050611d18565b5090565b60008054906101000a900473ffffffffffffffffffffffffffffffffffffffff1681565b60006060600080600360008673ffffffffffffffffffffffffffffffffffffffff1673ffffffffffffffffffffffffffffffffffffffff1681526020019081526020016000206040518060600160405290816000820160009054906101000a900473ffffffffffffffffffffffffffffffffffffffff1673ffffffffffffffffffffffffffffffffffffffff1673ffffffffffffffffffffffffffffffffffffffff16815260200160018201805461201390612dba565b80601f016020809104026020016040519081016040528092919081815260200182805461203f90612dba565b801561208c5780601f106120615761010080835404028352916020019161208c565b820191906000526020600020905b81548152906001019060200180831161206f57829003601f168201915b505050505081526020016002820160009054906101000a900460ff1615151515815250509050806000015181602001518260400151935093509350509193909250565b600281815481106120df57600080fd5b90600052602060002090600302016000915090508060000160009054906101000a900473ffffffffffffffffffffffffffffffffffffffff169080600101805461212890612dba565b80601f016020809104026020016040519081016040528092919081815260200182805461215490612dba565b80156121a15780601f10612176576101008083540402835291602001916121a1565b820191906000526020600020905b81548152906001019060200180831161218457829003601f168201915b5050505050908060020160009054906101000a900460ff16908060020160019054906101000a900460ff16905084565b8280546121dd90612dba565b90600052602060002090601f0160209004810192826121ff576000855561224d565b82601f10612210578054855561224d565b8280016001018555821561224d57600052602060002091601f016020900482015b8281111561224c578254825591600101919060010190612231565b5b50905061225a91906123a0565b5090565b50805461226a90612dba565b6000825580601f1061227c575061229b565b601f01602090049060005260206000209081019061229a91906123a0565b5b50565b8280546122aa90612dba565b90600052602060002090601f0160209004810192826122cc5760008555612313565b82601f106122e557805160ff1916838001178555612313565b82800160010185558215612313579182015b828111156123125782518255916020019190600101906122f7565b5b50905061232091906123a0565b5090565b6040518060800160405280600073ffffffffffffffffffffffffffffffffffffffff16815260200160608152602001600060ff1681526020016000151581525090565b6040518060600160405280600073ffffffffffffffffffffffffffffffffffffffff168152602001606081526020016000151581525090565b5b808211156123b95760008160009055506001016123a1565b5090565b60006123d06123cb84612c20565b612bef565b9050828152602081018484840111156123e857600080fd5b6123f3848285612d78565b509392505050565b60008135905061240a81612ed3565b92915050565b600082601f83011261242157600080fd5b81356124318482602086016123bd565b91505092915050565b60008135905061244981612eea565b92915050565b60008135905061245e81612f01565b92915050565b60006020828403121561247657600080fd5b6000612484848285016123fb565b91505092915050565b600080604083850312156124a057600080fd5b60006124ae858286016123fb565b925050602083013567ffffffffffffffff8111156124cb57600080fd5b6124d785828601612410565b9150509250929050565b6000806000606084860312156124f657600080fd5b6000612504868287016123fb565b935050602084013567ffffffffffffffff81111561252157600080fd5b61252d86828701612410565b925050604061253e8682870161244f565b9150509250925092565b60006020828403121561255a57600080fd5b60006125688482850161243a565b91505092915050565b600061257d8383612923565b905092915050565b60006125918383612973565b905092915050565b6125a281612d23565b82525050565b6125b181612d23565b82525050565b60006125c282612c70565b6125cc8185612cab565b9350836020820285016125de85612c50565b8060005b8581101561261a57848403895281516125fb8582612571565b945061260683612c91565b925060208a019950506001810190506125e2565b50829750879550505050505092915050565b600061263782612c7b565b6126418185612cbc565b93508360208202850161265385612c60565b8060005b8581101561268f57848403895281516126708582612585565b945061267b83612c9e565b925060208a01995050600181019050612657565b50829750879550505050505092915050565b6126aa81612d35565b82525050565b6126b981612d35565b82525050565b60006126ca82612c86565b6126d48185612ccd565b93506126e4818560208601612d87565b6126ed81612ec2565b840191505092915050565b600061270382612c86565b61270d8185612cde565b935061271d818560208601612d87565b61272681612ec2565b840191505092915050565b600061273e603d83612cde565b91507f536f6c6f20656c204475656e6e6f206f2047756961732064652074757269737460008301527f6173207075656465207265616c697a6172206573746120616363696f6e0000006020830152604082019050919050565b60006127a4602383612cde565b91507f477569612064652054757269737461732079612065737461207265676973747260008301527f61646f00000000000000000000000000000000000000000000000000000000006020830152604082019050919050565b600061280a601a83612cde565b91507f547572697374612079612065737461207265676973747261646f0000000000006000830152602082019050919050565b600061284a600e83612cde565b91507f47756961206e6f206578697374650000000000000000000000000000000000006000830152602082019050919050565b600061288a602983612cde565b91507f536f6c6f20656c204475656e6e6f207075656465207265616c697a617220657360008301527f746120616363696f6e00000000000000000000000000000000000000000000006020830152604082019050919050565b60006128f0601183612cde565b91507f54757269737461206e6f206578697374650000000000000000000000000000006000830152602082019050919050565b600060608301600083015161293b6000860182612599565b506020830151848203602086015261295382826126bf565b915050604083015161296860408601826126a1565b508091505092915050565b600060808301600083015161298b6000860182612599565b50602083015184820360208601526129a382826126bf565b91505060408301516129b860408601826129d6565b5060608301516129cb60608601826126a1565b508091505092915050565b6129df81612d6b565b82525050565b6129ee81612d6b565b82525050565b6000602082019050612a0960008301846125a8565b92915050565b6000604082019050612a2460008301856125a8565b8181036020830152612a3681846126f8565b90509392505050565b6000606082019050612a5460008301866125a8565b8181036020830152612a6681856126f8565b9050612a7560408301846126b0565b949350505050565b6000608082019050612a9260008301876125a8565b8181036020830152612aa481866126f8565b9050612ab360408301856129e5565b612ac060608301846126b0565b95945050505050565b60006020820190508181036000830152612ae381846125b7565b905092915050565b60006020820190508181036000830152612b05818461262c565b905092915050565b60006020820190508181036000830152612b2781846126f8565b905092915050565b60006020820190508181036000830152612b4881612731565b9050919050565b60006020820190508181036000830152612b6881612797565b9050919050565b60006020820190508181036000830152612b88816127fd565b9050919050565b60006020820190508181036000830152612ba88161283d565b9050919050565b60006020820190508181036000830152612bc88161287d565b9050919050565b60006020820190508181036000830152612be8816128e3565b9050919050565b6000604051905081810181811067ffffffffffffffff82111715612c1657612c15612e93565b5b8060405250919050565b600067ffffffffffffffff821115612c3b57612c3a612e93565b5b601f19601f8301169050602081019050919050565b6000819050602082019050919050565b6000819050602082019050919050565b600081519050919050565b600081519050919050565b600081519050919050565b6000602082019050919050565b6000602082019050919050565b600082825260208201905092915050565b600082825260208201905092915050565b600082825260208201905092915050565b600082825260208201905092915050565b6000612cfa82612d61565b9150612d0583612d61565b925082821015612d1857612d17612e35565b5b828203905092915050565b6000612d2e82612d41565b9050919050565b60008115159050919050565b600073ffffffffffffffffffffffffffffffffffffffff82169050919050565b6000819050919050565b600060ff82169050919050565b82818337600083830152505050565b60005b83811015612da5578082015181840152602081019050612d8a565b83811115612db4576000848401525b50505050565b60006002820490506001821680612dd257607f821691505b60208210811415612de657612de5612e64565b5b50919050565b6000612df782612d61565b91507fffffffffffffffffffffffffffffffffffffffffffffffffffffffffffffffff821415612e2a57612e29612e35565b5b600182019050919050565b7f4e487b7100000000000000000000000000000000000000000000000000000000600052601160045260246000fd5b7f4e487b7100000000000000000000000000000000000000000000000000000000600052602260045260246000fd5b7f4e487b7100000000000000000000000000000000000000000000000000000000600052604160045260246000fd5b6000601f19601f8301169050919050565b612edc81612d23565b8114612ee757600080fd5b50565b612ef381612d61565b8114612efe57600080fd5b50565b612f0a81612d6b565b8114612f1557600080fd5b5056fe47756961206465205475726973746173207265676973747261646f20636f6e20657869746f4775696120646520547572697374617320656c696d696e61646f20636f6e20657869746fa2646970667358221220968f06caf406c2ef1668194346f0251a8409be4660903d87781ad32d4282b89e64736f6c63430008000033",
					"opcodes": "PUSH1 0x80 PUSH1 0x40 MSTORE CALLVALUE DUP1 ISZERO PUSH2 0x10 JUMPI PUSH1 0x0 DUP1 REVERT JUMPDEST POP CALLER PUSH1 0x0 DUP1 PUSH2 0x100 EXP DUP2 SLOAD DUP2 PUSH20 0xFFFFFFFFFFFFFFFFFFFFFFFFFFFFFFFFFFFFFFFF MUL NOT AND SWAP1 DUP4 PUSH20 0xFFFFFFFFFFFFFFFFFFFFFFFFFFFFFFFFFFFFFFFF AND MUL OR SWAP1 SSTORE POP PUSH2 0x2F97 DUP1 PUSH2 0x60 PUSH1 0x0 CODECOPY PUSH1 0x0 RETURN INVALID PUSH1 0x80 PUSH1 0x40 MSTORE CALLVALUE DUP1 ISZERO PUSH2 0x10 JUMPI PUSH1 0x0 DUP1 REVERT JUMPDEST POP PUSH1 0x4 CALLDATASIZE LT PUSH2 0xCF JUMPI PUSH1 0x0 CALLDATALOAD PUSH1 0xE0 SHR DUP1 PUSH4 0x5AC34098 GT PUSH2 0x8C JUMPI DUP1 PUSH4 0x966549E5 GT PUSH2 0x66 JUMPI DUP1 PUSH4 0x966549E5 EQ PUSH2 0x27C JUMPI DUP1 PUSH4 0x9DC43F77 EQ PUSH2 0x29A JUMPI DUP1 PUSH4 0xDB096F25 EQ PUSH2 0x2B8 JUMPI DUP1 PUSH4 0xF0963A11 EQ PUSH2 0x2EA JUMPI PUSH2 0xCF JUMP JUMPDEST DUP1 PUSH4 0x5AC34098 EQ PUSH2 0x1E5 JUMPI DUP1 PUSH4 0x711422D6 EQ PUSH2 0x217 JUMPI DUP1 PUSH4 0x8E12BF87 EQ PUSH2 0x249 JUMPI PUSH2 0xCF JUMP JUMPDEST DUP1 PUSH4 0xE768DBF EQ PUSH2 0xD4 JUMPI DUP1 PUSH4 0x2BDAA8C9 EQ PUSH2 0x104 JUMPI DUP1 PUSH4 0x2EB72875 EQ PUSH2 0x134 JUMPI DUP1 PUSH4 0x40280A63 EQ PUSH2 0x164 JUMPI DUP1 PUSH4 0x47C58865 EQ PUSH2 0x197 JUMPI DUP1 PUSH4 0x5922F385 EQ PUSH2 0x1B5 JUMPI JUMPDEST PUSH1 0x0 DUP1 REVERT JUMPDEST PUSH2 0xEE PUSH1 0x4 DUP1 CALLDATASIZE SUB DUP2 ADD SWAP1 PUSH2 0xE9 SWAP2 SWAP1 PUSH2 0x2464 JUMP JUMPDEST PUSH2 0x31D JUMP JUMPDEST PUSH1 0x40 MLOAD PUSH2 0xFB SWAP2 SWAP1 PUSH2 0x2B0D JUMP JUMPDEST PUSH1 0x40 MLOAD DUP1 SWAP2 SUB SWAP1 RETURN JUMPDEST PUSH2 0x11E PUSH1 0x4 DUP1 CALLDATASIZE SUB DUP2 ADD SWAP1 PUSH2 0x119 SWAP2 SWAP1 PUSH2 0x2464 JUMP JUMPDEST PUSH2 0x860 JUMP JUMPDEST PUSH1 0x40 MLOAD PUSH2 0x12B SWAP2 SWAP1 PUSH2 0x2B0D JUMP JUMPDEST PUSH1 0x40 MLOAD DUP1 SWAP2 SUB SWAP1 RETURN JUMPDEST PUSH2 0x14E PUSH1 0x4 DUP1 CALLDATASIZE SUB DUP2 ADD SWAP1 PUSH2 0x149 SWAP2 SWAP1 PUSH2 0x248D JUMP JUMPDEST PUSH2 0xCEB JUMP JUMPDEST PUSH1 0x40 MLOAD PUSH2 0x15B SWAP2 SWAP1 PUSH2 0x2B0D JUMP JUMPDEST PUSH1 0x40 MLOAD DUP1 SWAP2 SUB SWAP1 RETURN JUMPDEST PUSH2 0x17E PUSH1 0x4 DUP1 CALLDATASIZE SUB DUP2 ADD SWAP1 PUSH2 0x179 SWAP2 SWAP1 PUSH2 0x2464 JUMP JUMPDEST PUSH2 0x1017 JUMP JUMPDEST PUSH1 0x40 MLOAD PUSH2 0x18E SWAP5 SWAP4 SWAP3 SWAP2 SWAP1 PUSH2 0x2A7D JUMP JUMPDEST PUSH1 0x40 MLOAD DUP1 SWAP2 SUB SWAP1 RETURN JUMPDEST PUSH2 0x19F PUSH2 0x1109 JUMP JUMPDEST PUSH1 0x40 MLOAD PUSH2 0x1AC SWAP2 SWAP1 PUSH2 0x2AEB JUMP JUMPDEST PUSH1 0x40 MLOAD DUP1 SWAP2 SUB SWAP1 RETURN JUMPDEST PUSH2 0x1CF PUSH1 0x4 DUP1 CALLDATASIZE SUB DUP2 ADD SWAP1 PUSH2 0x1CA SWAP2 SWAP1 PUSH2 0x24E1 JUMP JUMPDEST PUSH2 0x14B1 JUMP JUMPDEST PUSH1 0x40 MLOAD PUSH2 0x1DC SWAP2 SWAP1 PUSH2 0x2B0D JUMP JUMPDEST PUSH1 0x40 MLOAD DUP1 SWAP2 SUB SWAP1 RETURN JUMPDEST PUSH2 0x1FF PUSH1 0x4 DUP1 CALLDATASIZE SUB DUP2 ADD SWAP1 PUSH2 0x1FA SWAP2 SWAP1 PUSH2 0x2464 JUMP JUMPDEST PUSH2 0x189D JUMP JUMPDEST PUSH1 0x40 MLOAD PUSH2 0x20E SWAP4 SWAP3 SWAP2 SWAP1 PUSH2 0x2A3F JUMP JUMPDEST PUSH1 0x40 MLOAD DUP1 SWAP2 SUB SWAP1 RETURN JUMPDEST PUSH2 0x231 PUSH1 0x4 DUP1 CALLDATASIZE SUB DUP2 ADD SWAP1 PUSH2 0x22C SWAP2 SWAP1 PUSH2 0x2548 JUMP JUMPDEST PUSH2 0x197C JUMP JUMPDEST PUSH1 0x40 MLOAD PUSH2 0x240 SWAP4 SWAP3 SWAP2 SWAP1 PUSH2 0x2A3F JUMP JUMPDEST PUSH1 0x40 MLOAD DUP1 SWAP2 SUB SWAP1 RETURN JUMPDEST PUSH2 0x263 PUSH1 0x4 DUP1 CALLDATASIZE SUB DUP2 ADD SWAP1 PUSH2 0x25E SWAP2 SWAP1 PUSH2 0x2464 JUMP JUMPDEST PUSH2 0x1A6B JUMP JUMPDEST PUSH1 0x40 MLOAD PUSH2 0x273 SWAP5 SWAP4 SWAP3 SWAP2 SWAP1 PUSH2 0x2A7D JUMP JUMPDEST PUSH1 0x40 MLOAD DUP1 SWAP2 SUB SWAP1 RETURN JUMPDEST PUSH2 0x284 PUSH2 0x1C04 JUMP JUMPDEST PUSH1 0x40 MLOAD PUSH2 0x291 SWAP2 SWAP1 PUSH2 0x2AC9 JUMP JUMPDEST PUSH1 0x40 MLOAD DUP1 SWAP2 SUB SWAP1 RETURN JUMPDEST PUSH2 0x2A2 PUSH2 0x1F38 JUMP JUMPDEST PUSH1 0x40 MLOAD PUSH2 0x2AF SWAP2 SWAP1 PUSH2 0x29F4 JUMP JUMPDEST PUSH1 0x40 MLOAD DUP1 SWAP2 SUB SWAP1 RETURN JUMPDEST PUSH2 0x2D2 PUSH1 0x4 DUP1 CALLDATASIZE SUB DUP2 ADD SWAP1 PUSH2 0x2CD SWAP2 SWAP1 PUSH2 0x2464 JUMP JUMPDEST PUSH2 0x1F5C JUMP JUMPDEST PUSH1 0x40 MLOAD PUSH2 0x2E1 SWAP4 SWAP3 SWAP2 SWAP1 PUSH2 0x2A3F JUMP JUMPDEST PUSH1 0x40 MLOAD DUP1 SWAP2 SUB SWAP1 RETURN JUMPDEST PUSH2 0x304 PUSH1 0x4 DUP1 CALLDATASIZE SUB DUP2 ADD SWAP1 PUSH2 0x2FF SWAP2 SWAP1 PUSH2 0x2548 JUMP JUMPDEST PUSH2 0x20CF JUMP JUMPDEST PUSH1 0x40 MLOAD PUSH2 0x314 SWAP5 SWAP4 SWAP3 SWAP2 SWAP1 PUSH2 0x2A7D JUMP JUMPDEST PUSH1 0x40 MLOAD DUP1 SWAP2 SUB SWAP1 RETURN JUMPDEST PUSH1 0x60 PUSH1 0x0 DUP1 SLOAD SWAP1 PUSH2 0x100 EXP SWAP1 DIV PUSH20 0xFFFFFFFFFFFFFFFFFFFFFFFFFFFFFFFFFFFFFFFF AND PUSH20 0xFFFFFFFFFFFFFFFFFFFFFFFFFFFFFFFFFFFFFFFF AND CALLER PUSH20 0xFFFFFFFFFFFFFFFFFFFFFFFFFFFFFFFFFFFFFFFF AND EQ DUP1 PUSH2 0x3C5 JUMPI POP PUSH1 0x3 PUSH1 0x0 CALLER PUSH20 0xFFFFFFFFFFFFFFFFFFFFFFFFFFFFFFFFFFFFFFFF AND PUSH20 0xFFFFFFFFFFFFFFFFFFFFFFFFFFFFFFFFFFFFFFFF AND DUP2 MSTORE PUSH1 0x20 ADD SWAP1 DUP2 MSTORE PUSH1 0x20 ADD PUSH1 0x0 KECCAK256 PUSH1 0x2 ADD PUSH1 0x0 SWAP1 SLOAD SWAP1 PUSH2 0x100 EXP SWAP1 DIV PUSH1 0xFF AND JUMPDEST PUSH2 0x404 JUMPI PUSH1 0x40 MLOAD PUSH32 0x8C379A000000000000000000000000000000000000000000000000000000000 DUP2 MSTORE PUSH1 0x4 ADD PUSH2 0x3FB SWAP1 PUSH2 0x2B2F JUMP JUMPDEST PUSH1 0x40 MLOAD DUP1 SWAP2 SUB SWAP1 REVERT JUMPDEST PUSH1 0x4 PUSH1 0x0 DUP4 PUSH20 0xFFFFFFFFFFFFFFFFFFFFFFFFFFFFFFFFFFFFFFFF AND PUSH20 0xFFFFFFFFFFFFFFFFFFFFFFFFFFFFFFFFFFFFFFFF AND DUP2 MSTORE PUSH1 0x20 ADD SWAP1 DUP2 MSTORE PUSH1 0x20 ADD PUSH1 0x0 KECCAK256 PUSH1 0x2 ADD PUSH1 0x1 SWAP1 SLOAD SWAP1 PUSH2 0x100 EXP SWAP1 DIV PUSH1 0xFF AND PUSH2 0x493 JUMPI PUSH1 0x40 MLOAD PUSH32 0x8C379A000000000000000000000000000000000000000000000000000000000 DUP2 MSTORE PUSH1 0x4 ADD PUSH2 0x48A SWAP1 PUSH2 0x2BCF JUMP JUMPDEST PUSH1 0x40 MLOAD DUP1 SWAP2 SUB SWAP1 REVERT JUMPDEST PUSH1 0x0 PUSH1 0x4 PUSH1 0x0 DUP5 PUSH20 0xFFFFFFFFFFFFFFFFFFFFFFFFFFFFFFFFFFFFFFFF AND PUSH20 0xFFFFFFFFFFFFFFFFFFFFFFFFFFFFFFFFFFFFFFFF AND DUP2 MSTORE PUSH1 0x20 ADD SWAP1 DUP2 MSTORE PUSH1 0x20 ADD PUSH1 0x0 KECCAK256 PUSH1 0x2 ADD PUSH1 0x1 PUSH2 0x100 EXP DUP2 SLOAD DUP2 PUSH1 0xFF MUL NOT AND SWAP1 DUP4 ISZERO ISZERO MUL OR SWAP1 SSTORE POP PUSH32 0xB132297E629AEA39DE2A0B95087D354ABBAD2860BC2DEC703085F02EE09E372B DUP3 PUSH1 0x40 MLOAD PUSH2 0x51D SWAP2 SWAP1 PUSH2 0x29F4 JUMP JUMPDEST PUSH1 0x40 MLOAD DUP1 SWAP2 SUB SWAP1 LOG1 PUSH1 0x0 JUMPDEST PUSH1 0x2 DUP1 SLOAD SWAP1 POP DUP2 LT ISZERO PUSH2 0x822 JUMPI DUP3 PUSH20 0xFFFFFFFFFFFFFFFFFFFFFFFFFFFFFFFFFFFFFFFF AND PUSH1 0x2 DUP3 DUP2 SLOAD DUP2 LT PUSH2 0x586 JUMPI PUSH32 0x4E487B7100000000000000000000000000000000000000000000000000000000 PUSH1 0x0 MSTORE PUSH1 0x32 PUSH1 0x4 MSTORE PUSH1 0x24 PUSH1 0x0 REVERT JUMPDEST SWAP1 PUSH1 0x0 MSTORE PUSH1 0x20 PUSH1 0x0 KECCAK256 SWAP1 PUSH1 0x3 MUL ADD PUSH1 0x0 ADD PUSH1 0x0 SWAP1 SLOAD SWAP1 PUSH2 0x100 EXP SWAP1 DIV PUSH20 0xFFFFFFFFFFFFFFFFFFFFFFFFFFFFFFFFFFFFFFFF AND PUSH20 0xFFFFFFFFFFFFFFFFFFFFFFFFFFFFFFFFFFFFFFFF AND EQ ISZERO PUSH2 0x80F JUMPI PUSH1 0x2 PUSH1 0x1 PUSH1 0x2 DUP1 SLOAD SWAP1 POP PUSH2 0x5E8 SWAP2 SWAP1 PUSH2 0x2CEF JUMP JUMPDEST DUP2 SLOAD DUP2 LT PUSH2 0x61F JUMPI PUSH32 0x4E487B7100000000000000000000000000000000000000000000000000000000 PUSH1 0x0 MSTORE PUSH1 0x32 PUSH1 0x4 MSTORE PUSH1 0x24 PUSH1 0x0 REVERT JUMPDEST SWAP1 PUSH1 0x0 MSTORE PUSH1 0x20 PUSH1 0x0 KECCAK256 SWAP1 PUSH1 0x3 MUL ADD PUSH1 0x2 DUP3 DUP2 SLOAD DUP2 LT PUSH2 0x667 JUMPI PUSH32 0x4E487B7100000000000000000000000000000000000000000000000000000000 PUSH1 0x0 MSTORE PUSH1 0x32 PUSH1 0x4 MSTORE PUSH1 0x24 PUSH1 0x0 REVERT JUMPDEST SWAP1 PUSH1 0x0 MSTORE PUSH1 0x20 PUSH1 0x0 KECCAK256 SWAP1 PUSH1 0x3 MUL ADD PUSH1 0x0 DUP3 ADD PUSH1 0x0 SWAP1 SLOAD SWAP1 PUSH2 0x100 EXP SWAP1 DIV PUSH20 0xFFFFFFFFFFFFFFFFFFFFFFFFFFFFFFFFFFFFFFFF AND DUP2 PUSH1 0x0 ADD PUSH1 0x0 PUSH2 0x100 EXP DUP2 SLOAD DUP2 PUSH20 0xFFFFFFFFFFFFFFFFFFFFFFFFFFFFFFFFFFFFFFFF MUL NOT AND SWAP1 DUP4 PUSH20 0xFFFFFFFFFFFFFFFFFFFFFFFFFFFFFFFFFFFFFFFF AND MUL OR SWAP1 SSTORE POP PUSH1 0x1 DUP3 ADD DUP2 PUSH1 0x1 ADD SWAP1 DUP1 SLOAD PUSH2 0x6F0 SWAP1 PUSH2 0x2DBA JUMP JUMPDEST PUSH2 0x6FB SWAP3 SWAP2 SWAP1 PUSH2 0x21D1 JUMP JUMPDEST POP PUSH1 0x2 DUP3 ADD PUSH1 0x0 SWAP1 SLOAD SWAP1 PUSH2 0x100 EXP SWAP1 DIV PUSH1 0xFF AND DUP2 PUSH1 0x2 ADD PUSH1 0x0 PUSH2 0x100 EXP DUP2 SLOAD DUP2 PUSH1 0xFF MUL NOT AND SWAP1 DUP4 PUSH1 0xFF AND MUL OR SWAP1 SSTORE POP PUSH1 0x2 DUP3 ADD PUSH1 0x1 SWAP1 SLOAD SWAP1 PUSH2 0x100 EXP SWAP1 DIV PUSH1 0xFF AND DUP2 PUSH1 0x2 ADD PUSH1 0x1 PUSH2 0x100 EXP DUP2 SLOAD DUP2 PUSH1 0xFF MUL NOT AND SWAP1 DUP4 ISZERO ISZERO MUL OR SWAP1 SSTORE POP SWAP1 POP POP PUSH1 0x2 DUP1 SLOAD DUP1 PUSH2 0x792 JUMPI PUSH32 0x4E487B7100000000000000000000000000000000000000000000000000000000 PUSH1 0x0 MSTORE PUSH1 0x31 PUSH1 0x4 MSTORE PUSH1 0x24 PUSH1 0x0 REVERT JUMPDEST PUSH1 0x1 SWAP1 SUB DUP2 DUP2 SWAP1 PUSH1 0x0 MSTORE PUSH1 0x20 PUSH1 0x0 KECCAK256 SWAP1 PUSH1 0x3 MUL ADD PUSH1 0x0 DUP1 DUP3 ADD PUSH1 0x0 PUSH2 0x100 EXP DUP2 SLOAD SWAP1 PUSH20 0xFFFFFFFFFFFFFFFFFFFFFFFFFFFFFFFFFFFFFFFF MUL NOT AND SWAP1 SSTORE PUSH1 0x1 DUP3 ADD PUSH1 0x0 PUSH2 0x7DE SWAP2 SWAP1 PUSH2 0x225E JUMP JUMPDEST PUSH1 0x2 DUP3 ADD PUSH1 0x0 PUSH2 0x100 EXP DUP2 SLOAD SWAP1 PUSH1 0xFF MUL NOT AND SWAP1 SSTORE PUSH1 0x2 DUP3 ADD PUSH1 0x1 PUSH2 0x100 EXP DUP2 SLOAD SWAP1 PUSH1 0xFF MUL NOT AND SWAP1 SSTORE POP POP SWAP1 SSTORE PUSH2 0x822 JUMP JUMPDEST DUP1 DUP1 PUSH2 0x81A SWAP1 PUSH2 0x2DEC JUMP JUMPDEST SWAP2 POP POP PUSH2 0x528 JUMP JUMPDEST POP PUSH1 0x40 MLOAD DUP1 PUSH1 0x40 ADD PUSH1 0x40 MSTORE DUP1 PUSH1 0x1B DUP2 MSTORE PUSH1 0x20 ADD PUSH32 0x5475726973746120656C696D696E61646F20636F6E20657869746F0000000000 DUP2 MSTORE POP SWAP1 POP SWAP2 SWAP1 POP JUMP JUMPDEST PUSH1 0x60 PUSH1 0x0 DUP1 SLOAD SWAP1 PUSH2 0x100 EXP SWAP1 DIV PUSH20 0xFFFFFFFFFFFFFFFFFFFFFFFFFFFFFFFFFFFFFFFF AND PUSH20 0xFFFFFFFFFFFFFFFFFFFFFFFFFFFFFFFFFFFFFFFF AND CALLER PUSH20 0xFFFFFFFFFFFFFFFFFFFFFFFFFFFFFFFFFFFFFFFF AND EQ PUSH2 0x8F0 JUMPI PUSH1 0x40 MLOAD PUSH32 0x8C379A000000000000000000000000000000000000000000000000000000000 DUP2 MSTORE PUSH1 0x4 ADD PUSH2 0x8E7 SWAP1 PUSH2 0x2BAF JUMP JUMPDEST PUSH1 0x40 MLOAD DUP1 SWAP2 SUB SWAP1 REVERT JUMPDEST PUSH1 0x3 PUSH1 0x0 DUP4 PUSH20 0xFFFFFFFFFFFFFFFFFFFFFFFFFFFFFFFFFFFFFFFF AND PUSH20 0xFFFFFFFFFFFFFFFFFFFFFFFFFFFFFFFFFFFFFFFF AND DUP2 MSTORE PUSH1 0x20 ADD SWAP1 DUP2 MSTORE PUSH1 0x20 ADD PUSH1 0x0 KECCAK256 PUSH1 0x2 ADD PUSH1 0x0 SWAP1 SLOAD SWAP1 PUSH2 0x100 EXP SWAP1 DIV PUSH1 0xFF AND PUSH2 0x97F JUMPI PUSH1 0x40 MLOAD PUSH32 0x8C379A000000000000000000000000000000000000000000000000000000000 DUP2 MSTORE PUSH1 0x4 ADD PUSH2 0x976 SWAP1 PUSH2 0x2B8F JUMP JUMPDEST PUSH1 0x40 MLOAD DUP1 SWAP2 SUB SWAP1 REVERT JUMPDEST PUSH1 0x0 PUSH1 0x3 PUSH1 0x0 DUP5 PUSH20 0xFFFFFFFFFFFFFFFFFFFFFFFFFFFFFFFFFFFFFFFF AND PUSH20 0xFFFFFFFFFFFFFFFFFFFFFFFFFFFFFFFFFFFFFFFF AND DUP2 MSTORE PUSH1 0x20 ADD SWAP1 DUP2 MSTORE PUSH1 0x20 ADD PUSH1 0x0 KECCAK256 PUSH1 0x2 ADD PUSH1 0x0 PUSH2 0x100 EXP DUP2 SLOAD DUP2 PUSH1 0xFF MUL NOT AND SWAP1 DUP4 ISZERO ISZERO MUL OR SWAP1 SSTORE POP PUSH32 0x93D0E91B2385480F16C2E324398638F59DF15184797653484A2E7A4D851540F1 DUP3 PUSH1 0x40 MLOAD PUSH2 0xA09 SWAP2 SWAP1 PUSH2 0x29F4 JUMP JUMPDEST PUSH1 0x40 MLOAD DUP1 SWAP2 SUB SWAP1 LOG1 PUSH1 0x0 JUMPDEST PUSH1 0x1 DUP1 SLOAD SWAP1 POP DUP2 LT ISZERO PUSH2 0xCCA JUMPI DUP3 PUSH20 0xFFFFFFFFFFFFFFFFFFFFFFFFFFFFFFFFFFFFFFFF AND PUSH1 0x1 DUP3 DUP2 SLOAD DUP2 LT PUSH2 0xA72 JUMPI PUSH32 0x4E487B7100000000000000000000000000000000000000000000000000000000 PUSH1 0x0 MSTORE PUSH1 0x32 PUSH1 0x4 MSTORE PUSH1 0x24 PUSH1 0x0 REVERT JUMPDEST SWAP1 PUSH1 0x0 MSTORE PUSH1 0x20 PUSH1 0x0 KECCAK256 SWAP1 PUSH1 0x3 MUL ADD PUSH1 0x0 ADD PUSH1 0x0 SWAP1 SLOAD SWAP1 PUSH2 0x100 EXP SWAP1 DIV PUSH20 0xFFFFFFFFFFFFFFFFFFFFFFFFFFFFFFFFFFFFFFFF AND PUSH20 0xFFFFFFFFFFFFFFFFFFFFFFFFFFFFFFFFFFFFFFFF AND EQ ISZERO PUSH2 0xCB7 JUMPI PUSH1 0x1 DUP1 DUP1 DUP1 SLOAD SWAP1 POP PUSH2 0xAD2 SWAP2 SWAP1 PUSH2 0x2CEF JUMP JUMPDEST DUP2 SLOAD DUP2 LT PUSH2 0xB09 JUMPI PUSH32 0x4E487B7100000000000000000000000000000000000000000000000000000000 PUSH1 0x0 MSTORE PUSH1 0x32 PUSH1 0x4 MSTORE PUSH1 0x24 PUSH1 0x0 REVERT JUMPDEST SWAP1 PUSH1 0x0 MSTORE PUSH1 0x20 PUSH1 0x0 KECCAK256 SWAP1 PUSH1 0x3 MUL ADD PUSH1 0x1 DUP3 DUP2 SLOAD DUP2 LT PUSH2 0xB51 JUMPI PUSH32 0x4E487B7100000000000000000000000000000000000000000000000000000000 PUSH1 0x0 MSTORE PUSH1 0x32 PUSH1 0x4 MSTORE PUSH1 0x24 PUSH1 0x0 REVERT JUMPDEST SWAP1 PUSH1 0x0 MSTORE PUSH1 0x20 PUSH1 0x0 KECCAK256 SWAP1 PUSH1 0x3 MUL ADD PUSH1 0x0 DUP3 ADD PUSH1 0x0 SWAP1 SLOAD SWAP1 PUSH2 0x100 EXP SWAP1 DIV PUSH20 0xFFFFFFFFFFFFFFFFFFFFFFFFFFFFFFFFFFFFFFFF AND DUP2 PUSH1 0x0 ADD PUSH1 0x0 PUSH2 0x100 EXP DUP2 SLOAD DUP2 PUSH20 0xFFFFFFFFFFFFFFFFFFFFFFFFFFFFFFFFFFFFFFFF MUL NOT AND SWAP1 DUP4 PUSH20 0xFFFFFFFFFFFFFFFFFFFFFFFFFFFFFFFFFFFFFFFF AND MUL OR SWAP1 SSTORE POP PUSH1 0x1 DUP3 ADD DUP2 PUSH1 0x1 ADD SWAP1 DUP1 SLOAD PUSH2 0xBDA SWAP1 PUSH2 0x2DBA JUMP JUMPDEST PUSH2 0xBE5 SWAP3 SWAP2 SWAP1 PUSH2 0x21D1 JUMP JUMPDEST POP PUSH1 0x2 DUP3 ADD PUSH1 0x0 SWAP1 SLOAD SWAP1 PUSH2 0x100 EXP SWAP1 DIV PUSH1 0xFF AND DUP2 PUSH1 0x2 ADD PUSH1 0x0 PUSH2 0x100 EXP DUP2 SLOAD DUP2 PUSH1 0xFF MUL NOT AND SWAP1 DUP4 ISZERO ISZERO MUL OR SWAP1 SSTORE POP SWAP1 POP POP PUSH1 0x1 DUP1 SLOAD DUP1 PUSH2 0xC4E JUMPI PUSH32 0x4E487B7100000000000000000000000000000000000000000000000000000000 PUSH1 0x0 MSTORE PUSH1 0x31 PUSH1 0x4 MSTORE PUSH1 0x24 PUSH1 0x0 REVERT JUMPDEST PUSH1 0x1 SWAP1 SUB DUP2 DUP2 SWAP1 PUSH1 0x0 MSTORE PUSH1 0x20 PUSH1 0x0 KECCAK256 SWAP1 PUSH1 0x3 MUL ADD PUSH1 0x0 DUP1 DUP3 ADD PUSH1 0x0 PUSH2 0x100 EXP DUP2 SLOAD SWAP1 PUSH20 0xFFFFFFFFFFFFFFFFFFFFFFFFFFFFFFFFFFFFFFFF MUL NOT AND SWAP1 SSTORE PUSH1 0x1 DUP3 ADD PUSH1 0x0 PUSH2 0xC9A SWAP2 SWAP1 PUSH2 0x225E JUMP JUMPDEST PUSH1 0x2 DUP3 ADD PUSH1 0x0 PUSH2 0x100 EXP DUP2 SLOAD SWAP1 PUSH1 0xFF MUL NOT AND SWAP1 SSTORE POP POP SWAP1 SSTORE PUSH2 0xCCA JUMP JUMPDEST DUP1 DUP1 PUSH2 0xCC2 SWAP1 PUSH2 0x2DEC JUMP JUMPDEST SWAP2 POP POP PUSH2 0xA14 JUMP JUMPDEST POP PUSH1 0x40 MLOAD DUP1 PUSH1 0x60 ADD PUSH1 0x40 MSTORE DUP1 PUSH1 0x24 DUP2 MSTORE PUSH1 0x20 ADD PUSH2 0x2F3E PUSH1 0x24 SWAP2 CODECOPY SWAP1 POP SWAP2 SWAP1 POP JUMP JUMPDEST PUSH1 0x60 PUSH1 0x0 DUP1 SLOAD SWAP1 PUSH2 0x100 EXP SWAP1 DIV PUSH20 0xFFFFFFFFFFFFFFFFFFFFFFFFFFFFFFFFFFFFFFFF AND PUSH20 0xFFFFFFFFFFFFFFFFFFFFFFFFFFFFFFFFFFFFFFFF AND CALLER PUSH20 0xFFFFFFFFFFFFFFFFFFFFFFFFFFFFFFFFFFFFFFFF AND EQ PUSH2 0xD7B JUMPI PUSH1 0x40 MLOAD PUSH32 0x8C379A000000000000000000000000000000000000000000000000000000000 DUP2 MSTORE PUSH1 0x4 ADD PUSH2 0xD72 SWAP1 PUSH2 0x2BAF JUMP JUMPDEST PUSH1 0x40 MLOAD DUP1 SWAP2 SUB SWAP1 REVERT JUMPDEST PUSH1 0x3 PUSH1 0x0 DUP5 PUSH20 0xFFFFFFFFFFFFFFFFFFFFFFFFFFFFFFFFFFFFFFFF AND PUSH20 0xFFFFFFFFFFFFFFFFFFFFFFFFFFFFFFFFFFFFFFFF AND DUP2 MSTORE PUSH1 0x20 ADD SWAP1 DUP2 MSTORE PUSH1 0x20 ADD PUSH1 0x0 KECCAK256 PUSH1 0x2 ADD PUSH1 0x0 SWAP1 SLOAD SWAP1 PUSH2 0x100 EXP SWAP1 DIV PUSH1 0xFF AND ISZERO PUSH2 0xE0B JUMPI PUSH1 0x40 MLOAD PUSH32 0x8C379A000000000000000000000000000000000000000000000000000000000 DUP2 MSTORE PUSH1 0x4 ADD PUSH2 0xE02 SWAP1 PUSH2 0x2B4F JUMP JUMPDEST PUSH1 0x40 MLOAD DUP1 SWAP2 SUB SWAP1 REVERT JUMPDEST PUSH1 0x0 PUSH1 0x40 MLOAD DUP1 PUSH1 0x60 ADD PUSH1 0x40 MSTORE DUP1 DUP6 PUSH20 0xFFFFFFFFFFFFFFFFFFFFFFFFFFFFFFFFFFFFFFFF AND DUP2 MSTORE PUSH1 0x20 ADD DUP5 DUP2 MSTORE PUSH1 0x20 ADD PUSH1 0x1 ISZERO ISZERO DUP2 MSTORE POP SWAP1 POP DUP1 PUSH1 0x3 PUSH1 0x0 DUP7 PUSH20 0xFFFFFFFFFFFFFFFFFFFFFFFFFFFFFFFFFFFFFFFF AND PUSH20 0xFFFFFFFFFFFFFFFFFFFFFFFFFFFFFFFFFFFFFFFF AND DUP2 MSTORE PUSH1 0x20 ADD SWAP1 DUP2 MSTORE PUSH1 0x20 ADD PUSH1 0x0 KECCAK256 PUSH1 0x0 DUP3 ADD MLOAD DUP2 PUSH1 0x0 ADD PUSH1 0x0 PUSH2 0x100 EXP DUP2 SLOAD DUP2 PUSH20 0xFFFFFFFFFFFFFFFFFFFFFFFFFFFFFFFFFFFFFFFF MUL NOT AND SWAP1 DUP4 PUSH20 0xFFFFFFFFFFFFFFFFFFFFFFFFFFFFFFFFFFFFFFFF AND MUL OR SWAP1 SSTORE POP PUSH1 0x20 DUP3 ADD MLOAD DUP2 PUSH1 0x1 ADD SWAP1 DUP1 MLOAD SWAP1 PUSH1 0x20 ADD SWAP1 PUSH2 0xEE6 SWAP3 SWAP2 SWAP1 PUSH2 0x229E JUMP JUMPDEST POP PUSH1 0x40 DUP3 ADD MLOAD DUP2 PUSH1 0x2 ADD PUSH1 0x0 PUSH2 0x100 EXP DUP2 SLOAD DUP2 PUSH1 0xFF MUL NOT AND SWAP1 DUP4 ISZERO ISZERO MUL OR SWAP1 SSTORE POP SWAP1 POP POP PUSH1 0x1 DUP2 SWAP1 DUP1 PUSH1 0x1 DUP2 SLOAD ADD DUP1 DUP3 SSTORE DUP1 SWAP2 POP POP PUSH1 0x1 SWAP1 SUB SWAP1 PUSH1 0x0 MSTORE PUSH1 0x20 PUSH1 0x0 KECCAK256 SWAP1 PUSH1 0x3 MUL ADD PUSH1 0x0 SWAP1 SWAP2 SWAP1 SWAP2 SWAP1 SWAP2 POP PUSH1 0x0 DUP3 ADD MLOAD DUP2 PUSH1 0x0 ADD PUSH1 0x0 PUSH2 0x100 EXP DUP2 SLOAD DUP2 PUSH20 0xFFFFFFFFFFFFFFFFFFFFFFFFFFFFFFFFFFFFFFFF MUL NOT AND SWAP1 DUP4 PUSH20 0xFFFFFFFFFFFFFFFFFFFFFFFFFFFFFFFFFFFFFFFF AND MUL OR SWAP1 SSTORE POP PUSH1 0x20 DUP3 ADD MLOAD DUP2 PUSH1 0x1 ADD SWAP1 DUP1 MLOAD SWAP1 PUSH1 0x20 ADD SWAP1 PUSH2 0xF99 SWAP3 SWAP2 SWAP1 PUSH2 0x229E JUMP JUMPDEST POP PUSH1 0x40 DUP3 ADD MLOAD DUP2 PUSH1 0x2 ADD PUSH1 0x0 PUSH2 0x100 EXP DUP2 SLOAD DUP2 PUSH1 0xFF MUL NOT AND SWAP1 DUP4 ISZERO ISZERO MUL OR SWAP1 SSTORE POP POP POP PUSH32 0x51D926F521AA5BCE4104E82A66580AA7251D9A3598BCCB8DDF76FEBBFF83576A DUP5 DUP5 PUSH1 0x40 MLOAD PUSH2 0xFED SWAP3 SWAP2 SWAP1 PUSH2 0x2A0F JUMP JUMPDEST PUSH1 0x40 MLOAD DUP1 SWAP2 SUB SWAP1 LOG1 PUSH1 0x40 MLOAD DUP1 PUSH1 0x60 ADD PUSH1 0x40 MSTORE DUP1 PUSH1 0x25 DUP2 MSTORE PUSH1 0x20 ADD PUSH2 0x2F19 PUSH1 0x25 SWAP2 CODECOPY SWAP2 POP POP SWAP3 SWAP2 POP POP JUMP JUMPDEST PUSH1 0x4 PUSH1 0x20 MSTORE DUP1 PUSH1 0x0 MSTORE PUSH1 0x40 PUSH1 0x0 KECCAK256 PUSH1 0x0 SWAP2 POP SWAP1 POP DUP1 PUSH1 0x0 ADD PUSH1 0x0 SWAP1 SLOAD SWAP1 PUSH2 0x100 EXP SWAP1 DIV PUSH20 0xFFFFFFFFFFFFFFFFFFFFFFFFFFFFFFFFFFFFFFFF AND SWAP1 DUP1 PUSH1 0x1 ADD DUP1 SLOAD PUSH2 0x1060 SWAP1 PUSH2 0x2DBA JUMP JUMPDEST DUP1 PUSH1 0x1F ADD PUSH1 0x20 DUP1 SWAP2 DIV MUL PUSH1 0x20 ADD PUSH1 0x40 MLOAD SWAP1 DUP2 ADD PUSH1 0x40 MSTORE DUP1 SWAP3 SWAP2 SWAP1 DUP2 DUP2 MSTORE PUSH1 0x20 ADD DUP3 DUP1 SLOAD PUSH2 0x108C SWAP1 PUSH2 0x2DBA JUMP JUMPDEST DUP1 ISZERO PUSH2 0x10D9 JUMPI DUP1 PUSH1 0x1F LT PUSH2 0x10AE JUMPI PUSH2 0x100 DUP1 DUP4 SLOAD DIV MUL DUP4 MSTORE SWAP2 PUSH1 0x20 ADD SWAP2 PUSH2 0x10D9 JUMP JUMPDEST DUP3 ADD SWAP2 SWAP1 PUSH1 0x0 MSTORE PUSH1 0x20 PUSH1 0x0 KECCAK256 SWAP1 JUMPDEST DUP2 SLOAD DUP2 MSTORE SWAP1 PUSH1 0x1 ADD SWAP1 PUSH1 0x20 ADD DUP1 DUP4 GT PUSH2 0x10BC JUMPI DUP3 SWAP1 SUB PUSH1 0x1F AND DUP3 ADD SWAP2 JUMPDEST POP POP POP POP POP SWAP1 DUP1 PUSH1 0x2 ADD PUSH1 0x0 SWAP1 SLOAD SWAP1 PUSH2 0x100 EXP SWAP1 DIV PUSH1 0xFF AND SWAP1 DUP1 PUSH1 0x2 ADD PUSH1 0x1 SWAP1 SLOAD SWAP1 PUSH2 0x100 EXP SWAP1 DIV PUSH1 0xFF AND SWAP1 POP DUP5 JUMP JUMPDEST PUSH1 0x60 PUSH1 0x0 DUP1 SLOAD SWAP1 PUSH2 0x100 EXP SWAP1 DIV PUSH20 0xFFFFFFFFFFFFFFFFFFFFFFFFFFFFFFFFFFFFFFFF AND PUSH20 0xFFFFFFFFFFFFFFFFFFFFFFFFFFFFFFFFFFFFFFFF AND CALLER PUSH20 0xFFFFFFFFFFFFFFFFFFFFFFFFFFFFFFFFFFFFFFFF AND EQ DUP1 PUSH2 0x11B1 JUMPI POP PUSH1 0x3 PUSH1 0x0 CALLER PUSH20 0xFFFFFFFFFFFFFFFFFFFFFFFFFFFFFFFFFFFFFFFF AND PUSH20 0xFFFFFFFFFFFFFFFFFFFFFFFFFFFFFFFFFFFFFFFF AND DUP2 MSTORE PUSH1 0x20 ADD SWAP1 DUP2 MSTORE PUSH1 0x20 ADD PUSH1 0x0 KECCAK256 PUSH1 0x2 ADD PUSH1 0x0 SWAP1 SLOAD SWAP1 PUSH2 0x100 EXP SWAP1 DIV PUSH1 0xFF AND JUMPDEST PUSH2 0x11F0 JUMPI PUSH1 0x40 MLOAD PUSH32 0x8C379A000000000000000000000000000000000000000000000000000000000 DUP2 MSTORE PUSH1 0x4 ADD PUSH2 0x11E7 SWAP1 PUSH2 0x2B2F JUMP JUMPDEST PUSH1 0x40 MLOAD DUP1 SWAP2 SUB SWAP1 REVERT JUMPDEST PUSH1 0x2 DUP1 SLOAD SWAP1 POP PUSH8 0xFFFFFFFFFFFFFFFF DUP2 GT ISZERO PUSH2 0x1235 JUMPI PUSH32 0x4E487B7100000000000000000000000000000000000000000000000000000000 PUSH1 0x0 MSTORE PUSH1 0x41 PUSH1 0x4 MSTORE PUSH1 0x24 PUSH1 0x0 REVERT JUMPDEST PUSH1 0x40 MLOAD SWAP1 DUP1 DUP3 MSTORE DUP1 PUSH1 0x20 MUL PUSH1 0x20 ADD DUP3 ADD PUSH1 0x40 MSTORE DUP1 ISZERO PUSH2 0x126E JUMPI DUP2 PUSH1 0x20 ADD JUMPDEST PUSH2 0x125B PUSH2 0x2324 JUMP JUMPDEST DUP2 MSTORE PUSH1 0x20 ADD SWAP1 PUSH1 0x1 SWAP1 SUB SWAP1 DUP2 PUSH2 0x1253 JUMPI SWAP1 POP JUMPDEST POP SWAP1 POP PUSH1 0x0 JUMPDEST PUSH1 0x2 DUP1 SLOAD SWAP1 POP DUP2 LT ISZERO PUSH2 0x14AD JUMPI PUSH1 0x4 PUSH1 0x0 PUSH1 0x2 DUP4 DUP2 SLOAD DUP2 LT PUSH2 0x12BF JUMPI PUSH32 0x4E487B7100000000000000000000000000000000000000000000000000000000 PUSH1 0x0 MSTORE PUSH1 0x32 PUSH1 0x4 MSTORE PUSH1 0x24 PUSH1 0x0 REVERT JUMPDEST SWAP1 PUSH1 0x0 MSTORE PUSH1 0x20 PUSH1 0x0 KECCAK256 SWAP1 PUSH1 0x3 MUL ADD PUSH1 0x0 ADD PUSH1 0x0 SWAP1 SLOAD SWAP1 PUSH2 0x100 EXP SWAP1 DIV PUSH20 0xFFFFFFFFFFFFFFFFFFFFFFFFFFFFFFFFFFFFFFFF AND PUSH20 0xFFFFFFFFFFFFFFFFFFFFFFFFFFFFFFFFFFFFFFFF AND PUSH20 0xFFFFFFFFFFFFFFFFFFFFFFFFFFFFFFFFFFFFFFFF AND DUP2 MSTORE PUSH1 0x20 ADD SWAP1 DUP2 MSTORE PUSH1 0x20 ADD PUSH1 0x0 KECCAK256 PUSH1 0x40 MLOAD DUP1 PUSH1 0x80 ADD PUSH1 0x40 MSTORE SWAP1 DUP2 PUSH1 0x0 DUP3 ADD PUSH1 0x0 SWAP1 SLOAD SWAP1 PUSH2 0x100 EXP SWAP1 DIV PUSH20 0xFFFFFFFFFFFFFFFFFFFFFFFFFFFFFFFFFFFFFFFF AND PUSH20 0xFFFFFFFFFFFFFFFFFFFFFFFFFFFFFFFFFFFFFFFF AND PUSH20 0xFFFFFFFFFFFFFFFFFFFFFFFFFFFFFFFFFFFFFFFF AND DUP2 MSTORE PUSH1 0x20 ADD PUSH1 0x1 DUP3 ADD DUP1 SLOAD PUSH2 0x139C SWAP1 PUSH2 0x2DBA JUMP JUMPDEST DUP1 PUSH1 0x1F ADD PUSH1 0x20 DUP1 SWAP2 DIV MUL PUSH1 0x20 ADD PUSH1 0x40 MLOAD SWAP1 DUP2 ADD PUSH1 0x40 MSTORE DUP1 SWAP3 SWAP2 SWAP1 DUP2 DUP2 MSTORE PUSH1 0x20 ADD DUP3 DUP1 SLOAD PUSH2 0x13C8 SWAP1 PUSH2 0x2DBA JUMP JUMPDEST DUP1 ISZERO PUSH2 0x1415 JUMPI DUP1 PUSH1 0x1F LT PUSH2 0x13EA JUMPI PUSH2 0x100 DUP1 DUP4 SLOAD DIV MUL DUP4 MSTORE SWAP2 PUSH1 0x20 ADD SWAP2 PUSH2 0x1415 JUMP JUMPDEST DUP3 ADD SWAP2 SWAP1 PUSH1 0x0 MSTORE PUSH1 0x20 PUSH1 0x0 KECCAK256 SWAP1 JUMPDEST DUP2 SLOAD DUP2 MSTORE SWAP1 PUSH1 0x1 ADD SWAP1 PUSH1 0x20 ADD DUP1 DUP4 GT PUSH2 0x13F8 JUMPI DUP3 SWAP1 SUB PUSH1 0x1F AND DUP3 ADD SWAP2 JUMPDEST POP POP POP POP POP DUP2 MSTORE PUSH1 0x20 ADD PUSH1 0x2 DUP3 ADD PUSH1 0x0 SWAP1 SLOAD SWAP1 PUSH2 0x100 EXP SWAP1 DIV PUSH1 0xFF AND PUSH1 0xFF AND PUSH1 0xFF AND DUP2 MSTORE PUSH1 0x20 ADD PUSH1 0x2 DUP3 ADD PUSH1 0x1 SWAP1 SLOAD SWAP1 PUSH2 0x100 EXP SWAP1 DIV PUSH1 0xFF AND ISZERO ISZERO ISZERO ISZERO DUP2 MSTORE POP POP DUP3 DUP3 DUP2 MLOAD DUP2 LT PUSH2 0x148F JUMPI PUSH32 0x4E487B7100000000000000000000000000000000000000000000000000000000 PUSH1 0x0 MSTORE PUSH1 0x32 PUSH1 0x4 MSTORE PUSH1 0x24 PUSH1 0x0 REVERT JUMPDEST PUSH1 0x20 MUL PUSH1 0x20 ADD ADD DUP2 SWAP1 MSTORE POP DUP1 DUP1 PUSH2 0x14A5 SWAP1 PUSH2 0x2DEC JUMP JUMPDEST SWAP2 POP POP PUSH2 0x1274 JUMP JUMPDEST POP SWAP1 JUMP JUMPDEST PUSH1 0x60 PUSH1 0x0 DUP1 SLOAD SWAP1 PUSH2 0x100 EXP SWAP1 DIV PUSH20 0xFFFFFFFFFFFFFFFFFFFFFFFFFFFFFFFFFFFFFFFF AND PUSH20 0xFFFFFFFFFFFFFFFFFFFFFFFFFFFFFFFFFFFFFFFF AND CALLER PUSH20 0xFFFFFFFFFFFFFFFFFFFFFFFFFFFFFFFFFFFFFFFF AND EQ DUP1 PUSH2 0x1559 JUMPI POP PUSH1 0x3 PUSH1 0x0 CALLER PUSH20 0xFFFFFFFFFFFFFFFFFFFFFFFFFFFFFFFFFFFFFFFF AND PUSH20 0xFFFFFFFFFFFFFFFFFFFFFFFFFFFFFFFFFFFFFFFF AND DUP2 MSTORE PUSH1 0x20 ADD SWAP1 DUP2 MSTORE PUSH1 0x20 ADD PUSH1 0x0 KECCAK256 PUSH1 0x2 ADD PUSH1 0x0 SWAP1 SLOAD SWAP1 PUSH2 0x100 EXP SWAP1 DIV PUSH1 0xFF AND JUMPDEST PUSH2 0x1598 JUMPI PUSH1 0x40 MLOAD PUSH32 0x8C379A000000000000000000000000000000000000000000000000000000000 DUP2 MSTORE PUSH1 0x4 ADD PUSH2 0x158F SWAP1 PUSH2 0x2B2F JUMP JUMPDEST PUSH1 0x40 MLOAD DUP1 SWAP2 SUB SWAP1 REVERT JUMPDEST PUSH1 0x4 PUSH1 0x0 DUP6 PUSH20 0xFFFFFFFFFFFFFFFFFFFFFFFFFFFFFFFFFFFFFFFF AND PUSH20 0xFFFFFFFFFFFFFFFFFFFFFFFFFFFFFFFFFFFFFFFF AND DUP2 MSTORE PUSH1 0x20 ADD SWAP1 DUP2 MSTORE PUSH1 0x20 ADD PUSH1 0x0 KECCAK256 PUSH1 0x2 ADD PUSH1 0x1 SWAP1 SLOAD SWAP1 PUSH2 0x100 EXP SWAP1 DIV PUSH1 0xFF AND ISZERO PUSH2 0x1628 JUMPI PUSH1 0x40 MLOAD PUSH32 0x8C379A000000000000000000000000000000000000000000000000000000000 DUP2 MSTORE PUSH1 0x4 ADD PUSH2 0x161F SWAP1 PUSH2 0x2B6F JUMP JUMPDEST PUSH1 0x40 MLOAD DUP1 SWAP2 SUB SWAP1 REVERT JUMPDEST PUSH1 0x0 PUSH1 0x40 MLOAD DUP1 PUSH1 0x80 ADD PUSH1 0x40 MSTORE DUP1 DUP7 PUSH20 0xFFFFFFFFFFFFFFFFFFFFFFFFFFFFFFFFFFFFFFFF AND DUP2 MSTORE PUSH1 0x20 ADD DUP6 DUP2 MSTORE PUSH1 0x20 ADD DUP5 PUSH1 0xFF AND DUP2 MSTORE PUSH1 0x20 ADD PUSH1 0x1 ISZERO ISZERO DUP2 MSTORE POP SWAP1 POP DUP1 PUSH1 0x4 PUSH1 0x0 DUP8 PUSH20 0xFFFFFFFFFFFFFFFFFFFFFFFFFFFFFFFFFFFFFFFF AND PUSH20 0xFFFFFFFFFFFFFFFFFFFFFFFFFFFFFFFFFFFFFFFF AND DUP2 MSTORE PUSH1 0x20 ADD SWAP1 DUP2 MSTORE PUSH1 0x20 ADD PUSH1 0x0 KECCAK256 PUSH1 0x0 DUP3 ADD MLOAD DUP2 PUSH1 0x0 ADD PUSH1 0x0 PUSH2 0x100 EXP DUP2 SLOAD DUP2 PUSH20 0xFFFFFFFFFFFFFFFFFFFFFFFFFFFFFFFFFFFFFFFF MUL NOT AND SWAP1 DUP4 PUSH20 0xFFFFFFFFFFFFFFFFFFFFFFFFFFFFFFFFFFFFFFFF AND MUL OR SWAP1 SSTORE POP PUSH1 0x20 DUP3 ADD MLOAD DUP2 PUSH1 0x1 ADD SWAP1 DUP1 MLOAD SWAP1 PUSH1 0x20 ADD SWAP1 PUSH2 0x170C SWAP3 SWAP2 SWAP1 PUSH2 0x229E JUMP JUMPDEST POP PUSH1 0x40 DUP3 ADD MLOAD DUP2 PUSH1 0x2 ADD PUSH1 0x0 PUSH2 0x100 EXP DUP2 SLOAD DUP2 PUSH1 0xFF MUL NOT AND SWAP1 DUP4 PUSH1 0xFF AND MUL OR SWAP1 SSTORE POP PUSH1 0x60 DUP3 ADD MLOAD DUP2 PUSH1 0x2 ADD PUSH1 0x1 PUSH2 0x100 EXP DUP2 SLOAD DUP2 PUSH1 0xFF MUL NOT AND SWAP1 DUP4 ISZERO ISZERO MUL OR SWAP1 SSTORE POP SWAP1 POP POP PUSH1 0x2 DUP2 SWAP1 DUP1 PUSH1 0x1 DUP2 SLOAD ADD DUP1 DUP3 SSTORE DUP1 SWAP2 POP POP PUSH1 0x1 SWAP1 SUB SWAP1 PUSH1 0x0 MSTORE PUSH1 0x20 PUSH1 0x0 KECCAK256 SWAP1 PUSH1 0x3 MUL ADD PUSH1 0x0 SWAP1 SWAP2 SWAP1 SWAP2 SWAP1 SWAP2 POP PUSH1 0x0 DUP3 ADD MLOAD DUP2 PUSH1 0x0 ADD PUSH1 0x0 PUSH2 0x100 EXP DUP2 SLOAD DUP2 PUSH20 0xFFFFFFFFFFFFFFFFFFFFFFFFFFFFFFFFFFFFFFFF MUL NOT AND SWAP1 DUP4 PUSH20 0xFFFFFFFFFFFFFFFFFFFFFFFFFFFFFFFFFFFFFFFF AND MUL OR SWAP1 SSTORE POP PUSH1 0x20 DUP3 ADD MLOAD DUP2 PUSH1 0x1 ADD SWAP1 DUP1 MLOAD SWAP1 PUSH1 0x20 ADD SWAP1 PUSH2 0x17E0 SWAP3 SWAP2 SWAP1 PUSH2 0x229E JUMP JUMPDEST POP PUSH1 0x40 DUP3 ADD MLOAD DUP2 PUSH1 0x2 ADD PUSH1 0x0 PUSH2 0x100 EXP DUP2 SLOAD DUP2 PUSH1 0xFF MUL NOT AND SWAP1 DUP4 PUSH1 0xFF AND MUL OR SWAP1 SSTORE POP PUSH1 0x60 DUP3 ADD MLOAD DUP2 PUSH1 0x2 ADD PUSH1 0x1 PUSH2 0x100 EXP DUP2 SLOAD DUP2 PUSH1 0xFF MUL NOT AND SWAP1 DUP4 ISZERO ISZERO MUL OR SWAP1 SSTORE POP POP POP PUSH32 0x6E3E05804C481790319A6706171E0354DBE5B600F1A3A8B4E12A70A2892F8D7D DUP6 DUP6 PUSH1 0x40 MLOAD PUSH2 0x1855 SWAP3 SWAP2 SWAP1 PUSH2 0x2A0F JUMP JUMPDEST PUSH1 0x40 MLOAD DUP1 SWAP2 SUB SWAP1 LOG1 PUSH1 0x40 MLOAD DUP1 PUSH1 0x40 ADD PUSH1 0x40 MSTORE DUP1 PUSH1 0x1C DUP2 MSTORE PUSH1 0x20 ADD PUSH32 0x54757269737461207265676973747261646F20636F6E20657869746F00000000 DUP2 MSTORE POP SWAP2 POP POP SWAP4 SWAP3 POP POP POP JUMP JUMPDEST PUSH1 0x3 PUSH1 0x20 MSTORE DUP1 PUSH1 0x0 MSTORE PUSH1 0x40 PUSH1 0x0 KECCAK256 PUSH1 0x0 SWAP2 POP SWAP1 POP DUP1 PUSH1 0x0 ADD PUSH1 0x0 SWAP1 SLOAD SWAP1 PUSH2 0x100 EXP SWAP1 DIV PUSH20 0xFFFFFFFFFFFFFFFFFFFFFFFFFFFFFFFFFFFFFFFF AND SWAP1 DUP1 PUSH1 0x1 ADD DUP1 SLOAD PUSH2 0x18E6 SWAP1 PUSH2 0x2DBA JUMP JUMPDEST DUP1 PUSH1 0x1F ADD PUSH1 0x20 DUP1 SWAP2 DIV MUL PUSH1 0x20 ADD PUSH1 0x40 MLOAD SWAP1 DUP2 ADD PUSH1 0x40 MSTORE DUP1 SWAP3 SWAP2 SWAP1 DUP2 DUP2 MSTORE PUSH1 0x20 ADD DUP3 DUP1 SLOAD PUSH2 0x1912 SWAP1 PUSH2 0x2DBA JUMP JUMPDEST DUP1 ISZERO PUSH2 0x195F JUMPI DUP1 PUSH1 0x1F LT PUSH2 0x1934 JUMPI PUSH2 0x100 DUP1 DUP4 SLOAD DIV MUL DUP4 MSTORE SWAP2 PUSH1 0x20 ADD SWAP2 PUSH2 0x195F JUMP JUMPDEST DUP3 ADD SWAP2 SWAP1 PUSH1 0x0 MSTORE PUSH1 0x20 PUSH1 0x0 KECCAK256 SWAP1 JUMPDEST DUP2 SLOAD DUP2 MSTORE SWAP1 PUSH1 0x1 ADD SWAP1 PUSH1 0x20 ADD DUP1 DUP4 GT PUSH2 0x1942 JUMPI DUP3 SWAP1 SUB PUSH1 0x1F AND DUP3 ADD SWAP2 JUMPDEST POP POP POP POP POP SWAP1 DUP1 PUSH1 0x2 ADD PUSH1 0x0 SWAP1 SLOAD SWAP1 PUSH2 0x100 EXP SWAP1 DIV PUSH1 0xFF AND SWAP1 POP DUP4 JUMP JUMPDEST PUSH1 0x1 DUP2 DUP2 SLOAD DUP2 LT PUSH2 0x198C JUMPI PUSH1 0x0 DUP1 REVERT JUMPDEST SWAP1 PUSH1 0x0 MSTORE PUSH1 0x20 PUSH1 0x0 KECCAK256 SWAP1 PUSH1 0x3 MUL ADD PUSH1 0x0 SWAP2 POP SWAP1 POP DUP1 PUSH1 0x0 ADD PUSH1 0x0 SWAP1 SLOAD SWAP1 PUSH2 0x100 EXP SWAP1 DIV PUSH20 0xFFFFFFFFFFFFFFFFFFFFFFFFFFFFFFFFFFFFFFFF AND SWAP1 DUP1 PUSH1 0x1 ADD DUP1 SLOAD PUSH2 0x19D5 SWAP1 PUSH2 0x2DBA JUMP JUMPDEST DUP1 PUSH1 0x1F ADD PUSH1 0x20 DUP1 SWAP2 DIV MUL PUSH1 0x20 ADD PUSH1 0x40 MLOAD SWAP1 DUP2 ADD PUSH1 0x40 MSTORE DUP1 SWAP3 SWAP2 SWAP1 DUP2 DUP2 MSTORE PUSH1 0x20 ADD DUP3 DUP1 SLOAD PUSH2 0x1A01 SWAP1 PUSH2 0x2DBA JUMP JUMPDEST DUP1 ISZERO PUSH2 0x1A4E JUMPI DUP1 PUSH1 0x1F LT PUSH2 0x1A23 JUMPI PUSH2 0x100 DUP1 DUP4 SLOAD DIV MUL DUP4 MSTORE SWAP2 PUSH1 0x20 ADD SWAP2 PUSH2 0x1A4E JUMP JUMPDEST DUP3 ADD SWAP2 SWAP1 PUSH1 0x0 MSTORE PUSH1 0x20 PUSH1 0x0 KECCAK256 SWAP1 JUMPDEST DUP2 SLOAD DUP2 MSTORE SWAP1 PUSH1 0x1 ADD SWAP1 PUSH1 0x20 ADD DUP1 DUP4 GT PUSH2 0x1A31 JUMPI DUP3 SWAP1 SUB PUSH1 0x1F AND DUP3 ADD SWAP2 JUMPDEST POP POP POP POP POP SWAP1 DUP1 PUSH1 0x2 ADD PUSH1 0x0 SWAP1 SLOAD SWAP1 PUSH2 0x100 EXP SWAP1 DIV PUSH1 0xFF AND SWAP1 POP DUP4 JUMP JUMPDEST PUSH1 0x0 PUSH1 0x60 PUSH1 0x0 DUP1 PUSH1 0x0 PUSH1 0x4 PUSH1 0x0 DUP8 PUSH20 0xFFFFFFFFFFFFFFFFFFFFFFFFFFFFFFFFFFFFFFFF AND PUSH20 0xFFFFFFFFFFFFFFFFFFFFFFFFFFFFFFFFFFFFFFFF AND DUP2 MSTORE PUSH1 0x20 ADD SWAP1 DUP2 MSTORE PUSH1 0x20 ADD PUSH1 0x0 KECCAK256 PUSH1 0x40 MLOAD DUP1 PUSH1 0x80 ADD PUSH1 0x40 MSTORE SWAP1 DUP2 PUSH1 0x0 DUP3 ADD PUSH1 0x0 SWAP1 SLOAD SWAP1 PUSH2 0x100 EXP SWAP1 DIV PUSH20 0xFFFFFFFFFFFFFFFFFFFFFFFFFFFFFFFFFFFFFFFF AND PUSH20 0xFFFFFFFFFFFFFFFFFFFFFFFFFFFFFFFFFFFFFFFF AND PUSH20 0xFFFFFFFFFFFFFFFFFFFFFFFFFFFFFFFFFFFFFFFF AND DUP2 MSTORE PUSH1 0x20 ADD PUSH1 0x1 DUP3 ADD DUP1 SLOAD PUSH2 0x1B24 SWAP1 PUSH2 0x2DBA JUMP JUMPDEST DUP1 PUSH1 0x1F ADD PUSH1 0x20 DUP1 SWAP2 DIV MUL PUSH1 0x20 ADD PUSH1 0x40 MLOAD SWAP1 DUP2 ADD PUSH1 0x40 MSTORE DUP1 SWAP3 SWAP2 SWAP1 DUP2 DUP2 MSTORE PUSH1 0x20 ADD DUP3 DUP1 SLOAD PUSH2 0x1B50 SWAP1 PUSH2 0x2DBA JUMP JUMPDEST DUP1 ISZERO PUSH2 0x1B9D JUMPI DUP1 PUSH1 0x1F LT PUSH2 0x1B72 JUMPI PUSH2 0x100 DUP1 DUP4 SLOAD DIV MUL DUP4 MSTORE SWAP2 PUSH1 0x20 ADD SWAP2 PUSH2 0x1B9D JUMP JUMPDEST DUP3 ADD SWAP2 SWAP1 PUSH1 0x0 MSTORE PUSH1 0x20 PUSH1 0x0 KECCAK256 SWAP1 JUMPDEST DUP2 SLOAD DUP2 MSTORE SWAP1 PUSH1 0x1 ADD SWAP1 PUSH1 0x20 ADD DUP1 DUP4 GT PUSH2 0x1B80 JUMPI DUP3 SWAP1 SUB PUSH1 0x1F AND DUP3 ADD SWAP2 JUMPDEST POP POP POP POP POP DUP2 MSTORE PUSH1 0x20 ADD PUSH1 0x2 DUP3 ADD PUSH1 0x0 SWAP1 SLOAD SWAP1 PUSH2 0x100 EXP SWAP1 DIV PUSH1 0xFF AND PUSH1 0xFF AND PUSH1 0xFF AND DUP2 MSTORE PUSH1 0x20 ADD PUSH1 0x2 DUP3 ADD PUSH1 0x1 SWAP1 SLOAD SWAP1 PUSH2 0x100 EXP SWAP1 DIV PUSH1 0xFF AND ISZERO ISZERO ISZERO ISZERO DUP2 MSTORE POP POP SWAP1 POP DUP1 PUSH1 0x0 ADD MLOAD DUP2 PUSH1 0x20 ADD MLOAD DUP3 PUSH1 0x40 ADD MLOAD DUP4 PUSH1 0x60 ADD MLOAD SWAP5 POP SWAP5 POP SWAP5 POP SWAP5 POP POP SWAP2 SWAP4 POP SWAP2 SWAP4 JUMP JUMPDEST PUSH1 0x60 PUSH1 0x0 DUP1 SLOAD SWAP1 PUSH2 0x100 EXP SWAP1 DIV PUSH20 0xFFFFFFFFFFFFFFFFFFFFFFFFFFFFFFFFFFFFFFFF AND PUSH20 0xFFFFFFFFFFFFFFFFFFFFFFFFFFFFFFFFFFFFFFFF AND CALLER PUSH20 0xFFFFFFFFFFFFFFFFFFFFFFFFFFFFFFFFFFFFFFFF AND EQ PUSH2 0x1C94 JUMPI PUSH1 0x40 MLOAD PUSH32 0x8C379A000000000000000000000000000000000000000000000000000000000 DUP2 MSTORE PUSH1 0x4 ADD PUSH2 0x1C8B SWAP1 PUSH2 0x2BAF JUMP JUMPDEST PUSH1 0x40 MLOAD DUP1 SWAP2 SUB SWAP1 REVERT JUMPDEST PUSH1 0x1 DUP1 SLOAD SWAP1 POP PUSH8 0xFFFFFFFFFFFFFFFF DUP2 GT ISZERO PUSH2 0x1CD9 JUMPI PUSH32 0x4E487B7100000000000000000000000000000000000000000000000000000000 PUSH1 0x0 MSTORE PUSH1 0x41 PUSH1 0x4 MSTORE PUSH1 0x24 PUSH1 0x0 REVERT JUMPDEST PUSH1 0x40 MLOAD SWAP1 DUP1 DUP3 MSTORE DUP1 PUSH1 0x20 MUL PUSH1 0x20 ADD DUP3 ADD PUSH1 0x40 MSTORE DUP1 ISZERO PUSH2 0x1D12 JUMPI DUP2 PUSH1 0x20 ADD JUMPDEST PUSH2 0x1CFF PUSH2 0x2367 JUMP JUMPDEST DUP2 MSTORE PUSH1 0x20 ADD SWAP1 PUSH1 0x1 SWAP1 SUB SWAP1 DUP2 PUSH2 0x1CF7 JUMPI SWAP1 POP JUMPDEST POP SWAP1 POP PUSH1 0x0 JUMPDEST PUSH1 0x1 DUP1 SLOAD SWAP1 POP DUP2 LT ISZERO PUSH2 0x1F34 JUMPI PUSH1 0x3 PUSH1 0x0 PUSH1 0x1 DUP4 DUP2 SLOAD DUP2 LT PUSH2 0x1D63 JUMPI PUSH32 0x4E487B7100000000000000000000000000000000000000000000000000000000 PUSH1 0x0 MSTORE PUSH1 0x32 PUSH1 0x4 MSTORE PUSH1 0x24 PUSH1 0x0 REVERT JUMPDEST SWAP1 PUSH1 0x0 MSTORE PUSH1 0x20 PUSH1 0x0 KECCAK256 SWAP1 PUSH1 0x3 MUL ADD PUSH1 0x0 ADD PUSH1 0x0 SWAP1 SLOAD SWAP1 PUSH2 0x100 EXP SWAP1 DIV PUSH20 0xFFFFFFFFFFFFFFFFFFFFFFFFFFFFFFFFFFFFFFFF AND PUSH20 0xFFFFFFFFFFFFFFFFFFFFFFFFFFFFFFFFFFFFFFFF AND PUSH20 0xFFFFFFFFFFFFFFFFFFFFFFFFFFFFFFFFFFFFFFFF AND DUP2 MSTORE PUSH1 0x20 ADD SWAP1 DUP2 MSTORE PUSH1 0x20 ADD PUSH1 0x0 KECCAK256 PUSH1 0x40 MLOAD DUP1 PUSH1 0x60 ADD PUSH1 0x40 MSTORE SWAP1 DUP2 PUSH1 0x0 DUP3 ADD PUSH1 0x0 SWAP1 SLOAD SWAP1 PUSH2 0x100 EXP SWAP1 DIV PUSH20 0xFFFFFFFFFFFFFFFFFFFFFFFFFFFFFFFFFFFFFFFF AND PUSH20 0xFFFFFFFFFFFFFFFFFFFFFFFFFFFFFFFFFFFFFFFF AND PUSH20 0xFFFFFFFFFFFFFFFFFFFFFFFFFFFFFFFFFFFFFFFF AND DUP2 MSTORE PUSH1 0x20 ADD PUSH1 0x1 DUP3 ADD DUP1 SLOAD PUSH2 0x1E40 SWAP1 PUSH2 0x2DBA JUMP JUMPDEST DUP1 PUSH1 0x1F ADD PUSH1 0x20 DUP1 SWAP2 DIV MUL PUSH1 0x20 ADD PUSH1 0x40 MLOAD SWAP1 DUP2 ADD PUSH1 0x40 MSTORE DUP1 SWAP3 SWAP2 SWAP1 DUP2 DUP2 MSTORE PUSH1 0x20 ADD DUP3 DUP1 SLOAD PUSH2 0x1E6C SWAP1 PUSH2 0x2DBA JUMP JUMPDEST DUP1 ISZERO PUSH2 0x1EB9 JUMPI DUP1 PUSH1 0x1F LT PUSH2 0x1E8E JUMPI PUSH2 0x100 DUP1 DUP4 SLOAD DIV MUL DUP4 MSTORE SWAP2 PUSH1 0x20 ADD SWAP2 PUSH2 0x1EB9 JUMP JUMPDEST DUP3 ADD SWAP2 SWAP1 PUSH1 0x0 MSTORE PUSH1 0x20 PUSH1 0x0 KECCAK256 SWAP1 JUMPDEST DUP2 SLOAD DUP2 MSTORE SWAP1 PUSH1 0x1 ADD SWAP1 PUSH1 0x20 ADD DUP1 DUP4 GT PUSH2 0x1E9C JUMPI DUP3 SWAP1 SUB PUSH1 0x1F AND DUP3 ADD SWAP2 JUMPDEST POP POP POP POP POP DUP2 MSTORE PUSH1 0x20 ADD PUSH1 0x2 DUP3 ADD PUSH1 0x0 SWAP1 SLOAD SWAP1 PUSH2 0x100 EXP SWAP1 DIV PUSH1 0xFF AND ISZERO ISZERO ISZERO ISZERO DUP2 MSTORE POP POP DUP3 DUP3 DUP2 MLOAD DUP2 LT PUSH2 0x1F16 JUMPI PUSH32 0x4E487B7100000000000000000000000000000000000000000000000000000000 PUSH1 0x0 MSTORE PUSH1 0x32 PUSH1 0x4 MSTORE PUSH1 0x24 PUSH1 0x0 REVERT JUMPDEST PUSH1 0x20 MUL PUSH1 0x20 ADD ADD DUP2 SWAP1 MSTORE POP DUP1 DUP1 PUSH2 0x1F2C SWAP1 PUSH2 0x2DEC JUMP JUMPDEST SWAP2 POP POP PUSH2 0x1D18 JUMP JUMPDEST POP SWAP1 JUMP JUMPDEST PUSH1 0x0 DUP1 SLOAD SWAP1 PUSH2 0x100 EXP SWAP1 DIV PUSH20 0xFFFFFFFFFFFFFFFFFFFFFFFFFFFFFFFFFFFFFFFF AND DUP2 JUMP JUMPDEST PUSH1 0x0 PUSH1 0x60 PUSH1 0x0 DUP1 PUSH1 0x3 PUSH1 0x0 DUP7 PUSH20 0xFFFFFFFFFFFFFFFFFFFFFFFFFFFFFFFFFFFFFFFF AND PUSH20 0xFFFFFFFFFFFFFFFFFFFFFFFFFFFFFFFFFFFFFFFF AND DUP2 MSTORE PUSH1 0x20 ADD SWAP1 DUP2 MSTORE PUSH1 0x20 ADD PUSH1 0x0 KECCAK256 PUSH1 0x40 MLOAD DUP1 PUSH1 0x60 ADD PUSH1 0x40 MSTORE SWAP1 DUP2 PUSH1 0x0 DUP3 ADD PUSH1 0x0 SWAP1 SLOAD SWAP1 PUSH2 0x100 EXP SWAP1 DIV PUSH20 0xFFFFFFFFFFFFFFFFFFFFFFFFFFFFFFFFFFFFFFFF AND PUSH20 0xFFFFFFFFFFFFFFFFFFFFFFFFFFFFFFFFFFFFFFFF AND PUSH20 0xFFFFFFFFFFFFFFFFFFFFFFFFFFFFFFFFFFFFFFFF AND DUP2 MSTORE PUSH1 0x20 ADD PUSH1 0x1 DUP3 ADD DUP1 SLOAD PUSH2 0x2013 SWAP1 PUSH2 0x2DBA JUMP JUMPDEST DUP1 PUSH1 0x1F ADD PUSH1 0x20 DUP1 SWAP2 DIV MUL PUSH1 0x20 ADD PUSH1 0x40 MLOAD SWAP1 DUP2 ADD PUSH1 0x40 MSTORE DUP1 SWAP3 SWAP2 SWAP1 DUP2 DUP2 MSTORE PUSH1 0x20 ADD DUP3 DUP1 SLOAD PUSH2 0x203F SWAP1 PUSH2 0x2DBA JUMP JUMPDEST DUP1 ISZERO PUSH2 0x208C JUMPI DUP1 PUSH1 0x1F LT PUSH2 0x2061 JUMPI PUSH2 0x100 DUP1 DUP4 SLOAD DIV MUL DUP4 MSTORE SWAP2 PUSH1 0x20 ADD SWAP2 PUSH2 0x208C JUMP JUMPDEST DUP3 ADD SWAP2 SWAP1 PUSH1 0x0 MSTORE PUSH1 0x20 PUSH1 0x0 KECCAK256 SWAP1 JUMPDEST DUP2 SLOAD DUP2 MSTORE SWAP1 PUSH1 0x1 ADD SWAP1 PUSH1 0x20 ADD DUP1 DUP4 GT PUSH2 0x206F JUMPI DUP3 SWAP1 SUB PUSH1 0x1F AND DUP3 ADD SWAP2 JUMPDEST POP POP POP POP POP DUP2 MSTORE PUSH1 0x20 ADD PUSH1 0x2 DUP3 ADD PUSH1 0x0 SWAP1 SLOAD SWAP1 PUSH2 0x100 EXP SWAP1 DIV PUSH1 0xFF AND ISZERO ISZERO ISZERO ISZERO DUP2 MSTORE POP POP SWAP1 POP DUP1 PUSH1 0x0 ADD MLOAD DUP2 PUSH1 0x20 ADD MLOAD DUP3 PUSH1 0x40 ADD MLOAD SWAP4 POP SWAP4 POP SWAP4 POP POP SWAP2 SWAP4 SWAP1 SWAP3 POP JUMP JUMPDEST PUSH1 0x2 DUP2 DUP2 SLOAD DUP2 LT PUSH2 0x20DF JUMPI PUSH1 0x0 DUP1 REVERT JUMPDEST SWAP1 PUSH1 0x0 MSTORE PUSH1 0x20 PUSH1 0x0 KECCAK256 SWAP1 PUSH1 0x3 MUL ADD PUSH1 0x0 SWAP2 POP SWAP1 POP DUP1 PUSH1 0x0 ADD PUSH1 0x0 SWAP1 SLOAD SWAP1 PUSH2 0x100 EXP SWAP1 DIV PUSH20 0xFFFFFFFFFFFFFFFFFFFFFFFFFFFFFFFFFFFFFFFF AND SWAP1 DUP1 PUSH1 0x1 ADD DUP1 SLOAD PUSH2 0x2128 SWAP1 PUSH2 0x2DBA JUMP JUMPDEST DUP1 PUSH1 0x1F ADD PUSH1 0x20 DUP1 SWAP2 DIV MUL PUSH1 0x20 ADD PUSH1 0x40 MLOAD SWAP1 DUP2 ADD PUSH1 0x40 MSTORE DUP1 SWAP3 SWAP2 SWAP1 DUP2 DUP2 MSTORE PUSH1 0x20 ADD DUP3 DUP1 SLOAD PUSH2 0x2154 SWAP1 PUSH2 0x2DBA JUMP JUMPDEST DUP1 ISZERO PUSH2 0x21A1 JUMPI DUP1 PUSH1 0x1F LT PUSH2 0x2176 JUMPI PUSH2 0x100 DUP1 DUP4 SLOAD DIV MUL DUP4 MSTORE SWAP2 PUSH1 0x20 ADD SWAP2 PUSH2 0x21A1 JUMP JUMPDEST DUP3 ADD SWAP2 SWAP1 PUSH1 0x0 MSTORE PUSH1 0x20 PUSH1 0x0 KECCAK256 SWAP1 JUMPDEST DUP2 SLOAD DUP2 MSTORE SWAP1 PUSH1 0x1 ADD SWAP1 PUSH1 0x20 ADD DUP1 DUP4 GT PUSH2 0x2184 JUMPI DUP3 SWAP1 SUB PUSH1 0x1F AND DUP3 ADD SWAP2 JUMPDEST POP POP POP POP POP SWAP1 DUP1 PUSH1 0x2 ADD PUSH1 0x0 SWAP1 SLOAD SWAP1 PUSH2 0x100 EXP SWAP1 DIV PUSH1 0xFF AND SWAP1 DUP1 PUSH1 0x2 ADD PUSH1 0x1 SWAP1 SLOAD SWAP1 PUSH2 0x100 EXP SWAP1 DIV PUSH1 0xFF AND SWAP1 POP DUP5 JUMP JUMPDEST DUP3 DUP1 SLOAD PUSH2 0x21DD SWAP1 PUSH2 0x2DBA JUMP JUMPDEST SWAP1 PUSH1 0x0 MSTORE PUSH1 0x20 PUSH1 0x0 KECCAK256 SWAP1 PUSH1 0x1F ADD PUSH1 0x20 SWAP1 DIV DUP2 ADD SWAP3 DUP3 PUSH2 0x21FF JUMPI PUSH1 0x0 DUP6 SSTORE PUSH2 0x224D JUMP JUMPDEST DUP3 PUSH1 0x1F LT PUSH2 0x2210 JUMPI DUP1 SLOAD DUP6 SSTORE PUSH2 0x224D JUMP JUMPDEST DUP3 DUP1 ADD PUSH1 0x1 ADD DUP6 SSTORE DUP3 ISZERO PUSH2 0x224D JUMPI PUSH1 0x0 MSTORE PUSH1 0x20 PUSH1 0x0 KECCAK256 SWAP2 PUSH1 0x1F ADD PUSH1 0x20 SWAP1 DIV DUP3 ADD JUMPDEST DUP3 DUP2 GT ISZERO PUSH2 0x224C JUMPI DUP3 SLOAD DUP3 SSTORE SWAP2 PUSH1 0x1 ADD SWAP2 SWAP1 PUSH1 0x1 ADD SWAP1 PUSH2 0x2231 JUMP JUMPDEST JUMPDEST POP SWAP1 POP PUSH2 0x225A SWAP2 SWAP1 PUSH2 0x23A0 JUMP JUMPDEST POP SWAP1 JUMP JUMPDEST POP DUP1 SLOAD PUSH2 0x226A SWAP1 PUSH2 0x2DBA JUMP JUMPDEST PUSH1 0x0 DUP3 SSTORE DUP1 PUSH1 0x1F LT PUSH2 0x227C JUMPI POP PUSH2 0x229B JUMP JUMPDEST PUSH1 0x1F ADD PUSH1 0x20 SWAP1 DIV SWAP1 PUSH1 0x0 MSTORE PUSH1 0x20 PUSH1 0x0 KECCAK256 SWAP1 DUP2 ADD SWAP1 PUSH2 0x229A SWAP2 SWAP1 PUSH2 0x23A0 JUMP JUMPDEST JUMPDEST POP JUMP JUMPDEST DUP3 DUP1 SLOAD PUSH2 0x22AA SWAP1 PUSH2 0x2DBA JUMP JUMPDEST SWAP1 PUSH1 0x0 MSTORE PUSH1 0x20 PUSH1 0x0 KECCAK256 SWAP1 PUSH1 0x1F ADD PUSH1 0x20 SWAP1 DIV DUP2 ADD SWAP3 DUP3 PUSH2 0x22CC JUMPI PUSH1 0x0 DUP6 SSTORE PUSH2 0x2313 JUMP JUMPDEST DUP3 PUSH1 0x1F LT PUSH2 0x22E5 JUMPI DUP1 MLOAD PUSH1 0xFF NOT AND DUP4 DUP1 ADD OR DUP6 SSTORE PUSH2 0x2313 JUMP JUMPDEST DUP3 DUP1 ADD PUSH1 0x1 ADD DUP6 SSTORE DUP3 ISZERO PUSH2 0x2313 JUMPI SWAP2 DUP3 ADD JUMPDEST DUP3 DUP2 GT ISZERO PUSH2 0x2312 JUMPI DUP3 MLOAD DUP3 SSTORE SWAP2 PUSH1 0x20 ADD SWAP2 SWAP1 PUSH1 0x1 ADD SWAP1 PUSH2 0x22F7 JUMP JUMPDEST JUMPDEST POP SWAP1 POP PUSH2 0x2320 SWAP2 SWAP1 PUSH2 0x23A0 JUMP JUMPDEST POP SWAP1 JUMP JUMPDEST PUSH1 0x40 MLOAD DUP1 PUSH1 0x80 ADD PUSH1 0x40 MSTORE DUP1 PUSH1 0x0 PUSH20 0xFFFFFFFFFFFFFFFFFFFFFFFFFFFFFFFFFFFFFFFF AND DUP2 MSTORE PUSH1 0x20 ADD PUSH1 0x60 DUP2 MSTORE PUSH1 0x20 ADD PUSH1 0x0 PUSH1 0xFF AND DUP2 MSTORE PUSH1 0x20 ADD PUSH1 0x0 ISZERO ISZERO DUP2 MSTORE POP SWAP1 JUMP JUMPDEST PUSH1 0x40 MLOAD DUP1 PUSH1 0x60 ADD PUSH1 0x40 MSTORE DUP1 PUSH1 0x0 PUSH20 0xFFFFFFFFFFFFFFFFFFFFFFFFFFFFFFFFFFFFFFFF AND DUP2 MSTORE PUSH1 0x20 ADD PUSH1 0x60 DUP2 MSTORE PUSH1 0x20 ADD PUSH1 0x0 ISZERO ISZERO DUP2 MSTORE POP SWAP1 JUMP JUMPDEST JUMPDEST DUP1 DUP3 GT ISZERO PUSH2 0x23B9 JUMPI PUSH1 0x0 DUP2 PUSH1 0x0 SWAP1 SSTORE POP PUSH1 0x1 ADD PUSH2 0x23A1 JUMP JUMPDEST POP SWAP1 JUMP JUMPDEST PUSH1 0x0 PUSH2 0x23D0 PUSH2 0x23CB DUP5 PUSH2 0x2C20 JUMP JUMPDEST PUSH2 0x2BEF JUMP JUMPDEST SWAP1 POP DUP3 DUP2 MSTORE PUSH1 0x20 DUP2 ADD DUP5 DUP5 DUP5 ADD GT ISZERO PUSH2 0x23E8 JUMPI PUSH1 0x0 DUP1 REVERT JUMPDEST PUSH2 0x23F3 DUP5 DUP3 DUP6 PUSH2 0x2D78 JUMP JUMPDEST POP SWAP4 SWAP3 POP POP POP JUMP JUMPDEST PUSH1 0x0 DUP2 CALLDATALOAD SWAP1 POP PUSH2 0x240A DUP2 PUSH2 0x2ED3 JUMP JUMPDEST SWAP3 SWAP2 POP POP JUMP JUMPDEST PUSH1 0x0 DUP3 PUSH1 0x1F DUP4 ADD SLT PUSH2 0x2421 JUMPI PUSH1 0x0 DUP1 REVERT JUMPDEST DUP2 CALLDATALOAD PUSH2 0x2431 DUP5 DUP3 PUSH1 0x20 DUP7 ADD PUSH2 0x23BD JUMP JUMPDEST SWAP2 POP POP SWAP3 SWAP2 POP POP JUMP JUMPDEST PUSH1 0x0 DUP2 CALLDATALOAD SWAP1 POP PUSH2 0x2449 DUP2 PUSH2 0x2EEA JUMP JUMPDEST SWAP3 SWAP2 POP POP JUMP JUMPDEST PUSH1 0x0 DUP2 CALLDATALOAD SWAP1 POP PUSH2 0x245E DUP2 PUSH2 0x2F01 JUMP JUMPDEST SWAP3 SWAP2 POP POP JUMP JUMPDEST PUSH1 0x0 PUSH1 0x20 DUP3 DUP5 SUB SLT ISZERO PUSH2 0x2476 JUMPI PUSH1 0x0 DUP1 REVERT JUMPDEST PUSH1 0x0 PUSH2 0x2484 DUP5 DUP3 DUP6 ADD PUSH2 0x23FB JUMP JUMPDEST SWAP2 POP POP SWAP3 SWAP2 POP POP JUMP JUMPDEST PUSH1 0x0 DUP1 PUSH1 0x40 DUP4 DUP6 SUB SLT ISZERO PUSH2 0x24A0 JUMPI PUSH1 0x0 DUP1 REVERT JUMPDEST PUSH1 0x0 PUSH2 0x24AE DUP6 DUP3 DUP7 ADD PUSH2 0x23FB JUMP JUMPDEST SWAP3 POP POP PUSH1 0x20 DUP4 ADD CALLDATALOAD PUSH8 0xFFFFFFFFFFFFFFFF DUP2 GT ISZERO PUSH2 0x24CB JUMPI PUSH1 0x0 DUP1 REVERT JUMPDEST PUSH2 0x24D7 DUP6 DUP3 DUP7 ADD PUSH2 0x2410 JUMP JUMPDEST SWAP2 POP POP SWAP3 POP SWAP3 SWAP1 POP JUMP JUMPDEST PUSH1 0x0 DUP1 PUSH1 0x0 PUSH1 0x60 DUP5 DUP7 SUB SLT ISZERO PUSH2 0x24F6 JUMPI PUSH1 0x0 DUP1 REVERT JUMPDEST PUSH1 0x0 PUSH2 0x2504 DUP7 DUP3 DUP8 ADD PUSH2 0x23FB JUMP JUMPDEST SWAP4 POP POP PUSH1 0x20 DUP5 ADD CALLDATALOAD PUSH8 0xFFFFFFFFFFFFFFFF DUP2 GT ISZERO PUSH2 0x2521 JUMPI PUSH1 0x0 DUP1 REVERT JUMPDEST PUSH2 0x252D DUP7 DUP3 DUP8 ADD PUSH2 0x2410 JUMP JUMPDEST SWAP3 POP POP PUSH1 0x40 PUSH2 0x253E DUP7 DUP3 DUP8 ADD PUSH2 0x244F JUMP JUMPDEST SWAP2 POP POP SWAP3 POP SWAP3 POP SWAP3 JUMP JUMPDEST PUSH1 0x0 PUSH1 0x20 DUP3 DUP5 SUB SLT ISZERO PUSH2 0x255A JUMPI PUSH1 0x0 DUP1 REVERT JUMPDEST PUSH1 0x0 PUSH2 0x2568 DUP5 DUP3 DUP6 ADD PUSH2 0x243A JUMP JUMPDEST SWAP2 POP POP SWAP3 SWAP2 POP POP JUMP JUMPDEST PUSH1 0x0 PUSH2 0x257D DUP4 DUP4 PUSH2 0x2923 JUMP JUMPDEST SWAP1 POP SWAP3 SWAP2 POP POP JUMP JUMPDEST PUSH1 0x0 PUSH2 0x2591 DUP4 DUP4 PUSH2 0x2973 JUMP JUMPDEST SWAP1 POP SWAP3 SWAP2 POP POP JUMP JUMPDEST PUSH2 0x25A2 DUP2 PUSH2 0x2D23 JUMP JUMPDEST DUP3 MSTORE POP POP JUMP JUMPDEST PUSH2 0x25B1 DUP2 PUSH2 0x2D23 JUMP JUMPDEST DUP3 MSTORE POP POP JUMP JUMPDEST PUSH1 0x0 PUSH2 0x25C2 DUP3 PUSH2 0x2C70 JUMP JUMPDEST PUSH2 0x25CC DUP2 DUP6 PUSH2 0x2CAB JUMP JUMPDEST SWAP4 POP DUP4 PUSH1 0x20 DUP3 MUL DUP6 ADD PUSH2 0x25DE DUP6 PUSH2 0x2C50 JUMP JUMPDEST DUP1 PUSH1 0x0 JUMPDEST DUP6 DUP2 LT ISZERO PUSH2 0x261A JUMPI DUP5 DUP5 SUB DUP10 MSTORE DUP2 MLOAD PUSH2 0x25FB DUP6 DUP3 PUSH2 0x2571 JUMP JUMPDEST SWAP5 POP PUSH2 0x2606 DUP4 PUSH2 0x2C91 JUMP JUMPDEST SWAP3 POP PUSH1 0x20 DUP11 ADD SWAP10 POP POP PUSH1 0x1 DUP2 ADD SWAP1 POP PUSH2 0x25E2 JUMP JUMPDEST POP DUP3 SWAP8 POP DUP8 SWAP6 POP POP POP POP POP POP SWAP3 SWAP2 POP POP JUMP JUMPDEST PUSH1 0x0 PUSH2 0x2637 DUP3 PUSH2 0x2C7B JUMP JUMPDEST PUSH2 0x2641 DUP2 DUP6 PUSH2 0x2CBC JUMP JUMPDEST SWAP4 POP DUP4 PUSH1 0x20 DUP3 MUL DUP6 ADD PUSH2 0x2653 DUP6 PUSH2 0x2C60 JUMP JUMPDEST DUP1 PUSH1 0x0 JUMPDEST DUP6 DUP2 LT ISZERO PUSH2 0x268F JUMPI DUP5 DUP5 SUB DUP10 MSTORE DUP2 MLOAD PUSH2 0x2670 DUP6 DUP3 PUSH2 0x2585 JUMP JUMPDEST SWAP5 POP PUSH2 0x267B DUP4 PUSH2 0x2C9E JUMP JUMPDEST SWAP3 POP PUSH1 0x20 DUP11 ADD SWAP10 POP POP PUSH1 0x1 DUP2 ADD SWAP1 POP PUSH2 0x2657 JUMP JUMPDEST POP DUP3 SWAP8 POP DUP8 SWAP6 POP POP POP POP POP POP SWAP3 SWAP2 POP POP JUMP JUMPDEST PUSH2 0x26AA DUP2 PUSH2 0x2D35 JUMP JUMPDEST DUP3 MSTORE POP POP JUMP JUMPDEST PUSH2 0x26B9 DUP2 PUSH2 0x2D35 JUMP JUMPDEST DUP3 MSTORE POP POP JUMP JUMPDEST PUSH1 0x0 PUSH2 0x26CA DUP3 PUSH2 0x2C86 JUMP JUMPDEST PUSH2 0x26D4 DUP2 DUP6 PUSH2 0x2CCD JUMP JUMPDEST SWAP4 POP PUSH2 0x26E4 DUP2 DUP6 PUSH1 0x20 DUP7 ADD PUSH2 0x2D87 JUMP JUMPDEST PUSH2 0x26ED DUP2 PUSH2 0x2EC2 JUMP JUMPDEST DUP5 ADD SWAP2 POP POP SWAP3 SWAP2 POP POP JUMP JUMPDEST PUSH1 0x0 PUSH2 0x2703 DUP3 PUSH2 0x2C86 JUMP JUMPDEST PUSH2 0x270D DUP2 DUP6 PUSH2 0x2CDE JUMP JUMPDEST SWAP4 POP PUSH2 0x271D DUP2 DUP6 PUSH1 0x20 DUP7 ADD PUSH2 0x2D87 JUMP JUMPDEST PUSH2 0x2726 DUP2 PUSH2 0x2EC2 JUMP JUMPDEST DUP5 ADD SWAP2 POP POP SWAP3 SWAP2 POP POP JUMP JUMPDEST PUSH1 0x0 PUSH2 0x273E PUSH1 0x3D DUP4 PUSH2 0x2CDE JUMP JUMPDEST SWAP2 POP PUSH32 0x536F6C6F20656C204475656E6E6F206F20477569617320646520747572697374 PUSH1 0x0 DUP4 ADD MSTORE PUSH32 0x6173207075656465207265616C697A6172206573746120616363696F6E000000 PUSH1 0x20 DUP4 ADD MSTORE PUSH1 0x40 DUP3 ADD SWAP1 POP SWAP2 SWAP1 POP JUMP JUMPDEST PUSH1 0x0 PUSH2 0x27A4 PUSH1 0x23 DUP4 PUSH2 0x2CDE JUMP JUMPDEST SWAP2 POP PUSH32 0x4775696120646520547572697374617320796120657374612072656769737472 PUSH1 0x0 DUP4 ADD MSTORE PUSH32 0x61646F0000000000000000000000000000000000000000000000000000000000 PUSH1 0x20 DUP4 ADD MSTORE PUSH1 0x40 DUP3 ADD SWAP1 POP SWAP2 SWAP1 POP JUMP JUMPDEST PUSH1 0x0 PUSH2 0x280A PUSH1 0x1A DUP4 PUSH2 0x2CDE JUMP JUMPDEST SWAP2 POP PUSH32 0x547572697374612079612065737461207265676973747261646F000000000000 PUSH1 0x0 DUP4 ADD MSTORE PUSH1 0x20 DUP3 ADD SWAP1 POP SWAP2 SWAP1 POP JUMP JUMPDEST PUSH1 0x0 PUSH2 0x284A PUSH1 0xE DUP4 PUSH2 0x2CDE JUMP JUMPDEST SWAP2 POP PUSH32 0x47756961206E6F20657869737465000000000000000000000000000000000000 PUSH1 0x0 DUP4 ADD MSTORE PUSH1 0x20 DUP3 ADD SWAP1 POP SWAP2 SWAP1 POP JUMP JUMPDEST PUSH1 0x0 PUSH2 0x288A PUSH1 0x29 DUP4 PUSH2 0x2CDE JUMP JUMPDEST SWAP2 POP PUSH32 0x536F6C6F20656C204475656E6E6F207075656465207265616C697A6172206573 PUSH1 0x0 DUP4 ADD MSTORE PUSH32 0x746120616363696F6E0000000000000000000000000000000000000000000000 PUSH1 0x20 DUP4 ADD MSTORE PUSH1 0x40 DUP3 ADD SWAP1 POP SWAP2 SWAP1 POP JUMP JUMPDEST PUSH1 0x0 PUSH2 0x28F0 PUSH1 0x11 DUP4 PUSH2 0x2CDE JUMP JUMPDEST SWAP2 POP PUSH32 0x54757269737461206E6F20657869737465000000000000000000000000000000 PUSH1 0x0 DUP4 ADD MSTORE PUSH1 0x20 DUP3 ADD SWAP1 POP SWAP2 SWAP1 POP JUMP JUMPDEST PUSH1 0x0 PUSH1 0x60 DUP4 ADD PUSH1 0x0 DUP4 ADD MLOAD PUSH2 0x293B PUSH1 0x0 DUP7 ADD DUP3 PUSH2 0x2599 JUMP JUMPDEST POP PUSH1 0x20 DUP4 ADD MLOAD DUP5 DUP3 SUB PUSH1 0x20 DUP7 ADD MSTORE PUSH2 0x2953 DUP3 DUP3 PUSH2 0x26BF JUMP JUMPDEST SWAP2 POP POP PUSH1 0x40 DUP4 ADD MLOAD PUSH2 0x2968 PUSH1 0x40 DUP7 ADD DUP3 PUSH2 0x26A1 JUMP JUMPDEST POP DUP1 SWAP2 POP POP SWAP3 SWAP2 POP POP JUMP JUMPDEST PUSH1 0x0 PUSH1 0x80 DUP4 ADD PUSH1 0x0 DUP4 ADD MLOAD PUSH2 0x298B PUSH1 0x0 DUP7 ADD DUP3 PUSH2 0x2599 JUMP JUMPDEST POP PUSH1 0x20 DUP4 ADD MLOAD DUP5 DUP3 SUB PUSH1 0x20 DUP7 ADD MSTORE PUSH2 0x29A3 DUP3 DUP3 PUSH2 0x26BF JUMP JUMPDEST SWAP2 POP POP PUSH1 0x40 DUP4 ADD MLOAD PUSH2 0x29B8 PUSH1 0x40 DUP7 ADD DUP3 PUSH2 0x29D6 JUMP JUMPDEST POP PUSH1 0x60 DUP4 ADD MLOAD PUSH2 0x29CB PUSH1 0x60 DUP7 ADD DUP3 PUSH2 0x26A1 JUMP JUMPDEST POP DUP1 SWAP2 POP POP SWAP3 SWAP2 POP POP JUMP JUMPDEST PUSH2 0x29DF DUP2 PUSH2 0x2D6B JUMP JUMPDEST DUP3 MSTORE POP POP JUMP JUMPDEST PUSH2 0x29EE DUP2 PUSH2 0x2D6B JUMP JUMPDEST DUP3 MSTORE POP POP JUMP JUMPDEST PUSH1 0x0 PUSH1 0x20 DUP3 ADD SWAP1 POP PUSH2 0x2A09 PUSH1 0x0 DUP4 ADD DUP5 PUSH2 0x25A8 JUMP JUMPDEST SWAP3 SWAP2 POP POP JUMP JUMPDEST PUSH1 0x0 PUSH1 0x40 DUP3 ADD SWAP1 POP PUSH2 0x2A24 PUSH1 0x0 DUP4 ADD DUP6 PUSH2 0x25A8 JUMP JUMPDEST DUP2 DUP2 SUB PUSH1 0x20 DUP4 ADD MSTORE PUSH2 0x2A36 DUP2 DUP5 PUSH2 0x26F8 JUMP JUMPDEST SWAP1 POP SWAP4 SWAP3 POP POP POP JUMP JUMPDEST PUSH1 0x0 PUSH1 0x60 DUP3 ADD SWAP1 POP PUSH2 0x2A54 PUSH1 0x0 DUP4 ADD DUP7 PUSH2 0x25A8 JUMP JUMPDEST DUP2 DUP2 SUB PUSH1 0x20 DUP4 ADD MSTORE PUSH2 0x2A66 DUP2 DUP6 PUSH2 0x26F8 JUMP JUMPDEST SWAP1 POP PUSH2 0x2A75 PUSH1 0x40 DUP4 ADD DUP5 PUSH2 0x26B0 JUMP JUMPDEST SWAP5 SWAP4 POP POP POP POP JUMP JUMPDEST PUSH1 0x0 PUSH1 0x80 DUP3 ADD SWAP1 POP PUSH2 0x2A92 PUSH1 0x0 DUP4 ADD DUP8 PUSH2 0x25A8 JUMP JUMPDEST DUP2 DUP2 SUB PUSH1 0x20 DUP4 ADD MSTORE PUSH2 0x2AA4 DUP2 DUP7 PUSH2 0x26F8 JUMP JUMPDEST SWAP1 POP PUSH2 0x2AB3 PUSH1 0x40 DUP4 ADD DUP6 PUSH2 0x29E5 JUMP JUMPDEST PUSH2 0x2AC0 PUSH1 0x60 DUP4 ADD DUP5 PUSH2 0x26B0 JUMP JUMPDEST SWAP6 SWAP5 POP POP POP POP POP JUMP JUMPDEST PUSH1 0x0 PUSH1 0x20 DUP3 ADD SWAP1 POP DUP2 DUP2 SUB PUSH1 0x0 DUP4 ADD MSTORE PUSH2 0x2AE3 DUP2 DUP5 PUSH2 0x25B7 JUMP JUMPDEST SWAP1 POP SWAP3 SWAP2 POP POP JUMP JUMPDEST PUSH1 0x0 PUSH1 0x20 DUP3 ADD SWAP1 POP DUP2 DUP2 SUB PUSH1 0x0 DUP4 ADD MSTORE PUSH2 0x2B05 DUP2 DUP5 PUSH2 0x262C JUMP JUMPDEST SWAP1 POP SWAP3 SWAP2 POP POP JUMP JUMPDEST PUSH1 0x0 PUSH1 0x20 DUP3 ADD SWAP1 POP DUP2 DUP2 SUB PUSH1 0x0 DUP4 ADD MSTORE PUSH2 0x2B27 DUP2 DUP5 PUSH2 0x26F8 JUMP JUMPDEST SWAP1 POP SWAP3 SWAP2 POP POP JUMP JUMPDEST PUSH1 0x0 PUSH1 0x20 DUP3 ADD SWAP1 POP DUP2 DUP2 SUB PUSH1 0x0 DUP4 ADD MSTORE PUSH2 0x2B48 DUP2 PUSH2 0x2731 JUMP JUMPDEST SWAP1 POP SWAP2 SWAP1 POP JUMP JUMPDEST PUSH1 0x0 PUSH1 0x20 DUP3 ADD SWAP1 POP DUP2 DUP2 SUB PUSH1 0x0 DUP4 ADD MSTORE PUSH2 0x2B68 DUP2 PUSH2 0x2797 JUMP JUMPDEST SWAP1 POP SWAP2 SWAP1 POP JUMP JUMPDEST PUSH1 0x0 PUSH1 0x20 DUP3 ADD SWAP1 POP DUP2 DUP2 SUB PUSH1 0x0 DUP4 ADD MSTORE PUSH2 0x2B88 DUP2 PUSH2 0x27FD JUMP JUMPDEST SWAP1 POP SWAP2 SWAP1 POP JUMP JUMPDEST PUSH1 0x0 PUSH1 0x20 DUP3 ADD SWAP1 POP DUP2 DUP2 SUB PUSH1 0x0 DUP4 ADD MSTORE PUSH2 0x2BA8 DUP2 PUSH2 0x283D JUMP JUMPDEST SWAP1 POP SWAP2 SWAP1 POP JUMP JUMPDEST PUSH1 0x0 PUSH1 0x20 DUP3 ADD SWAP1 POP DUP2 DUP2 SUB PUSH1 0x0 DUP4 ADD MSTORE PUSH2 0x2BC8 DUP2 PUSH2 0x287D JUMP JUMPDEST SWAP1 POP SWAP2 SWAP1 POP JUMP JUMPDEST PUSH1 0x0 PUSH1 0x20 DUP3 ADD SWAP1 POP DUP2 DUP2 SUB PUSH1 0x0 DUP4 ADD MSTORE PUSH2 0x2BE8 DUP2 PUSH2 0x28E3 JUMP JUMPDEST SWAP1 POP SWAP2 SWAP1 POP JUMP JUMPDEST PUSH1 0x0 PUSH1 0x40 MLOAD SWAP1 POP DUP2 DUP2 ADD DUP2 DUP2 LT PUSH8 0xFFFFFFFFFFFFFFFF DUP3 GT OR ISZERO PUSH2 0x2C16 JUMPI PUSH2 0x2C15 PUSH2 0x2E93 JUMP JUMPDEST JUMPDEST DUP1 PUSH1 0x40 MSTORE POP SWAP2 SWAP1 POP JUMP JUMPDEST PUSH1 0x0 PUSH8 0xFFFFFFFFFFFFFFFF DUP3 GT ISZERO PUSH2 0x2C3B JUMPI PUSH2 0x2C3A PUSH2 0x2E93 JUMP JUMPDEST JUMPDEST PUSH1 0x1F NOT PUSH1 0x1F DUP4 ADD AND SWAP1 POP PUSH1 0x20 DUP2 ADD SWAP1 POP SWAP2 SWAP1 POP JUMP JUMPDEST PUSH1 0x0 DUP2 SWAP1 POP PUSH1 0x20 DUP3 ADD SWAP1 POP SWAP2 SWAP1 POP JUMP JUMPDEST PUSH1 0x0 DUP2 SWAP1 POP PUSH1 0x20 DUP3 ADD SWAP1 POP SWAP2 SWAP1 POP JUMP JUMPDEST PUSH1 0x0 DUP2 MLOAD SWAP1 POP SWAP2 SWAP1 POP JUMP JUMPDEST PUSH1 0x0 DUP2 MLOAD SWAP1 POP SWAP2 SWAP1 POP JUMP JUMPDEST PUSH1 0x0 DUP2 MLOAD SWAP1 POP SWAP2 SWAP1 POP JUMP JUMPDEST PUSH1 0x0 PUSH1 0x20 DUP3 ADD SWAP1 POP SWAP2 SWAP1 POP JUMP JUMPDEST PUSH1 0x0 PUSH1 0x20 DUP3 ADD SWAP1 POP SWAP2 SWAP1 POP JUMP JUMPDEST PUSH1 0x0 DUP3 DUP3 MSTORE PUSH1 0x20 DUP3 ADD SWAP1 POP SWAP3 SWAP2 POP POP JUMP JUMPDEST PUSH1 0x0 DUP3 DUP3 MSTORE PUSH1 0x20 DUP3 ADD SWAP1 POP SWAP3 SWAP2 POP POP JUMP JUMPDEST PUSH1 0x0 DUP3 DUP3 MSTORE PUSH1 0x20 DUP3 ADD SWAP1 POP SWAP3 SWAP2 POP POP JUMP JUMPDEST PUSH1 0x0 DUP3 DUP3 MSTORE PUSH1 0x20 DUP3 ADD SWAP1 POP SWAP3 SWAP2 POP POP JUMP JUMPDEST PUSH1 0x0 PUSH2 0x2CFA DUP3 PUSH2 0x2D61 JUMP JUMPDEST SWAP2 POP PUSH2 0x2D05 DUP4 PUSH2 0x2D61 JUMP JUMPDEST SWAP3 POP DUP3 DUP3 LT ISZERO PUSH2 0x2D18 JUMPI PUSH2 0x2D17 PUSH2 0x2E35 JUMP JUMPDEST JUMPDEST DUP3 DUP3 SUB SWAP1 POP SWAP3 SWAP2 POP POP JUMP JUMPDEST PUSH1 0x0 PUSH2 0x2D2E DUP3 PUSH2 0x2D41 JUMP JUMPDEST SWAP1 POP SWAP2 SWAP1 POP JUMP JUMPDEST PUSH1 0x0 DUP2 ISZERO ISZERO SWAP1 POP SWAP2 SWAP1 POP JUMP JUMPDEST PUSH1 0x0 PUSH20 0xFFFFFFFFFFFFFFFFFFFFFFFFFFFFFFFFFFFFFFFF DUP3 AND SWAP1 POP SWAP2 SWAP1 POP JUMP JUMPDEST PUSH1 0x0 DUP2 SWAP1 POP SWAP2 SWAP1 POP JUMP JUMPDEST PUSH1 0x0 PUSH1 0xFF DUP3 AND SWAP1 POP SWAP2 SWAP1 POP JUMP JUMPDEST DUP3 DUP2 DUP4 CALLDATACOPY PUSH1 0x0 DUP4 DUP4 ADD MSTORE POP POP POP JUMP JUMPDEST PUSH1 0x0 JUMPDEST DUP4 DUP2 LT ISZERO PUSH2 0x2DA5 JUMPI DUP1 DUP3 ADD MLOAD DUP2 DUP5 ADD MSTORE PUSH1 0x20 DUP2 ADD SWAP1 POP PUSH2 0x2D8A JUMP JUMPDEST DUP4 DUP2 GT ISZERO PUSH2 0x2DB4 JUMPI PUSH1 0x0 DUP5 DUP5 ADD MSTORE JUMPDEST POP POP POP POP JUMP JUMPDEST PUSH1 0x0 PUSH1 0x2 DUP3 DIV SWAP1 POP PUSH1 0x1 DUP3 AND DUP1 PUSH2 0x2DD2 JUMPI PUSH1 0x7F DUP3 AND SWAP2 POP JUMPDEST PUSH1 0x20 DUP3 LT DUP2 EQ ISZERO PUSH2 0x2DE6 JUMPI PUSH2 0x2DE5 PUSH2 0x2E64 JUMP JUMPDEST JUMPDEST POP SWAP2 SWAP1 POP JUMP JUMPDEST PUSH1 0x0 PUSH2 0x2DF7 DUP3 PUSH2 0x2D61 JUMP JUMPDEST SWAP2 POP PUSH32 0xFFFFFFFFFFFFFFFFFFFFFFFFFFFFFFFFFFFFFFFFFFFFFFFFFFFFFFFFFFFFFFFF DUP3 EQ ISZERO PUSH2 0x2E2A JUMPI PUSH2 0x2E29 PUSH2 0x2E35 JUMP JUMPDEST JUMPDEST PUSH1 0x1 DUP3 ADD SWAP1 POP SWAP2 SWAP1 POP JUMP JUMPDEST PUSH32 0x4E487B7100000000000000000000000000000000000000000000000000000000 PUSH1 0x0 MSTORE PUSH1 0x11 PUSH1 0x4 MSTORE PUSH1 0x24 PUSH1 0x0 REVERT JUMPDEST PUSH32 0x4E487B7100000000000000000000000000000000000000000000000000000000 PUSH1 0x0 MSTORE PUSH1 0x22 PUSH1 0x4 MSTORE PUSH1 0x24 PUSH1 0x0 REVERT JUMPDEST PUSH32 0x4E487B7100000000000000000000000000000000000000000000000000000000 PUSH1 0x0 MSTORE PUSH1 0x41 PUSH1 0x4 MSTORE PUSH1 0x24 PUSH1 0x0 REVERT JUMPDEST PUSH1 0x0 PUSH1 0x1F NOT PUSH1 0x1F DUP4 ADD AND SWAP1 POP SWAP2 SWAP1 POP JUMP JUMPDEST PUSH2 0x2EDC DUP2 PUSH2 0x2D23 JUMP JUMPDEST DUP2 EQ PUSH2 0x2EE7 JUMPI PUSH1 0x0 DUP1 REVERT JUMPDEST POP JUMP JUMPDEST PUSH2 0x2EF3 DUP2 PUSH2 0x2D61 JUMP JUMPDEST DUP2 EQ PUSH2 0x2EFE JUMPI PUSH1 0x0 DUP1 REVERT JUMPDEST POP JUMP JUMPDEST PUSH2 0x2F0A DUP2 PUSH2 0x2D6B JUMP JUMPDEST DUP2 EQ PUSH2 0x2F15 JUMPI PUSH1 0x0 DUP1 REVERT JUMPDEST POP JUMP INVALID SELFBALANCE PUSH22 0x69612064652054757269737461732072656769737472 PUSH2 0x646F KECCAK256 PUSH4 0x6F6E2065 PUSH25 0x69746F4775696120646520547572697374617320656C696D69 PUSH15 0x61646F20636F6E20657869746FA264 PUSH10 0x70667358221220968F06 0xCA DELEGATECALL MOD 0xC2 0xEF AND PUSH9 0x194346F0251A8409BE CHAINID PUSH1 0x90 RETURNDATASIZE DUP8 PUSH25 0x1AD32D4282B89E64736F6C6343000800003300000000000000 "
				},
				"gasEstimates": {
					"creation": {
						"codeDepositCost": "2436600",
						"executionCost": "23486",
						"totalCost": "2460086"
					},
					"external": {
						"duenno()": "1255",
						"eliminarGuiaTurista(address)": "infinite",
						"eliminarTurista(address)": "infinite",
						"guiasRegistrados(address)": "infinite",
						"listaGuias(uint256)": "infinite",
						"listaTuristas(uint256)": "infinite",
						"registrarGuiaTurista(address,string)": "infinite",
						"registrarTurista(address,string,uint8)": "infinite",
						"turistasRegistrados(address)": "infinite",
						"verGuia(address)": "infinite",
						"verGuias()": "infinite",
						"verTurista(address)": "infinite",
						"verTuristas()": "infinite"
					}
				},
				"methodIdentifiers": {
					"duenno()": "9dc43f77",
					"eliminarGuiaTurista(address)": "2bdaa8c9",
					"eliminarTurista(address)": "0e768dbf",
					"guiasRegistrados(address)": "5ac34098",
					"listaGuias(uint256)": "711422d6",
					"listaTuristas(uint256)": "f0963a11",
					"registrarGuiaTurista(address,string)": "2eb72875",
					"registrarTurista(address,string,uint8)": "5922f385",
					"turistasRegistrados(address)": "40280a63",
					"verGuia(address)": "db096f25",
					"verGuias()": "966549e5",
					"verTurista(address)": "8e12bf87",
					"verTuristas()": "47c58865"
				}
			},
			"storageLayout": {
				"storage": [
					{
						"astId": 373,
						"contract": "contracts/Usuarios.sol:Usuarios",
						"label": "duenno",
						"offset": 0,
						"slot": "0",
						"type": "t_address"
					},
					{
						"astId": 377,
						"contract": "contracts/Usuarios.sol:Usuarios",
						"label": "listaGuias",
						"offset": 0,
						"slot": "1",
						"type": "t_array(t_struct(GuiaTuristas)362_storage)dyn_storage"
					},
					{
						"astId": 381,
						"contract": "contracts/Usuarios.sol:Usuarios",
						"label": "listaTuristas",
						"offset": 0,
						"slot": "2",
						"type": "t_array(t_struct(Turista)371_storage)dyn_storage"
					},
					{
						"astId": 395,
						"contract": "contracts/Usuarios.sol:Usuarios",
						"label": "guiasRegistrados",
						"offset": 0,
						"slot": "3",
						"type": "t_mapping(t_address,t_struct(GuiaTuristas)362_storage)"
					},
					{
						"astId": 400,
						"contract": "contracts/Usuarios.sol:Usuarios",
						"label": "turistasRegistrados",
						"offset": 0,
						"slot": "4",
						"type": "t_mapping(t_address,t_struct(Turista)371_storage)"
					}
				],
				"types": {
					"t_address": {
						"encoding": "inplace",
						"label": "address",
						"numberOfBytes": "20"
					},
					"t_array(t_struct(GuiaTuristas)362_storage)dyn_storage": {
						"base": "t_struct(GuiaTuristas)362_storage",
						"encoding": "dynamic_array",
						"label": "struct Usuarios.GuiaTuristas[]",
						"numberOfBytes": "32"
					},
					"t_array(t_struct(Turista)371_storage)dyn_storage": {
						"base": "t_struct(Turista)371_storage",
						"encoding": "dynamic_array",
						"label": "struct Usuarios.Turista[]",
						"numberOfBytes": "32"
					},
					"t_bool": {
						"encoding": "inplace",
						"label": "bool",
						"numberOfBytes": "1"
					},
					"t_mapping(t_address,t_struct(GuiaTuristas)362_storage)": {
						"encoding": "mapping",
						"key": "t_address",
						"label": "mapping(address => struct Usuarios.GuiaTuristas)",
						"numberOfBytes": "32",
						"value": "t_struct(GuiaTuristas)362_storage"
					},
					"t_mapping(t_address,t_struct(Turista)371_storage)": {
						"encoding": "mapping",
						"key": "t_address",
						"label": "mapping(address => struct Usuarios.Turista)",
						"numberOfBytes": "32",
						"value": "t_struct(Turista)371_storage"
					},
					"t_string_storage": {
						"encoding": "bytes",
						"label": "string",
						"numberOfBytes": "32"
					},
					"t_struct(GuiaTuristas)362_storage": {
						"encoding": "inplace",
						"label": "struct Usuarios.GuiaTuristas",
						"members": [
							{
								"astId": 357,
								"contract": "contracts/Usuarios.sol:Usuarios",
								"label": "cuenta",
								"offset": 0,
								"slot": "0",
								"type": "t_address"
							},
							{
								"astId": 359,
								"contract": "contracts/Usuarios.sol:Usuarios",
								"label": "nombreCompleto",
								"offset": 0,
								"slot": "1",
								"type": "t_string_storage"
							},
							{
								"astId": 361,
								"contract": "contracts/Usuarios.sol:Usuarios",
								"label": "estado",
								"offset": 0,
								"slot": "2",
								"type": "t_bool"
							}
						],
						"numberOfBytes": "96"
					},
					"t_struct(Turista)371_storage": {
						"encoding": "inplace",
						"label": "struct Usuarios.Turista",
						"members": [
							{
								"astId": 364,
								"contract": "contracts/Usuarios.sol:Usuarios",
								"label": "cuenta",
								"offset": 0,
								"slot": "0",
								"type": "t_address"
							},
							{
								"astId": 366,
								"contract": "contracts/Usuarios.sol:Usuarios",
								"label": "nombreCompleto",
								"offset": 0,
								"slot": "1",
								"type": "t_string_storage"
							},
							{
								"astId": 368,
								"contract": "contracts/Usuarios.sol:Usuarios",
								"label": "edad",
								"offset": 0,
								"slot": "2",
								"type": "t_uint8"
							},
							{
								"astId": 370,
								"contract": "contracts/Usuarios.sol:Usuarios",
								"label": "estado",
								"offset": 1,
								"slot": "2",
								"type": "t_bool"
							}
						],
						"numberOfBytes": "96"
					},
					"t_uint8": {
						"encoding": "inplace",
						"label": "uint8",
						"numberOfBytes": "1"
					}
				}
			},
			"userdoc": {
				"kind": "user",
				"methods": {},
				"version": 1
			}
		}
	}
}