{
	"contracts/ContratoSubasta.sol": {
		"ContratoSubasta": {
			"abi": [
				{
					"inputs": [],
					"stateMutability": "nonpayable",
					"type": "constructor"
				},
				{
					"anonymous": false,
					"inputs": [
						{
							"indexed": false,
							"internalType": "address",
							"name": "ofertante",
							"type": "address"
						},
						{
							"indexed": false,
							"internalType": "uint256",
							"name": "monto",
							"type": "uint256"
						}
					],
					"name": "NuevaOferta",
					"type": "event"
				},
				{
					"anonymous": false,
					"inputs": [
						{
							"indexed": false,
							"internalType": "address",
							"name": "cuenta",
							"type": "address"
						}
					],
					"name": "OferenteRegistrado",
					"type": "event"
				},
				{
					"anonymous": false,
					"inputs": [
						{
							"indexed": false,
							"internalType": "string",
							"name": "articulo",
							"type": "string"
						},
						{
							"indexed": false,
							"internalType": "uint256",
							"name": "montoBase",
							"type": "uint256"
						},
						{
							"indexed": false,
							"internalType": "uint256",
							"name": "duracionSegundos",
							"type": "uint256"
						}
					],
					"name": "SubastaCreada",
					"type": "event"
				},
				{
					"anonymous": false,
					"inputs": [
						{
							"indexed": false,
							"internalType": "address",
							"name": "ganador",
							"type": "address"
						},
						{
							"indexed": false,
							"internalType": "uint256",
							"name": "montoFinal",
							"type": "uint256"
						}
					],
					"name": "SubastaFinalizada",
					"type": "event"
				},
				{
					"inputs": [
						{
							"internalType": "string",
							"name": "_articulo",
							"type": "string"
						},
						{
							"internalType": "uint256",
							"name": "_montoBase",
							"type": "uint256"
						},
						{
							"internalType": "uint256",
							"name": "_duracionSegundos",
							"type": "uint256"
						}
					],
					"name": "crearSubasta",
					"outputs": [],
					"stateMutability": "nonpayable",
					"type": "function"
				},
				{
					"inputs": [],
					"name": "finalizarSubasta",
					"outputs": [],
					"stateMutability": "nonpayable",
					"type": "function"
				},
				{
					"inputs": [],
					"name": "mejorOferta",
					"outputs": [
						{
							"internalType": "address",
							"name": "ofertante",
							"type": "address"
						},
						{
							"internalType": "uint256",
							"name": "monto",
							"type": "uint256"
						}
					],
					"stateMutability": "view",
					"type": "function"
				},
				{
					"inputs": [
						{
							"internalType": "address",
							"name": "",
							"type": "address"
						}
					],
					"name": "oferentesRegistrados",
					"outputs": [
						{
							"internalType": "bool",
							"name": "",
							"type": "bool"
						}
					],
					"stateMutability": "view",
					"type": "function"
				},
				{
					"inputs": [],
					"name": "ofertar",
					"outputs": [],
					"stateMutability": "payable",
					"type": "function"
				},
				{
					"inputs": [
						{
							"internalType": "address",
							"name": "",
							"type": "address"
						}
					],
					"name": "ofertas",
					"outputs": [
						{
							"internalType": "uint256",
							"name": "",
							"type": "uint256"
						}
					],
					"stateMutability": "view",
					"type": "function"
				},
				{
					"inputs": [],
					"name": "registrarseComoOferente",
					"outputs": [],
					"stateMutability": "nonpayable",
					"type": "function"
				},
				{
					"inputs": [],
					"name": "subasta",
					"outputs": [
						{
							"internalType": "address",
							"name": "administrador",
							"type": "address"
						},
						{
							"internalType": "string",
							"name": "articulo",
							"type": "string"
						},
						{
							"internalType": "uint256",
							"name": "montoBase",
							"type": "uint256"
						},
						{
							"internalType": "uint256",
							"name": "tiempoLimite",
							"type": "uint256"
						}
					],
					"stateMutability": "view",
					"type": "function"
				},
				{
					"inputs": [],
					"name": "subastaActiva",
					"outputs": [
						{
							"internalType": "bool",
							"name": "",
							"type": "bool"
						}
					],
					"stateMutability": "view",
					"type": "function"
				},
				{
					"inputs": [],
					"name": "subastaFinalizada",
					"outputs": [
						{
							"internalType": "bool",
							"name": "",
							"type": "bool"
						}
					],
					"stateMutability": "view",
					"type": "function"
				},
				{
					"inputs": [],
					"name": "verOfertaActual",
					"outputs": [
						{
							"internalType": "address",
							"name": "",
							"type": "address"
						},
						{
							"internalType": "uint256",
							"name": "",
							"type": "uint256"
						}
					],
					"stateMutability": "view",
					"type": "function"
				}
			],
			"devdoc": {
				"kind": "dev",
				"methods": {},
				"version": 1
			},
			"evm": {
				"assembly": "    /* \"contracts/ContratoSubasta.sol\":58:3609  contract ContratoSubasta {... */\n  mstore(0x40, 0x80)\n    /* \"contracts/ContratoSubasta.sol\":839:935  constructor() {... */\n  callvalue\n  dup1\n  iszero\n  tag_1\n  jumpi\n  revert(0x00, 0x00)\ntag_1:\n  pop\n    /* \"contracts/ContratoSubasta.sol\":887:897  msg.sender */\n  caller\n    /* \"contracts/ContratoSubasta.sol\":863:870  subasta */\n  0x01\n    /* \"contracts/ContratoSubasta.sol\":863:884  subasta.administrador */\n  0x00\n  add\n  0x00\n    /* \"contracts/ContratoSubasta.sol\":863:897  subasta.administrador = msg.sender */\n  0x0100\n  exp\n  dup2\n  sload\n  dup2\n  0xffffffffffffffffffffffffffffffffffffffff\n  mul\n  not\n  and\n  swap1\n  dup4\n  0xffffffffffffffffffffffffffffffffffffffff\n  and\n  mul\n  or\n  swap1\n  sstore\n  pop\n    /* \"contracts/ContratoSubasta.sol\":923:928  false */\n  0x00\n    /* \"contracts/ContratoSubasta.sol\":907:920  subastaActiva */\n  0x00\n  0x00\n    /* \"contracts/ContratoSubasta.sol\":907:928  subastaActiva = false */\n  0x0100\n  exp\n  dup2\n  sload\n  dup2\n  0xff\n  mul\n  not\n  and\n  swap1\n  dup4\n  iszero\n  iszero\n  mul\n  or\n  swap1\n  sstore\n  pop\n    /* \"contracts/ContratoSubasta.sol\":58:3609  contract ContratoSubasta {... */\n  dataSize(sub_0)\n  dup1\n  dataOffset(sub_0)\n  0x00\n  codecopy\n  0x00\n  return\nstop\n\nsub_0: assembly {\n        /* \"contracts/ContratoSubasta.sol\":58:3609  contract ContratoSubasta {... */\n      mstore(0x40, 0x80)\n      jumpi(tag_1, lt(calldatasize, 0x04))\n      shr(0xe0, calldataload(0x00))\n      dup1\n      0x6a390902\n      gt\n      tag_13\n      jumpi\n      dup1\n      0x6a390902\n      eq\n      tag_7\n      jumpi\n      dup1\n      0x8f68efca\n      eq\n      tag_8\n      jumpi\n      dup1\n      0xa8e46f7e\n      eq\n      tag_9\n      jumpi\n      dup1\n      0xacfc9f98\n      eq\n      tag_10\n      jumpi\n      dup1\n      0xe752f4ab\n      eq\n      tag_11\n      jumpi\n      dup1\n      0xef871c2d\n      eq\n      tag_12\n      jumpi\n      jump(tag_1)\n    tag_13:\n      dup1\n      0x0851eac2\n      eq\n      tag_2\n      jumpi\n      dup1\n      0x3ec059d7\n      eq\n      tag_3\n      jumpi\n      dup1\n      0x44d07a8b\n      eq\n      tag_4\n      jumpi\n      dup1\n      0x5dfe78f7\n      eq\n      tag_5\n      jumpi\n      dup1\n      0x613bf822\n      eq\n      tag_6\n      jumpi\n    tag_1:\n      revert(0x00, 0x00)\n        /* \"contracts/ContratoSubasta.sol\":3053:3607  function finalizarSubasta() public {... */\n    tag_2:\n      callvalue\n      dup1\n      iszero\n      tag_14\n      jumpi\n      revert(0x00, 0x00)\n    tag_14:\n      pop\n      tag_15\n      tag_16\n      jump\t// in\n    tag_15:\n      stop\n        /* \"contracts/ContratoSubasta.sol\":2331:2909  function ofertar() public payable subastaEnCurso soloOferentes {... */\n    tag_3:\n      tag_17\n      tag_18\n      jump\t// in\n    tag_17:\n      stop\n        /* \"contracts/ContratoSubasta.sol\":445:497  mapping(address => bool) public oferentesRegistrados */\n    tag_4:\n      callvalue\n      dup1\n      iszero\n      tag_19\n      jumpi\n      revert(0x00, 0x00)\n    tag_19:\n      pop\n      tag_20\n      0x04\n      dup1\n      calldatasize\n      sub\n      dup2\n      add\n      swap1\n      tag_21\n      swap2\n      swap1\n      tag_22\n      jump\t// in\n    tag_21:\n      tag_23\n      jump\t// in\n    tag_20:\n      mload(0x40)\n      tag_24\n      swap2\n      swap1\n      tag_25\n      jump\t// in\n    tag_24:\n      mload(0x40)\n      dup1\n      swap2\n      sub\n      swap1\n      return\n        /* \"contracts/ContratoSubasta.sol\":89:114  bool public subastaActiva */\n    tag_5:\n      callvalue\n      dup1\n      iszero\n      tag_26\n      jumpi\n      revert(0x00, 0x00)\n    tag_26:\n      pop\n      tag_27\n      tag_28\n      jump\t// in\n    tag_27:\n      mload(0x40)\n      tag_29\n      swap2\n      swap1\n      tag_25\n      jump\t// in\n    tag_29:\n      mload(0x40)\n      dup1\n      swap2\n      sub\n      swap1\n      return\n        /* \"contracts/ContratoSubasta.sol\":297:319  Subasta public subasta */\n    tag_6:\n      callvalue\n      dup1\n      iszero\n      tag_30\n      jumpi\n      revert(0x00, 0x00)\n    tag_30:\n      pop\n      tag_31\n      tag_32\n      jump\t// in\n    tag_31:\n      mload(0x40)\n      tag_33\n      swap5\n      swap4\n      swap3\n      swap2\n      swap1\n      tag_34\n      jump\t// in\n    tag_33:\n      mload(0x40)\n      dup1\n      swap2\n      sub\n      swap1\n      return\n        /* \"contracts/ContratoSubasta.sol\":120:149  bool public subastaFinalizada */\n    tag_7:\n      callvalue\n      dup1\n      iszero\n      tag_35\n      jumpi\n      revert(0x00, 0x00)\n    tag_35:\n      pop\n      tag_36\n      tag_37\n      jump\t// in\n    tag_36:\n      mload(0x40)\n      tag_38\n      swap2\n      swap1\n      tag_25\n      jump\t// in\n    tag_38:\n      mload(0x40)\n      dup1\n      swap2\n      sub\n      swap1\n      return\n        /* \"contracts/ContratoSubasta.sol\":2107:2325  function registrarseComoOferente() public {... */\n    tag_8:\n      callvalue\n      dup1\n      iszero\n      tag_39\n      jumpi\n      revert(0x00, 0x00)\n    tag_39:\n      pop\n      tag_40\n      tag_41\n      jump\t// in\n    tag_40:\n      stop\n        /* \"contracts/ContratoSubasta.sol\":1532:2101  function crearSubasta(... */\n    tag_9:\n      callvalue\n      dup1\n      iszero\n      tag_42\n      jumpi\n      revert(0x00, 0x00)\n    tag_42:\n      pop\n      tag_43\n      0x04\n      dup1\n      calldatasize\n      sub\n      dup2\n      add\n      swap1\n      tag_44\n      swap2\n      swap1\n      tag_45\n      jump\t// in\n    tag_44:\n      tag_46\n      jump\t// in\n    tag_43:\n      stop\n        /* \"contracts/ContratoSubasta.sol\":408:438  MejorOferta public mejorOferta */\n    tag_10:\n      callvalue\n      dup1\n      iszero\n      tag_47\n      jumpi\n      revert(0x00, 0x00)\n    tag_47:\n      pop\n      tag_48\n      tag_49\n      jump\t// in\n    tag_48:\n      mload(0x40)\n      tag_50\n      swap3\n      swap2\n      swap1\n      tag_51\n      jump\t// in\n    tag_50:\n      mload(0x40)\n      dup1\n      swap2\n      sub\n      swap1\n      return\n        /* \"contracts/ContratoSubasta.sol\":2915:3047  function verOfertaActual() public view returns (address, uint256) {... */\n    tag_11:\n      callvalue\n      dup1\n      iszero\n      tag_52\n      jumpi\n      revert(0x00, 0x00)\n    tag_52:\n      pop\n      tag_53\n      tag_54\n      jump\t// in\n    tag_53:\n      mload(0x40)\n      tag_55\n      swap3\n      swap2\n      swap1\n      tag_51\n      jump\t// in\n    tag_55:\n      mload(0x40)\n      dup1\n      swap2\n      sub\n      swap1\n      return\n        /* \"contracts/ContratoSubasta.sol\":503:545  mapping(address => uint256) public ofertas */\n    tag_12:\n      callvalue\n      dup1\n      iszero\n      tag_56\n      jumpi\n      revert(0x00, 0x00)\n    tag_56:\n      pop\n      tag_57\n      0x04\n      dup1\n      calldatasize\n      sub\n      dup2\n      add\n      swap1\n      tag_58\n      swap2\n      swap1\n      tag_22\n      jump\t// in\n    tag_58:\n      tag_59\n      jump\t// in\n    tag_57:\n      mload(0x40)\n      tag_60\n      swap2\n      swap1\n      tag_61\n      jump\t// in\n    tag_60:\n      mload(0x40)\n      dup1\n      swap2\n      sub\n      swap1\n      return\n        /* \"contracts/ContratoSubasta.sol\":3053:3607  function finalizarSubasta() public {... */\n    tag_16:\n        /* \"contracts/ContratoSubasta.sol\":3106:3119  subastaActiva */\n      0x00\n      0x00\n      swap1\n      sload\n      swap1\n      0x0100\n      exp\n      swap1\n      div\n      0xff\n      and\n        /* \"contracts/ContratoSubasta.sol\":3098:3145  require(subastaActiva, \"No hay subasta activa\") */\n      tag_63\n      jumpi\n      mload(0x40)\n      0x08c379a000000000000000000000000000000000000000000000000000000000\n      dup2\n      mstore\n      0x04\n      add\n      tag_64\n      swap1\n      tag_65\n      jump\t// in\n    tag_64:\n      mload(0x40)\n      dup1\n      swap2\n      sub\n      swap1\n      revert\n    tag_63:\n        /* \"contracts/ContratoSubasta.sol\":3201:3211  msg.sender */\n      caller\n        /* \"contracts/ContratoSubasta.sol\":3176:3211  subasta.administrador == msg.sender */\n      0xffffffffffffffffffffffffffffffffffffffff\n      and\n        /* \"contracts/ContratoSubasta.sol\":3176:3183  subasta */\n      0x01\n        /* \"contracts/ContratoSubasta.sol\":3176:3197  subasta.administrador */\n      0x00\n      add\n      0x00\n      swap1\n      sload\n      swap1\n      0x0100\n      exp\n      swap1\n      div\n      0xffffffffffffffffffffffffffffffffffffffff\n      and\n        /* \"contracts/ContratoSubasta.sol\":3176:3211  subasta.administrador == msg.sender */\n      0xffffffffffffffffffffffffffffffffffffffff\n      and\n      eq\n        /* \"contracts/ContratoSubasta.sol\":3176:3270  subasta.administrador == msg.sender ||... */\n      dup1\n      tag_66\n      jumpi\n      pop\n        /* \"contracts/ContratoSubasta.sol\":3250:3257  subasta */\n      0x01\n        /* \"contracts/ContratoSubasta.sol\":3250:3270  subasta.tiempoLimite */\n      0x03\n      add\n      sload\n        /* \"contracts/ContratoSubasta.sol\":3231:3246  block.timestamp */\n      timestamp\n        /* \"contracts/ContratoSubasta.sol\":3231:3270  block.timestamp >= subasta.tiempoLimite */\n      lt\n      iszero\n        /* \"contracts/ContratoSubasta.sol\":3176:3270  subasta.administrador == msg.sender ||... */\n    tag_66:\n        /* \"contracts/ContratoSubasta.sol\":3155:3328  require(... */\n      tag_67\n      jumpi\n      mload(0x40)\n      0x08c379a000000000000000000000000000000000000000000000000000000000\n      dup2\n      mstore\n      0x04\n      add\n      tag_68\n      swap1\n      tag_69\n      jump\t// in\n    tag_68:\n      mload(0x40)\n      dup1\n      swap2\n      sub\n      swap1\n      revert\n    tag_67:\n        /* \"contracts/ContratoSubasta.sol\":3354:3359  false */\n      0x00\n        /* \"contracts/ContratoSubasta.sol\":3338:3351  subastaActiva */\n      0x00\n      0x00\n        /* \"contracts/ContratoSubasta.sol\":3338:3359  subastaActiva = false */\n      0x0100\n      exp\n      dup2\n      sload\n      dup2\n      0xff\n      mul\n      not\n      and\n      swap1\n      dup4\n      iszero\n      iszero\n      mul\n      or\n      swap1\n      sstore\n      pop\n        /* \"contracts/ContratoSubasta.sol\":3389:3393  true */\n      0x01\n        /* \"contracts/ContratoSubasta.sol\":3369:3386  subastaFinalizada */\n      0x00\n      0x01\n        /* \"contracts/ContratoSubasta.sol\":3369:3393  subastaFinalizada = true */\n      0x0100\n      exp\n      dup2\n      sload\n      dup2\n      0xff\n      mul\n      not\n      and\n      swap1\n      dup4\n      iszero\n      iszero\n      mul\n      or\n      swap1\n      sstore\n      pop\n        /* \"contracts/ContratoSubasta.sol\":3440:3441  0 */\n      0x00\n        /* \"contracts/ContratoSubasta.sol\":3407:3442  mejorOferta.ofertante != address(0) */\n      0xffffffffffffffffffffffffffffffffffffffff\n      and\n        /* \"contracts/ContratoSubasta.sol\":3407:3418  mejorOferta */\n      0x05\n        /* \"contracts/ContratoSubasta.sol\":3407:3428  mejorOferta.ofertante */\n      0x00\n      add\n      0x00\n      swap1\n      sload\n      swap1\n      0x0100\n      exp\n      swap1\n      div\n      0xffffffffffffffffffffffffffffffffffffffff\n      and\n        /* \"contracts/ContratoSubasta.sol\":3407:3442  mejorOferta.ofertante != address(0) */\n      0xffffffffffffffffffffffffffffffffffffffff\n      and\n      eq\n        /* \"contracts/ContratoSubasta.sol\":3403:3527  if (mejorOferta.ofertante != address(0)) {... */\n      tag_70\n      jumpi\n        /* \"contracts/ContratoSubasta.sol\":3466:3473  subasta */\n      0x01\n        /* \"contracts/ContratoSubasta.sol\":3466:3487  subasta.administrador */\n      0x00\n      add\n      0x00\n      swap1\n      sload\n      swap1\n      0x0100\n      exp\n      swap1\n      div\n      0xffffffffffffffffffffffffffffffffffffffff\n      and\n        /* \"contracts/ContratoSubasta.sol\":3458:3497  payable(subasta.administrador).transfer */\n      0xffffffffffffffffffffffffffffffffffffffff\n      and\n        /* \"contracts/ContratoSubasta.sol\":3458:3516  payable(subasta.administrador).transfer(mejorOferta.monto) */\n      0x08fc\n        /* \"contracts/ContratoSubasta.sol\":3498:3509  mejorOferta */\n      0x05\n        /* \"contracts/ContratoSubasta.sol\":3498:3515  mejorOferta.monto */\n      0x01\n      add\n      sload\n        /* \"contracts/ContratoSubasta.sol\":3458:3516  payable(subasta.administrador).transfer(mejorOferta.monto) */\n      swap1\n      dup2\n      iszero\n      mul\n      swap1\n      mload(0x40)\n      0x00\n      mload(0x40)\n      dup1\n      dup4\n      sub\n      dup2\n      dup6\n      dup9\n      dup9\n      call\n      swap4\n      pop\n      pop\n      pop\n      pop\n      iszero\n      dup1\n      iszero\n      tag_72\n      jumpi\n      returndatacopy(0x00, 0x00, returndatasize)\n      revert(0x00, returndatasize)\n    tag_72:\n      pop\n        /* \"contracts/ContratoSubasta.sol\":3403:3527  if (mejorOferta.ofertante != address(0)) {... */\n    tag_70:\n        /* \"contracts/ContratoSubasta.sol\":3541:3600  SubastaFinalizada(mejorOferta.ofertante, mejorOferta.monto) */\n      0xa3a65b403bdae88eb037f4ecc1d619f436fc3ef6bcbbee3787757164e82883f2\n        /* \"contracts/ContratoSubasta.sol\":3559:3570  mejorOferta */\n      0x05\n        /* \"contracts/ContratoSubasta.sol\":3559:3580  mejorOferta.ofertante */\n      0x00\n      add\n      0x00\n      swap1\n      sload\n      swap1\n      0x0100\n      exp\n      swap1\n      div\n      0xffffffffffffffffffffffffffffffffffffffff\n      and\n        /* \"contracts/ContratoSubasta.sol\":3582:3593  mejorOferta */\n      0x05\n        /* \"contracts/ContratoSubasta.sol\":3582:3599  mejorOferta.monto */\n      0x01\n      add\n      sload\n        /* \"contracts/ContratoSubasta.sol\":3541:3600  SubastaFinalizada(mejorOferta.ofertante, mejorOferta.monto) */\n      mload(0x40)\n      tag_73\n      swap3\n      swap2\n      swap1\n      tag_51\n      jump\t// in\n    tag_73:\n      mload(0x40)\n      dup1\n      swap2\n      sub\n      swap1\n      log1\n        /* \"contracts/ContratoSubasta.sol\":3053:3607  function finalizarSubasta() public {... */\n      jump\t// out\n        /* \"contracts/ContratoSubasta.sol\":2331:2909  function ofertar() public payable subastaEnCurso soloOferentes {... */\n    tag_18:\n        /* \"contracts/ContratoSubasta.sol\":1348:1361  subastaActiva */\n      0x00\n      0x00\n      swap1\n      sload\n      swap1\n      0x0100\n      exp\n      swap1\n      div\n      0xff\n      and\n        /* \"contracts/ContratoSubasta.sol\":1340:1391  require(subastaActiva, \"La subasta no esta activa\") */\n      tag_75\n      jumpi\n      mload(0x40)\n      0x08c379a000000000000000000000000000000000000000000000000000000000\n      dup2\n      mstore\n      0x04\n      add\n      tag_76\n      swap1\n      tag_77\n      jump\t// in\n    tag_76:\n      mload(0x40)\n      dup1\n      swap2\n      sub\n      swap1\n      revert\n    tag_75:\n        /* \"contracts/ContratoSubasta.sol\":1440:1447  subasta */\n      0x01\n        /* \"contracts/ContratoSubasta.sol\":1440:1460  subasta.tiempoLimite */\n      0x03\n      add\n      sload\n        /* \"contracts/ContratoSubasta.sol\":1422:1437  block.timestamp */\n      timestamp\n        /* \"contracts/ContratoSubasta.sol\":1422:1460  block.timestamp < subasta.tiempoLimite */\n      lt\n        /* \"contracts/ContratoSubasta.sol\":1401:1508  require(... */\n      tag_78\n      jumpi\n      mload(0x40)\n      0x08c379a000000000000000000000000000000000000000000000000000000000\n      dup2\n      mstore\n      0x04\n      add\n      tag_79\n      swap1\n      tag_80\n      jump\t// in\n    tag_79:\n      mload(0x40)\n      dup1\n      swap2\n      sub\n      swap1\n      revert\n    tag_78:\n        /* \"contracts/ContratoSubasta.sol\":1189:1209  oferentesRegistrados */\n      0x07\n        /* \"contracts/ContratoSubasta.sol\":1189:1221  oferentesRegistrados[msg.sender] */\n      0x00\n        /* \"contracts/ContratoSubasta.sol\":1210:1220  msg.sender */\n      caller\n        /* \"contracts/ContratoSubasta.sol\":1189:1221  oferentesRegistrados[msg.sender] */\n      0xffffffffffffffffffffffffffffffffffffffff\n      and\n      0xffffffffffffffffffffffffffffffffffffffff\n      and\n      dup2\n      mstore\n      0x20\n      add\n      swap1\n      dup2\n      mstore\n      0x20\n      add\n      0x00\n      keccak256\n      0x00\n      swap1\n      sload\n      swap1\n      0x0100\n      exp\n      swap1\n      div\n      0xff\n      and\n        /* \"contracts/ContratoSubasta.sol\":1168:1280  require(... */\n      tag_82\n      jumpi\n      mload(0x40)\n      0x08c379a000000000000000000000000000000000000000000000000000000000\n      dup2\n      mstore\n      0x04\n      add\n      tag_83\n      swap1\n      tag_84\n      jump\t// in\n    tag_83:\n      mload(0x40)\n      dup1\n      swap2\n      sub\n      swap1\n      revert\n    tag_82:\n        /* \"contracts/ContratoSubasta.sol\":2438:2445  subasta */\n      0x01\n        /* \"contracts/ContratoSubasta.sol\":2438:2455  subasta.montoBase */\n      0x02\n      add\n      sload\n        /* \"contracts/ContratoSubasta.sol\":2425:2434  msg.value */\n      callvalue\n        /* \"contracts/ContratoSubasta.sol\":2425:2455  msg.value >= subasta.montoBase */\n      lt\n      iszero\n        /* \"contracts/ContratoSubasta.sol\":2404:2517  require(... */\n      tag_86\n      jumpi\n      mload(0x40)\n      0x08c379a000000000000000000000000000000000000000000000000000000000\n      dup2\n      mstore\n      0x04\n      add\n      tag_87\n      swap1\n      tag_88\n      jump\t// in\n    tag_87:\n      mload(0x40)\n      dup1\n      swap2\n      sub\n      swap1\n      revert\n    tag_86:\n        /* \"contracts/ContratoSubasta.sol\":2560:2571  mejorOferta */\n      0x05\n        /* \"contracts/ContratoSubasta.sol\":2560:2577  mejorOferta.monto */\n      0x01\n      add\n      sload\n        /* \"contracts/ContratoSubasta.sol\":2548:2557  msg.value */\n      callvalue\n        /* \"contracts/ContratoSubasta.sol\":2548:2577  msg.value > mejorOferta.monto */\n      gt\n        /* \"contracts/ContratoSubasta.sol\":2527:2635  require(... */\n      tag_89\n      jumpi\n      mload(0x40)\n      0x08c379a000000000000000000000000000000000000000000000000000000000\n      dup2\n      mstore\n      0x04\n      add\n      tag_90\n      swap1\n      tag_91\n      jump\t// in\n    tag_90:\n      mload(0x40)\n      dup1\n      swap2\n      sub\n      swap1\n      revert\n    tag_89:\n        /* \"contracts/ContratoSubasta.sol\":2669:2670  0 */\n      0x00\n        /* \"contracts/ContratoSubasta.sol\":2649:2660  mejorOferta */\n      0x05\n        /* \"contracts/ContratoSubasta.sol\":2649:2666  mejorOferta.monto */\n      0x01\n      add\n      sload\n        /* \"contracts/ContratoSubasta.sol\":2649:2670  mejorOferta.monto > 0 */\n      gt\n        /* \"contracts/ContratoSubasta.sol\":2645:2755  if (mejorOferta.monto > 0) {... */\n      iszero\n      tag_92\n      jumpi\n        /* \"contracts/ContratoSubasta.sol\":2694:2705  mejorOferta */\n      0x05\n        /* \"contracts/ContratoSubasta.sol\":2694:2715  mejorOferta.ofertante */\n      0x00\n      add\n      0x00\n      swap1\n      sload\n      swap1\n      0x0100\n      exp\n      swap1\n      div\n      0xffffffffffffffffffffffffffffffffffffffff\n      and\n        /* \"contracts/ContratoSubasta.sol\":2686:2725  payable(mejorOferta.ofertante).transfer */\n      0xffffffffffffffffffffffffffffffffffffffff\n      and\n        /* \"contracts/ContratoSubasta.sol\":2686:2744  payable(mejorOferta.ofertante).transfer(mejorOferta.monto) */\n      0x08fc\n        /* \"contracts/ContratoSubasta.sol\":2726:2737  mejorOferta */\n      0x05\n        /* \"contracts/ContratoSubasta.sol\":2726:2743  mejorOferta.monto */\n      0x01\n      add\n      sload\n        /* \"contracts/ContratoSubasta.sol\":2686:2744  payable(mejorOferta.ofertante).transfer(mejorOferta.monto) */\n      swap1\n      dup2\n      iszero\n      mul\n      swap1\n      mload(0x40)\n      0x00\n      mload(0x40)\n      dup1\n      dup4\n      sub\n      dup2\n      dup6\n      dup9\n      dup9\n      call\n      swap4\n      pop\n      pop\n      pop\n      pop\n      iszero\n      dup1\n      iszero\n      tag_94\n      jumpi\n      returndatacopy(0x00, 0x00, returndatasize)\n      revert(0x00, returndatasize)\n    tag_94:\n      pop\n        /* \"contracts/ContratoSubasta.sol\":2645:2755  if (mejorOferta.monto > 0) {... */\n    tag_92:\n        /* \"contracts/ContratoSubasta.sol\":2786:2795  msg.value */\n      callvalue\n        /* \"contracts/ContratoSubasta.sol\":2764:2771  ofertas */\n      0x08\n        /* \"contracts/ContratoSubasta.sol\":2764:2783  ofertas[msg.sender] */\n      0x00\n        /* \"contracts/ContratoSubasta.sol\":2772:2782  msg.sender */\n      caller\n        /* \"contracts/ContratoSubasta.sol\":2764:2783  ofertas[msg.sender] */\n      0xffffffffffffffffffffffffffffffffffffffff\n      and\n      0xffffffffffffffffffffffffffffffffffffffff\n      and\n      dup2\n      mstore\n      0x20\n      add\n      swap1\n      dup2\n      mstore\n      0x20\n      add\n      0x00\n      keccak256\n        /* \"contracts/ContratoSubasta.sol\":2764:2795  ofertas[msg.sender] = msg.value */\n      dup2\n      swap1\n      sstore\n      pop\n        /* \"contracts/ContratoSubasta.sol\":2819:2853  MejorOferta(msg.sender, msg.value) */\n      mload(0x40)\n      dup1\n      0x40\n      add\n      0x40\n      mstore\n      dup1\n        /* \"contracts/ContratoSubasta.sol\":2831:2841  msg.sender */\n      caller\n        /* \"contracts/ContratoSubasta.sol\":2819:2853  MejorOferta(msg.sender, msg.value) */\n      0xffffffffffffffffffffffffffffffffffffffff\n      and\n      dup2\n      mstore\n      0x20\n      add\n        /* \"contracts/ContratoSubasta.sol\":2843:2852  msg.value */\n      callvalue\n        /* \"contracts/ContratoSubasta.sol\":2819:2853  MejorOferta(msg.sender, msg.value) */\n      dup2\n      mstore\n      pop\n        /* \"contracts/ContratoSubasta.sol\":2805:2816  mejorOferta */\n      0x05\n        /* \"contracts/ContratoSubasta.sol\":2805:2853  mejorOferta = MejorOferta(msg.sender, msg.value) */\n      0x00\n      dup3\n      add\n      mload\n      dup2\n      0x00\n      add\n      exp(0x0100, 0x00)\n      dup2\n      sload\n      dup2\n      0xffffffffffffffffffffffffffffffffffffffff\n      mul\n      not\n      and\n      swap1\n      dup4\n      0xffffffffffffffffffffffffffffffffffffffff\n      and\n      mul\n      or\n      swap1\n      sstore\n      pop\n      0x20\n      dup3\n      add\n      mload\n      dup2\n      0x01\n      add\n      sstore\n      swap1\n      pop\n      pop\n        /* \"contracts/ContratoSubasta.sol\":2868:2902  NuevaOferta(msg.sender, msg.value) */\n      0x155d469211f46e4d9ae974606f0878f9aacc6198ba30a1e6b9c8cf5627352fb5\n        /* \"contracts/ContratoSubasta.sol\":2880:2890  msg.sender */\n      caller\n        /* \"contracts/ContratoSubasta.sol\":2892:2901  msg.value */\n      callvalue\n        /* \"contracts/ContratoSubasta.sol\":2868:2902  NuevaOferta(msg.sender, msg.value) */\n      mload(0x40)\n      tag_95\n      swap3\n      swap2\n      swap1\n      tag_51\n      jump\t// in\n    tag_95:\n      mload(0x40)\n      dup1\n      swap2\n      sub\n      swap1\n      log1\n        /* \"contracts/ContratoSubasta.sol\":2331:2909  function ofertar() public payable subastaEnCurso soloOferentes {... */\n      jump\t// out\n        /* \"contracts/ContratoSubasta.sol\":445:497  mapping(address => bool) public oferentesRegistrados */\n    tag_23:\n      mstore(0x20, 0x07)\n      dup1\n      0x00\n      mstore\n      keccak256(0x00, 0x40)\n      0x00\n      swap2\n      pop\n      sload\n      swap1\n      0x0100\n      exp\n      swap1\n      div\n      0xff\n      and\n      dup2\n      jump\t// out\n        /* \"contracts/ContratoSubasta.sol\":89:114  bool public subastaActiva */\n    tag_28:\n      0x00\n      0x00\n      swap1\n      sload\n      swap1\n      0x0100\n      exp\n      swap1\n      div\n      0xff\n      and\n      dup2\n      jump\t// out\n        /* \"contracts/ContratoSubasta.sol\":297:319  Subasta public subasta */\n    tag_32:\n      0x01\n      dup1\n      0x00\n      add\n      0x00\n      swap1\n      sload\n      swap1\n      0x0100\n      exp\n      swap1\n      div\n      0xffffffffffffffffffffffffffffffffffffffff\n      and\n      swap1\n      dup1\n      0x01\n      add\n      dup1\n      sload\n      tag_96\n      swap1\n      tag_97\n      jump\t// in\n    tag_96:\n      dup1\n      0x1f\n      add\n      0x20\n      dup1\n      swap2\n      div\n      mul\n      0x20\n      add\n      mload(0x40)\n      swap1\n      dup2\n      add\n      0x40\n      mstore\n      dup1\n      swap3\n      swap2\n      swap1\n      dup2\n      dup2\n      mstore\n      0x20\n      add\n      dup3\n      dup1\n      sload\n      tag_98\n      swap1\n      tag_97\n      jump\t// in\n    tag_98:\n      dup1\n      iszero\n      tag_99\n      jumpi\n      dup1\n      0x1f\n      lt\n      tag_100\n      jumpi\n      0x0100\n      dup1\n      dup4\n      sload\n      div\n      mul\n      dup4\n      mstore\n      swap2\n      0x20\n      add\n      swap2\n      jump(tag_99)\n    tag_100:\n      dup3\n      add\n      swap2\n      swap1\n      0x00\n      mstore\n      keccak256(0x00, 0x20)\n      swap1\n    tag_101:\n      dup2\n      sload\n      dup2\n      mstore\n      swap1\n      0x01\n      add\n      swap1\n      0x20\n      add\n      dup1\n      dup4\n      gt\n      tag_101\n      jumpi\n      dup3\n      swap1\n      sub\n      0x1f\n      and\n      dup3\n      add\n      swap2\n    tag_99:\n      pop\n      pop\n      pop\n      pop\n      pop\n      swap1\n      dup1\n      0x02\n      add\n      sload\n      swap1\n      dup1\n      0x03\n      add\n      sload\n      swap1\n      pop\n      dup5\n      jump\t// out\n        /* \"contracts/ContratoSubasta.sol\":120:149  bool public subastaFinalizada */\n    tag_37:\n      0x00\n      0x01\n      swap1\n      sload\n      swap1\n      0x0100\n      exp\n      swap1\n      div\n      0xff\n      and\n      dup2\n      jump\t// out\n        /* \"contracts/ContratoSubasta.sol\":2107:2325  function registrarseComoOferente() public {... */\n    tag_41:\n        /* \"contracts/ContratoSubasta.sol\":2168:2188  oferentesRegistrados */\n      0x07\n        /* \"contracts/ContratoSubasta.sol\":2168:2200  oferentesRegistrados[msg.sender] */\n      0x00\n        /* \"contracts/ContratoSubasta.sol\":2189:2199  msg.sender */\n      caller\n        /* \"contracts/ContratoSubasta.sol\":2168:2200  oferentesRegistrados[msg.sender] */\n      0xffffffffffffffffffffffffffffffffffffffff\n      and\n      0xffffffffffffffffffffffffffffffffffffffff\n      and\n      dup2\n      mstore\n      0x20\n      add\n      swap1\n      dup2\n      mstore\n      0x20\n      add\n      0x00\n      keccak256\n      0x00\n      swap1\n      sload\n      swap1\n      0x0100\n      exp\n      swap1\n      div\n      0xff\n      and\n        /* \"contracts/ContratoSubasta.sol\":2167:2200  !oferentesRegistrados[msg.sender] */\n      iszero\n        /* \"contracts/ContratoSubasta.sol\":2159:2224  require(!oferentesRegistrados[msg.sender], \"Ya estas registrado\") */\n      tag_103\n      jumpi\n      mload(0x40)\n      0x08c379a000000000000000000000000000000000000000000000000000000000\n      dup2\n      mstore\n      0x04\n      add\n      tag_104\n      swap1\n      tag_105\n      jump\t// in\n    tag_104:\n      mload(0x40)\n      dup1\n      swap2\n      sub\n      swap1\n      revert\n    tag_103:\n        /* \"contracts/ContratoSubasta.sol\":2269:2273  true */\n      0x01\n        /* \"contracts/ContratoSubasta.sol\":2234:2254  oferentesRegistrados */\n      0x07\n        /* \"contracts/ContratoSubasta.sol\":2234:2266  oferentesRegistrados[msg.sender] */\n      0x00\n        /* \"contracts/ContratoSubasta.sol\":2255:2265  msg.sender */\n      caller\n        /* \"contracts/ContratoSubasta.sol\":2234:2266  oferentesRegistrados[msg.sender] */\n      0xffffffffffffffffffffffffffffffffffffffff\n      and\n      0xffffffffffffffffffffffffffffffffffffffff\n      and\n      dup2\n      mstore\n      0x20\n      add\n      swap1\n      dup2\n      mstore\n      0x20\n      add\n      0x00\n      keccak256\n      0x00\n        /* \"contracts/ContratoSubasta.sol\":2234:2273  oferentesRegistrados[msg.sender] = true */\n      0x0100\n      exp\n      dup2\n      sload\n      dup2\n      0xff\n      mul\n      not\n      and\n      swap1\n      dup4\n      iszero\n      iszero\n      mul\n      or\n      swap1\n      sstore\n      pop\n        /* \"contracts/ContratoSubasta.sol\":2288:2318  OferenteRegistrado(msg.sender) */\n      0x5e4427b2aef380abaa3c5a005737553eca9d2e7259090668e68ff15ce487bf21\n        /* \"contracts/ContratoSubasta.sol\":2307:2317  msg.sender */\n      caller\n        /* \"contracts/ContratoSubasta.sol\":2288:2318  OferenteRegistrado(msg.sender) */\n      mload(0x40)\n      tag_106\n      swap2\n      swap1\n      tag_107\n      jump\t// in\n    tag_106:\n      mload(0x40)\n      dup1\n      swap2\n      sub\n      swap1\n      log1\n        /* \"contracts/ContratoSubasta.sol\":2107:2325  function registrarseComoOferente() public {... */\n      jump\t// out\n        /* \"contracts/ContratoSubasta.sol\":1532:2101  function crearSubasta(... */\n    tag_46:\n        /* \"contracts/ContratoSubasta.sol\":1015:1022  subasta */\n      0x01\n        /* \"contracts/ContratoSubasta.sol\":1015:1036  subasta.administrador */\n      0x00\n      add\n      0x00\n      swap1\n      sload\n      swap1\n      0x0100\n      exp\n      swap1\n      div\n      0xffffffffffffffffffffffffffffffffffffffff\n      and\n        /* \"contracts/ContratoSubasta.sol\":1001:1036  msg.sender == subasta.administrador */\n      0xffffffffffffffffffffffffffffffffffffffff\n      and\n        /* \"contracts/ContratoSubasta.sol\":1001:1011  msg.sender */\n      caller\n        /* \"contracts/ContratoSubasta.sol\":1001:1036  msg.sender == subasta.administrador */\n      0xffffffffffffffffffffffffffffffffffffffff\n      and\n      eq\n        /* \"contracts/ContratoSubasta.sol\":980:1110  require(... */\n      tag_109\n      jumpi\n      mload(0x40)\n      0x08c379a000000000000000000000000000000000000000000000000000000000\n      dup2\n      mstore\n      0x04\n      add\n      tag_110\n      swap1\n      tag_111\n      jump\t// in\n    tag_110:\n      mload(0x40)\n      dup1\n      swap2\n      sub\n      swap1\n      revert\n    tag_109:\n        /* \"contracts/ContratoSubasta.sol\":1700:1713  subastaActiva */\n      0x00\n      0x00\n      swap1\n      sload\n      swap1\n      0x0100\n      exp\n      swap1\n      div\n      0xff\n      and\n        /* \"contracts/ContratoSubasta.sol\":1699:1713  !subastaActiva */\n      iszero\n        /* \"contracts/ContratoSubasta.sol\":1691:1743  require(!subastaActiva, \"Ya hay una subasta activa\") */\n      tag_113\n      jumpi\n      mload(0x40)\n      0x08c379a000000000000000000000000000000000000000000000000000000000\n      dup2\n      mstore\n      0x04\n      add\n      tag_114\n      swap1\n      tag_115\n      jump\t// in\n    tag_114:\n      mload(0x40)\n      dup1\n      swap2\n      sub\n      swap1\n      revert\n    tag_113:\n        /* \"contracts/ContratoSubasta.sol\":1772:1781  _articulo */\n      dup3\n        /* \"contracts/ContratoSubasta.sol\":1753:1760  subasta */\n      0x01\n        /* \"contracts/ContratoSubasta.sol\":1753:1769  subasta.articulo */\n      dup1\n      add\n        /* \"contracts/ContratoSubasta.sol\":1753:1781  subasta.articulo = _articulo */\n      swap1\n      dup2\n      tag_116\n      swap2\n      swap1\n      tag_117\n      jump\t// in\n    tag_116:\n      pop\n        /* \"contracts/ContratoSubasta.sol\":1811:1821  _montoBase */\n      dup2\n        /* \"contracts/ContratoSubasta.sol\":1791:1798  subasta */\n      0x01\n        /* \"contracts/ContratoSubasta.sol\":1791:1808  subasta.montoBase */\n      0x02\n      add\n        /* \"contracts/ContratoSubasta.sol\":1791:1821  subasta.montoBase = _montoBase */\n      dup2\n      swap1\n      sstore\n      pop\n        /* \"contracts/ContratoSubasta.sol\":1872:1889  _duracionSegundos */\n      dup1\n        /* \"contracts/ContratoSubasta.sol\":1854:1869  block.timestamp */\n      timestamp\n        /* \"contracts/ContratoSubasta.sol\":1854:1889  block.timestamp + _duracionSegundos */\n      tag_118\n      swap2\n      swap1\n      tag_119\n      jump\t// in\n    tag_118:\n        /* \"contracts/ContratoSubasta.sol\":1831:1838  subasta */\n      0x01\n        /* \"contracts/ContratoSubasta.sol\":1831:1851  subasta.tiempoLimite */\n      0x03\n      add\n        /* \"contracts/ContratoSubasta.sol\":1831:1889  subasta.tiempoLimite = block.timestamp + _duracionSegundos */\n      dup2\n      swap1\n      sstore\n      pop\n        /* \"contracts/ContratoSubasta.sol\":1915:1919  true */\n      0x01\n        /* \"contracts/ContratoSubasta.sol\":1899:1912  subastaActiva */\n      0x00\n      0x00\n        /* \"contracts/ContratoSubasta.sol\":1899:1919  subastaActiva = true */\n      0x0100\n      exp\n      dup2\n      sload\n      dup2\n      0xff\n      mul\n      not\n      and\n      swap1\n      dup4\n      iszero\n      iszero\n      mul\n      or\n      swap1\n      sstore\n      pop\n        /* \"contracts/ContratoSubasta.sol\":1949:1954  false */\n      0x00\n        /* \"contracts/ContratoSubasta.sol\":1929:1946  subastaFinalizada */\n      0x00\n      0x01\n        /* \"contracts/ContratoSubasta.sol\":1929:1954  subastaFinalizada = false */\n      0x0100\n      exp\n      dup2\n      sload\n      dup2\n      0xff\n      mul\n      not\n      and\n      swap1\n      dup4\n      iszero\n      iszero\n      mul\n      or\n      swap1\n      sstore\n      pop\n        /* \"contracts/ContratoSubasta.sol\":1978:2024  MejorOferta({ofertante: address(0), monto: 0}) */\n      mload(0x40)\n      dup1\n      0x40\n      add\n      0x40\n      mstore\n      dup1\n        /* \"contracts/ContratoSubasta.sol\":2010:2011  0 */\n      0x00\n        /* \"contracts/ContratoSubasta.sol\":1978:2024  MejorOferta({ofertante: address(0), monto: 0}) */\n      0xffffffffffffffffffffffffffffffffffffffff\n      and\n      dup2\n      mstore\n      0x20\n      add\n        /* \"contracts/ContratoSubasta.sol\":2021:2022  0 */\n      0x00\n        /* \"contracts/ContratoSubasta.sol\":1978:2024  MejorOferta({ofertante: address(0), monto: 0}) */\n      dup2\n      mstore\n      pop\n        /* \"contracts/ContratoSubasta.sol\":1964:1975  mejorOferta */\n      0x05\n        /* \"contracts/ContratoSubasta.sol\":1964:2024  mejorOferta = MejorOferta({ofertante: address(0), monto: 0}) */\n      0x00\n      dup3\n      add\n      mload\n      dup2\n      0x00\n      add\n      exp(0x0100, 0x00)\n      dup2\n      sload\n      dup2\n      0xffffffffffffffffffffffffffffffffffffffff\n      mul\n      not\n      and\n      swap1\n      dup4\n      0xffffffffffffffffffffffffffffffffffffffff\n      and\n      mul\n      or\n      swap1\n      sstore\n      pop\n      0x20\n      dup3\n      add\n      mload\n      dup2\n      0x01\n      add\n      sstore\n      swap1\n      pop\n      pop\n        /* \"contracts/ContratoSubasta.sol\":2039:2094  SubastaCreada(_articulo, _montoBase, _duracionSegundos) */\n      0x0c7273685091eea5de621dc030640e4b290669dbfba417608758b761ce92be5d\n        /* \"contracts/ContratoSubasta.sol\":2053:2062  _articulo */\n      dup4\n        /* \"contracts/ContratoSubasta.sol\":2064:2074  _montoBase */\n      dup4\n        /* \"contracts/ContratoSubasta.sol\":2076:2093  _duracionSegundos */\n      dup4\n        /* \"contracts/ContratoSubasta.sol\":2039:2094  SubastaCreada(_articulo, _montoBase, _duracionSegundos) */\n      mload(0x40)\n      tag_120\n      swap4\n      swap3\n      swap2\n      swap1\n      tag_121\n      jump\t// in\n    tag_120:\n      mload(0x40)\n      dup1\n      swap2\n      sub\n      swap1\n      log1\n        /* \"contracts/ContratoSubasta.sol\":1532:2101  function crearSubasta(... */\n      pop\n      pop\n      pop\n      jump\t// out\n        /* \"contracts/ContratoSubasta.sol\":408:438  MejorOferta public mejorOferta */\n    tag_49:\n      0x05\n      dup1\n      0x00\n      add\n      0x00\n      swap1\n      sload\n      swap1\n      0x0100\n      exp\n      swap1\n      div\n      0xffffffffffffffffffffffffffffffffffffffff\n      and\n      swap1\n      dup1\n      0x01\n      add\n      sload\n      swap1\n      pop\n      dup3\n      jump\t// out\n        /* \"contracts/ContratoSubasta.sol\":2915:3047  function verOfertaActual() public view returns (address, uint256) {... */\n    tag_54:\n        /* \"contracts/ContratoSubasta.sol\":2963:2970  address */\n      0x00\n        /* \"contracts/ContratoSubasta.sol\":2972:2979  uint256 */\n      0x00\n        /* \"contracts/ContratoSubasta.sol\":2999:3010  mejorOferta */\n      0x05\n        /* \"contracts/ContratoSubasta.sol\":2999:3020  mejorOferta.ofertante */\n      0x00\n      add\n      0x00\n      swap1\n      sload\n      swap1\n      0x0100\n      exp\n      swap1\n      div\n      0xffffffffffffffffffffffffffffffffffffffff\n      and\n        /* \"contracts/ContratoSubasta.sol\":3022:3033  mejorOferta */\n      0x05\n        /* \"contracts/ContratoSubasta.sol\":3022:3039  mejorOferta.monto */\n      0x01\n      add\n      sload\n        /* \"contracts/ContratoSubasta.sol\":2991:3040  return (mejorOferta.ofertante, mejorOferta.monto) */\n      swap2\n      pop\n      swap2\n      pop\n        /* \"contracts/ContratoSubasta.sol\":2915:3047  function verOfertaActual() public view returns (address, uint256) {... */\n      swap1\n      swap2\n      jump\t// out\n        /* \"contracts/ContratoSubasta.sol\":503:545  mapping(address => uint256) public ofertas */\n    tag_59:\n      mstore(0x20, 0x08)\n      dup1\n      0x00\n      mstore\n      keccak256(0x00, 0x40)\n      0x00\n      swap2\n      pop\n      swap1\n      pop\n      sload\n      dup2\n      jump\t// out\n        /* \"#utility.yul\":7:82   */\n    tag_123:\n        /* \"#utility.yul\":40:46   */\n      0x00\n        /* \"#utility.yul\":73:75   */\n      0x40\n        /* \"#utility.yul\":67:76   */\n      mload\n        /* \"#utility.yul\":57:76   */\n      swap1\n      pop\n        /* \"#utility.yul\":7:82   */\n      swap1\n      jump\t// out\n        /* \"#utility.yul\":88:205   */\n    tag_124:\n        /* \"#utility.yul\":197:198   */\n      0x00\n        /* \"#utility.yul\":194:195   */\n      0x00\n        /* \"#utility.yul\":187:199   */\n      revert\n        /* \"#utility.yul\":211:328   */\n    tag_125:\n        /* \"#utility.yul\":320:321   */\n      0x00\n        /* \"#utility.yul\":317:318   */\n      0x00\n        /* \"#utility.yul\":310:322   */\n      revert\n        /* \"#utility.yul\":334:460   */\n    tag_126:\n        /* \"#utility.yul\":371:378   */\n      0x00\n        /* \"#utility.yul\":411:453   */\n      0xffffffffffffffffffffffffffffffffffffffff\n        /* \"#utility.yul\":404:409   */\n      dup3\n        /* \"#utility.yul\":400:454   */\n      and\n        /* \"#utility.yul\":389:454   */\n      swap1\n      pop\n        /* \"#utility.yul\":334:460   */\n      swap2\n      swap1\n      pop\n      jump\t// out\n        /* \"#utility.yul\":466:562   */\n    tag_127:\n        /* \"#utility.yul\":503:510   */\n      0x00\n        /* \"#utility.yul\":532:556   */\n      tag_194\n        /* \"#utility.yul\":550:555   */\n      dup3\n        /* \"#utility.yul\":532:556   */\n      tag_126\n      jump\t// in\n    tag_194:\n        /* \"#utility.yul\":521:556   */\n      swap1\n      pop\n        /* \"#utility.yul\":466:562   */\n      swap2\n      swap1\n      pop\n      jump\t// out\n        /* \"#utility.yul\":568:690   */\n    tag_128:\n        /* \"#utility.yul\":641:665   */\n      tag_196\n        /* \"#utility.yul\":659:664   */\n      dup2\n        /* \"#utility.yul\":641:665   */\n      tag_127\n      jump\t// in\n    tag_196:\n        /* \"#utility.yul\":634:639   */\n      dup2\n        /* \"#utility.yul\":631:666   */\n      eq\n        /* \"#utility.yul\":621:684   */\n      tag_197\n      jumpi\n        /* \"#utility.yul\":680:681   */\n      0x00\n        /* \"#utility.yul\":677:678   */\n      0x00\n        /* \"#utility.yul\":670:682   */\n      revert\n        /* \"#utility.yul\":621:684   */\n    tag_197:\n        /* \"#utility.yul\":568:690   */\n      pop\n      jump\t// out\n        /* \"#utility.yul\":696:835   */\n    tag_129:\n        /* \"#utility.yul\":742:747   */\n      0x00\n        /* \"#utility.yul\":780:786   */\n      dup2\n        /* \"#utility.yul\":767:787   */\n      calldataload\n        /* \"#utility.yul\":758:787   */\n      swap1\n      pop\n        /* \"#utility.yul\":796:829   */\n      tag_199\n        /* \"#utility.yul\":823:828   */\n      dup2\n        /* \"#utility.yul\":796:829   */\n      tag_128\n      jump\t// in\n    tag_199:\n        /* \"#utility.yul\":696:835   */\n      swap3\n      swap2\n      pop\n      pop\n      jump\t// out\n        /* \"#utility.yul\":841:1170   */\n    tag_22:\n        /* \"#utility.yul\":900:906   */\n      0x00\n        /* \"#utility.yul\":949:951   */\n      0x20\n        /* \"#utility.yul\":937:946   */\n      dup3\n        /* \"#utility.yul\":928:935   */\n      dup5\n        /* \"#utility.yul\":924:947   */\n      sub\n        /* \"#utility.yul\":920:952   */\n      slt\n        /* \"#utility.yul\":917:1036   */\n      iszero\n      tag_201\n      jumpi\n        /* \"#utility.yul\":955:1034   */\n      tag_202\n      tag_124\n      jump\t// in\n    tag_202:\n        /* \"#utility.yul\":917:1036   */\n    tag_201:\n        /* \"#utility.yul\":1075:1076   */\n      0x00\n        /* \"#utility.yul\":1100:1153   */\n      tag_203\n        /* \"#utility.yul\":1145:1152   */\n      dup5\n        /* \"#utility.yul\":1136:1142   */\n      dup3\n        /* \"#utility.yul\":1125:1134   */\n      dup6\n        /* \"#utility.yul\":1121:1143   */\n      add\n        /* \"#utility.yul\":1100:1153   */\n      tag_129\n      jump\t// in\n    tag_203:\n        /* \"#utility.yul\":1090:1153   */\n      swap2\n      pop\n        /* \"#utility.yul\":1046:1163   */\n      pop\n        /* \"#utility.yul\":841:1170   */\n      swap3\n      swap2\n      pop\n      pop\n      jump\t// out\n        /* \"#utility.yul\":1176:1266   */\n    tag_130:\n        /* \"#utility.yul\":1210:1217   */\n      0x00\n        /* \"#utility.yul\":1253:1258   */\n      dup2\n        /* \"#utility.yul\":1246:1259   */\n      iszero\n        /* \"#utility.yul\":1239:1260   */\n      iszero\n        /* \"#utility.yul\":1228:1260   */\n      swap1\n      pop\n        /* \"#utility.yul\":1176:1266   */\n      swap2\n      swap1\n      pop\n      jump\t// out\n        /* \"#utility.yul\":1272:1381   */\n    tag_131:\n        /* \"#utility.yul\":1353:1374   */\n      tag_206\n        /* \"#utility.yul\":1368:1373   */\n      dup2\n        /* \"#utility.yul\":1353:1374   */\n      tag_130\n      jump\t// in\n    tag_206:\n        /* \"#utility.yul\":1348:1351   */\n      dup3\n        /* \"#utility.yul\":1341:1375   */\n      mstore\n        /* \"#utility.yul\":1272:1381   */\n      pop\n      pop\n      jump\t// out\n        /* \"#utility.yul\":1387:1597   */\n    tag_25:\n        /* \"#utility.yul\":1474:1478   */\n      0x00\n        /* \"#utility.yul\":1512:1514   */\n      0x20\n        /* \"#utility.yul\":1501:1510   */\n      dup3\n        /* \"#utility.yul\":1497:1515   */\n      add\n        /* \"#utility.yul\":1489:1515   */\n      swap1\n      pop\n        /* \"#utility.yul\":1525:1590   */\n      tag_208\n        /* \"#utility.yul\":1587:1588   */\n      0x00\n        /* \"#utility.yul\":1576:1585   */\n      dup4\n        /* \"#utility.yul\":1572:1589   */\n      add\n        /* \"#utility.yul\":1563:1569   */\n      dup5\n        /* \"#utility.yul\":1525:1590   */\n      tag_131\n      jump\t// in\n    tag_208:\n        /* \"#utility.yul\":1387:1597   */\n      swap3\n      swap2\n      pop\n      pop\n      jump\t// out\n        /* \"#utility.yul\":1603:1721   */\n    tag_132:\n        /* \"#utility.yul\":1690:1714   */\n      tag_210\n        /* \"#utility.yul\":1708:1713   */\n      dup2\n        /* \"#utility.yul\":1690:1714   */\n      tag_127\n      jump\t// in\n    tag_210:\n        /* \"#utility.yul\":1685:1688   */\n      dup3\n        /* \"#utility.yul\":1678:1715   */\n      mstore\n        /* \"#utility.yul\":1603:1721   */\n      pop\n      pop\n      jump\t// out\n        /* \"#utility.yul\":1727:1826   */\n    tag_133:\n        /* \"#utility.yul\":1779:1785   */\n      0x00\n        /* \"#utility.yul\":1813:1818   */\n      dup2\n        /* \"#utility.yul\":1807:1819   */\n      mload\n        /* \"#utility.yul\":1797:1819   */\n      swap1\n      pop\n        /* \"#utility.yul\":1727:1826   */\n      swap2\n      swap1\n      pop\n      jump\t// out\n        /* \"#utility.yul\":1832:2001   */\n    tag_134:\n        /* \"#utility.yul\":1916:1927   */\n      0x00\n        /* \"#utility.yul\":1950:1956   */\n      dup3\n        /* \"#utility.yul\":1945:1948   */\n      dup3\n        /* \"#utility.yul\":1938:1957   */\n      mstore\n        /* \"#utility.yul\":1990:1994   */\n      0x20\n        /* \"#utility.yul\":1985:1988   */\n      dup3\n        /* \"#utility.yul\":1981:1995   */\n      add\n        /* \"#utility.yul\":1966:1995   */\n      swap1\n      pop\n        /* \"#utility.yul\":1832:2001   */\n      swap3\n      swap2\n      pop\n      pop\n      jump\t// out\n        /* \"#utility.yul\":2007:2146   */\n    tag_135:\n        /* \"#utility.yul\":2096:2102   */\n      dup3\n        /* \"#utility.yul\":2091:2094   */\n      dup2\n        /* \"#utility.yul\":2086:2089   */\n      dup4\n        /* \"#utility.yul\":2080:2103   */\n      mcopy\n        /* \"#utility.yul\":2137:2138   */\n      0x00\n        /* \"#utility.yul\":2128:2134   */\n      dup4\n        /* \"#utility.yul\":2123:2126   */\n      dup4\n        /* \"#utility.yul\":2119:2135   */\n      add\n        /* \"#utility.yul\":2112:2139   */\n      mstore\n        /* \"#utility.yul\":2007:2146   */\n      pop\n      pop\n      pop\n      jump\t// out\n        /* \"#utility.yul\":2152:2254   */\n    tag_136:\n        /* \"#utility.yul\":2193:2199   */\n      0x00\n        /* \"#utility.yul\":2244:2246   */\n      0x1f\n        /* \"#utility.yul\":2240:2247   */\n      not\n        /* \"#utility.yul\":2235:2237   */\n      0x1f\n        /* \"#utility.yul\":2228:2233   */\n      dup4\n        /* \"#utility.yul\":2224:2238   */\n      add\n        /* \"#utility.yul\":2220:2248   */\n      and\n        /* \"#utility.yul\":2210:2248   */\n      swap1\n      pop\n        /* \"#utility.yul\":2152:2254   */\n      swap2\n      swap1\n      pop\n      jump\t// out\n        /* \"#utility.yul\":2260:2637   */\n    tag_137:\n        /* \"#utility.yul\":2348:2351   */\n      0x00\n        /* \"#utility.yul\":2376:2415   */\n      tag_216\n        /* \"#utility.yul\":2409:2414   */\n      dup3\n        /* \"#utility.yul\":2376:2415   */\n      tag_133\n      jump\t// in\n    tag_216:\n        /* \"#utility.yul\":2431:2502   */\n      tag_217\n        /* \"#utility.yul\":2495:2501   */\n      dup2\n        /* \"#utility.yul\":2490:2493   */\n      dup6\n        /* \"#utility.yul\":2431:2502   */\n      tag_134\n      jump\t// in\n    tag_217:\n        /* \"#utility.yul\":2424:2502   */\n      swap4\n      pop\n        /* \"#utility.yul\":2511:2576   */\n      tag_218\n        /* \"#utility.yul\":2569:2575   */\n      dup2\n        /* \"#utility.yul\":2564:2567   */\n      dup6\n        /* \"#utility.yul\":2557:2561   */\n      0x20\n        /* \"#utility.yul\":2550:2555   */\n      dup7\n        /* \"#utility.yul\":2546:2562   */\n      add\n        /* \"#utility.yul\":2511:2576   */\n      tag_135\n      jump\t// in\n    tag_218:\n        /* \"#utility.yul\":2601:2630   */\n      tag_219\n        /* \"#utility.yul\":2623:2629   */\n      dup2\n        /* \"#utility.yul\":2601:2630   */\n      tag_136\n      jump\t// in\n    tag_219:\n        /* \"#utility.yul\":2596:2599   */\n      dup5\n        /* \"#utility.yul\":2592:2631   */\n      add\n        /* \"#utility.yul\":2585:2631   */\n      swap2\n      pop\n        /* \"#utility.yul\":2352:2637   */\n      pop\n        /* \"#utility.yul\":2260:2637   */\n      swap3\n      swap2\n      pop\n      pop\n      jump\t// out\n        /* \"#utility.yul\":2643:2720   */\n    tag_138:\n        /* \"#utility.yul\":2680:2687   */\n      0x00\n        /* \"#utility.yul\":2709:2714   */\n      dup2\n        /* \"#utility.yul\":2698:2714   */\n      swap1\n      pop\n        /* \"#utility.yul\":2643:2720   */\n      swap2\n      swap1\n      pop\n      jump\t// out\n        /* \"#utility.yul\":2726:2844   */\n    tag_139:\n        /* \"#utility.yul\":2813:2837   */\n      tag_222\n        /* \"#utility.yul\":2831:2836   */\n      dup2\n        /* \"#utility.yul\":2813:2837   */\n      tag_138\n      jump\t// in\n    tag_222:\n        /* \"#utility.yul\":2808:2811   */\n      dup3\n        /* \"#utility.yul\":2801:2838   */\n      mstore\n        /* \"#utility.yul\":2726:2844   */\n      pop\n      pop\n      jump\t// out\n        /* \"#utility.yul\":2850:3494   */\n    tag_34:\n        /* \"#utility.yul\":3047:3051   */\n      0x00\n        /* \"#utility.yul\":3085:3088   */\n      0x80\n        /* \"#utility.yul\":3074:3083   */\n      dup3\n        /* \"#utility.yul\":3070:3089   */\n      add\n        /* \"#utility.yul\":3062:3089   */\n      swap1\n      pop\n        /* \"#utility.yul\":3099:3170   */\n      tag_224\n        /* \"#utility.yul\":3167:3168   */\n      0x00\n        /* \"#utility.yul\":3156:3165   */\n      dup4\n        /* \"#utility.yul\":3152:3169   */\n      add\n        /* \"#utility.yul\":3143:3149   */\n      dup8\n        /* \"#utility.yul\":3099:3170   */\n      tag_132\n      jump\t// in\n    tag_224:\n        /* \"#utility.yul\":3217:3226   */\n      dup2\n        /* \"#utility.yul\":3211:3215   */\n      dup2\n        /* \"#utility.yul\":3207:3227   */\n      sub\n        /* \"#utility.yul\":3202:3204   */\n      0x20\n        /* \"#utility.yul\":3191:3200   */\n      dup4\n        /* \"#utility.yul\":3187:3205   */\n      add\n        /* \"#utility.yul\":3180:3228   */\n      mstore\n        /* \"#utility.yul\":3245:3323   */\n      tag_225\n        /* \"#utility.yul\":3318:3322   */\n      dup2\n        /* \"#utility.yul\":3309:3315   */\n      dup7\n        /* \"#utility.yul\":3245:3323   */\n      tag_137\n      jump\t// in\n    tag_225:\n        /* \"#utility.yul\":3237:3323   */\n      swap1\n      pop\n        /* \"#utility.yul\":3333:3405   */\n      tag_226\n        /* \"#utility.yul\":3401:3403   */\n      0x40\n        /* \"#utility.yul\":3390:3399   */\n      dup4\n        /* \"#utility.yul\":3386:3404   */\n      add\n        /* \"#utility.yul\":3377:3383   */\n      dup6\n        /* \"#utility.yul\":3333:3405   */\n      tag_139\n      jump\t// in\n    tag_226:\n        /* \"#utility.yul\":3415:3487   */\n      tag_227\n        /* \"#utility.yul\":3483:3485   */\n      0x60\n        /* \"#utility.yul\":3472:3481   */\n      dup4\n        /* \"#utility.yul\":3468:3486   */\n      add\n        /* \"#utility.yul\":3459:3465   */\n      dup5\n        /* \"#utility.yul\":3415:3487   */\n      tag_139\n      jump\t// in\n    tag_227:\n        /* \"#utility.yul\":2850:3494   */\n      swap6\n      swap5\n      pop\n      pop\n      pop\n      pop\n      pop\n      jump\t// out\n        /* \"#utility.yul\":3500:3617   */\n    tag_140:\n        /* \"#utility.yul\":3609:3610   */\n      0x00\n        /* \"#utility.yul\":3606:3607   */\n      0x00\n        /* \"#utility.yul\":3599:3611   */\n      revert\n        /* \"#utility.yul\":3623:3740   */\n    tag_141:\n        /* \"#utility.yul\":3732:3733   */\n      0x00\n        /* \"#utility.yul\":3729:3730   */\n      0x00\n        /* \"#utility.yul\":3722:3734   */\n      revert\n        /* \"#utility.yul\":3746:3926   */\n    tag_142:\n        /* \"#utility.yul\":3794:3871   */\n      0x4e487b7100000000000000000000000000000000000000000000000000000000\n        /* \"#utility.yul\":3791:3792   */\n      0x00\n        /* \"#utility.yul\":3784:3872   */\n      mstore\n        /* \"#utility.yul\":3891:3895   */\n      0x41\n        /* \"#utility.yul\":3888:3889   */\n      0x04\n        /* \"#utility.yul\":3881:3896   */\n      mstore\n        /* \"#utility.yul\":3915:3919   */\n      0x24\n        /* \"#utility.yul\":3912:3913   */\n      0x00\n        /* \"#utility.yul\":3905:3920   */\n      revert\n        /* \"#utility.yul\":3932:4213   */\n    tag_143:\n        /* \"#utility.yul\":4015:4042   */\n      tag_232\n        /* \"#utility.yul\":4037:4041   */\n      dup3\n        /* \"#utility.yul\":4015:4042   */\n      tag_136\n      jump\t// in\n    tag_232:\n        /* \"#utility.yul\":4007:4013   */\n      dup2\n        /* \"#utility.yul\":4003:4043   */\n      add\n        /* \"#utility.yul\":4145:4151   */\n      dup2\n        /* \"#utility.yul\":4133:4143   */\n      dup2\n        /* \"#utility.yul\":4130:4152   */\n      lt\n        /* \"#utility.yul\":4109:4127   */\n      0xffffffffffffffff\n        /* \"#utility.yul\":4097:4107   */\n      dup3\n        /* \"#utility.yul\":4094:4128   */\n      gt\n        /* \"#utility.yul\":4091:4153   */\n      or\n        /* \"#utility.yul\":4088:4176   */\n      iszero\n      tag_233\n      jumpi\n        /* \"#utility.yul\":4156:4174   */\n      tag_234\n      tag_142\n      jump\t// in\n    tag_234:\n        /* \"#utility.yul\":4088:4176   */\n    tag_233:\n        /* \"#utility.yul\":4196:4206   */\n      dup1\n        /* \"#utility.yul\":4192:4194   */\n      0x40\n        /* \"#utility.yul\":4185:4207   */\n      mstore\n        /* \"#utility.yul\":3975:4213   */\n      pop\n        /* \"#utility.yul\":3932:4213   */\n      pop\n      pop\n      jump\t// out\n        /* \"#utility.yul\":4219:4348   */\n    tag_144:\n        /* \"#utility.yul\":4253:4259   */\n      0x00\n        /* \"#utility.yul\":4280:4300   */\n      tag_236\n      tag_123\n      jump\t// in\n    tag_236:\n        /* \"#utility.yul\":4270:4300   */\n      swap1\n      pop\n        /* \"#utility.yul\":4309:4342   */\n      tag_237\n        /* \"#utility.yul\":4337:4341   */\n      dup3\n        /* \"#utility.yul\":4329:4335   */\n      dup3\n        /* \"#utility.yul\":4309:4342   */\n      tag_143\n      jump\t// in\n    tag_237:\n        /* \"#utility.yul\":4219:4348   */\n      swap2\n      swap1\n      pop\n      jump\t// out\n        /* \"#utility.yul\":4354:4662   */\n    tag_145:\n        /* \"#utility.yul\":4416:4420   */\n      0x00\n        /* \"#utility.yul\":4506:4524   */\n      0xffffffffffffffff\n        /* \"#utility.yul\":4498:4504   */\n      dup3\n        /* \"#utility.yul\":4495:4525   */\n      gt\n        /* \"#utility.yul\":4492:4548   */\n      iszero\n      tag_239\n      jumpi\n        /* \"#utility.yul\":4528:4546   */\n      tag_240\n      tag_142\n      jump\t// in\n    tag_240:\n        /* \"#utility.yul\":4492:4548   */\n    tag_239:\n        /* \"#utility.yul\":4566:4595   */\n      tag_241\n        /* \"#utility.yul\":4588:4594   */\n      dup3\n        /* \"#utility.yul\":4566:4595   */\n      tag_136\n      jump\t// in\n    tag_241:\n        /* \"#utility.yul\":4558:4595   */\n      swap1\n      pop\n        /* \"#utility.yul\":4650:4654   */\n      0x20\n        /* \"#utility.yul\":4644:4648   */\n      dup2\n        /* \"#utility.yul\":4640:4655   */\n      add\n        /* \"#utility.yul\":4632:4655   */\n      swap1\n      pop\n        /* \"#utility.yul\":4354:4662   */\n      swap2\n      swap1\n      pop\n      jump\t// out\n        /* \"#utility.yul\":4668:4816   */\n    tag_146:\n        /* \"#utility.yul\":4766:4772   */\n      dup3\n        /* \"#utility.yul\":4761:4764   */\n      dup2\n        /* \"#utility.yul\":4756:4759   */\n      dup4\n        /* \"#utility.yul\":4743:4773   */\n      calldatacopy\n        /* \"#utility.yul\":4807:4808   */\n      0x00\n        /* \"#utility.yul\":4798:4804   */\n      dup4\n        /* \"#utility.yul\":4793:4796   */\n      dup4\n        /* \"#utility.yul\":4789:4805   */\n      add\n        /* \"#utility.yul\":4782:4809   */\n      mstore\n        /* \"#utility.yul\":4668:4816   */\n      pop\n      pop\n      pop\n      jump\t// out\n        /* \"#utility.yul\":4822:5247   */\n    tag_147:\n        /* \"#utility.yul\":4900:4905   */\n      0x00\n        /* \"#utility.yul\":4925:4991   */\n      tag_244\n        /* \"#utility.yul\":4941:4990   */\n      tag_245\n        /* \"#utility.yul\":4983:4989   */\n      dup5\n        /* \"#utility.yul\":4941:4990   */\n      tag_145\n      jump\t// in\n    tag_245:\n        /* \"#utility.yul\":4925:4991   */\n      tag_144\n      jump\t// in\n    tag_244:\n        /* \"#utility.yul\":4916:4991   */\n      swap1\n      pop\n        /* \"#utility.yul\":5014:5020   */\n      dup3\n        /* \"#utility.yul\":5007:5012   */\n      dup2\n        /* \"#utility.yul\":5000:5021   */\n      mstore\n        /* \"#utility.yul\":5052:5056   */\n      0x20\n        /* \"#utility.yul\":5045:5050   */\n      dup2\n        /* \"#utility.yul\":5041:5057   */\n      add\n        /* \"#utility.yul\":5090:5093   */\n      dup5\n        /* \"#utility.yul\":5081:5087   */\n      dup5\n        /* \"#utility.yul\":5076:5079   */\n      dup5\n        /* \"#utility.yul\":5072:5088   */\n      add\n        /* \"#utility.yul\":5069:5094   */\n      gt\n        /* \"#utility.yul\":5066:5178   */\n      iszero\n      tag_246\n      jumpi\n        /* \"#utility.yul\":5097:5176   */\n      tag_247\n      tag_141\n      jump\t// in\n    tag_247:\n        /* \"#utility.yul\":5066:5178   */\n    tag_246:\n        /* \"#utility.yul\":5187:5241   */\n      tag_248\n        /* \"#utility.yul\":5234:5240   */\n      dup5\n        /* \"#utility.yul\":5229:5232   */\n      dup3\n        /* \"#utility.yul\":5224:5227   */\n      dup6\n        /* \"#utility.yul\":5187:5241   */\n      tag_146\n      jump\t// in\n    tag_248:\n        /* \"#utility.yul\":4906:5247   */\n      pop\n        /* \"#utility.yul\":4822:5247   */\n      swap4\n      swap3\n      pop\n      pop\n      pop\n      jump\t// out\n        /* \"#utility.yul\":5267:5607   */\n    tag_148:\n        /* \"#utility.yul\":5323:5328   */\n      0x00\n        /* \"#utility.yul\":5372:5375   */\n      dup3\n        /* \"#utility.yul\":5365:5369   */\n      0x1f\n        /* \"#utility.yul\":5357:5363   */\n      dup4\n        /* \"#utility.yul\":5353:5370   */\n      add\n        /* \"#utility.yul\":5349:5376   */\n      slt\n        /* \"#utility.yul\":5339:5461   */\n      tag_250\n      jumpi\n        /* \"#utility.yul\":5380:5459   */\n      tag_251\n      tag_140\n      jump\t// in\n    tag_251:\n        /* \"#utility.yul\":5339:5461   */\n    tag_250:\n        /* \"#utility.yul\":5497:5503   */\n      dup2\n        /* \"#utility.yul\":5484:5504   */\n      calldataload\n        /* \"#utility.yul\":5522:5601   */\n      tag_252\n        /* \"#utility.yul\":5597:5600   */\n      dup5\n        /* \"#utility.yul\":5589:5595   */\n      dup3\n        /* \"#utility.yul\":5582:5586   */\n      0x20\n        /* \"#utility.yul\":5574:5580   */\n      dup7\n        /* \"#utility.yul\":5570:5587   */\n      add\n        /* \"#utility.yul\":5522:5601   */\n      tag_147\n      jump\t// in\n    tag_252:\n        /* \"#utility.yul\":5513:5601   */\n      swap2\n      pop\n        /* \"#utility.yul\":5329:5607   */\n      pop\n        /* \"#utility.yul\":5267:5607   */\n      swap3\n      swap2\n      pop\n      pop\n      jump\t// out\n        /* \"#utility.yul\":5613:5735   */\n    tag_149:\n        /* \"#utility.yul\":5686:5710   */\n      tag_254\n        /* \"#utility.yul\":5704:5709   */\n      dup2\n        /* \"#utility.yul\":5686:5710   */\n      tag_138\n      jump\t// in\n    tag_254:\n        /* \"#utility.yul\":5679:5684   */\n      dup2\n        /* \"#utility.yul\":5676:5711   */\n      eq\n        /* \"#utility.yul\":5666:5729   */\n      tag_255\n      jumpi\n        /* \"#utility.yul\":5725:5726   */\n      0x00\n        /* \"#utility.yul\":5722:5723   */\n      0x00\n        /* \"#utility.yul\":5715:5727   */\n      revert\n        /* \"#utility.yul\":5666:5729   */\n    tag_255:\n        /* \"#utility.yul\":5613:5735   */\n      pop\n      jump\t// out\n        /* \"#utility.yul\":5741:5880   */\n    tag_150:\n        /* \"#utility.yul\":5787:5792   */\n      0x00\n        /* \"#utility.yul\":5825:5831   */\n      dup2\n        /* \"#utility.yul\":5812:5832   */\n      calldataload\n        /* \"#utility.yul\":5803:5832   */\n      swap1\n      pop\n        /* \"#utility.yul\":5841:5874   */\n      tag_257\n        /* \"#utility.yul\":5868:5873   */\n      dup2\n        /* \"#utility.yul\":5841:5874   */\n      tag_149\n      jump\t// in\n    tag_257:\n        /* \"#utility.yul\":5741:5880   */\n      swap3\n      swap2\n      pop\n      pop\n      jump\t// out\n        /* \"#utility.yul\":5886:6685   */\n    tag_45:\n        /* \"#utility.yul\":5973:5979   */\n      0x00\n        /* \"#utility.yul\":5981:5987   */\n      0x00\n        /* \"#utility.yul\":5989:5995   */\n      0x00\n        /* \"#utility.yul\":6038:6040   */\n      0x60\n        /* \"#utility.yul\":6026:6035   */\n      dup5\n        /* \"#utility.yul\":6017:6024   */\n      dup7\n        /* \"#utility.yul\":6013:6036   */\n      sub\n        /* \"#utility.yul\":6009:6041   */\n      slt\n        /* \"#utility.yul\":6006:6125   */\n      iszero\n      tag_259\n      jumpi\n        /* \"#utility.yul\":6044:6123   */\n      tag_260\n      tag_124\n      jump\t// in\n    tag_260:\n        /* \"#utility.yul\":6006:6125   */\n    tag_259:\n        /* \"#utility.yul\":6192:6193   */\n      0x00\n        /* \"#utility.yul\":6181:6190   */\n      dup5\n        /* \"#utility.yul\":6177:6194   */\n      add\n        /* \"#utility.yul\":6164:6195   */\n      calldataload\n        /* \"#utility.yul\":6222:6240   */\n      0xffffffffffffffff\n        /* \"#utility.yul\":6214:6220   */\n      dup2\n        /* \"#utility.yul\":6211:6241   */\n      gt\n        /* \"#utility.yul\":6208:6325   */\n      iszero\n      tag_261\n      jumpi\n        /* \"#utility.yul\":6244:6323   */\n      tag_262\n      tag_125\n      jump\t// in\n    tag_262:\n        /* \"#utility.yul\":6208:6325   */\n    tag_261:\n        /* \"#utility.yul\":6349:6412   */\n      tag_263\n        /* \"#utility.yul\":6404:6411   */\n      dup7\n        /* \"#utility.yul\":6395:6401   */\n      dup3\n        /* \"#utility.yul\":6384:6393   */\n      dup8\n        /* \"#utility.yul\":6380:6402   */\n      add\n        /* \"#utility.yul\":6349:6412   */\n      tag_148\n      jump\t// in\n    tag_263:\n        /* \"#utility.yul\":6339:6412   */\n      swap4\n      pop\n        /* \"#utility.yul\":6135:6422   */\n      pop\n        /* \"#utility.yul\":6461:6463   */\n      0x20\n        /* \"#utility.yul\":6487:6540   */\n      tag_264\n        /* \"#utility.yul\":6532:6539   */\n      dup7\n        /* \"#utility.yul\":6523:6529   */\n      dup3\n        /* \"#utility.yul\":6512:6521   */\n      dup8\n        /* \"#utility.yul\":6508:6530   */\n      add\n        /* \"#utility.yul\":6487:6540   */\n      tag_150\n      jump\t// in\n    tag_264:\n        /* \"#utility.yul\":6477:6540   */\n      swap3\n      pop\n        /* \"#utility.yul\":6432:6550   */\n      pop\n        /* \"#utility.yul\":6589:6591   */\n      0x40\n        /* \"#utility.yul\":6615:6668   */\n      tag_265\n        /* \"#utility.yul\":6660:6667   */\n      dup7\n        /* \"#utility.yul\":6651:6657   */\n      dup3\n        /* \"#utility.yul\":6640:6649   */\n      dup8\n        /* \"#utility.yul\":6636:6658   */\n      add\n        /* \"#utility.yul\":6615:6668   */\n      tag_150\n      jump\t// in\n    tag_265:\n        /* \"#utility.yul\":6605:6668   */\n      swap2\n      pop\n        /* \"#utility.yul\":6560:6678   */\n      pop\n        /* \"#utility.yul\":5886:6685   */\n      swap3\n      pop\n      swap3\n      pop\n      swap3\n      jump\t// out\n        /* \"#utility.yul\":6691:7023   */\n    tag_51:\n        /* \"#utility.yul\":6812:6816   */\n      0x00\n        /* \"#utility.yul\":6850:6852   */\n      0x40\n        /* \"#utility.yul\":6839:6848   */\n      dup3\n        /* \"#utility.yul\":6835:6853   */\n      add\n        /* \"#utility.yul\":6827:6853   */\n      swap1\n      pop\n        /* \"#utility.yul\":6863:6934   */\n      tag_267\n        /* \"#utility.yul\":6931:6932   */\n      0x00\n        /* \"#utility.yul\":6920:6929   */\n      dup4\n        /* \"#utility.yul\":6916:6933   */\n      add\n        /* \"#utility.yul\":6907:6913   */\n      dup6\n        /* \"#utility.yul\":6863:6934   */\n      tag_132\n      jump\t// in\n    tag_267:\n        /* \"#utility.yul\":6944:7016   */\n      tag_268\n        /* \"#utility.yul\":7012:7014   */\n      0x20\n        /* \"#utility.yul\":7001:7010   */\n      dup4\n        /* \"#utility.yul\":6997:7015   */\n      add\n        /* \"#utility.yul\":6988:6994   */\n      dup5\n        /* \"#utility.yul\":6944:7016   */\n      tag_139\n      jump\t// in\n    tag_268:\n        /* \"#utility.yul\":6691:7023   */\n      swap4\n      swap3\n      pop\n      pop\n      pop\n      jump\t// out\n        /* \"#utility.yul\":7029:7251   */\n    tag_61:\n        /* \"#utility.yul\":7122:7126   */\n      0x00\n        /* \"#utility.yul\":7160:7162   */\n      0x20\n        /* \"#utility.yul\":7149:7158   */\n      dup3\n        /* \"#utility.yul\":7145:7163   */\n      add\n        /* \"#utility.yul\":7137:7163   */\n      swap1\n      pop\n        /* \"#utility.yul\":7173:7244   */\n      tag_270\n        /* \"#utility.yul\":7241:7242   */\n      0x00\n        /* \"#utility.yul\":7230:7239   */\n      dup4\n        /* \"#utility.yul\":7226:7243   */\n      add\n        /* \"#utility.yul\":7217:7223   */\n      dup5\n        /* \"#utility.yul\":7173:7244   */\n      tag_139\n      jump\t// in\n    tag_270:\n        /* \"#utility.yul\":7029:7251   */\n      swap3\n      swap2\n      pop\n      pop\n      jump\t// out\n        /* \"#utility.yul\":7257:7428   */\n    tag_151:\n        /* \"#utility.yul\":7397:7420   */\n      0x4e6f206861792073756261737461206163746976610000000000000000000000\n        /* \"#utility.yul\":7393:7394   */\n      0x00\n        /* \"#utility.yul\":7385:7391   */\n      dup3\n        /* \"#utility.yul\":7381:7395   */\n      add\n        /* \"#utility.yul\":7374:7421   */\n      mstore\n        /* \"#utility.yul\":7257:7428   */\n      pop\n      jump\t// out\n        /* \"#utility.yul\":7434:7800   */\n    tag_152:\n        /* \"#utility.yul\":7576:7579   */\n      0x00\n        /* \"#utility.yul\":7597:7664   */\n      tag_273\n        /* \"#utility.yul\":7661:7663   */\n      0x15\n        /* \"#utility.yul\":7656:7659   */\n      dup4\n        /* \"#utility.yul\":7597:7664   */\n      tag_134\n      jump\t// in\n    tag_273:\n        /* \"#utility.yul\":7590:7664   */\n      swap2\n      pop\n        /* \"#utility.yul\":7673:7766   */\n      tag_274\n        /* \"#utility.yul\":7762:7765   */\n      dup3\n        /* \"#utility.yul\":7673:7766   */\n      tag_151\n      jump\t// in\n    tag_274:\n        /* \"#utility.yul\":7791:7793   */\n      0x20\n        /* \"#utility.yul\":7786:7789   */\n      dup3\n        /* \"#utility.yul\":7782:7794   */\n      add\n        /* \"#utility.yul\":7775:7794   */\n      swap1\n      pop\n        /* \"#utility.yul\":7434:7800   */\n      swap2\n      swap1\n      pop\n      jump\t// out\n        /* \"#utility.yul\":7806:8225   */\n    tag_65:\n        /* \"#utility.yul\":7972:7976   */\n      0x00\n        /* \"#utility.yul\":8010:8012   */\n      0x20\n        /* \"#utility.yul\":7999:8008   */\n      dup3\n        /* \"#utility.yul\":7995:8013   */\n      add\n        /* \"#utility.yul\":7987:8013   */\n      swap1\n      pop\n        /* \"#utility.yul\":8059:8068   */\n      dup2\n        /* \"#utility.yul\":8053:8057   */\n      dup2\n        /* \"#utility.yul\":8049:8069   */\n      sub\n        /* \"#utility.yul\":8045:8046   */\n      0x00\n        /* \"#utility.yul\":8034:8043   */\n      dup4\n        /* \"#utility.yul\":8030:8047   */\n      add\n        /* \"#utility.yul\":8023:8070   */\n      mstore\n        /* \"#utility.yul\":8087:8218   */\n      tag_276\n        /* \"#utility.yul\":8213:8217   */\n      dup2\n        /* \"#utility.yul\":8087:8218   */\n      tag_152\n      jump\t// in\n    tag_276:\n        /* \"#utility.yul\":8079:8218   */\n      swap1\n      pop\n        /* \"#utility.yul\":7806:8225   */\n      swap2\n      swap1\n      pop\n      jump\t// out\n        /* \"#utility.yul\":8231:8413   */\n    tag_153:\n        /* \"#utility.yul\":8371:8405   */\n      0x4e6f207469656e6573207065726d69736f20706172612066696e616c697a6172\n        /* \"#utility.yul\":8367:8368   */\n      0x00\n        /* \"#utility.yul\":8359:8365   */\n      dup3\n        /* \"#utility.yul\":8355:8369   */\n      add\n        /* \"#utility.yul\":8348:8406   */\n      mstore\n        /* \"#utility.yul\":8231:8413   */\n      pop\n      jump\t// out\n        /* \"#utility.yul\":8419:8785   */\n    tag_154:\n        /* \"#utility.yul\":8561:8564   */\n      0x00\n        /* \"#utility.yul\":8582:8649   */\n      tag_279\n        /* \"#utility.yul\":8646:8648   */\n      0x20\n        /* \"#utility.yul\":8641:8644   */\n      dup4\n        /* \"#utility.yul\":8582:8649   */\n      tag_134\n      jump\t// in\n    tag_279:\n        /* \"#utility.yul\":8575:8649   */\n      swap2\n      pop\n        /* \"#utility.yul\":8658:8751   */\n      tag_280\n        /* \"#utility.yul\":8747:8750   */\n      dup3\n        /* \"#utility.yul\":8658:8751   */\n      tag_153\n      jump\t// in\n    tag_280:\n        /* \"#utility.yul\":8776:8778   */\n      0x20\n        /* \"#utility.yul\":8771:8774   */\n      dup3\n        /* \"#utility.yul\":8767:8779   */\n      add\n        /* \"#utility.yul\":8760:8779   */\n      swap1\n      pop\n        /* \"#utility.yul\":8419:8785   */\n      swap2\n      swap1\n      pop\n      jump\t// out\n        /* \"#utility.yul\":8791:9210   */\n    tag_69:\n        /* \"#utility.yul\":8957:8961   */\n      0x00\n        /* \"#utility.yul\":8995:8997   */\n      0x20\n        /* \"#utility.yul\":8984:8993   */\n      dup3\n        /* \"#utility.yul\":8980:8998   */\n      add\n        /* \"#utility.yul\":8972:8998   */\n      swap1\n      pop\n        /* \"#utility.yul\":9044:9053   */\n      dup2\n        /* \"#utility.yul\":9038:9042   */\n      dup2\n        /* \"#utility.yul\":9034:9054   */\n      sub\n        /* \"#utility.yul\":9030:9031   */\n      0x00\n        /* \"#utility.yul\":9019:9028   */\n      dup4\n        /* \"#utility.yul\":9015:9032   */\n      add\n        /* \"#utility.yul\":9008:9055   */\n      mstore\n        /* \"#utility.yul\":9072:9203   */\n      tag_282\n        /* \"#utility.yul\":9198:9202   */\n      dup2\n        /* \"#utility.yul\":9072:9203   */\n      tag_154\n      jump\t// in\n    tag_282:\n        /* \"#utility.yul\":9064:9203   */\n      swap1\n      pop\n        /* \"#utility.yul\":8791:9210   */\n      swap2\n      swap1\n      pop\n      jump\t// out\n        /* \"#utility.yul\":9216:9391   */\n    tag_155:\n        /* \"#utility.yul\":9356:9383   */\n      0x4c612073756261737461206e6f20657374612061637469766100000000000000\n        /* \"#utility.yul\":9352:9353   */\n      0x00\n        /* \"#utility.yul\":9344:9350   */\n      dup3\n        /* \"#utility.yul\":9340:9354   */\n      add\n        /* \"#utility.yul\":9333:9384   */\n      mstore\n        /* \"#utility.yul\":9216:9391   */\n      pop\n      jump\t// out\n        /* \"#utility.yul\":9397:9763   */\n    tag_156:\n        /* \"#utility.yul\":9539:9542   */\n      0x00\n        /* \"#utility.yul\":9560:9627   */\n      tag_285\n        /* \"#utility.yul\":9624:9626   */\n      0x19\n        /* \"#utility.yul\":9619:9622   */\n      dup4\n        /* \"#utility.yul\":9560:9627   */\n      tag_134\n      jump\t// in\n    tag_285:\n        /* \"#utility.yul\":9553:9627   */\n      swap2\n      pop\n        /* \"#utility.yul\":9636:9729   */\n      tag_286\n        /* \"#utility.yul\":9725:9728   */\n      dup3\n        /* \"#utility.yul\":9636:9729   */\n      tag_155\n      jump\t// in\n    tag_286:\n        /* \"#utility.yul\":9754:9756   */\n      0x20\n        /* \"#utility.yul\":9749:9752   */\n      dup3\n        /* \"#utility.yul\":9745:9757   */\n      add\n        /* \"#utility.yul\":9738:9757   */\n      swap1\n      pop\n        /* \"#utility.yul\":9397:9763   */\n      swap2\n      swap1\n      pop\n      jump\t// out\n        /* \"#utility.yul\":9769:10188   */\n    tag_77:\n        /* \"#utility.yul\":9935:9939   */\n      0x00\n        /* \"#utility.yul\":9973:9975   */\n      0x20\n        /* \"#utility.yul\":9962:9971   */\n      dup3\n        /* \"#utility.yul\":9958:9976   */\n      add\n        /* \"#utility.yul\":9950:9976   */\n      swap1\n      pop\n        /* \"#utility.yul\":10022:10031   */\n      dup2\n        /* \"#utility.yul\":10016:10020   */\n      dup2\n        /* \"#utility.yul\":10012:10032   */\n      sub\n        /* \"#utility.yul\":10008:10009   */\n      0x00\n        /* \"#utility.yul\":9997:10006   */\n      dup4\n        /* \"#utility.yul\":9993:10010   */\n      add\n        /* \"#utility.yul\":9986:10033   */\n      mstore\n        /* \"#utility.yul\":10050:10181   */\n      tag_288\n        /* \"#utility.yul\":10176:10180   */\n      dup2\n        /* \"#utility.yul\":10050:10181   */\n      tag_156\n      jump\t// in\n    tag_288:\n        /* \"#utility.yul\":10042:10181   */\n      swap1\n      pop\n        /* \"#utility.yul\":9769:10188   */\n      swap2\n      swap1\n      pop\n      jump\t// out\n        /* \"#utility.yul\":10194:10366   */\n    tag_157:\n        /* \"#utility.yul\":10334:10358   */\n      0x4c61207375626173746120686120657870697261646f00000000000000000000\n        /* \"#utility.yul\":10330:10331   */\n      0x00\n        /* \"#utility.yul\":10322:10328   */\n      dup3\n        /* \"#utility.yul\":10318:10332   */\n      add\n        /* \"#utility.yul\":10311:10359   */\n      mstore\n        /* \"#utility.yul\":10194:10366   */\n      pop\n      jump\t// out\n        /* \"#utility.yul\":10372:10738   */\n    tag_158:\n        /* \"#utility.yul\":10514:10517   */\n      0x00\n        /* \"#utility.yul\":10535:10602   */\n      tag_291\n        /* \"#utility.yul\":10599:10601   */\n      0x16\n        /* \"#utility.yul\":10594:10597   */\n      dup4\n        /* \"#utility.yul\":10535:10602   */\n      tag_134\n      jump\t// in\n    tag_291:\n        /* \"#utility.yul\":10528:10602   */\n      swap2\n      pop\n        /* \"#utility.yul\":10611:10704   */\n      tag_292\n        /* \"#utility.yul\":10700:10703   */\n      dup3\n        /* \"#utility.yul\":10611:10704   */\n      tag_157\n      jump\t// in\n    tag_292:\n        /* \"#utility.yul\":10729:10731   */\n      0x20\n        /* \"#utility.yul\":10724:10727   */\n      dup3\n        /* \"#utility.yul\":10720:10732   */\n      add\n        /* \"#utility.yul\":10713:10732   */\n      swap1\n      pop\n        /* \"#utility.yul\":10372:10738   */\n      swap2\n      swap1\n      pop\n      jump\t// out\n        /* \"#utility.yul\":10744:11163   */\n    tag_80:\n        /* \"#utility.yul\":10910:10914   */\n      0x00\n        /* \"#utility.yul\":10948:10950   */\n      0x20\n        /* \"#utility.yul\":10937:10946   */\n      dup3\n        /* \"#utility.yul\":10933:10951   */\n      add\n        /* \"#utility.yul\":10925:10951   */\n      swap1\n      pop\n        /* \"#utility.yul\":10997:11006   */\n      dup2\n        /* \"#utility.yul\":10991:10995   */\n      dup2\n        /* \"#utility.yul\":10987:11007   */\n      sub\n        /* \"#utility.yul\":10983:10984   */\n      0x00\n        /* \"#utility.yul\":10972:10981   */\n      dup4\n        /* \"#utility.yul\":10968:10985   */\n      add\n        /* \"#utility.yul\":10961:11008   */\n      mstore\n        /* \"#utility.yul\":11025:11156   */\n      tag_294\n        /* \"#utility.yul\":11151:11155   */\n      dup2\n        /* \"#utility.yul\":11025:11156   */\n      tag_158\n      jump\t// in\n    tag_294:\n        /* \"#utility.yul\":11017:11156   */\n      swap1\n      pop\n        /* \"#utility.yul\":10744:11163   */\n      swap2\n      swap1\n      pop\n      jump\t// out\n        /* \"#utility.yul\":11169:11389   */\n    tag_159:\n        /* \"#utility.yul\":11309:11343   */\n      0x4e6f206573746173207265676973747261646f20636f6d6f206f666572656e74\n        /* \"#utility.yul\":11305:11306   */\n      0x00\n        /* \"#utility.yul\":11297:11303   */\n      dup3\n        /* \"#utility.yul\":11293:11307   */\n      add\n        /* \"#utility.yul\":11286:11344   */\n      mstore\n        /* \"#utility.yul\":11378:11381   */\n      0x6500000000000000000000000000000000000000000000000000000000000000\n        /* \"#utility.yul\":11373:11375   */\n      0x20\n        /* \"#utility.yul\":11365:11371   */\n      dup3\n        /* \"#utility.yul\":11361:11376   */\n      add\n        /* \"#utility.yul\":11354:11382   */\n      mstore\n        /* \"#utility.yul\":11169:11389   */\n      pop\n      jump\t// out\n        /* \"#utility.yul\":11395:11761   */\n    tag_160:\n        /* \"#utility.yul\":11537:11540   */\n      0x00\n        /* \"#utility.yul\":11558:11625   */\n      tag_297\n        /* \"#utility.yul\":11622:11624   */\n      0x21\n        /* \"#utility.yul\":11617:11620   */\n      dup4\n        /* \"#utility.yul\":11558:11625   */\n      tag_134\n      jump\t// in\n    tag_297:\n        /* \"#utility.yul\":11551:11625   */\n      swap2\n      pop\n        /* \"#utility.yul\":11634:11727   */\n      tag_298\n        /* \"#utility.yul\":11723:11726   */\n      dup3\n        /* \"#utility.yul\":11634:11727   */\n      tag_159\n      jump\t// in\n    tag_298:\n        /* \"#utility.yul\":11752:11754   */\n      0x40\n        /* \"#utility.yul\":11747:11750   */\n      dup3\n        /* \"#utility.yul\":11743:11755   */\n      add\n        /* \"#utility.yul\":11736:11755   */\n      swap1\n      pop\n        /* \"#utility.yul\":11395:11761   */\n      swap2\n      swap1\n      pop\n      jump\t// out\n        /* \"#utility.yul\":11767:12186   */\n    tag_84:\n        /* \"#utility.yul\":11933:11937   */\n      0x00\n        /* \"#utility.yul\":11971:11973   */\n      0x20\n        /* \"#utility.yul\":11960:11969   */\n      dup3\n        /* \"#utility.yul\":11956:11974   */\n      add\n        /* \"#utility.yul\":11948:11974   */\n      swap1\n      pop\n        /* \"#utility.yul\":12020:12029   */\n      dup2\n        /* \"#utility.yul\":12014:12018   */\n      dup2\n        /* \"#utility.yul\":12010:12030   */\n      sub\n        /* \"#utility.yul\":12006:12007   */\n      0x00\n        /* \"#utility.yul\":11995:12004   */\n      dup4\n        /* \"#utility.yul\":11991:12008   */\n      add\n        /* \"#utility.yul\":11984:12031   */\n      mstore\n        /* \"#utility.yul\":12048:12179   */\n      tag_300\n        /* \"#utility.yul\":12174:12178   */\n      dup2\n        /* \"#utility.yul\":12048:12179   */\n      tag_160\n      jump\t// in\n    tag_300:\n        /* \"#utility.yul\":12040:12179   */\n      swap1\n      pop\n        /* \"#utility.yul\":11767:12186   */\n      swap2\n      swap1\n      pop\n      jump\t// out\n        /* \"#utility.yul\":12192:12415   */\n    tag_161:\n        /* \"#utility.yul\":12332:12366   */\n      0x4465626573206f66657274617220616c206d656e6f7320656c206d6f6e746f20\n        /* \"#utility.yul\":12328:12329   */\n      0x00\n        /* \"#utility.yul\":12320:12326   */\n      dup3\n        /* \"#utility.yul\":12316:12330   */\n      add\n        /* \"#utility.yul\":12309:12367   */\n      mstore\n        /* \"#utility.yul\":12401:12407   */\n      0x6261736500000000000000000000000000000000000000000000000000000000\n        /* \"#utility.yul\":12396:12398   */\n      0x20\n        /* \"#utility.yul\":12388:12394   */\n      dup3\n        /* \"#utility.yul\":12384:12399   */\n      add\n        /* \"#utility.yul\":12377:12408   */\n      mstore\n        /* \"#utility.yul\":12192:12415   */\n      pop\n      jump\t// out\n        /* \"#utility.yul\":12421:12787   */\n    tag_162:\n        /* \"#utility.yul\":12563:12566   */\n      0x00\n        /* \"#utility.yul\":12584:12651   */\n      tag_303\n        /* \"#utility.yul\":12648:12650   */\n      0x24\n        /* \"#utility.yul\":12643:12646   */\n      dup4\n        /* \"#utility.yul\":12584:12651   */\n      tag_134\n      jump\t// in\n    tag_303:\n        /* \"#utility.yul\":12577:12651   */\n      swap2\n      pop\n        /* \"#utility.yul\":12660:12753   */\n      tag_304\n        /* \"#utility.yul\":12749:12752   */\n      dup3\n        /* \"#utility.yul\":12660:12753   */\n      tag_161\n      jump\t// in\n    tag_304:\n        /* \"#utility.yul\":12778:12780   */\n      0x40\n        /* \"#utility.yul\":12773:12776   */\n      dup3\n        /* \"#utility.yul\":12769:12781   */\n      add\n        /* \"#utility.yul\":12762:12781   */\n      swap1\n      pop\n        /* \"#utility.yul\":12421:12787   */\n      swap2\n      swap1\n      pop\n      jump\t// out\n        /* \"#utility.yul\":12793:13212   */\n    tag_88:\n        /* \"#utility.yul\":12959:12963   */\n      0x00\n        /* \"#utility.yul\":12997:12999   */\n      0x20\n        /* \"#utility.yul\":12986:12995   */\n      dup3\n        /* \"#utility.yul\":12982:13000   */\n      add\n        /* \"#utility.yul\":12974:13000   */\n      swap1\n      pop\n        /* \"#utility.yul\":13046:13055   */\n      dup2\n        /* \"#utility.yul\":13040:13044   */\n      dup2\n        /* \"#utility.yul\":13036:13056   */\n      sub\n        /* \"#utility.yul\":13032:13033   */\n      0x00\n        /* \"#utility.yul\":13021:13030   */\n      dup4\n        /* \"#utility.yul\":13017:13034   */\n      add\n        /* \"#utility.yul\":13010:13057   */\n      mstore\n        /* \"#utility.yul\":13074:13205   */\n      tag_306\n        /* \"#utility.yul\":13200:13204   */\n      dup2\n        /* \"#utility.yul\":13074:13205   */\n      tag_162\n      jump\t// in\n    tag_306:\n        /* \"#utility.yul\":13066:13205   */\n      swap1\n      pop\n        /* \"#utility.yul\":12793:13212   */\n      swap2\n      swap1\n      pop\n      jump\t// out\n        /* \"#utility.yul\":13218:13400   */\n    tag_163:\n        /* \"#utility.yul\":13358:13392   */\n      0x5475206f666572746120646562652073757065726172206c612061637475616c\n        /* \"#utility.yul\":13354:13355   */\n      0x00\n        /* \"#utility.yul\":13346:13352   */\n      dup3\n        /* \"#utility.yul\":13342:13356   */\n      add\n        /* \"#utility.yul\":13335:13393   */\n      mstore\n        /* \"#utility.yul\":13218:13400   */\n      pop\n      jump\t// out\n        /* \"#utility.yul\":13406:13772   */\n    tag_164:\n        /* \"#utility.yul\":13548:13551   */\n      0x00\n        /* \"#utility.yul\":13569:13636   */\n      tag_309\n        /* \"#utility.yul\":13633:13635   */\n      0x20\n        /* \"#utility.yul\":13628:13631   */\n      dup4\n        /* \"#utility.yul\":13569:13636   */\n      tag_134\n      jump\t// in\n    tag_309:\n        /* \"#utility.yul\":13562:13636   */\n      swap2\n      pop\n        /* \"#utility.yul\":13645:13738   */\n      tag_310\n        /* \"#utility.yul\":13734:13737   */\n      dup3\n        /* \"#utility.yul\":13645:13738   */\n      tag_163\n      jump\t// in\n    tag_310:\n        /* \"#utility.yul\":13763:13765   */\n      0x20\n        /* \"#utility.yul\":13758:13761   */\n      dup3\n        /* \"#utility.yul\":13754:13766   */\n      add\n        /* \"#utility.yul\":13747:13766   */\n      swap1\n      pop\n        /* \"#utility.yul\":13406:13772   */\n      swap2\n      swap1\n      pop\n      jump\t// out\n        /* \"#utility.yul\":13778:14197   */\n    tag_91:\n        /* \"#utility.yul\":13944:13948   */\n      0x00\n        /* \"#utility.yul\":13982:13984   */\n      0x20\n        /* \"#utility.yul\":13971:13980   */\n      dup3\n        /* \"#utility.yul\":13967:13985   */\n      add\n        /* \"#utility.yul\":13959:13985   */\n      swap1\n      pop\n        /* \"#utility.yul\":14031:14040   */\n      dup2\n        /* \"#utility.yul\":14025:14029   */\n      dup2\n        /* \"#utility.yul\":14021:14041   */\n      sub\n        /* \"#utility.yul\":14017:14018   */\n      0x00\n        /* \"#utility.yul\":14006:14015   */\n      dup4\n        /* \"#utility.yul\":14002:14019   */\n      add\n        /* \"#utility.yul\":13995:14042   */\n      mstore\n        /* \"#utility.yul\":14059:14190   */\n      tag_312\n        /* \"#utility.yul\":14185:14189   */\n      dup2\n        /* \"#utility.yul\":14059:14190   */\n      tag_164\n      jump\t// in\n    tag_312:\n        /* \"#utility.yul\":14051:14190   */\n      swap1\n      pop\n        /* \"#utility.yul\":13778:14197   */\n      swap2\n      swap1\n      pop\n      jump\t// out\n        /* \"#utility.yul\":14203:14383   */\n    tag_165:\n        /* \"#utility.yul\":14251:14328   */\n      0x4e487b7100000000000000000000000000000000000000000000000000000000\n        /* \"#utility.yul\":14248:14249   */\n      0x00\n        /* \"#utility.yul\":14241:14329   */\n      mstore\n        /* \"#utility.yul\":14348:14352   */\n      0x22\n        /* \"#utility.yul\":14345:14346   */\n      0x04\n        /* \"#utility.yul\":14338:14353   */\n      mstore\n        /* \"#utility.yul\":14372:14376   */\n      0x24\n        /* \"#utility.yul\":14369:14370   */\n      0x00\n        /* \"#utility.yul\":14362:14377   */\n      revert\n        /* \"#utility.yul\":14389:14709   */\n    tag_97:\n        /* \"#utility.yul\":14433:14439   */\n      0x00\n        /* \"#utility.yul\":14470:14471   */\n      0x02\n        /* \"#utility.yul\":14464:14468   */\n      dup3\n        /* \"#utility.yul\":14460:14472   */\n      div\n        /* \"#utility.yul\":14450:14472   */\n      swap1\n      pop\n        /* \"#utility.yul\":14517:14518   */\n      0x01\n        /* \"#utility.yul\":14511:14515   */\n      dup3\n        /* \"#utility.yul\":14507:14519   */\n      and\n        /* \"#utility.yul\":14538:14556   */\n      dup1\n        /* \"#utility.yul\":14528:14609   */\n      tag_315\n      jumpi\n        /* \"#utility.yul\":14594:14598   */\n      0x7f\n        /* \"#utility.yul\":14586:14592   */\n      dup3\n        /* \"#utility.yul\":14582:14599   */\n      and\n        /* \"#utility.yul\":14572:14599   */\n      swap2\n      pop\n        /* \"#utility.yul\":14528:14609   */\n    tag_315:\n        /* \"#utility.yul\":14656:14658   */\n      0x20\n        /* \"#utility.yul\":14648:14654   */\n      dup3\n        /* \"#utility.yul\":14645:14659   */\n      lt\n        /* \"#utility.yul\":14625:14643   */\n      dup2\n        /* \"#utility.yul\":14622:14660   */\n      sub\n        /* \"#utility.yul\":14619:14703   */\n      tag_316\n      jumpi\n        /* \"#utility.yul\":14675:14693   */\n      tag_317\n      tag_165\n      jump\t// in\n    tag_317:\n        /* \"#utility.yul\":14619:14703   */\n    tag_316:\n        /* \"#utility.yul\":14440:14709   */\n      pop\n        /* \"#utility.yul\":14389:14709   */\n      swap2\n      swap1\n      pop\n      jump\t// out\n        /* \"#utility.yul\":14715:14884   */\n    tag_166:\n        /* \"#utility.yul\":14855:14876   */\n      0x5961206573746173207265676973747261646f00000000000000000000000000\n        /* \"#utility.yul\":14851:14852   */\n      0x00\n        /* \"#utility.yul\":14843:14849   */\n      dup3\n        /* \"#utility.yul\":14839:14853   */\n      add\n        /* \"#utility.yul\":14832:14877   */\n      mstore\n        /* \"#utility.yul\":14715:14884   */\n      pop\n      jump\t// out\n        /* \"#utility.yul\":14890:15256   */\n    tag_167:\n        /* \"#utility.yul\":15032:15035   */\n      0x00\n        /* \"#utility.yul\":15053:15120   */\n      tag_320\n        /* \"#utility.yul\":15117:15119   */\n      0x13\n        /* \"#utility.yul\":15112:15115   */\n      dup4\n        /* \"#utility.yul\":15053:15120   */\n      tag_134\n      jump\t// in\n    tag_320:\n        /* \"#utility.yul\":15046:15120   */\n      swap2\n      pop\n        /* \"#utility.yul\":15129:15222   */\n      tag_321\n        /* \"#utility.yul\":15218:15221   */\n      dup3\n        /* \"#utility.yul\":15129:15222   */\n      tag_166\n      jump\t// in\n    tag_321:\n        /* \"#utility.yul\":15247:15249   */\n      0x20\n        /* \"#utility.yul\":15242:15245   */\n      dup3\n        /* \"#utility.yul\":15238:15250   */\n      add\n        /* \"#utility.yul\":15231:15250   */\n      swap1\n      pop\n        /* \"#utility.yul\":14890:15256   */\n      swap2\n      swap1\n      pop\n      jump\t// out\n        /* \"#utility.yul\":15262:15681   */\n    tag_105:\n        /* \"#utility.yul\":15428:15432   */\n      0x00\n        /* \"#utility.yul\":15466:15468   */\n      0x20\n        /* \"#utility.yul\":15455:15464   */\n      dup3\n        /* \"#utility.yul\":15451:15469   */\n      add\n        /* \"#utility.yul\":15443:15469   */\n      swap1\n      pop\n        /* \"#utility.yul\":15515:15524   */\n      dup2\n        /* \"#utility.yul\":15509:15513   */\n      dup2\n        /* \"#utility.yul\":15505:15525   */\n      sub\n        /* \"#utility.yul\":15501:15502   */\n      0x00\n        /* \"#utility.yul\":15490:15499   */\n      dup4\n        /* \"#utility.yul\":15486:15503   */\n      add\n        /* \"#utility.yul\":15479:15526   */\n      mstore\n        /* \"#utility.yul\":15543:15674   */\n      tag_323\n        /* \"#utility.yul\":15669:15673   */\n      dup2\n        /* \"#utility.yul\":15543:15674   */\n      tag_167\n      jump\t// in\n    tag_323:\n        /* \"#utility.yul\":15535:15674   */\n      swap1\n      pop\n        /* \"#utility.yul\":15262:15681   */\n      swap2\n      swap1\n      pop\n      jump\t// out\n        /* \"#utility.yul\":15687:15909   */\n    tag_107:\n        /* \"#utility.yul\":15780:15784   */\n      0x00\n        /* \"#utility.yul\":15818:15820   */\n      0x20\n        /* \"#utility.yul\":15807:15816   */\n      dup3\n        /* \"#utility.yul\":15803:15821   */\n      add\n        /* \"#utility.yul\":15795:15821   */\n      swap1\n      pop\n        /* \"#utility.yul\":15831:15902   */\n      tag_325\n        /* \"#utility.yul\":15899:15900   */\n      0x00\n        /* \"#utility.yul\":15888:15897   */\n      dup4\n        /* \"#utility.yul\":15884:15901   */\n      add\n        /* \"#utility.yul\":15875:15881   */\n      dup5\n        /* \"#utility.yul\":15831:15902   */\n      tag_132\n      jump\t// in\n    tag_325:\n        /* \"#utility.yul\":15687:15909   */\n      swap3\n      swap2\n      pop\n      pop\n      jump\t// out\n        /* \"#utility.yul\":15915:16150   */\n    tag_168:\n        /* \"#utility.yul\":16055:16089   */\n      0x536f6c6f20656c2061646d696e6973747261646f72207075656465207265616c\n        /* \"#utility.yul\":16051:16052   */\n      0x00\n        /* \"#utility.yul\":16043:16049   */\n      dup3\n        /* \"#utility.yul\":16039:16053   */\n      add\n        /* \"#utility.yul\":16032:16090   */\n      mstore\n        /* \"#utility.yul\":16124:16142   */\n      0x697a6172206573746120616363696f6e00000000000000000000000000000000\n        /* \"#utility.yul\":16119:16121   */\n      0x20\n        /* \"#utility.yul\":16111:16117   */\n      dup3\n        /* \"#utility.yul\":16107:16122   */\n      add\n        /* \"#utility.yul\":16100:16143   */\n      mstore\n        /* \"#utility.yul\":15915:16150   */\n      pop\n      jump\t// out\n        /* \"#utility.yul\":16156:16522   */\n    tag_169:\n        /* \"#utility.yul\":16298:16301   */\n      0x00\n        /* \"#utility.yul\":16319:16386   */\n      tag_328\n        /* \"#utility.yul\":16383:16385   */\n      0x30\n        /* \"#utility.yul\":16378:16381   */\n      dup4\n        /* \"#utility.yul\":16319:16386   */\n      tag_134\n      jump\t// in\n    tag_328:\n        /* \"#utility.yul\":16312:16386   */\n      swap2\n      pop\n        /* \"#utility.yul\":16395:16488   */\n      tag_329\n        /* \"#utility.yul\":16484:16487   */\n      dup3\n        /* \"#utility.yul\":16395:16488   */\n      tag_168\n      jump\t// in\n    tag_329:\n        /* \"#utility.yul\":16513:16515   */\n      0x40\n        /* \"#utility.yul\":16508:16511   */\n      dup3\n        /* \"#utility.yul\":16504:16516   */\n      add\n        /* \"#utility.yul\":16497:16516   */\n      swap1\n      pop\n        /* \"#utility.yul\":16156:16522   */\n      swap2\n      swap1\n      pop\n      jump\t// out\n        /* \"#utility.yul\":16528:16947   */\n    tag_111:\n        /* \"#utility.yul\":16694:16698   */\n      0x00\n        /* \"#utility.yul\":16732:16734   */\n      0x20\n        /* \"#utility.yul\":16721:16730   */\n      dup3\n        /* \"#utility.yul\":16717:16735   */\n      add\n        /* \"#utility.yul\":16709:16735   */\n      swap1\n      pop\n        /* \"#utility.yul\":16781:16790   */\n      dup2\n        /* \"#utility.yul\":16775:16779   */\n      dup2\n        /* \"#utility.yul\":16771:16791   */\n      sub\n        /* \"#utility.yul\":16767:16768   */\n      0x00\n        /* \"#utility.yul\":16756:16765   */\n      dup4\n        /* \"#utility.yul\":16752:16769   */\n      add\n        /* \"#utility.yul\":16745:16792   */\n      mstore\n        /* \"#utility.yul\":16809:16940   */\n      tag_331\n        /* \"#utility.yul\":16935:16939   */\n      dup2\n        /* \"#utility.yul\":16809:16940   */\n      tag_169\n      jump\t// in\n    tag_331:\n        /* \"#utility.yul\":16801:16940   */\n      swap1\n      pop\n        /* \"#utility.yul\":16528:16947   */\n      swap2\n      swap1\n      pop\n      jump\t// out\n        /* \"#utility.yul\":16953:17128   */\n    tag_170:\n        /* \"#utility.yul\":17093:17120   */\n      0x59612068617920756e6120737562617374612061637469766100000000000000\n        /* \"#utility.yul\":17089:17090   */\n      0x00\n        /* \"#utility.yul\":17081:17087   */\n      dup3\n        /* \"#utility.yul\":17077:17091   */\n      add\n        /* \"#utility.yul\":17070:17121   */\n      mstore\n        /* \"#utility.yul\":16953:17128   */\n      pop\n      jump\t// out\n        /* \"#utility.yul\":17134:17500   */\n    tag_171:\n        /* \"#utility.yul\":17276:17279   */\n      0x00\n        /* \"#utility.yul\":17297:17364   */\n      tag_334\n        /* \"#utility.yul\":17361:17363   */\n      0x19\n        /* \"#utility.yul\":17356:17359   */\n      dup4\n        /* \"#utility.yul\":17297:17364   */\n      tag_134\n      jump\t// in\n    tag_334:\n        /* \"#utility.yul\":17290:17364   */\n      swap2\n      pop\n        /* \"#utility.yul\":17373:17466   */\n      tag_335\n        /* \"#utility.yul\":17462:17465   */\n      dup3\n        /* \"#utility.yul\":17373:17466   */\n      tag_170\n      jump\t// in\n    tag_335:\n        /* \"#utility.yul\":17491:17493   */\n      0x20\n        /* \"#utility.yul\":17486:17489   */\n      dup3\n        /* \"#utility.yul\":17482:17494   */\n      add\n        /* \"#utility.yul\":17475:17494   */\n      swap1\n      pop\n        /* \"#utility.yul\":17134:17500   */\n      swap2\n      swap1\n      pop\n      jump\t// out\n        /* \"#utility.yul\":17506:17925   */\n    tag_115:\n        /* \"#utility.yul\":17672:17676   */\n      0x00\n        /* \"#utility.yul\":17710:17712   */\n      0x20\n        /* \"#utility.yul\":17699:17708   */\n      dup3\n        /* \"#utility.yul\":17695:17713   */\n      add\n        /* \"#utility.yul\":17687:17713   */\n      swap1\n      pop\n        /* \"#utility.yul\":17759:17768   */\n      dup2\n        /* \"#utility.yul\":17753:17757   */\n      dup2\n        /* \"#utility.yul\":17749:17769   */\n      sub\n        /* \"#utility.yul\":17745:17746   */\n      0x00\n        /* \"#utility.yul\":17734:17743   */\n      dup4\n        /* \"#utility.yul\":17730:17747   */\n      add\n        /* \"#utility.yul\":17723:17770   */\n      mstore\n        /* \"#utility.yul\":17787:17918   */\n      tag_337\n        /* \"#utility.yul\":17913:17917   */\n      dup2\n        /* \"#utility.yul\":17787:17918   */\n      tag_171\n      jump\t// in\n    tag_337:\n        /* \"#utility.yul\":17779:17918   */\n      swap1\n      pop\n        /* \"#utility.yul\":17506:17925   */\n      swap2\n      swap1\n      pop\n      jump\t// out\n        /* \"#utility.yul\":17931:18072   */\n    tag_172:\n        /* \"#utility.yul\":17980:17984   */\n      0x00\n        /* \"#utility.yul\":18003:18006   */\n      dup2\n        /* \"#utility.yul\":17995:18006   */\n      swap1\n      pop\n        /* \"#utility.yul\":18026:18029   */\n      dup2\n        /* \"#utility.yul\":18023:18024   */\n      0x00\n        /* \"#utility.yul\":18016:18030   */\n      mstore\n        /* \"#utility.yul\":18060:18064   */\n      0x20\n        /* \"#utility.yul\":18057:18058   */\n      0x00\n        /* \"#utility.yul\":18047:18065   */\n      keccak256\n        /* \"#utility.yul\":18039:18065   */\n      swap1\n      pop\n        /* \"#utility.yul\":17931:18072   */\n      swap2\n      swap1\n      pop\n      jump\t// out\n        /* \"#utility.yul\":18078:18171   */\n    tag_173:\n        /* \"#utility.yul\":18115:18121   */\n      0x00\n        /* \"#utility.yul\":18162:18164   */\n      0x20\n        /* \"#utility.yul\":18157:18159   */\n      0x1f\n        /* \"#utility.yul\":18150:18155   */\n      dup4\n        /* \"#utility.yul\":18146:18160   */\n      add\n        /* \"#utility.yul\":18142:18165   */\n      div\n        /* \"#utility.yul\":18132:18165   */\n      swap1\n      pop\n        /* \"#utility.yul\":18078:18171   */\n      swap2\n      swap1\n      pop\n      jump\t// out\n        /* \"#utility.yul\":18177:18284   */\n    tag_174:\n        /* \"#utility.yul\":18221:18229   */\n      0x00\n        /* \"#utility.yul\":18271:18276   */\n      dup3\n        /* \"#utility.yul\":18265:18269   */\n      dup3\n        /* \"#utility.yul\":18261:18277   */\n      shl\n        /* \"#utility.yul\":18240:18277   */\n      swap1\n      pop\n        /* \"#utility.yul\":18177:18284   */\n      swap3\n      swap2\n      pop\n      pop\n      jump\t// out\n        /* \"#utility.yul\":18290:18683   */\n    tag_175:\n        /* \"#utility.yul\":18359:18365   */\n      0x00\n        /* \"#utility.yul\":18409:18410   */\n      0x08\n        /* \"#utility.yul\":18397:18407   */\n      dup4\n        /* \"#utility.yul\":18393:18411   */\n      mul\n        /* \"#utility.yul\":18432:18529   */\n      tag_342\n        /* \"#utility.yul\":18462:18528   */\n      0xffffffffffffffffffffffffffffffffffffffffffffffffffffffffffffffff\n        /* \"#utility.yul\":18451:18460   */\n      dup3\n        /* \"#utility.yul\":18432:18529   */\n      tag_174\n      jump\t// in\n    tag_342:\n        /* \"#utility.yul\":18550:18589   */\n      tag_343\n        /* \"#utility.yul\":18580:18588   */\n      dup7\n        /* \"#utility.yul\":18569:18578   */\n      dup4\n        /* \"#utility.yul\":18550:18589   */\n      tag_174\n      jump\t// in\n    tag_343:\n        /* \"#utility.yul\":18538:18589   */\n      swap6\n      pop\n        /* \"#utility.yul\":18622:18626   */\n      dup1\n        /* \"#utility.yul\":18618:18627   */\n      not\n        /* \"#utility.yul\":18611:18616   */\n      dup5\n        /* \"#utility.yul\":18607:18628   */\n      and\n        /* \"#utility.yul\":18598:18628   */\n      swap4\n      pop\n        /* \"#utility.yul\":18671:18675   */\n      dup1\n        /* \"#utility.yul\":18661:18669   */\n      dup7\n        /* \"#utility.yul\":18657:18676   */\n      and\n        /* \"#utility.yul\":18650:18655   */\n      dup5\n        /* \"#utility.yul\":18647:18677   */\n      or\n        /* \"#utility.yul\":18637:18677   */\n      swap3\n      pop\n        /* \"#utility.yul\":18366:18683   */\n      pop\n      pop\n        /* \"#utility.yul\":18290:18683   */\n      swap4\n      swap3\n      pop\n      pop\n      pop\n      jump\t// out\n        /* \"#utility.yul\":18689:18749   */\n    tag_176:\n        /* \"#utility.yul\":18717:18720   */\n      0x00\n        /* \"#utility.yul\":18738:18743   */\n      dup2\n        /* \"#utility.yul\":18731:18743   */\n      swap1\n      pop\n        /* \"#utility.yul\":18689:18749   */\n      swap2\n      swap1\n      pop\n      jump\t// out\n        /* \"#utility.yul\":18755:18897   */\n    tag_177:\n        /* \"#utility.yul\":18805:18814   */\n      0x00\n        /* \"#utility.yul\":18838:18891   */\n      tag_346\n        /* \"#utility.yul\":18856:18890   */\n      tag_347\n        /* \"#utility.yul\":18865:18889   */\n      tag_348\n        /* \"#utility.yul\":18883:18888   */\n      dup5\n        /* \"#utility.yul\":18865:18889   */\n      tag_138\n      jump\t// in\n    tag_348:\n        /* \"#utility.yul\":18856:18890   */\n      tag_176\n      jump\t// in\n    tag_347:\n        /* \"#utility.yul\":18838:18891   */\n      tag_138\n      jump\t// in\n    tag_346:\n        /* \"#utility.yul\":18825:18891   */\n      swap1\n      pop\n        /* \"#utility.yul\":18755:18897   */\n      swap2\n      swap1\n      pop\n      jump\t// out\n        /* \"#utility.yul\":18903:18978   */\n    tag_178:\n        /* \"#utility.yul\":18946:18949   */\n      0x00\n        /* \"#utility.yul\":18967:18972   */\n      dup2\n        /* \"#utility.yul\":18960:18972   */\n      swap1\n      pop\n        /* \"#utility.yul\":18903:18978   */\n      swap2\n      swap1\n      pop\n      jump\t// out\n        /* \"#utility.yul\":18984:19253   */\n    tag_179:\n        /* \"#utility.yul\":19094:19133   */\n      tag_351\n        /* \"#utility.yul\":19125:19132   */\n      dup4\n        /* \"#utility.yul\":19094:19133   */\n      tag_177\n      jump\t// in\n    tag_351:\n        /* \"#utility.yul\":19155:19246   */\n      tag_352\n        /* \"#utility.yul\":19204:19245   */\n      tag_353\n        /* \"#utility.yul\":19228:19244   */\n      dup3\n        /* \"#utility.yul\":19204:19245   */\n      tag_178\n      jump\t// in\n    tag_353:\n        /* \"#utility.yul\":19196:19202   */\n      dup5\n        /* \"#utility.yul\":19189:19193   */\n      dup5\n        /* \"#utility.yul\":19183:19194   */\n      sload\n        /* \"#utility.yul\":19155:19246   */\n      tag_175\n      jump\t// in\n    tag_352:\n        /* \"#utility.yul\":19149:19153   */\n      dup3\n        /* \"#utility.yul\":19142:19247   */\n      sstore\n        /* \"#utility.yul\":19060:19253   */\n      pop\n        /* \"#utility.yul\":18984:19253   */\n      pop\n      pop\n      pop\n      jump\t// out\n        /* \"#utility.yul\":19259:19332   */\n    tag_180:\n        /* \"#utility.yul\":19304:19307   */\n      0x00\n        /* \"#utility.yul\":19325:19326   */\n      0x00\n        /* \"#utility.yul\":19318:19326   */\n      swap1\n      pop\n        /* \"#utility.yul\":19259:19332   */\n      swap1\n      jump\t// out\n        /* \"#utility.yul\":19338:19527   */\n    tag_181:\n        /* \"#utility.yul\":19415:19447   */\n      tag_356\n      tag_180\n      jump\t// in\n    tag_356:\n        /* \"#utility.yul\":19456:19521   */\n      tag_357\n        /* \"#utility.yul\":19514:19520   */\n      dup2\n        /* \"#utility.yul\":19506:19512   */\n      dup5\n        /* \"#utility.yul\":19500:19504   */\n      dup5\n        /* \"#utility.yul\":19456:19521   */\n      tag_179\n      jump\t// in\n    tag_357:\n        /* \"#utility.yul\":19391:19527   */\n      pop\n        /* \"#utility.yul\":19338:19527   */\n      pop\n      pop\n      jump\t// out\n        /* \"#utility.yul\":19533:19719   */\n    tag_182:\n        /* \"#utility.yul\":19593:19713   */\n    tag_359:\n        /* \"#utility.yul\":19610:19613   */\n      dup2\n        /* \"#utility.yul\":19603:19608   */\n      dup2\n        /* \"#utility.yul\":19600:19614   */\n      lt\n        /* \"#utility.yul\":19593:19713   */\n      iszero\n      tag_361\n      jumpi\n        /* \"#utility.yul\":19664:19703   */\n      tag_362\n        /* \"#utility.yul\":19701:19702   */\n      0x00\n        /* \"#utility.yul\":19694:19699   */\n      dup3\n        /* \"#utility.yul\":19664:19703   */\n      tag_181\n      jump\t// in\n    tag_362:\n        /* \"#utility.yul\":19637:19638   */\n      0x01\n        /* \"#utility.yul\":19630:19635   */\n      dup2\n        /* \"#utility.yul\":19626:19639   */\n      add\n        /* \"#utility.yul\":19617:19639   */\n      swap1\n      pop\n        /* \"#utility.yul\":19593:19713   */\n      jump(tag_359)\n    tag_361:\n        /* \"#utility.yul\":19533:19719   */\n      pop\n      pop\n      jump\t// out\n        /* \"#utility.yul\":19725:20268   */\n    tag_183:\n        /* \"#utility.yul\":19826:19828   */\n      0x1f\n        /* \"#utility.yul\":19821:19824   */\n      dup3\n        /* \"#utility.yul\":19818:19829   */\n      gt\n        /* \"#utility.yul\":19815:20261   */\n      iszero\n      tag_364\n      jumpi\n        /* \"#utility.yul\":19860:19898   */\n      tag_365\n        /* \"#utility.yul\":19892:19897   */\n      dup2\n        /* \"#utility.yul\":19860:19898   */\n      tag_172\n      jump\t// in\n    tag_365:\n        /* \"#utility.yul\":19944:19973   */\n      tag_366\n        /* \"#utility.yul\":19962:19972   */\n      dup5\n        /* \"#utility.yul\":19944:19973   */\n      tag_173\n      jump\t// in\n    tag_366:\n        /* \"#utility.yul\":19934:19942   */\n      dup2\n        /* \"#utility.yul\":19930:19974   */\n      add\n        /* \"#utility.yul\":20127:20129   */\n      0x20\n        /* \"#utility.yul\":20115:20125   */\n      dup6\n        /* \"#utility.yul\":20112:20130   */\n      lt\n        /* \"#utility.yul\":20109:20158   */\n      iszero\n      tag_367\n      jumpi\n        /* \"#utility.yul\":20148:20156   */\n      dup2\n        /* \"#utility.yul\":20133:20156   */\n      swap1\n      pop\n        /* \"#utility.yul\":20109:20158   */\n    tag_367:\n        /* \"#utility.yul\":20171:20251   */\n      tag_368\n        /* \"#utility.yul\":20227:20249   */\n      tag_369\n        /* \"#utility.yul\":20245:20248   */\n      dup6\n        /* \"#utility.yul\":20227:20249   */\n      tag_173\n      jump\t// in\n    tag_369:\n        /* \"#utility.yul\":20217:20225   */\n      dup4\n        /* \"#utility.yul\":20213:20250   */\n      add\n        /* \"#utility.yul\":20200:20211   */\n      dup3\n        /* \"#utility.yul\":20171:20251   */\n      tag_182\n      jump\t// in\n    tag_368:\n        /* \"#utility.yul\":19830:20261   */\n      pop\n      pop\n        /* \"#utility.yul\":19815:20261   */\n    tag_364:\n        /* \"#utility.yul\":19725:20268   */\n      pop\n      pop\n      pop\n      jump\t// out\n        /* \"#utility.yul\":20274:20391   */\n    tag_184:\n        /* \"#utility.yul\":20328:20336   */\n      0x00\n        /* \"#utility.yul\":20378:20383   */\n      dup3\n        /* \"#utility.yul\":20372:20376   */\n      dup3\n        /* \"#utility.yul\":20368:20384   */\n      shr\n        /* \"#utility.yul\":20347:20384   */\n      swap1\n      pop\n        /* \"#utility.yul\":20274:20391   */\n      swap3\n      swap2\n      pop\n      pop\n      jump\t// out\n        /* \"#utility.yul\":20397:20566   */\n    tag_185:\n        /* \"#utility.yul\":20441:20447   */\n      0x00\n        /* \"#utility.yul\":20474:20525   */\n      tag_372\n        /* \"#utility.yul\":20522:20523   */\n      0x00\n        /* \"#utility.yul\":20518:20524   */\n      not\n        /* \"#utility.yul\":20510:20515   */\n      dup5\n        /* \"#utility.yul\":20507:20508   */\n      0x08\n        /* \"#utility.yul\":20503:20516   */\n      mul\n        /* \"#utility.yul\":20474:20525   */\n      tag_184\n      jump\t// in\n    tag_372:\n        /* \"#utility.yul\":20470:20526   */\n      not\n        /* \"#utility.yul\":20555:20559   */\n      dup1\n        /* \"#utility.yul\":20549:20553   */\n      dup4\n        /* \"#utility.yul\":20545:20560   */\n      and\n        /* \"#utility.yul\":20535:20560   */\n      swap2\n      pop\n        /* \"#utility.yul\":20448:20566   */\n      pop\n        /* \"#utility.yul\":20397:20566   */\n      swap3\n      swap2\n      pop\n      pop\n      jump\t// out\n        /* \"#utility.yul\":20571:20866   */\n    tag_186:\n        /* \"#utility.yul\":20647:20651   */\n      0x00\n        /* \"#utility.yul\":20793:20822   */\n      tag_374\n        /* \"#utility.yul\":20818:20821   */\n      dup4\n        /* \"#utility.yul\":20812:20816   */\n      dup4\n        /* \"#utility.yul\":20793:20822   */\n      tag_185\n      jump\t// in\n    tag_374:\n        /* \"#utility.yul\":20785:20822   */\n      swap2\n      pop\n        /* \"#utility.yul\":20855:20858   */\n      dup3\n        /* \"#utility.yul\":20852:20853   */\n      0x02\n        /* \"#utility.yul\":20848:20859   */\n      mul\n        /* \"#utility.yul\":20842:20846   */\n      dup3\n        /* \"#utility.yul\":20839:20860   */\n      or\n        /* \"#utility.yul\":20831:20860   */\n      swap1\n      pop\n        /* \"#utility.yul\":20571:20866   */\n      swap3\n      swap2\n      pop\n      pop\n      jump\t// out\n        /* \"#utility.yul\":20871:22266   */\n    tag_117:\n        /* \"#utility.yul\":20988:21025   */\n      tag_376\n        /* \"#utility.yul\":21021:21024   */\n      dup3\n        /* \"#utility.yul\":20988:21025   */\n      tag_133\n      jump\t// in\n    tag_376:\n        /* \"#utility.yul\":21090:21108   */\n      0xffffffffffffffff\n        /* \"#utility.yul\":21082:21088   */\n      dup2\n        /* \"#utility.yul\":21079:21109   */\n      gt\n        /* \"#utility.yul\":21076:21132   */\n      iszero\n      tag_377\n      jumpi\n        /* \"#utility.yul\":21112:21130   */\n      tag_378\n      tag_142\n      jump\t// in\n    tag_378:\n        /* \"#utility.yul\":21076:21132   */\n    tag_377:\n        /* \"#utility.yul\":21156:21194   */\n      tag_379\n        /* \"#utility.yul\":21188:21192   */\n      dup3\n        /* \"#utility.yul\":21182:21193   */\n      sload\n        /* \"#utility.yul\":21156:21194   */\n      tag_97\n      jump\t// in\n    tag_379:\n        /* \"#utility.yul\":21241:21308   */\n      tag_380\n        /* \"#utility.yul\":21301:21307   */\n      dup3\n        /* \"#utility.yul\":21293:21299   */\n      dup3\n        /* \"#utility.yul\":21287:21291   */\n      dup6\n        /* \"#utility.yul\":21241:21308   */\n      tag_183\n      jump\t// in\n    tag_380:\n        /* \"#utility.yul\":21335:21336   */\n      0x00\n        /* \"#utility.yul\":21359:21363   */\n      0x20\n        /* \"#utility.yul\":21346:21363   */\n      swap1\n      pop\n        /* \"#utility.yul\":21391:21393   */\n      0x1f\n        /* \"#utility.yul\":21383:21389   */\n      dup4\n        /* \"#utility.yul\":21380:21394   */\n      gt\n        /* \"#utility.yul\":21408:21409   */\n      0x01\n        /* \"#utility.yul\":21403:22021   */\n      dup2\n      eq\n      tag_382\n      jumpi\n        /* \"#utility.yul\":22065:22066   */\n      0x00\n        /* \"#utility.yul\":22082:22088   */\n      dup5\n        /* \"#utility.yul\":22079:22156   */\n      iszero\n      tag_383\n      jumpi\n        /* \"#utility.yul\":22131:22140   */\n      dup3\n        /* \"#utility.yul\":22126:22129   */\n      dup8\n        /* \"#utility.yul\":22122:22141   */\n      add\n        /* \"#utility.yul\":22116:22142   */\n      mload\n        /* \"#utility.yul\":22107:22142   */\n      swap1\n      pop\n        /* \"#utility.yul\":22079:22156   */\n    tag_383:\n        /* \"#utility.yul\":22182:22249   */\n      tag_384\n        /* \"#utility.yul\":22242:22248   */\n      dup6\n        /* \"#utility.yul\":22235:22240   */\n      dup3\n        /* \"#utility.yul\":22182:22249   */\n      tag_186\n      jump\t// in\n    tag_384:\n        /* \"#utility.yul\":22176:22180   */\n      dup7\n        /* \"#utility.yul\":22169:22250   */\n      sstore\n        /* \"#utility.yul\":22038:22260   */\n      pop\n        /* \"#utility.yul\":21373:22260   */\n      jump(tag_381)\n        /* \"#utility.yul\":21403:22021   */\n    tag_382:\n        /* \"#utility.yul\":21455:21459   */\n      0x1f\n        /* \"#utility.yul\":21451:21460   */\n      not\n        /* \"#utility.yul\":21443:21449   */\n      dup5\n        /* \"#utility.yul\":21439:21461   */\n      and\n        /* \"#utility.yul\":21489:21526   */\n      tag_385\n        /* \"#utility.yul\":21521:21525   */\n      dup7\n        /* \"#utility.yul\":21489:21526   */\n      tag_172\n      jump\t// in\n    tag_385:\n        /* \"#utility.yul\":21548:21549   */\n      0x00\n        /* \"#utility.yul\":21562:21770   */\n    tag_386:\n        /* \"#utility.yul\":21576:21583   */\n      dup3\n        /* \"#utility.yul\":21573:21574   */\n      dup2\n        /* \"#utility.yul\":21570:21584   */\n      lt\n        /* \"#utility.yul\":21562:21770   */\n      iszero\n      tag_388\n      jumpi\n        /* \"#utility.yul\":21655:21664   */\n      dup5\n        /* \"#utility.yul\":21650:21653   */\n      dup10\n        /* \"#utility.yul\":21646:21665   */\n      add\n        /* \"#utility.yul\":21640:21666   */\n      mload\n        /* \"#utility.yul\":21632:21638   */\n      dup3\n        /* \"#utility.yul\":21625:21667   */\n      sstore\n        /* \"#utility.yul\":21706:21707   */\n      0x01\n        /* \"#utility.yul\":21698:21704   */\n      dup3\n        /* \"#utility.yul\":21694:21708   */\n      add\n        /* \"#utility.yul\":21684:21708   */\n      swap2\n      pop\n        /* \"#utility.yul\":21753:21755   */\n      0x20\n        /* \"#utility.yul\":21742:21751   */\n      dup6\n        /* \"#utility.yul\":21738:21756   */\n      add\n        /* \"#utility.yul\":21725:21756   */\n      swap5\n      pop\n        /* \"#utility.yul\":21599:21603   */\n      0x20\n        /* \"#utility.yul\":21596:21597   */\n      dup2\n        /* \"#utility.yul\":21592:21604   */\n      add\n        /* \"#utility.yul\":21587:21604   */\n      swap1\n      pop\n        /* \"#utility.yul\":21562:21770   */\n      jump(tag_386)\n    tag_388:\n        /* \"#utility.yul\":21798:21804   */\n      dup7\n        /* \"#utility.yul\":21789:21796   */\n      dup4\n        /* \"#utility.yul\":21786:21805   */\n      lt\n        /* \"#utility.yul\":21783:21962   */\n      iszero\n      tag_389\n      jumpi\n        /* \"#utility.yul\":21856:21865   */\n      dup5\n        /* \"#utility.yul\":21851:21854   */\n      dup10\n        /* \"#utility.yul\":21847:21866   */\n      add\n        /* \"#utility.yul\":21841:21867   */\n      mload\n        /* \"#utility.yul\":21899:21947   */\n      tag_390\n        /* \"#utility.yul\":21941:21945   */\n      0x1f\n        /* \"#utility.yul\":21933:21939   */\n      dup10\n        /* \"#utility.yul\":21929:21946   */\n      and\n        /* \"#utility.yul\":21918:21927   */\n      dup3\n        /* \"#utility.yul\":21899:21947   */\n      tag_185\n      jump\t// in\n    tag_390:\n        /* \"#utility.yul\":21891:21897   */\n      dup4\n        /* \"#utility.yul\":21884:21948   */\n      sstore\n        /* \"#utility.yul\":21806:21962   */\n      pop\n        /* \"#utility.yul\":21783:21962   */\n    tag_389:\n        /* \"#utility.yul\":22008:22009   */\n      0x01\n        /* \"#utility.yul\":22004:22005   */\n      0x02\n        /* \"#utility.yul\":21996:22002   */\n      dup9\n        /* \"#utility.yul\":21992:22006   */\n      mul\n        /* \"#utility.yul\":21988:22010   */\n      add\n        /* \"#utility.yul\":21982:21986   */\n      dup9\n        /* \"#utility.yul\":21975:22011   */\n      sstore\n        /* \"#utility.yul\":21410:22021   */\n      pop\n      pop\n      pop\n        /* \"#utility.yul\":21373:22260   */\n    tag_381:\n      pop\n        /* \"#utility.yul\":20963:22266   */\n      pop\n      pop\n      pop\n        /* \"#utility.yul\":20871:22266   */\n      pop\n      pop\n      jump\t// out\n        /* \"#utility.yul\":22272:22452   */\n    tag_187:\n        /* \"#utility.yul\":22320:22397   */\n      0x4e487b7100000000000000000000000000000000000000000000000000000000\n        /* \"#utility.yul\":22317:22318   */\n      0x00\n        /* \"#utility.yul\":22310:22398   */\n      mstore\n        /* \"#utility.yul\":22417:22421   */\n      0x11\n        /* \"#utility.yul\":22414:22415   */\n      0x04\n        /* \"#utility.yul\":22407:22422   */\n      mstore\n        /* \"#utility.yul\":22441:22445   */\n      0x24\n        /* \"#utility.yul\":22438:22439   */\n      0x00\n        /* \"#utility.yul\":22431:22446   */\n      revert\n        /* \"#utility.yul\":22458:22649   */\n    tag_119:\n        /* \"#utility.yul\":22498:22501   */\n      0x00\n        /* \"#utility.yul\":22517:22537   */\n      tag_393\n        /* \"#utility.yul\":22535:22536   */\n      dup3\n        /* \"#utility.yul\":22517:22537   */\n      tag_138\n      jump\t// in\n    tag_393:\n        /* \"#utility.yul\":22512:22537   */\n      swap2\n      pop\n        /* \"#utility.yul\":22551:22571   */\n      tag_394\n        /* \"#utility.yul\":22569:22570   */\n      dup4\n        /* \"#utility.yul\":22551:22571   */\n      tag_138\n      jump\t// in\n    tag_394:\n        /* \"#utility.yul\":22546:22571   */\n      swap3\n      pop\n        /* \"#utility.yul\":22594:22595   */\n      dup3\n        /* \"#utility.yul\":22591:22592   */\n      dup3\n        /* \"#utility.yul\":22587:22596   */\n      add\n        /* \"#utility.yul\":22580:22596   */\n      swap1\n      pop\n        /* \"#utility.yul\":22615:22618   */\n      dup1\n        /* \"#utility.yul\":22612:22613   */\n      dup3\n        /* \"#utility.yul\":22609:22619   */\n      gt\n        /* \"#utility.yul\":22606:22642   */\n      iszero\n      tag_395\n      jumpi\n        /* \"#utility.yul\":22622:22640   */\n      tag_396\n      tag_187\n      jump\t// in\n    tag_396:\n        /* \"#utility.yul\":22606:22642   */\n    tag_395:\n        /* \"#utility.yul\":22458:22649   */\n      swap3\n      swap2\n      pop\n      pop\n      jump\t// out\n        /* \"#utility.yul\":22655:23188   */\n    tag_121:\n        /* \"#utility.yul\":22824:22828   */\n      0x00\n        /* \"#utility.yul\":22862:22864   */\n      0x60\n        /* \"#utility.yul\":22851:22860   */\n      dup3\n        /* \"#utility.yul\":22847:22865   */\n      add\n        /* \"#utility.yul\":22839:22865   */\n      swap1\n      pop\n        /* \"#utility.yul\":22911:22920   */\n      dup2\n        /* \"#utility.yul\":22905:22909   */\n      dup2\n        /* \"#utility.yul\":22901:22921   */\n      sub\n        /* \"#utility.yul\":22897:22898   */\n      0x00\n        /* \"#utility.yul\":22886:22895   */\n      dup4\n        /* \"#utility.yul\":22882:22899   */\n      add\n        /* \"#utility.yul\":22875:22922   */\n      mstore\n        /* \"#utility.yul\":22939:23017   */\n      tag_398\n        /* \"#utility.yul\":23012:23016   */\n      dup2\n        /* \"#utility.yul\":23003:23009   */\n      dup7\n        /* \"#utility.yul\":22939:23017   */\n      tag_137\n      jump\t// in\n    tag_398:\n        /* \"#utility.yul\":22931:23017   */\n      swap1\n      pop\n        /* \"#utility.yul\":23027:23099   */\n      tag_399\n        /* \"#utility.yul\":23095:23097   */\n      0x20\n        /* \"#utility.yul\":23084:23093   */\n      dup4\n        /* \"#utility.yul\":23080:23098   */\n      add\n        /* \"#utility.yul\":23071:23077   */\n      dup6\n        /* \"#utility.yul\":23027:23099   */\n      tag_139\n      jump\t// in\n    tag_399:\n        /* \"#utility.yul\":23109:23181   */\n      tag_400\n        /* \"#utility.yul\":23177:23179   */\n      0x40\n        /* \"#utility.yul\":23166:23175   */\n      dup4\n        /* \"#utility.yul\":23162:23180   */\n      add\n        /* \"#utility.yul\":23153:23159   */\n      dup5\n        /* \"#utility.yul\":23109:23181   */\n      tag_139\n      jump\t// in\n    tag_400:\n        /* \"#utility.yul\":22655:23188   */\n      swap5\n      swap4\n      pop\n      pop\n      pop\n      pop\n      jump\t// out\n\n    auxdata: 0xa2646970667358221220f713bb20ade354054b18aa910f587a56a0fc9e5281eb368de2d3b129855ab2be64736f6c634300081e0033\n}\n",
				"bytecode": {
					"linkReferences": {},
					"object": "6080604052348015600e575f5ffd5b503360015f015f6101000a81548173ffffffffffffffffffffffffffffffffffffffff021916908373ffffffffffffffffffffffffffffffffffffffff1602179055505f5f5f6101000a81548160ff02191690831515021790555061182b806100765f395ff3fe60806040526004361061009b575f3560e01c80636a390902116100635780636a390902146101525780638f68efca1461017c578063a8e46f7e14610192578063acfc9f98146101ba578063e752f4ab146101e5578063ef871c2d146102105761009b565b80630851eac21461009f5780633ec059d7146100b557806344d07a8b146100bf5780635dfe78f7146100fb578063613bf82214610125575b5f5ffd5b3480156100aa575f5ffd5b506100b361024c565b005b6100bd610492565b005b3480156100ca575f5ffd5b506100e560048036038101906100e09190610cb1565b6107b3565b6040516100f29190610cf6565b60405180910390f35b348015610106575f5ffd5b5061010f6107d0565b60405161011c9190610cf6565b60405180910390f35b348015610130575f5ffd5b506101396107e1565b6040516101499493929190610da6565b60405180910390f35b34801561015d575f5ffd5b506101666108a3565b6040516101739190610cf6565b60405180910390f35b348015610187575f5ffd5b506101906108b5565b005b34801561019d575f5ffd5b506101b860048036038101906101b39190610f46565b6109cd565b005b3480156101c5575f5ffd5b506101ce610bcd565b6040516101dc929190610fb2565b60405180910390f35b3480156101f0575f5ffd5b506101f9610bfd565b604051610207929190610fb2565b60405180910390f35b34801561021b575f5ffd5b5061023660048036038101906102319190610cb1565b610c31565b6040516102439190610fd9565b60405180910390f35b5f5f9054906101000a900460ff16610299576040517f08c379a00000000000000000000000000000000000000000000000000000000081526004016102909061103c565b60405180910390fd5b3373ffffffffffffffffffffffffffffffffffffffff1660015f015f9054906101000a900473ffffffffffffffffffffffffffffffffffffffff1673ffffffffffffffffffffffffffffffffffffffff1614806102fb57506001600301544210155b61033a576040517f08c379a0000000000000000000000000000000000000000000000000000000008152600401610331906110a4565b60405180910390fd5b5f5f5f6101000a81548160ff02191690831515021790555060015f60016101000a81548160ff0219169083151502179055505f73ffffffffffffffffffffffffffffffffffffffff1660055f015f9054906101000a900473ffffffffffffffffffffffffffffffffffffffff1673ffffffffffffffffffffffffffffffffffffffff161461042f5760015f015f9054906101000a900473ffffffffffffffffffffffffffffffffffffffff1673ffffffffffffffffffffffffffffffffffffffff166108fc60056001015490811502906040515f60405180830381858888f1935050505015801561042d573d5f5f3e3d5ffd5b505b7fa3a65b403bdae88eb037f4ecc1d619f436fc3ef6bcbbee3787757164e82883f260055f015f9054906101000a900473ffffffffffffffffffffffffffffffffffffffff16600560010154604051610488929190610fb2565b60405180910390a1565b5f5f9054906101000a900460ff166104df576040517f08c379a00000000000000000000000000000000000000000000000000000000081526004016104d69061110c565b60405180910390fd5b6001600301544210610526576040517f08c379a000000000000000000000000000000000000000000000000000000000815260040161051d90611174565b60405180910390fd5b60075f3373ffffffffffffffffffffffffffffffffffffffff1673ffffffffffffffffffffffffffffffffffffffff1681526020019081526020015f205f9054906101000a900460ff166105af576040517f08c379a00000000000000000000000000000000000000000000000000000000081526004016105a690611202565b60405180910390fd5b6001600201543410156105f7576040517f08c379a00000000000000000000000000000000000000000000000000000000081526004016105ee90611290565b60405180910390fd5b600560010154341161063e576040517f08c379a0000000000000000000000000000000000000000000000000000000008152600401610635906112f8565b60405180910390fd5b5f60056001015411156106b85760055f015f9054906101000a900473ffffffffffffffffffffffffffffffffffffffff1673ffffffffffffffffffffffffffffffffffffffff166108fc60056001015490811502906040515f60405180830381858888f193505050501580156106b6573d5f5f3e3d5ffd5b505b3460085f3373ffffffffffffffffffffffffffffffffffffffff1673ffffffffffffffffffffffffffffffffffffffff1681526020019081526020015f208190555060405180604001604052803373ffffffffffffffffffffffffffffffffffffffff1681526020013481525060055f820151815f015f6101000a81548173ffffffffffffffffffffffffffffffffffffffff021916908373ffffffffffffffffffffffffffffffffffffffff160217905550602082015181600101559050507f155d469211f46e4d9ae974606f0878f9aacc6198ba30a1e6b9c8cf5627352fb533346040516107a9929190610fb2565b60405180910390a1565b6007602052805f5260405f205f915054906101000a900460ff1681565b5f5f9054906101000a900460ff1681565b6001805f015f9054906101000a900473ffffffffffffffffffffffffffffffffffffffff169080600101805461081690611343565b80601f016020809104026020016040519081016040528092919081815260200182805461084290611343565b801561088d5780601f106108645761010080835404028352916020019161088d565b820191905f5260205f20905b81548152906001019060200180831161087057829003601f168201915b5050505050908060020154908060030154905084565b5f60019054906101000a900460ff1681565b60075f3373ffffffffffffffffffffffffffffffffffffffff1673ffffffffffffffffffffffffffffffffffffffff1681526020019081526020015f205f9054906101000a900460ff161561093f576040517f08c379a0000000000000000000000000000000000000000000000000000000008152600401610936906113bd565b60405180910390fd5b600160075f3373ffffffffffffffffffffffffffffffffffffffff1673ffffffffffffffffffffffffffffffffffffffff1681526020019081526020015f205f6101000a81548160ff0219169083151502179055507f5e4427b2aef380abaa3c5a005737553eca9d2e7259090668e68ff15ce487bf21336040516109c391906113db565b60405180910390a1565b60015f015f9054906101000a900473ffffffffffffffffffffffffffffffffffffffff1673ffffffffffffffffffffffffffffffffffffffff163373ffffffffffffffffffffffffffffffffffffffff1614610a5e576040517f08c379a0000000000000000000000000000000000000000000000000000000008152600401610a5590611464565b60405180910390fd5b5f5f9054906101000a900460ff1615610aac576040517f08c379a0000000000000000000000000000000000000000000000000000000008152600401610aa3906114cc565b60405180910390fd5b82600180019081610abd919061168a565b50816001600201819055508042610ad49190611786565b60016003018190555060015f5f6101000a81548160ff0219169083151502179055505f5f60016101000a81548160ff02191690831515021790555060405180604001604052805f73ffffffffffffffffffffffffffffffffffffffff1681526020015f81525060055f820151815f015f6101000a81548173ffffffffffffffffffffffffffffffffffffffff021916908373ffffffffffffffffffffffffffffffffffffffff160217905550602082015181600101559050507f0c7273685091eea5de621dc030640e4b290669dbfba417608758b761ce92be5d838383604051610bc0939291906117b9565b60405180910390a1505050565b6005805f015f9054906101000a900473ffffffffffffffffffffffffffffffffffffffff16908060010154905082565b5f5f60055f015f9054906101000a900473ffffffffffffffffffffffffffffffffffffffff16600560010154915091509091565b6008602052805f5260405f205f915090505481565b5f604051905090565b5f5ffd5b5f5ffd5b5f73ffffffffffffffffffffffffffffffffffffffff82169050919050565b5f610c8082610c57565b9050919050565b610c9081610c76565b8114610c9a575f5ffd5b50565b5f81359050610cab81610c87565b92915050565b5f60208284031215610cc657610cc5610c4f565b5b5f610cd384828501610c9d565b91505092915050565b5f8115159050919050565b610cf081610cdc565b82525050565b5f602082019050610d095f830184610ce7565b92915050565b610d1881610c76565b82525050565b5f81519050919050565b5f82825260208201905092915050565b8281835e5f83830152505050565b5f601f19601f8301169050919050565b5f610d6082610d1e565b610d6a8185610d28565b9350610d7a818560208601610d38565b610d8381610d46565b840191505092915050565b5f819050919050565b610da081610d8e565b82525050565b5f608082019050610db95f830187610d0f565b8181036020830152610dcb8186610d56565b9050610dda6040830185610d97565b610de76060830184610d97565b95945050505050565b5f5ffd5b5f5ffd5b7f4e487b71000000000000000000000000000000000000000000000000000000005f52604160045260245ffd5b610e2e82610d46565b810181811067ffffffffffffffff82111715610e4d57610e4c610df8565b5b80604052505050565b5f610e5f610c46565b9050610e6b8282610e25565b919050565b5f67ffffffffffffffff821115610e8a57610e89610df8565b5b610e9382610d46565b9050602081019050919050565b828183375f83830152505050565b5f610ec0610ebb84610e70565b610e56565b905082815260208101848484011115610edc57610edb610df4565b5b610ee7848285610ea0565b509392505050565b5f82601f830112610f0357610f02610df0565b5b8135610f13848260208601610eae565b91505092915050565b610f2581610d8e565b8114610f2f575f5ffd5b50565b5f81359050610f4081610f1c565b92915050565b5f5f5f60608486031215610f5d57610f5c610c4f565b5b5f84013567ffffffffffffffff811115610f7a57610f79610c53565b5b610f8686828701610eef565b9350506020610f9786828701610f32565b9250506040610fa886828701610f32565b9150509250925092565b5f604082019050610fc55f830185610d0f565b610fd26020830184610d97565b9392505050565b5f602082019050610fec5f830184610d97565b92915050565b7f4e6f2068617920737562617374612061637469766100000000000000000000005f82015250565b5f611026601583610d28565b915061103182610ff2565b602082019050919050565b5f6020820190508181035f8301526110538161101a565b9050919050565b7f4e6f207469656e6573207065726d69736f20706172612066696e616c697a61725f82015250565b5f61108e602083610d28565b91506110998261105a565b602082019050919050565b5f6020820190508181035f8301526110bb81611082565b9050919050565b7f4c612073756261737461206e6f206573746120616374697661000000000000005f82015250565b5f6110f6601983610d28565b9150611101826110c2565b602082019050919050565b5f6020820190508181035f830152611123816110ea565b9050919050565b7f4c61207375626173746120686120657870697261646f000000000000000000005f82015250565b5f61115e601683610d28565b91506111698261112a565b602082019050919050565b5f6020820190508181035f83015261118b81611152565b9050919050565b7f4e6f206573746173207265676973747261646f20636f6d6f206f666572656e745f8201527f6500000000000000000000000000000000000000000000000000000000000000602082015250565b5f6111ec602183610d28565b91506111f782611192565b604082019050919050565b5f6020820190508181035f830152611219816111e0565b9050919050565b7f4465626573206f66657274617220616c206d656e6f7320656c206d6f6e746f205f8201527f6261736500000000000000000000000000000000000000000000000000000000602082015250565b5f61127a602483610d28565b915061128582611220565b604082019050919050565b5f6020820190508181035f8301526112a78161126e565b9050919050565b7f5475206f666572746120646562652073757065726172206c612061637475616c5f82015250565b5f6112e2602083610d28565b91506112ed826112ae565b602082019050919050565b5f6020820190508181035f83015261130f816112d6565b9050919050565b7f4e487b71000000000000000000000000000000000000000000000000000000005f52602260045260245ffd5b5f600282049050600182168061135a57607f821691505b60208210810361136d5761136c611316565b5b50919050565b7f5961206573746173207265676973747261646f000000000000000000000000005f82015250565b5f6113a7601383610d28565b91506113b282611373565b602082019050919050565b5f6020820190508181035f8301526113d48161139b565b9050919050565b5f6020820190506113ee5f830184610d0f565b92915050565b7f536f6c6f20656c2061646d696e6973747261646f72207075656465207265616c5f8201527f697a6172206573746120616363696f6e00000000000000000000000000000000602082015250565b5f61144e603083610d28565b9150611459826113f4565b604082019050919050565b5f6020820190508181035f83015261147b81611442565b9050919050565b7f59612068617920756e61207375626173746120616374697661000000000000005f82015250565b5f6114b6601983610d28565b91506114c182611482565b602082019050919050565b5f6020820190508181035f8301526114e3816114aa565b9050919050565b5f819050815f5260205f209050919050565b5f6020601f8301049050919050565b5f82821b905092915050565b5f600883026115467fffffffffffffffffffffffffffffffffffffffffffffffffffffffffffffffff8261150b565b611550868361150b565b95508019841693508086168417925050509392505050565b5f819050919050565b5f61158b61158661158184610d8e565b611568565b610d8e565b9050919050565b5f819050919050565b6115a483611571565b6115b86115b082611592565b848454611517565b825550505050565b5f5f905090565b6115cf6115c0565b6115da81848461159b565b505050565b5b818110156115fd576115f25f826115c7565b6001810190506115e0565b5050565b601f82111561164257611613816114ea565b61161c846114fc565b8101602085101561162b578190505b61163f611637856114fc565b8301826115df565b50505b505050565b5f82821c905092915050565b5f6116625f1984600802611647565b1980831691505092915050565b5f61167a8383611653565b9150826002028217905092915050565b61169382610d1e565b67ffffffffffffffff8111156116ac576116ab610df8565b5b6116b68254611343565b6116c1828285611601565b5f60209050601f8311600181146116f2575f84156116e0578287015190505b6116ea858261166f565b865550611751565b601f198416611700866114ea565b5f5b8281101561172757848901518255600182019150602085019450602081019050611702565b868310156117445784890151611740601f891682611653565b8355505b6001600288020188555050505b505050505050565b7f4e487b71000000000000000000000000000000000000000000000000000000005f52601160045260245ffd5b5f61179082610d8e565b915061179b83610d8e565b92508282019050808211156117b3576117b2611759565b5b92915050565b5f6060820190508181035f8301526117d18186610d56565b90506117e06020830185610d97565b6117ed6040830184610d97565b94935050505056fea2646970667358221220f713bb20ade354054b18aa910f587a56a0fc9e5281eb368de2d3b129855ab2be64736f6c634300081e0033",
					"opcodes": "PUSH1 0x80 PUSH1 0x40 MSTORE CALLVALUE DUP1 ISZERO PUSH1 0xE JUMPI PUSH0 PUSH0 REVERT JUMPDEST POP CALLER PUSH1 0x1 PUSH0 ADD PUSH0 PUSH2 0x100 EXP DUP2 SLOAD DUP2 PUSH20 0xFFFFFFFFFFFFFFFFFFFFFFFFFFFFFFFFFFFFFFFF MUL NOT AND SWAP1 DUP4 PUSH20 0xFFFFFFFFFFFFFFFFFFFFFFFFFFFFFFFFFFFFFFFF AND MUL OR SWAP1 SSTORE POP PUSH0 PUSH0 PUSH0 PUSH2 0x100 EXP DUP2 SLOAD DUP2 PUSH1 0xFF MUL NOT AND SWAP1 DUP4 ISZERO ISZERO MUL OR SWAP1 SSTORE POP PUSH2 0x182B DUP1 PUSH2 0x76 PUSH0 CODECOPY PUSH0 RETURN INVALID PUSH1 0x80 PUSH1 0x40 MSTORE PUSH1 0x4 CALLDATASIZE LT PUSH2 0x9B JUMPI PUSH0 CALLDATALOAD PUSH1 0xE0 SHR DUP1 PUSH4 0x6A390902 GT PUSH2 0x63 JUMPI DUP1 PUSH4 0x6A390902 EQ PUSH2 0x152 JUMPI DUP1 PUSH4 0x8F68EFCA EQ PUSH2 0x17C JUMPI DUP1 PUSH4 0xA8E46F7E EQ PUSH2 0x192 JUMPI DUP1 PUSH4 0xACFC9F98 EQ PUSH2 0x1BA JUMPI DUP1 PUSH4 0xE752F4AB EQ PUSH2 0x1E5 JUMPI DUP1 PUSH4 0xEF871C2D EQ PUSH2 0x210 JUMPI PUSH2 0x9B JUMP JUMPDEST DUP1 PUSH4 0x851EAC2 EQ PUSH2 0x9F JUMPI DUP1 PUSH4 0x3EC059D7 EQ PUSH2 0xB5 JUMPI DUP1 PUSH4 0x44D07A8B EQ PUSH2 0xBF JUMPI DUP1 PUSH4 0x5DFE78F7 EQ PUSH2 0xFB JUMPI DUP1 PUSH4 0x613BF822 EQ PUSH2 0x125 JUMPI JUMPDEST PUSH0 PUSH0 REVERT JUMPDEST CALLVALUE DUP1 ISZERO PUSH2 0xAA JUMPI PUSH0 PUSH0 REVERT JUMPDEST POP PUSH2 0xB3 PUSH2 0x24C JUMP JUMPDEST STOP JUMPDEST PUSH2 0xBD PUSH2 0x492 JUMP JUMPDEST STOP JUMPDEST CALLVALUE DUP1 ISZERO PUSH2 0xCA JUMPI PUSH0 PUSH0 REVERT JUMPDEST POP PUSH2 0xE5 PUSH1 0x4 DUP1 CALLDATASIZE SUB DUP2 ADD SWAP1 PUSH2 0xE0 SWAP2 SWAP1 PUSH2 0xCB1 JUMP JUMPDEST PUSH2 0x7B3 JUMP JUMPDEST PUSH1 0x40 MLOAD PUSH2 0xF2 SWAP2 SWAP1 PUSH2 0xCF6 JUMP JUMPDEST PUSH1 0x40 MLOAD DUP1 SWAP2 SUB SWAP1 RETURN JUMPDEST CALLVALUE DUP1 ISZERO PUSH2 0x106 JUMPI PUSH0 PUSH0 REVERT JUMPDEST POP PUSH2 0x10F PUSH2 0x7D0 JUMP JUMPDEST PUSH1 0x40 MLOAD PUSH2 0x11C SWAP2 SWAP1 PUSH2 0xCF6 JUMP JUMPDEST PUSH1 0x40 MLOAD DUP1 SWAP2 SUB SWAP1 RETURN JUMPDEST CALLVALUE DUP1 ISZERO PUSH2 0x130 JUMPI PUSH0 PUSH0 REVERT JUMPDEST POP PUSH2 0x139 PUSH2 0x7E1 JUMP JUMPDEST PUSH1 0x40 MLOAD PUSH2 0x149 SWAP5 SWAP4 SWAP3 SWAP2 SWAP1 PUSH2 0xDA6 JUMP JUMPDEST PUSH1 0x40 MLOAD DUP1 SWAP2 SUB SWAP1 RETURN JUMPDEST CALLVALUE DUP1 ISZERO PUSH2 0x15D JUMPI PUSH0 PUSH0 REVERT JUMPDEST POP PUSH2 0x166 PUSH2 0x8A3 JUMP JUMPDEST PUSH1 0x40 MLOAD PUSH2 0x173 SWAP2 SWAP1 PUSH2 0xCF6 JUMP JUMPDEST PUSH1 0x40 MLOAD DUP1 SWAP2 SUB SWAP1 RETURN JUMPDEST CALLVALUE DUP1 ISZERO PUSH2 0x187 JUMPI PUSH0 PUSH0 REVERT JUMPDEST POP PUSH2 0x190 PUSH2 0x8B5 JUMP JUMPDEST STOP JUMPDEST CALLVALUE DUP1 ISZERO PUSH2 0x19D JUMPI PUSH0 PUSH0 REVERT JUMPDEST POP PUSH2 0x1B8 PUSH1 0x4 DUP1 CALLDATASIZE SUB DUP2 ADD SWAP1 PUSH2 0x1B3 SWAP2 SWAP1 PUSH2 0xF46 JUMP JUMPDEST PUSH2 0x9CD JUMP JUMPDEST STOP JUMPDEST CALLVALUE DUP1 ISZERO PUSH2 0x1C5 JUMPI PUSH0 PUSH0 REVERT JUMPDEST POP PUSH2 0x1CE PUSH2 0xBCD JUMP JUMPDEST PUSH1 0x40 MLOAD PUSH2 0x1DC SWAP3 SWAP2 SWAP1 PUSH2 0xFB2 JUMP JUMPDEST PUSH1 0x40 MLOAD DUP1 SWAP2 SUB SWAP1 RETURN JUMPDEST CALLVALUE DUP1 ISZERO PUSH2 0x1F0 JUMPI PUSH0 PUSH0 REVERT JUMPDEST POP PUSH2 0x1F9 PUSH2 0xBFD JUMP JUMPDEST PUSH1 0x40 MLOAD PUSH2 0x207 SWAP3 SWAP2 SWAP1 PUSH2 0xFB2 JUMP JUMPDEST PUSH1 0x40 MLOAD DUP1 SWAP2 SUB SWAP1 RETURN JUMPDEST CALLVALUE DUP1 ISZERO PUSH2 0x21B JUMPI PUSH0 PUSH0 REVERT JUMPDEST POP PUSH2 0x236 PUSH1 0x4 DUP1 CALLDATASIZE SUB DUP2 ADD SWAP1 PUSH2 0x231 SWAP2 SWAP1 PUSH2 0xCB1 JUMP JUMPDEST PUSH2 0xC31 JUMP JUMPDEST PUSH1 0x40 MLOAD PUSH2 0x243 SWAP2 SWAP1 PUSH2 0xFD9 JUMP JUMPDEST PUSH1 0x40 MLOAD DUP1 SWAP2 SUB SWAP1 RETURN JUMPDEST PUSH0 PUSH0 SWAP1 SLOAD SWAP1 PUSH2 0x100 EXP SWAP1 DIV PUSH1 0xFF AND PUSH2 0x299 JUMPI PUSH1 0x40 MLOAD PUSH32 0x8C379A000000000000000000000000000000000000000000000000000000000 DUP2 MSTORE PUSH1 0x4 ADD PUSH2 0x290 SWAP1 PUSH2 0x103C JUMP JUMPDEST PUSH1 0x40 MLOAD DUP1 SWAP2 SUB SWAP1 REVERT JUMPDEST CALLER PUSH20 0xFFFFFFFFFFFFFFFFFFFFFFFFFFFFFFFFFFFFFFFF AND PUSH1 0x1 PUSH0 ADD PUSH0 SWAP1 SLOAD SWAP1 PUSH2 0x100 EXP SWAP1 DIV PUSH20 0xFFFFFFFFFFFFFFFFFFFFFFFFFFFFFFFFFFFFFFFF AND PUSH20 0xFFFFFFFFFFFFFFFFFFFFFFFFFFFFFFFFFFFFFFFF AND EQ DUP1 PUSH2 0x2FB JUMPI POP PUSH1 0x1 PUSH1 0x3 ADD SLOAD TIMESTAMP LT ISZERO JUMPDEST PUSH2 0x33A JUMPI PUSH1 0x40 MLOAD PUSH32 0x8C379A000000000000000000000000000000000000000000000000000000000 DUP2 MSTORE PUSH1 0x4 ADD PUSH2 0x331 SWAP1 PUSH2 0x10A4 JUMP JUMPDEST PUSH1 0x40 MLOAD DUP1 SWAP2 SUB SWAP1 REVERT JUMPDEST PUSH0 PUSH0 PUSH0 PUSH2 0x100 EXP DUP2 SLOAD DUP2 PUSH1 0xFF MUL NOT AND SWAP1 DUP4 ISZERO ISZERO MUL OR SWAP1 SSTORE POP PUSH1 0x1 PUSH0 PUSH1 0x1 PUSH2 0x100 EXP DUP2 SLOAD DUP2 PUSH1 0xFF MUL NOT AND SWAP1 DUP4 ISZERO ISZERO MUL OR SWAP1 SSTORE POP PUSH0 PUSH20 0xFFFFFFFFFFFFFFFFFFFFFFFFFFFFFFFFFFFFFFFF AND PUSH1 0x5 PUSH0 ADD PUSH0 SWAP1 SLOAD SWAP1 PUSH2 0x100 EXP SWAP1 DIV PUSH20 0xFFFFFFFFFFFFFFFFFFFFFFFFFFFFFFFFFFFFFFFF AND PUSH20 0xFFFFFFFFFFFFFFFFFFFFFFFFFFFFFFFFFFFFFFFF AND EQ PUSH2 0x42F JUMPI PUSH1 0x1 PUSH0 ADD PUSH0 SWAP1 SLOAD SWAP1 PUSH2 0x100 EXP SWAP1 DIV PUSH20 0xFFFFFFFFFFFFFFFFFFFFFFFFFFFFFFFFFFFFFFFF AND PUSH20 0xFFFFFFFFFFFFFFFFFFFFFFFFFFFFFFFFFFFFFFFF AND PUSH2 0x8FC PUSH1 0x5 PUSH1 0x1 ADD SLOAD SWAP1 DUP2 ISZERO MUL SWAP1 PUSH1 0x40 MLOAD PUSH0 PUSH1 0x40 MLOAD DUP1 DUP4 SUB DUP2 DUP6 DUP9 DUP9 CALL SWAP4 POP POP POP POP ISZERO DUP1 ISZERO PUSH2 0x42D JUMPI RETURNDATASIZE PUSH0 PUSH0 RETURNDATACOPY RETURNDATASIZE PUSH0 REVERT JUMPDEST POP JUMPDEST PUSH32 0xA3A65B403BDAE88EB037F4ECC1D619F436FC3EF6BCBBEE3787757164E82883F2 PUSH1 0x5 PUSH0 ADD PUSH0 SWAP1 SLOAD SWAP1 PUSH2 0x100 EXP SWAP1 DIV PUSH20 0xFFFFFFFFFFFFFFFFFFFFFFFFFFFFFFFFFFFFFFFF AND PUSH1 0x5 PUSH1 0x1 ADD SLOAD PUSH1 0x40 MLOAD PUSH2 0x488 SWAP3 SWAP2 SWAP1 PUSH2 0xFB2 JUMP JUMPDEST PUSH1 0x40 MLOAD DUP1 SWAP2 SUB SWAP1 LOG1 JUMP JUMPDEST PUSH0 PUSH0 SWAP1 SLOAD SWAP1 PUSH2 0x100 EXP SWAP1 DIV PUSH1 0xFF AND PUSH2 0x4DF JUMPI PUSH1 0x40 MLOAD PUSH32 0x8C379A000000000000000000000000000000000000000000000000000000000 DUP2 MSTORE PUSH1 0x4 ADD PUSH2 0x4D6 SWAP1 PUSH2 0x110C JUMP JUMPDEST PUSH1 0x40 MLOAD DUP1 SWAP2 SUB SWAP1 REVERT JUMPDEST PUSH1 0x1 PUSH1 0x3 ADD SLOAD TIMESTAMP LT PUSH2 0x526 JUMPI PUSH1 0x40 MLOAD PUSH32 0x8C379A000000000000000000000000000000000000000000000000000000000 DUP2 MSTORE PUSH1 0x4 ADD PUSH2 0x51D SWAP1 PUSH2 0x1174 JUMP JUMPDEST PUSH1 0x40 MLOAD DUP1 SWAP2 SUB SWAP1 REVERT JUMPDEST PUSH1 0x7 PUSH0 CALLER PUSH20 0xFFFFFFFFFFFFFFFFFFFFFFFFFFFFFFFFFFFFFFFF AND PUSH20 0xFFFFFFFFFFFFFFFFFFFFFFFFFFFFFFFFFFFFFFFF AND DUP2 MSTORE PUSH1 0x20 ADD SWAP1 DUP2 MSTORE PUSH1 0x20 ADD PUSH0 KECCAK256 PUSH0 SWAP1 SLOAD SWAP1 PUSH2 0x100 EXP SWAP1 DIV PUSH1 0xFF AND PUSH2 0x5AF JUMPI PUSH1 0x40 MLOAD PUSH32 0x8C379A000000000000000000000000000000000000000000000000000000000 DUP2 MSTORE PUSH1 0x4 ADD PUSH2 0x5A6 SWAP1 PUSH2 0x1202 JUMP JUMPDEST PUSH1 0x40 MLOAD DUP1 SWAP2 SUB SWAP1 REVERT JUMPDEST PUSH1 0x1 PUSH1 0x2 ADD SLOAD CALLVALUE LT ISZERO PUSH2 0x5F7 JUMPI PUSH1 0x40 MLOAD PUSH32 0x8C379A000000000000000000000000000000000000000000000000000000000 DUP2 MSTORE PUSH1 0x4 ADD PUSH2 0x5EE SWAP1 PUSH2 0x1290 JUMP JUMPDEST PUSH1 0x40 MLOAD DUP1 SWAP2 SUB SWAP1 REVERT JUMPDEST PUSH1 0x5 PUSH1 0x1 ADD SLOAD CALLVALUE GT PUSH2 0x63E JUMPI PUSH1 0x40 MLOAD PUSH32 0x8C379A000000000000000000000000000000000000000000000000000000000 DUP2 MSTORE PUSH1 0x4 ADD PUSH2 0x635 SWAP1 PUSH2 0x12F8 JUMP JUMPDEST PUSH1 0x40 MLOAD DUP1 SWAP2 SUB SWAP1 REVERT JUMPDEST PUSH0 PUSH1 0x5 PUSH1 0x1 ADD SLOAD GT ISZERO PUSH2 0x6B8 JUMPI PUSH1 0x5 PUSH0 ADD PUSH0 SWAP1 SLOAD SWAP1 PUSH2 0x100 EXP SWAP1 DIV PUSH20 0xFFFFFFFFFFFFFFFFFFFFFFFFFFFFFFFFFFFFFFFF AND PUSH20 0xFFFFFFFFFFFFFFFFFFFFFFFFFFFFFFFFFFFFFFFF AND PUSH2 0x8FC PUSH1 0x5 PUSH1 0x1 ADD SLOAD SWAP1 DUP2 ISZERO MUL SWAP1 PUSH1 0x40 MLOAD PUSH0 PUSH1 0x40 MLOAD DUP1 DUP4 SUB DUP2 DUP6 DUP9 DUP9 CALL SWAP4 POP POP POP POP ISZERO DUP1 ISZERO PUSH2 0x6B6 JUMPI RETURNDATASIZE PUSH0 PUSH0 RETURNDATACOPY RETURNDATASIZE PUSH0 REVERT JUMPDEST POP JUMPDEST CALLVALUE PUSH1 0x8 PUSH0 CALLER PUSH20 0xFFFFFFFFFFFFFFFFFFFFFFFFFFFFFFFFFFFFFFFF AND PUSH20 0xFFFFFFFFFFFFFFFFFFFFFFFFFFFFFFFFFFFFFFFF AND DUP2 MSTORE PUSH1 0x20 ADD SWAP1 DUP2 MSTORE PUSH1 0x20 ADD PUSH0 KECCAK256 DUP2 SWAP1 SSTORE POP PUSH1 0x40 MLOAD DUP1 PUSH1 0x40 ADD PUSH1 0x40 MSTORE DUP1 CALLER PUSH20 0xFFFFFFFFFFFFFFFFFFFFFFFFFFFFFFFFFFFFFFFF AND DUP2 MSTORE PUSH1 0x20 ADD CALLVALUE DUP2 MSTORE POP PUSH1 0x5 PUSH0 DUP3 ADD MLOAD DUP2 PUSH0 ADD PUSH0 PUSH2 0x100 EXP DUP2 SLOAD DUP2 PUSH20 0xFFFFFFFFFFFFFFFFFFFFFFFFFFFFFFFFFFFFFFFF MUL NOT AND SWAP1 DUP4 PUSH20 0xFFFFFFFFFFFFFFFFFFFFFFFFFFFFFFFFFFFFFFFF AND MUL OR SWAP1 SSTORE POP PUSH1 0x20 DUP3 ADD MLOAD DUP2 PUSH1 0x1 ADD SSTORE SWAP1 POP POP PUSH32 0x155D469211F46E4D9AE974606F0878F9AACC6198BA30A1E6B9C8CF5627352FB5 CALLER CALLVALUE PUSH1 0x40 MLOAD PUSH2 0x7A9 SWAP3 SWAP2 SWAP1 PUSH2 0xFB2 JUMP JUMPDEST PUSH1 0x40 MLOAD DUP1 SWAP2 SUB SWAP1 LOG1 JUMP JUMPDEST PUSH1 0x7 PUSH1 0x20 MSTORE DUP1 PUSH0 MSTORE PUSH1 0x40 PUSH0 KECCAK256 PUSH0 SWAP2 POP SLOAD SWAP1 PUSH2 0x100 EXP SWAP1 DIV PUSH1 0xFF AND DUP2 JUMP JUMPDEST PUSH0 PUSH0 SWAP1 SLOAD SWAP1 PUSH2 0x100 EXP SWAP1 DIV PUSH1 0xFF AND DUP2 JUMP JUMPDEST PUSH1 0x1 DUP1 PUSH0 ADD PUSH0 SWAP1 SLOAD SWAP1 PUSH2 0x100 EXP SWAP1 DIV PUSH20 0xFFFFFFFFFFFFFFFFFFFFFFFFFFFFFFFFFFFFFFFF AND SWAP1 DUP1 PUSH1 0x1 ADD DUP1 SLOAD PUSH2 0x816 SWAP1 PUSH2 0x1343 JUMP JUMPDEST DUP1 PUSH1 0x1F ADD PUSH1 0x20 DUP1 SWAP2 DIV MUL PUSH1 0x20 ADD PUSH1 0x40 MLOAD SWAP1 DUP2 ADD PUSH1 0x40 MSTORE DUP1 SWAP3 SWAP2 SWAP1 DUP2 DUP2 MSTORE PUSH1 0x20 ADD DUP3 DUP1 SLOAD PUSH2 0x842 SWAP1 PUSH2 0x1343 JUMP JUMPDEST DUP1 ISZERO PUSH2 0x88D JUMPI DUP1 PUSH1 0x1F LT PUSH2 0x864 JUMPI PUSH2 0x100 DUP1 DUP4 SLOAD DIV MUL DUP4 MSTORE SWAP2 PUSH1 0x20 ADD SWAP2 PUSH2 0x88D JUMP JUMPDEST DUP3 ADD SWAP2 SWAP1 PUSH0 MSTORE PUSH1 0x20 PUSH0 KECCAK256 SWAP1 JUMPDEST DUP2 SLOAD DUP2 MSTORE SWAP1 PUSH1 0x1 ADD SWAP1 PUSH1 0x20 ADD DUP1 DUP4 GT PUSH2 0x870 JUMPI DUP3 SWAP1 SUB PUSH1 0x1F AND DUP3 ADD SWAP2 JUMPDEST POP POP POP POP POP SWAP1 DUP1 PUSH1 0x2 ADD SLOAD SWAP1 DUP1 PUSH1 0x3 ADD SLOAD SWAP1 POP DUP5 JUMP JUMPDEST PUSH0 PUSH1 0x1 SWAP1 SLOAD SWAP1 PUSH2 0x100 EXP SWAP1 DIV PUSH1 0xFF AND DUP2 JUMP JUMPDEST PUSH1 0x7 PUSH0 CALLER PUSH20 0xFFFFFFFFFFFFFFFFFFFFFFFFFFFFFFFFFFFFFFFF AND PUSH20 0xFFFFFFFFFFFFFFFFFFFFFFFFFFFFFFFFFFFFFFFF AND DUP2 MSTORE PUSH1 0x20 ADD SWAP1 DUP2 MSTORE PUSH1 0x20 ADD PUSH0 KECCAK256 PUSH0 SWAP1 SLOAD SWAP1 PUSH2 0x100 EXP SWAP1 DIV PUSH1 0xFF AND ISZERO PUSH2 0x93F JUMPI PUSH1 0x40 MLOAD PUSH32 0x8C379A000000000000000000000000000000000000000000000000000000000 DUP2 MSTORE PUSH1 0x4 ADD PUSH2 0x936 SWAP1 PUSH2 0x13BD JUMP JUMPDEST PUSH1 0x40 MLOAD DUP1 SWAP2 SUB SWAP1 REVERT JUMPDEST PUSH1 0x1 PUSH1 0x7 PUSH0 CALLER PUSH20 0xFFFFFFFFFFFFFFFFFFFFFFFFFFFFFFFFFFFFFFFF AND PUSH20 0xFFFFFFFFFFFFFFFFFFFFFFFFFFFFFFFFFFFFFFFF AND DUP2 MSTORE PUSH1 0x20 ADD SWAP1 DUP2 MSTORE PUSH1 0x20 ADD PUSH0 KECCAK256 PUSH0 PUSH2 0x100 EXP DUP2 SLOAD DUP2 PUSH1 0xFF MUL NOT AND SWAP1 DUP4 ISZERO ISZERO MUL OR SWAP1 SSTORE POP PUSH32 0x5E4427B2AEF380ABAA3C5A005737553ECA9D2E7259090668E68FF15CE487BF21 CALLER PUSH1 0x40 MLOAD PUSH2 0x9C3 SWAP2 SWAP1 PUSH2 0x13DB JUMP JUMPDEST PUSH1 0x40 MLOAD DUP1 SWAP2 SUB SWAP1 LOG1 JUMP JUMPDEST PUSH1 0x1 PUSH0 ADD PUSH0 SWAP1 SLOAD SWAP1 PUSH2 0x100 EXP SWAP1 DIV PUSH20 0xFFFFFFFFFFFFFFFFFFFFFFFFFFFFFFFFFFFFFFFF AND PUSH20 0xFFFFFFFFFFFFFFFFFFFFFFFFFFFFFFFFFFFFFFFF AND CALLER PUSH20 0xFFFFFFFFFFFFFFFFFFFFFFFFFFFFFFFFFFFFFFFF AND EQ PUSH2 0xA5E JUMPI PUSH1 0x40 MLOAD PUSH32 0x8C379A000000000000000000000000000000000000000000000000000000000 DUP2 MSTORE PUSH1 0x4 ADD PUSH2 0xA55 SWAP1 PUSH2 0x1464 JUMP JUMPDEST PUSH1 0x40 MLOAD DUP1 SWAP2 SUB SWAP1 REVERT JUMPDEST PUSH0 PUSH0 SWAP1 SLOAD SWAP1 PUSH2 0x100 EXP SWAP1 DIV PUSH1 0xFF AND ISZERO PUSH2 0xAAC JUMPI PUSH1 0x40 MLOAD PUSH32 0x8C379A000000000000000000000000000000000000000000000000000000000 DUP2 MSTORE PUSH1 0x4 ADD PUSH2 0xAA3 SWAP1 PUSH2 0x14CC JUMP JUMPDEST PUSH1 0x40 MLOAD DUP1 SWAP2 SUB SWAP1 REVERT JUMPDEST DUP3 PUSH1 0x1 DUP1 ADD SWAP1 DUP2 PUSH2 0xABD SWAP2 SWAP1 PUSH2 0x168A JUMP JUMPDEST POP DUP2 PUSH1 0x1 PUSH1 0x2 ADD DUP2 SWAP1 SSTORE POP DUP1 TIMESTAMP PUSH2 0xAD4 SWAP2 SWAP1 PUSH2 0x1786 JUMP JUMPDEST PUSH1 0x1 PUSH1 0x3 ADD DUP2 SWAP1 SSTORE POP PUSH1 0x1 PUSH0 PUSH0 PUSH2 0x100 EXP DUP2 SLOAD DUP2 PUSH1 0xFF MUL NOT AND SWAP1 DUP4 ISZERO ISZERO MUL OR SWAP1 SSTORE POP PUSH0 PUSH0 PUSH1 0x1 PUSH2 0x100 EXP DUP2 SLOAD DUP2 PUSH1 0xFF MUL NOT AND SWAP1 DUP4 ISZERO ISZERO MUL OR SWAP1 SSTORE POP PUSH1 0x40 MLOAD DUP1 PUSH1 0x40 ADD PUSH1 0x40 MSTORE DUP1 PUSH0 PUSH20 0xFFFFFFFFFFFFFFFFFFFFFFFFFFFFFFFFFFFFFFFF AND DUP2 MSTORE PUSH1 0x20 ADD PUSH0 DUP2 MSTORE POP PUSH1 0x5 PUSH0 DUP3 ADD MLOAD DUP2 PUSH0 ADD PUSH0 PUSH2 0x100 EXP DUP2 SLOAD DUP2 PUSH20 0xFFFFFFFFFFFFFFFFFFFFFFFFFFFFFFFFFFFFFFFF MUL NOT AND SWAP1 DUP4 PUSH20 0xFFFFFFFFFFFFFFFFFFFFFFFFFFFFFFFFFFFFFFFF AND MUL OR SWAP1 SSTORE POP PUSH1 0x20 DUP3 ADD MLOAD DUP2 PUSH1 0x1 ADD SSTORE SWAP1 POP POP PUSH32 0xC7273685091EEA5DE621DC030640E4B290669DBFBA417608758B761CE92BE5D DUP4 DUP4 DUP4 PUSH1 0x40 MLOAD PUSH2 0xBC0 SWAP4 SWAP3 SWAP2 SWAP1 PUSH2 0x17B9 JUMP JUMPDEST PUSH1 0x40 MLOAD DUP1 SWAP2 SUB SWAP1 LOG1 POP POP POP JUMP JUMPDEST PUSH1 0x5 DUP1 PUSH0 ADD PUSH0 SWAP1 SLOAD SWAP1 PUSH2 0x100 EXP SWAP1 DIV PUSH20 0xFFFFFFFFFFFFFFFFFFFFFFFFFFFFFFFFFFFFFFFF AND SWAP1 DUP1 PUSH1 0x1 ADD SLOAD SWAP1 POP DUP3 JUMP JUMPDEST PUSH0 PUSH0 PUSH1 0x5 PUSH0 ADD PUSH0 SWAP1 SLOAD SWAP1 PUSH2 0x100 EXP SWAP1 DIV PUSH20 0xFFFFFFFFFFFFFFFFFFFFFFFFFFFFFFFFFFFFFFFF AND PUSH1 0x5 PUSH1 0x1 ADD SLOAD SWAP2 POP SWAP2 POP SWAP1 SWAP2 JUMP JUMPDEST PUSH1 0x8 PUSH1 0x20 MSTORE DUP1 PUSH0 MSTORE PUSH1 0x40 PUSH0 KECCAK256 PUSH0 SWAP2 POP SWAP1 POP SLOAD DUP2 JUMP JUMPDEST PUSH0 PUSH1 0x40 MLOAD SWAP1 POP SWAP1 JUMP JUMPDEST PUSH0 PUSH0 REVERT JUMPDEST PUSH0 PUSH0 REVERT JUMPDEST PUSH0 PUSH20 0xFFFFFFFFFFFFFFFFFFFFFFFFFFFFFFFFFFFFFFFF DUP3 AND SWAP1 POP SWAP2 SWAP1 POP JUMP JUMPDEST PUSH0 PUSH2 0xC80 DUP3 PUSH2 0xC57 JUMP JUMPDEST SWAP1 POP SWAP2 SWAP1 POP JUMP JUMPDEST PUSH2 0xC90 DUP2 PUSH2 0xC76 JUMP JUMPDEST DUP2 EQ PUSH2 0xC9A JUMPI PUSH0 PUSH0 REVERT JUMPDEST POP JUMP JUMPDEST PUSH0 DUP2 CALLDATALOAD SWAP1 POP PUSH2 0xCAB DUP2 PUSH2 0xC87 JUMP JUMPDEST SWAP3 SWAP2 POP POP JUMP JUMPDEST PUSH0 PUSH1 0x20 DUP3 DUP5 SUB SLT ISZERO PUSH2 0xCC6 JUMPI PUSH2 0xCC5 PUSH2 0xC4F JUMP JUMPDEST JUMPDEST PUSH0 PUSH2 0xCD3 DUP5 DUP3 DUP6 ADD PUSH2 0xC9D JUMP JUMPDEST SWAP2 POP POP SWAP3 SWAP2 POP POP JUMP JUMPDEST PUSH0 DUP2 ISZERO ISZERO SWAP1 POP SWAP2 SWAP1 POP JUMP JUMPDEST PUSH2 0xCF0 DUP2 PUSH2 0xCDC JUMP JUMPDEST DUP3 MSTORE POP POP JUMP JUMPDEST PUSH0 PUSH1 0x20 DUP3 ADD SWAP1 POP PUSH2 0xD09 PUSH0 DUP4 ADD DUP5 PUSH2 0xCE7 JUMP JUMPDEST SWAP3 SWAP2 POP POP JUMP JUMPDEST PUSH2 0xD18 DUP2 PUSH2 0xC76 JUMP JUMPDEST DUP3 MSTORE POP POP JUMP JUMPDEST PUSH0 DUP2 MLOAD SWAP1 POP SWAP2 SWAP1 POP JUMP JUMPDEST PUSH0 DUP3 DUP3 MSTORE PUSH1 0x20 DUP3 ADD SWAP1 POP SWAP3 SWAP2 POP POP JUMP JUMPDEST DUP3 DUP2 DUP4 MCOPY PUSH0 DUP4 DUP4 ADD MSTORE POP POP POP JUMP JUMPDEST PUSH0 PUSH1 0x1F NOT PUSH1 0x1F DUP4 ADD AND SWAP1 POP SWAP2 SWAP1 POP JUMP JUMPDEST PUSH0 PUSH2 0xD60 DUP3 PUSH2 0xD1E JUMP JUMPDEST PUSH2 0xD6A DUP2 DUP6 PUSH2 0xD28 JUMP JUMPDEST SWAP4 POP PUSH2 0xD7A DUP2 DUP6 PUSH1 0x20 DUP7 ADD PUSH2 0xD38 JUMP JUMPDEST PUSH2 0xD83 DUP2 PUSH2 0xD46 JUMP JUMPDEST DUP5 ADD SWAP2 POP POP SWAP3 SWAP2 POP POP JUMP JUMPDEST PUSH0 DUP2 SWAP1 POP SWAP2 SWAP1 POP JUMP JUMPDEST PUSH2 0xDA0 DUP2 PUSH2 0xD8E JUMP JUMPDEST DUP3 MSTORE POP POP JUMP JUMPDEST PUSH0 PUSH1 0x80 DUP3 ADD SWAP1 POP PUSH2 0xDB9 PUSH0 DUP4 ADD DUP8 PUSH2 0xD0F JUMP JUMPDEST DUP2 DUP2 SUB PUSH1 0x20 DUP4 ADD MSTORE PUSH2 0xDCB DUP2 DUP7 PUSH2 0xD56 JUMP JUMPDEST SWAP1 POP PUSH2 0xDDA PUSH1 0x40 DUP4 ADD DUP6 PUSH2 0xD97 JUMP JUMPDEST PUSH2 0xDE7 PUSH1 0x60 DUP4 ADD DUP5 PUSH2 0xD97 JUMP JUMPDEST SWAP6 SWAP5 POP POP POP POP POP JUMP JUMPDEST PUSH0 PUSH0 REVERT JUMPDEST PUSH0 PUSH0 REVERT JUMPDEST PUSH32 0x4E487B7100000000000000000000000000000000000000000000000000000000 PUSH0 MSTORE PUSH1 0x41 PUSH1 0x4 MSTORE PUSH1 0x24 PUSH0 REVERT JUMPDEST PUSH2 0xE2E DUP3 PUSH2 0xD46 JUMP JUMPDEST DUP2 ADD DUP2 DUP2 LT PUSH8 0xFFFFFFFFFFFFFFFF DUP3 GT OR ISZERO PUSH2 0xE4D JUMPI PUSH2 0xE4C PUSH2 0xDF8 JUMP JUMPDEST JUMPDEST DUP1 PUSH1 0x40 MSTORE POP POP POP JUMP JUMPDEST PUSH0 PUSH2 0xE5F PUSH2 0xC46 JUMP JUMPDEST SWAP1 POP PUSH2 0xE6B DUP3 DUP3 PUSH2 0xE25 JUMP JUMPDEST SWAP2 SWAP1 POP JUMP JUMPDEST PUSH0 PUSH8 0xFFFFFFFFFFFFFFFF DUP3 GT ISZERO PUSH2 0xE8A JUMPI PUSH2 0xE89 PUSH2 0xDF8 JUMP JUMPDEST JUMPDEST PUSH2 0xE93 DUP3 PUSH2 0xD46 JUMP JUMPDEST SWAP1 POP PUSH1 0x20 DUP2 ADD SWAP1 POP SWAP2 SWAP1 POP JUMP JUMPDEST DUP3 DUP2 DUP4 CALLDATACOPY PUSH0 DUP4 DUP4 ADD MSTORE POP POP POP JUMP JUMPDEST PUSH0 PUSH2 0xEC0 PUSH2 0xEBB DUP5 PUSH2 0xE70 JUMP JUMPDEST PUSH2 0xE56 JUMP JUMPDEST SWAP1 POP DUP3 DUP2 MSTORE PUSH1 0x20 DUP2 ADD DUP5 DUP5 DUP5 ADD GT ISZERO PUSH2 0xEDC JUMPI PUSH2 0xEDB PUSH2 0xDF4 JUMP JUMPDEST JUMPDEST PUSH2 0xEE7 DUP5 DUP3 DUP6 PUSH2 0xEA0 JUMP JUMPDEST POP SWAP4 SWAP3 POP POP POP JUMP JUMPDEST PUSH0 DUP3 PUSH1 0x1F DUP4 ADD SLT PUSH2 0xF03 JUMPI PUSH2 0xF02 PUSH2 0xDF0 JUMP JUMPDEST JUMPDEST DUP2 CALLDATALOAD PUSH2 0xF13 DUP5 DUP3 PUSH1 0x20 DUP7 ADD PUSH2 0xEAE JUMP JUMPDEST SWAP2 POP POP SWAP3 SWAP2 POP POP JUMP JUMPDEST PUSH2 0xF25 DUP2 PUSH2 0xD8E JUMP JUMPDEST DUP2 EQ PUSH2 0xF2F JUMPI PUSH0 PUSH0 REVERT JUMPDEST POP JUMP JUMPDEST PUSH0 DUP2 CALLDATALOAD SWAP1 POP PUSH2 0xF40 DUP2 PUSH2 0xF1C JUMP JUMPDEST SWAP3 SWAP2 POP POP JUMP JUMPDEST PUSH0 PUSH0 PUSH0 PUSH1 0x60 DUP5 DUP7 SUB SLT ISZERO PUSH2 0xF5D JUMPI PUSH2 0xF5C PUSH2 0xC4F JUMP JUMPDEST JUMPDEST PUSH0 DUP5 ADD CALLDATALOAD PUSH8 0xFFFFFFFFFFFFFFFF DUP2 GT ISZERO PUSH2 0xF7A JUMPI PUSH2 0xF79 PUSH2 0xC53 JUMP JUMPDEST JUMPDEST PUSH2 0xF86 DUP7 DUP3 DUP8 ADD PUSH2 0xEEF JUMP JUMPDEST SWAP4 POP POP PUSH1 0x20 PUSH2 0xF97 DUP7 DUP3 DUP8 ADD PUSH2 0xF32 JUMP JUMPDEST SWAP3 POP POP PUSH1 0x40 PUSH2 0xFA8 DUP7 DUP3 DUP8 ADD PUSH2 0xF32 JUMP JUMPDEST SWAP2 POP POP SWAP3 POP SWAP3 POP SWAP3 JUMP JUMPDEST PUSH0 PUSH1 0x40 DUP3 ADD SWAP1 POP PUSH2 0xFC5 PUSH0 DUP4 ADD DUP6 PUSH2 0xD0F JUMP JUMPDEST PUSH2 0xFD2 PUSH1 0x20 DUP4 ADD DUP5 PUSH2 0xD97 JUMP JUMPDEST SWAP4 SWAP3 POP POP POP JUMP JUMPDEST PUSH0 PUSH1 0x20 DUP3 ADD SWAP1 POP PUSH2 0xFEC PUSH0 DUP4 ADD DUP5 PUSH2 0xD97 JUMP JUMPDEST SWAP3 SWAP2 POP POP JUMP JUMPDEST PUSH32 0x4E6F206861792073756261737461206163746976610000000000000000000000 PUSH0 DUP3 ADD MSTORE POP JUMP JUMPDEST PUSH0 PUSH2 0x1026 PUSH1 0x15 DUP4 PUSH2 0xD28 JUMP JUMPDEST SWAP2 POP PUSH2 0x1031 DUP3 PUSH2 0xFF2 JUMP JUMPDEST PUSH1 0x20 DUP3 ADD SWAP1 POP SWAP2 SWAP1 POP JUMP JUMPDEST PUSH0 PUSH1 0x20 DUP3 ADD SWAP1 POP DUP2 DUP2 SUB PUSH0 DUP4 ADD MSTORE PUSH2 0x1053 DUP2 PUSH2 0x101A JUMP JUMPDEST SWAP1 POP SWAP2 SWAP1 POP JUMP JUMPDEST PUSH32 0x4E6F207469656E6573207065726D69736F20706172612066696E616C697A6172 PUSH0 DUP3 ADD MSTORE POP JUMP JUMPDEST PUSH0 PUSH2 0x108E PUSH1 0x20 DUP4 PUSH2 0xD28 JUMP JUMPDEST SWAP2 POP PUSH2 0x1099 DUP3 PUSH2 0x105A JUMP JUMPDEST PUSH1 0x20 DUP3 ADD SWAP1 POP SWAP2 SWAP1 POP JUMP JUMPDEST PUSH0 PUSH1 0x20 DUP3 ADD SWAP1 POP DUP2 DUP2 SUB PUSH0 DUP4 ADD MSTORE PUSH2 0x10BB DUP2 PUSH2 0x1082 JUMP JUMPDEST SWAP1 POP SWAP2 SWAP1 POP JUMP JUMPDEST PUSH32 0x4C612073756261737461206E6F20657374612061637469766100000000000000 PUSH0 DUP3 ADD MSTORE POP JUMP JUMPDEST PUSH0 PUSH2 0x10F6 PUSH1 0x19 DUP4 PUSH2 0xD28 JUMP JUMPDEST SWAP2 POP PUSH2 0x1101 DUP3 PUSH2 0x10C2 JUMP JUMPDEST PUSH1 0x20 DUP3 ADD SWAP1 POP SWAP2 SWAP1 POP JUMP JUMPDEST PUSH0 PUSH1 0x20 DUP3 ADD SWAP1 POP DUP2 DUP2 SUB PUSH0 DUP4 ADD MSTORE PUSH2 0x1123 DUP2 PUSH2 0x10EA JUMP JUMPDEST SWAP1 POP SWAP2 SWAP1 POP JUMP JUMPDEST PUSH32 0x4C61207375626173746120686120657870697261646F00000000000000000000 PUSH0 DUP3 ADD MSTORE POP JUMP JUMPDEST PUSH0 PUSH2 0x115E PUSH1 0x16 DUP4 PUSH2 0xD28 JUMP JUMPDEST SWAP2 POP PUSH2 0x1169 DUP3 PUSH2 0x112A JUMP JUMPDEST PUSH1 0x20 DUP3 ADD SWAP1 POP SWAP2 SWAP1 POP JUMP JUMPDEST PUSH0 PUSH1 0x20 DUP3 ADD SWAP1 POP DUP2 DUP2 SUB PUSH0 DUP4 ADD MSTORE PUSH2 0x118B DUP2 PUSH2 0x1152 JUMP JUMPDEST SWAP1 POP SWAP2 SWAP1 POP JUMP JUMPDEST PUSH32 0x4E6F206573746173207265676973747261646F20636F6D6F206F666572656E74 PUSH0 DUP3 ADD MSTORE PUSH32 0x6500000000000000000000000000000000000000000000000000000000000000 PUSH1 0x20 DUP3 ADD MSTORE POP JUMP JUMPDEST PUSH0 PUSH2 0x11EC PUSH1 0x21 DUP4 PUSH2 0xD28 JUMP JUMPDEST SWAP2 POP PUSH2 0x11F7 DUP3 PUSH2 0x1192 JUMP JUMPDEST PUSH1 0x40 DUP3 ADD SWAP1 POP SWAP2 SWAP1 POP JUMP JUMPDEST PUSH0 PUSH1 0x20 DUP3 ADD SWAP1 POP DUP2 DUP2 SUB PUSH0 DUP4 ADD MSTORE PUSH2 0x1219 DUP2 PUSH2 0x11E0 JUMP JUMPDEST SWAP1 POP SWAP2 SWAP1 POP JUMP JUMPDEST PUSH32 0x4465626573206F66657274617220616C206D656E6F7320656C206D6F6E746F20 PUSH0 DUP3 ADD MSTORE PUSH32 0x6261736500000000000000000000000000000000000000000000000000000000 PUSH1 0x20 DUP3 ADD MSTORE POP JUMP JUMPDEST PUSH0 PUSH2 0x127A PUSH1 0x24 DUP4 PUSH2 0xD28 JUMP JUMPDEST SWAP2 POP PUSH2 0x1285 DUP3 PUSH2 0x1220 JUMP JUMPDEST PUSH1 0x40 DUP3 ADD SWAP1 POP SWAP2 SWAP1 POP JUMP JUMPDEST PUSH0 PUSH1 0x20 DUP3 ADD SWAP1 POP DUP2 DUP2 SUB PUSH0 DUP4 ADD MSTORE PUSH2 0x12A7 DUP2 PUSH2 0x126E JUMP JUMPDEST SWAP1 POP SWAP2 SWAP1 POP JUMP JUMPDEST PUSH32 0x5475206F666572746120646562652073757065726172206C612061637475616C PUSH0 DUP3 ADD MSTORE POP JUMP JUMPDEST PUSH0 PUSH2 0x12E2 PUSH1 0x20 DUP4 PUSH2 0xD28 JUMP JUMPDEST SWAP2 POP PUSH2 0x12ED DUP3 PUSH2 0x12AE JUMP JUMPDEST PUSH1 0x20 DUP3 ADD SWAP1 POP SWAP2 SWAP1 POP JUMP JUMPDEST PUSH0 PUSH1 0x20 DUP3 ADD SWAP1 POP DUP2 DUP2 SUB PUSH0 DUP4 ADD MSTORE PUSH2 0x130F DUP2 PUSH2 0x12D6 JUMP JUMPDEST SWAP1 POP SWAP2 SWAP1 POP JUMP JUMPDEST PUSH32 0x4E487B7100000000000000000000000000000000000000000000000000000000 PUSH0 MSTORE PUSH1 0x22 PUSH1 0x4 MSTORE PUSH1 0x24 PUSH0 REVERT JUMPDEST PUSH0 PUSH1 0x2 DUP3 DIV SWAP1 POP PUSH1 0x1 DUP3 AND DUP1 PUSH2 0x135A JUMPI PUSH1 0x7F DUP3 AND SWAP2 POP JUMPDEST PUSH1 0x20 DUP3 LT DUP2 SUB PUSH2 0x136D JUMPI PUSH2 0x136C PUSH2 0x1316 JUMP JUMPDEST JUMPDEST POP SWAP2 SWAP1 POP JUMP JUMPDEST PUSH32 0x5961206573746173207265676973747261646F00000000000000000000000000 PUSH0 DUP3 ADD MSTORE POP JUMP JUMPDEST PUSH0 PUSH2 0x13A7 PUSH1 0x13 DUP4 PUSH2 0xD28 JUMP JUMPDEST SWAP2 POP PUSH2 0x13B2 DUP3 PUSH2 0x1373 JUMP JUMPDEST PUSH1 0x20 DUP3 ADD SWAP1 POP SWAP2 SWAP1 POP JUMP JUMPDEST PUSH0 PUSH1 0x20 DUP3 ADD SWAP1 POP DUP2 DUP2 SUB PUSH0 DUP4 ADD MSTORE PUSH2 0x13D4 DUP2 PUSH2 0x139B JUMP JUMPDEST SWAP1 POP SWAP2 SWAP1 POP JUMP JUMPDEST PUSH0 PUSH1 0x20 DUP3 ADD SWAP1 POP PUSH2 0x13EE PUSH0 DUP4 ADD DUP5 PUSH2 0xD0F JUMP JUMPDEST SWAP3 SWAP2 POP POP JUMP JUMPDEST PUSH32 0x536F6C6F20656C2061646D696E6973747261646F72207075656465207265616C PUSH0 DUP3 ADD MSTORE PUSH32 0x697A6172206573746120616363696F6E00000000000000000000000000000000 PUSH1 0x20 DUP3 ADD MSTORE POP JUMP JUMPDEST PUSH0 PUSH2 0x144E PUSH1 0x30 DUP4 PUSH2 0xD28 JUMP JUMPDEST SWAP2 POP PUSH2 0x1459 DUP3 PUSH2 0x13F4 JUMP JUMPDEST PUSH1 0x40 DUP3 ADD SWAP1 POP SWAP2 SWAP1 POP JUMP JUMPDEST PUSH0 PUSH1 0x20 DUP3 ADD SWAP1 POP DUP2 DUP2 SUB PUSH0 DUP4 ADD MSTORE PUSH2 0x147B DUP2 PUSH2 0x1442 JUMP JUMPDEST SWAP1 POP SWAP2 SWAP1 POP JUMP JUMPDEST PUSH32 0x59612068617920756E6120737562617374612061637469766100000000000000 PUSH0 DUP3 ADD MSTORE POP JUMP JUMPDEST PUSH0 PUSH2 0x14B6 PUSH1 0x19 DUP4 PUSH2 0xD28 JUMP JUMPDEST SWAP2 POP PUSH2 0x14C1 DUP3 PUSH2 0x1482 JUMP JUMPDEST PUSH1 0x20 DUP3 ADD SWAP1 POP SWAP2 SWAP1 POP JUMP JUMPDEST PUSH0 PUSH1 0x20 DUP3 ADD SWAP1 POP DUP2 DUP2 SUB PUSH0 DUP4 ADD MSTORE PUSH2 0x14E3 DUP2 PUSH2 0x14AA JUMP JUMPDEST SWAP1 POP SWAP2 SWAP1 POP JUMP JUMPDEST PUSH0 DUP2 SWAP1 POP DUP2 PUSH0 MSTORE PUSH1 0x20 PUSH0 KECCAK256 SWAP1 POP SWAP2 SWAP1 POP JUMP JUMPDEST PUSH0 PUSH1 0x20 PUSH1 0x1F DUP4 ADD DIV SWAP1 POP SWAP2 SWAP1 POP JUMP JUMPDEST PUSH0 DUP3 DUP3 SHL SWAP1 POP SWAP3 SWAP2 POP POP JUMP JUMPDEST PUSH0 PUSH1 0x8 DUP4 MUL PUSH2 0x1546 PUSH32 0xFFFFFFFFFFFFFFFFFFFFFFFFFFFFFFFFFFFFFFFFFFFFFFFFFFFFFFFFFFFFFFFF DUP3 PUSH2 0x150B JUMP JUMPDEST PUSH2 0x1550 DUP7 DUP4 PUSH2 0x150B JUMP JUMPDEST SWAP6 POP DUP1 NOT DUP5 AND SWAP4 POP DUP1 DUP7 AND DUP5 OR SWAP3 POP POP POP SWAP4 SWAP3 POP POP POP JUMP JUMPDEST PUSH0 DUP2 SWAP1 POP SWAP2 SWAP1 POP JUMP JUMPDEST PUSH0 PUSH2 0x158B PUSH2 0x1586 PUSH2 0x1581 DUP5 PUSH2 0xD8E JUMP JUMPDEST PUSH2 0x1568 JUMP JUMPDEST PUSH2 0xD8E JUMP JUMPDEST SWAP1 POP SWAP2 SWAP1 POP JUMP JUMPDEST PUSH0 DUP2 SWAP1 POP SWAP2 SWAP1 POP JUMP JUMPDEST PUSH2 0x15A4 DUP4 PUSH2 0x1571 JUMP JUMPDEST PUSH2 0x15B8 PUSH2 0x15B0 DUP3 PUSH2 0x1592 JUMP JUMPDEST DUP5 DUP5 SLOAD PUSH2 0x1517 JUMP JUMPDEST DUP3 SSTORE POP POP POP POP JUMP JUMPDEST PUSH0 PUSH0 SWAP1 POP SWAP1 JUMP JUMPDEST PUSH2 0x15CF PUSH2 0x15C0 JUMP JUMPDEST PUSH2 0x15DA DUP2 DUP5 DUP5 PUSH2 0x159B JUMP JUMPDEST POP POP POP JUMP JUMPDEST JUMPDEST DUP2 DUP2 LT ISZERO PUSH2 0x15FD JUMPI PUSH2 0x15F2 PUSH0 DUP3 PUSH2 0x15C7 JUMP JUMPDEST PUSH1 0x1 DUP2 ADD SWAP1 POP PUSH2 0x15E0 JUMP JUMPDEST POP POP JUMP JUMPDEST PUSH1 0x1F DUP3 GT ISZERO PUSH2 0x1642 JUMPI PUSH2 0x1613 DUP2 PUSH2 0x14EA JUMP JUMPDEST PUSH2 0x161C DUP5 PUSH2 0x14FC JUMP JUMPDEST DUP2 ADD PUSH1 0x20 DUP6 LT ISZERO PUSH2 0x162B JUMPI DUP2 SWAP1 POP JUMPDEST PUSH2 0x163F PUSH2 0x1637 DUP6 PUSH2 0x14FC JUMP JUMPDEST DUP4 ADD DUP3 PUSH2 0x15DF JUMP JUMPDEST POP POP JUMPDEST POP POP POP JUMP JUMPDEST PUSH0 DUP3 DUP3 SHR SWAP1 POP SWAP3 SWAP2 POP POP JUMP JUMPDEST PUSH0 PUSH2 0x1662 PUSH0 NOT DUP5 PUSH1 0x8 MUL PUSH2 0x1647 JUMP JUMPDEST NOT DUP1 DUP4 AND SWAP2 POP POP SWAP3 SWAP2 POP POP JUMP JUMPDEST PUSH0 PUSH2 0x167A DUP4 DUP4 PUSH2 0x1653 JUMP JUMPDEST SWAP2 POP DUP3 PUSH1 0x2 MUL DUP3 OR SWAP1 POP SWAP3 SWAP2 POP POP JUMP JUMPDEST PUSH2 0x1693 DUP3 PUSH2 0xD1E JUMP JUMPDEST PUSH8 0xFFFFFFFFFFFFFFFF DUP2 GT ISZERO PUSH2 0x16AC JUMPI PUSH2 0x16AB PUSH2 0xDF8 JUMP JUMPDEST JUMPDEST PUSH2 0x16B6 DUP3 SLOAD PUSH2 0x1343 JUMP JUMPDEST PUSH2 0x16C1 DUP3 DUP3 DUP6 PUSH2 0x1601 JUMP JUMPDEST PUSH0 PUSH1 0x20 SWAP1 POP PUSH1 0x1F DUP4 GT PUSH1 0x1 DUP2 EQ PUSH2 0x16F2 JUMPI PUSH0 DUP5 ISZERO PUSH2 0x16E0 JUMPI DUP3 DUP8 ADD MLOAD SWAP1 POP JUMPDEST PUSH2 0x16EA DUP6 DUP3 PUSH2 0x166F JUMP JUMPDEST DUP7 SSTORE POP PUSH2 0x1751 JUMP JUMPDEST PUSH1 0x1F NOT DUP5 AND PUSH2 0x1700 DUP7 PUSH2 0x14EA JUMP JUMPDEST PUSH0 JUMPDEST DUP3 DUP2 LT ISZERO PUSH2 0x1727 JUMPI DUP5 DUP10 ADD MLOAD DUP3 SSTORE PUSH1 0x1 DUP3 ADD SWAP2 POP PUSH1 0x20 DUP6 ADD SWAP5 POP PUSH1 0x20 DUP2 ADD SWAP1 POP PUSH2 0x1702 JUMP JUMPDEST DUP7 DUP4 LT ISZERO PUSH2 0x1744 JUMPI DUP5 DUP10 ADD MLOAD PUSH2 0x1740 PUSH1 0x1F DUP10 AND DUP3 PUSH2 0x1653 JUMP JUMPDEST DUP4 SSTORE POP JUMPDEST PUSH1 0x1 PUSH1 0x2 DUP9 MUL ADD DUP9 SSTORE POP POP POP JUMPDEST POP POP POP POP POP POP JUMP JUMPDEST PUSH32 0x4E487B7100000000000000000000000000000000000000000000000000000000 PUSH0 MSTORE PUSH1 0x11 PUSH1 0x4 MSTORE PUSH1 0x24 PUSH0 REVERT JUMPDEST PUSH0 PUSH2 0x1790 DUP3 PUSH2 0xD8E JUMP JUMPDEST SWAP2 POP PUSH2 0x179B DUP4 PUSH2 0xD8E JUMP JUMPDEST SWAP3 POP DUP3 DUP3 ADD SWAP1 POP DUP1 DUP3 GT ISZERO PUSH2 0x17B3 JUMPI PUSH2 0x17B2 PUSH2 0x1759 JUMP JUMPDEST JUMPDEST SWAP3 SWAP2 POP POP JUMP JUMPDEST PUSH0 PUSH1 0x60 DUP3 ADD SWAP1 POP DUP2 DUP2 SUB PUSH0 DUP4 ADD MSTORE PUSH2 0x17D1 DUP2 DUP7 PUSH2 0xD56 JUMP JUMPDEST SWAP1 POP PUSH2 0x17E0 PUSH1 0x20 DUP4 ADD DUP6 PUSH2 0xD97 JUMP JUMPDEST PUSH2 0x17ED PUSH1 0x40 DUP4 ADD DUP5 PUSH2 0xD97 JUMP JUMPDEST SWAP5 SWAP4 POP POP POP POP JUMP INVALID LOG2 PUSH5 0x6970667358 0x22 SLT KECCAK256 0xF7 SGT 0xBB KECCAK256 0xAD CALLF 0x5405 0x4B XOR 0xAA SWAP2 0xF PC PUSH27 0x56A0FC9E5281EB368DE2D3B129855AB2BE64736F6C634300081E00 CALLER "
				},
				"gasEstimates": {
					"creation": {
						"codeDepositCost": "1237400",
						"executionCost": "49820",
						"totalCost": "1287220"
					},
					"external": {
						"crearSubasta(string,uint256,uint256)": "infinite",
						"finalizarSubasta()": "infinite",
						"mejorOferta()": "4798",
						"oferentesRegistrados(address)": "2878",
						"ofertar()": "infinite",
						"ofertas(address)": "2912",
						"registrarseComoOferente()": "27995",
						"subasta()": "infinite",
						"subastaActiva()": "2532",
						"subastaFinalizada()": "2516",
						"verOfertaActual()": "4826"
					}
				},
				"methodIdentifiers": {
					"crearSubasta(string,uint256,uint256)": "a8e46f7e",
					"finalizarSubasta()": "0851eac2",
					"mejorOferta()": "acfc9f98",
					"oferentesRegistrados(address)": "44d07a8b",
					"ofertar()": "3ec059d7",
					"ofertas(address)": "ef871c2d",
					"registrarseComoOferente()": "8f68efca",
					"subasta()": "613bf822",
					"subastaActiva()": "5dfe78f7",
					"subastaFinalizada()": "6a390902",
					"verOfertaActual()": "e752f4ab"
				}
			},
			"storageLayout": {
				"storage": [
					{
						"astId": 3,
						"contract": "contracts/ContratoSubasta.sol:ContratoSubasta",
						"label": "subastaActiva",
						"offset": 0,
						"slot": "0",
						"type": "t_bool"
					},
					{
						"astId": 5,
						"contract": "contracts/ContratoSubasta.sol:ContratoSubasta",
						"label": "subastaFinalizada",
						"offset": 1,
						"slot": "0",
						"type": "t_bool"
					},
					{
						"astId": 17,
						"contract": "contracts/ContratoSubasta.sol:ContratoSubasta",
						"label": "subasta",
						"offset": 0,
						"slot": "1",
						"type": "t_struct(Subasta)14_storage"
					},
					{
						"astId": 25,
						"contract": "contracts/ContratoSubasta.sol:ContratoSubasta",
						"label": "mejorOferta",
						"offset": 0,
						"slot": "5",
						"type": "t_struct(MejorOferta)22_storage"
					},
					{
						"astId": 29,
						"contract": "contracts/ContratoSubasta.sol:ContratoSubasta",
						"label": "oferentesRegistrados",
						"offset": 0,
						"slot": "7",
						"type": "t_mapping(t_address,t_bool)"
					},
					{
						"astId": 33,
						"contract": "contracts/ContratoSubasta.sol:ContratoSubasta",
						"label": "ofertas",
						"offset": 0,
						"slot": "8",
						"type": "t_mapping(t_address,t_uint256)"
					}
				],
				"types": {
					"t_address": {
						"encoding": "inplace",
						"label": "address",
						"numberOfBytes": "20"
					},
					"t_bool": {
						"encoding": "inplace",
						"label": "bool",
						"numberOfBytes": "1"
					},
					"t_mapping(t_address,t_bool)": {
						"encoding": "mapping",
						"key": "t_address",
						"label": "mapping(address => bool)",
						"numberOfBytes": "32",
						"value": "t_bool"
					},
					"t_mapping(t_address,t_uint256)": {
						"encoding": "mapping",
						"key": "t_address",
						"label": "mapping(address => uint256)",
						"numberOfBytes": "32",
						"value": "t_uint256"
					},
					"t_string_storage": {
						"encoding": "bytes",
						"label": "string",
						"numberOfBytes": "32"
					},
					"t_struct(MejorOferta)22_storage": {
						"encoding": "inplace",
						"label": "struct ContratoSubasta.MejorOferta",
						"members": [
							{
								"astId": 19,
								"contract": "contracts/ContratoSubasta.sol:ContratoSubasta",
								"label": "ofertante",
								"offset": 0,
								"slot": "0",
								"type": "t_address"
							},
							{
								"astId": 21,
								"contract": "contracts/ContratoSubasta.sol:ContratoSubasta",
								"label": "monto",
								"offset": 0,
								"slot": "1",
								"type": "t_uint256"
							}
						],
						"numberOfBytes": "64"
					},
					"t_struct(Subasta)14_storage": {
						"encoding": "inplace",
						"label": "struct ContratoSubasta.Subasta",
						"members": [
							{
								"astId": 7,
								"contract": "contracts/ContratoSubasta.sol:ContratoSubasta",
								"label": "administrador",
								"offset": 0,
								"slot": "0",
								"type": "t_address"
							},
							{
								"astId": 9,
								"contract": "contracts/ContratoSubasta.sol:ContratoSubasta",
								"label": "articulo",
								"offset": 0,
								"slot": "1",
								"type": "t_string_storage"
							},
							{
								"astId": 11,
								"contract": "contracts/ContratoSubasta.sol:ContratoSubasta",
								"label": "montoBase",
								"offset": 0,
								"slot": "2",
								"type": "t_uint256"
							},
							{
								"astId": 13,
								"contract": "contracts/ContratoSubasta.sol:ContratoSubasta",
								"label": "tiempoLimite",
								"offset": 0,
								"slot": "3",
								"type": "t_uint256"
							}
						],
						"numberOfBytes": "128"
					},
					"t_uint256": {
						"encoding": "inplace",
						"label": "uint256",
						"numberOfBytes": "32"
					}
				}
			},
			"userdoc": {
				"kind": "user",
				"methods": {},
				"version": 1
			}
		}
	}
}