{
	"contracts/Usuarios.sol": {
		"Usuarios": {
			"abi": [
				{
					"inputs": [],
					"stateMutability": "nonpayable",
					"type": "constructor"
				},
				{
					"anonymous": false,
					"inputs": [
						{
							"indexed": false,
							"internalType": "address",
							"name": "cuenta",
							"type": "address"
						}
					],
					"name": "GuiaEliminado",
					"type": "event"
				},
				{
					"anonymous": false,
					"inputs": [
						{
							"indexed": false,
							"internalType": "address",
							"name": "cuenta",
							"type": "address"
						},
						{
							"indexed": false,
							"internalType": "string",
							"name": "nombre",
							"type": "string"
						}
					],
					"name": "GuiaRegistrado",
					"type": "event"
				},
				{
					"anonymous": false,
					"inputs": [
						{
							"indexed": false,
							"internalType": "address",
							"name": "turista",
							"type": "address"
						}
					],
					"name": "TuristaEliminado",
					"type": "event"
				},
				{
					"anonymous": false,
					"inputs": [
						{
							"indexed": false,
							"internalType": "address",
							"name": "cuenta",
							"type": "address"
						},
						{
							"indexed": false,
							"internalType": "string",
							"name": "nombre",
							"type": "string"
						}
					],
					"name": "TuristaRegistrado",
					"type": "event"
				},
				{
					"inputs": [],
					"name": "duenno",
					"outputs": [
						{
							"internalType": "address",
							"name": "",
							"type": "address"
						}
					],
					"stateMutability": "view",
					"type": "function"
				},
				{
					"inputs": [
						{
							"internalType": "address",
							"name": "_cuenta",
							"type": "address"
						}
					],
					"name": "eliminarGuiaTurista",
					"outputs": [
						{
							"internalType": "string",
							"name": "mensaje",
							"type": "string"
						}
					],
					"stateMutability": "nonpayable",
					"type": "function"
				},
				{
					"inputs": [
						{
							"internalType": "address",
							"name": "_cuenta",
							"type": "address"
						}
					],
					"name": "eliminarTurista",
					"outputs": [
						{
							"internalType": "string",
							"name": "mensaje",
							"type": "string"
						}
					],
					"stateMutability": "nonpayable",
					"type": "function"
				},
				{
					"inputs": [
						{
							"internalType": "address",
							"name": "",
							"type": "address"
						}
					],
					"name": "guiasRegistrados",
					"outputs": [
						{
							"internalType": "address",
							"name": "cuenta",
							"type": "address"
						},
						{
							"internalType": "string",
							"name": "nombreCompleto",
							"type": "string"
						},
						{
							"internalType": "bool",
							"name": "estado",
							"type": "bool"
						}
					],
					"stateMutability": "view",
					"type": "function"
				},
				{
					"inputs": [
						{
							"internalType": "uint256",
							"name": "",
							"type": "uint256"
						}
					],
					"name": "listaGuias",
					"outputs": [
						{
							"internalType": "address",
							"name": "cuenta",
							"type": "address"
						},
						{
							"internalType": "string",
							"name": "nombreCompleto",
							"type": "string"
						},
						{
							"internalType": "bool",
							"name": "estado",
							"type": "bool"
						}
					],
					"stateMutability": "view",
					"type": "function"
				},
				{
					"inputs": [
						{
							"internalType": "uint256",
							"name": "",
							"type": "uint256"
						}
					],
					"name": "listaTuristas",
					"outputs": [
						{
							"internalType": "address",
							"name": "cuenta",
							"type": "address"
						},
						{
							"internalType": "string",
							"name": "nombreCompleto",
							"type": "string"
						},
						{
							"internalType": "uint8",
							"name": "edad",
							"type": "uint8"
						},
						{
							"internalType": "bool",
							"name": "estado",
							"type": "bool"
						}
					],
					"stateMutability": "view",
					"type": "function"
				},
				{
					"inputs": [
						{
							"internalType": "address",
							"name": "_cuenta",
							"type": "address"
						},
						{
							"internalType": "string",
							"name": "_nombre",
							"type": "string"
						}
					],
					"name": "registrarGuiaTurista",
					"outputs": [
						{
							"internalType": "string",
							"name": "mensaje",
							"type": "string"
						}
					],
					"stateMutability": "nonpayable",
					"type": "function"
				},
				{
					"inputs": [
						{
							"internalType": "address",
							"name": "_cuenta",
							"type": "address"
						},
						{
							"internalType": "string",
							"name": "_nombre",
							"type": "string"
						},
						{
							"internalType": "uint8",
							"name": "_edad",
							"type": "uint8"
						}
					],
					"name": "registrarTurista",
					"outputs": [
						{
							"internalType": "string",
							"name": "mensaje",
							"type": "string"
						}
					],
					"stateMutability": "nonpayable",
					"type": "function"
				},
				{
					"inputs": [
						{
							"internalType": "address",
							"name": "",
							"type": "address"
						}
					],
					"name": "turistasRegistrados",
					"outputs": [
						{
							"internalType": "address",
							"name": "cuenta",
							"type": "address"
						},
						{
							"internalType": "string",
							"name": "nombreCompleto",
							"type": "string"
						},
						{
							"internalType": "uint8",
							"name": "edad",
							"type": "uint8"
						},
						{
							"internalType": "bool",
							"name": "estado",
							"type": "bool"
						}
					],
					"stateMutability": "view",
					"type": "function"
				},
				{
					"inputs": [
						{
							"internalType": "address",
							"name": "_cuenta",
							"type": "address"
						}
					],
					"name": "verGuia",
					"outputs": [
						{
							"internalType": "address",
							"name": "cuenta",
							"type": "address"
						},
						{
							"internalType": "string",
							"name": "nombre",
							"type": "string"
						},
						{
							"internalType": "bool",
							"name": "activo",
							"type": "bool"
						}
					],
					"stateMutability": "view",
					"type": "function"
				},
				{
					"inputs": [],
					"name": "verGuias",
					"outputs": [
						{
							"components": [
								{
									"internalType": "address",
									"name": "cuenta",
									"type": "address"
								},
								{
									"internalType": "string",
									"name": "nombreCompleto",
									"type": "string"
								},
								{
									"internalType": "bool",
									"name": "estado",
									"type": "bool"
								}
							],
							"internalType": "struct Usuarios.GuiaTuristas[]",
							"name": "resultado",
							"type": "tuple[]"
						}
					],
					"stateMutability": "view",
					"type": "function"
				},
				{
					"inputs": [
						{
							"internalType": "address",
							"name": "_cuenta",
							"type": "address"
						}
					],
					"name": "verTurista",
					"outputs": [
						{
							"internalType": "address",
							"name": "cuenta",
							"type": "address"
						},
						{
							"internalType": "string",
							"name": "nombre",
							"type": "string"
						},
						{
							"internalType": "uint8",
							"name": "edad",
							"type": "uint8"
						},
						{
							"internalType": "bool",
							"name": "activo",
							"type": "bool"
						}
					],
					"stateMutability": "view",
					"type": "function"
				},
				{
					"inputs": [],
					"name": "verTuristas",
					"outputs": [
						{
							"components": [
								{
									"internalType": "address",
									"name": "cuenta",
									"type": "address"
								},
								{
									"internalType": "string",
									"name": "nombreCompleto",
									"type": "string"
								},
								{
									"internalType": "uint8",
									"name": "edad",
									"type": "uint8"
								},
								{
									"internalType": "bool",
									"name": "estado",
									"type": "bool"
								}
							],
							"internalType": "struct Usuarios.Turista[]",
							"name": "resultado",
							"type": "tuple[]"
						}
					],
					"stateMutability": "view",
					"type": "function"
				}
			],
			"devdoc": {
				"kind": "dev",
				"methods": {},
				"version": 1
			},
			"evm": {
				"assembly": "    /* \"contracts/Usuarios.sol\":244:6096  contract Usuarios {... */\n  mstore(0x40, 0x80)\n    /* \"contracts/Usuarios.sol\":895:945  constructor() {... */\n  callvalue\n  dup1\n  iszero\n  tag_1\n  jumpi\n  0x00\n  dup1\n  revert\ntag_1:\n  pop\n    /* \"contracts/Usuarios.sol\":928:938  msg.sender */\n  caller\n    /* \"contracts/Usuarios.sol\":919:925  duenno */\n  0x00\n  dup1\n    /* \"contracts/Usuarios.sol\":919:938  duenno = msg.sender */\n  0x0100\n  exp\n  dup2\n  sload\n  dup2\n  0xffffffffffffffffffffffffffffffffffffffff\n  mul\n  not\n  and\n  swap1\n  dup4\n  0xffffffffffffffffffffffffffffffffffffffff\n  and\n  mul\n  or\n  swap1\n  sstore\n  pop\n    /* \"contracts/Usuarios.sol\":244:6096  contract Usuarios {... */\n  dataSize(sub_0)\n  dup1\n  dataOffset(sub_0)\n  0x00\n  codecopy\n  0x00\n  return\nstop\n\nsub_0: assembly {\n        /* \"contracts/Usuarios.sol\":244:6096  contract Usuarios {... */\n      mstore(0x40, 0x80)\n      callvalue\n      dup1\n      iszero\n      tag_1\n      jumpi\n      0x00\n      dup1\n      revert\n    tag_1:\n      pop\n      jumpi(tag_2, lt(calldatasize, 0x04))\n      shr(0xe0, calldataload(0x00))\n      dup1\n      0x5ac34098\n      gt\n      tag_16\n      jumpi\n      dup1\n      0x966549e5\n      gt\n      tag_17\n      jumpi\n      dup1\n      0x966549e5\n      eq\n      tag_12\n      jumpi\n      dup1\n      0x9dc43f77\n      eq\n      tag_13\n      jumpi\n      dup1\n      0xdb096f25\n      eq\n      tag_14\n      jumpi\n      dup1\n      0xf0963a11\n      eq\n      tag_15\n      jumpi\n      jump(tag_2)\n    tag_17:\n      dup1\n      0x5ac34098\n      eq\n      tag_9\n      jumpi\n      dup1\n      0x711422d6\n      eq\n      tag_10\n      jumpi\n      dup1\n      0x8e12bf87\n      eq\n      tag_11\n      jumpi\n      jump(tag_2)\n    tag_16:\n      dup1\n      0x0e768dbf\n      eq\n      tag_3\n      jumpi\n      dup1\n      0x2bdaa8c9\n      eq\n      tag_4\n      jumpi\n      dup1\n      0x2eb72875\n      eq\n      tag_5\n      jumpi\n      dup1\n      0x40280a63\n      eq\n      tag_6\n      jumpi\n      dup1\n      0x47c58865\n      eq\n      tag_7\n      jumpi\n      dup1\n      0x5922f385\n      eq\n      tag_8\n      jumpi\n    tag_2:\n      0x00\n      dup1\n      revert\n        /* \"contracts/Usuarios.sol\":4970:5748  function eliminarTurista(address _cuenta)... */\n    tag_3:\n      tag_18\n      0x04\n      dup1\n      calldatasize\n      sub\n      dup2\n      add\n      swap1\n      tag_19\n      swap2\n      swap1\n      tag_20\n      jump\t// in\n    tag_19:\n      tag_21\n      jump\t// in\n    tag_18:\n      mload(0x40)\n      tag_22\n      swap2\n      swap1\n      tag_23\n      jump\t// in\n    tag_22:\n      mload(0x40)\n      dup1\n      swap2\n      sub\n      swap1\n      return\n        /* \"contracts/Usuarios.sol\":4204:4964  function eliminarGuiaTurista(address _cuenta)... */\n    tag_4:\n      tag_24\n      0x04\n      dup1\n      calldatasize\n      sub\n      dup2\n      add\n      swap1\n      tag_25\n      swap2\n      swap1\n      tag_20\n      jump\t// in\n    tag_25:\n      tag_26\n      jump\t// in\n    tag_24:\n      mload(0x40)\n      tag_27\n      swap2\n      swap1\n      tag_23\n      jump\t// in\n    tag_27:\n      mload(0x40)\n      dup1\n      swap2\n      sub\n      swap1\n      return\n        /* \"contracts/Usuarios.sol\":1625:2181  function registrarGuiaTurista(address _cuenta, string memory _nombre)... */\n    tag_5:\n      tag_28\n      0x04\n      dup1\n      calldatasize\n      sub\n      dup2\n      add\n      swap1\n      tag_29\n      swap2\n      swap1\n      tag_30\n      jump\t// in\n    tag_29:\n      tag_31\n      jump\t// in\n    tag_28:\n      mload(0x40)\n      tag_32\n      swap2\n      swap1\n      tag_23\n      jump\t// in\n    tag_32:\n      mload(0x40)\n      dup1\n      swap2\n      sub\n      swap1\n      return\n        /* \"contracts/Usuarios.sol\":1065:1119  mapping(address => Turista) public turistasRegistrados */\n    tag_6:\n      tag_33\n      0x04\n      dup1\n      calldatasize\n      sub\n      dup2\n      add\n      swap1\n      tag_34\n      swap2\n      swap1\n      tag_20\n      jump\t// in\n    tag_34:\n      tag_35\n      jump\t// in\n    tag_33:\n      mload(0x40)\n      tag_36\n      swap5\n      swap4\n      swap3\n      swap2\n      swap1\n      tag_37\n      jump\t// in\n    tag_36:\n      mload(0x40)\n      dup1\n      swap2\n      sub\n      swap1\n      return\n        /* \"contracts/Usuarios.sol\":3846:4198  function verTuristas()... */\n    tag_7:\n      tag_38\n      tag_39\n      jump\t// in\n    tag_38:\n      mload(0x40)\n      tag_40\n      swap2\n      swap1\n      tag_41\n      jump\t// in\n    tag_40:\n      mload(0x40)\n      dup1\n      swap2\n      sub\n      swap1\n      return\n        /* \"contracts/Usuarios.sol\":2187:2730  function registrarTurista(... */\n    tag_8:\n      tag_42\n      0x04\n      dup1\n      calldatasize\n      sub\n      dup2\n      add\n      swap1\n      tag_43\n      swap2\n      swap1\n      tag_44\n      jump\t// in\n    tag_43:\n      tag_45\n      jump\t// in\n    tag_42:\n      mload(0x40)\n      tag_46\n      swap2\n      swap1\n      tag_23\n      jump\t// in\n    tag_46:\n      mload(0x40)\n      dup1\n      swap2\n      sub\n      swap1\n      return\n        /* \"contracts/Usuarios.sol\":1003:1059  mapping(address => GuiaTuristas) public guiasRegistrados */\n    tag_9:\n      tag_47\n      0x04\n      dup1\n      calldatasize\n      sub\n      dup2\n      add\n      swap1\n      tag_48\n      swap2\n      swap1\n      tag_20\n      jump\t// in\n    tag_48:\n      tag_49\n      jump\t// in\n    tag_47:\n      mload(0x40)\n      tag_50\n      swap4\n      swap3\n      swap2\n      swap1\n      tag_51\n      jump\t// in\n    tag_50:\n      mload(0x40)\n      dup1\n      swap2\n      sub\n      swap1\n      return\n        /* \"contracts/Usuarios.sol\":820:852  GuiaTuristas[] public listaGuias */\n    tag_10:\n      tag_52\n      0x04\n      dup1\n      calldatasize\n      sub\n      dup2\n      add\n      swap1\n      tag_53\n      swap2\n      swap1\n      tag_54\n      jump\t// in\n    tag_53:\n      tag_55\n      jump\t// in\n    tag_52:\n      mload(0x40)\n      tag_56\n      swap4\n      swap3\n      swap2\n      swap1\n      tag_51\n      jump\t// in\n    tag_56:\n      mload(0x40)\n      dup1\n      swap2\n      sub\n      swap1\n      return\n        /* \"contracts/Usuarios.sol\":3059:3486  function verTurista(address _cuenta)... */\n    tag_11:\n      tag_57\n      0x04\n      dup1\n      calldatasize\n      sub\n      dup2\n      add\n      swap1\n      tag_58\n      swap2\n      swap1\n      tag_20\n      jump\t// in\n    tag_58:\n      tag_59\n      jump\t// in\n    tag_57:\n      mload(0x40)\n      tag_60\n      swap5\n      swap4\n      swap3\n      swap2\n      swap1\n      tag_37\n      jump\t// in\n    tag_60:\n      mload(0x40)\n      dup1\n      swap2\n      sub\n      swap1\n      return\n        /* \"contracts/Usuarios.sol\":3492:3840  function verGuias()... */\n    tag_12:\n      tag_61\n      tag_62\n      jump\t// in\n    tag_61:\n      mload(0x40)\n      tag_63\n      swap2\n      swap1\n      tag_64\n      jump\t// in\n    tag_63:\n      mload(0x40)\n      dup1\n      swap2\n      sub\n      swap1\n      return\n        /* \"contracts/Usuarios.sol\":664:685  address public duenno */\n    tag_13:\n      tag_65\n      tag_66\n      jump\t// in\n    tag_65:\n      mload(0x40)\n      tag_67\n      swap2\n      swap1\n      tag_68\n      jump\t// in\n    tag_67:\n      mload(0x40)\n      dup1\n      swap2\n      sub\n      swap1\n      return\n        /* \"contracts/Usuarios.sol\":2736:3053  function verGuia(address _cuenta)... */\n    tag_14:\n      tag_69\n      0x04\n      dup1\n      calldatasize\n      sub\n      dup2\n      add\n      swap1\n      tag_70\n      swap2\n      swap1\n      tag_20\n      jump\t// in\n    tag_70:\n      tag_71\n      jump\t// in\n    tag_69:\n      mload(0x40)\n      tag_72\n      swap4\n      swap3\n      swap2\n      swap1\n      tag_51\n      jump\t// in\n    tag_72:\n      mload(0x40)\n      dup1\n      swap2\n      sub\n      swap1\n      return\n        /* \"contracts/Usuarios.sol\":858:888  Turista[] public listaTuristas */\n    tag_15:\n      tag_73\n      0x04\n      dup1\n      calldatasize\n      sub\n      dup2\n      add\n      swap1\n      tag_74\n      swap2\n      swap1\n      tag_54\n      jump\t// in\n    tag_74:\n      tag_75\n      jump\t// in\n    tag_73:\n      mload(0x40)\n      tag_76\n      swap5\n      swap4\n      swap3\n      swap2\n      swap1\n      tag_37\n      jump\t// in\n    tag_76:\n      mload(0x40)\n      dup1\n      swap2\n      sub\n      swap1\n      return\n        /* \"contracts/Usuarios.sol\":4970:5748  function eliminarTurista(address _cuenta)... */\n    tag_21:\n        /* \"contracts/Usuarios.sol\":5062:5083  string memory mensaje */\n      0x60\n        /* \"contracts/Usuarios.sol\":1469:1475  duenno */\n      0x00\n      dup1\n      sload\n      swap1\n      0x0100\n      exp\n      swap1\n      div\n      0xffffffffffffffffffffffffffffffffffffffff\n      and\n        /* \"contracts/Usuarios.sol\":1455:1475  msg.sender == duenno */\n      0xffffffffffffffffffffffffffffffffffffffff\n      and\n        /* \"contracts/Usuarios.sol\":1455:1465  msg.sender */\n      caller\n        /* \"contracts/Usuarios.sol\":1455:1475  msg.sender == duenno */\n      0xffffffffffffffffffffffffffffffffffffffff\n      and\n      eq\n        /* \"contracts/Usuarios.sol\":1455:1514  msg.sender == duenno || guiasRegistrados[msg.sender].estado */\n      dup1\n      tag_78\n      jumpi\n      pop\n        /* \"contracts/Usuarios.sol\":1479:1495  guiasRegistrados */\n      0x03\n        /* \"contracts/Usuarios.sol\":1479:1507  guiasRegistrados[msg.sender] */\n      0x00\n        /* \"contracts/Usuarios.sol\":1496:1506  msg.sender */\n      caller\n        /* \"contracts/Usuarios.sol\":1479:1507  guiasRegistrados[msg.sender] */\n      0xffffffffffffffffffffffffffffffffffffffff\n      and\n      0xffffffffffffffffffffffffffffffffffffffff\n      and\n      dup2\n      mstore\n      0x20\n      add\n      swap1\n      dup2\n      mstore\n      0x20\n      add\n      0x00\n      keccak256\n        /* \"contracts/Usuarios.sol\":1479:1514  guiasRegistrados[msg.sender].estado */\n      0x02\n      add\n      0x00\n      swap1\n      sload\n      swap1\n      0x0100\n      exp\n      swap1\n      div\n      0xff\n      and\n        /* \"contracts/Usuarios.sol\":1455:1514  msg.sender == duenno || guiasRegistrados[msg.sender].estado */\n    tag_78:\n        /* \"contracts/Usuarios.sol\":1434:1601  require(... */\n      tag_79\n      jumpi\n      mload(0x40)\n      0x08c379a000000000000000000000000000000000000000000000000000000000\n      dup2\n      mstore\n      0x04\n      add\n      tag_80\n      swap1\n      tag_81\n      jump\t// in\n    tag_80:\n      mload(0x40)\n      dup1\n      swap2\n      sub\n      swap1\n      revert\n    tag_79:\n        /* \"contracts/Usuarios.sol\":5107:5126  turistasRegistrados */\n      0x04\n        /* \"contracts/Usuarios.sol\":5107:5135  turistasRegistrados[_cuenta] */\n      0x00\n        /* \"contracts/Usuarios.sol\":5127:5134  _cuenta */\n      dup4\n        /* \"contracts/Usuarios.sol\":5107:5135  turistasRegistrados[_cuenta] */\n      0xffffffffffffffffffffffffffffffffffffffff\n      and\n      0xffffffffffffffffffffffffffffffffffffffff\n      and\n      dup2\n      mstore\n      0x20\n      add\n      swap1\n      dup2\n      mstore\n      0x20\n      add\n      0x00\n      keccak256\n        /* \"contracts/Usuarios.sol\":5107:5142  turistasRegistrados[_cuenta].estado */\n      0x02\n      add\n      0x01\n      swap1\n      sload\n      swap1\n      0x0100\n      exp\n      swap1\n      div\n      0xff\n      and\n        /* \"contracts/Usuarios.sol\":5099:5164  require(turistasRegistrados[_cuenta].estado, \"Turista no existe\") */\n      tag_83\n      jumpi\n      mload(0x40)\n      0x08c379a000000000000000000000000000000000000000000000000000000000\n      dup2\n      mstore\n      0x04\n      add\n      tag_84\n      swap1\n      tag_85\n      jump\t// in\n    tag_84:\n      mload(0x40)\n      dup1\n      swap2\n      sub\n      swap1\n      revert\n    tag_83:\n        /* \"contracts/Usuarios.sol\":5212:5217  false */\n      0x00\n        /* \"contracts/Usuarios.sol\":5174:5193  turistasRegistrados */\n      0x04\n        /* \"contracts/Usuarios.sol\":5174:5202  turistasRegistrados[_cuenta] */\n      0x00\n        /* \"contracts/Usuarios.sol\":5194:5201  _cuenta */\n      dup5\n        /* \"contracts/Usuarios.sol\":5174:5202  turistasRegistrados[_cuenta] */\n      0xffffffffffffffffffffffffffffffffffffffff\n      and\n      0xffffffffffffffffffffffffffffffffffffffff\n      and\n      dup2\n      mstore\n      0x20\n      add\n      swap1\n      dup2\n      mstore\n      0x20\n      add\n      0x00\n      keccak256\n        /* \"contracts/Usuarios.sol\":5174:5209  turistasRegistrados[_cuenta].estado */\n      0x02\n      add\n      0x01\n        /* \"contracts/Usuarios.sol\":5174:5217  turistasRegistrados[_cuenta].estado = false */\n      0x0100\n      exp\n      dup2\n      sload\n      dup2\n      0xff\n      mul\n      not\n      and\n      swap1\n      dup4\n      iszero\n      iszero\n      mul\n      or\n      swap1\n      sstore\n      pop\n        /* \"contracts/Usuarios.sol\":5232:5257  TuristaEliminado(_cuenta) */\n      0xb132297e629aea39de2a0b95087d354abbad2860bc2dec703085f02ee09e372b\n        /* \"contracts/Usuarios.sol\":5249:5256  _cuenta */\n      dup3\n        /* \"contracts/Usuarios.sol\":5232:5257  TuristaEliminado(_cuenta) */\n      mload(0x40)\n      tag_86\n      swap2\n      swap1\n      tag_68\n      jump\t// in\n    tag_86:\n      mload(0x40)\n      dup1\n      swap2\n      sub\n      swap1\n      log1\n        /* \"contracts/Usuarios.sol\":5274:5283  uint256 i */\n      0x00\n        /* \"contracts/Usuarios.sol\":5269:5696  for (uint256 i = 0; i < listaTuristas.length; i++) {... */\n    tag_87:\n        /* \"contracts/Usuarios.sol\":5293:5306  listaTuristas */\n      0x02\n        /* \"contracts/Usuarios.sol\":5293:5313  listaTuristas.length */\n      dup1\n      sload\n      swap1\n      pop\n        /* \"contracts/Usuarios.sol\":5289:5290  i */\n      dup2\n        /* \"contracts/Usuarios.sol\":5289:5313  i < listaTuristas.length */\n      lt\n        /* \"contracts/Usuarios.sol\":5269:5696  for (uint256 i = 0; i < listaTuristas.length; i++) {... */\n      iszero\n      tag_88\n      jumpi\n        /* \"contracts/Usuarios.sol\":5365:5372  _cuenta */\n      dup3\n        /* \"contracts/Usuarios.sol\":5338:5372  listaTuristas[i].cuenta == _cuenta */\n      0xffffffffffffffffffffffffffffffffffffffff\n      and\n        /* \"contracts/Usuarios.sol\":5338:5351  listaTuristas */\n      0x02\n        /* \"contracts/Usuarios.sol\":5352:5353  i */\n      dup3\n        /* \"contracts/Usuarios.sol\":5338:5354  listaTuristas[i] */\n      dup2\n      sload\n      dup2\n      lt\n      tag_90\n      jumpi\n      mstore(0x00, 0x4e487b7100000000000000000000000000000000000000000000000000000000)\n      mstore(0x04, 0x32)\n      revert(0x00, 0x24)\n    tag_90:\n      swap1\n      0x00\n      mstore\n      keccak256(0x00, 0x20)\n      swap1\n      0x03\n      mul\n      add\n        /* \"contracts/Usuarios.sol\":5338:5361  listaTuristas[i].cuenta */\n      0x00\n      add\n      0x00\n      swap1\n      sload\n      swap1\n      0x0100\n      exp\n      swap1\n      div\n      0xffffffffffffffffffffffffffffffffffffffff\n      and\n        /* \"contracts/Usuarios.sol\":5338:5372  listaTuristas[i].cuenta == _cuenta */\n      0xffffffffffffffffffffffffffffffffffffffff\n      and\n      eq\n        /* \"contracts/Usuarios.sol\":5334:5686  if (listaTuristas[i].cuenta == _cuenta) {... */\n      iszero\n      tag_92\n      jumpi\n        /* \"contracts/Usuarios.sol\":5572:5585  listaTuristas */\n      0x02\n        /* \"contracts/Usuarios.sol\":5609:5610  1 */\n      0x01\n        /* \"contracts/Usuarios.sol\":5586:5599  listaTuristas */\n      0x02\n        /* \"contracts/Usuarios.sol\":5586:5606  listaTuristas.length */\n      dup1\n      sload\n      swap1\n      pop\n        /* \"contracts/Usuarios.sol\":5586:5610  listaTuristas.length - 1 */\n      tag_93\n      swap2\n      swap1\n      tag_94\n      jump\t// in\n    tag_93:\n        /* \"contracts/Usuarios.sol\":5572:5611  listaTuristas[listaTuristas.length - 1] */\n      dup2\n      sload\n      dup2\n      lt\n      tag_95\n      jumpi\n      mstore(0x00, 0x4e487b7100000000000000000000000000000000000000000000000000000000)\n      mstore(0x04, 0x32)\n      revert(0x00, 0x24)\n    tag_95:\n      swap1\n      0x00\n      mstore\n      keccak256(0x00, 0x20)\n      swap1\n      0x03\n      mul\n      add\n        /* \"contracts/Usuarios.sol\":5553:5566  listaTuristas */\n      0x02\n        /* \"contracts/Usuarios.sol\":5567:5568  i */\n      dup3\n        /* \"contracts/Usuarios.sol\":5553:5569  listaTuristas[i] */\n      dup2\n      sload\n      dup2\n      lt\n      tag_97\n      jumpi\n      mstore(0x00, 0x4e487b7100000000000000000000000000000000000000000000000000000000)\n      mstore(0x04, 0x32)\n      revert(0x00, 0x24)\n    tag_97:\n      swap1\n      0x00\n      mstore\n      keccak256(0x00, 0x20)\n      swap1\n      0x03\n      mul\n      add\n        /* \"contracts/Usuarios.sol\":5553:5611  listaTuristas[i] = listaTuristas[listaTuristas.length - 1] */\n      0x00\n      dup3\n      add\n      0x00\n      swap1\n      sload\n      swap1\n      0x0100\n      exp\n      swap1\n      div\n      0xffffffffffffffffffffffffffffffffffffffff\n      and\n      dup2\n      0x00\n      add\n      exp(0x0100, 0x00)\n      dup2\n      sload\n      dup2\n      0xffffffffffffffffffffffffffffffffffffffff\n      mul\n      not\n      and\n      swap1\n      dup4\n      0xffffffffffffffffffffffffffffffffffffffff\n      and\n      mul\n      or\n      swap1\n      sstore\n      pop\n      0x01\n      dup3\n      add\n      dup2\n      0x01\n      add\n      swap1\n      dup1\n      sload\n      tag_99\n      swap1\n      tag_100\n      jump\t// in\n    tag_99:\n      tag_101\n      swap3\n      swap2\n      swap1\n      tag_102\n      jump\t// in\n    tag_101:\n      pop\n      0x02\n      dup3\n      add\n      0x00\n      swap1\n      sload\n      swap1\n      0x0100\n      exp\n      swap1\n      div\n      0xff\n      and\n      dup2\n      0x02\n      add\n      exp(0x0100, 0x00)\n      dup2\n      sload\n      dup2\n      0xff\n      mul\n      not\n      and\n      swap1\n      dup4\n      0xff\n      and\n      mul\n      or\n      swap1\n      sstore\n      pop\n      0x02\n      dup3\n      add\n      0x01\n      swap1\n      sload\n      swap1\n      0x0100\n      exp\n      swap1\n      div\n      0xff\n      and\n      dup2\n      0x02\n      add\n      exp(0x0100, 0x01)\n      dup2\n      sload\n      dup2\n      0xff\n      mul\n      not\n      and\n      swap1\n      dup4\n      iszero\n      iszero\n      mul\n      or\n      swap1\n      sstore\n      pop\n      swap1\n      pop\n      pop\n        /* \"contracts/Usuarios.sol\":5629:5642  listaTuristas */\n      0x02\n        /* \"contracts/Usuarios.sol\":5629:5648  listaTuristas.pop() */\n      dup1\n      sload\n      dup1\n      tag_103\n      jumpi\n      mstore(0x00, 0x4e487b7100000000000000000000000000000000000000000000000000000000)\n      mstore(0x04, 0x31)\n      revert(0x00, 0x24)\n    tag_103:\n      0x01\n      swap1\n      sub\n      dup2\n      dup2\n      swap1\n      0x00\n      mstore\n      keccak256(0x00, 0x20)\n      swap1\n      0x03\n      mul\n      add\n      0x00\n      dup1\n      dup3\n      add\n      exp(0x0100, 0x00)\n      dup2\n      sload\n      swap1\n      0xffffffffffffffffffffffffffffffffffffffff\n      mul\n      not\n      and\n      swap1\n      sstore\n      0x01\n      dup3\n      add\n      0x00\n      tag_105\n      swap2\n      swap1\n      tag_106\n      jump\t// in\n    tag_105:\n      0x02\n      dup3\n      add\n      exp(0x0100, 0x00)\n      dup2\n      sload\n      swap1\n      0xff\n      mul\n      not\n      and\n      swap1\n      sstore\n      0x02\n      dup3\n      add\n      exp(0x0100, 0x01)\n      dup2\n      sload\n      swap1\n      0xff\n      mul\n      not\n      and\n      swap1\n      sstore\n      pop\n      pop\n      swap1\n      sstore\n        /* \"contracts/Usuarios.sol\":5666:5671  break */\n      jump(tag_88)\n        /* \"contracts/Usuarios.sol\":5334:5686  if (listaTuristas[i].cuenta == _cuenta) {... */\n    tag_92:\n        /* \"contracts/Usuarios.sol\":5315:5318  i++ */\n      dup1\n      dup1\n      tag_107\n      swap1\n      tag_108\n      jump\t// in\n    tag_107:\n      swap2\n      pop\n      pop\n        /* \"contracts/Usuarios.sol\":5269:5696  for (uint256 i = 0; i < listaTuristas.length; i++) {... */\n      jump(tag_87)\n    tag_88:\n      pop\n        /* \"contracts/Usuarios.sol\":5705:5741  return \"Turista eliminado con exito\" */\n      mload(0x40)\n      dup1\n      0x40\n      add\n      0x40\n      mstore\n      dup1\n      0x1b\n      dup2\n      mstore\n      0x20\n      add\n      0x5475726973746120656c696d696e61646f20636f6e20657869746f0000000000\n      dup2\n      mstore\n      pop\n      swap1\n      pop\n        /* \"contracts/Usuarios.sol\":4970:5748  function eliminarTurista(address _cuenta)... */\n      swap2\n      swap1\n      pop\n      jump\t// out\n        /* \"contracts/Usuarios.sol\":4204:4964  function eliminarGuiaTurista(address _cuenta)... */\n    tag_26:\n        /* \"contracts/Usuarios.sol\":4301:4322  string memory mensaje */\n      0x60\n        /* \"contracts/Usuarios.sol\":1239:1245  duenno */\n      0x00\n      dup1\n      sload\n      swap1\n      0x0100\n      exp\n      swap1\n      div\n      0xffffffffffffffffffffffffffffffffffffffff\n      and\n        /* \"contracts/Usuarios.sol\":1225:1245  msg.sender == duenno */\n      0xffffffffffffffffffffffffffffffffffffffff\n      and\n        /* \"contracts/Usuarios.sol\":1225:1235  msg.sender */\n      caller\n        /* \"contracts/Usuarios.sol\":1225:1245  msg.sender == duenno */\n      0xffffffffffffffffffffffffffffffffffffffff\n      and\n      eq\n        /* \"contracts/Usuarios.sol\":1204:1312  require(... */\n      tag_110\n      jumpi\n      mload(0x40)\n      0x08c379a000000000000000000000000000000000000000000000000000000000\n      dup2\n      mstore\n      0x04\n      add\n      tag_111\n      swap1\n      tag_112\n      jump\t// in\n    tag_111:\n      mload(0x40)\n      dup1\n      swap2\n      sub\n      swap1\n      revert\n    tag_110:\n        /* \"contracts/Usuarios.sol\":4346:4362  guiasRegistrados */\n      0x03\n        /* \"contracts/Usuarios.sol\":4346:4371  guiasRegistrados[_cuenta] */\n      0x00\n        /* \"contracts/Usuarios.sol\":4363:4370  _cuenta */\n      dup4\n        /* \"contracts/Usuarios.sol\":4346:4371  guiasRegistrados[_cuenta] */\n      0xffffffffffffffffffffffffffffffffffffffff\n      and\n      0xffffffffffffffffffffffffffffffffffffffff\n      and\n      dup2\n      mstore\n      0x20\n      add\n      swap1\n      dup2\n      mstore\n      0x20\n      add\n      0x00\n      keccak256\n        /* \"contracts/Usuarios.sol\":4346:4378  guiasRegistrados[_cuenta].estado */\n      0x02\n      add\n      0x00\n      swap1\n      sload\n      swap1\n      0x0100\n      exp\n      swap1\n      div\n      0xff\n      and\n        /* \"contracts/Usuarios.sol\":4338:4397  require(guiasRegistrados[_cuenta].estado, \"Guia no existe\") */\n      tag_114\n      jumpi\n      mload(0x40)\n      0x08c379a000000000000000000000000000000000000000000000000000000000\n      dup2\n      mstore\n      0x04\n      add\n      tag_115\n      swap1\n      tag_116\n      jump\t// in\n    tag_115:\n      mload(0x40)\n      dup1\n      swap2\n      sub\n      swap1\n      revert\n    tag_114:\n        /* \"contracts/Usuarios.sol\":4442:4447  false */\n      0x00\n        /* \"contracts/Usuarios.sol\":4407:4423  guiasRegistrados */\n      0x03\n        /* \"contracts/Usuarios.sol\":4407:4432  guiasRegistrados[_cuenta] */\n      0x00\n        /* \"contracts/Usuarios.sol\":4424:4431  _cuenta */\n      dup5\n        /* \"contracts/Usuarios.sol\":4407:4432  guiasRegistrados[_cuenta] */\n      0xffffffffffffffffffffffffffffffffffffffff\n      and\n      0xffffffffffffffffffffffffffffffffffffffff\n      and\n      dup2\n      mstore\n      0x20\n      add\n      swap1\n      dup2\n      mstore\n      0x20\n      add\n      0x00\n      keccak256\n        /* \"contracts/Usuarios.sol\":4407:4439  guiasRegistrados[_cuenta].estado */\n      0x02\n      add\n      0x00\n        /* \"contracts/Usuarios.sol\":4407:4447  guiasRegistrados[_cuenta].estado = false */\n      0x0100\n      exp\n      dup2\n      sload\n      dup2\n      0xff\n      mul\n      not\n      and\n      swap1\n      dup4\n      iszero\n      iszero\n      mul\n      or\n      swap1\n      sstore\n      pop\n        /* \"contracts/Usuarios.sol\":4462:4484  GuiaEliminado(_cuenta) */\n      0x93d0e91b2385480f16c2e324398638f59df15184797653484a2e7a4d851540f1\n        /* \"contracts/Usuarios.sol\":4476:4483  _cuenta */\n      dup3\n        /* \"contracts/Usuarios.sol\":4462:4484  GuiaEliminado(_cuenta) */\n      mload(0x40)\n      tag_117\n      swap2\n      swap1\n      tag_68\n      jump\t// in\n    tag_117:\n      mload(0x40)\n      dup1\n      swap2\n      sub\n      swap1\n      log1\n        /* \"contracts/Usuarios.sol\":4499:4508  uint256 i */\n      0x00\n        /* \"contracts/Usuarios.sol\":4494:4903  for (uint256 i = 0; i < listaGuias.length; i++) {... */\n    tag_118:\n        /* \"contracts/Usuarios.sol\":4518:4528  listaGuias */\n      0x01\n        /* \"contracts/Usuarios.sol\":4518:4535  listaGuias.length */\n      dup1\n      sload\n      swap1\n      pop\n        /* \"contracts/Usuarios.sol\":4514:4515  i */\n      dup2\n        /* \"contracts/Usuarios.sol\":4514:4535  i < listaGuias.length */\n      lt\n        /* \"contracts/Usuarios.sol\":4494:4903  for (uint256 i = 0; i < listaGuias.length; i++) {... */\n      iszero\n      tag_119\n      jumpi\n        /* \"contracts/Usuarios.sol\":4584:4591  _cuenta */\n      dup3\n        /* \"contracts/Usuarios.sol\":4560:4591  listaGuias[i].cuenta == _cuenta */\n      0xffffffffffffffffffffffffffffffffffffffff\n      and\n        /* \"contracts/Usuarios.sol\":4560:4570  listaGuias */\n      0x01\n        /* \"contracts/Usuarios.sol\":4571:4572  i */\n      dup3\n        /* \"contracts/Usuarios.sol\":4560:4573  listaGuias[i] */\n      dup2\n      sload\n      dup2\n      lt\n      tag_121\n      jumpi\n      mstore(0x00, 0x4e487b7100000000000000000000000000000000000000000000000000000000)\n      mstore(0x04, 0x32)\n      revert(0x00, 0x24)\n    tag_121:\n      swap1\n      0x00\n      mstore\n      keccak256(0x00, 0x20)\n      swap1\n      0x03\n      mul\n      add\n        /* \"contracts/Usuarios.sol\":4560:4580  listaGuias[i].cuenta */\n      0x00\n      add\n      0x00\n      swap1\n      sload\n      swap1\n      0x0100\n      exp\n      swap1\n      div\n      0xffffffffffffffffffffffffffffffffffffffff\n      and\n        /* \"contracts/Usuarios.sol\":4560:4591  listaGuias[i].cuenta == _cuenta */\n      0xffffffffffffffffffffffffffffffffffffffff\n      and\n      eq\n        /* \"contracts/Usuarios.sol\":4556:4893  if (listaGuias[i].cuenta == _cuenta) {... */\n      iszero\n      tag_123\n      jumpi\n        /* \"contracts/Usuarios.sol\":4788:4798  listaGuias */\n      0x01\n        /* \"contracts/Usuarios.sol\":4819:4820  1 */\n      dup1\n        /* \"contracts/Usuarios.sol\":4799:4809  listaGuias */\n      dup1\n        /* \"contracts/Usuarios.sol\":4799:4816  listaGuias.length */\n      dup1\n      sload\n      swap1\n      pop\n        /* \"contracts/Usuarios.sol\":4799:4820  listaGuias.length - 1 */\n      tag_124\n      swap2\n      swap1\n      tag_94\n      jump\t// in\n    tag_124:\n        /* \"contracts/Usuarios.sol\":4788:4821  listaGuias[listaGuias.length - 1] */\n      dup2\n      sload\n      dup2\n      lt\n      tag_125\n      jumpi\n      mstore(0x00, 0x4e487b7100000000000000000000000000000000000000000000000000000000)\n      mstore(0x04, 0x32)\n      revert(0x00, 0x24)\n    tag_125:\n      swap1\n      0x00\n      mstore\n      keccak256(0x00, 0x20)\n      swap1\n      0x03\n      mul\n      add\n        /* \"contracts/Usuarios.sol\":4772:4782  listaGuias */\n      0x01\n        /* \"contracts/Usuarios.sol\":4783:4784  i */\n      dup3\n        /* \"contracts/Usuarios.sol\":4772:4785  listaGuias[i] */\n      dup2\n      sload\n      dup2\n      lt\n      tag_127\n      jumpi\n      mstore(0x00, 0x4e487b7100000000000000000000000000000000000000000000000000000000)\n      mstore(0x04, 0x32)\n      revert(0x00, 0x24)\n    tag_127:\n      swap1\n      0x00\n      mstore\n      keccak256(0x00, 0x20)\n      swap1\n      0x03\n      mul\n      add\n        /* \"contracts/Usuarios.sol\":4772:4821  listaGuias[i] = listaGuias[listaGuias.length - 1] */\n      0x00\n      dup3\n      add\n      0x00\n      swap1\n      sload\n      swap1\n      0x0100\n      exp\n      swap1\n      div\n      0xffffffffffffffffffffffffffffffffffffffff\n      and\n      dup2\n      0x00\n      add\n      exp(0x0100, 0x00)\n      dup2\n      sload\n      dup2\n      0xffffffffffffffffffffffffffffffffffffffff\n      mul\n      not\n      and\n      swap1\n      dup4\n      0xffffffffffffffffffffffffffffffffffffffff\n      and\n      mul\n      or\n      swap1\n      sstore\n      pop\n      0x01\n      dup3\n      add\n      dup2\n      0x01\n      add\n      swap1\n      dup1\n      sload\n      tag_129\n      swap1\n      tag_100\n      jump\t// in\n    tag_129:\n      tag_130\n      swap3\n      swap2\n      swap1\n      tag_102\n      jump\t// in\n    tag_130:\n      pop\n      0x02\n      dup3\n      add\n      0x00\n      swap1\n      sload\n      swap1\n      0x0100\n      exp\n      swap1\n      div\n      0xff\n      and\n      dup2\n      0x02\n      add\n      exp(0x0100, 0x00)\n      dup2\n      sload\n      dup2\n      0xff\n      mul\n      not\n      and\n      swap1\n      dup4\n      iszero\n      iszero\n      mul\n      or\n      swap1\n      sstore\n      pop\n      swap1\n      pop\n      pop\n        /* \"contracts/Usuarios.sol\":4839:4849  listaGuias */\n      0x01\n        /* \"contracts/Usuarios.sol\":4839:4855  listaGuias.pop() */\n      dup1\n      sload\n      dup1\n      tag_131\n      jumpi\n      mstore(0x00, 0x4e487b7100000000000000000000000000000000000000000000000000000000)\n      mstore(0x04, 0x31)\n      revert(0x00, 0x24)\n    tag_131:\n      0x01\n      swap1\n      sub\n      dup2\n      dup2\n      swap1\n      0x00\n      mstore\n      keccak256(0x00, 0x20)\n      swap1\n      0x03\n      mul\n      add\n      0x00\n      dup1\n      dup3\n      add\n      exp(0x0100, 0x00)\n      dup2\n      sload\n      swap1\n      0xffffffffffffffffffffffffffffffffffffffff\n      mul\n      not\n      and\n      swap1\n      sstore\n      0x01\n      dup3\n      add\n      0x00\n      tag_133\n      swap2\n      swap1\n      tag_106\n      jump\t// in\n    tag_133:\n      0x02\n      dup3\n      add\n      exp(0x0100, 0x00)\n      dup2\n      sload\n      swap1\n      0xff\n      mul\n      not\n      and\n      swap1\n      sstore\n      pop\n      pop\n      swap1\n      sstore\n        /* \"contracts/Usuarios.sol\":4873:4878  break */\n      jump(tag_119)\n        /* \"contracts/Usuarios.sol\":4556:4893  if (listaGuias[i].cuenta == _cuenta) {... */\n    tag_123:\n        /* \"contracts/Usuarios.sol\":4537:4540  i++ */\n      dup1\n      dup1\n      tag_134\n      swap1\n      tag_108\n      jump\t// in\n    tag_134:\n      swap2\n      pop\n      pop\n        /* \"contracts/Usuarios.sol\":4494:4903  for (uint256 i = 0; i < listaGuias.length; i++) {... */\n      jump(tag_118)\n    tag_119:\n      pop\n        /* \"contracts/Usuarios.sol\":4912:4957  return \"Guia de Turistas eliminado con exito\" */\n      mload(0x40)\n      dup1\n      0x60\n      add\n      0x40\n      mstore\n      dup1\n      0x24\n      dup2\n      mstore\n      0x20\n      add\n      data_c9b19ca271bb17025b274d57613f75f836be0400106b0af07ea082c249005a48\n      0x24\n      swap2\n      codecopy\n      swap1\n      pop\n        /* \"contracts/Usuarios.sol\":4204:4964  function eliminarGuiaTurista(address _cuenta)... */\n      swap2\n      swap1\n      pop\n      jump\t// out\n        /* \"contracts/Usuarios.sol\":1625:2181  function registrarGuiaTurista(address _cuenta, string memory _nombre)... */\n    tag_31:\n        /* \"contracts/Usuarios.sol\":1746:1767  string memory mensaje */\n      0x60\n        /* \"contracts/Usuarios.sol\":1239:1245  duenno */\n      0x00\n      dup1\n      sload\n      swap1\n      0x0100\n      exp\n      swap1\n      div\n      0xffffffffffffffffffffffffffffffffffffffff\n      and\n        /* \"contracts/Usuarios.sol\":1225:1245  msg.sender == duenno */\n      0xffffffffffffffffffffffffffffffffffffffff\n      and\n        /* \"contracts/Usuarios.sol\":1225:1235  msg.sender */\n      caller\n        /* \"contracts/Usuarios.sol\":1225:1245  msg.sender == duenno */\n      0xffffffffffffffffffffffffffffffffffffffff\n      and\n      eq\n        /* \"contracts/Usuarios.sol\":1204:1312  require(... */\n      tag_136\n      jumpi\n      mload(0x40)\n      0x08c379a000000000000000000000000000000000000000000000000000000000\n      dup2\n      mstore\n      0x04\n      add\n      tag_137\n      swap1\n      tag_112\n      jump\t// in\n    tag_137:\n      mload(0x40)\n      dup1\n      swap2\n      sub\n      swap1\n      revert\n    tag_136:\n        /* \"contracts/Usuarios.sol\":1805:1821  guiasRegistrados */\n      0x03\n        /* \"contracts/Usuarios.sol\":1805:1830  guiasRegistrados[_cuenta] */\n      0x00\n        /* \"contracts/Usuarios.sol\":1822:1829  _cuenta */\n      dup5\n        /* \"contracts/Usuarios.sol\":1805:1830  guiasRegistrados[_cuenta] */\n      0xffffffffffffffffffffffffffffffffffffffff\n      and\n      0xffffffffffffffffffffffffffffffffffffffff\n      and\n      dup2\n      mstore\n      0x20\n      add\n      swap1\n      dup2\n      mstore\n      0x20\n      add\n      0x00\n      keccak256\n        /* \"contracts/Usuarios.sol\":1805:1837  guiasRegistrados[_cuenta].estado */\n      0x02\n      add\n      0x00\n      swap1\n      sload\n      swap1\n      0x0100\n      exp\n      swap1\n      div\n      0xff\n      and\n        /* \"contracts/Usuarios.sol\":1804:1837  !guiasRegistrados[_cuenta].estado */\n      iszero\n        /* \"contracts/Usuarios.sol\":1783:1898  require(... */\n      tag_139\n      jumpi\n      mload(0x40)\n      0x08c379a000000000000000000000000000000000000000000000000000000000\n      dup2\n      mstore\n      0x04\n      add\n      tag_140\n      swap1\n      tag_141\n      jump\t// in\n    tag_140:\n      mload(0x40)\n      dup1\n      swap2\n      sub\n      swap1\n      revert\n    tag_139:\n        /* \"contracts/Usuarios.sol\":1908:1941  GuiaTuristas memory _guiaTuristas */\n      0x00\n        /* \"contracts/Usuarios.sol\":1944:1980  GuiaTuristas(_cuenta, _nombre, true) */\n      mload(0x40)\n      dup1\n      0x60\n      add\n      0x40\n      mstore\n      dup1\n        /* \"contracts/Usuarios.sol\":1957:1964  _cuenta */\n      dup6\n        /* \"contracts/Usuarios.sol\":1944:1980  GuiaTuristas(_cuenta, _nombre, true) */\n      0xffffffffffffffffffffffffffffffffffffffff\n      and\n      dup2\n      mstore\n      0x20\n      add\n        /* \"contracts/Usuarios.sol\":1966:1973  _nombre */\n      dup5\n        /* \"contracts/Usuarios.sol\":1944:1980  GuiaTuristas(_cuenta, _nombre, true) */\n      dup2\n      mstore\n      0x20\n      add\n        /* \"contracts/Usuarios.sol\":1975:1979  true */\n      0x01\n        /* \"contracts/Usuarios.sol\":1944:1980  GuiaTuristas(_cuenta, _nombre, true) */\n      iszero\n      iszero\n      dup2\n      mstore\n      pop\n        /* \"contracts/Usuarios.sol\":1908:1980  GuiaTuristas memory _guiaTuristas = GuiaTuristas(_cuenta, _nombre, true) */\n      swap1\n      pop\n        /* \"contracts/Usuarios.sol\":2018:2031  _guiaTuristas */\n      dup1\n        /* \"contracts/Usuarios.sol\":1990:2006  guiasRegistrados */\n      0x03\n        /* \"contracts/Usuarios.sol\":1990:2015  guiasRegistrados[_cuenta] */\n      0x00\n        /* \"contracts/Usuarios.sol\":2007:2014  _cuenta */\n      dup7\n        /* \"contracts/Usuarios.sol\":1990:2015  guiasRegistrados[_cuenta] */\n      0xffffffffffffffffffffffffffffffffffffffff\n      and\n      0xffffffffffffffffffffffffffffffffffffffff\n      and\n      dup2\n      mstore\n      0x20\n      add\n      swap1\n      dup2\n      mstore\n      0x20\n      add\n      0x00\n      keccak256\n        /* \"contracts/Usuarios.sol\":1990:2031  guiasRegistrados[_cuenta] = _guiaTuristas */\n      0x00\n      dup3\n      add\n      mload\n      dup2\n      0x00\n      add\n      exp(0x0100, 0x00)\n      dup2\n      sload\n      dup2\n      0xffffffffffffffffffffffffffffffffffffffff\n      mul\n      not\n      and\n      swap1\n      dup4\n      0xffffffffffffffffffffffffffffffffffffffff\n      and\n      mul\n      or\n      swap1\n      sstore\n      pop\n      0x20\n      dup3\n      add\n      mload\n      dup2\n      0x01\n      add\n      swap1\n      dup1\n      mload\n      swap1\n      0x20\n      add\n      swap1\n      tag_142\n      swap3\n      swap2\n      swap1\n      tag_143\n      jump\t// in\n    tag_142:\n      pop\n      0x40\n      dup3\n      add\n      mload\n      dup2\n      0x02\n      add\n      exp(0x0100, 0x00)\n      dup2\n      sload\n      dup2\n      0xff\n      mul\n      not\n      and\n      swap1\n      dup4\n      iszero\n      iszero\n      mul\n      or\n      swap1\n      sstore\n      pop\n      swap1\n      pop\n      pop\n        /* \"contracts/Usuarios.sol\":2041:2051  listaGuias */\n      0x01\n        /* \"contracts/Usuarios.sol\":2057:2070  _guiaTuristas */\n      dup2\n        /* \"contracts/Usuarios.sol\":2041:2071  listaGuias.push(_guiaTuristas) */\n      swap1\n      dup1\n      0x01\n      dup2\n      sload\n      add\n      dup1\n      dup3\n      sstore\n      dup1\n      swap2\n      pop\n      pop\n      0x01\n      swap1\n      sub\n      swap1\n      0x00\n      mstore\n      keccak256(0x00, 0x20)\n      swap1\n      0x03\n      mul\n      add\n      0x00\n      swap1\n      swap2\n      swap1\n      swap2\n      swap1\n      swap2\n      pop\n      0x00\n      dup3\n      add\n      mload\n      dup2\n      0x00\n      add\n      exp(0x0100, 0x00)\n      dup2\n      sload\n      dup2\n      0xffffffffffffffffffffffffffffffffffffffff\n      mul\n      not\n      and\n      swap1\n      dup4\n      0xffffffffffffffffffffffffffffffffffffffff\n      and\n      mul\n      or\n      swap1\n      sstore\n      pop\n      0x20\n      dup3\n      add\n      mload\n      dup2\n      0x01\n      add\n      swap1\n      dup1\n      mload\n      swap1\n      0x20\n      add\n      swap1\n      tag_145\n      swap3\n      swap2\n      swap1\n      tag_143\n      jump\t// in\n    tag_145:\n      pop\n      0x40\n      dup3\n      add\n      mload\n      dup2\n      0x02\n      add\n      exp(0x0100, 0x00)\n      dup2\n      sload\n      dup2\n      0xff\n      mul\n      not\n      and\n      swap1\n      dup4\n      iszero\n      iszero\n      mul\n      or\n      swap1\n      sstore\n      pop\n      pop\n      pop\n        /* \"contracts/Usuarios.sol\":2086:2118  GuiaRegistrado(_cuenta, _nombre) */\n      0x51d926f521aa5bce4104e82a66580aa7251d9a3598bccb8ddf76febbff83576a\n        /* \"contracts/Usuarios.sol\":2101:2108  _cuenta */\n      dup5\n        /* \"contracts/Usuarios.sol\":2110:2117  _nombre */\n      dup5\n        /* \"contracts/Usuarios.sol\":2086:2118  GuiaRegistrado(_cuenta, _nombre) */\n      mload(0x40)\n      tag_146\n      swap3\n      swap2\n      swap1\n      tag_147\n      jump\t// in\n    tag_146:\n      mload(0x40)\n      dup1\n      swap2\n      sub\n      swap1\n      log1\n        /* \"contracts/Usuarios.sol\":2128:2174  return \"Guia de Turistas registrado con exito\" */\n      mload(0x40)\n      dup1\n      0x60\n      add\n      0x40\n      mstore\n      dup1\n      0x25\n      dup2\n      mstore\n      0x20\n      add\n      data_ab5ecbcd895f46bb6ad5a983fd00ba29b72331686909f50871dc662956b121c9\n      0x25\n      swap2\n      codecopy\n      swap2\n      pop\n      pop\n        /* \"contracts/Usuarios.sol\":1625:2181  function registrarGuiaTurista(address _cuenta, string memory _nombre)... */\n      swap3\n      swap2\n      pop\n      pop\n      jump\t// out\n        /* \"contracts/Usuarios.sol\":1065:1119  mapping(address => Turista) public turistasRegistrados */\n    tag_35:\n      mstore(0x20, 0x04)\n      dup1\n      0x00\n      mstore\n      keccak256(0x00, 0x40)\n      0x00\n      swap2\n      pop\n      swap1\n      pop\n      dup1\n      0x00\n      add\n      0x00\n      swap1\n      sload\n      swap1\n      0x0100\n      exp\n      swap1\n      div\n      0xffffffffffffffffffffffffffffffffffffffff\n      and\n      swap1\n      dup1\n      0x01\n      add\n      dup1\n      sload\n      tag_148\n      swap1\n      tag_100\n      jump\t// in\n    tag_148:\n      dup1\n      0x1f\n      add\n      0x20\n      dup1\n      swap2\n      div\n      mul\n      0x20\n      add\n      mload(0x40)\n      swap1\n      dup2\n      add\n      0x40\n      mstore\n      dup1\n      swap3\n      swap2\n      swap1\n      dup2\n      dup2\n      mstore\n      0x20\n      add\n      dup3\n      dup1\n      sload\n      tag_149\n      swap1\n      tag_100\n      jump\t// in\n    tag_149:\n      dup1\n      iszero\n      tag_150\n      jumpi\n      dup1\n      0x1f\n      lt\n      tag_151\n      jumpi\n      0x0100\n      dup1\n      dup4\n      sload\n      div\n      mul\n      dup4\n      mstore\n      swap2\n      0x20\n      add\n      swap2\n      jump(tag_150)\n    tag_151:\n      dup3\n      add\n      swap2\n      swap1\n      0x00\n      mstore\n      keccak256(0x00, 0x20)\n      swap1\n    tag_152:\n      dup2\n      sload\n      dup2\n      mstore\n      swap1\n      0x01\n      add\n      swap1\n      0x20\n      add\n      dup1\n      dup4\n      gt\n      tag_152\n      jumpi\n      dup3\n      swap1\n      sub\n      0x1f\n      and\n      dup3\n      add\n      swap2\n    tag_150:\n      pop\n      pop\n      pop\n      pop\n      pop\n      swap1\n      dup1\n      0x02\n      add\n      0x00\n      swap1\n      sload\n      swap1\n      0x0100\n      exp\n      swap1\n      div\n      0xff\n      and\n      swap1\n      dup1\n      0x02\n      add\n      0x01\n      swap1\n      sload\n      swap1\n      0x0100\n      exp\n      swap1\n      div\n      0xff\n      and\n      swap1\n      pop\n      dup5\n      jump\t// out\n        /* \"contracts/Usuarios.sol\":3846:4198  function verTuristas()... */\n    tag_39:\n        /* \"contracts/Usuarios.sol\":3932:3958  Turista[] memory resultado */\n      0x60\n        /* \"contracts/Usuarios.sol\":1469:1475  duenno */\n      0x00\n      dup1\n      sload\n      swap1\n      0x0100\n      exp\n      swap1\n      div\n      0xffffffffffffffffffffffffffffffffffffffff\n      and\n        /* \"contracts/Usuarios.sol\":1455:1475  msg.sender == duenno */\n      0xffffffffffffffffffffffffffffffffffffffff\n      and\n        /* \"contracts/Usuarios.sol\":1455:1465  msg.sender */\n      caller\n        /* \"contracts/Usuarios.sol\":1455:1475  msg.sender == duenno */\n      0xffffffffffffffffffffffffffffffffffffffff\n      and\n      eq\n        /* \"contracts/Usuarios.sol\":1455:1514  msg.sender == duenno || guiasRegistrados[msg.sender].estado */\n      dup1\n      tag_154\n      jumpi\n      pop\n        /* \"contracts/Usuarios.sol\":1479:1495  guiasRegistrados */\n      0x03\n        /* \"contracts/Usuarios.sol\":1479:1507  guiasRegistrados[msg.sender] */\n      0x00\n        /* \"contracts/Usuarios.sol\":1496:1506  msg.sender */\n      caller\n        /* \"contracts/Usuarios.sol\":1479:1507  guiasRegistrados[msg.sender] */\n      0xffffffffffffffffffffffffffffffffffffffff\n      and\n      0xffffffffffffffffffffffffffffffffffffffff\n      and\n      dup2\n      mstore\n      0x20\n      add\n      swap1\n      dup2\n      mstore\n      0x20\n      add\n      0x00\n      keccak256\n        /* \"contracts/Usuarios.sol\":1479:1514  guiasRegistrados[msg.sender].estado */\n      0x02\n      add\n      0x00\n      swap1\n      sload\n      swap1\n      0x0100\n      exp\n      swap1\n      div\n      0xff\n      and\n        /* \"contracts/Usuarios.sol\":1455:1514  msg.sender == duenno || guiasRegistrados[msg.sender].estado */\n    tag_154:\n        /* \"contracts/Usuarios.sol\":1434:1601  require(... */\n      tag_155\n      jumpi\n      mload(0x40)\n      0x08c379a000000000000000000000000000000000000000000000000000000000\n      dup2\n      mstore\n      0x04\n      add\n      tag_156\n      swap1\n      tag_81\n      jump\t// in\n    tag_156:\n      mload(0x40)\n      dup1\n      swap2\n      sub\n      swap1\n      revert\n    tag_155:\n        /* \"contracts/Usuarios.sol\":4000:4013  listaTuristas */\n      0x02\n        /* \"contracts/Usuarios.sol\":4000:4020  listaTuristas.length */\n      dup1\n      sload\n      swap1\n      pop\n        /* \"contracts/Usuarios.sol\":3986:4021  new Turista[](listaTuristas.length) */\n      0xffffffffffffffff\n      dup2\n      gt\n      iszero\n      tag_158\n      jumpi\n      mstore(0x00, 0x4e487b7100000000000000000000000000000000000000000000000000000000)\n      mstore(0x04, 0x41)\n      revert(0x00, 0x24)\n    tag_158:\n      mload(0x40)\n      swap1\n      dup1\n      dup3\n      mstore\n      dup1\n      0x20\n      mul\n      0x20\n      add\n      dup3\n      add\n      0x40\n      mstore\n      dup1\n      iszero\n      tag_159\n      jumpi\n      dup2\n      0x20\n      add\n    tag_160:\n      tag_161\n      tag_162\n      jump\t// in\n    tag_161:\n      dup2\n      mstore\n      0x20\n      add\n      swap1\n      0x01\n      swap1\n      sub\n      swap1\n      dup2\n      tag_160\n      jumpi\n      swap1\n      pop\n    tag_159:\n      pop\n        /* \"contracts/Usuarios.sol\":3974:4021  resultado = new Turista[](listaTuristas.length) */\n      swap1\n      pop\n        /* \"contracts/Usuarios.sol\":4036:4045  uint256 i */\n      0x00\n        /* \"contracts/Usuarios.sol\":4031:4166  for (uint256 i = 0; i < listaTuristas.length; i++) {... */\n    tag_163:\n        /* \"contracts/Usuarios.sol\":4055:4068  listaTuristas */\n      0x02\n        /* \"contracts/Usuarios.sol\":4055:4075  listaTuristas.length */\n      dup1\n      sload\n      swap1\n      pop\n        /* \"contracts/Usuarios.sol\":4051:4052  i */\n      dup2\n        /* \"contracts/Usuarios.sol\":4051:4075  i < listaTuristas.length */\n      lt\n        /* \"contracts/Usuarios.sol\":4031:4166  for (uint256 i = 0; i < listaTuristas.length; i++) {... */\n      iszero\n      tag_164\n      jumpi\n        /* \"contracts/Usuarios.sol\":4111:4130  turistasRegistrados */\n      0x04\n        /* \"contracts/Usuarios.sol\":4111:4155  turistasRegistrados[listaTuristas[i].cuenta] */\n      0x00\n        /* \"contracts/Usuarios.sol\":4131:4144  listaTuristas */\n      0x02\n        /* \"contracts/Usuarios.sol\":4145:4146  i */\n      dup4\n        /* \"contracts/Usuarios.sol\":4131:4147  listaTuristas[i] */\n      dup2\n      sload\n      dup2\n      lt\n      tag_166\n      jumpi\n      mstore(0x00, 0x4e487b7100000000000000000000000000000000000000000000000000000000)\n      mstore(0x04, 0x32)\n      revert(0x00, 0x24)\n    tag_166:\n      swap1\n      0x00\n      mstore\n      keccak256(0x00, 0x20)\n      swap1\n      0x03\n      mul\n      add\n        /* \"contracts/Usuarios.sol\":4131:4154  listaTuristas[i].cuenta */\n      0x00\n      add\n      0x00\n      swap1\n      sload\n      swap1\n      0x0100\n      exp\n      swap1\n      div\n      0xffffffffffffffffffffffffffffffffffffffff\n      and\n        /* \"contracts/Usuarios.sol\":4111:4155  turistasRegistrados[listaTuristas[i].cuenta] */\n      0xffffffffffffffffffffffffffffffffffffffff\n      and\n      0xffffffffffffffffffffffffffffffffffffffff\n      and\n      dup2\n      mstore\n      0x20\n      add\n      swap1\n      dup2\n      mstore\n      0x20\n      add\n      0x00\n      keccak256\n        /* \"contracts/Usuarios.sol\":4096:4155  resultado[i] = turistasRegistrados[listaTuristas[i].cuenta] */\n      mload(0x40)\n      dup1\n      0x80\n      add\n      0x40\n      mstore\n      swap1\n      dup2\n      0x00\n      dup3\n      add\n      0x00\n      swap1\n      sload\n      swap1\n      0x0100\n      exp\n      swap1\n      div\n      0xffffffffffffffffffffffffffffffffffffffff\n      and\n      0xffffffffffffffffffffffffffffffffffffffff\n      and\n      0xffffffffffffffffffffffffffffffffffffffff\n      and\n      dup2\n      mstore\n      0x20\n      add\n      0x01\n      dup3\n      add\n      dup1\n      sload\n      tag_168\n      swap1\n      tag_100\n      jump\t// in\n    tag_168:\n      dup1\n      0x1f\n      add\n      0x20\n      dup1\n      swap2\n      div\n      mul\n      0x20\n      add\n      mload(0x40)\n      swap1\n      dup2\n      add\n      0x40\n      mstore\n      dup1\n      swap3\n      swap2\n      swap1\n      dup2\n      dup2\n      mstore\n      0x20\n      add\n      dup3\n      dup1\n      sload\n      tag_169\n      swap1\n      tag_100\n      jump\t// in\n    tag_169:\n      dup1\n      iszero\n      tag_170\n      jumpi\n      dup1\n      0x1f\n      lt\n      tag_171\n      jumpi\n      0x0100\n      dup1\n      dup4\n      sload\n      div\n      mul\n      dup4\n      mstore\n      swap2\n      0x20\n      add\n      swap2\n      jump(tag_170)\n    tag_171:\n      dup3\n      add\n      swap2\n      swap1\n      0x00\n      mstore\n      keccak256(0x00, 0x20)\n      swap1\n    tag_172:\n      dup2\n      sload\n      dup2\n      mstore\n      swap1\n      0x01\n      add\n      swap1\n      0x20\n      add\n      dup1\n      dup4\n      gt\n      tag_172\n      jumpi\n      dup3\n      swap1\n      sub\n      0x1f\n      and\n      dup3\n      add\n      swap2\n    tag_170:\n      pop\n      pop\n      pop\n      pop\n      pop\n      dup2\n      mstore\n      0x20\n      add\n      0x02\n      dup3\n      add\n      0x00\n      swap1\n      sload\n      swap1\n      0x0100\n      exp\n      swap1\n      div\n      0xff\n      and\n      0xff\n      and\n      0xff\n      and\n      dup2\n      mstore\n      0x20\n      add\n      0x02\n      dup3\n      add\n      0x01\n      swap1\n      sload\n      swap1\n      0x0100\n      exp\n      swap1\n      div\n      0xff\n      and\n      iszero\n      iszero\n      iszero\n      iszero\n      dup2\n      mstore\n      pop\n      pop\n        /* \"contracts/Usuarios.sol\":4096:4105  resultado */\n      dup3\n        /* \"contracts/Usuarios.sol\":4106:4107  i */\n      dup3\n        /* \"contracts/Usuarios.sol\":4096:4108  resultado[i] */\n      dup2\n      mload\n      dup2\n      lt\n      tag_173\n      jumpi\n      mstore(0x00, 0x4e487b7100000000000000000000000000000000000000000000000000000000)\n      mstore(0x04, 0x32)\n      revert(0x00, 0x24)\n    tag_173:\n      0x20\n      mul\n      0x20\n      add\n      add\n        /* \"contracts/Usuarios.sol\":4096:4155  resultado[i] = turistasRegistrados[listaTuristas[i].cuenta] */\n      dup2\n      swap1\n      mstore\n      pop\n        /* \"contracts/Usuarios.sol\":4077:4080  i++ */\n      dup1\n      dup1\n      tag_174\n      swap1\n      tag_108\n      jump\t// in\n    tag_174:\n      swap2\n      pop\n      pop\n        /* \"contracts/Usuarios.sol\":4031:4166  for (uint256 i = 0; i < listaTuristas.length; i++) {... */\n      jump(tag_163)\n    tag_164:\n      pop\n        /* \"contracts/Usuarios.sol\":3846:4198  function verTuristas()... */\n      swap1\n      jump\t// out\n        /* \"contracts/Usuarios.sol\":2187:2730  function registrarTurista(... */\n    tag_45:\n        /* \"contracts/Usuarios.sol\":2322:2343  string memory mensaje */\n      0x60\n        /* \"contracts/Usuarios.sol\":1469:1475  duenno */\n      0x00\n      dup1\n      sload\n      swap1\n      0x0100\n      exp\n      swap1\n      div\n      0xffffffffffffffffffffffffffffffffffffffff\n      and\n        /* \"contracts/Usuarios.sol\":1455:1475  msg.sender == duenno */\n      0xffffffffffffffffffffffffffffffffffffffff\n      and\n        /* \"contracts/Usuarios.sol\":1455:1465  msg.sender */\n      caller\n        /* \"contracts/Usuarios.sol\":1455:1475  msg.sender == duenno */\n      0xffffffffffffffffffffffffffffffffffffffff\n      and\n      eq\n        /* \"contracts/Usuarios.sol\":1455:1514  msg.sender == duenno || guiasRegistrados[msg.sender].estado */\n      dup1\n      tag_176\n      jumpi\n      pop\n        /* \"contracts/Usuarios.sol\":1479:1495  guiasRegistrados */\n      0x03\n        /* \"contracts/Usuarios.sol\":1479:1507  guiasRegistrados[msg.sender] */\n      0x00\n        /* \"contracts/Usuarios.sol\":1496:1506  msg.sender */\n      caller\n        /* \"contracts/Usuarios.sol\":1479:1507  guiasRegistrados[msg.sender] */\n      0xffffffffffffffffffffffffffffffffffffffff\n      and\n      0xffffffffffffffffffffffffffffffffffffffff\n      and\n      dup2\n      mstore\n      0x20\n      add\n      swap1\n      dup2\n      mstore\n      0x20\n      add\n      0x00\n      keccak256\n        /* \"contracts/Usuarios.sol\":1479:1514  guiasRegistrados[msg.sender].estado */\n      0x02\n      add\n      0x00\n      swap1\n      sload\n      swap1\n      0x0100\n      exp\n      swap1\n      div\n      0xff\n      and\n        /* \"contracts/Usuarios.sol\":1455:1514  msg.sender == duenno || guiasRegistrados[msg.sender].estado */\n    tag_176:\n        /* \"contracts/Usuarios.sol\":1434:1601  require(... */\n      tag_177\n      jumpi\n      mload(0x40)\n      0x08c379a000000000000000000000000000000000000000000000000000000000\n      dup2\n      mstore\n      0x04\n      add\n      tag_178\n      swap1\n      tag_81\n      jump\t// in\n    tag_178:\n      mload(0x40)\n      dup1\n      swap2\n      sub\n      swap1\n      revert\n    tag_177:\n        /* \"contracts/Usuarios.sol\":2377:2396  turistasRegistrados */\n      0x04\n        /* \"contracts/Usuarios.sol\":2377:2405  turistasRegistrados[_cuenta] */\n      0x00\n        /* \"contracts/Usuarios.sol\":2397:2404  _cuenta */\n      dup6\n        /* \"contracts/Usuarios.sol\":2377:2405  turistasRegistrados[_cuenta] */\n      0xffffffffffffffffffffffffffffffffffffffff\n      and\n      0xffffffffffffffffffffffffffffffffffffffff\n      and\n      dup2\n      mstore\n      0x20\n      add\n      swap1\n      dup2\n      mstore\n      0x20\n      add\n      0x00\n      keccak256\n        /* \"contracts/Usuarios.sol\":2377:2412  turistasRegistrados[_cuenta].estado */\n      0x02\n      add\n      0x01\n      swap1\n      sload\n      swap1\n      0x0100\n      exp\n      swap1\n      div\n      0xff\n      and\n        /* \"contracts/Usuarios.sol\":2376:2412  !turistasRegistrados[_cuenta].estado */\n      iszero\n        /* \"contracts/Usuarios.sol\":2355:2464  require(... */\n      tag_180\n      jumpi\n      mload(0x40)\n      0x08c379a000000000000000000000000000000000000000000000000000000000\n      dup2\n      mstore\n      0x04\n      add\n      tag_181\n      swap1\n      tag_182\n      jump\t// in\n    tag_181:\n      mload(0x40)\n      dup1\n      swap2\n      sub\n      swap1\n      revert\n    tag_180:\n        /* \"contracts/Usuarios.sol\":2474:2497  Turista memory _turista */\n      0x00\n        /* \"contracts/Usuarios.sol\":2501:2539  Turista(_cuenta, _nombre, _edad, true) */\n      mload(0x40)\n      dup1\n      0x80\n      add\n      0x40\n      mstore\n      dup1\n        /* \"contracts/Usuarios.sol\":2509:2516  _cuenta */\n      dup7\n        /* \"contracts/Usuarios.sol\":2501:2539  Turista(_cuenta, _nombre, _edad, true) */\n      0xffffffffffffffffffffffffffffffffffffffff\n      and\n      dup2\n      mstore\n      0x20\n      add\n        /* \"contracts/Usuarios.sol\":2518:2525  _nombre */\n      dup6\n        /* \"contracts/Usuarios.sol\":2501:2539  Turista(_cuenta, _nombre, _edad, true) */\n      dup2\n      mstore\n      0x20\n      add\n        /* \"contracts/Usuarios.sol\":2527:2532  _edad */\n      dup5\n        /* \"contracts/Usuarios.sol\":2501:2539  Turista(_cuenta, _nombre, _edad, true) */\n      0xff\n      and\n      dup2\n      mstore\n      0x20\n      add\n        /* \"contracts/Usuarios.sol\":2534:2538  true */\n      0x01\n        /* \"contracts/Usuarios.sol\":2501:2539  Turista(_cuenta, _nombre, _edad, true) */\n      iszero\n      iszero\n      dup2\n      mstore\n      pop\n        /* \"contracts/Usuarios.sol\":2474:2539  Turista memory _turista =  Turista(_cuenta, _nombre, _edad, true) */\n      swap1\n      pop\n        /* \"contracts/Usuarios.sol\":2580:2588  _turista */\n      dup1\n        /* \"contracts/Usuarios.sol\":2549:2568  turistasRegistrados */\n      0x04\n        /* \"contracts/Usuarios.sol\":2549:2577  turistasRegistrados[_cuenta] */\n      0x00\n        /* \"contracts/Usuarios.sol\":2569:2576  _cuenta */\n      dup8\n        /* \"contracts/Usuarios.sol\":2549:2577  turistasRegistrados[_cuenta] */\n      0xffffffffffffffffffffffffffffffffffffffff\n      and\n      0xffffffffffffffffffffffffffffffffffffffff\n      and\n      dup2\n      mstore\n      0x20\n      add\n      swap1\n      dup2\n      mstore\n      0x20\n      add\n      0x00\n      keccak256\n        /* \"contracts/Usuarios.sol\":2549:2588  turistasRegistrados[_cuenta] = _turista */\n      0x00\n      dup3\n      add\n      mload\n      dup2\n      0x00\n      add\n      exp(0x0100, 0x00)\n      dup2\n      sload\n      dup2\n      0xffffffffffffffffffffffffffffffffffffffff\n      mul\n      not\n      and\n      swap1\n      dup4\n      0xffffffffffffffffffffffffffffffffffffffff\n      and\n      mul\n      or\n      swap1\n      sstore\n      pop\n      0x20\n      dup3\n      add\n      mload\n      dup2\n      0x01\n      add\n      swap1\n      dup1\n      mload\n      swap1\n      0x20\n      add\n      swap1\n      tag_183\n      swap3\n      swap2\n      swap1\n      tag_143\n      jump\t// in\n    tag_183:\n      pop\n      0x40\n      dup3\n      add\n      mload\n      dup2\n      0x02\n      add\n      exp(0x0100, 0x00)\n      dup2\n      sload\n      dup2\n      0xff\n      mul\n      not\n      and\n      swap1\n      dup4\n      0xff\n      and\n      mul\n      or\n      swap1\n      sstore\n      pop\n      0x60\n      dup3\n      add\n      mload\n      dup2\n      0x02\n      add\n      exp(0x0100, 0x01)\n      dup2\n      sload\n      dup2\n      0xff\n      mul\n      not\n      and\n      swap1\n      dup4\n      iszero\n      iszero\n      mul\n      or\n      swap1\n      sstore\n      pop\n      swap1\n      pop\n      pop\n        /* \"contracts/Usuarios.sol\":2598:2611  listaTuristas */\n      0x02\n        /* \"contracts/Usuarios.sol\":2617:2625  _turista */\n      dup2\n        /* \"contracts/Usuarios.sol\":2598:2626  listaTuristas.push(_turista) */\n      swap1\n      dup1\n      0x01\n      dup2\n      sload\n      add\n      dup1\n      dup3\n      sstore\n      dup1\n      swap2\n      pop\n      pop\n      0x01\n      swap1\n      sub\n      swap1\n      0x00\n      mstore\n      keccak256(0x00, 0x20)\n      swap1\n      0x03\n      mul\n      add\n      0x00\n      swap1\n      swap2\n      swap1\n      swap2\n      swap1\n      swap2\n      pop\n      0x00\n      dup3\n      add\n      mload\n      dup2\n      0x00\n      add\n      exp(0x0100, 0x00)\n      dup2\n      sload\n      dup2\n      0xffffffffffffffffffffffffffffffffffffffff\n      mul\n      not\n      and\n      swap1\n      dup4\n      0xffffffffffffffffffffffffffffffffffffffff\n      and\n      mul\n      or\n      swap1\n      sstore\n      pop\n      0x20\n      dup3\n      add\n      mload\n      dup2\n      0x01\n      add\n      swap1\n      dup1\n      mload\n      swap1\n      0x20\n      add\n      swap1\n      tag_185\n      swap3\n      swap2\n      swap1\n      tag_143\n      jump\t// in\n    tag_185:\n      pop\n      0x40\n      dup3\n      add\n      mload\n      dup2\n      0x02\n      add\n      exp(0x0100, 0x00)\n      dup2\n      sload\n      dup2\n      0xff\n      mul\n      not\n      and\n      swap1\n      dup4\n      0xff\n      and\n      mul\n      or\n      swap1\n      sstore\n      pop\n      0x60\n      dup3\n      add\n      mload\n      dup2\n      0x02\n      add\n      exp(0x0100, 0x01)\n      dup2\n      sload\n      dup2\n      0xff\n      mul\n      not\n      and\n      swap1\n      dup4\n      iszero\n      iszero\n      mul\n      or\n      swap1\n      sstore\n      pop\n      pop\n      pop\n        /* \"contracts/Usuarios.sol\":2641:2676  TuristaRegistrado(_cuenta, _nombre) */\n      0x6e3e05804c481790319a6706171e0354dbe5b600f1a3a8b4e12a70a2892f8d7d\n        /* \"contracts/Usuarios.sol\":2659:2666  _cuenta */\n      dup6\n        /* \"contracts/Usuarios.sol\":2668:2675  _nombre */\n      dup6\n        /* \"contracts/Usuarios.sol\":2641:2676  TuristaRegistrado(_cuenta, _nombre) */\n      mload(0x40)\n      tag_186\n      swap3\n      swap2\n      swap1\n      tag_147\n      jump\t// in\n    tag_186:\n      mload(0x40)\n      dup1\n      swap2\n      sub\n      swap1\n      log1\n        /* \"contracts/Usuarios.sol\":2686:2723  return \"Turista registrado con exito\" */\n      mload(0x40)\n      dup1\n      0x40\n      add\n      0x40\n      mstore\n      dup1\n      0x1c\n      dup2\n      mstore\n      0x20\n      add\n      0x54757269737461207265676973747261646f20636f6e20657869746f00000000\n      dup2\n      mstore\n      pop\n      swap2\n      pop\n      pop\n        /* \"contracts/Usuarios.sol\":2187:2730  function registrarTurista(... */\n      swap4\n      swap3\n      pop\n      pop\n      pop\n      jump\t// out\n        /* \"contracts/Usuarios.sol\":1003:1059  mapping(address => GuiaTuristas) public guiasRegistrados */\n    tag_49:\n      mstore(0x20, 0x03)\n      dup1\n      0x00\n      mstore\n      keccak256(0x00, 0x40)\n      0x00\n      swap2\n      pop\n      swap1\n      pop\n      dup1\n      0x00\n      add\n      0x00\n      swap1\n      sload\n      swap1\n      0x0100\n      exp\n      swap1\n      div\n      0xffffffffffffffffffffffffffffffffffffffff\n      and\n      swap1\n      dup1\n      0x01\n      add\n      dup1\n      sload\n      tag_187\n      swap1\n      tag_100\n      jump\t// in\n    tag_187:\n      dup1\n      0x1f\n      add\n      0x20\n      dup1\n      swap2\n      div\n      mul\n      0x20\n      add\n      mload(0x40)\n      swap1\n      dup2\n      add\n      0x40\n      mstore\n      dup1\n      swap3\n      swap2\n      swap1\n      dup2\n      dup2\n      mstore\n      0x20\n      add\n      dup3\n      dup1\n      sload\n      tag_188\n      swap1\n      tag_100\n      jump\t// in\n    tag_188:\n      dup1\n      iszero\n      tag_189\n      jumpi\n      dup1\n      0x1f\n      lt\n      tag_190\n      jumpi\n      0x0100\n      dup1\n      dup4\n      sload\n      div\n      mul\n      dup4\n      mstore\n      swap2\n      0x20\n      add\n      swap2\n      jump(tag_189)\n    tag_190:\n      dup3\n      add\n      swap2\n      swap1\n      0x00\n      mstore\n      keccak256(0x00, 0x20)\n      swap1\n    tag_191:\n      dup2\n      sload\n      dup2\n      mstore\n      swap1\n      0x01\n      add\n      swap1\n      0x20\n      add\n      dup1\n      dup4\n      gt\n      tag_191\n      jumpi\n      dup3\n      swap1\n      sub\n      0x1f\n      and\n      dup3\n      add\n      swap2\n    tag_189:\n      pop\n      pop\n      pop\n      pop\n      pop\n      swap1\n      dup1\n      0x02\n      add\n      0x00\n      swap1\n      sload\n      swap1\n      0x0100\n      exp\n      swap1\n      div\n      0xff\n      and\n      swap1\n      pop\n      dup4\n      jump\t// out\n        /* \"contracts/Usuarios.sol\":820:852  GuiaTuristas[] public listaGuias */\n    tag_55:\n      0x01\n      dup2\n      dup2\n      sload\n      dup2\n      lt\n      tag_192\n      jumpi\n      0x00\n      dup1\n      revert\n    tag_192:\n      swap1\n      0x00\n      mstore\n      keccak256(0x00, 0x20)\n      swap1\n      0x03\n      mul\n      add\n      0x00\n      swap2\n      pop\n      swap1\n      pop\n      dup1\n      0x00\n      add\n      0x00\n      swap1\n      sload\n      swap1\n      0x0100\n      exp\n      swap1\n      div\n      0xffffffffffffffffffffffffffffffffffffffff\n      and\n      swap1\n      dup1\n      0x01\n      add\n      dup1\n      sload\n      tag_194\n      swap1\n      tag_100\n      jump\t// in\n    tag_194:\n      dup1\n      0x1f\n      add\n      0x20\n      dup1\n      swap2\n      div\n      mul\n      0x20\n      add\n      mload(0x40)\n      swap1\n      dup2\n      add\n      0x40\n      mstore\n      dup1\n      swap3\n      swap2\n      swap1\n      dup2\n      dup2\n      mstore\n      0x20\n      add\n      dup3\n      dup1\n      sload\n      tag_195\n      swap1\n      tag_100\n      jump\t// in\n    tag_195:\n      dup1\n      iszero\n      tag_196\n      jumpi\n      dup1\n      0x1f\n      lt\n      tag_197\n      jumpi\n      0x0100\n      dup1\n      dup4\n      sload\n      div\n      mul\n      dup4\n      mstore\n      swap2\n      0x20\n      add\n      swap2\n      jump(tag_196)\n    tag_197:\n      dup3\n      add\n      swap2\n      swap1\n      0x00\n      mstore\n      keccak256(0x00, 0x20)\n      swap1\n    tag_198:\n      dup2\n      sload\n      dup2\n      mstore\n      swap1\n      0x01\n      add\n      swap1\n      0x20\n      add\n      dup1\n      dup4\n      gt\n      tag_198\n      jumpi\n      dup3\n      swap1\n      sub\n      0x1f\n      and\n      dup3\n      add\n      swap2\n    tag_196:\n      pop\n      pop\n      pop\n      pop\n      pop\n      swap1\n      dup1\n      0x02\n      add\n      0x00\n      swap1\n      sload\n      swap1\n      0x0100\n      exp\n      swap1\n      div\n      0xff\n      and\n      swap1\n      pop\n      dup4\n      jump\t// out\n        /* \"contracts/Usuarios.sol\":3059:3486  function verTurista(address _cuenta)... */\n    tag_59:\n        /* \"contracts/Usuarios.sol\":3154:3168  address cuenta */\n      0x00\n        /* \"contracts/Usuarios.sol\":3182:3202  string memory nombre */\n      0x60\n        /* \"contracts/Usuarios.sol\":3216:3226  uint8 edad */\n      0x00\n        /* \"contracts/Usuarios.sol\":3240:3251  bool activo */\n      dup1\n        /* \"contracts/Usuarios.sol\":3276:3299  Turista memory _turista */\n      0x00\n        /* \"contracts/Usuarios.sol\":3302:3321  turistasRegistrados */\n      0x04\n        /* \"contracts/Usuarios.sol\":3302:3330  turistasRegistrados[_cuenta] */\n      0x00\n        /* \"contracts/Usuarios.sol\":3322:3329  _cuenta */\n      dup8\n        /* \"contracts/Usuarios.sol\":3302:3330  turistasRegistrados[_cuenta] */\n      0xffffffffffffffffffffffffffffffffffffffff\n      and\n      0xffffffffffffffffffffffffffffffffffffffff\n      and\n      dup2\n      mstore\n      0x20\n      add\n      swap1\n      dup2\n      mstore\n      0x20\n      add\n      0x00\n      keccak256\n        /* \"contracts/Usuarios.sol\":3276:3330  Turista memory _turista = turistasRegistrados[_cuenta] */\n      mload(0x40)\n      dup1\n      0x80\n      add\n      0x40\n      mstore\n      swap1\n      dup2\n      0x00\n      dup3\n      add\n      0x00\n      swap1\n      sload\n      swap1\n      0x0100\n      exp\n      swap1\n      div\n      0xffffffffffffffffffffffffffffffffffffffff\n      and\n      0xffffffffffffffffffffffffffffffffffffffff\n      and\n      0xffffffffffffffffffffffffffffffffffffffff\n      and\n      dup2\n      mstore\n      0x20\n      add\n      0x01\n      dup3\n      add\n      dup1\n      sload\n      tag_200\n      swap1\n      tag_100\n      jump\t// in\n    tag_200:\n      dup1\n      0x1f\n      add\n      0x20\n      dup1\n      swap2\n      div\n      mul\n      0x20\n      add\n      mload(0x40)\n      swap1\n      dup2\n      add\n      0x40\n      mstore\n      dup1\n      swap3\n      swap2\n      swap1\n      dup2\n      dup2\n      mstore\n      0x20\n      add\n      dup3\n      dup1\n      sload\n      tag_201\n      swap1\n      tag_100\n      jump\t// in\n    tag_201:\n      dup1\n      iszero\n      tag_202\n      jumpi\n      dup1\n      0x1f\n      lt\n      tag_203\n      jumpi\n      0x0100\n      dup1\n      dup4\n      sload\n      div\n      mul\n      dup4\n      mstore\n      swap2\n      0x20\n      add\n      swap2\n      jump(tag_202)\n    tag_203:\n      dup3\n      add\n      swap2\n      swap1\n      0x00\n      mstore\n      keccak256(0x00, 0x20)\n      swap1\n    tag_204:\n      dup2\n      sload\n      dup2\n      mstore\n      swap1\n      0x01\n      add\n      swap1\n      0x20\n      add\n      dup1\n      dup4\n      gt\n      tag_204\n      jumpi\n      dup3\n      swap1\n      sub\n      0x1f\n      and\n      dup3\n      add\n      swap2\n    tag_202:\n      pop\n      pop\n      pop\n      pop\n      pop\n      dup2\n      mstore\n      0x20\n      add\n      0x02\n      dup3\n      add\n      0x00\n      swap1\n      sload\n      swap1\n      0x0100\n      exp\n      swap1\n      div\n      0xff\n      and\n      0xff\n      and\n      0xff\n      and\n      dup2\n      mstore\n      0x20\n      add\n      0x02\n      dup3\n      add\n      0x01\n      swap1\n      sload\n      swap1\n      0x0100\n      exp\n      swap1\n      div\n      0xff\n      and\n      iszero\n      iszero\n      iszero\n      iszero\n      dup2\n      mstore\n      pop\n      pop\n      swap1\n      pop\n        /* \"contracts/Usuarios.sol\":3361:3369  _turista */\n      dup1\n        /* \"contracts/Usuarios.sol\":3361:3376  _turista.cuenta */\n      0x00\n      add\n      mload\n        /* \"contracts/Usuarios.sol\":3390:3398  _turista */\n      dup2\n        /* \"contracts/Usuarios.sol\":3390:3413  _turista.nombreCompleto */\n      0x20\n      add\n      mload\n        /* \"contracts/Usuarios.sol\":3427:3435  _turista */\n      dup3\n        /* \"contracts/Usuarios.sol\":3427:3440  _turista.edad */\n      0x40\n      add\n      mload\n        /* \"contracts/Usuarios.sol\":3454:3462  _turista */\n      dup4\n        /* \"contracts/Usuarios.sol\":3454:3469  _turista.estado */\n      0x60\n      add\n      mload\n        /* \"contracts/Usuarios.sol\":3340:3479  return (... */\n      swap5\n      pop\n      swap5\n      pop\n      swap5\n      pop\n      swap5\n      pop\n      pop\n        /* \"contracts/Usuarios.sol\":3059:3486  function verTurista(address _cuenta)... */\n      swap2\n      swap4\n      pop\n      swap2\n      swap4\n      jump\t// out\n        /* \"contracts/Usuarios.sol\":3492:3840  function verGuias()... */\n    tag_62:\n        /* \"contracts/Usuarios.sol\":3576:3607  GuiaTuristas[] memory resultado */\n      0x60\n        /* \"contracts/Usuarios.sol\":1239:1245  duenno */\n      0x00\n      dup1\n      sload\n      swap1\n      0x0100\n      exp\n      swap1\n      div\n      0xffffffffffffffffffffffffffffffffffffffff\n      and\n        /* \"contracts/Usuarios.sol\":1225:1245  msg.sender == duenno */\n      0xffffffffffffffffffffffffffffffffffffffff\n      and\n        /* \"contracts/Usuarios.sol\":1225:1235  msg.sender */\n      caller\n        /* \"contracts/Usuarios.sol\":1225:1245  msg.sender == duenno */\n      0xffffffffffffffffffffffffffffffffffffffff\n      and\n      eq\n        /* \"contracts/Usuarios.sol\":1204:1312  require(... */\n      tag_206\n      jumpi\n      mload(0x40)\n      0x08c379a000000000000000000000000000000000000000000000000000000000\n      dup2\n      mstore\n      0x04\n      add\n      tag_207\n      swap1\n      tag_112\n      jump\t// in\n    tag_207:\n      mload(0x40)\n      dup1\n      swap2\n      sub\n      swap1\n      revert\n    tag_206:\n        /* \"contracts/Usuarios.sol\":3654:3664  listaGuias */\n      0x01\n        /* \"contracts/Usuarios.sol\":3654:3671  listaGuias.length */\n      dup1\n      sload\n      swap1\n      pop\n        /* \"contracts/Usuarios.sol\":3635:3672  new GuiaTuristas[](listaGuias.length) */\n      0xffffffffffffffff\n      dup2\n      gt\n      iszero\n      tag_209\n      jumpi\n      mstore(0x00, 0x4e487b7100000000000000000000000000000000000000000000000000000000)\n      mstore(0x04, 0x41)\n      revert(0x00, 0x24)\n    tag_209:\n      mload(0x40)\n      swap1\n      dup1\n      dup3\n      mstore\n      dup1\n      0x20\n      mul\n      0x20\n      add\n      dup3\n      add\n      0x40\n      mstore\n      dup1\n      iszero\n      tag_210\n      jumpi\n      dup2\n      0x20\n      add\n    tag_211:\n      tag_212\n      tag_213\n      jump\t// in\n    tag_212:\n      dup2\n      mstore\n      0x20\n      add\n      swap1\n      0x01\n      swap1\n      sub\n      swap1\n      dup2\n      tag_211\n      jumpi\n      swap1\n      pop\n    tag_210:\n      pop\n        /* \"contracts/Usuarios.sol\":3623:3672  resultado = new GuiaTuristas[](listaGuias.length) */\n      swap1\n      pop\n        /* \"contracts/Usuarios.sol\":3687:3696  uint256 i */\n      0x00\n        /* \"contracts/Usuarios.sol\":3682:3808  for (uint256 i = 0; i < listaGuias.length; i++) {... */\n    tag_214:\n        /* \"contracts/Usuarios.sol\":3706:3716  listaGuias */\n      0x01\n        /* \"contracts/Usuarios.sol\":3706:3723  listaGuias.length */\n      dup1\n      sload\n      swap1\n      pop\n        /* \"contracts/Usuarios.sol\":3702:3703  i */\n      dup2\n        /* \"contracts/Usuarios.sol\":3702:3723  i < listaGuias.length */\n      lt\n        /* \"contracts/Usuarios.sol\":3682:3808  for (uint256 i = 0; i < listaGuias.length; i++) {... */\n      iszero\n      tag_215\n      jumpi\n        /* \"contracts/Usuarios.sol\":3759:3775  guiasRegistrados */\n      0x03\n        /* \"contracts/Usuarios.sol\":3759:3797  guiasRegistrados[listaGuias[i].cuenta] */\n      0x00\n        /* \"contracts/Usuarios.sol\":3776:3786  listaGuias */\n      0x01\n        /* \"contracts/Usuarios.sol\":3787:3788  i */\n      dup4\n        /* \"contracts/Usuarios.sol\":3776:3789  listaGuias[i] */\n      dup2\n      sload\n      dup2\n      lt\n      tag_217\n      jumpi\n      mstore(0x00, 0x4e487b7100000000000000000000000000000000000000000000000000000000)\n      mstore(0x04, 0x32)\n      revert(0x00, 0x24)\n    tag_217:\n      swap1\n      0x00\n      mstore\n      keccak256(0x00, 0x20)\n      swap1\n      0x03\n      mul\n      add\n        /* \"contracts/Usuarios.sol\":3776:3796  listaGuias[i].cuenta */\n      0x00\n      add\n      0x00\n      swap1\n      sload\n      swap1\n      0x0100\n      exp\n      swap1\n      div\n      0xffffffffffffffffffffffffffffffffffffffff\n      and\n        /* \"contracts/Usuarios.sol\":3759:3797  guiasRegistrados[listaGuias[i].cuenta] */\n      0xffffffffffffffffffffffffffffffffffffffff\n      and\n      0xffffffffffffffffffffffffffffffffffffffff\n      and\n      dup2\n      mstore\n      0x20\n      add\n      swap1\n      dup2\n      mstore\n      0x20\n      add\n      0x00\n      keccak256\n        /* \"contracts/Usuarios.sol\":3744:3797  resultado[i] = guiasRegistrados[listaGuias[i].cuenta] */\n      mload(0x40)\n      dup1\n      0x60\n      add\n      0x40\n      mstore\n      swap1\n      dup2\n      0x00\n      dup3\n      add\n      0x00\n      swap1\n      sload\n      swap1\n      0x0100\n      exp\n      swap1\n      div\n      0xffffffffffffffffffffffffffffffffffffffff\n      and\n      0xffffffffffffffffffffffffffffffffffffffff\n      and\n      0xffffffffffffffffffffffffffffffffffffffff\n      and\n      dup2\n      mstore\n      0x20\n      add\n      0x01\n      dup3\n      add\n      dup1\n      sload\n      tag_219\n      swap1\n      tag_100\n      jump\t// in\n    tag_219:\n      dup1\n      0x1f\n      add\n      0x20\n      dup1\n      swap2\n      div\n      mul\n      0x20\n      add\n      mload(0x40)\n      swap1\n      dup2\n      add\n      0x40\n      mstore\n      dup1\n      swap3\n      swap2\n      swap1\n      dup2\n      dup2\n      mstore\n      0x20\n      add\n      dup3\n      dup1\n      sload\n      tag_220\n      swap1\n      tag_100\n      jump\t// in\n    tag_220:\n      dup1\n      iszero\n      tag_221\n      jumpi\n      dup1\n      0x1f\n      lt\n      tag_222\n      jumpi\n      0x0100\n      dup1\n      dup4\n      sload\n      div\n      mul\n      dup4\n      mstore\n      swap2\n      0x20\n      add\n      swap2\n      jump(tag_221)\n    tag_222:\n      dup3\n      add\n      swap2\n      swap1\n      0x00\n      mstore\n      keccak256(0x00, 0x20)\n      swap1\n    tag_223:\n      dup2\n      sload\n      dup2\n      mstore\n      swap1\n      0x01\n      add\n      swap1\n      0x20\n      add\n      dup1\n      dup4\n      gt\n      tag_223\n      jumpi\n      dup3\n      swap1\n      sub\n      0x1f\n      and\n      dup3\n      add\n      swap2\n    tag_221:\n      pop\n      pop\n      pop\n      pop\n      pop\n      dup2\n      mstore\n      0x20\n      add\n      0x02\n      dup3\n      add\n      0x00\n      swap1\n      sload\n      swap1\n      0x0100\n      exp\n      swap1\n      div\n      0xff\n      and\n      iszero\n      iszero\n      iszero\n      iszero\n      dup2\n      mstore\n      pop\n      pop\n        /* \"contracts/Usuarios.sol\":3744:3753  resultado */\n      dup3\n        /* \"contracts/Usuarios.sol\":3754:3755  i */\n      dup3\n        /* \"contracts/Usuarios.sol\":3744:3756  resultado[i] */\n      dup2\n      mload\n      dup2\n      lt\n      tag_224\n      jumpi\n      mstore(0x00, 0x4e487b7100000000000000000000000000000000000000000000000000000000)\n      mstore(0x04, 0x32)\n      revert(0x00, 0x24)\n    tag_224:\n      0x20\n      mul\n      0x20\n      add\n      add\n        /* \"contracts/Usuarios.sol\":3744:3797  resultado[i] = guiasRegistrados[listaGuias[i].cuenta] */\n      dup2\n      swap1\n      mstore\n      pop\n        /* \"contracts/Usuarios.sol\":3725:3728  i++ */\n      dup1\n      dup1\n      tag_225\n      swap1\n      tag_108\n      jump\t// in\n    tag_225:\n      swap2\n      pop\n      pop\n        /* \"contracts/Usuarios.sol\":3682:3808  for (uint256 i = 0; i < listaGuias.length; i++) {... */\n      jump(tag_214)\n    tag_215:\n      pop\n        /* \"contracts/Usuarios.sol\":3492:3840  function verGuias()... */\n      swap1\n      jump\t// out\n        /* \"contracts/Usuarios.sol\":664:685  address public duenno */\n    tag_66:\n      0x00\n      dup1\n      sload\n      swap1\n      0x0100\n      exp\n      swap1\n      div\n      0xffffffffffffffffffffffffffffffffffffffff\n      and\n      dup2\n      jump\t// out\n        /* \"contracts/Usuarios.sol\":2736:3053  function verGuia(address _cuenta)... */\n    tag_71:\n        /* \"contracts/Usuarios.sol\":2828:2842  address cuenta */\n      0x00\n        /* \"contracts/Usuarios.sol\":2856:2876  string memory nombre */\n      0x60\n        /* \"contracts/Usuarios.sol\":2890:2901  bool activo */\n      0x00\n        /* \"contracts/Usuarios.sol\":2926:2951  GuiaTuristas memory _guia */\n      dup1\n        /* \"contracts/Usuarios.sol\":2954:2970  guiasRegistrados */\n      0x03\n        /* \"contracts/Usuarios.sol\":2954:2979  guiasRegistrados[_cuenta] */\n      0x00\n        /* \"contracts/Usuarios.sol\":2971:2978  _cuenta */\n      dup7\n        /* \"contracts/Usuarios.sol\":2954:2979  guiasRegistrados[_cuenta] */\n      0xffffffffffffffffffffffffffffffffffffffff\n      and\n      0xffffffffffffffffffffffffffffffffffffffff\n      and\n      dup2\n      mstore\n      0x20\n      add\n      swap1\n      dup2\n      mstore\n      0x20\n      add\n      0x00\n      keccak256\n        /* \"contracts/Usuarios.sol\":2926:2979  GuiaTuristas memory _guia = guiasRegistrados[_cuenta] */\n      mload(0x40)\n      dup1\n      0x60\n      add\n      0x40\n      mstore\n      swap1\n      dup2\n      0x00\n      dup3\n      add\n      0x00\n      swap1\n      sload\n      swap1\n      0x0100\n      exp\n      swap1\n      div\n      0xffffffffffffffffffffffffffffffffffffffff\n      and\n      0xffffffffffffffffffffffffffffffffffffffff\n      and\n      0xffffffffffffffffffffffffffffffffffffffff\n      and\n      dup2\n      mstore\n      0x20\n      add\n      0x01\n      dup3\n      add\n      dup1\n      sload\n      tag_227\n      swap1\n      tag_100\n      jump\t// in\n    tag_227:\n      dup1\n      0x1f\n      add\n      0x20\n      dup1\n      swap2\n      div\n      mul\n      0x20\n      add\n      mload(0x40)\n      swap1\n      dup2\n      add\n      0x40\n      mstore\n      dup1\n      swap3\n      swap2\n      swap1\n      dup2\n      dup2\n      mstore\n      0x20\n      add\n      dup3\n      dup1\n      sload\n      tag_228\n      swap1\n      tag_100\n      jump\t// in\n    tag_228:\n      dup1\n      iszero\n      tag_229\n      jumpi\n      dup1\n      0x1f\n      lt\n      tag_230\n      jumpi\n      0x0100\n      dup1\n      dup4\n      sload\n      div\n      mul\n      dup4\n      mstore\n      swap2\n      0x20\n      add\n      swap2\n      jump(tag_229)\n    tag_230:\n      dup3\n      add\n      swap2\n      swap1\n      0x00\n      mstore\n      keccak256(0x00, 0x20)\n      swap1\n    tag_231:\n      dup2\n      sload\n      dup2\n      mstore\n      swap1\n      0x01\n      add\n      swap1\n      0x20\n      add\n      dup1\n      dup4\n      gt\n      tag_231\n      jumpi\n      dup3\n      swap1\n      sub\n      0x1f\n      and\n      dup3\n      add\n      swap2\n    tag_229:\n      pop\n      pop\n      pop\n      pop\n      pop\n      dup2\n      mstore\n      0x20\n      add\n      0x02\n      dup3\n      add\n      0x00\n      swap1\n      sload\n      swap1\n      0x0100\n      exp\n      swap1\n      div\n      0xff\n      and\n      iszero\n      iszero\n      iszero\n      iszero\n      dup2\n      mstore\n      pop\n      pop\n      swap1\n      pop\n        /* \"contracts/Usuarios.sol\":2997:3002  _guia */\n      dup1\n        /* \"contracts/Usuarios.sol\":2997:3009  _guia.cuenta */\n      0x00\n      add\n      mload\n        /* \"contracts/Usuarios.sol\":3011:3016  _guia */\n      dup2\n        /* \"contracts/Usuarios.sol\":3011:3031  _guia.nombreCompleto */\n      0x20\n      add\n      mload\n        /* \"contracts/Usuarios.sol\":3033:3038  _guia */\n      dup3\n        /* \"contracts/Usuarios.sol\":3033:3045  _guia.estado */\n      0x40\n      add\n      mload\n        /* \"contracts/Usuarios.sol\":2989:3046  return (_guia.cuenta, _guia.nombreCompleto, _guia.estado) */\n      swap4\n      pop\n      swap4\n      pop\n      swap4\n      pop\n      pop\n        /* \"contracts/Usuarios.sol\":2736:3053  function verGuia(address _cuenta)... */\n      swap2\n      swap4\n      swap1\n      swap3\n      pop\n      jump\t// out\n        /* \"contracts/Usuarios.sol\":858:888  Turista[] public listaTuristas */\n    tag_75:\n      0x02\n      dup2\n      dup2\n      sload\n      dup2\n      lt\n      tag_232\n      jumpi\n      0x00\n      dup1\n      revert\n    tag_232:\n      swap1\n      0x00\n      mstore\n      keccak256(0x00, 0x20)\n      swap1\n      0x03\n      mul\n      add\n      0x00\n      swap2\n      pop\n      swap1\n      pop\n      dup1\n      0x00\n      add\n      0x00\n      swap1\n      sload\n      swap1\n      0x0100\n      exp\n      swap1\n      div\n      0xffffffffffffffffffffffffffffffffffffffff\n      and\n      swap1\n      dup1\n      0x01\n      add\n      dup1\n      sload\n      tag_234\n      swap1\n      tag_100\n      jump\t// in\n    tag_234:\n      dup1\n      0x1f\n      add\n      0x20\n      dup1\n      swap2\n      div\n      mul\n      0x20\n      add\n      mload(0x40)\n      swap1\n      dup2\n      add\n      0x40\n      mstore\n      dup1\n      swap3\n      swap2\n      swap1\n      dup2\n      dup2\n      mstore\n      0x20\n      add\n      dup3\n      dup1\n      sload\n      tag_235\n      swap1\n      tag_100\n      jump\t// in\n    tag_235:\n      dup1\n      iszero\n      tag_236\n      jumpi\n      dup1\n      0x1f\n      lt\n      tag_237\n      jumpi\n      0x0100\n      dup1\n      dup4\n      sload\n      div\n      mul\n      dup4\n      mstore\n      swap2\n      0x20\n      add\n      swap2\n      jump(tag_236)\n    tag_237:\n      dup3\n      add\n      swap2\n      swap1\n      0x00\n      mstore\n      keccak256(0x00, 0x20)\n      swap1\n    tag_238:\n      dup2\n      sload\n      dup2\n      mstore\n      swap1\n      0x01\n      add\n      swap1\n      0x20\n      add\n      dup1\n      dup4\n      gt\n      tag_238\n      jumpi\n      dup3\n      swap1\n      sub\n      0x1f\n      and\n      dup3\n      add\n      swap2\n    tag_236:\n      pop\n      pop\n      pop\n      pop\n      pop\n      swap1\n      dup1\n      0x02\n      add\n      0x00\n      swap1\n      sload\n      swap1\n      0x0100\n      exp\n      swap1\n      div\n      0xff\n      and\n      swap1\n      dup1\n      0x02\n      add\n      0x01\n      swap1\n      sload\n      swap1\n      0x0100\n      exp\n      swap1\n      div\n      0xff\n      and\n      swap1\n      pop\n      dup5\n      jump\t// out\n    tag_102:\n      dup3\n      dup1\n      sload\n      tag_239\n      swap1\n      tag_100\n      jump\t// in\n    tag_239:\n      swap1\n      0x00\n      mstore\n      keccak256(0x00, 0x20)\n      swap1\n      0x1f\n      add\n      0x20\n      swap1\n      div\n      dup2\n      add\n      swap3\n      dup3\n      tag_241\n      jumpi\n      0x00\n      dup6\n      sstore\n      jump(tag_240)\n    tag_241:\n      dup3\n      0x1f\n      lt\n      tag_242\n      jumpi\n      dup1\n      sload\n      dup6\n      sstore\n      jump(tag_240)\n    tag_242:\n      dup3\n      dup1\n      add\n      0x01\n      add\n      dup6\n      sstore\n      dup3\n      iszero\n      tag_240\n      jumpi\n      0x00\n      mstore\n      keccak256(0x00, 0x20)\n      swap2\n      0x1f\n      add\n      0x20\n      swap1\n      div\n      dup3\n      add\n    tag_243:\n      dup3\n      dup2\n      gt\n      iszero\n      tag_244\n      jumpi\n      dup3\n      sload\n      dup3\n      sstore\n      swap2\n      0x01\n      add\n      swap2\n      swap1\n      0x01\n      add\n      swap1\n      jump(tag_243)\n    tag_244:\n    tag_240:\n      pop\n      swap1\n      pop\n      tag_245\n      swap2\n      swap1\n      tag_246\n      jump\t// in\n    tag_245:\n      pop\n      swap1\n      jump\t// out\n    tag_106:\n      pop\n      dup1\n      sload\n      tag_247\n      swap1\n      tag_100\n      jump\t// in\n    tag_247:\n      0x00\n      dup3\n      sstore\n      dup1\n      0x1f\n      lt\n      tag_249\n      jumpi\n      pop\n      jump(tag_248)\n    tag_249:\n      0x1f\n      add\n      0x20\n      swap1\n      div\n      swap1\n      0x00\n      mstore\n      keccak256(0x00, 0x20)\n      swap1\n      dup2\n      add\n      swap1\n      tag_250\n      swap2\n      swap1\n      tag_246\n      jump\t// in\n    tag_250:\n    tag_248:\n      pop\n      jump\t// out\n    tag_143:\n      dup3\n      dup1\n      sload\n      tag_251\n      swap1\n      tag_100\n      jump\t// in\n    tag_251:\n      swap1\n      0x00\n      mstore\n      keccak256(0x00, 0x20)\n      swap1\n      0x1f\n      add\n      0x20\n      swap1\n      div\n      dup2\n      add\n      swap3\n      dup3\n      tag_253\n      jumpi\n      0x00\n      dup6\n      sstore\n      jump(tag_252)\n    tag_253:\n      dup3\n      0x1f\n      lt\n      tag_254\n      jumpi\n      dup1\n      mload\n      not(0xff)\n      and\n      dup4\n      dup1\n      add\n      or\n      dup6\n      sstore\n      jump(tag_252)\n    tag_254:\n      dup3\n      dup1\n      add\n      0x01\n      add\n      dup6\n      sstore\n      dup3\n      iszero\n      tag_252\n      jumpi\n      swap2\n      dup3\n      add\n    tag_255:\n      dup3\n      dup2\n      gt\n      iszero\n      tag_256\n      jumpi\n      dup3\n      mload\n      dup3\n      sstore\n      swap2\n      0x20\n      add\n      swap2\n      swap1\n      0x01\n      add\n      swap1\n      jump(tag_255)\n    tag_256:\n    tag_252:\n      pop\n      swap1\n      pop\n      tag_257\n      swap2\n      swap1\n      tag_246\n      jump\t// in\n    tag_257:\n      pop\n      swap1\n      jump\t// out\n    tag_162:\n      mload(0x40)\n      dup1\n      0x80\n      add\n      0x40\n      mstore\n      dup1\n      and(0xffffffffffffffffffffffffffffffffffffffff, 0x00)\n      dup2\n      mstore\n      0x20\n      add\n      0x60\n      dup2\n      mstore\n      0x20\n      add\n      and(0xff, 0x00)\n      dup2\n      mstore\n      0x20\n      add\n      iszero(iszero(0x00))\n      dup2\n      mstore\n      pop\n      swap1\n      jump\t// out\n    tag_213:\n      mload(0x40)\n      dup1\n      0x60\n      add\n      0x40\n      mstore\n      dup1\n      and(0xffffffffffffffffffffffffffffffffffffffff, 0x00)\n      dup2\n      mstore\n      0x20\n      add\n      0x60\n      dup2\n      mstore\n      0x20\n      add\n      iszero(iszero(0x00))\n      dup2\n      mstore\n      pop\n      swap1\n      jump\t// out\n    tag_246:\n    tag_258:\n      dup1\n      dup3\n      gt\n      iszero\n      tag_259\n      jumpi\n      0x00\n      dup2\n      0x00\n      swap1\n      sstore\n      pop\n      0x01\n      add\n      jump(tag_258)\n    tag_259:\n      pop\n      swap1\n      jump\t// out\n        /* \"#utility.yul\":7:351   */\n    tag_261:\n      0x00\n        /* \"#utility.yul\":110:175   */\n      tag_263\n        /* \"#utility.yul\":125:174   */\n      tag_264\n        /* \"#utility.yul\":167:173   */\n      dup5\n        /* \"#utility.yul\":125:174   */\n      tag_265\n      jump\t// in\n    tag_264:\n        /* \"#utility.yul\":110:175   */\n      tag_266\n      jump\t// in\n    tag_263:\n        /* \"#utility.yul\":101:175   */\n      swap1\n      pop\n        /* \"#utility.yul\":198:204   */\n      dup3\n        /* \"#utility.yul\":191:196   */\n      dup2\n        /* \"#utility.yul\":184:205   */\n      mstore\n        /* \"#utility.yul\":236:240   */\n      0x20\n        /* \"#utility.yul\":229:234   */\n      dup2\n        /* \"#utility.yul\":225:241   */\n      add\n        /* \"#utility.yul\":274:277   */\n      dup5\n        /* \"#utility.yul\":265:271   */\n      dup5\n        /* \"#utility.yul\":260:263   */\n      dup5\n        /* \"#utility.yul\":256:272   */\n      add\n        /* \"#utility.yul\":253:278   */\n      gt\n        /* \"#utility.yul\":250:252   */\n      iszero\n      tag_267\n      jumpi\n        /* \"#utility.yul\":291:292   */\n      0x00\n        /* \"#utility.yul\":288:289   */\n      dup1\n        /* \"#utility.yul\":281:293   */\n      revert\n        /* \"#utility.yul\":250:252   */\n    tag_267:\n        /* \"#utility.yul\":304:345   */\n      tag_268\n        /* \"#utility.yul\":338:344   */\n      dup5\n        /* \"#utility.yul\":333:336   */\n      dup3\n        /* \"#utility.yul\":328:331   */\n      dup6\n        /* \"#utility.yul\":304:345   */\n      tag_269\n      jump\t// in\n    tag_268:\n        /* \"#utility.yul\":91:351   */\n      pop\n      swap4\n      swap3\n      pop\n      pop\n      pop\n      jump\t// out\n        /* \"#utility.yul\":357:496   */\n    tag_270:\n      0x00\n        /* \"#utility.yul\":441:447   */\n      dup2\n        /* \"#utility.yul\":428:448   */\n      calldataload\n        /* \"#utility.yul\":419:448   */\n      swap1\n      pop\n        /* \"#utility.yul\":457:490   */\n      tag_272\n        /* \"#utility.yul\":484:489   */\n      dup2\n        /* \"#utility.yul\":457:490   */\n      tag_273\n      jump\t// in\n    tag_272:\n        /* \"#utility.yul\":409:496   */\n      swap3\n      swap2\n      pop\n      pop\n      jump\t// out\n        /* \"#utility.yul\":516:789   */\n    tag_274:\n      0x00\n        /* \"#utility.yul\":621:624   */\n      dup3\n        /* \"#utility.yul\":614:618   */\n      0x1f\n        /* \"#utility.yul\":606:612   */\n      dup4\n        /* \"#utility.yul\":602:619   */\n      add\n        /* \"#utility.yul\":598:625   */\n      slt\n        /* \"#utility.yul\":588:590   */\n      tag_276\n      jumpi\n        /* \"#utility.yul\":639:640   */\n      0x00\n        /* \"#utility.yul\":636:637   */\n      dup1\n        /* \"#utility.yul\":629:641   */\n      revert\n        /* \"#utility.yul\":588:590   */\n    tag_276:\n        /* \"#utility.yul\":679:685   */\n      dup2\n        /* \"#utility.yul\":666:686   */\n      calldataload\n        /* \"#utility.yul\":704:783   */\n      tag_277\n        /* \"#utility.yul\":779:782   */\n      dup5\n        /* \"#utility.yul\":771:777   */\n      dup3\n        /* \"#utility.yul\":764:768   */\n      0x20\n        /* \"#utility.yul\":756:762   */\n      dup7\n        /* \"#utility.yul\":752:769   */\n      add\n        /* \"#utility.yul\":704:783   */\n      tag_261\n      jump\t// in\n    tag_277:\n        /* \"#utility.yul\":695:783   */\n      swap2\n      pop\n        /* \"#utility.yul\":578:789   */\n      pop\n      swap3\n      swap2\n      pop\n      pop\n      jump\t// out\n        /* \"#utility.yul\":795:934   */\n    tag_278:\n      0x00\n        /* \"#utility.yul\":879:885   */\n      dup2\n        /* \"#utility.yul\":866:886   */\n      calldataload\n        /* \"#utility.yul\":857:886   */\n      swap1\n      pop\n        /* \"#utility.yul\":895:928   */\n      tag_280\n        /* \"#utility.yul\":922:927   */\n      dup2\n        /* \"#utility.yul\":895:928   */\n      tag_281\n      jump\t// in\n    tag_280:\n        /* \"#utility.yul\":847:934   */\n      swap3\n      swap2\n      pop\n      pop\n      jump\t// out\n        /* \"#utility.yul\":940:1075   */\n    tag_282:\n      0x00\n        /* \"#utility.yul\":1022:1028   */\n      dup2\n        /* \"#utility.yul\":1009:1029   */\n      calldataload\n        /* \"#utility.yul\":1000:1029   */\n      swap1\n      pop\n        /* \"#utility.yul\":1038:1069   */\n      tag_284\n        /* \"#utility.yul\":1063:1068   */\n      dup2\n        /* \"#utility.yul\":1038:1069   */\n      tag_285\n      jump\t// in\n    tag_284:\n        /* \"#utility.yul\":990:1075   */\n      swap3\n      swap2\n      pop\n      pop\n      jump\t// out\n        /* \"#utility.yul\":1081:1343   */\n    tag_20:\n      0x00\n        /* \"#utility.yul\":1189:1191   */\n      0x20\n        /* \"#utility.yul\":1177:1186   */\n      dup3\n        /* \"#utility.yul\":1168:1175   */\n      dup5\n        /* \"#utility.yul\":1164:1187   */\n      sub\n        /* \"#utility.yul\":1160:1192   */\n      slt\n        /* \"#utility.yul\":1157:1159   */\n      iszero\n      tag_287\n      jumpi\n        /* \"#utility.yul\":1205:1206   */\n      0x00\n        /* \"#utility.yul\":1202:1203   */\n      dup1\n        /* \"#utility.yul\":1195:1207   */\n      revert\n        /* \"#utility.yul\":1157:1159   */\n    tag_287:\n        /* \"#utility.yul\":1248:1249   */\n      0x00\n        /* \"#utility.yul\":1273:1326   */\n      tag_288\n        /* \"#utility.yul\":1318:1325   */\n      dup5\n        /* \"#utility.yul\":1309:1315   */\n      dup3\n        /* \"#utility.yul\":1298:1307   */\n      dup6\n        /* \"#utility.yul\":1294:1316   */\n      add\n        /* \"#utility.yul\":1273:1326   */\n      tag_270\n      jump\t// in\n    tag_288:\n        /* \"#utility.yul\":1263:1326   */\n      swap2\n      pop\n        /* \"#utility.yul\":1219:1336   */\n      pop\n        /* \"#utility.yul\":1147:1343   */\n      swap3\n      swap2\n      pop\n      pop\n      jump\t// out\n        /* \"#utility.yul\":1349:1869   */\n    tag_30:\n      0x00\n      dup1\n        /* \"#utility.yul\":1484:1486   */\n      0x40\n        /* \"#utility.yul\":1472:1481   */\n      dup4\n        /* \"#utility.yul\":1463:1470   */\n      dup6\n        /* \"#utility.yul\":1459:1482   */\n      sub\n        /* \"#utility.yul\":1455:1487   */\n      slt\n        /* \"#utility.yul\":1452:1454   */\n      iszero\n      tag_290\n      jumpi\n        /* \"#utility.yul\":1500:1501   */\n      0x00\n        /* \"#utility.yul\":1497:1498   */\n      dup1\n        /* \"#utility.yul\":1490:1502   */\n      revert\n        /* \"#utility.yul\":1452:1454   */\n    tag_290:\n        /* \"#utility.yul\":1543:1544   */\n      0x00\n        /* \"#utility.yul\":1568:1621   */\n      tag_291\n        /* \"#utility.yul\":1613:1620   */\n      dup6\n        /* \"#utility.yul\":1604:1610   */\n      dup3\n        /* \"#utility.yul\":1593:1602   */\n      dup7\n        /* \"#utility.yul\":1589:1611   */\n      add\n        /* \"#utility.yul\":1568:1621   */\n      tag_270\n      jump\t// in\n    tag_291:\n        /* \"#utility.yul\":1558:1621   */\n      swap3\n      pop\n        /* \"#utility.yul\":1514:1631   */\n      pop\n        /* \"#utility.yul\":1698:1700   */\n      0x20\n        /* \"#utility.yul\":1687:1696   */\n      dup4\n        /* \"#utility.yul\":1683:1701   */\n      add\n        /* \"#utility.yul\":1670:1702   */\n      calldataload\n        /* \"#utility.yul\":1729:1747   */\n      0xffffffffffffffff\n        /* \"#utility.yul\":1721:1727   */\n      dup2\n        /* \"#utility.yul\":1718:1748   */\n      gt\n        /* \"#utility.yul\":1715:1717   */\n      iszero\n      tag_292\n      jumpi\n        /* \"#utility.yul\":1761:1762   */\n      0x00\n        /* \"#utility.yul\":1758:1759   */\n      dup1\n        /* \"#utility.yul\":1751:1763   */\n      revert\n        /* \"#utility.yul\":1715:1717   */\n    tag_292:\n        /* \"#utility.yul\":1789:1852   */\n      tag_293\n        /* \"#utility.yul\":1844:1851   */\n      dup6\n        /* \"#utility.yul\":1835:1841   */\n      dup3\n        /* \"#utility.yul\":1824:1833   */\n      dup7\n        /* \"#utility.yul\":1820:1842   */\n      add\n        /* \"#utility.yul\":1789:1852   */\n      tag_274\n      jump\t// in\n    tag_293:\n        /* \"#utility.yul\":1779:1852   */\n      swap2\n      pop\n        /* \"#utility.yul\":1641:1862   */\n      pop\n        /* \"#utility.yul\":1442:1869   */\n      swap3\n      pop\n      swap3\n      swap1\n      pop\n      jump\t// out\n        /* \"#utility.yul\":1875:2536   */\n    tag_44:\n      0x00\n      dup1\n      0x00\n        /* \"#utility.yul\":2025:2027   */\n      0x60\n        /* \"#utility.yul\":2013:2022   */\n      dup5\n        /* \"#utility.yul\":2004:2011   */\n      dup7\n        /* \"#utility.yul\":2000:2023   */\n      sub\n        /* \"#utility.yul\":1996:2028   */\n      slt\n        /* \"#utility.yul\":1993:1995   */\n      iszero\n      tag_295\n      jumpi\n        /* \"#utility.yul\":2041:2042   */\n      0x00\n        /* \"#utility.yul\":2038:2039   */\n      dup1\n        /* \"#utility.yul\":2031:2043   */\n      revert\n        /* \"#utility.yul\":1993:1995   */\n    tag_295:\n        /* \"#utility.yul\":2084:2085   */\n      0x00\n        /* \"#utility.yul\":2109:2162   */\n      tag_296\n        /* \"#utility.yul\":2154:2161   */\n      dup7\n        /* \"#utility.yul\":2145:2151   */\n      dup3\n        /* \"#utility.yul\":2134:2143   */\n      dup8\n        /* \"#utility.yul\":2130:2152   */\n      add\n        /* \"#utility.yul\":2109:2162   */\n      tag_270\n      jump\t// in\n    tag_296:\n        /* \"#utility.yul\":2099:2162   */\n      swap4\n      pop\n        /* \"#utility.yul\":2055:2172   */\n      pop\n        /* \"#utility.yul\":2239:2241   */\n      0x20\n        /* \"#utility.yul\":2228:2237   */\n      dup5\n        /* \"#utility.yul\":2224:2242   */\n      add\n        /* \"#utility.yul\":2211:2243   */\n      calldataload\n        /* \"#utility.yul\":2270:2288   */\n      0xffffffffffffffff\n        /* \"#utility.yul\":2262:2268   */\n      dup2\n        /* \"#utility.yul\":2259:2289   */\n      gt\n        /* \"#utility.yul\":2256:2258   */\n      iszero\n      tag_297\n      jumpi\n        /* \"#utility.yul\":2302:2303   */\n      0x00\n        /* \"#utility.yul\":2299:2300   */\n      dup1\n        /* \"#utility.yul\":2292:2304   */\n      revert\n        /* \"#utility.yul\":2256:2258   */\n    tag_297:\n        /* \"#utility.yul\":2330:2393   */\n      tag_298\n        /* \"#utility.yul\":2385:2392   */\n      dup7\n        /* \"#utility.yul\":2376:2382   */\n      dup3\n        /* \"#utility.yul\":2365:2374   */\n      dup8\n        /* \"#utility.yul\":2361:2383   */\n      add\n        /* \"#utility.yul\":2330:2393   */\n      tag_274\n      jump\t// in\n    tag_298:\n        /* \"#utility.yul\":2320:2393   */\n      swap3\n      pop\n        /* \"#utility.yul\":2182:2403   */\n      pop\n        /* \"#utility.yul\":2442:2444   */\n      0x40\n        /* \"#utility.yul\":2468:2519   */\n      tag_299\n        /* \"#utility.yul\":2511:2518   */\n      dup7\n        /* \"#utility.yul\":2502:2508   */\n      dup3\n        /* \"#utility.yul\":2491:2500   */\n      dup8\n        /* \"#utility.yul\":2487:2509   */\n      add\n        /* \"#utility.yul\":2468:2519   */\n      tag_282\n      jump\t// in\n    tag_299:\n        /* \"#utility.yul\":2458:2519   */\n      swap2\n      pop\n        /* \"#utility.yul\":2413:2529   */\n      pop\n        /* \"#utility.yul\":1983:2536   */\n      swap3\n      pop\n      swap3\n      pop\n      swap3\n      jump\t// out\n        /* \"#utility.yul\":2542:2804   */\n    tag_54:\n      0x00\n        /* \"#utility.yul\":2650:2652   */\n      0x20\n        /* \"#utility.yul\":2638:2647   */\n      dup3\n        /* \"#utility.yul\":2629:2636   */\n      dup5\n        /* \"#utility.yul\":2625:2648   */\n      sub\n        /* \"#utility.yul\":2621:2653   */\n      slt\n        /* \"#utility.yul\":2618:2620   */\n      iszero\n      tag_301\n      jumpi\n        /* \"#utility.yul\":2666:2667   */\n      0x00\n        /* \"#utility.yul\":2663:2664   */\n      dup1\n        /* \"#utility.yul\":2656:2668   */\n      revert\n        /* \"#utility.yul\":2618:2620   */\n    tag_301:\n        /* \"#utility.yul\":2709:2710   */\n      0x00\n        /* \"#utility.yul\":2734:2787   */\n      tag_302\n        /* \"#utility.yul\":2779:2786   */\n      dup5\n        /* \"#utility.yul\":2770:2776   */\n      dup3\n        /* \"#utility.yul\":2759:2768   */\n      dup6\n        /* \"#utility.yul\":2755:2777   */\n      add\n        /* \"#utility.yul\":2734:2787   */\n      tag_278\n      jump\t// in\n    tag_302:\n        /* \"#utility.yul\":2724:2787   */\n      swap2\n      pop\n        /* \"#utility.yul\":2680:2797   */\n      pop\n        /* \"#utility.yul\":2608:2804   */\n      swap3\n      swap2\n      pop\n      pop\n      jump\t// out\n        /* \"#utility.yul\":2810:3074   */\n    tag_303:\n      0x00\n        /* \"#utility.yul\":2968:3068   */\n      tag_305\n        /* \"#utility.yul\":3064:3067   */\n      dup4\n        /* \"#utility.yul\":3056:3062   */\n      dup4\n        /* \"#utility.yul\":2968:3068   */\n      tag_306\n      jump\t// in\n    tag_305:\n        /* \"#utility.yul\":2954:3068   */\n      swap1\n      pop\n        /* \"#utility.yul\":2944:3074   */\n      swap3\n      swap2\n      pop\n      pop\n      jump\t// out\n        /* \"#utility.yul\":3080:3328   */\n    tag_307:\n      0x00\n        /* \"#utility.yul\":3230:3322   */\n      tag_309\n        /* \"#utility.yul\":3318:3321   */\n      dup4\n        /* \"#utility.yul\":3310:3316   */\n      dup4\n        /* \"#utility.yul\":3230:3322   */\n      tag_310\n      jump\t// in\n    tag_309:\n        /* \"#utility.yul\":3216:3322   */\n      swap1\n      pop\n        /* \"#utility.yul\":3206:3328   */\n      swap3\n      swap2\n      pop\n      pop\n      jump\t// out\n        /* \"#utility.yul\":3334:3442   */\n    tag_311:\n        /* \"#utility.yul\":3411:3435   */\n      tag_313\n        /* \"#utility.yul\":3429:3434   */\n      dup2\n        /* \"#utility.yul\":3411:3435   */\n      tag_314\n      jump\t// in\n    tag_313:\n        /* \"#utility.yul\":3406:3409   */\n      dup3\n        /* \"#utility.yul\":3399:3436   */\n      mstore\n        /* \"#utility.yul\":3389:3442   */\n      pop\n      pop\n      jump\t// out\n        /* \"#utility.yul\":3448:3566   */\n    tag_315:\n        /* \"#utility.yul\":3535:3559   */\n      tag_317\n        /* \"#utility.yul\":3553:3558   */\n      dup2\n        /* \"#utility.yul\":3535:3559   */\n      tag_314\n      jump\t// in\n    tag_317:\n        /* \"#utility.yul\":3530:3533   */\n      dup3\n        /* \"#utility.yul\":3523:3560   */\n      mstore\n        /* \"#utility.yul\":3513:3566   */\n      pop\n      pop\n      jump\t// out\n        /* \"#utility.yul\":3644:4771   */\n    tag_318:\n      0x00\n        /* \"#utility.yul\":3846:3927   */\n      tag_320\n        /* \"#utility.yul\":3921:3926   */\n      dup3\n        /* \"#utility.yul\":3846:3927   */\n      tag_321\n      jump\t// in\n    tag_320:\n        /* \"#utility.yul\":3943:4056   */\n      tag_322\n        /* \"#utility.yul\":4049:4055   */\n      dup2\n        /* \"#utility.yul\":4044:4047   */\n      dup6\n        /* \"#utility.yul\":3943:4056   */\n      tag_323\n      jump\t// in\n    tag_322:\n        /* \"#utility.yul\":3936:4056   */\n      swap4\n      pop\n        /* \"#utility.yul\":4082:4085   */\n      dup4\n        /* \"#utility.yul\":4127:4131   */\n      0x20\n        /* \"#utility.yul\":4119:4125   */\n      dup3\n        /* \"#utility.yul\":4115:4132   */\n      mul\n        /* \"#utility.yul\":4110:4113   */\n      dup6\n        /* \"#utility.yul\":4106:4133   */\n      add\n        /* \"#utility.yul\":4157:4240   */\n      tag_324\n        /* \"#utility.yul\":4234:4239   */\n      dup6\n        /* \"#utility.yul\":4157:4240   */\n      tag_325\n      jump\t// in\n    tag_324:\n        /* \"#utility.yul\":4263:4270   */\n      dup1\n        /* \"#utility.yul\":4294:4295   */\n      0x00\n        /* \"#utility.yul\":4279:4726   */\n    tag_326:\n        /* \"#utility.yul\":4304:4310   */\n      dup6\n        /* \"#utility.yul\":4301:4302   */\n      dup2\n        /* \"#utility.yul\":4298:4311   */\n      lt\n        /* \"#utility.yul\":4279:4726   */\n      iszero\n      tag_328\n      jumpi\n        /* \"#utility.yul\":4375:4384   */\n      dup5\n        /* \"#utility.yul\":4369:4373   */\n      dup5\n        /* \"#utility.yul\":4365:4385   */\n      sub\n        /* \"#utility.yul\":4360:4363   */\n      dup10\n        /* \"#utility.yul\":4353:4386   */\n      mstore\n        /* \"#utility.yul\":4426:4432   */\n      dup2\n        /* \"#utility.yul\":4420:4433   */\n      mload\n        /* \"#utility.yul\":4454:4572   */\n      tag_329\n        /* \"#utility.yul\":4567:4571   */\n      dup6\n        /* \"#utility.yul\":4552:4565   */\n      dup3\n        /* \"#utility.yul\":4454:4572   */\n      tag_303\n      jump\t// in\n    tag_329:\n        /* \"#utility.yul\":4446:4572   */\n      swap5\n      pop\n        /* \"#utility.yul\":4595:4682   */\n      tag_330\n        /* \"#utility.yul\":4675:4681   */\n      dup4\n        /* \"#utility.yul\":4595:4682   */\n      tag_331\n      jump\t// in\n    tag_330:\n        /* \"#utility.yul\":4585:4682   */\n      swap3\n      pop\n        /* \"#utility.yul\":4711:4715   */\n      0x20\n        /* \"#utility.yul\":4706:4709   */\n      dup11\n        /* \"#utility.yul\":4702:4716   */\n      add\n        /* \"#utility.yul\":4695:4716   */\n      swap10\n      pop\n        /* \"#utility.yul\":4339:4726   */\n      pop\n        /* \"#utility.yul\":4326:4327   */\n      0x01\n        /* \"#utility.yul\":4323:4324   */\n      dup2\n        /* \"#utility.yul\":4319:4328   */\n      add\n        /* \"#utility.yul\":4314:4328   */\n      swap1\n      pop\n        /* \"#utility.yul\":4279:4726   */\n      jump(tag_326)\n    tag_328:\n        /* \"#utility.yul\":4283:4297   */\n      pop\n        /* \"#utility.yul\":4742:4746   */\n      dup3\n        /* \"#utility.yul\":4735:4746   */\n      swap8\n      pop\n        /* \"#utility.yul\":4762:4765   */\n      dup8\n        /* \"#utility.yul\":4755:4765   */\n      swap6\n      pop\n        /* \"#utility.yul\":3822:4771   */\n      pop\n      pop\n      pop\n      pop\n      pop\n      swap3\n      swap2\n      pop\n      pop\n      jump\t// out\n        /* \"#utility.yul\":4839:5934   */\n    tag_332:\n      0x00\n        /* \"#utility.yul\":5033:5110   */\n      tag_334\n        /* \"#utility.yul\":5104:5109   */\n      dup3\n        /* \"#utility.yul\":5033:5110   */\n      tag_335\n      jump\t// in\n    tag_334:\n        /* \"#utility.yul\":5126:5235   */\n      tag_336\n        /* \"#utility.yul\":5228:5234   */\n      dup2\n        /* \"#utility.yul\":5223:5226   */\n      dup6\n        /* \"#utility.yul\":5126:5235   */\n      tag_337\n      jump\t// in\n    tag_336:\n        /* \"#utility.yul\":5119:5235   */\n      swap4\n      pop\n        /* \"#utility.yul\":5261:5264   */\n      dup4\n        /* \"#utility.yul\":5306:5310   */\n      0x20\n        /* \"#utility.yul\":5298:5304   */\n      dup3\n        /* \"#utility.yul\":5294:5311   */\n      mul\n        /* \"#utility.yul\":5289:5292   */\n      dup6\n        /* \"#utility.yul\":5285:5312   */\n      add\n        /* \"#utility.yul\":5336:5415   */\n      tag_338\n        /* \"#utility.yul\":5409:5414   */\n      dup6\n        /* \"#utility.yul\":5336:5415   */\n      tag_339\n      jump\t// in\n    tag_338:\n        /* \"#utility.yul\":5438:5445   */\n      dup1\n        /* \"#utility.yul\":5469:5470   */\n      0x00\n        /* \"#utility.yul\":5454:5889   */\n    tag_340:\n        /* \"#utility.yul\":5479:5485   */\n      dup6\n        /* \"#utility.yul\":5476:5477   */\n      dup2\n        /* \"#utility.yul\":5473:5486   */\n      lt\n        /* \"#utility.yul\":5454:5889   */\n      iszero\n      tag_342\n      jumpi\n        /* \"#utility.yul\":5550:5559   */\n      dup5\n        /* \"#utility.yul\":5544:5548   */\n      dup5\n        /* \"#utility.yul\":5540:5560   */\n      sub\n        /* \"#utility.yul\":5535:5538   */\n      dup10\n        /* \"#utility.yul\":5528:5561   */\n      mstore\n        /* \"#utility.yul\":5601:5607   */\n      dup2\n        /* \"#utility.yul\":5595:5608   */\n      mload\n        /* \"#utility.yul\":5629:5739   */\n      tag_343\n        /* \"#utility.yul\":5734:5738   */\n      dup6\n        /* \"#utility.yul\":5719:5732   */\n      dup3\n        /* \"#utility.yul\":5629:5739   */\n      tag_307\n      jump\t// in\n    tag_343:\n        /* \"#utility.yul\":5621:5739   */\n      swap5\n      pop\n        /* \"#utility.yul\":5762:5845   */\n      tag_344\n        /* \"#utility.yul\":5838:5844   */\n      dup4\n        /* \"#utility.yul\":5762:5845   */\n      tag_345\n      jump\t// in\n    tag_344:\n        /* \"#utility.yul\":5752:5845   */\n      swap3\n      pop\n        /* \"#utility.yul\":5874:5878   */\n      0x20\n        /* \"#utility.yul\":5869:5872   */\n      dup11\n        /* \"#utility.yul\":5865:5879   */\n      add\n        /* \"#utility.yul\":5858:5879   */\n      swap10\n      pop\n        /* \"#utility.yul\":5514:5889   */\n      pop\n        /* \"#utility.yul\":5501:5502   */\n      0x01\n        /* \"#utility.yul\":5498:5499   */\n      dup2\n        /* \"#utility.yul\":5494:5503   */\n      add\n        /* \"#utility.yul\":5489:5503   */\n      swap1\n      pop\n        /* \"#utility.yul\":5454:5889   */\n      jump(tag_340)\n    tag_342:\n        /* \"#utility.yul\":5458:5472   */\n      pop\n        /* \"#utility.yul\":5905:5909   */\n      dup3\n        /* \"#utility.yul\":5898:5909   */\n      swap8\n      pop\n        /* \"#utility.yul\":5925:5928   */\n      dup8\n        /* \"#utility.yul\":5918:5928   */\n      swap6\n      pop\n        /* \"#utility.yul\":5009:5934   */\n      pop\n      pop\n      pop\n      pop\n      pop\n      swap3\n      swap2\n      pop\n      pop\n      jump\t// out\n        /* \"#utility.yul\":5940:6039   */\n    tag_346:\n        /* \"#utility.yul\":6011:6032   */\n      tag_348\n        /* \"#utility.yul\":6026:6031   */\n      dup2\n        /* \"#utility.yul\":6011:6032   */\n      tag_349\n      jump\t// in\n    tag_348:\n        /* \"#utility.yul\":6006:6009   */\n      dup3\n        /* \"#utility.yul\":5999:6033   */\n      mstore\n        /* \"#utility.yul\":5989:6039   */\n      pop\n      pop\n      jump\t// out\n        /* \"#utility.yul\":6045:6154   */\n    tag_350:\n        /* \"#utility.yul\":6126:6147   */\n      tag_352\n        /* \"#utility.yul\":6141:6146   */\n      dup2\n        /* \"#utility.yul\":6126:6147   */\n      tag_349\n      jump\t// in\n    tag_352:\n        /* \"#utility.yul\":6121:6124   */\n      dup3\n        /* \"#utility.yul\":6114:6148   */\n      mstore\n        /* \"#utility.yul\":6104:6154   */\n      pop\n      pop\n      jump\t// out\n        /* \"#utility.yul\":6160:6504   */\n    tag_353:\n      0x00\n        /* \"#utility.yul\":6266:6305   */\n      tag_355\n        /* \"#utility.yul\":6299:6304   */\n      dup3\n        /* \"#utility.yul\":6266:6305   */\n      tag_356\n      jump\t// in\n    tag_355:\n        /* \"#utility.yul\":6321:6382   */\n      tag_357\n        /* \"#utility.yul\":6375:6381   */\n      dup2\n        /* \"#utility.yul\":6370:6373   */\n      dup6\n        /* \"#utility.yul\":6321:6382   */\n      tag_358\n      jump\t// in\n    tag_357:\n        /* \"#utility.yul\":6314:6382   */\n      swap4\n      pop\n        /* \"#utility.yul\":6391:6443   */\n      tag_359\n        /* \"#utility.yul\":6436:6442   */\n      dup2\n        /* \"#utility.yul\":6431:6434   */\n      dup6\n        /* \"#utility.yul\":6424:6428   */\n      0x20\n        /* \"#utility.yul\":6417:6422   */\n      dup7\n        /* \"#utility.yul\":6413:6429   */\n      add\n        /* \"#utility.yul\":6391:6443   */\n      tag_360\n      jump\t// in\n    tag_359:\n        /* \"#utility.yul\":6468:6497   */\n      tag_361\n        /* \"#utility.yul\":6490:6496   */\n      dup2\n        /* \"#utility.yul\":6468:6497   */\n      tag_362\n      jump\t// in\n    tag_361:\n        /* \"#utility.yul\":6463:6466   */\n      dup5\n        /* \"#utility.yul\":6459:6498   */\n      add\n        /* \"#utility.yul\":6452:6498   */\n      swap2\n      pop\n        /* \"#utility.yul\":6242:6504   */\n      pop\n      swap3\n      swap2\n      pop\n      pop\n      jump\t// out\n        /* \"#utility.yul\":6510:6874   */\n    tag_363:\n      0x00\n        /* \"#utility.yul\":6626:6665   */\n      tag_365\n        /* \"#utility.yul\":6659:6664   */\n      dup3\n        /* \"#utility.yul\":6626:6665   */\n      tag_356\n      jump\t// in\n    tag_365:\n        /* \"#utility.yul\":6681:6752   */\n      tag_366\n        /* \"#utility.yul\":6745:6751   */\n      dup2\n        /* \"#utility.yul\":6740:6743   */\n      dup6\n        /* \"#utility.yul\":6681:6752   */\n      tag_367\n      jump\t// in\n    tag_366:\n        /* \"#utility.yul\":6674:6752   */\n      swap4\n      pop\n        /* \"#utility.yul\":6761:6813   */\n      tag_368\n        /* \"#utility.yul\":6806:6812   */\n      dup2\n        /* \"#utility.yul\":6801:6804   */\n      dup6\n        /* \"#utility.yul\":6794:6798   */\n      0x20\n        /* \"#utility.yul\":6787:6792   */\n      dup7\n        /* \"#utility.yul\":6783:6799   */\n      add\n        /* \"#utility.yul\":6761:6813   */\n      tag_360\n      jump\t// in\n    tag_368:\n        /* \"#utility.yul\":6838:6867   */\n      tag_369\n        /* \"#utility.yul\":6860:6866   */\n      dup2\n        /* \"#utility.yul\":6838:6867   */\n      tag_362\n      jump\t// in\n    tag_369:\n        /* \"#utility.yul\":6833:6836   */\n      dup5\n        /* \"#utility.yul\":6829:6868   */\n      add\n        /* \"#utility.yul\":6822:6868   */\n      swap2\n      pop\n        /* \"#utility.yul\":6602:6874   */\n      pop\n      swap3\n      swap2\n      pop\n      pop\n      jump\t// out\n        /* \"#utility.yul\":6880:7273   */\n    tag_370:\n      0x00\n        /* \"#utility.yul\":7043:7110   */\n      tag_372\n        /* \"#utility.yul\":7107:7109   */\n      0x3d\n        /* \"#utility.yul\":7102:7105   */\n      dup4\n        /* \"#utility.yul\":7043:7110   */\n      tag_367\n      jump\t// in\n    tag_372:\n        /* \"#utility.yul\":7036:7110   */\n      swap2\n      pop\n        /* \"#utility.yul\":7140:7174   */\n      0x536f6c6f20656c204475656e6e6f206f20477569617320646520747572697374\n        /* \"#utility.yul\":7136:7137   */\n      0x00\n        /* \"#utility.yul\":7131:7134   */\n      dup4\n        /* \"#utility.yul\":7127:7138   */\n      add\n        /* \"#utility.yul\":7120:7175   */\n      mstore\n        /* \"#utility.yul\":7206:7237   */\n      0x6173207075656465207265616c697a6172206573746120616363696f6e000000\n        /* \"#utility.yul\":7201:7203   */\n      0x20\n        /* \"#utility.yul\":7196:7199   */\n      dup4\n        /* \"#utility.yul\":7192:7204   */\n      add\n        /* \"#utility.yul\":7185:7238   */\n      mstore\n        /* \"#utility.yul\":7264:7266   */\n      0x40\n        /* \"#utility.yul\":7259:7262   */\n      dup3\n        /* \"#utility.yul\":7255:7267   */\n      add\n        /* \"#utility.yul\":7248:7267   */\n      swap1\n      pop\n        /* \"#utility.yul\":7026:7273   */\n      swap2\n      swap1\n      pop\n      jump\t// out\n        /* \"#utility.yul\":7279:7646   */\n    tag_373:\n      0x00\n        /* \"#utility.yul\":7442:7509   */\n      tag_375\n        /* \"#utility.yul\":7506:7508   */\n      0x23\n        /* \"#utility.yul\":7501:7504   */\n      dup4\n        /* \"#utility.yul\":7442:7509   */\n      tag_367\n      jump\t// in\n    tag_375:\n        /* \"#utility.yul\":7435:7509   */\n      swap2\n      pop\n        /* \"#utility.yul\":7539:7573   */\n      0x4775696120646520547572697374617320796120657374612072656769737472\n        /* \"#utility.yul\":7535:7536   */\n      0x00\n        /* \"#utility.yul\":7530:7533   */\n      dup4\n        /* \"#utility.yul\":7526:7537   */\n      add\n        /* \"#utility.yul\":7519:7574   */\n      mstore\n        /* \"#utility.yul\":7605:7610   */\n      0x61646f0000000000000000000000000000000000000000000000000000000000\n        /* \"#utility.yul\":7600:7602   */\n      0x20\n        /* \"#utility.yul\":7595:7598   */\n      dup4\n        /* \"#utility.yul\":7591:7603   */\n      add\n        /* \"#utility.yul\":7584:7611   */\n      mstore\n        /* \"#utility.yul\":7637:7639   */\n      0x40\n        /* \"#utility.yul\":7632:7635   */\n      dup3\n        /* \"#utility.yul\":7628:7640   */\n      add\n        /* \"#utility.yul\":7621:7640   */\n      swap1\n      pop\n        /* \"#utility.yul\":7425:7646   */\n      swap2\n      swap1\n      pop\n      jump\t// out\n        /* \"#utility.yul\":7652:7976   */\n    tag_376:\n      0x00\n        /* \"#utility.yul\":7815:7882   */\n      tag_378\n        /* \"#utility.yul\":7879:7881   */\n      0x1a\n        /* \"#utility.yul\":7874:7877   */\n      dup4\n        /* \"#utility.yul\":7815:7882   */\n      tag_367\n      jump\t// in\n    tag_378:\n        /* \"#utility.yul\":7808:7882   */\n      swap2\n      pop\n        /* \"#utility.yul\":7912:7940   */\n      0x547572697374612079612065737461207265676973747261646f000000000000\n        /* \"#utility.yul\":7908:7909   */\n      0x00\n        /* \"#utility.yul\":7903:7906   */\n      dup4\n        /* \"#utility.yul\":7899:7910   */\n      add\n        /* \"#utility.yul\":7892:7941   */\n      mstore\n        /* \"#utility.yul\":7967:7969   */\n      0x20\n        /* \"#utility.yul\":7962:7965   */\n      dup3\n        /* \"#utility.yul\":7958:7970   */\n      add\n        /* \"#utility.yul\":7951:7970   */\n      swap1\n      pop\n        /* \"#utility.yul\":7798:7976   */\n      swap2\n      swap1\n      pop\n      jump\t// out\n        /* \"#utility.yul\":7982:8294   */\n    tag_379:\n      0x00\n        /* \"#utility.yul\":8145:8212   */\n      tag_381\n        /* \"#utility.yul\":8209:8211   */\n      0x0e\n        /* \"#utility.yul\":8204:8207   */\n      dup4\n        /* \"#utility.yul\":8145:8212   */\n      tag_367\n      jump\t// in\n    tag_381:\n        /* \"#utility.yul\":8138:8212   */\n      swap2\n      pop\n        /* \"#utility.yul\":8242:8258   */\n      0x47756961206e6f20657869737465000000000000000000000000000000000000\n        /* \"#utility.yul\":8238:8239   */\n      0x00\n        /* \"#utility.yul\":8233:8236   */\n      dup4\n        /* \"#utility.yul\":8229:8240   */\n      add\n        /* \"#utility.yul\":8222:8259   */\n      mstore\n        /* \"#utility.yul\":8285:8287   */\n      0x20\n        /* \"#utility.yul\":8280:8283   */\n      dup3\n        /* \"#utility.yul\":8276:8288   */\n      add\n        /* \"#utility.yul\":8269:8288   */\n      swap1\n      pop\n        /* \"#utility.yul\":8128:8294   */\n      swap2\n      swap1\n      pop\n      jump\t// out\n        /* \"#utility.yul\":8300:8673   */\n    tag_382:\n      0x00\n        /* \"#utility.yul\":8463:8530   */\n      tag_384\n        /* \"#utility.yul\":8527:8529   */\n      0x29\n        /* \"#utility.yul\":8522:8525   */\n      dup4\n        /* \"#utility.yul\":8463:8530   */\n      tag_367\n      jump\t// in\n    tag_384:\n        /* \"#utility.yul\":8456:8530   */\n      swap2\n      pop\n        /* \"#utility.yul\":8560:8594   */\n      0x536f6c6f20656c204475656e6e6f207075656465207265616c697a6172206573\n        /* \"#utility.yul\":8556:8557   */\n      0x00\n        /* \"#utility.yul\":8551:8554   */\n      dup4\n        /* \"#utility.yul\":8547:8558   */\n      add\n        /* \"#utility.yul\":8540:8595   */\n      mstore\n        /* \"#utility.yul\":8626:8637   */\n      0x746120616363696f6e0000000000000000000000000000000000000000000000\n        /* \"#utility.yul\":8621:8623   */\n      0x20\n        /* \"#utility.yul\":8616:8619   */\n      dup4\n        /* \"#utility.yul\":8612:8624   */\n      add\n        /* \"#utility.yul\":8605:8638   */\n      mstore\n        /* \"#utility.yul\":8664:8666   */\n      0x40\n        /* \"#utility.yul\":8659:8662   */\n      dup3\n        /* \"#utility.yul\":8655:8667   */\n      add\n        /* \"#utility.yul\":8648:8667   */\n      swap1\n      pop\n        /* \"#utility.yul\":8446:8673   */\n      swap2\n      swap1\n      pop\n      jump\t// out\n        /* \"#utility.yul\":8679:8994   */\n    tag_385:\n      0x00\n        /* \"#utility.yul\":8842:8909   */\n      tag_387\n        /* \"#utility.yul\":8906:8908   */\n      0x11\n        /* \"#utility.yul\":8901:8904   */\n      dup4\n        /* \"#utility.yul\":8842:8909   */\n      tag_367\n      jump\t// in\n    tag_387:\n        /* \"#utility.yul\":8835:8909   */\n      swap2\n      pop\n        /* \"#utility.yul\":8939:8958   */\n      0x54757269737461206e6f20657869737465000000000000000000000000000000\n        /* \"#utility.yul\":8935:8936   */\n      0x00\n        /* \"#utility.yul\":8930:8933   */\n      dup4\n        /* \"#utility.yul\":8926:8937   */\n      add\n        /* \"#utility.yul\":8919:8959   */\n      mstore\n        /* \"#utility.yul\":8985:8987   */\n      0x20\n        /* \"#utility.yul\":8980:8983   */\n      dup3\n        /* \"#utility.yul\":8976:8988   */\n      add\n        /* \"#utility.yul\":8969:8988   */\n      swap1\n      pop\n        /* \"#utility.yul\":8825:8994   */\n      swap2\n      swap1\n      pop\n      jump\t// out\n        /* \"#utility.yul\":9068:9850   */\n    tag_306:\n      0x00\n        /* \"#utility.yul\":9217:9221   */\n      0x60\n        /* \"#utility.yul\":9212:9215   */\n      dup4\n        /* \"#utility.yul\":9208:9222   */\n      add\n        /* \"#utility.yul\":9306:9310   */\n      0x00\n        /* \"#utility.yul\":9299:9304   */\n      dup4\n        /* \"#utility.yul\":9295:9311   */\n      add\n        /* \"#utility.yul\":9289:9312   */\n      mload\n        /* \"#utility.yul\":9325:9388   */\n      tag_389\n        /* \"#utility.yul\":9382:9386   */\n      0x00\n        /* \"#utility.yul\":9377:9380   */\n      dup7\n        /* \"#utility.yul\":9373:9387   */\n      add\n        /* \"#utility.yul\":9359:9371   */\n      dup3\n        /* \"#utility.yul\":9325:9388   */\n      tag_311\n      jump\t// in\n    tag_389:\n        /* \"#utility.yul\":9232:9398   */\n      pop\n        /* \"#utility.yul\":9490:9494   */\n      0x20\n        /* \"#utility.yul\":9483:9488   */\n      dup4\n        /* \"#utility.yul\":9479:9495   */\n      add\n        /* \"#utility.yul\":9473:9496   */\n      mload\n        /* \"#utility.yul\":9543:9546   */\n      dup5\n        /* \"#utility.yul\":9537:9541   */\n      dup3\n        /* \"#utility.yul\":9533:9547   */\n      sub\n        /* \"#utility.yul\":9526:9530   */\n      0x20\n        /* \"#utility.yul\":9521:9524   */\n      dup7\n        /* \"#utility.yul\":9517:9531   */\n      add\n        /* \"#utility.yul\":9510:9548   */\n      mstore\n        /* \"#utility.yul\":9569:9642   */\n      tag_390\n        /* \"#utility.yul\":9637:9641   */\n      dup3\n        /* \"#utility.yul\":9623:9635   */\n      dup3\n        /* \"#utility.yul\":9569:9642   */\n      tag_353\n      jump\t// in\n    tag_390:\n        /* \"#utility.yul\":9561:9642   */\n      swap2\n      pop\n        /* \"#utility.yul\":9408:9653   */\n      pop\n        /* \"#utility.yul\":9737:9741   */\n      0x40\n        /* \"#utility.yul\":9730:9735   */\n      dup4\n        /* \"#utility.yul\":9726:9742   */\n      add\n        /* \"#utility.yul\":9720:9743   */\n      mload\n        /* \"#utility.yul\":9756:9813   */\n      tag_391\n        /* \"#utility.yul\":9807:9811   */\n      0x40\n        /* \"#utility.yul\":9802:9805   */\n      dup7\n        /* \"#utility.yul\":9798:9812   */\n      add\n        /* \"#utility.yul\":9784:9796   */\n      dup3\n        /* \"#utility.yul\":9756:9813   */\n      tag_346\n      jump\t// in\n    tag_391:\n        /* \"#utility.yul\":9663:9823   */\n      pop\n        /* \"#utility.yul\":9840:9844   */\n      dup1\n        /* \"#utility.yul\":9833:9844   */\n      swap2\n      pop\n        /* \"#utility.yul\":9186:9850   */\n      pop\n      swap3\n      swap2\n      pop\n      pop\n      jump\t// out\n        /* \"#utility.yul\":9914:10858   */\n    tag_310:\n      0x00\n        /* \"#utility.yul\":10055:10059   */\n      0x80\n        /* \"#utility.yul\":10050:10053   */\n      dup4\n        /* \"#utility.yul\":10046:10060   */\n      add\n        /* \"#utility.yul\":10144:10148   */\n      0x00\n        /* \"#utility.yul\":10137:10142   */\n      dup4\n        /* \"#utility.yul\":10133:10149   */\n      add\n        /* \"#utility.yul\":10127:10150   */\n      mload\n        /* \"#utility.yul\":10163:10226   */\n      tag_393\n        /* \"#utility.yul\":10220:10224   */\n      0x00\n        /* \"#utility.yul\":10215:10218   */\n      dup7\n        /* \"#utility.yul\":10211:10225   */\n      add\n        /* \"#utility.yul\":10197:10209   */\n      dup3\n        /* \"#utility.yul\":10163:10226   */\n      tag_311\n      jump\t// in\n    tag_393:\n        /* \"#utility.yul\":10070:10236   */\n      pop\n        /* \"#utility.yul\":10328:10332   */\n      0x20\n        /* \"#utility.yul\":10321:10326   */\n      dup4\n        /* \"#utility.yul\":10317:10333   */\n      add\n        /* \"#utility.yul\":10311:10334   */\n      mload\n        /* \"#utility.yul\":10381:10384   */\n      dup5\n        /* \"#utility.yul\":10375:10379   */\n      dup3\n        /* \"#utility.yul\":10371:10385   */\n      sub\n        /* \"#utility.yul\":10364:10368   */\n      0x20\n        /* \"#utility.yul\":10359:10362   */\n      dup7\n        /* \"#utility.yul\":10355:10369   */\n      add\n        /* \"#utility.yul\":10348:10386   */\n      mstore\n        /* \"#utility.yul\":10407:10480   */\n      tag_394\n        /* \"#utility.yul\":10475:10479   */\n      dup3\n        /* \"#utility.yul\":10461:10473   */\n      dup3\n        /* \"#utility.yul\":10407:10480   */\n      tag_353\n      jump\t// in\n    tag_394:\n        /* \"#utility.yul\":10399:10480   */\n      swap2\n      pop\n        /* \"#utility.yul\":10246:10491   */\n      pop\n        /* \"#utility.yul\":10573:10577   */\n      0x40\n        /* \"#utility.yul\":10566:10571   */\n      dup4\n        /* \"#utility.yul\":10562:10578   */\n      add\n        /* \"#utility.yul\":10556:10579   */\n      mload\n        /* \"#utility.yul\":10592:10651   */\n      tag_395\n        /* \"#utility.yul\":10645:10649   */\n      0x40\n        /* \"#utility.yul\":10640:10643   */\n      dup7\n        /* \"#utility.yul\":10636:10650   */\n      add\n        /* \"#utility.yul\":10622:10634   */\n      dup3\n        /* \"#utility.yul\":10592:10651   */\n      tag_396\n      jump\t// in\n    tag_395:\n        /* \"#utility.yul\":10501:10661   */\n      pop\n        /* \"#utility.yul\":10745:10749   */\n      0x60\n        /* \"#utility.yul\":10738:10743   */\n      dup4\n        /* \"#utility.yul\":10734:10750   */\n      add\n        /* \"#utility.yul\":10728:10751   */\n      mload\n        /* \"#utility.yul\":10764:10821   */\n      tag_397\n        /* \"#utility.yul\":10815:10819   */\n      0x60\n        /* \"#utility.yul\":10810:10813   */\n      dup7\n        /* \"#utility.yul\":10806:10820   */\n      add\n        /* \"#utility.yul\":10792:10804   */\n      dup3\n        /* \"#utility.yul\":10764:10821   */\n      tag_346\n      jump\t// in\n    tag_397:\n        /* \"#utility.yul\":10671:10831   */\n      pop\n        /* \"#utility.yul\":10848:10852   */\n      dup1\n        /* \"#utility.yul\":10841:10852   */\n      swap2\n      pop\n        /* \"#utility.yul\":10024:10858   */\n      pop\n      swap3\n      swap2\n      pop\n      pop\n      jump\t// out\n        /* \"#utility.yul\":10864:10966   */\n    tag_396:\n        /* \"#utility.yul\":10937:10959   */\n      tag_399\n        /* \"#utility.yul\":10953:10958   */\n      dup2\n        /* \"#utility.yul\":10937:10959   */\n      tag_400\n      jump\t// in\n    tag_399:\n        /* \"#utility.yul\":10932:10935   */\n      dup3\n        /* \"#utility.yul\":10925:10960   */\n      mstore\n        /* \"#utility.yul\":10915:10966   */\n      pop\n      pop\n      jump\t// out\n        /* \"#utility.yul\":10972:11084   */\n    tag_401:\n        /* \"#utility.yul\":11055:11077   */\n      tag_403\n        /* \"#utility.yul\":11071:11076   */\n      dup2\n        /* \"#utility.yul\":11055:11077   */\n      tag_400\n      jump\t// in\n    tag_403:\n        /* \"#utility.yul\":11050:11053   */\n      dup3\n        /* \"#utility.yul\":11043:11078   */\n      mstore\n        /* \"#utility.yul\":11033:11084   */\n      pop\n      pop\n      jump\t// out\n        /* \"#utility.yul\":11090:11312   */\n    tag_68:\n      0x00\n        /* \"#utility.yul\":11221:11223   */\n      0x20\n        /* \"#utility.yul\":11210:11219   */\n      dup3\n        /* \"#utility.yul\":11206:11224   */\n      add\n        /* \"#utility.yul\":11198:11224   */\n      swap1\n      pop\n        /* \"#utility.yul\":11234:11305   */\n      tag_405\n        /* \"#utility.yul\":11302:11303   */\n      0x00\n        /* \"#utility.yul\":11291:11300   */\n      dup4\n        /* \"#utility.yul\":11287:11304   */\n      add\n        /* \"#utility.yul\":11278:11284   */\n      dup5\n        /* \"#utility.yul\":11234:11305   */\n      tag_315\n      jump\t// in\n    tag_405:\n        /* \"#utility.yul\":11188:11312   */\n      swap3\n      swap2\n      pop\n      pop\n      jump\t// out\n        /* \"#utility.yul\":11318:11741   */\n    tag_147:\n      0x00\n        /* \"#utility.yul\":11497:11499   */\n      0x40\n        /* \"#utility.yul\":11486:11495   */\n      dup3\n        /* \"#utility.yul\":11482:11500   */\n      add\n        /* \"#utility.yul\":11474:11500   */\n      swap1\n      pop\n        /* \"#utility.yul\":11510:11581   */\n      tag_407\n        /* \"#utility.yul\":11578:11579   */\n      0x00\n        /* \"#utility.yul\":11567:11576   */\n      dup4\n        /* \"#utility.yul\":11563:11580   */\n      add\n        /* \"#utility.yul\":11554:11560   */\n      dup6\n        /* \"#utility.yul\":11510:11581   */\n      tag_315\n      jump\t// in\n    tag_407:\n        /* \"#utility.yul\":11628:11637   */\n      dup2\n        /* \"#utility.yul\":11622:11626   */\n      dup2\n        /* \"#utility.yul\":11618:11638   */\n      sub\n        /* \"#utility.yul\":11613:11615   */\n      0x20\n        /* \"#utility.yul\":11602:11611   */\n      dup4\n        /* \"#utility.yul\":11598:11616   */\n      add\n        /* \"#utility.yul\":11591:11639   */\n      mstore\n        /* \"#utility.yul\":11656:11734   */\n      tag_408\n        /* \"#utility.yul\":11729:11733   */\n      dup2\n        /* \"#utility.yul\":11720:11726   */\n      dup5\n        /* \"#utility.yul\":11656:11734   */\n      tag_363\n      jump\t// in\n    tag_408:\n        /* \"#utility.yul\":11648:11734   */\n      swap1\n      pop\n        /* \"#utility.yul\":11464:11741   */\n      swap4\n      swap3\n      pop\n      pop\n      pop\n      jump\t// out\n        /* \"#utility.yul\":11747:12268   */\n    tag_51:\n      0x00\n        /* \"#utility.yul\":11948:11950   */\n      0x60\n        /* \"#utility.yul\":11937:11946   */\n      dup3\n        /* \"#utility.yul\":11933:11951   */\n      add\n        /* \"#utility.yul\":11925:11951   */\n      swap1\n      pop\n        /* \"#utility.yul\":11961:12032   */\n      tag_410\n        /* \"#utility.yul\":12029:12030   */\n      0x00\n        /* \"#utility.yul\":12018:12027   */\n      dup4\n        /* \"#utility.yul\":12014:12031   */\n      add\n        /* \"#utility.yul\":12005:12011   */\n      dup7\n        /* \"#utility.yul\":11961:12032   */\n      tag_315\n      jump\t// in\n    tag_410:\n        /* \"#utility.yul\":12079:12088   */\n      dup2\n        /* \"#utility.yul\":12073:12077   */\n      dup2\n        /* \"#utility.yul\":12069:12089   */\n      sub\n        /* \"#utility.yul\":12064:12066   */\n      0x20\n        /* \"#utility.yul\":12053:12062   */\n      dup4\n        /* \"#utility.yul\":12049:12067   */\n      add\n        /* \"#utility.yul\":12042:12090   */\n      mstore\n        /* \"#utility.yul\":12107:12185   */\n      tag_411\n        /* \"#utility.yul\":12180:12184   */\n      dup2\n        /* \"#utility.yul\":12171:12177   */\n      dup6\n        /* \"#utility.yul\":12107:12185   */\n      tag_363\n      jump\t// in\n    tag_411:\n        /* \"#utility.yul\":12099:12185   */\n      swap1\n      pop\n        /* \"#utility.yul\":12195:12261   */\n      tag_412\n        /* \"#utility.yul\":12257:12259   */\n      0x40\n        /* \"#utility.yul\":12246:12255   */\n      dup4\n        /* \"#utility.yul\":12242:12260   */\n      add\n        /* \"#utility.yul\":12233:12239   */\n      dup5\n        /* \"#utility.yul\":12195:12261   */\n      tag_350\n      jump\t// in\n    tag_412:\n        /* \"#utility.yul\":11915:12268   */\n      swap5\n      swap4\n      pop\n      pop\n      pop\n      pop\n      jump\t// out\n        /* \"#utility.yul\":12274:12898   */\n    tag_37:\n      0x00\n        /* \"#utility.yul\":12499:12502   */\n      0x80\n        /* \"#utility.yul\":12488:12497   */\n      dup3\n        /* \"#utility.yul\":12484:12503   */\n      add\n        /* \"#utility.yul\":12476:12503   */\n      swap1\n      pop\n        /* \"#utility.yul\":12513:12584   */\n      tag_414\n        /* \"#utility.yul\":12581:12582   */\n      0x00\n        /* \"#utility.yul\":12570:12579   */\n      dup4\n        /* \"#utility.yul\":12566:12583   */\n      add\n        /* \"#utility.yul\":12557:12563   */\n      dup8\n        /* \"#utility.yul\":12513:12584   */\n      tag_315\n      jump\t// in\n    tag_414:\n        /* \"#utility.yul\":12631:12640   */\n      dup2\n        /* \"#utility.yul\":12625:12629   */\n      dup2\n        /* \"#utility.yul\":12621:12641   */\n      sub\n        /* \"#utility.yul\":12616:12618   */\n      0x20\n        /* \"#utility.yul\":12605:12614   */\n      dup4\n        /* \"#utility.yul\":12601:12619   */\n      add\n        /* \"#utility.yul\":12594:12642   */\n      mstore\n        /* \"#utility.yul\":12659:12737   */\n      tag_415\n        /* \"#utility.yul\":12732:12736   */\n      dup2\n        /* \"#utility.yul\":12723:12729   */\n      dup7\n        /* \"#utility.yul\":12659:12737   */\n      tag_363\n      jump\t// in\n    tag_415:\n        /* \"#utility.yul\":12651:12737   */\n      swap1\n      pop\n        /* \"#utility.yul\":12747:12815   */\n      tag_416\n        /* \"#utility.yul\":12811:12813   */\n      0x40\n        /* \"#utility.yul\":12800:12809   */\n      dup4\n        /* \"#utility.yul\":12796:12814   */\n      add\n        /* \"#utility.yul\":12787:12793   */\n      dup6\n        /* \"#utility.yul\":12747:12815   */\n      tag_401\n      jump\t// in\n    tag_416:\n        /* \"#utility.yul\":12825:12891   */\n      tag_417\n        /* \"#utility.yul\":12887:12889   */\n      0x60\n        /* \"#utility.yul\":12876:12885   */\n      dup4\n        /* \"#utility.yul\":12872:12890   */\n      add\n        /* \"#utility.yul\":12863:12869   */\n      dup5\n        /* \"#utility.yul\":12825:12891   */\n      tag_350\n      jump\t// in\n    tag_417:\n        /* \"#utility.yul\":12466:12898   */\n      swap6\n      swap5\n      pop\n      pop\n      pop\n      pop\n      pop\n      jump\t// out\n        /* \"#utility.yul\":12904:13385   */\n    tag_64:\n      0x00\n        /* \"#utility.yul\":13139:13141   */\n      0x20\n        /* \"#utility.yul\":13128:13137   */\n      dup3\n        /* \"#utility.yul\":13124:13142   */\n      add\n        /* \"#utility.yul\":13116:13142   */\n      swap1\n      pop\n        /* \"#utility.yul\":13188:13197   */\n      dup2\n        /* \"#utility.yul\":13182:13186   */\n      dup2\n        /* \"#utility.yul\":13178:13198   */\n      sub\n        /* \"#utility.yul\":13174:13175   */\n      0x00\n        /* \"#utility.yul\":13163:13172   */\n      dup4\n        /* \"#utility.yul\":13159:13176   */\n      add\n        /* \"#utility.yul\":13152:13199   */\n      mstore\n        /* \"#utility.yul\":13216:13378   */\n      tag_419\n        /* \"#utility.yul\":13373:13377   */\n      dup2\n        /* \"#utility.yul\":13364:13370   */\n      dup5\n        /* \"#utility.yul\":13216:13378   */\n      tag_318\n      jump\t// in\n    tag_419:\n        /* \"#utility.yul\":13208:13378   */\n      swap1\n      pop\n        /* \"#utility.yul\":13106:13385   */\n      swap3\n      swap2\n      pop\n      pop\n      jump\t// out\n        /* \"#utility.yul\":13391:13856   */\n    tag_41:\n      0x00\n        /* \"#utility.yul\":13618:13620   */\n      0x20\n        /* \"#utility.yul\":13607:13616   */\n      dup3\n        /* \"#utility.yul\":13603:13621   */\n      add\n        /* \"#utility.yul\":13595:13621   */\n      swap1\n      pop\n        /* \"#utility.yul\":13667:13676   */\n      dup2\n        /* \"#utility.yul\":13661:13665   */\n      dup2\n        /* \"#utility.yul\":13657:13677   */\n      sub\n        /* \"#utility.yul\":13653:13654   */\n      0x00\n        /* \"#utility.yul\":13642:13651   */\n      dup4\n        /* \"#utility.yul\":13638:13655   */\n      add\n        /* \"#utility.yul\":13631:13678   */\n      mstore\n        /* \"#utility.yul\":13695:13849   */\n      tag_421\n        /* \"#utility.yul\":13844:13848   */\n      dup2\n        /* \"#utility.yul\":13835:13841   */\n      dup5\n        /* \"#utility.yul\":13695:13849   */\n      tag_332\n      jump\t// in\n    tag_421:\n        /* \"#utility.yul\":13687:13849   */\n      swap1\n      pop\n        /* \"#utility.yul\":13585:13856   */\n      swap3\n      swap2\n      pop\n      pop\n      jump\t// out\n        /* \"#utility.yul\":13862:14175   */\n    tag_23:\n      0x00\n        /* \"#utility.yul\":14013:14015   */\n      0x20\n        /* \"#utility.yul\":14002:14011   */\n      dup3\n        /* \"#utility.yul\":13998:14016   */\n      add\n        /* \"#utility.yul\":13990:14016   */\n      swap1\n      pop\n        /* \"#utility.yul\":14062:14071   */\n      dup2\n        /* \"#utility.yul\":14056:14060   */\n      dup2\n        /* \"#utility.yul\":14052:14072   */\n      sub\n        /* \"#utility.yul\":14048:14049   */\n      0x00\n        /* \"#utility.yul\":14037:14046   */\n      dup4\n        /* \"#utility.yul\":14033:14050   */\n      add\n        /* \"#utility.yul\":14026:14073   */\n      mstore\n        /* \"#utility.yul\":14090:14168   */\n      tag_423\n        /* \"#utility.yul\":14163:14167   */\n      dup2\n        /* \"#utility.yul\":14154:14160   */\n      dup5\n        /* \"#utility.yul\":14090:14168   */\n      tag_363\n      jump\t// in\n    tag_423:\n        /* \"#utility.yul\":14082:14168   */\n      swap1\n      pop\n        /* \"#utility.yul\":13980:14175   */\n      swap3\n      swap2\n      pop\n      pop\n      jump\t// out\n        /* \"#utility.yul\":14181:14600   */\n    tag_81:\n      0x00\n        /* \"#utility.yul\":14385:14387   */\n      0x20\n        /* \"#utility.yul\":14374:14383   */\n      dup3\n        /* \"#utility.yul\":14370:14388   */\n      add\n        /* \"#utility.yul\":14362:14388   */\n      swap1\n      pop\n        /* \"#utility.yul\":14434:14443   */\n      dup2\n        /* \"#utility.yul\":14428:14432   */\n      dup2\n        /* \"#utility.yul\":14424:14444   */\n      sub\n        /* \"#utility.yul\":14420:14421   */\n      0x00\n        /* \"#utility.yul\":14409:14418   */\n      dup4\n        /* \"#utility.yul\":14405:14422   */\n      add\n        /* \"#utility.yul\":14398:14445   */\n      mstore\n        /* \"#utility.yul\":14462:14593   */\n      tag_425\n        /* \"#utility.yul\":14588:14592   */\n      dup2\n        /* \"#utility.yul\":14462:14593   */\n      tag_370\n      jump\t// in\n    tag_425:\n        /* \"#utility.yul\":14454:14593   */\n      swap1\n      pop\n        /* \"#utility.yul\":14352:14600   */\n      swap2\n      swap1\n      pop\n      jump\t// out\n        /* \"#utility.yul\":14606:15025   */\n    tag_141:\n      0x00\n        /* \"#utility.yul\":14810:14812   */\n      0x20\n        /* \"#utility.yul\":14799:14808   */\n      dup3\n        /* \"#utility.yul\":14795:14813   */\n      add\n        /* \"#utility.yul\":14787:14813   */\n      swap1\n      pop\n        /* \"#utility.yul\":14859:14868   */\n      dup2\n        /* \"#utility.yul\":14853:14857   */\n      dup2\n        /* \"#utility.yul\":14849:14869   */\n      sub\n        /* \"#utility.yul\":14845:14846   */\n      0x00\n        /* \"#utility.yul\":14834:14843   */\n      dup4\n        /* \"#utility.yul\":14830:14847   */\n      add\n        /* \"#utility.yul\":14823:14870   */\n      mstore\n        /* \"#utility.yul\":14887:15018   */\n      tag_427\n        /* \"#utility.yul\":15013:15017   */\n      dup2\n        /* \"#utility.yul\":14887:15018   */\n      tag_373\n      jump\t// in\n    tag_427:\n        /* \"#utility.yul\":14879:15018   */\n      swap1\n      pop\n        /* \"#utility.yul\":14777:15025   */\n      swap2\n      swap1\n      pop\n      jump\t// out\n        /* \"#utility.yul\":15031:15450   */\n    tag_182:\n      0x00\n        /* \"#utility.yul\":15235:15237   */\n      0x20\n        /* \"#utility.yul\":15224:15233   */\n      dup3\n        /* \"#utility.yul\":15220:15238   */\n      add\n        /* \"#utility.yul\":15212:15238   */\n      swap1\n      pop\n        /* \"#utility.yul\":15284:15293   */\n      dup2\n        /* \"#utility.yul\":15278:15282   */\n      dup2\n        /* \"#utility.yul\":15274:15294   */\n      sub\n        /* \"#utility.yul\":15270:15271   */\n      0x00\n        /* \"#utility.yul\":15259:15268   */\n      dup4\n        /* \"#utility.yul\":15255:15272   */\n      add\n        /* \"#utility.yul\":15248:15295   */\n      mstore\n        /* \"#utility.yul\":15312:15443   */\n      tag_429\n        /* \"#utility.yul\":15438:15442   */\n      dup2\n        /* \"#utility.yul\":15312:15443   */\n      tag_376\n      jump\t// in\n    tag_429:\n        /* \"#utility.yul\":15304:15443   */\n      swap1\n      pop\n        /* \"#utility.yul\":15202:15450   */\n      swap2\n      swap1\n      pop\n      jump\t// out\n        /* \"#utility.yul\":15456:15875   */\n    tag_116:\n      0x00\n        /* \"#utility.yul\":15660:15662   */\n      0x20\n        /* \"#utility.yul\":15649:15658   */\n      dup3\n        /* \"#utility.yul\":15645:15663   */\n      add\n        /* \"#utility.yul\":15637:15663   */\n      swap1\n      pop\n        /* \"#utility.yul\":15709:15718   */\n      dup2\n        /* \"#utility.yul\":15703:15707   */\n      dup2\n        /* \"#utility.yul\":15699:15719   */\n      sub\n        /* \"#utility.yul\":15695:15696   */\n      0x00\n        /* \"#utility.yul\":15684:15693   */\n      dup4\n        /* \"#utility.yul\":15680:15697   */\n      add\n        /* \"#utility.yul\":15673:15720   */\n      mstore\n        /* \"#utility.yul\":15737:15868   */\n      tag_431\n        /* \"#utility.yul\":15863:15867   */\n      dup2\n        /* \"#utility.yul\":15737:15868   */\n      tag_379\n      jump\t// in\n    tag_431:\n        /* \"#utility.yul\":15729:15868   */\n      swap1\n      pop\n        /* \"#utility.yul\":15627:15875   */\n      swap2\n      swap1\n      pop\n      jump\t// out\n        /* \"#utility.yul\":15881:16300   */\n    tag_112:\n      0x00\n        /* \"#utility.yul\":16085:16087   */\n      0x20\n        /* \"#utility.yul\":16074:16083   */\n      dup3\n        /* \"#utility.yul\":16070:16088   */\n      add\n        /* \"#utility.yul\":16062:16088   */\n      swap1\n      pop\n        /* \"#utility.yul\":16134:16143   */\n      dup2\n        /* \"#utility.yul\":16128:16132   */\n      dup2\n        /* \"#utility.yul\":16124:16144   */\n      sub\n        /* \"#utility.yul\":16120:16121   */\n      0x00\n        /* \"#utility.yul\":16109:16118   */\n      dup4\n        /* \"#utility.yul\":16105:16122   */\n      add\n        /* \"#utility.yul\":16098:16145   */\n      mstore\n        /* \"#utility.yul\":16162:16293   */\n      tag_433\n        /* \"#utility.yul\":16288:16292   */\n      dup2\n        /* \"#utility.yul\":16162:16293   */\n      tag_382\n      jump\t// in\n    tag_433:\n        /* \"#utility.yul\":16154:16293   */\n      swap1\n      pop\n        /* \"#utility.yul\":16052:16300   */\n      swap2\n      swap1\n      pop\n      jump\t// out\n        /* \"#utility.yul\":16306:16725   */\n    tag_85:\n      0x00\n        /* \"#utility.yul\":16510:16512   */\n      0x20\n        /* \"#utility.yul\":16499:16508   */\n      dup3\n        /* \"#utility.yul\":16495:16513   */\n      add\n        /* \"#utility.yul\":16487:16513   */\n      swap1\n      pop\n        /* \"#utility.yul\":16559:16568   */\n      dup2\n        /* \"#utility.yul\":16553:16557   */\n      dup2\n        /* \"#utility.yul\":16549:16569   */\n      sub\n        /* \"#utility.yul\":16545:16546   */\n      0x00\n        /* \"#utility.yul\":16534:16543   */\n      dup4\n        /* \"#utility.yul\":16530:16547   */\n      add\n        /* \"#utility.yul\":16523:16570   */\n      mstore\n        /* \"#utility.yul\":16587:16718   */\n      tag_435\n        /* \"#utility.yul\":16713:16717   */\n      dup2\n        /* \"#utility.yul\":16587:16718   */\n      tag_385\n      jump\t// in\n    tag_435:\n        /* \"#utility.yul\":16579:16718   */\n      swap1\n      pop\n        /* \"#utility.yul\":16477:16725   */\n      swap2\n      swap1\n      pop\n      jump\t// out\n        /* \"#utility.yul\":16731:17014   */\n    tag_266:\n      0x00\n        /* \"#utility.yul\":16797:16799   */\n      0x40\n        /* \"#utility.yul\":16791:16800   */\n      mload\n        /* \"#utility.yul\":16781:16800   */\n      swap1\n      pop\n        /* \"#utility.yul\":16839:16843   */\n      dup2\n        /* \"#utility.yul\":16831:16837   */\n      dup2\n        /* \"#utility.yul\":16827:16844   */\n      add\n        /* \"#utility.yul\":16946:16952   */\n      dup2\n        /* \"#utility.yul\":16934:16944   */\n      dup2\n        /* \"#utility.yul\":16931:16953   */\n      lt\n        /* \"#utility.yul\":16910:16928   */\n      0xffffffffffffffff\n        /* \"#utility.yul\":16898:16908   */\n      dup3\n        /* \"#utility.yul\":16895:16929   */\n      gt\n        /* \"#utility.yul\":16892:16954   */\n      or\n        /* \"#utility.yul\":16889:16891   */\n      iszero\n      tag_437\n      jumpi\n        /* \"#utility.yul\":16957:16975   */\n      tag_438\n      tag_439\n      jump\t// in\n    tag_438:\n        /* \"#utility.yul\":16889:16891   */\n    tag_437:\n        /* \"#utility.yul\":16997:17007   */\n      dup1\n        /* \"#utility.yul\":16993:16995   */\n      0x40\n        /* \"#utility.yul\":16986:17008   */\n      mstore\n        /* \"#utility.yul\":16771:17014   */\n      pop\n      swap2\n      swap1\n      pop\n      jump\t// out\n        /* \"#utility.yul\":17020:17352   */\n    tag_265:\n      0x00\n        /* \"#utility.yul\":17172:17190   */\n      0xffffffffffffffff\n        /* \"#utility.yul\":17164:17170   */\n      dup3\n        /* \"#utility.yul\":17161:17191   */\n      gt\n        /* \"#utility.yul\":17158:17160   */\n      iszero\n      tag_441\n      jumpi\n        /* \"#utility.yul\":17194:17212   */\n      tag_442\n      tag_439\n      jump\t// in\n    tag_442:\n        /* \"#utility.yul\":17158:17160   */\n    tag_441:\n        /* \"#utility.yul\":17279:17283   */\n      0x1f\n        /* \"#utility.yul\":17275:17284   */\n      not\n        /* \"#utility.yul\":17268:17272   */\n      0x1f\n        /* \"#utility.yul\":17260:17266   */\n      dup4\n        /* \"#utility.yul\":17256:17273   */\n      add\n        /* \"#utility.yul\":17252:17285   */\n      and\n        /* \"#utility.yul\":17244:17285   */\n      swap1\n      pop\n        /* \"#utility.yul\":17340:17344   */\n      0x20\n        /* \"#utility.yul\":17334:17338   */\n      dup2\n        /* \"#utility.yul\":17330:17345   */\n      add\n        /* \"#utility.yul\":17322:17345   */\n      swap1\n      pop\n        /* \"#utility.yul\":17087:17352   */\n      swap2\n      swap1\n      pop\n      jump\t// out\n        /* \"#utility.yul\":17358:17517   */\n    tag_325:\n      0x00\n        /* \"#utility.yul\":17475:17478   */\n      dup2\n        /* \"#utility.yul\":17467:17478   */\n      swap1\n      pop\n        /* \"#utility.yul\":17505:17509   */\n      0x20\n        /* \"#utility.yul\":17500:17503   */\n      dup3\n        /* \"#utility.yul\":17496:17510   */\n      add\n        /* \"#utility.yul\":17488:17510   */\n      swap1\n      pop\n        /* \"#utility.yul\":17457:17517   */\n      swap2\n      swap1\n      pop\n      jump\t// out\n        /* \"#utility.yul\":17523:17678   */\n    tag_339:\n      0x00\n        /* \"#utility.yul\":17636:17639   */\n      dup2\n        /* \"#utility.yul\":17628:17639   */\n      swap1\n      pop\n        /* \"#utility.yul\":17666:17670   */\n      0x20\n        /* \"#utility.yul\":17661:17664   */\n      dup3\n        /* \"#utility.yul\":17657:17671   */\n      add\n        /* \"#utility.yul\":17649:17671   */\n      swap1\n      pop\n        /* \"#utility.yul\":17618:17678   */\n      swap2\n      swap1\n      pop\n      jump\t// out\n        /* \"#utility.yul\":17684:17825   */\n    tag_321:\n      0x00\n        /* \"#utility.yul\":17812:17817   */\n      dup2\n        /* \"#utility.yul\":17806:17818   */\n      mload\n        /* \"#utility.yul\":17796:17818   */\n      swap1\n      pop\n        /* \"#utility.yul\":17785:17825   */\n      swap2\n      swap1\n      pop\n      jump\t// out\n        /* \"#utility.yul\":17831:17968   */\n    tag_335:\n      0x00\n        /* \"#utility.yul\":17955:17960   */\n      dup2\n        /* \"#utility.yul\":17949:17961   */\n      mload\n        /* \"#utility.yul\":17939:17961   */\n      swap1\n      pop\n        /* \"#utility.yul\":17928:17968   */\n      swap2\n      swap1\n      pop\n      jump\t// out\n        /* \"#utility.yul\":17974:18073   */\n    tag_356:\n      0x00\n        /* \"#utility.yul\":18060:18065   */\n      dup2\n        /* \"#utility.yul\":18054:18066   */\n      mload\n        /* \"#utility.yul\":18044:18066   */\n      swap1\n      pop\n        /* \"#utility.yul\":18033:18073   */\n      swap2\n      swap1\n      pop\n      jump\t// out\n        /* \"#utility.yul\":18079:18219   */\n    tag_331:\n      0x00\n        /* \"#utility.yul\":18208:18212   */\n      0x20\n        /* \"#utility.yul\":18203:18206   */\n      dup3\n        /* \"#utility.yul\":18199:18213   */\n      add\n        /* \"#utility.yul\":18191:18213   */\n      swap1\n      pop\n        /* \"#utility.yul\":18181:18219   */\n      swap2\n      swap1\n      pop\n      jump\t// out\n        /* \"#utility.yul\":18225:18361   */\n    tag_345:\n      0x00\n        /* \"#utility.yul\":18350:18354   */\n      0x20\n        /* \"#utility.yul\":18345:18348   */\n      dup3\n        /* \"#utility.yul\":18341:18355   */\n      add\n        /* \"#utility.yul\":18333:18355   */\n      swap1\n      pop\n        /* \"#utility.yul\":18323:18361   */\n      swap2\n      swap1\n      pop\n      jump\t// out\n        /* \"#utility.yul\":18367:18578   */\n    tag_323:\n      0x00\n        /* \"#utility.yul\":18527:18533   */\n      dup3\n        /* \"#utility.yul\":18522:18525   */\n      dup3\n        /* \"#utility.yul\":18515:18534   */\n      mstore\n        /* \"#utility.yul\":18567:18571   */\n      0x20\n        /* \"#utility.yul\":18562:18565   */\n      dup3\n        /* \"#utility.yul\":18558:18572   */\n      add\n        /* \"#utility.yul\":18543:18572   */\n      swap1\n      pop\n        /* \"#utility.yul\":18505:18578   */\n      swap3\n      swap2\n      pop\n      pop\n      jump\t// out\n        /* \"#utility.yul\":18584:18791   */\n    tag_337:\n      0x00\n        /* \"#utility.yul\":18740:18746   */\n      dup3\n        /* \"#utility.yul\":18735:18738   */\n      dup3\n        /* \"#utility.yul\":18728:18747   */\n      mstore\n        /* \"#utility.yul\":18780:18784   */\n      0x20\n        /* \"#utility.yul\":18775:18778   */\n      dup3\n        /* \"#utility.yul\":18771:18785   */\n      add\n        /* \"#utility.yul\":18756:18785   */\n      swap1\n      pop\n        /* \"#utility.yul\":18718:18791   */\n      swap3\n      swap2\n      pop\n      pop\n      jump\t// out\n        /* \"#utility.yul\":18797:18956   */\n    tag_358:\n      0x00\n        /* \"#utility.yul\":18905:18911   */\n      dup3\n        /* \"#utility.yul\":18900:18903   */\n      dup3\n        /* \"#utility.yul\":18893:18912   */\n      mstore\n        /* \"#utility.yul\":18945:18949   */\n      0x20\n        /* \"#utility.yul\":18940:18943   */\n      dup3\n        /* \"#utility.yul\":18936:18950   */\n      add\n        /* \"#utility.yul\":18921:18950   */\n      swap1\n      pop\n        /* \"#utility.yul\":18883:18956   */\n      swap3\n      swap2\n      pop\n      pop\n      jump\t// out\n        /* \"#utility.yul\":18962:19131   */\n    tag_367:\n      0x00\n        /* \"#utility.yul\":19080:19086   */\n      dup3\n        /* \"#utility.yul\":19075:19078   */\n      dup3\n        /* \"#utility.yul\":19068:19087   */\n      mstore\n        /* \"#utility.yul\":19120:19124   */\n      0x20\n        /* \"#utility.yul\":19115:19118   */\n      dup3\n        /* \"#utility.yul\":19111:19125   */\n      add\n        /* \"#utility.yul\":19096:19125   */\n      swap1\n      pop\n        /* \"#utility.yul\":19058:19131   */\n      swap3\n      swap2\n      pop\n      pop\n      jump\t// out\n        /* \"#utility.yul\":19137:19328   */\n    tag_94:\n      0x00\n        /* \"#utility.yul\":19197:19217   */\n      tag_455\n        /* \"#utility.yul\":19215:19216   */\n      dup3\n        /* \"#utility.yul\":19197:19217   */\n      tag_456\n      jump\t// in\n    tag_455:\n        /* \"#utility.yul\":19192:19217   */\n      swap2\n      pop\n        /* \"#utility.yul\":19231:19251   */\n      tag_457\n        /* \"#utility.yul\":19249:19250   */\n      dup4\n        /* \"#utility.yul\":19231:19251   */\n      tag_456\n      jump\t// in\n    tag_457:\n        /* \"#utility.yul\":19226:19251   */\n      swap3\n      pop\n        /* \"#utility.yul\":19270:19271   */\n      dup3\n        /* \"#utility.yul\":19267:19268   */\n      dup3\n        /* \"#utility.yul\":19264:19272   */\n      lt\n        /* \"#utility.yul\":19261:19263   */\n      iszero\n      tag_458\n      jumpi\n        /* \"#utility.yul\":19275:19293   */\n      tag_459\n      tag_460\n      jump\t// in\n    tag_459:\n        /* \"#utility.yul\":19261:19263   */\n    tag_458:\n        /* \"#utility.yul\":19320:19321   */\n      dup3\n        /* \"#utility.yul\":19317:19318   */\n      dup3\n        /* \"#utility.yul\":19313:19322   */\n      sub\n        /* \"#utility.yul\":19305:19322   */\n      swap1\n      pop\n        /* \"#utility.yul\":19182:19328   */\n      swap3\n      swap2\n      pop\n      pop\n      jump\t// out\n        /* \"#utility.yul\":19334:19430   */\n    tag_314:\n      0x00\n        /* \"#utility.yul\":19400:19424   */\n      tag_462\n        /* \"#utility.yul\":19418:19423   */\n      dup3\n        /* \"#utility.yul\":19400:19424   */\n      tag_463\n      jump\t// in\n    tag_462:\n        /* \"#utility.yul\":19389:19424   */\n      swap1\n      pop\n        /* \"#utility.yul\":19379:19430   */\n      swap2\n      swap1\n      pop\n      jump\t// out\n        /* \"#utility.yul\":19436:19526   */\n    tag_349:\n      0x00\n        /* \"#utility.yul\":19513:19518   */\n      dup2\n        /* \"#utility.yul\":19506:19519   */\n      iszero\n        /* \"#utility.yul\":19499:19520   */\n      iszero\n        /* \"#utility.yul\":19488:19520   */\n      swap1\n      pop\n        /* \"#utility.yul\":19478:19526   */\n      swap2\n      swap1\n      pop\n      jump\t// out\n        /* \"#utility.yul\":19532:19658   */\n    tag_463:\n      0x00\n        /* \"#utility.yul\":19609:19651   */\n      0xffffffffffffffffffffffffffffffffffffffff\n        /* \"#utility.yul\":19602:19607   */\n      dup3\n        /* \"#utility.yul\":19598:19652   */\n      and\n        /* \"#utility.yul\":19587:19652   */\n      swap1\n      pop\n        /* \"#utility.yul\":19577:19658   */\n      swap2\n      swap1\n      pop\n      jump\t// out\n        /* \"#utility.yul\":19664:19741   */\n    tag_456:\n      0x00\n        /* \"#utility.yul\":19730:19735   */\n      dup2\n        /* \"#utility.yul\":19719:19735   */\n      swap1\n      pop\n        /* \"#utility.yul\":19709:19741   */\n      swap2\n      swap1\n      pop\n      jump\t// out\n        /* \"#utility.yul\":19747:19833   */\n    tag_400:\n      0x00\n        /* \"#utility.yul\":19822:19826   */\n      0xff\n        /* \"#utility.yul\":19815:19820   */\n      dup3\n        /* \"#utility.yul\":19811:19827   */\n      and\n        /* \"#utility.yul\":19800:19827   */\n      swap1\n      pop\n        /* \"#utility.yul\":19790:19833   */\n      swap2\n      swap1\n      pop\n      jump\t// out\n        /* \"#utility.yul\":19839:19993   */\n    tag_269:\n        /* \"#utility.yul\":19923:19929   */\n      dup3\n        /* \"#utility.yul\":19918:19921   */\n      dup2\n        /* \"#utility.yul\":19913:19916   */\n      dup4\n        /* \"#utility.yul\":19900:19930   */\n      calldatacopy\n        /* \"#utility.yul\":19985:19986   */\n      0x00\n        /* \"#utility.yul\":19976:19982   */\n      dup4\n        /* \"#utility.yul\":19971:19974   */\n      dup4\n        /* \"#utility.yul\":19967:19983   */\n      add\n        /* \"#utility.yul\":19960:19987   */\n      mstore\n        /* \"#utility.yul\":19890:19993   */\n      pop\n      pop\n      pop\n      jump\t// out\n        /* \"#utility.yul\":19999:20306   */\n    tag_360:\n        /* \"#utility.yul\":20067:20068   */\n      0x00\n        /* \"#utility.yul\":20077:20190   */\n    tag_470:\n        /* \"#utility.yul\":20091:20097   */\n      dup4\n        /* \"#utility.yul\":20088:20089   */\n      dup2\n        /* \"#utility.yul\":20085:20098   */\n      lt\n        /* \"#utility.yul\":20077:20190   */\n      iszero\n      tag_472\n      jumpi\n        /* \"#utility.yul\":20176:20177   */\n      dup1\n        /* \"#utility.yul\":20171:20174   */\n      dup3\n        /* \"#utility.yul\":20167:20178   */\n      add\n        /* \"#utility.yul\":20161:20179   */\n      mload\n        /* \"#utility.yul\":20157:20158   */\n      dup2\n        /* \"#utility.yul\":20152:20155   */\n      dup5\n        /* \"#utility.yul\":20148:20159   */\n      add\n        /* \"#utility.yul\":20141:20180   */\n      mstore\n        /* \"#utility.yul\":20113:20115   */\n      0x20\n        /* \"#utility.yul\":20110:20111   */\n      dup2\n        /* \"#utility.yul\":20106:20116   */\n      add\n        /* \"#utility.yul\":20101:20116   */\n      swap1\n      pop\n        /* \"#utility.yul\":20077:20190   */\n      jump(tag_470)\n    tag_472:\n        /* \"#utility.yul\":20208:20214   */\n      dup4\n        /* \"#utility.yul\":20205:20206   */\n      dup2\n        /* \"#utility.yul\":20202:20215   */\n      gt\n        /* \"#utility.yul\":20199:20201   */\n      iszero\n      tag_473\n      jumpi\n        /* \"#utility.yul\":20288:20289   */\n      0x00\n        /* \"#utility.yul\":20279:20285   */\n      dup5\n        /* \"#utility.yul\":20274:20277   */\n      dup5\n        /* \"#utility.yul\":20270:20286   */\n      add\n        /* \"#utility.yul\":20263:20290   */\n      mstore\n        /* \"#utility.yul\":20199:20201   */\n    tag_473:\n        /* \"#utility.yul\":20048:20306   */\n      pop\n      pop\n      pop\n      pop\n      jump\t// out\n        /* \"#utility.yul\":20312:20632   */\n    tag_100:\n      0x00\n        /* \"#utility.yul\":20393:20394   */\n      0x02\n        /* \"#utility.yul\":20387:20391   */\n      dup3\n        /* \"#utility.yul\":20383:20395   */\n      div\n        /* \"#utility.yul\":20373:20395   */\n      swap1\n      pop\n        /* \"#utility.yul\":20440:20441   */\n      0x01\n        /* \"#utility.yul\":20434:20438   */\n      dup3\n        /* \"#utility.yul\":20430:20442   */\n      and\n        /* \"#utility.yul\":20461:20479   */\n      dup1\n        /* \"#utility.yul\":20451:20453   */\n      tag_475\n      jumpi\n        /* \"#utility.yul\":20517:20521   */\n      0x7f\n        /* \"#utility.yul\":20509:20515   */\n      dup3\n        /* \"#utility.yul\":20505:20522   */\n      and\n        /* \"#utility.yul\":20495:20522   */\n      swap2\n      pop\n        /* \"#utility.yul\":20451:20453   */\n    tag_475:\n        /* \"#utility.yul\":20579:20581   */\n      0x20\n        /* \"#utility.yul\":20571:20577   */\n      dup3\n        /* \"#utility.yul\":20568:20582   */\n      lt\n        /* \"#utility.yul\":20548:20566   */\n      dup2\n        /* \"#utility.yul\":20545:20583   */\n      eq\n        /* \"#utility.yul\":20542:20544   */\n      iszero\n      tag_476\n      jumpi\n        /* \"#utility.yul\":20598:20616   */\n      tag_477\n      tag_478\n      jump\t// in\n    tag_477:\n        /* \"#utility.yul\":20542:20544   */\n    tag_476:\n        /* \"#utility.yul\":20363:20632   */\n      pop\n      swap2\n      swap1\n      pop\n      jump\t// out\n        /* \"#utility.yul\":20638:20871   */\n    tag_108:\n      0x00\n        /* \"#utility.yul\":20700:20724   */\n      tag_480\n        /* \"#utility.yul\":20718:20723   */\n      dup3\n        /* \"#utility.yul\":20700:20724   */\n      tag_456\n      jump\t// in\n    tag_480:\n        /* \"#utility.yul\":20691:20724   */\n      swap2\n      pop\n        /* \"#utility.yul\":20746:20812   */\n      0xffffffffffffffffffffffffffffffffffffffffffffffffffffffffffffffff\n        /* \"#utility.yul\":20739:20744   */\n      dup3\n        /* \"#utility.yul\":20736:20813   */\n      eq\n        /* \"#utility.yul\":20733:20735   */\n      iszero\n      tag_481\n      jumpi\n        /* \"#utility.yul\":20816:20834   */\n      tag_482\n      tag_460\n      jump\t// in\n    tag_482:\n        /* \"#utility.yul\":20733:20735   */\n    tag_481:\n        /* \"#utility.yul\":20863:20864   */\n      0x01\n        /* \"#utility.yul\":20856:20861   */\n      dup3\n        /* \"#utility.yul\":20852:20865   */\n      add\n        /* \"#utility.yul\":20845:20865   */\n      swap1\n      pop\n        /* \"#utility.yul\":20681:20871   */\n      swap2\n      swap1\n      pop\n      jump\t// out\n        /* \"#utility.yul\":20877:21057   */\n    tag_460:\n        /* \"#utility.yul\":20925:21002   */\n      0x4e487b7100000000000000000000000000000000000000000000000000000000\n        /* \"#utility.yul\":20922:20923   */\n      0x00\n        /* \"#utility.yul\":20915:21003   */\n      mstore\n        /* \"#utility.yul\":21022:21026   */\n      0x11\n        /* \"#utility.yul\":21019:21020   */\n      0x04\n        /* \"#utility.yul\":21012:21027   */\n      mstore\n        /* \"#utility.yul\":21046:21050   */\n      0x24\n        /* \"#utility.yul\":21043:21044   */\n      0x00\n        /* \"#utility.yul\":21036:21051   */\n      revert\n        /* \"#utility.yul\":21063:21243   */\n    tag_478:\n        /* \"#utility.yul\":21111:21188   */\n      0x4e487b7100000000000000000000000000000000000000000000000000000000\n        /* \"#utility.yul\":21108:21109   */\n      0x00\n        /* \"#utility.yul\":21101:21189   */\n      mstore\n        /* \"#utility.yul\":21208:21212   */\n      0x22\n        /* \"#utility.yul\":21205:21206   */\n      0x04\n        /* \"#utility.yul\":21198:21213   */\n      mstore\n        /* \"#utility.yul\":21232:21236   */\n      0x24\n        /* \"#utility.yul\":21229:21230   */\n      0x00\n        /* \"#utility.yul\":21222:21237   */\n      revert\n        /* \"#utility.yul\":21249:21429   */\n    tag_439:\n        /* \"#utility.yul\":21297:21374   */\n      0x4e487b7100000000000000000000000000000000000000000000000000000000\n        /* \"#utility.yul\":21294:21295   */\n      0x00\n        /* \"#utility.yul\":21287:21375   */\n      mstore\n        /* \"#utility.yul\":21394:21398   */\n      0x41\n        /* \"#utility.yul\":21391:21392   */\n      0x04\n        /* \"#utility.yul\":21384:21399   */\n      mstore\n        /* \"#utility.yul\":21418:21422   */\n      0x24\n        /* \"#utility.yul\":21415:21416   */\n      0x00\n        /* \"#utility.yul\":21408:21423   */\n      revert\n        /* \"#utility.yul\":21435:21537   */\n    tag_362:\n      0x00\n        /* \"#utility.yul\":21527:21529   */\n      0x1f\n        /* \"#utility.yul\":21523:21530   */\n      not\n        /* \"#utility.yul\":21518:21520   */\n      0x1f\n        /* \"#utility.yul\":21511:21516   */\n      dup4\n        /* \"#utility.yul\":21507:21521   */\n      add\n        /* \"#utility.yul\":21503:21531   */\n      and\n        /* \"#utility.yul\":21493:21531   */\n      swap1\n      pop\n        /* \"#utility.yul\":21483:21537   */\n      swap2\n      swap1\n      pop\n      jump\t// out\n        /* \"#utility.yul\":21543:21665   */\n    tag_273:\n        /* \"#utility.yul\":21616:21640   */\n      tag_488\n        /* \"#utility.yul\":21634:21639   */\n      dup2\n        /* \"#utility.yul\":21616:21640   */\n      tag_314\n      jump\t// in\n    tag_488:\n        /* \"#utility.yul\":21609:21614   */\n      dup2\n        /* \"#utility.yul\":21606:21641   */\n      eq\n        /* \"#utility.yul\":21596:21598   */\n      tag_489\n      jumpi\n        /* \"#utility.yul\":21655:21656   */\n      0x00\n        /* \"#utility.yul\":21652:21653   */\n      dup1\n        /* \"#utility.yul\":21645:21657   */\n      revert\n        /* \"#utility.yul\":21596:21598   */\n    tag_489:\n        /* \"#utility.yul\":21586:21665   */\n      pop\n      jump\t// out\n        /* \"#utility.yul\":21671:21793   */\n    tag_281:\n        /* \"#utility.yul\":21744:21768   */\n      tag_491\n        /* \"#utility.yul\":21762:21767   */\n      dup2\n        /* \"#utility.yul\":21744:21768   */\n      tag_456\n      jump\t// in\n    tag_491:\n        /* \"#utility.yul\":21737:21742   */\n      dup2\n        /* \"#utility.yul\":21734:21769   */\n      eq\n        /* \"#utility.yul\":21724:21726   */\n      tag_492\n      jumpi\n        /* \"#utility.yul\":21783:21784   */\n      0x00\n        /* \"#utility.yul\":21780:21781   */\n      dup1\n        /* \"#utility.yul\":21773:21785   */\n      revert\n        /* \"#utility.yul\":21724:21726   */\n    tag_492:\n        /* \"#utility.yul\":21714:21793   */\n      pop\n      jump\t// out\n        /* \"#utility.yul\":21799:21917   */\n    tag_285:\n        /* \"#utility.yul\":21870:21892   */\n      tag_494\n        /* \"#utility.yul\":21886:21891   */\n      dup2\n        /* \"#utility.yul\":21870:21892   */\n      tag_400\n      jump\t// in\n    tag_494:\n        /* \"#utility.yul\":21863:21868   */\n      dup2\n        /* \"#utility.yul\":21860:21893   */\n      eq\n        /* \"#utility.yul\":21850:21852   */\n      tag_495\n      jumpi\n        /* \"#utility.yul\":21907:21908   */\n      0x00\n        /* \"#utility.yul\":21904:21905   */\n      dup1\n        /* \"#utility.yul\":21897:21909   */\n      revert\n        /* \"#utility.yul\":21850:21852   */\n    tag_495:\n        /* \"#utility.yul\":21840:21917   */\n      pop\n      jump\t// out\n    stop\n    data_ab5ecbcd895f46bb6ad5a983fd00ba29b72331686909f50871dc662956b121c9 47756961206465205475726973746173207265676973747261646f20636f6e20657869746f\n    data_c9b19ca271bb17025b274d57613f75f836be0400106b0af07ea082c249005a48 4775696120646520547572697374617320656c696d696e61646f20636f6e20657869746f\n\n    auxdata: 0xa2646970667358221220e179e626fdfac0c0bbac0e5c7c1dcc92a0dfa7053312a014977f0fa934f466bf64736f6c63430008000033\n}\n",
				"bytecode": {
					"linkReferences": {},
					"object": "608060405234801561001057600080fd5b50336000806101000a81548173ffffffffffffffffffffffffffffffffffffffff021916908373ffffffffffffffffffffffffffffffffffffffff160217905550612f97806100606000396000f3fe608060405234801561001057600080fd5b50600436106100cf5760003560e01c80635ac340981161008c578063966549e511610066578063966549e51461027c5780639dc43f771461029a578063db096f25146102b8578063f0963a11146102ea576100cf565b80635ac34098146101e5578063711422d6146102175780638e12bf8714610249576100cf565b80630e768dbf146100d45780632bdaa8c9146101045780632eb728751461013457806340280a631461016457806347c58865146101975780635922f385146101b5575b600080fd5b6100ee60048036038101906100e99190612464565b61031d565b6040516100fb9190612b0d565b60405180910390f35b61011e60048036038101906101199190612464565b610860565b60405161012b9190612b0d565b60405180910390f35b61014e6004803603810190610149919061248d565b610ceb565b60405161015b9190612b0d565b60405180910390f35b61017e60048036038101906101799190612464565b611017565b60405161018e9493929190612a7d565b60405180910390f35b61019f611109565b6040516101ac9190612aeb565b60405180910390f35b6101cf60048036038101906101ca91906124e1565b6114b1565b6040516101dc9190612b0d565b60405180910390f35b6101ff60048036038101906101fa9190612464565b61189d565b60405161020e93929190612a3f565b60405180910390f35b610231600480360381019061022c9190612548565b61197c565b60405161024093929190612a3f565b60405180910390f35b610263600480360381019061025e9190612464565b611a6b565b6040516102739493929190612a7d565b60405180910390f35b610284611c04565b6040516102919190612ac9565b60405180910390f35b6102a2611f38565b6040516102af91906129f4565b60405180910390f35b6102d260048036038101906102cd9190612464565b611f5c565b6040516102e193929190612a3f565b60405180910390f35b61030460048036038101906102ff9190612548565b6120cf565b6040516103149493929190612a7d565b60405180910390f35b606060008054906101000a900473ffffffffffffffffffffffffffffffffffffffff1673ffffffffffffffffffffffffffffffffffffffff163373ffffffffffffffffffffffffffffffffffffffff1614806103c55750600360003373ffffffffffffffffffffffffffffffffffffffff1673ffffffffffffffffffffffffffffffffffffffff16815260200190815260200160002060020160009054906101000a900460ff165b610404576040517f08c379a00000000000000000000000000000000000000000000000000000000081526004016103fb90612b2f565b60405180910390fd5b600460008373ffffffffffffffffffffffffffffffffffffffff1673ffffffffffffffffffffffffffffffffffffffff16815260200190815260200160002060020160019054906101000a900460ff16610493576040517f08c379a000000000000000000000000000000000000000000000000000000000815260040161048a90612bcf565b60405180910390fd5b6000600460008473ffffffffffffffffffffffffffffffffffffffff1673ffffffffffffffffffffffffffffffffffffffff16815260200190815260200160002060020160016101000a81548160ff0219169083151502179055507fb132297e629aea39de2a0b95087d354abbad2860bc2dec703085f02ee09e372b8260405161051d91906129f4565b60405180910390a160005b600280549050811015610822578273ffffffffffffffffffffffffffffffffffffffff1660028281548110610586577f4e487b7100000000000000000000000000000000000000000000000000000000600052603260045260246000fd5b906000526020600020906003020160000160009054906101000a900473ffffffffffffffffffffffffffffffffffffffff1673ffffffffffffffffffffffffffffffffffffffff16141561080f57600260016002805490506105e89190612cef565b8154811061061f577f4e487b7100000000000000000000000000000000000000000000000000000000600052603260045260246000fd5b906000526020600020906003020160028281548110610667577f4e487b7100000000000000000000000000000000000000000000000000000000600052603260045260246000fd5b90600052602060002090600302016000820160009054906101000a900473ffffffffffffffffffffffffffffffffffffffff168160000160006101000a81548173ffffffffffffffffffffffffffffffffffffffff021916908373ffffffffffffffffffffffffffffffffffffffff16021790555060018201816001019080546106f090612dba565b6106fb9291906121d1565b506002820160009054906101000a900460ff168160020160006101000a81548160ff021916908360ff1602179055506002820160019054906101000a900460ff168160020160016101000a81548160ff0219169083151502179055509050506002805480610792577f4e487b7100000000000000000000000000000000000000000000000000000000600052603160045260246000fd5b6001900381819060005260206000209060030201600080820160006101000a81549073ffffffffffffffffffffffffffffffffffffffff02191690556001820160006107de919061225e565b6002820160006101000a81549060ff02191690556002820160016101000a81549060ff021916905550509055610822565b808061081a90612dec565b915050610528565b506040518060400160405280601b81526020017f5475726973746120656c696d696e61646f20636f6e20657869746f00000000008152509050919050565b606060008054906101000a900473ffffffffffffffffffffffffffffffffffffffff1673ffffffffffffffffffffffffffffffffffffffff163373ffffffffffffffffffffffffffffffffffffffff16146108f0576040517f08c379a00000000000000000000000000000000000000000000000000000000081526004016108e790612baf565b60405180910390fd5b600360008373ffffffffffffffffffffffffffffffffffffffff1673ffffffffffffffffffffffffffffffffffffffff16815260200190815260200160002060020160009054906101000a900460ff1661097f576040517f08c379a000000000000000000000000000000000000000000000000000000000815260040161097690612b8f565b60405180910390fd5b6000600360008473ffffffffffffffffffffffffffffffffffffffff1673ffffffffffffffffffffffffffffffffffffffff16815260200190815260200160002060020160006101000a81548160ff0219169083151502179055507f93d0e91b2385480f16c2e324398638f59df15184797653484a2e7a4d851540f182604051610a0991906129f4565b60405180910390a160005b600180549050811015610cca578273ffffffffffffffffffffffffffffffffffffffff1660018281548110610a72577f4e487b7100000000000000000000000000000000000000000000000000000000600052603260045260246000fd5b906000526020600020906003020160000160009054906101000a900473ffffffffffffffffffffffffffffffffffffffff1673ffffffffffffffffffffffffffffffffffffffff161415610cb7576001808080549050610ad29190612cef565b81548110610b09577f4e487b7100000000000000000000000000000000000000000000000000000000600052603260045260246000fd5b906000526020600020906003020160018281548110610b51577f4e487b7100000000000000000000000000000000000000000000000000000000600052603260045260246000fd5b90600052602060002090600302016000820160009054906101000a900473ffffffffffffffffffffffffffffffffffffffff168160000160006101000a81548173ffffffffffffffffffffffffffffffffffffffff021916908373ffffffffffffffffffffffffffffffffffffffff1602179055506001820181600101908054610bda90612dba565b610be59291906121d1565b506002820160009054906101000a900460ff168160020160006101000a81548160ff0219169083151502179055509050506001805480610c4e577f4e487b7100000000000000000000000000000000000000000000000000000000600052603160045260246000fd5b6001900381819060005260206000209060030201600080820160006101000a81549073ffffffffffffffffffffffffffffffffffffffff0219169055600182016000610c9a919061225e565b6002820160006101000a81549060ff021916905550509055610cca565b8080610cc290612dec565b915050610a14565b50604051806060016040528060248152602001612f3e602491399050919050565b606060008054906101000a900473ffffffffffffffffffffffffffffffffffffffff1673ffffffffffffffffffffffffffffffffffffffff163373ffffffffffffffffffffffffffffffffffffffff1614610d7b576040517f08c379a0000000000000000000000000000000000000000000000000000000008152600401610d7290612baf565b60405180910390fd5b600360008473ffffffffffffffffffffffffffffffffffffffff1673ffffffffffffffffffffffffffffffffffffffff16815260200190815260200160002060020160009054906101000a900460ff1615610e0b576040517f08c379a0000000000000000000000000000000000000000000000000000000008152600401610e0290612b4f565b60405180910390fd5b600060405180606001604052808573ffffffffffffffffffffffffffffffffffffffff16815260200184815260200160011515815250905080600360008673ffffffffffffffffffffffffffffffffffffffff1673ffffffffffffffffffffffffffffffffffffffff16815260200190815260200160002060008201518160000160006101000a81548173ffffffffffffffffffffffffffffffffffffffff021916908373ffffffffffffffffffffffffffffffffffffffff1602179055506020820151816001019080519060200190610ee692919061229e565b5060408201518160020160006101000a81548160ff021916908315150217905550905050600181908060018154018082558091505060019003906000526020600020906003020160009091909190915060008201518160000160006101000a81548173ffffffffffffffffffffffffffffffffffffffff021916908373ffffffffffffffffffffffffffffffffffffffff1602179055506020820151816001019080519060200190610f9992919061229e565b5060408201518160020160006101000a81548160ff02191690831515021790555050507f51d926f521aa5bce4104e82a66580aa7251d9a3598bccb8ddf76febbff83576a8484604051610fed929190612a0f565b60405180910390a1604051806060016040528060258152602001612f196025913991505092915050565b60046020528060005260406000206000915090508060000160009054906101000a900473ffffffffffffffffffffffffffffffffffffffff169080600101805461106090612dba565b80601f016020809104026020016040519081016040528092919081815260200182805461108c90612dba565b80156110d95780601f106110ae576101008083540402835291602001916110d9565b820191906000526020600020905b8154815290600101906020018083116110bc57829003601f168201915b5050505050908060020160009054906101000a900460ff16908060020160019054906101000a900460ff16905084565b606060008054906101000a900473ffffffffffffffffffffffffffffffffffffffff1673ffffffffffffffffffffffffffffffffffffffff163373ffffffffffffffffffffffffffffffffffffffff1614806111b15750600360003373ffffffffffffffffffffffffffffffffffffffff1673ffffffffffffffffffffffffffffffffffffffff16815260200190815260200160002060020160009054906101000a900460ff165b6111f0576040517f08c379a00000000000000000000000000000000000000000000000000000000081526004016111e790612b2f565b60405180910390fd5b60028054905067ffffffffffffffff811115611235577f4e487b7100000000000000000000000000000000000000000000000000000000600052604160045260246000fd5b60405190808252806020026020018201604052801561126e57816020015b61125b612324565b8152602001906001900390816112535790505b50905060005b6002805490508110156114ad5760046000600283815481106112bf577f4e487b7100000000000000000000000000000000000000000000000000000000600052603260045260246000fd5b906000526020600020906003020160000160009054906101000a900473ffffffffffffffffffffffffffffffffffffffff1673ffffffffffffffffffffffffffffffffffffffff1673ffffffffffffffffffffffffffffffffffffffff1681526020019081526020016000206040518060800160405290816000820160009054906101000a900473ffffffffffffffffffffffffffffffffffffffff1673ffffffffffffffffffffffffffffffffffffffff1673ffffffffffffffffffffffffffffffffffffffff16815260200160018201805461139c90612dba565b80601f01602080910402602001604051908101604052809291908181526020018280546113c890612dba565b80156114155780601f106113ea57610100808354040283529160200191611415565b820191906000526020600020905b8154815290600101906020018083116113f857829003601f168201915b505050505081526020016002820160009054906101000a900460ff1660ff1660ff1681526020016002820160019054906101000a900460ff16151515158152505082828151811061148f577f4e487b7100000000000000000000000000000000000000000000000000000000600052603260045260246000fd5b602002602001018190525080806114a590612dec565b915050611274565b5090565b606060008054906101000a900473ffffffffffffffffffffffffffffffffffffffff1673ffffffffffffffffffffffffffffffffffffffff163373ffffffffffffffffffffffffffffffffffffffff1614806115595750600360003373ffffffffffffffffffffffffffffffffffffffff1673ffffffffffffffffffffffffffffffffffffffff16815260200190815260200160002060020160009054906101000a900460ff165b611598576040517f08c379a000000000000000000000000000000000000000000000000000000000815260040161158f90612b2f565b60405180910390fd5b600460008573ffffffffffffffffffffffffffffffffffffffff1673ffffffffffffffffffffffffffffffffffffffff16815260200190815260200160002060020160019054906101000a900460ff1615611628576040517f08c379a000000000000000000000000000000000000000000000000000000000815260040161161f90612b6f565b60405180910390fd5b600060405180608001604052808673ffffffffffffffffffffffffffffffffffffffff1681526020018581526020018460ff16815260200160011515815250905080600460008773ffffffffffffffffffffffffffffffffffffffff1673ffffffffffffffffffffffffffffffffffffffff16815260200190815260200160002060008201518160000160006101000a81548173ffffffffffffffffffffffffffffffffffffffff021916908373ffffffffffffffffffffffffffffffffffffffff160217905550602082015181600101908051906020019061170c92919061229e565b5060408201518160020160006101000a81548160ff021916908360ff16021790555060608201518160020160016101000a81548160ff021916908315150217905550905050600281908060018154018082558091505060019003906000526020600020906003020160009091909190915060008201518160000160006101000a81548173ffffffffffffffffffffffffffffffffffffffff021916908373ffffffffffffffffffffffffffffffffffffffff16021790555060208201518160010190805190602001906117e092919061229e565b5060408201518160020160006101000a81548160ff021916908360ff16021790555060608201518160020160016101000a81548160ff02191690831515021790555050507f6e3e05804c481790319a6706171e0354dbe5b600f1a3a8b4e12a70a2892f8d7d8585604051611855929190612a0f565b60405180910390a16040518060400160405280601c81526020017f54757269737461207265676973747261646f20636f6e20657869746f000000008152509150509392505050565b60036020528060005260406000206000915090508060000160009054906101000a900473ffffffffffffffffffffffffffffffffffffffff16908060010180546118e690612dba565b80601f016020809104026020016040519081016040528092919081815260200182805461191290612dba565b801561195f5780601f106119345761010080835404028352916020019161195f565b820191906000526020600020905b81548152906001019060200180831161194257829003601f168201915b5050505050908060020160009054906101000a900460ff16905083565b6001818154811061198c57600080fd5b90600052602060002090600302016000915090508060000160009054906101000a900473ffffffffffffffffffffffffffffffffffffffff16908060010180546119d590612dba565b80601f0160208091040260200160405190810160405280929190818152602001828054611a0190612dba565b8015611a4e5780601f10611a2357610100808354040283529160200191611a4e565b820191906000526020600020905b815481529060010190602001808311611a3157829003601f168201915b5050505050908060020160009054906101000a900460ff16905083565b600060606000806000600460008773ffffffffffffffffffffffffffffffffffffffff1673ffffffffffffffffffffffffffffffffffffffff1681526020019081526020016000206040518060800160405290816000820160009054906101000a900473ffffffffffffffffffffffffffffffffffffffff1673ffffffffffffffffffffffffffffffffffffffff1673ffffffffffffffffffffffffffffffffffffffff168152602001600182018054611b2490612dba565b80601f0160208091040260200160405190810160405280929190818152602001828054611b5090612dba565b8015611b9d5780601f10611b7257610100808354040283529160200191611b9d565b820191906000526020600020905b815481529060010190602001808311611b8057829003601f168201915b505050505081526020016002820160009054906101000a900460ff1660ff1660ff1681526020016002820160019054906101000a900460ff161515151581525050905080600001518160200151826040015183606001519450945094509450509193509193565b606060008054906101000a900473ffffffffffffffffffffffffffffffffffffffff1673ffffffffffffffffffffffffffffffffffffffff163373ffffffffffffffffffffffffffffffffffffffff1614611c94576040517f08c379a0000000000000000000000000000000000000000000000000000000008152600401611c8b90612baf565b60405180910390fd5b60018054905067ffffffffffffffff811115611cd9577f4e487b7100000000000000000000000000000000000000000000000000000000600052604160045260246000fd5b604051908082528060200260200182016040528015611d1257816020015b611cff612367565b815260200190600190039081611cf75790505b50905060005b600180549050811015611f34576003600060018381548110611d63577f4e487b7100000000000000000000000000000000000000000000000000000000600052603260045260246000fd5b906000526020600020906003020160000160009054906101000a900473ffffffffffffffffffffffffffffffffffffffff1673ffffffffffffffffffffffffffffffffffffffff1673ffffffffffffffffffffffffffffffffffffffff1681526020019081526020016000206040518060600160405290816000820160009054906101000a900473ffffffffffffffffffffffffffffffffffffffff1673ffffffffffffffffffffffffffffffffffffffff1673ffffffffffffffffffffffffffffffffffffffff168152602001600182018054611e4090612dba565b80601f0160208091040260200160405190810160405280929190818152602001828054611e6c90612dba565b8015611eb95780601f10611e8e57610100808354040283529160200191611eb9565b820191906000526020600020905b815481529060010190602001808311611e9c57829003601f168201915b505050505081526020016002820160009054906101000a900460ff161515151581525050828281518110611f16577f4e487b7100000000000000000000000000000000000000000000000000000000600052603260045260246000fd5b60200260200101819052508080611f2c90612dec565b915050611d18565b5090565b60008054906101000a900473ffffffffffffffffffffffffffffffffffffffff1681565b60006060600080600360008673ffffffffffffffffffffffffffffffffffffffff1673ffffffffffffffffffffffffffffffffffffffff1681526020019081526020016000206040518060600160405290816000820160009054906101000a900473ffffffffffffffffffffffffffffffffffffffff1673ffffffffffffffffffffffffffffffffffffffff1673ffffffffffffffffffffffffffffffffffffffff16815260200160018201805461201390612dba565b80601f016020809104026020016040519081016040528092919081815260200182805461203f90612dba565b801561208c5780601f106120615761010080835404028352916020019161208c565b820191906000526020600020905b81548152906001019060200180831161206f57829003601f168201915b505050505081526020016002820160009054906101000a900460ff1615151515815250509050806000015181602001518260400151935093509350509193909250565b600281815481106120df57600080fd5b90600052602060002090600302016000915090508060000160009054906101000a900473ffffffffffffffffffffffffffffffffffffffff169080600101805461212890612dba565b80601f016020809104026020016040519081016040528092919081815260200182805461215490612dba565b80156121a15780601f10612176576101008083540402835291602001916121a1565b820191906000526020600020905b81548152906001019060200180831161218457829003601f168201915b5050505050908060020160009054906101000a900460ff16908060020160019054906101000a900460ff16905084565b8280546121dd90612dba565b90600052602060002090601f0160209004810192826121ff576000855561224d565b82601f10612210578054855561224d565b8280016001018555821561224d57600052602060002091601f016020900482015b8281111561224c578254825591600101919060010190612231565b5b50905061225a91906123a0565b5090565b50805461226a90612dba565b6000825580601f1061227c575061229b565b601f01602090049060005260206000209081019061229a91906123a0565b5b50565b8280546122aa90612dba565b90600052602060002090601f0160209004810192826122cc5760008555612313565b82601f106122e557805160ff1916838001178555612313565b82800160010185558215612313579182015b828111156123125782518255916020019190600101906122f7565b5b50905061232091906123a0565b5090565b6040518060800160405280600073ffffffffffffffffffffffffffffffffffffffff16815260200160608152602001600060ff1681526020016000151581525090565b6040518060600160405280600073ffffffffffffffffffffffffffffffffffffffff168152602001606081526020016000151581525090565b5b808211156123b95760008160009055506001016123a1565b5090565b60006123d06123cb84612c20565b612bef565b9050828152602081018484840111156123e857600080fd5b6123f3848285612d78565b509392505050565b60008135905061240a81612ed3565b92915050565b600082601f83011261242157600080fd5b81356124318482602086016123bd565b91505092915050565b60008135905061244981612eea565b92915050565b60008135905061245e81612f01565b92915050565b60006020828403121561247657600080fd5b6000612484848285016123fb565b91505092915050565b600080604083850312156124a057600080fd5b60006124ae858286016123fb565b925050602083013567ffffffffffffffff8111156124cb57600080fd5b6124d785828601612410565b9150509250929050565b6000806000606084860312156124f657600080fd5b6000612504868287016123fb565b935050602084013567ffffffffffffffff81111561252157600080fd5b61252d86828701612410565b925050604061253e8682870161244f565b9150509250925092565b60006020828403121561255a57600080fd5b60006125688482850161243a565b91505092915050565b600061257d8383612923565b905092915050565b60006125918383612973565b905092915050565b6125a281612d23565b82525050565b6125b181612d23565b82525050565b60006125c282612c70565b6125cc8185612cab565b9350836020820285016125de85612c50565b8060005b8581101561261a57848403895281516125fb8582612571565b945061260683612c91565b925060208a019950506001810190506125e2565b50829750879550505050505092915050565b600061263782612c7b565b6126418185612cbc565b93508360208202850161265385612c60565b8060005b8581101561268f57848403895281516126708582612585565b945061267b83612c9e565b925060208a01995050600181019050612657565b50829750879550505050505092915050565b6126aa81612d35565b82525050565b6126b981612d35565b82525050565b60006126ca82612c86565b6126d48185612ccd565b93506126e4818560208601612d87565b6126ed81612ec2565b840191505092915050565b600061270382612c86565b61270d8185612cde565b935061271d818560208601612d87565b61272681612ec2565b840191505092915050565b600061273e603d83612cde565b91507f536f6c6f20656c204475656e6e6f206f2047756961732064652074757269737460008301527f6173207075656465207265616c697a6172206573746120616363696f6e0000006020830152604082019050919050565b60006127a4602383612cde565b91507f477569612064652054757269737461732079612065737461207265676973747260008301527f61646f00000000000000000000000000000000000000000000000000000000006020830152604082019050919050565b600061280a601a83612cde565b91507f547572697374612079612065737461207265676973747261646f0000000000006000830152602082019050919050565b600061284a600e83612cde565b91507f47756961206e6f206578697374650000000000000000000000000000000000006000830152602082019050919050565b600061288a602983612cde565b91507f536f6c6f20656c204475656e6e6f207075656465207265616c697a617220657360008301527f746120616363696f6e00000000000000000000000000000000000000000000006020830152604082019050919050565b60006128f0601183612cde565b91507f54757269737461206e6f206578697374650000000000000000000000000000006000830152602082019050919050565b600060608301600083015161293b6000860182612599565b506020830151848203602086015261295382826126bf565b915050604083015161296860408601826126a1565b508091505092915050565b600060808301600083015161298b6000860182612599565b50602083015184820360208601526129a382826126bf565b91505060408301516129b860408601826129d6565b5060608301516129cb60608601826126a1565b508091505092915050565b6129df81612d6b565b82525050565b6129ee81612d6b565b82525050565b6000602082019050612a0960008301846125a8565b92915050565b6000604082019050612a2460008301856125a8565b8181036020830152612a3681846126f8565b90509392505050565b6000606082019050612a5460008301866125a8565b8181036020830152612a6681856126f8565b9050612a7560408301846126b0565b949350505050565b6000608082019050612a9260008301876125a8565b8181036020830152612aa481866126f8565b9050612ab360408301856129e5565b612ac060608301846126b0565b95945050505050565b60006020820190508181036000830152612ae381846125b7565b905092915050565b60006020820190508181036000830152612b05818461262c565b905092915050565b60006020820190508181036000830152612b2781846126f8565b905092915050565b60006020820190508181036000830152612b4881612731565b9050919050565b60006020820190508181036000830152612b6881612797565b9050919050565b60006020820190508181036000830152612b88816127fd565b9050919050565b60006020820190508181036000830152612ba88161283d565b9050919050565b60006020820190508181036000830152612bc88161287d565b9050919050565b60006020820190508181036000830152612be8816128e3565b9050919050565b6000604051905081810181811067ffffffffffffffff82111715612c1657612c15612e93565b5b8060405250919050565b600067ffffffffffffffff821115612c3b57612c3a612e93565b5b601f19601f8301169050602081019050919050565b6000819050602082019050919050565b6000819050602082019050919050565b600081519050919050565b600081519050919050565b600081519050919050565b6000602082019050919050565b6000602082019050919050565b600082825260208201905092915050565b600082825260208201905092915050565b600082825260208201905092915050565b600082825260208201905092915050565b6000612cfa82612d61565b9150612d0583612d61565b925082821015612d1857612d17612e35565b5b828203905092915050565b6000612d2e82612d41565b9050919050565b60008115159050919050565b600073ffffffffffffffffffffffffffffffffffffffff82169050919050565b6000819050919050565b600060ff82169050919050565b82818337600083830152505050565b60005b83811015612da5578082015181840152602081019050612d8a565b83811115612db4576000848401525b50505050565b60006002820490506001821680612dd257607f821691505b60208210811415612de657612de5612e64565b5b50919050565b6000612df782612d61565b91507fffffffffffffffffffffffffffffffffffffffffffffffffffffffffffffffff821415612e2a57612e29612e35565b5b600182019050919050565b7f4e487b7100000000000000000000000000000000000000000000000000000000600052601160045260246000fd5b7f4e487b7100000000000000000000000000000000000000000000000000000000600052602260045260246000fd5b7f4e487b7100000000000000000000000000000000000000000000000000000000600052604160045260246000fd5b6000601f19601f8301169050919050565b612edc81612d23565b8114612ee757600080fd5b50565b612ef381612d61565b8114612efe57600080fd5b50565b612f0a81612d6b565b8114612f1557600080fd5b5056fe47756961206465205475726973746173207265676973747261646f20636f6e20657869746f4775696120646520547572697374617320656c696d696e61646f20636f6e20657869746fa2646970667358221220e179e626fdfac0c0bbac0e5c7c1dcc92a0dfa7053312a014977f0fa934f466bf64736f6c63430008000033",
					"opcodes": "PUSH1 0x80 PUSH1 0x40 MSTORE CALLVALUE DUP1 ISZERO PUSH2 0x10 JUMPI PUSH1 0x0 DUP1 REVERT JUMPDEST POP CALLER PUSH1 0x0 DUP1 PUSH2 0x100 EXP DUP2 SLOAD DUP2 PUSH20 0xFFFFFFFFFFFFFFFFFFFFFFFFFFFFFFFFFFFFFFFF MUL NOT AND SWAP1 DUP4 PUSH20 0xFFFFFFFFFFFFFFFFFFFFFFFFFFFFFFFFFFFFFFFF AND MUL OR SWAP1 SSTORE POP PUSH2 0x2F97 DUP1 PUSH2 0x60 PUSH1 0x0 CODECOPY PUSH1 0x0 RETURN INVALID PUSH1 0x80 PUSH1 0x40 MSTORE CALLVALUE DUP1 ISZERO PUSH2 0x10 JUMPI PUSH1 0x0 DUP1 REVERT JUMPDEST POP PUSH1 0x4 CALLDATASIZE LT PUSH2 0xCF JUMPI PUSH1 0x0 CALLDATALOAD PUSH1 0xE0 SHR DUP1 PUSH4 0x5AC34098 GT PUSH2 0x8C JUMPI DUP1 PUSH4 0x966549E5 GT PUSH2 0x66 JUMPI DUP1 PUSH4 0x966549E5 EQ PUSH2 0x27C JUMPI DUP1 PUSH4 0x9DC43F77 EQ PUSH2 0x29A JUMPI DUP1 PUSH4 0xDB096F25 EQ PUSH2 0x2B8 JUMPI DUP1 PUSH4 0xF0963A11 EQ PUSH2 0x2EA JUMPI PUSH2 0xCF JUMP JUMPDEST DUP1 PUSH4 0x5AC34098 EQ PUSH2 0x1E5 JUMPI DUP1 PUSH4 0x711422D6 EQ PUSH2 0x217 JUMPI DUP1 PUSH4 0x8E12BF87 EQ PUSH2 0x249 JUMPI PUSH2 0xCF JUMP JUMPDEST DUP1 PUSH4 0xE768DBF EQ PUSH2 0xD4 JUMPI DUP1 PUSH4 0x2BDAA8C9 EQ PUSH2 0x104 JUMPI DUP1 PUSH4 0x2EB72875 EQ PUSH2 0x134 JUMPI DUP1 PUSH4 0x40280A63 EQ PUSH2 0x164 JUMPI DUP1 PUSH4 0x47C58865 EQ PUSH2 0x197 JUMPI DUP1 PUSH4 0x5922F385 EQ PUSH2 0x1B5 JUMPI JUMPDEST PUSH1 0x0 DUP1 REVERT JUMPDEST PUSH2 0xEE PUSH1 0x4 DUP1 CALLDATASIZE SUB DUP2 ADD SWAP1 PUSH2 0xE9 SWAP2 SWAP1 PUSH2 0x2464 JUMP JUMPDEST PUSH2 0x31D JUMP JUMPDEST PUSH1 0x40 MLOAD PUSH2 0xFB SWAP2 SWAP1 PUSH2 0x2B0D JUMP JUMPDEST PUSH1 0x40 MLOAD DUP1 SWAP2 SUB SWAP1 RETURN JUMPDEST PUSH2 0x11E PUSH1 0x4 DUP1 CALLDATASIZE SUB DUP2 ADD SWAP1 PUSH2 0x119 SWAP2 SWAP1 PUSH2 0x2464 JUMP JUMPDEST PUSH2 0x860 JUMP JUMPDEST PUSH1 0x40 MLOAD PUSH2 0x12B SWAP2 SWAP1 PUSH2 0x2B0D JUMP JUMPDEST PUSH1 0x40 MLOAD DUP1 SWAP2 SUB SWAP1 RETURN JUMPDEST PUSH2 0x14E PUSH1 0x4 DUP1 CALLDATASIZE SUB DUP2 ADD SWAP1 PUSH2 0x149 SWAP2 SWAP1 PUSH2 0x248D JUMP JUMPDEST PUSH2 0xCEB JUMP JUMPDEST PUSH1 0x40 MLOAD PUSH2 0x15B SWAP2 SWAP1 PUSH2 0x2B0D JUMP JUMPDEST PUSH1 0x40 MLOAD DUP1 SWAP2 SUB SWAP1 RETURN JUMPDEST PUSH2 0x17E PUSH1 0x4 DUP1 CALLDATASIZE SUB DUP2 ADD SWAP1 PUSH2 0x179 SWAP2 SWAP1 PUSH2 0x2464 JUMP JUMPDEST PUSH2 0x1017 JUMP JUMPDEST PUSH1 0x40 MLOAD PUSH2 0x18E SWAP5 SWAP4 SWAP3 SWAP2 SWAP1 PUSH2 0x2A7D JUMP JUMPDEST PUSH1 0x40 MLOAD DUP1 SWAP2 SUB SWAP1 RETURN JUMPDEST PUSH2 0x19F PUSH2 0x1109 JUMP JUMPDEST PUSH1 0x40 MLOAD PUSH2 0x1AC SWAP2 SWAP1 PUSH2 0x2AEB JUMP JUMPDEST PUSH1 0x40 MLOAD DUP1 SWAP2 SUB SWAP1 RETURN JUMPDEST PUSH2 0x1CF PUSH1 0x4 DUP1 CALLDATASIZE SUB DUP2 ADD SWAP1 PUSH2 0x1CA SWAP2 SWAP1 PUSH2 0x24E1 JUMP JUMPDEST PUSH2 0x14B1 JUMP JUMPDEST PUSH1 0x40 MLOAD PUSH2 0x1DC SWAP2 SWAP1 PUSH2 0x2B0D JUMP JUMPDEST PUSH1 0x40 MLOAD DUP1 SWAP2 SUB SWAP1 RETURN JUMPDEST PUSH2 0x1FF PUSH1 0x4 DUP1 CALLDATASIZE SUB DUP2 ADD SWAP1 PUSH2 0x1FA SWAP2 SWAP1 PUSH2 0x2464 JUMP JUMPDEST PUSH2 0x189D JUMP JUMPDEST PUSH1 0x40 MLOAD PUSH2 0x20E SWAP4 SWAP3 SWAP2 SWAP1 PUSH2 0x2A3F JUMP JUMPDEST PUSH1 0x40 MLOAD DUP1 SWAP2 SUB SWAP1 RETURN JUMPDEST PUSH2 0x231 PUSH1 0x4 DUP1 CALLDATASIZE SUB DUP2 ADD SWAP1 PUSH2 0x22C SWAP2 SWAP1 PUSH2 0x2548 JUMP JUMPDEST PUSH2 0x197C JUMP JUMPDEST PUSH1 0x40 MLOAD PUSH2 0x240 SWAP4 SWAP3 SWAP2 SWAP1 PUSH2 0x2A3F JUMP JUMPDEST PUSH1 0x40 MLOAD DUP1 SWAP2 SUB SWAP1 RETURN JUMPDEST PUSH2 0x263 PUSH1 0x4 DUP1 CALLDATASIZE SUB DUP2 ADD SWAP1 PUSH2 0x25E SWAP2 SWAP1 PUSH2 0x2464 JUMP JUMPDEST PUSH2 0x1A6B JUMP JUMPDEST PUSH1 0x40 MLOAD PUSH2 0x273 SWAP5 SWAP4 SWAP3 SWAP2 SWAP1 PUSH2 0x2A7D JUMP JUMPDEST PUSH1 0x40 MLOAD DUP1 SWAP2 SUB SWAP1 RETURN JUMPDEST PUSH2 0x284 PUSH2 0x1C04 JUMP JUMPDEST PUSH1 0x40 MLOAD PUSH2 0x291 SWAP2 SWAP1 PUSH2 0x2AC9 JUMP JUMPDEST PUSH1 0x40 MLOAD DUP1 SWAP2 SUB SWAP1 RETURN JUMPDEST PUSH2 0x2A2 PUSH2 0x1F38 JUMP JUMPDEST PUSH1 0x40 MLOAD PUSH2 0x2AF SWAP2 SWAP1 PUSH2 0x29F4 JUMP JUMPDEST PUSH1 0x40 MLOAD DUP1 SWAP2 SUB SWAP1 RETURN JUMPDEST PUSH2 0x2D2 PUSH1 0x4 DUP1 CALLDATASIZE SUB DUP2 ADD SWAP1 PUSH2 0x2CD SWAP2 SWAP1 PUSH2 0x2464 JUMP JUMPDEST PUSH2 0x1F5C JUMP JUMPDEST PUSH1 0x40 MLOAD PUSH2 0x2E1 SWAP4 SWAP3 SWAP2 SWAP1 PUSH2 0x2A3F JUMP JUMPDEST PUSH1 0x40 MLOAD DUP1 SWAP2 SUB SWAP1 RETURN JUMPDEST PUSH2 0x304 PUSH1 0x4 DUP1 CALLDATASIZE SUB DUP2 ADD SWAP1 PUSH2 0x2FF SWAP2 SWAP1 PUSH2 0x2548 JUMP JUMPDEST PUSH2 0x20CF JUMP JUMPDEST PUSH1 0x40 MLOAD PUSH2 0x314 SWAP5 SWAP4 SWAP3 SWAP2 SWAP1 PUSH2 0x2A7D JUMP JUMPDEST PUSH1 0x40 MLOAD DUP1 SWAP2 SUB SWAP1 RETURN JUMPDEST PUSH1 0x60 PUSH1 0x0 DUP1 SLOAD SWAP1 PUSH2 0x100 EXP SWAP1 DIV PUSH20 0xFFFFFFFFFFFFFFFFFFFFFFFFFFFFFFFFFFFFFFFF AND PUSH20 0xFFFFFFFFFFFFFFFFFFFFFFFFFFFFFFFFFFFFFFFF AND CALLER PUSH20 0xFFFFFFFFFFFFFFFFFFFFFFFFFFFFFFFFFFFFFFFF AND EQ DUP1 PUSH2 0x3C5 JUMPI POP PUSH1 0x3 PUSH1 0x0 CALLER PUSH20 0xFFFFFFFFFFFFFFFFFFFFFFFFFFFFFFFFFFFFFFFF AND PUSH20 0xFFFFFFFFFFFFFFFFFFFFFFFFFFFFFFFFFFFFFFFF AND DUP2 MSTORE PUSH1 0x20 ADD SWAP1 DUP2 MSTORE PUSH1 0x20 ADD PUSH1 0x0 KECCAK256 PUSH1 0x2 ADD PUSH1 0x0 SWAP1 SLOAD SWAP1 PUSH2 0x100 EXP SWAP1 DIV PUSH1 0xFF AND JUMPDEST PUSH2 0x404 JUMPI PUSH1 0x40 MLOAD PUSH32 0x8C379A000000000000000000000000000000000000000000000000000000000 DUP2 MSTORE PUSH1 0x4 ADD PUSH2 0x3FB SWAP1 PUSH2 0x2B2F JUMP JUMPDEST PUSH1 0x40 MLOAD DUP1 SWAP2 SUB SWAP1 REVERT JUMPDEST PUSH1 0x4 PUSH1 0x0 DUP4 PUSH20 0xFFFFFFFFFFFFFFFFFFFFFFFFFFFFFFFFFFFFFFFF AND PUSH20 0xFFFFFFFFFFFFFFFFFFFFFFFFFFFFFFFFFFFFFFFF AND DUP2 MSTORE PUSH1 0x20 ADD SWAP1 DUP2 MSTORE PUSH1 0x20 ADD PUSH1 0x0 KECCAK256 PUSH1 0x2 ADD PUSH1 0x1 SWAP1 SLOAD SWAP1 PUSH2 0x100 EXP SWAP1 DIV PUSH1 0xFF AND PUSH2 0x493 JUMPI PUSH1 0x40 MLOAD PUSH32 0x8C379A000000000000000000000000000000000000000000000000000000000 DUP2 MSTORE PUSH1 0x4 ADD PUSH2 0x48A SWAP1 PUSH2 0x2BCF JUMP JUMPDEST PUSH1 0x40 MLOAD DUP1 SWAP2 SUB SWAP1 REVERT JUMPDEST PUSH1 0x0 PUSH1 0x4 PUSH1 0x0 DUP5 PUSH20 0xFFFFFFFFFFFFFFFFFFFFFFFFFFFFFFFFFFFFFFFF AND PUSH20 0xFFFFFFFFFFFFFFFFFFFFFFFFFFFFFFFFFFFFFFFF AND DUP2 MSTORE PUSH1 0x20 ADD SWAP1 DUP2 MSTORE PUSH1 0x20 ADD PUSH1 0x0 KECCAK256 PUSH1 0x2 ADD PUSH1 0x1 PUSH2 0x100 EXP DUP2 SLOAD DUP2 PUSH1 0xFF MUL NOT AND SWAP1 DUP4 ISZERO ISZERO MUL OR SWAP1 SSTORE POP PUSH32 0xB132297E629AEA39DE2A0B95087D354ABBAD2860BC2DEC703085F02EE09E372B DUP3 PUSH1 0x40 MLOAD PUSH2 0x51D SWAP2 SWAP1 PUSH2 0x29F4 JUMP JUMPDEST PUSH1 0x40 MLOAD DUP1 SWAP2 SUB SWAP1 LOG1 PUSH1 0x0 JUMPDEST PUSH1 0x2 DUP1 SLOAD SWAP1 POP DUP2 LT ISZERO PUSH2 0x822 JUMPI DUP3 PUSH20 0xFFFFFFFFFFFFFFFFFFFFFFFFFFFFFFFFFFFFFFFF AND PUSH1 0x2 DUP3 DUP2 SLOAD DUP2 LT PUSH2 0x586 JUMPI PUSH32 0x4E487B7100000000000000000000000000000000000000000000000000000000 PUSH1 0x0 MSTORE PUSH1 0x32 PUSH1 0x4 MSTORE PUSH1 0x24 PUSH1 0x0 REVERT JUMPDEST SWAP1 PUSH1 0x0 MSTORE PUSH1 0x20 PUSH1 0x0 KECCAK256 SWAP1 PUSH1 0x3 MUL ADD PUSH1 0x0 ADD PUSH1 0x0 SWAP1 SLOAD SWAP1 PUSH2 0x100 EXP SWAP1 DIV PUSH20 0xFFFFFFFFFFFFFFFFFFFFFFFFFFFFFFFFFFFFFFFF AND PUSH20 0xFFFFFFFFFFFFFFFFFFFFFFFFFFFFFFFFFFFFFFFF AND EQ ISZERO PUSH2 0x80F JUMPI PUSH1 0x2 PUSH1 0x1 PUSH1 0x2 DUP1 SLOAD SWAP1 POP PUSH2 0x5E8 SWAP2 SWAP1 PUSH2 0x2CEF JUMP JUMPDEST DUP2 SLOAD DUP2 LT PUSH2 0x61F JUMPI PUSH32 0x4E487B7100000000000000000000000000000000000000000000000000000000 PUSH1 0x0 MSTORE PUSH1 0x32 PUSH1 0x4 MSTORE PUSH1 0x24 PUSH1 0x0 REVERT JUMPDEST SWAP1 PUSH1 0x0 MSTORE PUSH1 0x20 PUSH1 0x0 KECCAK256 SWAP1 PUSH1 0x3 MUL ADD PUSH1 0x2 DUP3 DUP2 SLOAD DUP2 LT PUSH2 0x667 JUMPI PUSH32 0x4E487B7100000000000000000000000000000000000000000000000000000000 PUSH1 0x0 MSTORE PUSH1 0x32 PUSH1 0x4 MSTORE PUSH1 0x24 PUSH1 0x0 REVERT JUMPDEST SWAP1 PUSH1 0x0 MSTORE PUSH1 0x20 PUSH1 0x0 KECCAK256 SWAP1 PUSH1 0x3 MUL ADD PUSH1 0x0 DUP3 ADD PUSH1 0x0 SWAP1 SLOAD SWAP1 PUSH2 0x100 EXP SWAP1 DIV PUSH20 0xFFFFFFFFFFFFFFFFFFFFFFFFFFFFFFFFFFFFFFFF AND DUP2 PUSH1 0x0 ADD PUSH1 0x0 PUSH2 0x100 EXP DUP2 SLOAD DUP2 PUSH20 0xFFFFFFFFFFFFFFFFFFFFFFFFFFFFFFFFFFFFFFFF MUL NOT AND SWAP1 DUP4 PUSH20 0xFFFFFFFFFFFFFFFFFFFFFFFFFFFFFFFFFFFFFFFF AND MUL OR SWAP1 SSTORE POP PUSH1 0x1 DUP3 ADD DUP2 PUSH1 0x1 ADD SWAP1 DUP1 SLOAD PUSH2 0x6F0 SWAP1 PUSH2 0x2DBA JUMP JUMPDEST PUSH2 0x6FB SWAP3 SWAP2 SWAP1 PUSH2 0x21D1 JUMP JUMPDEST POP PUSH1 0x2 DUP3 ADD PUSH1 0x0 SWAP1 SLOAD SWAP1 PUSH2 0x100 EXP SWAP1 DIV PUSH1 0xFF AND DUP2 PUSH1 0x2 ADD PUSH1 0x0 PUSH2 0x100 EXP DUP2 SLOAD DUP2 PUSH1 0xFF MUL NOT AND SWAP1 DUP4 PUSH1 0xFF AND MUL OR SWAP1 SSTORE POP PUSH1 0x2 DUP3 ADD PUSH1 0x1 SWAP1 SLOAD SWAP1 PUSH2 0x100 EXP SWAP1 DIV PUSH1 0xFF AND DUP2 PUSH1 0x2 ADD PUSH1 0x1 PUSH2 0x100 EXP DUP2 SLOAD DUP2 PUSH1 0xFF MUL NOT AND SWAP1 DUP4 ISZERO ISZERO MUL OR SWAP1 SSTORE POP SWAP1 POP POP PUSH1 0x2 DUP1 SLOAD DUP1 PUSH2 0x792 JUMPI PUSH32 0x4E487B7100000000000000000000000000000000000000000000000000000000 PUSH1 0x0 MSTORE PUSH1 0x31 PUSH1 0x4 MSTORE PUSH1 0x24 PUSH1 0x0 REVERT JUMPDEST PUSH1 0x1 SWAP1 SUB DUP2 DUP2 SWAP1 PUSH1 0x0 MSTORE PUSH1 0x20 PUSH1 0x0 KECCAK256 SWAP1 PUSH1 0x3 MUL ADD PUSH1 0x0 DUP1 DUP3 ADD PUSH1 0x0 PUSH2 0x100 EXP DUP2 SLOAD SWAP1 PUSH20 0xFFFFFFFFFFFFFFFFFFFFFFFFFFFFFFFFFFFFFFFF MUL NOT AND SWAP1 SSTORE PUSH1 0x1 DUP3 ADD PUSH1 0x0 PUSH2 0x7DE SWAP2 SWAP1 PUSH2 0x225E JUMP JUMPDEST PUSH1 0x2 DUP3 ADD PUSH1 0x0 PUSH2 0x100 EXP DUP2 SLOAD SWAP1 PUSH1 0xFF MUL NOT AND SWAP1 SSTORE PUSH1 0x2 DUP3 ADD PUSH1 0x1 PUSH2 0x100 EXP DUP2 SLOAD SWAP1 PUSH1 0xFF MUL NOT AND SWAP1 SSTORE POP POP SWAP1 SSTORE PUSH2 0x822 JUMP JUMPDEST DUP1 DUP1 PUSH2 0x81A SWAP1 PUSH2 0x2DEC JUMP JUMPDEST SWAP2 POP POP PUSH2 0x528 JUMP JUMPDEST POP PUSH1 0x40 MLOAD DUP1 PUSH1 0x40 ADD PUSH1 0x40 MSTORE DUP1 PUSH1 0x1B DUP2 MSTORE PUSH1 0x20 ADD PUSH32 0x5475726973746120656C696D696E61646F20636F6E20657869746F0000000000 DUP2 MSTORE POP SWAP1 POP SWAP2 SWAP1 POP JUMP JUMPDEST PUSH1 0x60 PUSH1 0x0 DUP1 SLOAD SWAP1 PUSH2 0x100 EXP SWAP1 DIV PUSH20 0xFFFFFFFFFFFFFFFFFFFFFFFFFFFFFFFFFFFFFFFF AND PUSH20 0xFFFFFFFFFFFFFFFFFFFFFFFFFFFFFFFFFFFFFFFF AND CALLER PUSH20 0xFFFFFFFFFFFFFFFFFFFFFFFFFFFFFFFFFFFFFFFF AND EQ PUSH2 0x8F0 JUMPI PUSH1 0x40 MLOAD PUSH32 0x8C379A000000000000000000000000000000000000000000000000000000000 DUP2 MSTORE PUSH1 0x4 ADD PUSH2 0x8E7 SWAP1 PUSH2 0x2BAF JUMP JUMPDEST PUSH1 0x40 MLOAD DUP1 SWAP2 SUB SWAP1 REVERT JUMPDEST PUSH1 0x3 PUSH1 0x0 DUP4 PUSH20 0xFFFFFFFFFFFFFFFFFFFFFFFFFFFFFFFFFFFFFFFF AND PUSH20 0xFFFFFFFFFFFFFFFFFFFFFFFFFFFFFFFFFFFFFFFF AND DUP2 MSTORE PUSH1 0x20 ADD SWAP1 DUP2 MSTORE PUSH1 0x20 ADD PUSH1 0x0 KECCAK256 PUSH1 0x2 ADD PUSH1 0x0 SWAP1 SLOAD SWAP1 PUSH2 0x100 EXP SWAP1 DIV PUSH1 0xFF AND PUSH2 0x97F JUMPI PUSH1 0x40 MLOAD PUSH32 0x8C379A000000000000000000000000000000000000000000000000000000000 DUP2 MSTORE PUSH1 0x4 ADD PUSH2 0x976 SWAP1 PUSH2 0x2B8F JUMP JUMPDEST PUSH1 0x40 MLOAD DUP1 SWAP2 SUB SWAP1 REVERT JUMPDEST PUSH1 0x0 PUSH1 0x3 PUSH1 0x0 DUP5 PUSH20 0xFFFFFFFFFFFFFFFFFFFFFFFFFFFFFFFFFFFFFFFF AND PUSH20 0xFFFFFFFFFFFFFFFFFFFFFFFFFFFFFFFFFFFFFFFF AND DUP2 MSTORE PUSH1 0x20 ADD SWAP1 DUP2 MSTORE PUSH1 0x20 ADD PUSH1 0x0 KECCAK256 PUSH1 0x2 ADD PUSH1 0x0 PUSH2 0x100 EXP DUP2 SLOAD DUP2 PUSH1 0xFF MUL NOT AND SWAP1 DUP4 ISZERO ISZERO MUL OR SWAP1 SSTORE POP PUSH32 0x93D0E91B2385480F16C2E324398638F59DF15184797653484A2E7A4D851540F1 DUP3 PUSH1 0x40 MLOAD PUSH2 0xA09 SWAP2 SWAP1 PUSH2 0x29F4 JUMP JUMPDEST PUSH1 0x40 MLOAD DUP1 SWAP2 SUB SWAP1 LOG1 PUSH1 0x0 JUMPDEST PUSH1 0x1 DUP1 SLOAD SWAP1 POP DUP2 LT ISZERO PUSH2 0xCCA JUMPI DUP3 PUSH20 0xFFFFFFFFFFFFFFFFFFFFFFFFFFFFFFFFFFFFFFFF AND PUSH1 0x1 DUP3 DUP2 SLOAD DUP2 LT PUSH2 0xA72 JUMPI PUSH32 0x4E487B7100000000000000000000000000000000000000000000000000000000 PUSH1 0x0 MSTORE PUSH1 0x32 PUSH1 0x4 MSTORE PUSH1 0x24 PUSH1 0x0 REVERT JUMPDEST SWAP1 PUSH1 0x0 MSTORE PUSH1 0x20 PUSH1 0x0 KECCAK256 SWAP1 PUSH1 0x3 MUL ADD PUSH1 0x0 ADD PUSH1 0x0 SWAP1 SLOAD SWAP1 PUSH2 0x100 EXP SWAP1 DIV PUSH20 0xFFFFFFFFFFFFFFFFFFFFFFFFFFFFFFFFFFFFFFFF AND PUSH20 0xFFFFFFFFFFFFFFFFFFFFFFFFFFFFFFFFFFFFFFFF AND EQ ISZERO PUSH2 0xCB7 JUMPI PUSH1 0x1 DUP1 DUP1 DUP1 SLOAD SWAP1 POP PUSH2 0xAD2 SWAP2 SWAP1 PUSH2 0x2CEF JUMP JUMPDEST DUP2 SLOAD DUP2 LT PUSH2 0xB09 JUMPI PUSH32 0x4E487B7100000000000000000000000000000000000000000000000000000000 PUSH1 0x0 MSTORE PUSH1 0x32 PUSH1 0x4 MSTORE PUSH1 0x24 PUSH1 0x0 REVERT JUMPDEST SWAP1 PUSH1 0x0 MSTORE PUSH1 0x20 PUSH1 0x0 KECCAK256 SWAP1 PUSH1 0x3 MUL ADD PUSH1 0x1 DUP3 DUP2 SLOAD DUP2 LT PUSH2 0xB51 JUMPI PUSH32 0x4E487B7100000000000000000000000000000000000000000000000000000000 PUSH1 0x0 MSTORE PUSH1 0x32 PUSH1 0x4 MSTORE PUSH1 0x24 PUSH1 0x0 REVERT JUMPDEST SWAP1 PUSH1 0x0 MSTORE PUSH1 0x20 PUSH1 0x0 KECCAK256 SWAP1 PUSH1 0x3 MUL ADD PUSH1 0x0 DUP3 ADD PUSH1 0x0 SWAP1 SLOAD SWAP1 PUSH2 0x100 EXP SWAP1 DIV PUSH20 0xFFFFFFFFFFFFFFFFFFFFFFFFFFFFFFFFFFFFFFFF AND DUP2 PUSH1 0x0 ADD PUSH1 0x0 PUSH2 0x100 EXP DUP2 SLOAD DUP2 PUSH20 0xFFFFFFFFFFFFFFFFFFFFFFFFFFFFFFFFFFFFFFFF MUL NOT AND SWAP1 DUP4 PUSH20 0xFFFFFFFFFFFFFFFFFFFFFFFFFFFFFFFFFFFFFFFF AND MUL OR SWAP1 SSTORE POP PUSH1 0x1 DUP3 ADD DUP2 PUSH1 0x1 ADD SWAP1 DUP1 SLOAD PUSH2 0xBDA SWAP1 PUSH2 0x2DBA JUMP JUMPDEST PUSH2 0xBE5 SWAP3 SWAP2 SWAP1 PUSH2 0x21D1 JUMP JUMPDEST POP PUSH1 0x2 DUP3 ADD PUSH1 0x0 SWAP1 SLOAD SWAP1 PUSH2 0x100 EXP SWAP1 DIV PUSH1 0xFF AND DUP2 PUSH1 0x2 ADD PUSH1 0x0 PUSH2 0x100 EXP DUP2 SLOAD DUP2 PUSH1 0xFF MUL NOT AND SWAP1 DUP4 ISZERO ISZERO MUL OR SWAP1 SSTORE POP SWAP1 POP POP PUSH1 0x1 DUP1 SLOAD DUP1 PUSH2 0xC4E JUMPI PUSH32 0x4E487B7100000000000000000000000000000000000000000000000000000000 PUSH1 0x0 MSTORE PUSH1 0x31 PUSH1 0x4 MSTORE PUSH1 0x24 PUSH1 0x0 REVERT JUMPDEST PUSH1 0x1 SWAP1 SUB DUP2 DUP2 SWAP1 PUSH1 0x0 MSTORE PUSH1 0x20 PUSH1 0x0 KECCAK256 SWAP1 PUSH1 0x3 MUL ADD PUSH1 0x0 DUP1 DUP3 ADD PUSH1 0x0 PUSH2 0x100 EXP DUP2 SLOAD SWAP1 PUSH20 0xFFFFFFFFFFFFFFFFFFFFFFFFFFFFFFFFFFFFFFFF MUL NOT AND SWAP1 SSTORE PUSH1 0x1 DUP3 ADD PUSH1 0x0 PUSH2 0xC9A SWAP2 SWAP1 PUSH2 0x225E JUMP JUMPDEST PUSH1 0x2 DUP3 ADD PUSH1 0x0 PUSH2 0x100 EXP DUP2 SLOAD SWAP1 PUSH1 0xFF MUL NOT AND SWAP1 SSTORE POP POP SWAP1 SSTORE PUSH2 0xCCA JUMP JUMPDEST DUP1 DUP1 PUSH2 0xCC2 SWAP1 PUSH2 0x2DEC JUMP JUMPDEST SWAP2 POP POP PUSH2 0xA14 JUMP JUMPDEST POP PUSH1 0x40 MLOAD DUP1 PUSH1 0x60 ADD PUSH1 0x40 MSTORE DUP1 PUSH1 0x24 DUP2 MSTORE PUSH1 0x20 ADD PUSH2 0x2F3E PUSH1 0x24 SWAP2 CODECOPY SWAP1 POP SWAP2 SWAP1 POP JUMP JUMPDEST PUSH1 0x60 PUSH1 0x0 DUP1 SLOAD SWAP1 PUSH2 0x100 EXP SWAP1 DIV PUSH20 0xFFFFFFFFFFFFFFFFFFFFFFFFFFFFFFFFFFFFFFFF AND PUSH20 0xFFFFFFFFFFFFFFFFFFFFFFFFFFFFFFFFFFFFFFFF AND CALLER PUSH20 0xFFFFFFFFFFFFFFFFFFFFFFFFFFFFFFFFFFFFFFFF AND EQ PUSH2 0xD7B JUMPI PUSH1 0x40 MLOAD PUSH32 0x8C379A000000000000000000000000000000000000000000000000000000000 DUP2 MSTORE PUSH1 0x4 ADD PUSH2 0xD72 SWAP1 PUSH2 0x2BAF JUMP JUMPDEST PUSH1 0x40 MLOAD DUP1 SWAP2 SUB SWAP1 REVERT JUMPDEST PUSH1 0x3 PUSH1 0x0 DUP5 PUSH20 0xFFFFFFFFFFFFFFFFFFFFFFFFFFFFFFFFFFFFFFFF AND PUSH20 0xFFFFFFFFFFFFFFFFFFFFFFFFFFFFFFFFFFFFFFFF AND DUP2 MSTORE PUSH1 0x20 ADD SWAP1 DUP2 MSTORE PUSH1 0x20 ADD PUSH1 0x0 KECCAK256 PUSH1 0x2 ADD PUSH1 0x0 SWAP1 SLOAD SWAP1 PUSH2 0x100 EXP SWAP1 DIV PUSH1 0xFF AND ISZERO PUSH2 0xE0B JUMPI PUSH1 0x40 MLOAD PUSH32 0x8C379A000000000000000000000000000000000000000000000000000000000 DUP2 MSTORE PUSH1 0x4 ADD PUSH2 0xE02 SWAP1 PUSH2 0x2B4F JUMP JUMPDEST PUSH1 0x40 MLOAD DUP1 SWAP2 SUB SWAP1 REVERT JUMPDEST PUSH1 0x0 PUSH1 0x40 MLOAD DUP1 PUSH1 0x60 ADD PUSH1 0x40 MSTORE DUP1 DUP6 PUSH20 0xFFFFFFFFFFFFFFFFFFFFFFFFFFFFFFFFFFFFFFFF AND DUP2 MSTORE PUSH1 0x20 ADD DUP5 DUP2 MSTORE PUSH1 0x20 ADD PUSH1 0x1 ISZERO ISZERO DUP2 MSTORE POP SWAP1 POP DUP1 PUSH1 0x3 PUSH1 0x0 DUP7 PUSH20 0xFFFFFFFFFFFFFFFFFFFFFFFFFFFFFFFFFFFFFFFF AND PUSH20 0xFFFFFFFFFFFFFFFFFFFFFFFFFFFFFFFFFFFFFFFF AND DUP2 MSTORE PUSH1 0x20 ADD SWAP1 DUP2 MSTORE PUSH1 0x20 ADD PUSH1 0x0 KECCAK256 PUSH1 0x0 DUP3 ADD MLOAD DUP2 PUSH1 0x0 ADD PUSH1 0x0 PUSH2 0x100 EXP DUP2 SLOAD DUP2 PUSH20 0xFFFFFFFFFFFFFFFFFFFFFFFFFFFFFFFFFFFFFFFF MUL NOT AND SWAP1 DUP4 PUSH20 0xFFFFFFFFFFFFFFFFFFFFFFFFFFFFFFFFFFFFFFFF AND MUL OR SWAP1 SSTORE POP PUSH1 0x20 DUP3 ADD MLOAD DUP2 PUSH1 0x1 ADD SWAP1 DUP1 MLOAD SWAP1 PUSH1 0x20 ADD SWAP1 PUSH2 0xEE6 SWAP3 SWAP2 SWAP1 PUSH2 0x229E JUMP JUMPDEST POP PUSH1 0x40 DUP3 ADD MLOAD DUP2 PUSH1 0x2 ADD PUSH1 0x0 PUSH2 0x100 EXP DUP2 SLOAD DUP2 PUSH1 0xFF MUL NOT AND SWAP1 DUP4 ISZERO ISZERO MUL OR SWAP1 SSTORE POP SWAP1 POP POP PUSH1 0x1 DUP2 SWAP1 DUP1 PUSH1 0x1 DUP2 SLOAD ADD DUP1 DUP3 SSTORE DUP1 SWAP2 POP POP PUSH1 0x1 SWAP1 SUB SWAP1 PUSH1 0x0 MSTORE PUSH1 0x20 PUSH1 0x0 KECCAK256 SWAP1 PUSH1 0x3 MUL ADD PUSH1 0x0 SWAP1 SWAP2 SWAP1 SWAP2 SWAP1 SWAP2 POP PUSH1 0x0 DUP3 ADD MLOAD DUP2 PUSH1 0x0 ADD PUSH1 0x0 PUSH2 0x100 EXP DUP2 SLOAD DUP2 PUSH20 0xFFFFFFFFFFFFFFFFFFFFFFFFFFFFFFFFFFFFFFFF MUL NOT AND SWAP1 DUP4 PUSH20 0xFFFFFFFFFFFFFFFFFFFFFFFFFFFFFFFFFFFFFFFF AND MUL OR SWAP1 SSTORE POP PUSH1 0x20 DUP3 ADD MLOAD DUP2 PUSH1 0x1 ADD SWAP1 DUP1 MLOAD SWAP1 PUSH1 0x20 ADD SWAP1 PUSH2 0xF99 SWAP3 SWAP2 SWAP1 PUSH2 0x229E JUMP JUMPDEST POP PUSH1 0x40 DUP3 ADD MLOAD DUP2 PUSH1 0x2 ADD PUSH1 0x0 PUSH2 0x100 EXP DUP2 SLOAD DUP2 PUSH1 0xFF MUL NOT AND SWAP1 DUP4 ISZERO ISZERO MUL OR SWAP1 SSTORE POP POP POP PUSH32 0x51D926F521AA5BCE4104E82A66580AA7251D9A3598BCCB8DDF76FEBBFF83576A DUP5 DUP5 PUSH1 0x40 MLOAD PUSH2 0xFED SWAP3 SWAP2 SWAP1 PUSH2 0x2A0F JUMP JUMPDEST PUSH1 0x40 MLOAD DUP1 SWAP2 SUB SWAP1 LOG1 PUSH1 0x40 MLOAD DUP1 PUSH1 0x60 ADD PUSH1 0x40 MSTORE DUP1 PUSH1 0x25 DUP2 MSTORE PUSH1 0x20 ADD PUSH2 0x2F19 PUSH1 0x25 SWAP2 CODECOPY SWAP2 POP POP SWAP3 SWAP2 POP POP JUMP JUMPDEST PUSH1 0x4 PUSH1 0x20 MSTORE DUP1 PUSH1 0x0 MSTORE PUSH1 0x40 PUSH1 0x0 KECCAK256 PUSH1 0x0 SWAP2 POP SWAP1 POP DUP1 PUSH1 0x0 ADD PUSH1 0x0 SWAP1 SLOAD SWAP1 PUSH2 0x100 EXP SWAP1 DIV PUSH20 0xFFFFFFFFFFFFFFFFFFFFFFFFFFFFFFFFFFFFFFFF AND SWAP1 DUP1 PUSH1 0x1 ADD DUP1 SLOAD PUSH2 0x1060 SWAP1 PUSH2 0x2DBA JUMP JUMPDEST DUP1 PUSH1 0x1F ADD PUSH1 0x20 DUP1 SWAP2 DIV MUL PUSH1 0x20 ADD PUSH1 0x40 MLOAD SWAP1 DUP2 ADD PUSH1 0x40 MSTORE DUP1 SWAP3 SWAP2 SWAP1 DUP2 DUP2 MSTORE PUSH1 0x20 ADD DUP3 DUP1 SLOAD PUSH2 0x108C SWAP1 PUSH2 0x2DBA JUMP JUMPDEST DUP1 ISZERO PUSH2 0x10D9 JUMPI DUP1 PUSH1 0x1F LT PUSH2 0x10AE JUMPI PUSH2 0x100 DUP1 DUP4 SLOAD DIV MUL DUP4 MSTORE SWAP2 PUSH1 0x20 ADD SWAP2 PUSH2 0x10D9 JUMP JUMPDEST DUP3 ADD SWAP2 SWAP1 PUSH1 0x0 MSTORE PUSH1 0x20 PUSH1 0x0 KECCAK256 SWAP1 JUMPDEST DUP2 SLOAD DUP2 MSTORE SWAP1 PUSH1 0x1 ADD SWAP1 PUSH1 0x20 ADD DUP1 DUP4 GT PUSH2 0x10BC JUMPI DUP3 SWAP1 SUB PUSH1 0x1F AND DUP3 ADD SWAP2 JUMPDEST POP POP POP POP POP SWAP1 DUP1 PUSH1 0x2 ADD PUSH1 0x0 SWAP1 SLOAD SWAP1 PUSH2 0x100 EXP SWAP1 DIV PUSH1 0xFF AND SWAP1 DUP1 PUSH1 0x2 ADD PUSH1 0x1 SWAP1 SLOAD SWAP1 PUSH2 0x100 EXP SWAP1 DIV PUSH1 0xFF AND SWAP1 POP DUP5 JUMP JUMPDEST PUSH1 0x60 PUSH1 0x0 DUP1 SLOAD SWAP1 PUSH2 0x100 EXP SWAP1 DIV PUSH20 0xFFFFFFFFFFFFFFFFFFFFFFFFFFFFFFFFFFFFFFFF AND PUSH20 0xFFFFFFFFFFFFFFFFFFFFFFFFFFFFFFFFFFFFFFFF AND CALLER PUSH20 0xFFFFFFFFFFFFFFFFFFFFFFFFFFFFFFFFFFFFFFFF AND EQ DUP1 PUSH2 0x11B1 JUMPI POP PUSH1 0x3 PUSH1 0x0 CALLER PUSH20 0xFFFFFFFFFFFFFFFFFFFFFFFFFFFFFFFFFFFFFFFF AND PUSH20 0xFFFFFFFFFFFFFFFFFFFFFFFFFFFFFFFFFFFFFFFF AND DUP2 MSTORE PUSH1 0x20 ADD SWAP1 DUP2 MSTORE PUSH1 0x20 ADD PUSH1 0x0 KECCAK256 PUSH1 0x2 ADD PUSH1 0x0 SWAP1 SLOAD SWAP1 PUSH2 0x100 EXP SWAP1 DIV PUSH1 0xFF AND JUMPDEST PUSH2 0x11F0 JUMPI PUSH1 0x40 MLOAD PUSH32 0x8C379A000000000000000000000000000000000000000000000000000000000 DUP2 MSTORE PUSH1 0x4 ADD PUSH2 0x11E7 SWAP1 PUSH2 0x2B2F JUMP JUMPDEST PUSH1 0x40 MLOAD DUP1 SWAP2 SUB SWAP1 REVERT JUMPDEST PUSH1 0x2 DUP1 SLOAD SWAP1 POP PUSH8 0xFFFFFFFFFFFFFFFF DUP2 GT ISZERO PUSH2 0x1235 JUMPI PUSH32 0x4E487B7100000000000000000000000000000000000000000000000000000000 PUSH1 0x0 MSTORE PUSH1 0x41 PUSH1 0x4 MSTORE PUSH1 0x24 PUSH1 0x0 REVERT JUMPDEST PUSH1 0x40 MLOAD SWAP1 DUP1 DUP3 MSTORE DUP1 PUSH1 0x20 MUL PUSH1 0x20 ADD DUP3 ADD PUSH1 0x40 MSTORE DUP1 ISZERO PUSH2 0x126E JUMPI DUP2 PUSH1 0x20 ADD JUMPDEST PUSH2 0x125B PUSH2 0x2324 JUMP JUMPDEST DUP2 MSTORE PUSH1 0x20 ADD SWAP1 PUSH1 0x1 SWAP1 SUB SWAP1 DUP2 PUSH2 0x1253 JUMPI SWAP1 POP JUMPDEST POP SWAP1 POP PUSH1 0x0 JUMPDEST PUSH1 0x2 DUP1 SLOAD SWAP1 POP DUP2 LT ISZERO PUSH2 0x14AD JUMPI PUSH1 0x4 PUSH1 0x0 PUSH1 0x2 DUP4 DUP2 SLOAD DUP2 LT PUSH2 0x12BF JUMPI PUSH32 0x4E487B7100000000000000000000000000000000000000000000000000000000 PUSH1 0x0 MSTORE PUSH1 0x32 PUSH1 0x4 MSTORE PUSH1 0x24 PUSH1 0x0 REVERT JUMPDEST SWAP1 PUSH1 0x0 MSTORE PUSH1 0x20 PUSH1 0x0 KECCAK256 SWAP1 PUSH1 0x3 MUL ADD PUSH1 0x0 ADD PUSH1 0x0 SWAP1 SLOAD SWAP1 PUSH2 0x100 EXP SWAP1 DIV PUSH20 0xFFFFFFFFFFFFFFFFFFFFFFFFFFFFFFFFFFFFFFFF AND PUSH20 0xFFFFFFFFFFFFFFFFFFFFFFFFFFFFFFFFFFFFFFFF AND PUSH20 0xFFFFFFFFFFFFFFFFFFFFFFFFFFFFFFFFFFFFFFFF AND DUP2 MSTORE PUSH1 0x20 ADD SWAP1 DUP2 MSTORE PUSH1 0x20 ADD PUSH1 0x0 KECCAK256 PUSH1 0x40 MLOAD DUP1 PUSH1 0x80 ADD PUSH1 0x40 MSTORE SWAP1 DUP2 PUSH1 0x0 DUP3 ADD PUSH1 0x0 SWAP1 SLOAD SWAP1 PUSH2 0x100 EXP SWAP1 DIV PUSH20 0xFFFFFFFFFFFFFFFFFFFFFFFFFFFFFFFFFFFFFFFF AND PUSH20 0xFFFFFFFFFFFFFFFFFFFFFFFFFFFFFFFFFFFFFFFF AND PUSH20 0xFFFFFFFFFFFFFFFFFFFFFFFFFFFFFFFFFFFFFFFF AND DUP2 MSTORE PUSH1 0x20 ADD PUSH1 0x1 DUP3 ADD DUP1 SLOAD PUSH2 0x139C SWAP1 PUSH2 0x2DBA JUMP JUMPDEST DUP1 PUSH1 0x1F ADD PUSH1 0x20 DUP1 SWAP2 DIV MUL PUSH1 0x20 ADD PUSH1 0x40 MLOAD SWAP1 DUP2 ADD PUSH1 0x40 MSTORE DUP1 SWAP3 SWAP2 SWAP1 DUP2 DUP2 MSTORE PUSH1 0x20 ADD DUP3 DUP1 SLOAD PUSH2 0x13C8 SWAP1 PUSH2 0x2DBA JUMP JUMPDEST DUP1 ISZERO PUSH2 0x1415 JUMPI DUP1 PUSH1 0x1F LT PUSH2 0x13EA JUMPI PUSH2 0x100 DUP1 DUP4 SLOAD DIV MUL DUP4 MSTORE SWAP2 PUSH1 0x20 ADD SWAP2 PUSH2 0x1415 JUMP JUMPDEST DUP3 ADD SWAP2 SWAP1 PUSH1 0x0 MSTORE PUSH1 0x20 PUSH1 0x0 KECCAK256 SWAP1 JUMPDEST DUP2 SLOAD DUP2 MSTORE SWAP1 PUSH1 0x1 ADD SWAP1 PUSH1 0x20 ADD DUP1 DUP4 GT PUSH2 0x13F8 JUMPI DUP3 SWAP1 SUB PUSH1 0x1F AND DUP3 ADD SWAP2 JUMPDEST POP POP POP POP POP DUP2 MSTORE PUSH1 0x20 ADD PUSH1 0x2 DUP3 ADD PUSH1 0x0 SWAP1 SLOAD SWAP1 PUSH2 0x100 EXP SWAP1 DIV PUSH1 0xFF AND PUSH1 0xFF AND PUSH1 0xFF AND DUP2 MSTORE PUSH1 0x20 ADD PUSH1 0x2 DUP3 ADD PUSH1 0x1 SWAP1 SLOAD SWAP1 PUSH2 0x100 EXP SWAP1 DIV PUSH1 0xFF AND ISZERO ISZERO ISZERO ISZERO DUP2 MSTORE POP POP DUP3 DUP3 DUP2 MLOAD DUP2 LT PUSH2 0x148F JUMPI PUSH32 0x4E487B7100000000000000000000000000000000000000000000000000000000 PUSH1 0x0 MSTORE PUSH1 0x32 PUSH1 0x4 MSTORE PUSH1 0x24 PUSH1 0x0 REVERT JUMPDEST PUSH1 0x20 MUL PUSH1 0x20 ADD ADD DUP2 SWAP1 MSTORE POP DUP1 DUP1 PUSH2 0x14A5 SWAP1 PUSH2 0x2DEC JUMP JUMPDEST SWAP2 POP POP PUSH2 0x1274 JUMP JUMPDEST POP SWAP1 JUMP JUMPDEST PUSH1 0x60 PUSH1 0x0 DUP1 SLOAD SWAP1 PUSH2 0x100 EXP SWAP1 DIV PUSH20 0xFFFFFFFFFFFFFFFFFFFFFFFFFFFFFFFFFFFFFFFF AND PUSH20 0xFFFFFFFFFFFFFFFFFFFFFFFFFFFFFFFFFFFFFFFF AND CALLER PUSH20 0xFFFFFFFFFFFFFFFFFFFFFFFFFFFFFFFFFFFFFFFF AND EQ DUP1 PUSH2 0x1559 JUMPI POP PUSH1 0x3 PUSH1 0x0 CALLER PUSH20 0xFFFFFFFFFFFFFFFFFFFFFFFFFFFFFFFFFFFFFFFF AND PUSH20 0xFFFFFFFFFFFFFFFFFFFFFFFFFFFFFFFFFFFFFFFF AND DUP2 MSTORE PUSH1 0x20 ADD SWAP1 DUP2 MSTORE PUSH1 0x20 ADD PUSH1 0x0 KECCAK256 PUSH1 0x2 ADD PUSH1 0x0 SWAP1 SLOAD SWAP1 PUSH2 0x100 EXP SWAP1 DIV PUSH1 0xFF AND JUMPDEST PUSH2 0x1598 JUMPI PUSH1 0x40 MLOAD PUSH32 0x8C379A000000000000000000000000000000000000000000000000000000000 DUP2 MSTORE PUSH1 0x4 ADD PUSH2 0x158F SWAP1 PUSH2 0x2B2F JUMP JUMPDEST PUSH1 0x40 MLOAD DUP1 SWAP2 SUB SWAP1 REVERT JUMPDEST PUSH1 0x4 PUSH1 0x0 DUP6 PUSH20 0xFFFFFFFFFFFFFFFFFFFFFFFFFFFFFFFFFFFFFFFF AND PUSH20 0xFFFFFFFFFFFFFFFFFFFFFFFFFFFFFFFFFFFFFFFF AND DUP2 MSTORE PUSH1 0x20 ADD SWAP1 DUP2 MSTORE PUSH1 0x20 ADD PUSH1 0x0 KECCAK256 PUSH1 0x2 ADD PUSH1 0x1 SWAP1 SLOAD SWAP1 PUSH2 0x100 EXP SWAP1 DIV PUSH1 0xFF AND ISZERO PUSH2 0x1628 JUMPI PUSH1 0x40 MLOAD PUSH32 0x8C379A000000000000000000000000000000000000000000000000000000000 DUP2 MSTORE PUSH1 0x4 ADD PUSH2 0x161F SWAP1 PUSH2 0x2B6F JUMP JUMPDEST PUSH1 0x40 MLOAD DUP1 SWAP2 SUB SWAP1 REVERT JUMPDEST PUSH1 0x0 PUSH1 0x40 MLOAD DUP1 PUSH1 0x80 ADD PUSH1 0x40 MSTORE DUP1 DUP7 PUSH20 0xFFFFFFFFFFFFFFFFFFFFFFFFFFFFFFFFFFFFFFFF AND DUP2 MSTORE PUSH1 0x20 ADD DUP6 DUP2 MSTORE PUSH1 0x20 ADD DUP5 PUSH1 0xFF AND DUP2 MSTORE PUSH1 0x20 ADD PUSH1 0x1 ISZERO ISZERO DUP2 MSTORE POP SWAP1 POP DUP1 PUSH1 0x4 PUSH1 0x0 DUP8 PUSH20 0xFFFFFFFFFFFFFFFFFFFFFFFFFFFFFFFFFFFFFFFF AND PUSH20 0xFFFFFFFFFFFFFFFFFFFFFFFFFFFFFFFFFFFFFFFF AND DUP2 MSTORE PUSH1 0x20 ADD SWAP1 DUP2 MSTORE PUSH1 0x20 ADD PUSH1 0x0 KECCAK256 PUSH1 0x0 DUP3 ADD MLOAD DUP2 PUSH1 0x0 ADD PUSH1 0x0 PUSH2 0x100 EXP DUP2 SLOAD DUP2 PUSH20 0xFFFFFFFFFFFFFFFFFFFFFFFFFFFFFFFFFFFFFFFF MUL NOT AND SWAP1 DUP4 PUSH20 0xFFFFFFFFFFFFFFFFFFFFFFFFFFFFFFFFFFFFFFFF AND MUL OR SWAP1 SSTORE POP PUSH1 0x20 DUP3 ADD MLOAD DUP2 PUSH1 0x1 ADD SWAP1 DUP1 MLOAD SWAP1 PUSH1 0x20 ADD SWAP1 PUSH2 0x170C SWAP3 SWAP2 SWAP1 PUSH2 0x229E JUMP JUMPDEST POP PUSH1 0x40 DUP3 ADD MLOAD DUP2 PUSH1 0x2 ADD PUSH1 0x0 PUSH2 0x100 EXP DUP2 SLOAD DUP2 PUSH1 0xFF MUL NOT AND SWAP1 DUP4 PUSH1 0xFF AND MUL OR SWAP1 SSTORE POP PUSH1 0x60 DUP3 ADD MLOAD DUP2 PUSH1 0x2 ADD PUSH1 0x1 PUSH2 0x100 EXP DUP2 SLOAD DUP2 PUSH1 0xFF MUL NOT AND SWAP1 DUP4 ISZERO ISZERO MUL OR SWAP1 SSTORE POP SWAP1 POP POP PUSH1 0x2 DUP2 SWAP1 DUP1 PUSH1 0x1 DUP2 SLOAD ADD DUP1 DUP3 SSTORE DUP1 SWAP2 POP POP PUSH1 0x1 SWAP1 SUB SWAP1 PUSH1 0x0 MSTORE PUSH1 0x20 PUSH1 0x0 KECCAK256 SWAP1 PUSH1 0x3 MUL ADD PUSH1 0x0 SWAP1 SWAP2 SWAP1 SWAP2 SWAP1 SWAP2 POP PUSH1 0x0 DUP3 ADD MLOAD DUP2 PUSH1 0x0 ADD PUSH1 0x0 PUSH2 0x100 EXP DUP2 SLOAD DUP2 PUSH20 0xFFFFFFFFFFFFFFFFFFFFFFFFFFFFFFFFFFFFFFFF MUL NOT AND SWAP1 DUP4 PUSH20 0xFFFFFFFFFFFFFFFFFFFFFFFFFFFFFFFFFFFFFFFF AND MUL OR SWAP1 SSTORE POP PUSH1 0x20 DUP3 ADD MLOAD DUP2 PUSH1 0x1 ADD SWAP1 DUP1 MLOAD SWAP1 PUSH1 0x20 ADD SWAP1 PUSH2 0x17E0 SWAP3 SWAP2 SWAP1 PUSH2 0x229E JUMP JUMPDEST POP PUSH1 0x40 DUP3 ADD MLOAD DUP2 PUSH1 0x2 ADD PUSH1 0x0 PUSH2 0x100 EXP DUP2 SLOAD DUP2 PUSH1 0xFF MUL NOT AND SWAP1 DUP4 PUSH1 0xFF AND MUL OR SWAP1 SSTORE POP PUSH1 0x60 DUP3 ADD MLOAD DUP2 PUSH1 0x2 ADD PUSH1 0x1 PUSH2 0x100 EXP DUP2 SLOAD DUP2 PUSH1 0xFF MUL NOT AND SWAP1 DUP4 ISZERO ISZERO MUL OR SWAP1 SSTORE POP POP POP PUSH32 0x6E3E05804C481790319A6706171E0354DBE5B600F1A3A8B4E12A70A2892F8D7D DUP6 DUP6 PUSH1 0x40 MLOAD PUSH2 0x1855 SWAP3 SWAP2 SWAP1 PUSH2 0x2A0F JUMP JUMPDEST PUSH1 0x40 MLOAD DUP1 SWAP2 SUB SWAP1 LOG1 PUSH1 0x40 MLOAD DUP1 PUSH1 0x40 ADD PUSH1 0x40 MSTORE DUP1 PUSH1 0x1C DUP2 MSTORE PUSH1 0x20 ADD PUSH32 0x54757269737461207265676973747261646F20636F6E20657869746F00000000 DUP2 MSTORE POP SWAP2 POP POP SWAP4 SWAP3 POP POP POP JUMP JUMPDEST PUSH1 0x3 PUSH1 0x20 MSTORE DUP1 PUSH1 0x0 MSTORE PUSH1 0x40 PUSH1 0x0 KECCAK256 PUSH1 0x0 SWAP2 POP SWAP1 POP DUP1 PUSH1 0x0 ADD PUSH1 0x0 SWAP1 SLOAD SWAP1 PUSH2 0x100 EXP SWAP1 DIV PUSH20 0xFFFFFFFFFFFFFFFFFFFFFFFFFFFFFFFFFFFFFFFF AND SWAP1 DUP1 PUSH1 0x1 ADD DUP1 SLOAD PUSH2 0x18E6 SWAP1 PUSH2 0x2DBA JUMP JUMPDEST DUP1 PUSH1 0x1F ADD PUSH1 0x20 DUP1 SWAP2 DIV MUL PUSH1 0x20 ADD PUSH1 0x40 MLOAD SWAP1 DUP2 ADD PUSH1 0x40 MSTORE DUP1 SWAP3 SWAP2 SWAP1 DUP2 DUP2 MSTORE PUSH1 0x20 ADD DUP3 DUP1 SLOAD PUSH2 0x1912 SWAP1 PUSH2 0x2DBA JUMP JUMPDEST DUP1 ISZERO PUSH2 0x195F JUMPI DUP1 PUSH1 0x1F LT PUSH2 0x1934 JUMPI PUSH2 0x100 DUP1 DUP4 SLOAD DIV MUL DUP4 MSTORE SWAP2 PUSH1 0x20 ADD SWAP2 PUSH2 0x195F JUMP JUMPDEST DUP3 ADD SWAP2 SWAP1 PUSH1 0x0 MSTORE PUSH1 0x20 PUSH1 0x0 KECCAK256 SWAP1 JUMPDEST DUP2 SLOAD DUP2 MSTORE SWAP1 PUSH1 0x1 ADD SWAP1 PUSH1 0x20 ADD DUP1 DUP4 GT PUSH2 0x1942 JUMPI DUP3 SWAP1 SUB PUSH1 0x1F AND DUP3 ADD SWAP2 JUMPDEST POP POP POP POP POP SWAP1 DUP1 PUSH1 0x2 ADD PUSH1 0x0 SWAP1 SLOAD SWAP1 PUSH2 0x100 EXP SWAP1 DIV PUSH1 0xFF AND SWAP1 POP DUP4 JUMP JUMPDEST PUSH1 0x1 DUP2 DUP2 SLOAD DUP2 LT PUSH2 0x198C JUMPI PUSH1 0x0 DUP1 REVERT JUMPDEST SWAP1 PUSH1 0x0 MSTORE PUSH1 0x20 PUSH1 0x0 KECCAK256 SWAP1 PUSH1 0x3 MUL ADD PUSH1 0x0 SWAP2 POP SWAP1 POP DUP1 PUSH1 0x0 ADD PUSH1 0x0 SWAP1 SLOAD SWAP1 PUSH2 0x100 EXP SWAP1 DIV PUSH20 0xFFFFFFFFFFFFFFFFFFFFFFFFFFFFFFFFFFFFFFFF AND SWAP1 DUP1 PUSH1 0x1 ADD DUP1 SLOAD PUSH2 0x19D5 SWAP1 PUSH2 0x2DBA JUMP JUMPDEST DUP1 PUSH1 0x1F ADD PUSH1 0x20 DUP1 SWAP2 DIV MUL PUSH1 0x20 ADD PUSH1 0x40 MLOAD SWAP1 DUP2 ADD PUSH1 0x40 MSTORE DUP1 SWAP3 SWAP2 SWAP1 DUP2 DUP2 MSTORE PUSH1 0x20 ADD DUP3 DUP1 SLOAD PUSH2 0x1A01 SWAP1 PUSH2 0x2DBA JUMP JUMPDEST DUP1 ISZERO PUSH2 0x1A4E JUMPI DUP1 PUSH1 0x1F LT PUSH2 0x1A23 JUMPI PUSH2 0x100 DUP1 DUP4 SLOAD DIV MUL DUP4 MSTORE SWAP2 PUSH1 0x20 ADD SWAP2 PUSH2 0x1A4E JUMP JUMPDEST DUP3 ADD SWAP2 SWAP1 PUSH1 0x0 MSTORE PUSH1 0x20 PUSH1 0x0 KECCAK256 SWAP1 JUMPDEST DUP2 SLOAD DUP2 MSTORE SWAP1 PUSH1 0x1 ADD SWAP1 PUSH1 0x20 ADD DUP1 DUP4 GT PUSH2 0x1A31 JUMPI DUP3 SWAP1 SUB PUSH1 0x1F AND DUP3 ADD SWAP2 JUMPDEST POP POP POP POP POP SWAP1 DUP1 PUSH1 0x2 ADD PUSH1 0x0 SWAP1 SLOAD SWAP1 PUSH2 0x100 EXP SWAP1 DIV PUSH1 0xFF AND SWAP1 POP DUP4 JUMP JUMPDEST PUSH1 0x0 PUSH1 0x60 PUSH1 0x0 DUP1 PUSH1 0x0 PUSH1 0x4 PUSH1 0x0 DUP8 PUSH20 0xFFFFFFFFFFFFFFFFFFFFFFFFFFFFFFFFFFFFFFFF AND PUSH20 0xFFFFFFFFFFFFFFFFFFFFFFFFFFFFFFFFFFFFFFFF AND DUP2 MSTORE PUSH1 0x20 ADD SWAP1 DUP2 MSTORE PUSH1 0x20 ADD PUSH1 0x0 KECCAK256 PUSH1 0x40 MLOAD DUP1 PUSH1 0x80 ADD PUSH1 0x40 MSTORE SWAP1 DUP2 PUSH1 0x0 DUP3 ADD PUSH1 0x0 SWAP1 SLOAD SWAP1 PUSH2 0x100 EXP SWAP1 DIV PUSH20 0xFFFFFFFFFFFFFFFFFFFFFFFFFFFFFFFFFFFFFFFF AND PUSH20 0xFFFFFFFFFFFFFFFFFFFFFFFFFFFFFFFFFFFFFFFF AND PUSH20 0xFFFFFFFFFFFFFFFFFFFFFFFFFFFFFFFFFFFFFFFF AND DUP2 MSTORE PUSH1 0x20 ADD PUSH1 0x1 DUP3 ADD DUP1 SLOAD PUSH2 0x1B24 SWAP1 PUSH2 0x2DBA JUMP JUMPDEST DUP1 PUSH1 0x1F ADD PUSH1 0x20 DUP1 SWAP2 DIV MUL PUSH1 0x20 ADD PUSH1 0x40 MLOAD SWAP1 DUP2 ADD PUSH1 0x40 MSTORE DUP1 SWAP3 SWAP2 SWAP1 DUP2 DUP2 MSTORE PUSH1 0x20 ADD DUP3 DUP1 SLOAD PUSH2 0x1B50 SWAP1 PUSH2 0x2DBA JUMP JUMPDEST DUP1 ISZERO PUSH2 0x1B9D JUMPI DUP1 PUSH1 0x1F LT PUSH2 0x1B72 JUMPI PUSH2 0x100 DUP1 DUP4 SLOAD DIV MUL DUP4 MSTORE SWAP2 PUSH1 0x20 ADD SWAP2 PUSH2 0x1B9D JUMP JUMPDEST DUP3 ADD SWAP2 SWAP1 PUSH1 0x0 MSTORE PUSH1 0x20 PUSH1 0x0 KECCAK256 SWAP1 JUMPDEST DUP2 SLOAD DUP2 MSTORE SWAP1 PUSH1 0x1 ADD SWAP1 PUSH1 0x20 ADD DUP1 DUP4 GT PUSH2 0x1B80 JUMPI DUP3 SWAP1 SUB PUSH1 0x1F AND DUP3 ADD SWAP2 JUMPDEST POP POP POP POP POP DUP2 MSTORE PUSH1 0x20 ADD PUSH1 0x2 DUP3 ADD PUSH1 0x0 SWAP1 SLOAD SWAP1 PUSH2 0x100 EXP SWAP1 DIV PUSH1 0xFF AND PUSH1 0xFF AND PUSH1 0xFF AND DUP2 MSTORE PUSH1 0x20 ADD PUSH1 0x2 DUP3 ADD PUSH1 0x1 SWAP1 SLOAD SWAP1 PUSH2 0x100 EXP SWAP1 DIV PUSH1 0xFF AND ISZERO ISZERO ISZERO ISZERO DUP2 MSTORE POP POP SWAP1 POP DUP1 PUSH1 0x0 ADD MLOAD DUP2 PUSH1 0x20 ADD MLOAD DUP3 PUSH1 0x40 ADD MLOAD DUP4 PUSH1 0x60 ADD MLOAD SWAP5 POP SWAP5 POP SWAP5 POP SWAP5 POP POP SWAP2 SWAP4 POP SWAP2 SWAP4 JUMP JUMPDEST PUSH1 0x60 PUSH1 0x0 DUP1 SLOAD SWAP1 PUSH2 0x100 EXP SWAP1 DIV PUSH20 0xFFFFFFFFFFFFFFFFFFFFFFFFFFFFFFFFFFFFFFFF AND PUSH20 0xFFFFFFFFFFFFFFFFFFFFFFFFFFFFFFFFFFFFFFFF AND CALLER PUSH20 0xFFFFFFFFFFFFFFFFFFFFFFFFFFFFFFFFFFFFFFFF AND EQ PUSH2 0x1C94 JUMPI PUSH1 0x40 MLOAD PUSH32 0x8C379A000000000000000000000000000000000000000000000000000000000 DUP2 MSTORE PUSH1 0x4 ADD PUSH2 0x1C8B SWAP1 PUSH2 0x2BAF JUMP JUMPDEST PUSH1 0x40 MLOAD DUP1 SWAP2 SUB SWAP1 REVERT JUMPDEST PUSH1 0x1 DUP1 SLOAD SWAP1 POP PUSH8 0xFFFFFFFFFFFFFFFF DUP2 GT ISZERO PUSH2 0x1CD9 JUMPI PUSH32 0x4E487B7100000000000000000000000000000000000000000000000000000000 PUSH1 0x0 MSTORE PUSH1 0x41 PUSH1 0x4 MSTORE PUSH1 0x24 PUSH1 0x0 REVERT JUMPDEST PUSH1 0x40 MLOAD SWAP1 DUP1 DUP3 MSTORE DUP1 PUSH1 0x20 MUL PUSH1 0x20 ADD DUP3 ADD PUSH1 0x40 MSTORE DUP1 ISZERO PUSH2 0x1D12 JUMPI DUP2 PUSH1 0x20 ADD JUMPDEST PUSH2 0x1CFF PUSH2 0x2367 JUMP JUMPDEST DUP2 MSTORE PUSH1 0x20 ADD SWAP1 PUSH1 0x1 SWAP1 SUB SWAP1 DUP2 PUSH2 0x1CF7 JUMPI SWAP1 POP JUMPDEST POP SWAP1 POP PUSH1 0x0 JUMPDEST PUSH1 0x1 DUP1 SLOAD SWAP1 POP DUP2 LT ISZERO PUSH2 0x1F34 JUMPI PUSH1 0x3 PUSH1 0x0 PUSH1 0x1 DUP4 DUP2 SLOAD DUP2 LT PUSH2 0x1D63 JUMPI PUSH32 0x4E487B7100000000000000000000000000000000000000000000000000000000 PUSH1 0x0 MSTORE PUSH1 0x32 PUSH1 0x4 MSTORE PUSH1 0x24 PUSH1 0x0 REVERT JUMPDEST SWAP1 PUSH1 0x0 MSTORE PUSH1 0x20 PUSH1 0x0 KECCAK256 SWAP1 PUSH1 0x3 MUL ADD PUSH1 0x0 ADD PUSH1 0x0 SWAP1 SLOAD SWAP1 PUSH2 0x100 EXP SWAP1 DIV PUSH20 0xFFFFFFFFFFFFFFFFFFFFFFFFFFFFFFFFFFFFFFFF AND PUSH20 0xFFFFFFFFFFFFFFFFFFFFFFFFFFFFFFFFFFFFFFFF AND PUSH20 0xFFFFFFFFFFFFFFFFFFFFFFFFFFFFFFFFFFFFFFFF AND DUP2 MSTORE PUSH1 0x20 ADD SWAP1 DUP2 MSTORE PUSH1 0x20 ADD PUSH1 0x0 KECCAK256 PUSH1 0x40 MLOAD DUP1 PUSH1 0x60 ADD PUSH1 0x40 MSTORE SWAP1 DUP2 PUSH1 0x0 DUP3 ADD PUSH1 0x0 SWAP1 SLOAD SWAP1 PUSH2 0x100 EXP SWAP1 DIV PUSH20 0xFFFFFFFFFFFFFFFFFFFFFFFFFFFFFFFFFFFFFFFF AND PUSH20 0xFFFFFFFFFFFFFFFFFFFFFFFFFFFFFFFFFFFFFFFF AND PUSH20 0xFFFFFFFFFFFFFFFFFFFFFFFFFFFFFFFFFFFFFFFF AND DUP2 MSTORE PUSH1 0x20 ADD PUSH1 0x1 DUP3 ADD DUP1 SLOAD PUSH2 0x1E40 SWAP1 PUSH2 0x2DBA JUMP JUMPDEST DUP1 PUSH1 0x1F ADD PUSH1 0x20 DUP1 SWAP2 DIV MUL PUSH1 0x20 ADD PUSH1 0x40 MLOAD SWAP1 DUP2 ADD PUSH1 0x40 MSTORE DUP1 SWAP3 SWAP2 SWAP1 DUP2 DUP2 MSTORE PUSH1 0x20 ADD DUP3 DUP1 SLOAD PUSH2 0x1E6C SWAP1 PUSH2 0x2DBA JUMP JUMPDEST DUP1 ISZERO PUSH2 0x1EB9 JUMPI DUP1 PUSH1 0x1F LT PUSH2 0x1E8E JUMPI PUSH2 0x100 DUP1 DUP4 SLOAD DIV MUL DUP4 MSTORE SWAP2 PUSH1 0x20 ADD SWAP2 PUSH2 0x1EB9 JUMP JUMPDEST DUP3 ADD SWAP2 SWAP1 PUSH1 0x0 MSTORE PUSH1 0x20 PUSH1 0x0 KECCAK256 SWAP1 JUMPDEST DUP2 SLOAD DUP2 MSTORE SWAP1 PUSH1 0x1 ADD SWAP1 PUSH1 0x20 ADD DUP1 DUP4 GT PUSH2 0x1E9C JUMPI DUP3 SWAP1 SUB PUSH1 0x1F AND DUP3 ADD SWAP2 JUMPDEST POP POP POP POP POP DUP2 MSTORE PUSH1 0x20 ADD PUSH1 0x2 DUP3 ADD PUSH1 0x0 SWAP1 SLOAD SWAP1 PUSH2 0x100 EXP SWAP1 DIV PUSH1 0xFF AND ISZERO ISZERO ISZERO ISZERO DUP2 MSTORE POP POP DUP3 DUP3 DUP2 MLOAD DUP2 LT PUSH2 0x1F16 JUMPI PUSH32 0x4E487B7100000000000000000000000000000000000000000000000000000000 PUSH1 0x0 MSTORE PUSH1 0x32 PUSH1 0x4 MSTORE PUSH1 0x24 PUSH1 0x0 REVERT JUMPDEST PUSH1 0x20 MUL PUSH1 0x20 ADD ADD DUP2 SWAP1 MSTORE POP DUP1 DUP1 PUSH2 0x1F2C SWAP1 PUSH2 0x2DEC JUMP JUMPDEST SWAP2 POP POP PUSH2 0x1D18 JUMP JUMPDEST POP SWAP1 JUMP JUMPDEST PUSH1 0x0 DUP1 SLOAD SWAP1 PUSH2 0x100 EXP SWAP1 DIV PUSH20 0xFFFFFFFFFFFFFFFFFFFFFFFFFFFFFFFFFFFFFFFF AND DUP2 JUMP JUMPDEST PUSH1 0x0 PUSH1 0x60 PUSH1 0x0 DUP1 PUSH1 0x3 PUSH1 0x0 DUP7 PUSH20 0xFFFFFFFFFFFFFFFFFFFFFFFFFFFFFFFFFFFFFFFF AND PUSH20 0xFFFFFFFFFFFFFFFFFFFFFFFFFFFFFFFFFFFFFFFF AND DUP2 MSTORE PUSH1 0x20 ADD SWAP1 DUP2 MSTORE PUSH1 0x20 ADD PUSH1 0x0 KECCAK256 PUSH1 0x40 MLOAD DUP1 PUSH1 0x60 ADD PUSH1 0x40 MSTORE SWAP1 DUP2 PUSH1 0x0 DUP3 ADD PUSH1 0x0 SWAP1 SLOAD SWAP1 PUSH2 0x100 EXP SWAP1 DIV PUSH20 0xFFFFFFFFFFFFFFFFFFFFFFFFFFFFFFFFFFFFFFFF AND PUSH20 0xFFFFFFFFFFFFFFFFFFFFFFFFFFFFFFFFFFFFFFFF AND PUSH20 0xFFFFFFFFFFFFFFFFFFFFFFFFFFFFFFFFFFFFFFFF AND DUP2 MSTORE PUSH1 0x20 ADD PUSH1 0x1 DUP3 ADD DUP1 SLOAD PUSH2 0x2013 SWAP1 PUSH2 0x2DBA JUMP JUMPDEST DUP1 PUSH1 0x1F ADD PUSH1 0x20 DUP1 SWAP2 DIV MUL PUSH1 0x20 ADD PUSH1 0x40 MLOAD SWAP1 DUP2 ADD PUSH1 0x40 MSTORE DUP1 SWAP3 SWAP2 SWAP1 DUP2 DUP2 MSTORE PUSH1 0x20 ADD DUP3 DUP1 SLOAD PUSH2 0x203F SWAP1 PUSH2 0x2DBA JUMP JUMPDEST DUP1 ISZERO PUSH2 0x208C JUMPI DUP1 PUSH1 0x1F LT PUSH2 0x2061 JUMPI PUSH2 0x100 DUP1 DUP4 SLOAD DIV MUL DUP4 MSTORE SWAP2 PUSH1 0x20 ADD SWAP2 PUSH2 0x208C JUMP JUMPDEST DUP3 ADD SWAP2 SWAP1 PUSH1 0x0 MSTORE PUSH1 0x20 PUSH1 0x0 KECCAK256 SWAP1 JUMPDEST DUP2 SLOAD DUP2 MSTORE SWAP1 PUSH1 0x1 ADD SWAP1 PUSH1 0x20 ADD DUP1 DUP4 GT PUSH2 0x206F JUMPI DUP3 SWAP1 SUB PUSH1 0x1F AND DUP3 ADD SWAP2 JUMPDEST POP POP POP POP POP DUP2 MSTORE PUSH1 0x20 ADD PUSH1 0x2 DUP3 ADD PUSH1 0x0 SWAP1 SLOAD SWAP1 PUSH2 0x100 EXP SWAP1 DIV PUSH1 0xFF AND ISZERO ISZERO ISZERO ISZERO DUP2 MSTORE POP POP SWAP1 POP DUP1 PUSH1 0x0 ADD MLOAD DUP2 PUSH1 0x20 ADD MLOAD DUP3 PUSH1 0x40 ADD MLOAD SWAP4 POP SWAP4 POP SWAP4 POP POP SWAP2 SWAP4 SWAP1 SWAP3 POP JUMP JUMPDEST PUSH1 0x2 DUP2 DUP2 SLOAD DUP2 LT PUSH2 0x20DF JUMPI PUSH1 0x0 DUP1 REVERT JUMPDEST SWAP1 PUSH1 0x0 MSTORE PUSH1 0x20 PUSH1 0x0 KECCAK256 SWAP1 PUSH1 0x3 MUL ADD PUSH1 0x0 SWAP2 POP SWAP1 POP DUP1 PUSH1 0x0 ADD PUSH1 0x0 SWAP1 SLOAD SWAP1 PUSH2 0x100 EXP SWAP1 DIV PUSH20 0xFFFFFFFFFFFFFFFFFFFFFFFFFFFFFFFFFFFFFFFF AND SWAP1 DUP1 PUSH1 0x1 ADD DUP1 SLOAD PUSH2 0x2128 SWAP1 PUSH2 0x2DBA JUMP JUMPDEST DUP1 PUSH1 0x1F ADD PUSH1 0x20 DUP1 SWAP2 DIV MUL PUSH1 0x20 ADD PUSH1 0x40 MLOAD SWAP1 DUP2 ADD PUSH1 0x40 MSTORE DUP1 SWAP3 SWAP2 SWAP1 DUP2 DUP2 MSTORE PUSH1 0x20 ADD DUP3 DUP1 SLOAD PUSH2 0x2154 SWAP1 PUSH2 0x2DBA JUMP JUMPDEST DUP1 ISZERO PUSH2 0x21A1 JUMPI DUP1 PUSH1 0x1F LT PUSH2 0x2176 JUMPI PUSH2 0x100 DUP1 DUP4 SLOAD DIV MUL DUP4 MSTORE SWAP2 PUSH1 0x20 ADD SWAP2 PUSH2 0x21A1 JUMP JUMPDEST DUP3 ADD SWAP2 SWAP1 PUSH1 0x0 MSTORE PUSH1 0x20 PUSH1 0x0 KECCAK256 SWAP1 JUMPDEST DUP2 SLOAD DUP2 MSTORE SWAP1 PUSH1 0x1 ADD SWAP1 PUSH1 0x20 ADD DUP1 DUP4 GT PUSH2 0x2184 JUMPI DUP3 SWAP1 SUB PUSH1 0x1F AND DUP3 ADD SWAP2 JUMPDEST POP POP POP POP POP SWAP1 DUP1 PUSH1 0x2 ADD PUSH1 0x0 SWAP1 SLOAD SWAP1 PUSH2 0x100 EXP SWAP1 DIV PUSH1 0xFF AND SWAP1 DUP1 PUSH1 0x2 ADD PUSH1 0x1 SWAP1 SLOAD SWAP1 PUSH2 0x100 EXP SWAP1 DIV PUSH1 0xFF AND SWAP1 POP DUP5 JUMP JUMPDEST DUP3 DUP1 SLOAD PUSH2 0x21DD SWAP1 PUSH2 0x2DBA JUMP JUMPDEST SWAP1 PUSH1 0x0 MSTORE PUSH1 0x20 PUSH1 0x0 KECCAK256 SWAP1 PUSH1 0x1F ADD PUSH1 0x20 SWAP1 DIV DUP2 ADD SWAP3 DUP3 PUSH2 0x21FF JUMPI PUSH1 0x0 DUP6 SSTORE PUSH2 0x224D JUMP JUMPDEST DUP3 PUSH1 0x1F LT PUSH2 0x2210 JUMPI DUP1 SLOAD DUP6 SSTORE PUSH2 0x224D JUMP JUMPDEST DUP3 DUP1 ADD PUSH1 0x1 ADD DUP6 SSTORE DUP3 ISZERO PUSH2 0x224D JUMPI PUSH1 0x0 MSTORE PUSH1 0x20 PUSH1 0x0 KECCAK256 SWAP2 PUSH1 0x1F ADD PUSH1 0x20 SWAP1 DIV DUP3 ADD JUMPDEST DUP3 DUP2 GT ISZERO PUSH2 0x224C JUMPI DUP3 SLOAD DUP3 SSTORE SWAP2 PUSH1 0x1 ADD SWAP2 SWAP1 PUSH1 0x1 ADD SWAP1 PUSH2 0x2231 JUMP JUMPDEST JUMPDEST POP SWAP1 POP PUSH2 0x225A SWAP2 SWAP1 PUSH2 0x23A0 JUMP JUMPDEST POP SWAP1 JUMP JUMPDEST POP DUP1 SLOAD PUSH2 0x226A SWAP1 PUSH2 0x2DBA JUMP JUMPDEST PUSH1 0x0 DUP3 SSTORE DUP1 PUSH1 0x1F LT PUSH2 0x227C JUMPI POP PUSH2 0x229B JUMP JUMPDEST PUSH1 0x1F ADD PUSH1 0x20 SWAP1 DIV SWAP1 PUSH1 0x0 MSTORE PUSH1 0x20 PUSH1 0x0 KECCAK256 SWAP1 DUP2 ADD SWAP1 PUSH2 0x229A SWAP2 SWAP1 PUSH2 0x23A0 JUMP JUMPDEST JUMPDEST POP JUMP JUMPDEST DUP3 DUP1 SLOAD PUSH2 0x22AA SWAP1 PUSH2 0x2DBA JUMP JUMPDEST SWAP1 PUSH1 0x0 MSTORE PUSH1 0x20 PUSH1 0x0 KECCAK256 SWAP1 PUSH1 0x1F ADD PUSH1 0x20 SWAP1 DIV DUP2 ADD SWAP3 DUP3 PUSH2 0x22CC JUMPI PUSH1 0x0 DUP6 SSTORE PUSH2 0x2313 JUMP JUMPDEST DUP3 PUSH1 0x1F LT PUSH2 0x22E5 JUMPI DUP1 MLOAD PUSH1 0xFF NOT AND DUP4 DUP1 ADD OR DUP6 SSTORE PUSH2 0x2313 JUMP JUMPDEST DUP3 DUP1 ADD PUSH1 0x1 ADD DUP6 SSTORE DUP3 ISZERO PUSH2 0x2313 JUMPI SWAP2 DUP3 ADD JUMPDEST DUP3 DUP2 GT ISZERO PUSH2 0x2312 JUMPI DUP3 MLOAD DUP3 SSTORE SWAP2 PUSH1 0x20 ADD SWAP2 SWAP1 PUSH1 0x1 ADD SWAP1 PUSH2 0x22F7 JUMP JUMPDEST JUMPDEST POP SWAP1 POP PUSH2 0x2320 SWAP2 SWAP1 PUSH2 0x23A0 JUMP JUMPDEST POP SWAP1 JUMP JUMPDEST PUSH1 0x40 MLOAD DUP1 PUSH1 0x80 ADD PUSH1 0x40 MSTORE DUP1 PUSH1 0x0 PUSH20 0xFFFFFFFFFFFFFFFFFFFFFFFFFFFFFFFFFFFFFFFF AND DUP2 MSTORE PUSH1 0x20 ADD PUSH1 0x60 DUP2 MSTORE PUSH1 0x20 ADD PUSH1 0x0 PUSH1 0xFF AND DUP2 MSTORE PUSH1 0x20 ADD PUSH1 0x0 ISZERO ISZERO DUP2 MSTORE POP SWAP1 JUMP JUMPDEST PUSH1 0x40 MLOAD DUP1 PUSH1 0x60 ADD PUSH1 0x40 MSTORE DUP1 PUSH1 0x0 PUSH20 0xFFFFFFFFFFFFFFFFFFFFFFFFFFFFFFFFFFFFFFFF AND DUP2 MSTORE PUSH1 0x20 ADD PUSH1 0x60 DUP2 MSTORE PUSH1 0x20 ADD PUSH1 0x0 ISZERO ISZERO DUP2 MSTORE POP SWAP1 JUMP JUMPDEST JUMPDEST DUP1 DUP3 GT ISZERO PUSH2 0x23B9 JUMPI PUSH1 0x0 DUP2 PUSH1 0x0 SWAP1 SSTORE POP PUSH1 0x1 ADD PUSH2 0x23A1 JUMP JUMPDEST POP SWAP1 JUMP JUMPDEST PUSH1 0x0 PUSH2 0x23D0 PUSH2 0x23CB DUP5 PUSH2 0x2C20 JUMP JUMPDEST PUSH2 0x2BEF JUMP JUMPDEST SWAP1 POP DUP3 DUP2 MSTORE PUSH1 0x20 DUP2 ADD DUP5 DUP5 DUP5 ADD GT ISZERO PUSH2 0x23E8 JUMPI PUSH1 0x0 DUP1 REVERT JUMPDEST PUSH2 0x23F3 DUP5 DUP3 DUP6 PUSH2 0x2D78 JUMP JUMPDEST POP SWAP4 SWAP3 POP POP POP JUMP JUMPDEST PUSH1 0x0 DUP2 CALLDATALOAD SWAP1 POP PUSH2 0x240A DUP2 PUSH2 0x2ED3 JUMP JUMPDEST SWAP3 SWAP2 POP POP JUMP JUMPDEST PUSH1 0x0 DUP3 PUSH1 0x1F DUP4 ADD SLT PUSH2 0x2421 JUMPI PUSH1 0x0 DUP1 REVERT JUMPDEST DUP2 CALLDATALOAD PUSH2 0x2431 DUP5 DUP3 PUSH1 0x20 DUP7 ADD PUSH2 0x23BD JUMP JUMPDEST SWAP2 POP POP SWAP3 SWAP2 POP POP JUMP JUMPDEST PUSH1 0x0 DUP2 CALLDATALOAD SWAP1 POP PUSH2 0x2449 DUP2 PUSH2 0x2EEA JUMP JUMPDEST SWAP3 SWAP2 POP POP JUMP JUMPDEST PUSH1 0x0 DUP2 CALLDATALOAD SWAP1 POP PUSH2 0x245E DUP2 PUSH2 0x2F01 JUMP JUMPDEST SWAP3 SWAP2 POP POP JUMP JUMPDEST PUSH1 0x0 PUSH1 0x20 DUP3 DUP5 SUB SLT ISZERO PUSH2 0x2476 JUMPI PUSH1 0x0 DUP1 REVERT JUMPDEST PUSH1 0x0 PUSH2 0x2484 DUP5 DUP3 DUP6 ADD PUSH2 0x23FB JUMP JUMPDEST SWAP2 POP POP SWAP3 SWAP2 POP POP JUMP JUMPDEST PUSH1 0x0 DUP1 PUSH1 0x40 DUP4 DUP6 SUB SLT ISZERO PUSH2 0x24A0 JUMPI PUSH1 0x0 DUP1 REVERT JUMPDEST PUSH1 0x0 PUSH2 0x24AE DUP6 DUP3 DUP7 ADD PUSH2 0x23FB JUMP JUMPDEST SWAP3 POP POP PUSH1 0x20 DUP4 ADD CALLDATALOAD PUSH8 0xFFFFFFFFFFFFFFFF DUP2 GT ISZERO PUSH2 0x24CB JUMPI PUSH1 0x0 DUP1 REVERT JUMPDEST PUSH2 0x24D7 DUP6 DUP3 DUP7 ADD PUSH2 0x2410 JUMP JUMPDEST SWAP2 POP POP SWAP3 POP SWAP3 SWAP1 POP JUMP JUMPDEST PUSH1 0x0 DUP1 PUSH1 0x0 PUSH1 0x60 DUP5 DUP7 SUB SLT ISZERO PUSH2 0x24F6 JUMPI PUSH1 0x0 DUP1 REVERT JUMPDEST PUSH1 0x0 PUSH2 0x2504 DUP7 DUP3 DUP8 ADD PUSH2 0x23FB JUMP JUMPDEST SWAP4 POP POP PUSH1 0x20 DUP5 ADD CALLDATALOAD PUSH8 0xFFFFFFFFFFFFFFFF DUP2 GT ISZERO PUSH2 0x2521 JUMPI PUSH1 0x0 DUP1 REVERT JUMPDEST PUSH2 0x252D DUP7 DUP3 DUP8 ADD PUSH2 0x2410 JUMP JUMPDEST SWAP3 POP POP PUSH1 0x40 PUSH2 0x253E DUP7 DUP3 DUP8 ADD PUSH2 0x244F JUMP JUMPDEST SWAP2 POP POP SWAP3 POP SWAP3 POP SWAP3 JUMP JUMPDEST PUSH1 0x0 PUSH1 0x20 DUP3 DUP5 SUB SLT ISZERO PUSH2 0x255A JUMPI PUSH1 0x0 DUP1 REVERT JUMPDEST PUSH1 0x0 PUSH2 0x2568 DUP5 DUP3 DUP6 ADD PUSH2 0x243A JUMP JUMPDEST SWAP2 POP POP SWAP3 SWAP2 POP POP JUMP JUMPDEST PUSH1 0x0 PUSH2 0x257D DUP4 DUP4 PUSH2 0x2923 JUMP JUMPDEST SWAP1 POP SWAP3 SWAP2 POP POP JUMP JUMPDEST PUSH1 0x0 PUSH2 0x2591 DUP4 DUP4 PUSH2 0x2973 JUMP JUMPDEST SWAP1 POP SWAP3 SWAP2 POP POP JUMP JUMPDEST PUSH2 0x25A2 DUP2 PUSH2 0x2D23 JUMP JUMPDEST DUP3 MSTORE POP POP JUMP JUMPDEST PUSH2 0x25B1 DUP2 PUSH2 0x2D23 JUMP JUMPDEST DUP3 MSTORE POP POP JUMP JUMPDEST PUSH1 0x0 PUSH2 0x25C2 DUP3 PUSH2 0x2C70 JUMP JUMPDEST PUSH2 0x25CC DUP2 DUP6 PUSH2 0x2CAB JUMP JUMPDEST SWAP4 POP DUP4 PUSH1 0x20 DUP3 MUL DUP6 ADD PUSH2 0x25DE DUP6 PUSH2 0x2C50 JUMP JUMPDEST DUP1 PUSH1 0x0 JUMPDEST DUP6 DUP2 LT ISZERO PUSH2 0x261A JUMPI DUP5 DUP5 SUB DUP10 MSTORE DUP2 MLOAD PUSH2 0x25FB DUP6 DUP3 PUSH2 0x2571 JUMP JUMPDEST SWAP5 POP PUSH2 0x2606 DUP4 PUSH2 0x2C91 JUMP JUMPDEST SWAP3 POP PUSH1 0x20 DUP11 ADD SWAP10 POP POP PUSH1 0x1 DUP2 ADD SWAP1 POP PUSH2 0x25E2 JUMP JUMPDEST POP DUP3 SWAP8 POP DUP8 SWAP6 POP POP POP POP POP POP SWAP3 SWAP2 POP POP JUMP JUMPDEST PUSH1 0x0 PUSH2 0x2637 DUP3 PUSH2 0x2C7B JUMP JUMPDEST PUSH2 0x2641 DUP2 DUP6 PUSH2 0x2CBC JUMP JUMPDEST SWAP4 POP DUP4 PUSH1 0x20 DUP3 MUL DUP6 ADD PUSH2 0x2653 DUP6 PUSH2 0x2C60 JUMP JUMPDEST DUP1 PUSH1 0x0 JUMPDEST DUP6 DUP2 LT ISZERO PUSH2 0x268F JUMPI DUP5 DUP5 SUB DUP10 MSTORE DUP2 MLOAD PUSH2 0x2670 DUP6 DUP3 PUSH2 0x2585 JUMP JUMPDEST SWAP5 POP PUSH2 0x267B DUP4 PUSH2 0x2C9E JUMP JUMPDEST SWAP3 POP PUSH1 0x20 DUP11 ADD SWAP10 POP POP PUSH1 0x1 DUP2 ADD SWAP1 POP PUSH2 0x2657 JUMP JUMPDEST POP DUP3 SWAP8 POP DUP8 SWAP6 POP POP POP POP POP POP SWAP3 SWAP2 POP POP JUMP JUMPDEST PUSH2 0x26AA DUP2 PUSH2 0x2D35 JUMP JUMPDEST DUP3 MSTORE POP POP JUMP JUMPDEST PUSH2 0x26B9 DUP2 PUSH2 0x2D35 JUMP JUMPDEST DUP3 MSTORE POP POP JUMP JUMPDEST PUSH1 0x0 PUSH2 0x26CA DUP3 PUSH2 0x2C86 JUMP JUMPDEST PUSH2 0x26D4 DUP2 DUP6 PUSH2 0x2CCD JUMP JUMPDEST SWAP4 POP PUSH2 0x26E4 DUP2 DUP6 PUSH1 0x20 DUP7 ADD PUSH2 0x2D87 JUMP JUMPDEST PUSH2 0x26ED DUP2 PUSH2 0x2EC2 JUMP JUMPDEST DUP5 ADD SWAP2 POP POP SWAP3 SWAP2 POP POP JUMP JUMPDEST PUSH1 0x0 PUSH2 0x2703 DUP3 PUSH2 0x2C86 JUMP JUMPDEST PUSH2 0x270D DUP2 DUP6 PUSH2 0x2CDE JUMP JUMPDEST SWAP4 POP PUSH2 0x271D DUP2 DUP6 PUSH1 0x20 DUP7 ADD PUSH2 0x2D87 JUMP JUMPDEST PUSH2 0x2726 DUP2 PUSH2 0x2EC2 JUMP JUMPDEST DUP5 ADD SWAP2 POP POP SWAP3 SWAP2 POP POP JUMP JUMPDEST PUSH1 0x0 PUSH2 0x273E PUSH1 0x3D DUP4 PUSH2 0x2CDE JUMP JUMPDEST SWAP2 POP PUSH32 0x536F6C6F20656C204475656E6E6F206F20477569617320646520747572697374 PUSH1 0x0 DUP4 ADD MSTORE PUSH32 0x6173207075656465207265616C697A6172206573746120616363696F6E000000 PUSH1 0x20 DUP4 ADD MSTORE PUSH1 0x40 DUP3 ADD SWAP1 POP SWAP2 SWAP1 POP JUMP JUMPDEST PUSH1 0x0 PUSH2 0x27A4 PUSH1 0x23 DUP4 PUSH2 0x2CDE JUMP JUMPDEST SWAP2 POP PUSH32 0x4775696120646520547572697374617320796120657374612072656769737472 PUSH1 0x0 DUP4 ADD MSTORE PUSH32 0x61646F0000000000000000000000000000000000000000000000000000000000 PUSH1 0x20 DUP4 ADD MSTORE PUSH1 0x40 DUP3 ADD SWAP1 POP SWAP2 SWAP1 POP JUMP JUMPDEST PUSH1 0x0 PUSH2 0x280A PUSH1 0x1A DUP4 PUSH2 0x2CDE JUMP JUMPDEST SWAP2 POP PUSH32 0x547572697374612079612065737461207265676973747261646F000000000000 PUSH1 0x0 DUP4 ADD MSTORE PUSH1 0x20 DUP3 ADD SWAP1 POP SWAP2 SWAP1 POP JUMP JUMPDEST PUSH1 0x0 PUSH2 0x284A PUSH1 0xE DUP4 PUSH2 0x2CDE JUMP JUMPDEST SWAP2 POP PUSH32 0x47756961206E6F20657869737465000000000000000000000000000000000000 PUSH1 0x0 DUP4 ADD MSTORE PUSH1 0x20 DUP3 ADD SWAP1 POP SWAP2 SWAP1 POP JUMP JUMPDEST PUSH1 0x0 PUSH2 0x288A PUSH1 0x29 DUP4 PUSH2 0x2CDE JUMP JUMPDEST SWAP2 POP PUSH32 0x536F6C6F20656C204475656E6E6F207075656465207265616C697A6172206573 PUSH1 0x0 DUP4 ADD MSTORE PUSH32 0x746120616363696F6E0000000000000000000000000000000000000000000000 PUSH1 0x20 DUP4 ADD MSTORE PUSH1 0x40 DUP3 ADD SWAP1 POP SWAP2 SWAP1 POP JUMP JUMPDEST PUSH1 0x0 PUSH2 0x28F0 PUSH1 0x11 DUP4 PUSH2 0x2CDE JUMP JUMPDEST SWAP2 POP PUSH32 0x54757269737461206E6F20657869737465000000000000000000000000000000 PUSH1 0x0 DUP4 ADD MSTORE PUSH1 0x20 DUP3 ADD SWAP1 POP SWAP2 SWAP1 POP JUMP JUMPDEST PUSH1 0x0 PUSH1 0x60 DUP4 ADD PUSH1 0x0 DUP4 ADD MLOAD PUSH2 0x293B PUSH1 0x0 DUP7 ADD DUP3 PUSH2 0x2599 JUMP JUMPDEST POP PUSH1 0x20 DUP4 ADD MLOAD DUP5 DUP3 SUB PUSH1 0x20 DUP7 ADD MSTORE PUSH2 0x2953 DUP3 DUP3 PUSH2 0x26BF JUMP JUMPDEST SWAP2 POP POP PUSH1 0x40 DUP4 ADD MLOAD PUSH2 0x2968 PUSH1 0x40 DUP7 ADD DUP3 PUSH2 0x26A1 JUMP JUMPDEST POP DUP1 SWAP2 POP POP SWAP3 SWAP2 POP POP JUMP JUMPDEST PUSH1 0x0 PUSH1 0x80 DUP4 ADD PUSH1 0x0 DUP4 ADD MLOAD PUSH2 0x298B PUSH1 0x0 DUP7 ADD DUP3 PUSH2 0x2599 JUMP JUMPDEST POP PUSH1 0x20 DUP4 ADD MLOAD DUP5 DUP3 SUB PUSH1 0x20 DUP7 ADD MSTORE PUSH2 0x29A3 DUP3 DUP3 PUSH2 0x26BF JUMP JUMPDEST SWAP2 POP POP PUSH1 0x40 DUP4 ADD MLOAD PUSH2 0x29B8 PUSH1 0x40 DUP7 ADD DUP3 PUSH2 0x29D6 JUMP JUMPDEST POP PUSH1 0x60 DUP4 ADD MLOAD PUSH2 0x29CB PUSH1 0x60 DUP7 ADD DUP3 PUSH2 0x26A1 JUMP JUMPDEST POP DUP1 SWAP2 POP POP SWAP3 SWAP2 POP POP JUMP JUMPDEST PUSH2 0x29DF DUP2 PUSH2 0x2D6B JUMP JUMPDEST DUP3 MSTORE POP POP JUMP JUMPDEST PUSH2 0x29EE DUP2 PUSH2 0x2D6B JUMP JUMPDEST DUP3 MSTORE POP POP JUMP JUMPDEST PUSH1 0x0 PUSH1 0x20 DUP3 ADD SWAP1 POP PUSH2 0x2A09 PUSH1 0x0 DUP4 ADD DUP5 PUSH2 0x25A8 JUMP JUMPDEST SWAP3 SWAP2 POP POP JUMP JUMPDEST PUSH1 0x0 PUSH1 0x40 DUP3 ADD SWAP1 POP PUSH2 0x2A24 PUSH1 0x0 DUP4 ADD DUP6 PUSH2 0x25A8 JUMP JUMPDEST DUP2 DUP2 SUB PUSH1 0x20 DUP4 ADD MSTORE PUSH2 0x2A36 DUP2 DUP5 PUSH2 0x26F8 JUMP JUMPDEST SWAP1 POP SWAP4 SWAP3 POP POP POP JUMP JUMPDEST PUSH1 0x0 PUSH1 0x60 DUP3 ADD SWAP1 POP PUSH2 0x2A54 PUSH1 0x0 DUP4 ADD DUP7 PUSH2 0x25A8 JUMP JUMPDEST DUP2 DUP2 SUB PUSH1 0x20 DUP4 ADD MSTORE PUSH2 0x2A66 DUP2 DUP6 PUSH2 0x26F8 JUMP JUMPDEST SWAP1 POP PUSH2 0x2A75 PUSH1 0x40 DUP4 ADD DUP5 PUSH2 0x26B0 JUMP JUMPDEST SWAP5 SWAP4 POP POP POP POP JUMP JUMPDEST PUSH1 0x0 PUSH1 0x80 DUP3 ADD SWAP1 POP PUSH2 0x2A92 PUSH1 0x0 DUP4 ADD DUP8 PUSH2 0x25A8 JUMP JUMPDEST DUP2 DUP2 SUB PUSH1 0x20 DUP4 ADD MSTORE PUSH2 0x2AA4 DUP2 DUP7 PUSH2 0x26F8 JUMP JUMPDEST SWAP1 POP PUSH2 0x2AB3 PUSH1 0x40 DUP4 ADD DUP6 PUSH2 0x29E5 JUMP JUMPDEST PUSH2 0x2AC0 PUSH1 0x60 DUP4 ADD DUP5 PUSH2 0x26B0 JUMP JUMPDEST SWAP6 SWAP5 POP POP POP POP POP JUMP JUMPDEST PUSH1 0x0 PUSH1 0x20 DUP3 ADD SWAP1 POP DUP2 DUP2 SUB PUSH1 0x0 DUP4 ADD MSTORE PUSH2 0x2AE3 DUP2 DUP5 PUSH2 0x25B7 JUMP JUMPDEST SWAP1 POP SWAP3 SWAP2 POP POP JUMP JUMPDEST PUSH1 0x0 PUSH1 0x20 DUP3 ADD SWAP1 POP DUP2 DUP2 SUB PUSH1 0x0 DUP4 ADD MSTORE PUSH2 0x2B05 DUP2 DUP5 PUSH2 0x262C JUMP JUMPDEST SWAP1 POP SWAP3 SWAP2 POP POP JUMP JUMPDEST PUSH1 0x0 PUSH1 0x20 DUP3 ADD SWAP1 POP DUP2 DUP2 SUB PUSH1 0x0 DUP4 ADD MSTORE PUSH2 0x2B27 DUP2 DUP5 PUSH2 0x26F8 JUMP JUMPDEST SWAP1 POP SWAP3 SWAP2 POP POP JUMP JUMPDEST PUSH1 0x0 PUSH1 0x20 DUP3 ADD SWAP1 POP DUP2 DUP2 SUB PUSH1 0x0 DUP4 ADD MSTORE PUSH2 0x2B48 DUP2 PUSH2 0x2731 JUMP JUMPDEST SWAP1 POP SWAP2 SWAP1 POP JUMP JUMPDEST PUSH1 0x0 PUSH1 0x20 DUP3 ADD SWAP1 POP DUP2 DUP2 SUB PUSH1 0x0 DUP4 ADD MSTORE PUSH2 0x2B68 DUP2 PUSH2 0x2797 JUMP JUMPDEST SWAP1 POP SWAP2 SWAP1 POP JUMP JUMPDEST PUSH1 0x0 PUSH1 0x20 DUP3 ADD SWAP1 POP DUP2 DUP2 SUB PUSH1 0x0 DUP4 ADD MSTORE PUSH2 0x2B88 DUP2 PUSH2 0x27FD JUMP JUMPDEST SWAP1 POP SWAP2 SWAP1 POP JUMP JUMPDEST PUSH1 0x0 PUSH1 0x20 DUP3 ADD SWAP1 POP DUP2 DUP2 SUB PUSH1 0x0 DUP4 ADD MSTORE PUSH2 0x2BA8 DUP2 PUSH2 0x283D JUMP JUMPDEST SWAP1 POP SWAP2 SWAP1 POP JUMP JUMPDEST PUSH1 0x0 PUSH1 0x20 DUP3 ADD SWAP1 POP DUP2 DUP2 SUB PUSH1 0x0 DUP4 ADD MSTORE PUSH2 0x2BC8 DUP2 PUSH2 0x287D JUMP JUMPDEST SWAP1 POP SWAP2 SWAP1 POP JUMP JUMPDEST PUSH1 0x0 PUSH1 0x20 DUP3 ADD SWAP1 POP DUP2 DUP2 SUB PUSH1 0x0 DUP4 ADD MSTORE PUSH2 0x2BE8 DUP2 PUSH2 0x28E3 JUMP JUMPDEST SWAP1 POP SWAP2 SWAP1 POP JUMP JUMPDEST PUSH1 0x0 PUSH1 0x40 MLOAD SWAP1 POP DUP2 DUP2 ADD DUP2 DUP2 LT PUSH8 0xFFFFFFFFFFFFFFFF DUP3 GT OR ISZERO PUSH2 0x2C16 JUMPI PUSH2 0x2C15 PUSH2 0x2E93 JUMP JUMPDEST JUMPDEST DUP1 PUSH1 0x40 MSTORE POP SWAP2 SWAP1 POP JUMP JUMPDEST PUSH1 0x0 PUSH8 0xFFFFFFFFFFFFFFFF DUP3 GT ISZERO PUSH2 0x2C3B JUMPI PUSH2 0x2C3A PUSH2 0x2E93 JUMP JUMPDEST JUMPDEST PUSH1 0x1F NOT PUSH1 0x1F DUP4 ADD AND SWAP1 POP PUSH1 0x20 DUP2 ADD SWAP1 POP SWAP2 SWAP1 POP JUMP JUMPDEST PUSH1 0x0 DUP2 SWAP1 POP PUSH1 0x20 DUP3 ADD SWAP1 POP SWAP2 SWAP1 POP JUMP JUMPDEST PUSH1 0x0 DUP2 SWAP1 POP PUSH1 0x20 DUP3 ADD SWAP1 POP SWAP2 SWAP1 POP JUMP JUMPDEST PUSH1 0x0 DUP2 MLOAD SWAP1 POP SWAP2 SWAP1 POP JUMP JUMPDEST PUSH1 0x0 DUP2 MLOAD SWAP1 POP SWAP2 SWAP1 POP JUMP JUMPDEST PUSH1 0x0 DUP2 MLOAD SWAP1 POP SWAP2 SWAP1 POP JUMP JUMPDEST PUSH1 0x0 PUSH1 0x20 DUP3 ADD SWAP1 POP SWAP2 SWAP1 POP JUMP JUMPDEST PUSH1 0x0 PUSH1 0x20 DUP3 ADD SWAP1 POP SWAP2 SWAP1 POP JUMP JUMPDEST PUSH1 0x0 DUP3 DUP3 MSTORE PUSH1 0x20 DUP3 ADD SWAP1 POP SWAP3 SWAP2 POP POP JUMP JUMPDEST PUSH1 0x0 DUP3 DUP3 MSTORE PUSH1 0x20 DUP3 ADD SWAP1 POP SWAP3 SWAP2 POP POP JUMP JUMPDEST PUSH1 0x0 DUP3 DUP3 MSTORE PUSH1 0x20 DUP3 ADD SWAP1 POP SWAP3 SWAP2 POP POP JUMP JUMPDEST PUSH1 0x0 DUP3 DUP3 MSTORE PUSH1 0x20 DUP3 ADD SWAP1 POP SWAP3 SWAP2 POP POP JUMP JUMPDEST PUSH1 0x0 PUSH2 0x2CFA DUP3 PUSH2 0x2D61 JUMP JUMPDEST SWAP2 POP PUSH2 0x2D05 DUP4 PUSH2 0x2D61 JUMP JUMPDEST SWAP3 POP DUP3 DUP3 LT ISZERO PUSH2 0x2D18 JUMPI PUSH2 0x2D17 PUSH2 0x2E35 JUMP JUMPDEST JUMPDEST DUP3 DUP3 SUB SWAP1 POP SWAP3 SWAP2 POP POP JUMP JUMPDEST PUSH1 0x0 PUSH2 0x2D2E DUP3 PUSH2 0x2D41 JUMP JUMPDEST SWAP1 POP SWAP2 SWAP1 POP JUMP JUMPDEST PUSH1 0x0 DUP2 ISZERO ISZERO SWAP1 POP SWAP2 SWAP1 POP JUMP JUMPDEST PUSH1 0x0 PUSH20 0xFFFFFFFFFFFFFFFFFFFFFFFFFFFFFFFFFFFFFFFF DUP3 AND SWAP1 POP SWAP2 SWAP1 POP JUMP JUMPDEST PUSH1 0x0 DUP2 SWAP1 POP SWAP2 SWAP1 POP JUMP JUMPDEST PUSH1 0x0 PUSH1 0xFF DUP3 AND SWAP1 POP SWAP2 SWAP1 POP JUMP JUMPDEST DUP3 DUP2 DUP4 CALLDATACOPY PUSH1 0x0 DUP4 DUP4 ADD MSTORE POP POP POP JUMP JUMPDEST PUSH1 0x0 JUMPDEST DUP4 DUP2 LT ISZERO PUSH2 0x2DA5 JUMPI DUP1 DUP3 ADD MLOAD DUP2 DUP5 ADD MSTORE PUSH1 0x20 DUP2 ADD SWAP1 POP PUSH2 0x2D8A JUMP JUMPDEST DUP4 DUP2 GT ISZERO PUSH2 0x2DB4 JUMPI PUSH1 0x0 DUP5 DUP5 ADD MSTORE JUMPDEST POP POP POP POP JUMP JUMPDEST PUSH1 0x0 PUSH1 0x2 DUP3 DIV SWAP1 POP PUSH1 0x1 DUP3 AND DUP1 PUSH2 0x2DD2 JUMPI PUSH1 0x7F DUP3 AND SWAP2 POP JUMPDEST PUSH1 0x20 DUP3 LT DUP2 EQ ISZERO PUSH2 0x2DE6 JUMPI PUSH2 0x2DE5 PUSH2 0x2E64 JUMP JUMPDEST JUMPDEST POP SWAP2 SWAP1 POP JUMP JUMPDEST PUSH1 0x0 PUSH2 0x2DF7 DUP3 PUSH2 0x2D61 JUMP JUMPDEST SWAP2 POP PUSH32 0xFFFFFFFFFFFFFFFFFFFFFFFFFFFFFFFFFFFFFFFFFFFFFFFFFFFFFFFFFFFFFFFF DUP3 EQ ISZERO PUSH2 0x2E2A JUMPI PUSH2 0x2E29 PUSH2 0x2E35 JUMP JUMPDEST JUMPDEST PUSH1 0x1 DUP3 ADD SWAP1 POP SWAP2 SWAP1 POP JUMP JUMPDEST PUSH32 0x4E487B7100000000000000000000000000000000000000000000000000000000 PUSH1 0x0 MSTORE PUSH1 0x11 PUSH1 0x4 MSTORE PUSH1 0x24 PUSH1 0x0 REVERT JUMPDEST PUSH32 0x4E487B7100000000000000000000000000000000000000000000000000000000 PUSH1 0x0 MSTORE PUSH1 0x22 PUSH1 0x4 MSTORE PUSH1 0x24 PUSH1 0x0 REVERT JUMPDEST PUSH32 0x4E487B7100000000000000000000000000000000000000000000000000000000 PUSH1 0x0 MSTORE PUSH1 0x41 PUSH1 0x4 MSTORE PUSH1 0x24 PUSH1 0x0 REVERT JUMPDEST PUSH1 0x0 PUSH1 0x1F NOT PUSH1 0x1F DUP4 ADD AND SWAP1 POP SWAP2 SWAP1 POP JUMP JUMPDEST PUSH2 0x2EDC DUP2 PUSH2 0x2D23 JUMP JUMPDEST DUP2 EQ PUSH2 0x2EE7 JUMPI PUSH1 0x0 DUP1 REVERT JUMPDEST POP JUMP JUMPDEST PUSH2 0x2EF3 DUP2 PUSH2 0x2D61 JUMP JUMPDEST DUP2 EQ PUSH2 0x2EFE JUMPI PUSH1 0x0 DUP1 REVERT JUMPDEST POP JUMP JUMPDEST PUSH2 0x2F0A DUP2 PUSH2 0x2D6B JUMP JUMPDEST DUP2 EQ PUSH2 0x2F15 JUMPI PUSH1 0x0 DUP1 REVERT JUMPDEST POP JUMP INVALID SELFBALANCE PUSH22 0x69612064652054757269737461732072656769737472 PUSH2 0x646F KECCAK256 PUSH4 0x6F6E2065 PUSH25 0x69746F4775696120646520547572697374617320656C696D69 PUSH15 0x61646F20636F6E20657869746FA264 PUSH10 0x70667358221220E179E6 0x26 REVERT STATICCALL 0xC0 0xC0 0xBB 0xAC 0xE 0x5C PUSH29 0x1DCC92A0DFA7053312A014977F0FA934F466BF64736F6C634300080000 CALLER "
				},
				"gasEstimates": {
					"creation": {
						"codeDepositCost": "2436600",
						"executionCost": "23486",
						"totalCost": "2460086"
					},
					"external": {
						"duenno()": "1255",
						"eliminarGuiaTurista(address)": "infinite",
						"eliminarTurista(address)": "infinite",
						"guiasRegistrados(address)": "infinite",
						"listaGuias(uint256)": "infinite",
						"listaTuristas(uint256)": "infinite",
						"registrarGuiaTurista(address,string)": "infinite",
						"registrarTurista(address,string,uint8)": "infinite",
						"turistasRegistrados(address)": "infinite",
						"verGuia(address)": "infinite",
						"verGuias()": "infinite",
						"verTurista(address)": "infinite",
						"verTuristas()": "infinite"
					}
				},
				"methodIdentifiers": {
					"duenno()": "9dc43f77",
					"eliminarGuiaTurista(address)": "2bdaa8c9",
					"eliminarTurista(address)": "0e768dbf",
					"guiasRegistrados(address)": "5ac34098",
					"listaGuias(uint256)": "711422d6",
					"listaTuristas(uint256)": "f0963a11",
					"registrarGuiaTurista(address,string)": "2eb72875",
					"registrarTurista(address,string,uint8)": "5922f385",
					"turistasRegistrados(address)": "40280a63",
					"verGuia(address)": "db096f25",
					"verGuias()": "966549e5",
					"verTurista(address)": "8e12bf87",
					"verTuristas()": "47c58865"
				}
			},
			"storageLayout": {
				"storage": [
					{
						"astId": 19,
						"contract": "contracts/Usuarios.sol:Usuarios",
						"label": "duenno",
						"offset": 0,
						"slot": "0",
						"type": "t_address"
					},
					{
						"astId": 23,
						"contract": "contracts/Usuarios.sol:Usuarios",
						"label": "listaGuias",
						"offset": 0,
						"slot": "1",
						"type": "t_array(t_struct(GuiaTuristas)8_storage)dyn_storage"
					},
					{
						"astId": 27,
						"contract": "contracts/Usuarios.sol:Usuarios",
						"label": "listaTuristas",
						"offset": 0,
						"slot": "2",
						"type": "t_array(t_struct(Turista)17_storage)dyn_storage"
					},
					{
						"astId": 41,
						"contract": "contracts/Usuarios.sol:Usuarios",
						"label": "guiasRegistrados",
						"offset": 0,
						"slot": "3",
						"type": "t_mapping(t_address,t_struct(GuiaTuristas)8_storage)"
					},
					{
						"astId": 46,
						"contract": "contracts/Usuarios.sol:Usuarios",
						"label": "turistasRegistrados",
						"offset": 0,
						"slot": "4",
						"type": "t_mapping(t_address,t_struct(Turista)17_storage)"
					}
				],
				"types": {
					"t_address": {
						"encoding": "inplace",
						"label": "address",
						"numberOfBytes": "20"
					},
					"t_array(t_struct(GuiaTuristas)8_storage)dyn_storage": {
						"base": "t_struct(GuiaTuristas)8_storage",
						"encoding": "dynamic_array",
						"label": "struct Usuarios.GuiaTuristas[]",
						"numberOfBytes": "32"
					},
					"t_array(t_struct(Turista)17_storage)dyn_storage": {
						"base": "t_struct(Turista)17_storage",
						"encoding": "dynamic_array",
						"label": "struct Usuarios.Turista[]",
						"numberOfBytes": "32"
					},
					"t_bool": {
						"encoding": "inplace",
						"label": "bool",
						"numberOfBytes": "1"
					},
					"t_mapping(t_address,t_struct(GuiaTuristas)8_storage)": {
						"encoding": "mapping",
						"key": "t_address",
						"label": "mapping(address => struct Usuarios.GuiaTuristas)",
						"numberOfBytes": "32",
						"value": "t_struct(GuiaTuristas)8_storage"
					},
					"t_mapping(t_address,t_struct(Turista)17_storage)": {
						"encoding": "mapping",
						"key": "t_address",
						"label": "mapping(address => struct Usuarios.Turista)",
						"numberOfBytes": "32",
						"value": "t_struct(Turista)17_storage"
					},
					"t_string_storage": {
						"encoding": "bytes",
						"label": "string",
						"numberOfBytes": "32"
					},
					"t_struct(GuiaTuristas)8_storage": {
						"encoding": "inplace",
						"label": "struct Usuarios.GuiaTuristas",
						"members": [
							{
								"astId": 3,
								"contract": "contracts/Usuarios.sol:Usuarios",
								"label": "cuenta",
								"offset": 0,
								"slot": "0",
								"type": "t_address"
							},
							{
								"astId": 5,
								"contract": "contracts/Usuarios.sol:Usuarios",
								"label": "nombreCompleto",
								"offset": 0,
								"slot": "1",
								"type": "t_string_storage"
							},
							{
								"astId": 7,
								"contract": "contracts/Usuarios.sol:Usuarios",
								"label": "estado",
								"offset": 0,
								"slot": "2",
								"type": "t_bool"
							}
						],
						"numberOfBytes": "96"
					},
					"t_struct(Turista)17_storage": {
						"encoding": "inplace",
						"label": "struct Usuarios.Turista",
						"members": [
							{
								"astId": 10,
								"contract": "contracts/Usuarios.sol:Usuarios",
								"label": "cuenta",
								"offset": 0,
								"slot": "0",
								"type": "t_address"
							},
							{
								"astId": 12,
								"contract": "contracts/Usuarios.sol:Usuarios",
								"label": "nombreCompleto",
								"offset": 0,
								"slot": "1",
								"type": "t_string_storage"
							},
							{
								"astId": 14,
								"contract": "contracts/Usuarios.sol:Usuarios",
								"label": "edad",
								"offset": 0,
								"slot": "2",
								"type": "t_uint8"
							},
							{
								"astId": 16,
								"contract": "contracts/Usuarios.sol:Usuarios",
								"label": "estado",
								"offset": 1,
								"slot": "2",
								"type": "t_bool"
							}
						],
						"numberOfBytes": "96"
					},
					"t_uint8": {
						"encoding": "inplace",
						"label": "uint8",
						"numberOfBytes": "1"
					}
				}
			},
			"userdoc": {
				"kind": "user",
				"methods": {},
				"version": 1
			}
		}
	}
}