{
	"data": {
		"bytecode": {
			"linkReferences": {},
			"object": "608060405234801561000f575f5ffd5b5060405161201c38038061201c83398181016040528101906100319190610114565b805f5f6101000a81548173ffffffffffffffffffffffffffffffffffffffff021916908373ffffffffffffffffffffffffffffffffffffffff1602179055503360015f6101000a81548173ffffffffffffffffffffffffffffffffffffffff021916908373ffffffffffffffffffffffffffffffffffffffff1602179055505061013f565b5f5ffd5b5f73ffffffffffffffffffffffffffffffffffffffff82169050919050565b5f6100e3826100ba565b9050919050565b6100f3816100d9565b81146100fd575f5ffd5b50565b5f8151905061010e816100ea565b92915050565b5f60208284031215610129576101286100b6565b5b5f61013684828501610100565b91505092915050565b611ed08061014c5f395ff3fe608060405234801561000f575f5ffd5b5060043610610086575f3560e01c80637b21b786116100595780637b21b786146101265780639c9eea79146101565780639dc43f771461018a578063bcfbb717146101a857610086565b80632f8db5741461008a5780633448e618146100a8578063677c8d60146100c657806377acb280146100f6575b5f5ffd5b6100926101d8565b60405161009f919061109e565b60405180910390f35b6100b06103b4565b6040516100bd9190611119565b60405180910390f35b6100e060048036038101906100db91906112c3565b6103d8565b6040516100ed919061138b565b60405180910390f35b610110600480360381019061010b91906113ab565b6106c2565b60405161011d9190611465565b60405180910390f35b610140600480360381019061013b9190611485565b6108b0565b60405161014d91906114fd565b60405180910390f35b610170600480360381019061016b919061151d565b61095a565b604051610181959493929190611575565b60405180910390f35b610192610a4d565b60405161019f91906115cd565b60405180910390f35b6101c260048036038101906101bd91906113ab565b610a72565b6040516101cf919061138b565b60405180910390f35b606060028054905067ffffffffffffffff8111156101f9576101f861114b565b5b60405190808252806020026020018201604052801561023257816020015b61021f610dbd565b8152602001906001900390816102175790505b5090505f5f90505b6002805490508110156103b0576002818154811061025b5761025a6115e6565b5b905f5260205f2090600402016040518060a00160405290815f8201805461028190611640565b80601f01602080910402602001604051908101604052809291908181526020018280546102ad90611640565b80156102f85780601f106102cf576101008083540402835291602001916102f8565b820191905f5260205f20905b8154815290600101906020018083116102db57829003601f168201915b505050505081526020016001820154815260200160028201548152602001600382015f9054906101000a900473ffffffffffffffffffffffffffffffffffffffff1673ffffffffffffffffffffffffffffffffffffffff1673ffffffffffffffffffffffffffffffffffffffff1681526020016003820160149054906101000a900460ff161515151581525050828281518110610398576103976115e6565b5b6020026020010181905250808060010191505061023a565b5090565b5f5f9054906101000a900473ffffffffffffffffffffffffffffffffffffffff1681565b606060015f9054906101000a900473ffffffffffffffffffffffffffffffffffffffff1673ffffffffffffffffffffffffffffffffffffffff163373ffffffffffffffffffffffffffffffffffffffff1614610469576040517f08c379a0000000000000000000000000000000000000000000000000000000008152600401610460906116e0565b60405180910390fd5b5f5f90505b60028054905081101561051d578560405160200161048c9190611738565b60405160208183030381529060405280519060200120600282815481106104b6576104b56115e6565b5b905f5260205f2090600402015f016040516020016104d491906117e0565b604051602081830303815290604052805190602001200361051057604051806060016040528060238152602001611e53602391399150506106ba565b808060010191505061046e565b50610527826108b0565b6040015161056a576040517f08c379a000000000000000000000000000000000000000000000000000000000815260040161056190611840565b60405180910390fd5b5f6040518060a001604052808781526020018681526020018581526020018473ffffffffffffffffffffffffffffffffffffffff168152602001600115158152509050600281908060018154018082558091505060019003905f5260205f2090600402015f909190919091505f820151815f0190816105e991906119e3565b5060208201518160010155604082015181600201556060820151816003015f6101000a81548173ffffffffffffffffffffffffffffffffffffffff021916908373ffffffffffffffffffffffffffffffffffffffff16021790555060808201518160030160146101000a81548160ff02191690831515021790555050507fca17e40837247a20fb362c9d14af4021d389c6090bd3fb27a0447e4b48605a6486604051610695919061138b565b60405180910390a1604051806060016040528060258152602001611e76602591399150505b949350505050565b6106ca610dbd565b6106d2610dbd565b5f5f90505b6002805490508110156108a657836040516020016106f59190611738565b604051602081830303815290604052805190602001206002828154811061071f5761071e6115e6565b5b905f5260205f2090600402015f0160405160200161073d91906117e0565b6040516020818303038152906040528051906020012003610899576002818154811061076c5761076b6115e6565b5b905f5260205f2090600402016040518060a00160405290815f8201805461079290611640565b80601f01602080910402602001604051908101604052809291908181526020018280546107be90611640565b80156108095780601f106107e057610100808354040283529160200191610809565b820191905f5260205f20905b8154815290600101906020018083116107ec57829003601f168201915b505050505081526020016001820154815260200160028201548152602001600382015f9054906101000a900473ffffffffffffffffffffffffffffffffffffffff1673ffffffffffffffffffffffffffffffffffffffff1673ffffffffffffffffffffffffffffffffffffffff1681526020016003820160149054906101000a900460ff16151515158152505091505b80806001019150506106d7565b5080915050919050565b6108b8610e00565b5f5f9054906101000a900473ffffffffffffffffffffffffffffffffffffffff1673ffffffffffffffffffffffffffffffffffffffff1663db096f25836040518263ffffffff1660e01b815260040161091191906115cd565b5f60405180830381865afa15801561092b573d5f5f3e3d5ffd5b505050506040513d5f823e3d601f19601f820116820180604052508101906109539190611be3565b9050919050565b60028181548110610969575f80fd5b905f5260205f2090600402015f91509050805f01805461098890611640565b80601f01602080910402602001604051908101604052809291908181526020018280546109b490611640565b80156109ff5780601f106109d6576101008083540402835291602001916109ff565b820191905f5260205f20905b8154815290600101906020018083116109e257829003601f168201915b505050505090806001015490806002015490806003015f9054906101000a900473ffffffffffffffffffffffffffffffffffffffff16908060030160149054906101000a900460ff16905085565b60015f9054906101000a900473ffffffffffffffffffffffffffffffffffffffff1681565b606060015f9054906101000a900473ffffffffffffffffffffffffffffffffffffffff1673ffffffffffffffffffffffffffffffffffffffff163373ffffffffffffffffffffffffffffffffffffffff1614610b03576040517f08c379a0000000000000000000000000000000000000000000000000000000008152600401610afa906116e0565b60405180910390fd5b5f5f90505b600280549050811015610d7f5782604051602001610b269190611738565b6040516020818303038152906040528051906020012060028281548110610b5057610b4f6115e6565b5b905f5260205f2090600402015f01604051602001610b6e91906117e0565b6040516020818303038152906040528051906020012003610d72577fb9d054d123e5bd7462631f9f9fa04f74ac813dcc6057de9bbbef353ae5fe17db60028281548110610bbe57610bbd6115e6565b5b905f5260205f2090600402015f01604051610bd99190611cab565b60405180910390a160026001600280549050610bf59190611cf8565b81548110610c0657610c056115e6565b5b905f5260205f20906004020160028281548110610c2657610c256115e6565b5b905f5260205f2090600402015f8201815f019081610c449190611d40565b506001820154816001015560028201548160020155600382015f9054906101000a900473ffffffffffffffffffffffffffffffffffffffff16816003015f6101000a81548173ffffffffffffffffffffffffffffffffffffffff021916908373ffffffffffffffffffffffffffffffffffffffff1602179055506003820160149054906101000a900460ff168160030160146101000a81548160ff0219169083151502179055509050506002805480610d0057610cff611e25565b5b600190038181905f5260205f2090600402015f5f82015f610d219190610e37565b600182015f9055600282015f9055600382015f6101000a81549073ffffffffffffffffffffffffffffffffffffffff02191690556003820160146101000a81549060ff021916905550509055610d7f565b8080600101915050610b08565b506040518060400160405280601981526020017f4c7567617220656c696d696e61646f20636f6e20657869746f000000000000008152509050919050565b6040518060a00160405280606081526020015f81526020015f81526020015f73ffffffffffffffffffffffffffffffffffffffff1681526020015f151581525090565b60405180606001604052805f73ffffffffffffffffffffffffffffffffffffffff168152602001606081526020015f151581525090565b508054610e4390611640565b5f825580601f10610e545750610e71565b601f0160209004905f5260205f2090810190610e709190610e74565b5b50565b5b80821115610e8b575f815f905550600101610e75565b5090565b5f81519050919050565b5f82825260208201905092915050565b5f819050602082019050919050565b5f81519050919050565b5f82825260208201905092915050565b8281835e5f83830152505050565b5f601f19601f8301169050919050565b5f610efa82610eb8565b610f048185610ec2565b9350610f14818560208601610ed2565b610f1d81610ee0565b840191505092915050565b5f819050919050565b610f3a81610f28565b82525050565b5f73ffffffffffffffffffffffffffffffffffffffff82169050919050565b5f610f6982610f40565b9050919050565b610f7981610f5f565b82525050565b5f8115159050919050565b610f9381610f7f565b82525050565b5f60a083015f8301518482035f860152610fb38282610ef0565b9150506020830151610fc86020860182610f31565b506040830151610fdb6040860182610f31565b506060830151610fee6060860182610f70565b5060808301516110016080860182610f8a565b508091505092915050565b5f6110178383610f99565b905092915050565b5f602082019050919050565b5f61103582610e8f565b61103f8185610e99565b93508360208202850161105185610ea9565b805f5b8581101561108c578484038952815161106d858261100c565b94506110788361101f565b925060208a01995050600181019050611054565b50829750879550505050505092915050565b5f6020820190508181035f8301526110b6818461102b565b905092915050565b5f819050919050565b5f6110e16110dc6110d784610f40565b6110be565b610f40565b9050919050565b5f6110f2826110c7565b9050919050565b5f611103826110e8565b9050919050565b611113816110f9565b82525050565b5f60208201905061112c5f83018461110a565b92915050565b5f604051905090565b5f5ffd5b5f5ffd5b5f5ffd5b5f5ffd5b7f4e487b71000000000000000000000000000000000000000000000000000000005f52604160045260245ffd5b61118182610ee0565b810181811067ffffffffffffffff821117156111a05761119f61114b565b5b80604052505050565b5f6111b2611132565b90506111be8282611178565b919050565b5f67ffffffffffffffff8211156111dd576111dc61114b565b5b6111e682610ee0565b9050602081019050919050565b828183375f83830152505050565b5f61121361120e846111c3565b6111a9565b90508281526020810184848401111561122f5761122e611147565b5b61123a8482856111f3565b509392505050565b5f82601f83011261125657611255611143565b5b8135611266848260208601611201565b91505092915050565b61127881610f28565b8114611282575f5ffd5b50565b5f813590506112938161126f565b92915050565b6112a281610f5f565b81146112ac575f5ffd5b50565b5f813590506112bd81611299565b92915050565b5f5f5f5f608085870312156112db576112da61113b565b5b5f85013567ffffffffffffffff8111156112f8576112f761113f565b5b61130487828801611242565b945050602061131587828801611285565b935050604061132687828801611285565b9250506060611337878288016112af565b91505092959194509250565b5f82825260208201905092915050565b5f61135d82610eb8565b6113678185611343565b9350611377818560208601610ed2565b61138081610ee0565b840191505092915050565b5f6020820190508181035f8301526113a38184611353565b905092915050565b5f602082840312156113c0576113bf61113b565b5b5f82013567ffffffffffffffff8111156113dd576113dc61113f565b5b6113e984828501611242565b91505092915050565b5f60a083015f8301518482035f86015261140c8282610ef0565b91505060208301516114216020860182610f31565b5060408301516114346040860182610f31565b5060608301516114476060860182610f70565b50608083015161145a6080860182610f8a565b508091505092915050565b5f6020820190508181035f83015261147d81846113f2565b905092915050565b5f6020828403121561149a5761149961113b565b5b5f6114a7848285016112af565b91505092915050565b5f606083015f8301516114c55f860182610f70565b50602083015184820360208601526114dd8282610ef0565b91505060408301516114f26040860182610f8a565b508091505092915050565b5f6020820190508181035f83015261151581846114b0565b905092915050565b5f602082840312156115325761153161113b565b5b5f61153f84828501611285565b91505092915050565b61155181610f28565b82525050565b61156081610f5f565b82525050565b61156f81610f7f565b82525050565b5f60a0820190508181035f83015261158d8188611353565b905061159c6020830187611548565b6115a96040830186611548565b6115b66060830185611557565b6115c36080830184611566565b9695505050505050565b5f6020820190506115e05f830184611557565b92915050565b7f4e487b71000000000000000000000000000000000000000000000000000000005f52603260045260245ffd5b7f4e487b71000000000000000000000000000000000000000000000000000000005f52602260045260245ffd5b5f600282049050600182168061165757607f821691505b60208210810361166a57611669611613565b5b50919050565b7f536f6c6f20656c204475656e6e6f207075656465207265616c697a61722065735f8201527f746120616363696f6e0000000000000000000000000000000000000000000000602082015250565b5f6116ca602983611343565b91506116d582611670565b604082019050919050565b5f6020820190508181035f8301526116f7816116be565b9050919050565b5f81905092915050565b5f61171282610eb8565b61171c81856116fe565b935061172c818560208601610ed2565b80840191505092915050565b5f6117438284611708565b915081905092915050565b5f819050815f5260205f209050919050565b5f815461176c81611640565b61177681866116fe565b9450600182165f811461179057600181146117a5576117d7565b60ff19831686528115158202860193506117d7565b6117ae8561174e565b5f5b838110156117cf578154818901526001820191506020810190506117b0565b838801955050505b50505092915050565b5f6117eb8284611760565b915081905092915050565b7f44656265722073657220756e2067756961207265676973747261646f000000005f82015250565b5f61182a601c83611343565b9150611835826117f6565b602082019050919050565b5f6020820190508181035f8301526118578161181e565b9050919050565b5f6020601f8301049050919050565b5f82821b905092915050565b5f600883026118a87fffffffffffffffffffffffffffffffffffffffffffffffffffffffffffffffff8261186d565b6118b2868361186d565b95508019841693508086168417925050509392505050565b5f6118e46118df6118da84610f28565b6110be565b610f28565b9050919050565b5f819050919050565b6118fd836118ca565b611911611909826118eb565b848454611879565b825550505050565b5f5f905090565b611928611919565b6119338184846118f4565b505050565b5b818110156119565761194b5f82611920565b600181019050611939565b5050565b601f82111561199b5761196c8161174e565b6119758461185e565b81016020851015611984578190505b6119986119908561185e565b830182611938565b50505b505050565b5f82821c905092915050565b5f6119bb5f19846008026119a0565b1980831691505092915050565b5f6119d383836119ac565b9150826002028217905092915050565b6119ec82610eb8565b67ffffffffffffffff811115611a0557611a0461114b565b5b611a0f8254611640565b611a1a82828561195a565b5f60209050601f831160018114611a4b575f8415611a39578287015190505b611a4385826119c8565b865550611aaa565b601f198416611a598661174e565b5f5b82811015611a8057848901518255600182019150602085019450602081019050611a5b565b86831015611a9d5784890151611a99601f8916826119ac565b8355505b6001600288020188555050505b505050505050565b5f5ffd5b5f5ffd5b5f81519050611ac881611299565b92915050565b5f611ae0611adb846111c3565b6111a9565b905082815260208101848484011115611afc57611afb611147565b5b611b07848285610ed2565b509392505050565b5f82601f830112611b2357611b22611143565b5b8151611b33848260208601611ace565b91505092915050565b611b4581610f7f565b8114611b4f575f5ffd5b50565b5f81519050611b6081611b3c565b92915050565b5f60608284031215611b7b57611b7a611ab2565b5b611b8560606111a9565b90505f611b9484828501611aba565b5f83015250602082015167ffffffffffffffff811115611bb757611bb6611ab6565b5b611bc384828501611b0f565b6020830152506040611bd784828501611b52565b60408301525092915050565b5f60208284031215611bf857611bf761113b565b5b5f82015167ffffffffffffffff811115611c1557611c1461113f565b5b611c2184828501611b66565b91505092915050565b5f8154611c3681611640565b611c408186611343565b9450600182165f8114611c5a5760018114611c7057611ca2565b60ff198316865281151560200286019350611ca2565b611c798561174e565b5f5b83811015611c9a57815481890152600182019150602081019050611c7b565b808801955050505b50505092915050565b5f6020820190508181035f830152611cc38184611c2a565b905092915050565b7f4e487b71000000000000000000000000000000000000000000000000000000005f52601160045260245ffd5b5f611d0282610f28565b9150611d0d83610f28565b9250828203905081811115611d2557611d24611ccb565b5b92915050565b5f81549050611d3981611640565b9050919050565b818103611d4e575050611e23565b611d5782611d2b565b67ffffffffffffffff811115611d7057611d6f61114b565b5b611d7a8254611640565b611d8582828561195a565b5f601f831160018114611db2575f8415611da0578287015490505b611daa85826119c8565b865550611e1c565b601f198416611dc08761174e565b9650611dcb8661174e565b5f5b82811015611df257848901548255600182019150600185019450602081019050611dcd565b86831015611e0f5784890154611e0b601f8916826119ac565b8355505b6001600288020188555050505b5050505050505b565b7f4e487b71000000000000000000000000000000000000000000000000000000005f52603160045260245ffdfe456c206c7567617220796120736520656e6375656e747261207265676973747261646f47756961206465205475726973746173207265676973747261646f20636f6e20657869746fa264697066735822122010df5c12705313d423081227fa0a43d9224866315890841e03573783baca22c964736f6c634300081e0033",
			"opcodes": "PUSH1 0x80 PUSH1 0x40 MSTORE CALLVALUE DUP1 ISZERO PUSH2 0xF JUMPI PUSH0 PUSH0 REVERT JUMPDEST POP PUSH1 0x40 MLOAD PUSH2 0x201C CODESIZE SUB DUP1 PUSH2 0x201C DUP4 CODECOPY DUP2 DUP2 ADD PUSH1 0x40 MSTORE DUP2 ADD SWAP1 PUSH2 0x31 SWAP2 SWAP1 PUSH2 0x114 JUMP JUMPDEST DUP1 PUSH0 PUSH0 PUSH2 0x100 EXP DUP2 SLOAD DUP2 PUSH20 0xFFFFFFFFFFFFFFFFFFFFFFFFFFFFFFFFFFFFFFFF MUL NOT AND SWAP1 DUP4 PUSH20 0xFFFFFFFFFFFFFFFFFFFFFFFFFFFFFFFFFFFFFFFF AND MUL OR SWAP1 SSTORE POP CALLER PUSH1 0x1 PUSH0 PUSH2 0x100 EXP DUP2 SLOAD DUP2 PUSH20 0xFFFFFFFFFFFFFFFFFFFFFFFFFFFFFFFFFFFFFFFF MUL NOT AND SWAP1 DUP4 PUSH20 0xFFFFFFFFFFFFFFFFFFFFFFFFFFFFFFFFFFFFFFFF AND MUL OR SWAP1 SSTORE POP POP PUSH2 0x13F JUMP JUMPDEST PUSH0 PUSH0 REVERT JUMPDEST PUSH0 PUSH20 0xFFFFFFFFFFFFFFFFFFFFFFFFFFFFFFFFFFFFFFFF DUP3 AND SWAP1 POP SWAP2 SWAP1 POP JUMP JUMPDEST PUSH0 PUSH2 0xE3 DUP3 PUSH2 0xBA JUMP JUMPDEST SWAP1 POP SWAP2 SWAP1 POP JUMP JUMPDEST PUSH2 0xF3 DUP2 PUSH2 0xD9 JUMP JUMPDEST DUP2 EQ PUSH2 0xFD JUMPI PUSH0 PUSH0 REVERT JUMPDEST POP JUMP JUMPDEST PUSH0 DUP2 MLOAD SWAP1 POP PUSH2 0x10E DUP2 PUSH2 0xEA JUMP JUMPDEST SWAP3 SWAP2 POP POP JUMP JUMPDEST PUSH0 PUSH1 0x20 DUP3 DUP5 SUB SLT ISZERO PUSH2 0x129 JUMPI PUSH2 0x128 PUSH2 0xB6 JUMP JUMPDEST JUMPDEST PUSH0 PUSH2 0x136 DUP5 DUP3 DUP6 ADD PUSH2 0x100 JUMP JUMPDEST SWAP2 POP POP SWAP3 SWAP2 POP POP JUMP JUMPDEST PUSH2 0x1ED0 DUP1 PUSH2 0x14C PUSH0 CODECOPY PUSH0 RETURN INVALID PUSH1 0x80 PUSH1 0x40 MSTORE CALLVALUE DUP1 ISZERO PUSH2 0xF JUMPI PUSH0 PUSH0 REVERT JUMPDEST POP PUSH1 0x4 CALLDATASIZE LT PUSH2 0x86 JUMPI PUSH0 CALLDATALOAD PUSH1 0xE0 SHR DUP1 PUSH4 0x7B21B786 GT PUSH2 0x59 JUMPI DUP1 PUSH4 0x7B21B786 EQ PUSH2 0x126 JUMPI DUP1 PUSH4 0x9C9EEA79 EQ PUSH2 0x156 JUMPI DUP1 PUSH4 0x9DC43F77 EQ PUSH2 0x18A JUMPI DUP1 PUSH4 0xBCFBB717 EQ PUSH2 0x1A8 JUMPI PUSH2 0x86 JUMP JUMPDEST DUP1 PUSH4 0x2F8DB574 EQ PUSH2 0x8A JUMPI DUP1 PUSH4 0x3448E618 EQ PUSH2 0xA8 JUMPI DUP1 PUSH4 0x677C8D60 EQ PUSH2 0xC6 JUMPI DUP1 PUSH4 0x77ACB280 EQ PUSH2 0xF6 JUMPI JUMPDEST PUSH0 PUSH0 REVERT JUMPDEST PUSH2 0x92 PUSH2 0x1D8 JUMP JUMPDEST PUSH1 0x40 MLOAD PUSH2 0x9F SWAP2 SWAP1 PUSH2 0x109E JUMP JUMPDEST PUSH1 0x40 MLOAD DUP1 SWAP2 SUB SWAP1 RETURN JUMPDEST PUSH2 0xB0 PUSH2 0x3B4 JUMP JUMPDEST PUSH1 0x40 MLOAD PUSH2 0xBD SWAP2 SWAP1 PUSH2 0x1119 JUMP JUMPDEST PUSH1 0x40 MLOAD DUP1 SWAP2 SUB SWAP1 RETURN JUMPDEST PUSH2 0xE0 PUSH1 0x4 DUP1 CALLDATASIZE SUB DUP2 ADD SWAP1 PUSH2 0xDB SWAP2 SWAP1 PUSH2 0x12C3 JUMP JUMPDEST PUSH2 0x3D8 JUMP JUMPDEST PUSH1 0x40 MLOAD PUSH2 0xED SWAP2 SWAP1 PUSH2 0x138B JUMP JUMPDEST PUSH1 0x40 MLOAD DUP1 SWAP2 SUB SWAP1 RETURN JUMPDEST PUSH2 0x110 PUSH1 0x4 DUP1 CALLDATASIZE SUB DUP2 ADD SWAP1 PUSH2 0x10B SWAP2 SWAP1 PUSH2 0x13AB JUMP JUMPDEST PUSH2 0x6C2 JUMP JUMPDEST PUSH1 0x40 MLOAD PUSH2 0x11D SWAP2 SWAP1 PUSH2 0x1465 JUMP JUMPDEST PUSH1 0x40 MLOAD DUP1 SWAP2 SUB SWAP1 RETURN JUMPDEST PUSH2 0x140 PUSH1 0x4 DUP1 CALLDATASIZE SUB DUP2 ADD SWAP1 PUSH2 0x13B SWAP2 SWAP1 PUSH2 0x1485 JUMP JUMPDEST PUSH2 0x8B0 JUMP JUMPDEST PUSH1 0x40 MLOAD PUSH2 0x14D SWAP2 SWAP1 PUSH2 0x14FD JUMP JUMPDEST PUSH1 0x40 MLOAD DUP1 SWAP2 SUB SWAP1 RETURN JUMPDEST PUSH2 0x170 PUSH1 0x4 DUP1 CALLDATASIZE SUB DUP2 ADD SWAP1 PUSH2 0x16B SWAP2 SWAP1 PUSH2 0x151D JUMP JUMPDEST PUSH2 0x95A JUMP JUMPDEST PUSH1 0x40 MLOAD PUSH2 0x181 SWAP6 SWAP5 SWAP4 SWAP3 SWAP2 SWAP1 PUSH2 0x1575 JUMP JUMPDEST PUSH1 0x40 MLOAD DUP1 SWAP2 SUB SWAP1 RETURN JUMPDEST PUSH2 0x192 PUSH2 0xA4D JUMP JUMPDEST PUSH1 0x40 MLOAD PUSH2 0x19F SWAP2 SWAP1 PUSH2 0x15CD JUMP JUMPDEST PUSH1 0x40 MLOAD DUP1 SWAP2 SUB SWAP1 RETURN JUMPDEST PUSH2 0x1C2 PUSH1 0x4 DUP1 CALLDATASIZE SUB DUP2 ADD SWAP1 PUSH2 0x1BD SWAP2 SWAP1 PUSH2 0x13AB JUMP JUMPDEST PUSH2 0xA72 JUMP JUMPDEST PUSH1 0x40 MLOAD PUSH2 0x1CF SWAP2 SWAP1 PUSH2 0x138B JUMP JUMPDEST PUSH1 0x40 MLOAD DUP1 SWAP2 SUB SWAP1 RETURN JUMPDEST PUSH1 0x60 PUSH1 0x2 DUP1 SLOAD SWAP1 POP PUSH8 0xFFFFFFFFFFFFFFFF DUP2 GT ISZERO PUSH2 0x1F9 JUMPI PUSH2 0x1F8 PUSH2 0x114B JUMP JUMPDEST JUMPDEST PUSH1 0x40 MLOAD SWAP1 DUP1 DUP3 MSTORE DUP1 PUSH1 0x20 MUL PUSH1 0x20 ADD DUP3 ADD PUSH1 0x40 MSTORE DUP1 ISZERO PUSH2 0x232 JUMPI DUP2 PUSH1 0x20 ADD JUMPDEST PUSH2 0x21F PUSH2 0xDBD JUMP JUMPDEST DUP2 MSTORE PUSH1 0x20 ADD SWAP1 PUSH1 0x1 SWAP1 SUB SWAP1 DUP2 PUSH2 0x217 JUMPI SWAP1 POP JUMPDEST POP SWAP1 POP PUSH0 PUSH0 SWAP1 POP JUMPDEST PUSH1 0x2 DUP1 SLOAD SWAP1 POP DUP2 LT ISZERO PUSH2 0x3B0 JUMPI PUSH1 0x2 DUP2 DUP2 SLOAD DUP2 LT PUSH2 0x25B JUMPI PUSH2 0x25A PUSH2 0x15E6 JUMP JUMPDEST JUMPDEST SWAP1 PUSH0 MSTORE PUSH1 0x20 PUSH0 KECCAK256 SWAP1 PUSH1 0x4 MUL ADD PUSH1 0x40 MLOAD DUP1 PUSH1 0xA0 ADD PUSH1 0x40 MSTORE SWAP1 DUP2 PUSH0 DUP3 ADD DUP1 SLOAD PUSH2 0x281 SWAP1 PUSH2 0x1640 JUMP JUMPDEST DUP1 PUSH1 0x1F ADD PUSH1 0x20 DUP1 SWAP2 DIV MUL PUSH1 0x20 ADD PUSH1 0x40 MLOAD SWAP1 DUP2 ADD PUSH1 0x40 MSTORE DUP1 SWAP3 SWAP2 SWAP1 DUP2 DUP2 MSTORE PUSH1 0x20 ADD DUP3 DUP1 SLOAD PUSH2 0x2AD SWAP1 PUSH2 0x1640 JUMP JUMPDEST DUP1 ISZERO PUSH2 0x2F8 JUMPI DUP1 PUSH1 0x1F LT PUSH2 0x2CF JUMPI PUSH2 0x100 DUP1 DUP4 SLOAD DIV MUL DUP4 MSTORE SWAP2 PUSH1 0x20 ADD SWAP2 PUSH2 0x2F8 JUMP JUMPDEST DUP3 ADD SWAP2 SWAP1 PUSH0 MSTORE PUSH1 0x20 PUSH0 KECCAK256 SWAP1 JUMPDEST DUP2 SLOAD DUP2 MSTORE SWAP1 PUSH1 0x1 ADD SWAP1 PUSH1 0x20 ADD DUP1 DUP4 GT PUSH2 0x2DB JUMPI DUP3 SWAP1 SUB PUSH1 0x1F AND DUP3 ADD SWAP2 JUMPDEST POP POP POP POP POP DUP2 MSTORE PUSH1 0x20 ADD PUSH1 0x1 DUP3 ADD SLOAD DUP2 MSTORE PUSH1 0x20 ADD PUSH1 0x2 DUP3 ADD SLOAD DUP2 MSTORE PUSH1 0x20 ADD PUSH1 0x3 DUP3 ADD PUSH0 SWAP1 SLOAD SWAP1 PUSH2 0x100 EXP SWAP1 DIV PUSH20 0xFFFFFFFFFFFFFFFFFFFFFFFFFFFFFFFFFFFFFFFF AND PUSH20 0xFFFFFFFFFFFFFFFFFFFFFFFFFFFFFFFFFFFFFFFF AND PUSH20 0xFFFFFFFFFFFFFFFFFFFFFFFFFFFFFFFFFFFFFFFF AND DUP2 MSTORE PUSH1 0x20 ADD PUSH1 0x3 DUP3 ADD PUSH1 0x14 SWAP1 SLOAD SWAP1 PUSH2 0x100 EXP SWAP1 DIV PUSH1 0xFF AND ISZERO ISZERO ISZERO ISZERO DUP2 MSTORE POP POP DUP3 DUP3 DUP2 MLOAD DUP2 LT PUSH2 0x398 JUMPI PUSH2 0x397 PUSH2 0x15E6 JUMP JUMPDEST JUMPDEST PUSH1 0x20 MUL PUSH1 0x20 ADD ADD DUP2 SWAP1 MSTORE POP DUP1 DUP1 PUSH1 0x1 ADD SWAP2 POP POP PUSH2 0x23A JUMP JUMPDEST POP SWAP1 JUMP JUMPDEST PUSH0 PUSH0 SWAP1 SLOAD SWAP1 PUSH2 0x100 EXP SWAP1 DIV PUSH20 0xFFFFFFFFFFFFFFFFFFFFFFFFFFFFFFFFFFFFFFFF AND DUP2 JUMP JUMPDEST PUSH1 0x60 PUSH1 0x1 PUSH0 SWAP1 SLOAD SWAP1 PUSH2 0x100 EXP SWAP1 DIV PUSH20 0xFFFFFFFFFFFFFFFFFFFFFFFFFFFFFFFFFFFFFFFF AND PUSH20 0xFFFFFFFFFFFFFFFFFFFFFFFFFFFFFFFFFFFFFFFF AND CALLER PUSH20 0xFFFFFFFFFFFFFFFFFFFFFFFFFFFFFFFFFFFFFFFF AND EQ PUSH2 0x469 JUMPI PUSH1 0x40 MLOAD PUSH32 0x8C379A000000000000000000000000000000000000000000000000000000000 DUP2 MSTORE PUSH1 0x4 ADD PUSH2 0x460 SWAP1 PUSH2 0x16E0 JUMP JUMPDEST PUSH1 0x40 MLOAD DUP1 SWAP2 SUB SWAP1 REVERT JUMPDEST PUSH0 PUSH0 SWAP1 POP JUMPDEST PUSH1 0x2 DUP1 SLOAD SWAP1 POP DUP2 LT ISZERO PUSH2 0x51D JUMPI DUP6 PUSH1 0x40 MLOAD PUSH1 0x20 ADD PUSH2 0x48C SWAP2 SWAP1 PUSH2 0x1738 JUMP JUMPDEST PUSH1 0x40 MLOAD PUSH1 0x20 DUP2 DUP4 SUB SUB DUP2 MSTORE SWAP1 PUSH1 0x40 MSTORE DUP1 MLOAD SWAP1 PUSH1 0x20 ADD KECCAK256 PUSH1 0x2 DUP3 DUP2 SLOAD DUP2 LT PUSH2 0x4B6 JUMPI PUSH2 0x4B5 PUSH2 0x15E6 JUMP JUMPDEST JUMPDEST SWAP1 PUSH0 MSTORE PUSH1 0x20 PUSH0 KECCAK256 SWAP1 PUSH1 0x4 MUL ADD PUSH0 ADD PUSH1 0x40 MLOAD PUSH1 0x20 ADD PUSH2 0x4D4 SWAP2 SWAP1 PUSH2 0x17E0 JUMP JUMPDEST PUSH1 0x40 MLOAD PUSH1 0x20 DUP2 DUP4 SUB SUB DUP2 MSTORE SWAP1 PUSH1 0x40 MSTORE DUP1 MLOAD SWAP1 PUSH1 0x20 ADD KECCAK256 SUB PUSH2 0x510 JUMPI PUSH1 0x40 MLOAD DUP1 PUSH1 0x60 ADD PUSH1 0x40 MSTORE DUP1 PUSH1 0x23 DUP2 MSTORE PUSH1 0x20 ADD PUSH2 0x1E53 PUSH1 0x23 SWAP2 CODECOPY SWAP2 POP POP PUSH2 0x6BA JUMP JUMPDEST DUP1 DUP1 PUSH1 0x1 ADD SWAP2 POP POP PUSH2 0x46E JUMP JUMPDEST POP PUSH2 0x527 DUP3 PUSH2 0x8B0 JUMP JUMPDEST PUSH1 0x40 ADD MLOAD PUSH2 0x56A JUMPI PUSH1 0x40 MLOAD PUSH32 0x8C379A000000000000000000000000000000000000000000000000000000000 DUP2 MSTORE PUSH1 0x4 ADD PUSH2 0x561 SWAP1 PUSH2 0x1840 JUMP JUMPDEST PUSH1 0x40 MLOAD DUP1 SWAP2 SUB SWAP1 REVERT JUMPDEST PUSH0 PUSH1 0x40 MLOAD DUP1 PUSH1 0xA0 ADD PUSH1 0x40 MSTORE DUP1 DUP8 DUP2 MSTORE PUSH1 0x20 ADD DUP7 DUP2 MSTORE PUSH1 0x20 ADD DUP6 DUP2 MSTORE PUSH1 0x20 ADD DUP5 PUSH20 0xFFFFFFFFFFFFFFFFFFFFFFFFFFFFFFFFFFFFFFFF AND DUP2 MSTORE PUSH1 0x20 ADD PUSH1 0x1 ISZERO ISZERO DUP2 MSTORE POP SWAP1 POP PUSH1 0x2 DUP2 SWAP1 DUP1 PUSH1 0x1 DUP2 SLOAD ADD DUP1 DUP3 SSTORE DUP1 SWAP2 POP POP PUSH1 0x1 SWAP1 SUB SWAP1 PUSH0 MSTORE PUSH1 0x20 PUSH0 KECCAK256 SWAP1 PUSH1 0x4 MUL ADD PUSH0 SWAP1 SWAP2 SWAP1 SWAP2 SWAP1 SWAP2 POP PUSH0 DUP3 ADD MLOAD DUP2 PUSH0 ADD SWAP1 DUP2 PUSH2 0x5E9 SWAP2 SWAP1 PUSH2 0x19E3 JUMP JUMPDEST POP PUSH1 0x20 DUP3 ADD MLOAD DUP2 PUSH1 0x1 ADD SSTORE PUSH1 0x40 DUP3 ADD MLOAD DUP2 PUSH1 0x2 ADD SSTORE PUSH1 0x60 DUP3 ADD MLOAD DUP2 PUSH1 0x3 ADD PUSH0 PUSH2 0x100 EXP DUP2 SLOAD DUP2 PUSH20 0xFFFFFFFFFFFFFFFFFFFFFFFFFFFFFFFFFFFFFFFF MUL NOT AND SWAP1 DUP4 PUSH20 0xFFFFFFFFFFFFFFFFFFFFFFFFFFFFFFFFFFFFFFFF AND MUL OR SWAP1 SSTORE POP PUSH1 0x80 DUP3 ADD MLOAD DUP2 PUSH1 0x3 ADD PUSH1 0x14 PUSH2 0x100 EXP DUP2 SLOAD DUP2 PUSH1 0xFF MUL NOT AND SWAP1 DUP4 ISZERO ISZERO MUL OR SWAP1 SSTORE POP POP POP PUSH32 0xCA17E40837247A20FB362C9D14AF4021D389C6090BD3FB27A0447E4B48605A64 DUP7 PUSH1 0x40 MLOAD PUSH2 0x695 SWAP2 SWAP1 PUSH2 0x138B JUMP JUMPDEST PUSH1 0x40 MLOAD DUP1 SWAP2 SUB SWAP1 LOG1 PUSH1 0x40 MLOAD DUP1 PUSH1 0x60 ADD PUSH1 0x40 MSTORE DUP1 PUSH1 0x25 DUP2 MSTORE PUSH1 0x20 ADD PUSH2 0x1E76 PUSH1 0x25 SWAP2 CODECOPY SWAP2 POP POP JUMPDEST SWAP5 SWAP4 POP POP POP POP JUMP JUMPDEST PUSH2 0x6CA PUSH2 0xDBD JUMP JUMPDEST PUSH2 0x6D2 PUSH2 0xDBD JUMP JUMPDEST PUSH0 PUSH0 SWAP1 POP JUMPDEST PUSH1 0x2 DUP1 SLOAD SWAP1 POP DUP2 LT ISZERO PUSH2 0x8A6 JUMPI DUP4 PUSH1 0x40 MLOAD PUSH1 0x20 ADD PUSH2 0x6F5 SWAP2 SWAP1 PUSH2 0x1738 JUMP JUMPDEST PUSH1 0x40 MLOAD PUSH1 0x20 DUP2 DUP4 SUB SUB DUP2 MSTORE SWAP1 PUSH1 0x40 MSTORE DUP1 MLOAD SWAP1 PUSH1 0x20 ADD KECCAK256 PUSH1 0x2 DUP3 DUP2 SLOAD DUP2 LT PUSH2 0x71F JUMPI PUSH2 0x71E PUSH2 0x15E6 JUMP JUMPDEST JUMPDEST SWAP1 PUSH0 MSTORE PUSH1 0x20 PUSH0 KECCAK256 SWAP1 PUSH1 0x4 MUL ADD PUSH0 ADD PUSH1 0x40 MLOAD PUSH1 0x20 ADD PUSH2 0x73D SWAP2 SWAP1 PUSH2 0x17E0 JUMP JUMPDEST PUSH1 0x40 MLOAD PUSH1 0x20 DUP2 DUP4 SUB SUB DUP2 MSTORE SWAP1 PUSH1 0x40 MSTORE DUP1 MLOAD SWAP1 PUSH1 0x20 ADD KECCAK256 SUB PUSH2 0x899 JUMPI PUSH1 0x2 DUP2 DUP2 SLOAD DUP2 LT PUSH2 0x76C JUMPI PUSH2 0x76B PUSH2 0x15E6 JUMP JUMPDEST JUMPDEST SWAP1 PUSH0 MSTORE PUSH1 0x20 PUSH0 KECCAK256 SWAP1 PUSH1 0x4 MUL ADD PUSH1 0x40 MLOAD DUP1 PUSH1 0xA0 ADD PUSH1 0x40 MSTORE SWAP1 DUP2 PUSH0 DUP3 ADD DUP1 SLOAD PUSH2 0x792 SWAP1 PUSH2 0x1640 JUMP JUMPDEST DUP1 PUSH1 0x1F ADD PUSH1 0x20 DUP1 SWAP2 DIV MUL PUSH1 0x20 ADD PUSH1 0x40 MLOAD SWAP1 DUP2 ADD PUSH1 0x40 MSTORE DUP1 SWAP3 SWAP2 SWAP1 DUP2 DUP2 MSTORE PUSH1 0x20 ADD DUP3 DUP1 SLOAD PUSH2 0x7BE SWAP1 PUSH2 0x1640 JUMP JUMPDEST DUP1 ISZERO PUSH2 0x809 JUMPI DUP1 PUSH1 0x1F LT PUSH2 0x7E0 JUMPI PUSH2 0x100 DUP1 DUP4 SLOAD DIV MUL DUP4 MSTORE SWAP2 PUSH1 0x20 ADD SWAP2 PUSH2 0x809 JUMP JUMPDEST DUP3 ADD SWAP2 SWAP1 PUSH0 MSTORE PUSH1 0x20 PUSH0 KECCAK256 SWAP1 JUMPDEST DUP2 SLOAD DUP2 MSTORE SWAP1 PUSH1 0x1 ADD SWAP1 PUSH1 0x20 ADD DUP1 DUP4 GT PUSH2 0x7EC JUMPI DUP3 SWAP1 SUB PUSH1 0x1F AND DUP3 ADD SWAP2 JUMPDEST POP POP POP POP POP DUP2 MSTORE PUSH1 0x20 ADD PUSH1 0x1 DUP3 ADD SLOAD DUP2 MSTORE PUSH1 0x20 ADD PUSH1 0x2 DUP3 ADD SLOAD DUP2 MSTORE PUSH1 0x20 ADD PUSH1 0x3 DUP3 ADD PUSH0 SWAP1 SLOAD SWAP1 PUSH2 0x100 EXP SWAP1 DIV PUSH20 0xFFFFFFFFFFFFFFFFFFFFFFFFFFFFFFFFFFFFFFFF AND PUSH20 0xFFFFFFFFFFFFFFFFFFFFFFFFFFFFFFFFFFFFFFFF AND PUSH20 0xFFFFFFFFFFFFFFFFFFFFFFFFFFFFFFFFFFFFFFFF AND DUP2 MSTORE PUSH1 0x20 ADD PUSH1 0x3 DUP3 ADD PUSH1 0x14 SWAP1 SLOAD SWAP1 PUSH2 0x100 EXP SWAP1 DIV PUSH1 0xFF AND ISZERO ISZERO ISZERO ISZERO DUP2 MSTORE POP POP SWAP2 POP JUMPDEST DUP1 DUP1 PUSH1 0x1 ADD SWAP2 POP POP PUSH2 0x6D7 JUMP JUMPDEST POP DUP1 SWAP2 POP POP SWAP2 SWAP1 POP JUMP JUMPDEST PUSH2 0x8B8 PUSH2 0xE00 JUMP JUMPDEST PUSH0 PUSH0 SWAP1 SLOAD SWAP1 PUSH2 0x100 EXP SWAP1 DIV PUSH20 0xFFFFFFFFFFFFFFFFFFFFFFFFFFFFFFFFFFFFFFFF AND PUSH20 0xFFFFFFFFFFFFFFFFFFFFFFFFFFFFFFFFFFFFFFFF AND PUSH4 0xDB096F25 DUP4 PUSH1 0x40 MLOAD DUP3 PUSH4 0xFFFFFFFF AND PUSH1 0xE0 SHL DUP2 MSTORE PUSH1 0x4 ADD PUSH2 0x911 SWAP2 SWAP1 PUSH2 0x15CD JUMP JUMPDEST PUSH0 PUSH1 0x40 MLOAD DUP1 DUP4 SUB DUP2 DUP7 GAS STATICCALL ISZERO DUP1 ISZERO PUSH2 0x92B JUMPI RETURNDATASIZE PUSH0 PUSH0 RETURNDATACOPY RETURNDATASIZE PUSH0 REVERT JUMPDEST POP POP POP POP PUSH1 0x40 MLOAD RETURNDATASIZE PUSH0 DUP3 RETURNDATACOPY RETURNDATASIZE PUSH1 0x1F NOT PUSH1 0x1F DUP3 ADD AND DUP3 ADD DUP1 PUSH1 0x40 MSTORE POP DUP2 ADD SWAP1 PUSH2 0x953 SWAP2 SWAP1 PUSH2 0x1BE3 JUMP JUMPDEST SWAP1 POP SWAP2 SWAP1 POP JUMP JUMPDEST PUSH1 0x2 DUP2 DUP2 SLOAD DUP2 LT PUSH2 0x969 JUMPI PUSH0 DUP1 REVERT JUMPDEST SWAP1 PUSH0 MSTORE PUSH1 0x20 PUSH0 KECCAK256 SWAP1 PUSH1 0x4 MUL ADD PUSH0 SWAP2 POP SWAP1 POP DUP1 PUSH0 ADD DUP1 SLOAD PUSH2 0x988 SWAP1 PUSH2 0x1640 JUMP JUMPDEST DUP1 PUSH1 0x1F ADD PUSH1 0x20 DUP1 SWAP2 DIV MUL PUSH1 0x20 ADD PUSH1 0x40 MLOAD SWAP1 DUP2 ADD PUSH1 0x40 MSTORE DUP1 SWAP3 SWAP2 SWAP1 DUP2 DUP2 MSTORE PUSH1 0x20 ADD DUP3 DUP1 SLOAD PUSH2 0x9B4 SWAP1 PUSH2 0x1640 JUMP JUMPDEST DUP1 ISZERO PUSH2 0x9FF JUMPI DUP1 PUSH1 0x1F LT PUSH2 0x9D6 JUMPI PUSH2 0x100 DUP1 DUP4 SLOAD DIV MUL DUP4 MSTORE SWAP2 PUSH1 0x20 ADD SWAP2 PUSH2 0x9FF JUMP JUMPDEST DUP3 ADD SWAP2 SWAP1 PUSH0 MSTORE PUSH1 0x20 PUSH0 KECCAK256 SWAP1 JUMPDEST DUP2 SLOAD DUP2 MSTORE SWAP1 PUSH1 0x1 ADD SWAP1 PUSH1 0x20 ADD DUP1 DUP4 GT PUSH2 0x9E2 JUMPI DUP3 SWAP1 SUB PUSH1 0x1F AND DUP3 ADD SWAP2 JUMPDEST POP POP POP POP POP SWAP1 DUP1 PUSH1 0x1 ADD SLOAD SWAP1 DUP1 PUSH1 0x2 ADD SLOAD SWAP1 DUP1 PUSH1 0x3 ADD PUSH0 SWAP1 SLOAD SWAP1 PUSH2 0x100 EXP SWAP1 DIV PUSH20 0xFFFFFFFFFFFFFFFFFFFFFFFFFFFFFFFFFFFFFFFF AND SWAP1 DUP1 PUSH1 0x3 ADD PUSH1 0x14 SWAP1 SLOAD SWAP1 PUSH2 0x100 EXP SWAP1 DIV PUSH1 0xFF AND SWAP1 POP DUP6 JUMP JUMPDEST PUSH1 0x1 PUSH0 SWAP1 SLOAD SWAP1 PUSH2 0x100 EXP SWAP1 DIV PUSH20 0xFFFFFFFFFFFFFFFFFFFFFFFFFFFFFFFFFFFFFFFF AND DUP2 JUMP JUMPDEST PUSH1 0x60 PUSH1 0x1 PUSH0 SWAP1 SLOAD SWAP1 PUSH2 0x100 EXP SWAP1 DIV PUSH20 0xFFFFFFFFFFFFFFFFFFFFFFFFFFFFFFFFFFFFFFFF AND PUSH20 0xFFFFFFFFFFFFFFFFFFFFFFFFFFFFFFFFFFFFFFFF AND CALLER PUSH20 0xFFFFFFFFFFFFFFFFFFFFFFFFFFFFFFFFFFFFFFFF AND EQ PUSH2 0xB03 JUMPI PUSH1 0x40 MLOAD PUSH32 0x8C379A000000000000000000000000000000000000000000000000000000000 DUP2 MSTORE PUSH1 0x4 ADD PUSH2 0xAFA SWAP1 PUSH2 0x16E0 JUMP JUMPDEST PUSH1 0x40 MLOAD DUP1 SWAP2 SUB SWAP1 REVERT JUMPDEST PUSH0 PUSH0 SWAP1 POP JUMPDEST PUSH1 0x2 DUP1 SLOAD SWAP1 POP DUP2 LT ISZERO PUSH2 0xD7F JUMPI DUP3 PUSH1 0x40 MLOAD PUSH1 0x20 ADD PUSH2 0xB26 SWAP2 SWAP1 PUSH2 0x1738 JUMP JUMPDEST PUSH1 0x40 MLOAD PUSH1 0x20 DUP2 DUP4 SUB SUB DUP2 MSTORE SWAP1 PUSH1 0x40 MSTORE DUP1 MLOAD SWAP1 PUSH1 0x20 ADD KECCAK256 PUSH1 0x2 DUP3 DUP2 SLOAD DUP2 LT PUSH2 0xB50 JUMPI PUSH2 0xB4F PUSH2 0x15E6 JUMP JUMPDEST JUMPDEST SWAP1 PUSH0 MSTORE PUSH1 0x20 PUSH0 KECCAK256 SWAP1 PUSH1 0x4 MUL ADD PUSH0 ADD PUSH1 0x40 MLOAD PUSH1 0x20 ADD PUSH2 0xB6E SWAP2 SWAP1 PUSH2 0x17E0 JUMP JUMPDEST PUSH1 0x40 MLOAD PUSH1 0x20 DUP2 DUP4 SUB SUB DUP2 MSTORE SWAP1 PUSH1 0x40 MSTORE DUP1 MLOAD SWAP1 PUSH1 0x20 ADD KECCAK256 SUB PUSH2 0xD72 JUMPI PUSH32 0xB9D054D123E5BD7462631F9F9FA04F74AC813DCC6057DE9BBBEF353AE5FE17DB PUSH1 0x2 DUP3 DUP2 SLOAD DUP2 LT PUSH2 0xBBE JUMPI PUSH2 0xBBD PUSH2 0x15E6 JUMP JUMPDEST JUMPDEST SWAP1 PUSH0 MSTORE PUSH1 0x20 PUSH0 KECCAK256 SWAP1 PUSH1 0x4 MUL ADD PUSH0 ADD PUSH1 0x40 MLOAD PUSH2 0xBD9 SWAP2 SWAP1 PUSH2 0x1CAB JUMP JUMPDEST PUSH1 0x40 MLOAD DUP1 SWAP2 SUB SWAP1 LOG1 PUSH1 0x2 PUSH1 0x1 PUSH1 0x2 DUP1 SLOAD SWAP1 POP PUSH2 0xBF5 SWAP2 SWAP1 PUSH2 0x1CF8 JUMP JUMPDEST DUP2 SLOAD DUP2 LT PUSH2 0xC06 JUMPI PUSH2 0xC05 PUSH2 0x15E6 JUMP JUMPDEST JUMPDEST SWAP1 PUSH0 MSTORE PUSH1 0x20 PUSH0 KECCAK256 SWAP1 PUSH1 0x4 MUL ADD PUSH1 0x2 DUP3 DUP2 SLOAD DUP2 LT PUSH2 0xC26 JUMPI PUSH2 0xC25 PUSH2 0x15E6 JUMP JUMPDEST JUMPDEST SWAP1 PUSH0 MSTORE PUSH1 0x20 PUSH0 KECCAK256 SWAP1 PUSH1 0x4 MUL ADD PUSH0 DUP3 ADD DUP2 PUSH0 ADD SWAP1 DUP2 PUSH2 0xC44 SWAP2 SWAP1 PUSH2 0x1D40 JUMP JUMPDEST POP PUSH1 0x1 DUP3 ADD SLOAD DUP2 PUSH1 0x1 ADD SSTORE PUSH1 0x2 DUP3 ADD SLOAD DUP2 PUSH1 0x2 ADD SSTORE PUSH1 0x3 DUP3 ADD PUSH0 SWAP1 SLOAD SWAP1 PUSH2 0x100 EXP SWAP1 DIV PUSH20 0xFFFFFFFFFFFFFFFFFFFFFFFFFFFFFFFFFFFFFFFF AND DUP2 PUSH1 0x3 ADD PUSH0 PUSH2 0x100 EXP DUP2 SLOAD DUP2 PUSH20 0xFFFFFFFFFFFFFFFFFFFFFFFFFFFFFFFFFFFFFFFF MUL NOT AND SWAP1 DUP4 PUSH20 0xFFFFFFFFFFFFFFFFFFFFFFFFFFFFFFFFFFFFFFFF AND MUL OR SWAP1 SSTORE POP PUSH1 0x3 DUP3 ADD PUSH1 0x14 SWAP1 SLOAD SWAP1 PUSH2 0x100 EXP SWAP1 DIV PUSH1 0xFF AND DUP2 PUSH1 0x3 ADD PUSH1 0x14 PUSH2 0x100 EXP DUP2 SLOAD DUP2 PUSH1 0xFF MUL NOT AND SWAP1 DUP4 ISZERO ISZERO MUL OR SWAP1 SSTORE POP SWAP1 POP POP PUSH1 0x2 DUP1 SLOAD DUP1 PUSH2 0xD00 JUMPI PUSH2 0xCFF PUSH2 0x1E25 JUMP JUMPDEST JUMPDEST PUSH1 0x1 SWAP1 SUB DUP2 DUP2 SWAP1 PUSH0 MSTORE PUSH1 0x20 PUSH0 KECCAK256 SWAP1 PUSH1 0x4 MUL ADD PUSH0 PUSH0 DUP3 ADD PUSH0 PUSH2 0xD21 SWAP2 SWAP1 PUSH2 0xE37 JUMP JUMPDEST PUSH1 0x1 DUP3 ADD PUSH0 SWAP1 SSTORE PUSH1 0x2 DUP3 ADD PUSH0 SWAP1 SSTORE PUSH1 0x3 DUP3 ADD PUSH0 PUSH2 0x100 EXP DUP2 SLOAD SWAP1 PUSH20 0xFFFFFFFFFFFFFFFFFFFFFFFFFFFFFFFFFFFFFFFF MUL NOT AND SWAP1 SSTORE PUSH1 0x3 DUP3 ADD PUSH1 0x14 PUSH2 0x100 EXP DUP2 SLOAD SWAP1 PUSH1 0xFF MUL NOT AND SWAP1 SSTORE POP POP SWAP1 SSTORE PUSH2 0xD7F JUMP JUMPDEST DUP1 DUP1 PUSH1 0x1 ADD SWAP2 POP POP PUSH2 0xB08 JUMP JUMPDEST POP PUSH1 0x40 MLOAD DUP1 PUSH1 0x40 ADD PUSH1 0x40 MSTORE DUP1 PUSH1 0x19 DUP2 MSTORE PUSH1 0x20 ADD PUSH32 0x4C7567617220656C696D696E61646F20636F6E20657869746F00000000000000 DUP2 MSTORE POP SWAP1 POP SWAP2 SWAP1 POP JUMP JUMPDEST PUSH1 0x40 MLOAD DUP1 PUSH1 0xA0 ADD PUSH1 0x40 MSTORE DUP1 PUSH1 0x60 DUP2 MSTORE PUSH1 0x20 ADD PUSH0 DUP2 MSTORE PUSH1 0x20 ADD PUSH0 DUP2 MSTORE PUSH1 0x20 ADD PUSH0 PUSH20 0xFFFFFFFFFFFFFFFFFFFFFFFFFFFFFFFFFFFFFFFF AND DUP2 MSTORE PUSH1 0x20 ADD PUSH0 ISZERO ISZERO DUP2 MSTORE POP SWAP1 JUMP JUMPDEST PUSH1 0x40 MLOAD DUP1 PUSH1 0x60 ADD PUSH1 0x40 MSTORE DUP1 PUSH0 PUSH20 0xFFFFFFFFFFFFFFFFFFFFFFFFFFFFFFFFFFFFFFFF AND DUP2 MSTORE PUSH1 0x20 ADD PUSH1 0x60 DUP2 MSTORE PUSH1 0x20 ADD PUSH0 ISZERO ISZERO DUP2 MSTORE POP SWAP1 JUMP JUMPDEST POP DUP1 SLOAD PUSH2 0xE43 SWAP1 PUSH2 0x1640 JUMP JUMPDEST PUSH0 DUP3 SSTORE DUP1 PUSH1 0x1F LT PUSH2 0xE54 JUMPI POP PUSH2 0xE71 JUMP JUMPDEST PUSH1 0x1F ADD PUSH1 0x20 SWAP1 DIV SWAP1 PUSH0 MSTORE PUSH1 0x20 PUSH0 KECCAK256 SWAP1 DUP2 ADD SWAP1 PUSH2 0xE70 SWAP2 SWAP1 PUSH2 0xE74 JUMP JUMPDEST JUMPDEST POP JUMP JUMPDEST JUMPDEST DUP1 DUP3 GT ISZERO PUSH2 0xE8B JUMPI PUSH0 DUP2 PUSH0 SWAP1 SSTORE POP PUSH1 0x1 ADD PUSH2 0xE75 JUMP JUMPDEST POP SWAP1 JUMP JUMPDEST PUSH0 DUP2 MLOAD SWAP1 POP SWAP2 SWAP1 POP JUMP JUMPDEST PUSH0 DUP3 DUP3 MSTORE PUSH1 0x20 DUP3 ADD SWAP1 POP SWAP3 SWAP2 POP POP JUMP JUMPDEST PUSH0 DUP2 SWAP1 POP PUSH1 0x20 DUP3 ADD SWAP1 POP SWAP2 SWAP1 POP JUMP JUMPDEST PUSH0 DUP2 MLOAD SWAP1 POP SWAP2 SWAP1 POP JUMP JUMPDEST PUSH0 DUP3 DUP3 MSTORE PUSH1 0x20 DUP3 ADD SWAP1 POP SWAP3 SWAP2 POP POP JUMP JUMPDEST DUP3 DUP2 DUP4 MCOPY PUSH0 DUP4 DUP4 ADD MSTORE POP POP POP JUMP JUMPDEST PUSH0 PUSH1 0x1F NOT PUSH1 0x1F DUP4 ADD AND SWAP1 POP SWAP2 SWAP1 POP JUMP JUMPDEST PUSH0 PUSH2 0xEFA DUP3 PUSH2 0xEB8 JUMP JUMPDEST PUSH2 0xF04 DUP2 DUP6 PUSH2 0xEC2 JUMP JUMPDEST SWAP4 POP PUSH2 0xF14 DUP2 DUP6 PUSH1 0x20 DUP7 ADD PUSH2 0xED2 JUMP JUMPDEST PUSH2 0xF1D DUP2 PUSH2 0xEE0 JUMP JUMPDEST DUP5 ADD SWAP2 POP POP SWAP3 SWAP2 POP POP JUMP JUMPDEST PUSH0 DUP2 SWAP1 POP SWAP2 SWAP1 POP JUMP JUMPDEST PUSH2 0xF3A DUP2 PUSH2 0xF28 JUMP JUMPDEST DUP3 MSTORE POP POP JUMP JUMPDEST PUSH0 PUSH20 0xFFFFFFFFFFFFFFFFFFFFFFFFFFFFFFFFFFFFFFFF DUP3 AND SWAP1 POP SWAP2 SWAP1 POP JUMP JUMPDEST PUSH0 PUSH2 0xF69 DUP3 PUSH2 0xF40 JUMP JUMPDEST SWAP1 POP SWAP2 SWAP1 POP JUMP JUMPDEST PUSH2 0xF79 DUP2 PUSH2 0xF5F JUMP JUMPDEST DUP3 MSTORE POP POP JUMP JUMPDEST PUSH0 DUP2 ISZERO ISZERO SWAP1 POP SWAP2 SWAP1 POP JUMP JUMPDEST PUSH2 0xF93 DUP2 PUSH2 0xF7F JUMP JUMPDEST DUP3 MSTORE POP POP JUMP JUMPDEST PUSH0 PUSH1 0xA0 DUP4 ADD PUSH0 DUP4 ADD MLOAD DUP5 DUP3 SUB PUSH0 DUP7 ADD MSTORE PUSH2 0xFB3 DUP3 DUP3 PUSH2 0xEF0 JUMP JUMPDEST SWAP2 POP POP PUSH1 0x20 DUP4 ADD MLOAD PUSH2 0xFC8 PUSH1 0x20 DUP7 ADD DUP3 PUSH2 0xF31 JUMP JUMPDEST POP PUSH1 0x40 DUP4 ADD MLOAD PUSH2 0xFDB PUSH1 0x40 DUP7 ADD DUP3 PUSH2 0xF31 JUMP JUMPDEST POP PUSH1 0x60 DUP4 ADD MLOAD PUSH2 0xFEE PUSH1 0x60 DUP7 ADD DUP3 PUSH2 0xF70 JUMP JUMPDEST POP PUSH1 0x80 DUP4 ADD MLOAD PUSH2 0x1001 PUSH1 0x80 DUP7 ADD DUP3 PUSH2 0xF8A JUMP JUMPDEST POP DUP1 SWAP2 POP POP SWAP3 SWAP2 POP POP JUMP JUMPDEST PUSH0 PUSH2 0x1017 DUP4 DUP4 PUSH2 0xF99 JUMP JUMPDEST SWAP1 POP SWAP3 SWAP2 POP POP JUMP JUMPDEST PUSH0 PUSH1 0x20 DUP3 ADD SWAP1 POP SWAP2 SWAP1 POP JUMP JUMPDEST PUSH0 PUSH2 0x1035 DUP3 PUSH2 0xE8F JUMP JUMPDEST PUSH2 0x103F DUP2 DUP6 PUSH2 0xE99 JUMP JUMPDEST SWAP4 POP DUP4 PUSH1 0x20 DUP3 MUL DUP6 ADD PUSH2 0x1051 DUP6 PUSH2 0xEA9 JUMP JUMPDEST DUP1 PUSH0 JUMPDEST DUP6 DUP2 LT ISZERO PUSH2 0x108C JUMPI DUP5 DUP5 SUB DUP10 MSTORE DUP2 MLOAD PUSH2 0x106D DUP6 DUP3 PUSH2 0x100C JUMP JUMPDEST SWAP5 POP PUSH2 0x1078 DUP4 PUSH2 0x101F JUMP JUMPDEST SWAP3 POP PUSH1 0x20 DUP11 ADD SWAP10 POP POP PUSH1 0x1 DUP2 ADD SWAP1 POP PUSH2 0x1054 JUMP JUMPDEST POP DUP3 SWAP8 POP DUP8 SWAP6 POP POP POP POP POP POP SWAP3 SWAP2 POP POP JUMP JUMPDEST PUSH0 PUSH1 0x20 DUP3 ADD SWAP1 POP DUP2 DUP2 SUB PUSH0 DUP4 ADD MSTORE PUSH2 0x10B6 DUP2 DUP5 PUSH2 0x102B JUMP JUMPDEST SWAP1 POP SWAP3 SWAP2 POP POP JUMP JUMPDEST PUSH0 DUP2 SWAP1 POP SWAP2 SWAP1 POP JUMP JUMPDEST PUSH0 PUSH2 0x10E1 PUSH2 0x10DC PUSH2 0x10D7 DUP5 PUSH2 0xF40 JUMP JUMPDEST PUSH2 0x10BE JUMP JUMPDEST PUSH2 0xF40 JUMP JUMPDEST SWAP1 POP SWAP2 SWAP1 POP JUMP JUMPDEST PUSH0 PUSH2 0x10F2 DUP3 PUSH2 0x10C7 JUMP JUMPDEST SWAP1 POP SWAP2 SWAP1 POP JUMP JUMPDEST PUSH0 PUSH2 0x1103 DUP3 PUSH2 0x10E8 JUMP JUMPDEST SWAP1 POP SWAP2 SWAP1 POP JUMP JUMPDEST PUSH2 0x1113 DUP2 PUSH2 0x10F9 JUMP JUMPDEST DUP3 MSTORE POP POP JUMP JUMPDEST PUSH0 PUSH1 0x20 DUP3 ADD SWAP1 POP PUSH2 0x112C PUSH0 DUP4 ADD DUP5 PUSH2 0x110A JUMP JUMPDEST SWAP3 SWAP2 POP POP JUMP JUMPDEST PUSH0 PUSH1 0x40 MLOAD SWAP1 POP SWAP1 JUMP JUMPDEST PUSH0 PUSH0 REVERT JUMPDEST PUSH0 PUSH0 REVERT JUMPDEST PUSH0 PUSH0 REVERT JUMPDEST PUSH0 PUSH0 REVERT JUMPDEST PUSH32 0x4E487B7100000000000000000000000000000000000000000000000000000000 PUSH0 MSTORE PUSH1 0x41 PUSH1 0x4 MSTORE PUSH1 0x24 PUSH0 REVERT JUMPDEST PUSH2 0x1181 DUP3 PUSH2 0xEE0 JUMP JUMPDEST DUP2 ADD DUP2 DUP2 LT PUSH8 0xFFFFFFFFFFFFFFFF DUP3 GT OR ISZERO PUSH2 0x11A0 JUMPI PUSH2 0x119F PUSH2 0x114B JUMP JUMPDEST JUMPDEST DUP1 PUSH1 0x40 MSTORE POP POP POP JUMP JUMPDEST PUSH0 PUSH2 0x11B2 PUSH2 0x1132 JUMP JUMPDEST SWAP1 POP PUSH2 0x11BE DUP3 DUP3 PUSH2 0x1178 JUMP JUMPDEST SWAP2 SWAP1 POP JUMP JUMPDEST PUSH0 PUSH8 0xFFFFFFFFFFFFFFFF DUP3 GT ISZERO PUSH2 0x11DD JUMPI PUSH2 0x11DC PUSH2 0x114B JUMP JUMPDEST JUMPDEST PUSH2 0x11E6 DUP3 PUSH2 0xEE0 JUMP JUMPDEST SWAP1 POP PUSH1 0x20 DUP2 ADD SWAP1 POP SWAP2 SWAP1 POP JUMP JUMPDEST DUP3 DUP2 DUP4 CALLDATACOPY PUSH0 DUP4 DUP4 ADD MSTORE POP POP POP JUMP JUMPDEST PUSH0 PUSH2 0x1213 PUSH2 0x120E DUP5 PUSH2 0x11C3 JUMP JUMPDEST PUSH2 0x11A9 JUMP JUMPDEST SWAP1 POP DUP3 DUP2 MSTORE PUSH1 0x20 DUP2 ADD DUP5 DUP5 DUP5 ADD GT ISZERO PUSH2 0x122F JUMPI PUSH2 0x122E PUSH2 0x1147 JUMP JUMPDEST JUMPDEST PUSH2 0x123A DUP5 DUP3 DUP6 PUSH2 0x11F3 JUMP JUMPDEST POP SWAP4 SWAP3 POP POP POP JUMP JUMPDEST PUSH0 DUP3 PUSH1 0x1F DUP4 ADD SLT PUSH2 0x1256 JUMPI PUSH2 0x1255 PUSH2 0x1143 JUMP JUMPDEST JUMPDEST DUP2 CALLDATALOAD PUSH2 0x1266 DUP5 DUP3 PUSH1 0x20 DUP7 ADD PUSH2 0x1201 JUMP JUMPDEST SWAP2 POP POP SWAP3 SWAP2 POP POP JUMP JUMPDEST PUSH2 0x1278 DUP2 PUSH2 0xF28 JUMP JUMPDEST DUP2 EQ PUSH2 0x1282 JUMPI PUSH0 PUSH0 REVERT JUMPDEST POP JUMP JUMPDEST PUSH0 DUP2 CALLDATALOAD SWAP1 POP PUSH2 0x1293 DUP2 PUSH2 0x126F JUMP JUMPDEST SWAP3 SWAP2 POP POP JUMP JUMPDEST PUSH2 0x12A2 DUP2 PUSH2 0xF5F JUMP JUMPDEST DUP2 EQ PUSH2 0x12AC JUMPI PUSH0 PUSH0 REVERT JUMPDEST POP JUMP JUMPDEST PUSH0 DUP2 CALLDATALOAD SWAP1 POP PUSH2 0x12BD DUP2 PUSH2 0x1299 JUMP JUMPDEST SWAP3 SWAP2 POP POP JUMP JUMPDEST PUSH0 PUSH0 PUSH0 PUSH0 PUSH1 0x80 DUP6 DUP8 SUB SLT ISZERO PUSH2 0x12DB JUMPI PUSH2 0x12DA PUSH2 0x113B JUMP JUMPDEST JUMPDEST PUSH0 DUP6 ADD CALLDATALOAD PUSH8 0xFFFFFFFFFFFFFFFF DUP2 GT ISZERO PUSH2 0x12F8 JUMPI PUSH2 0x12F7 PUSH2 0x113F JUMP JUMPDEST JUMPDEST PUSH2 0x1304 DUP8 DUP3 DUP9 ADD PUSH2 0x1242 JUMP JUMPDEST SWAP5 POP POP PUSH1 0x20 PUSH2 0x1315 DUP8 DUP3 DUP9 ADD PUSH2 0x1285 JUMP JUMPDEST SWAP4 POP POP PUSH1 0x40 PUSH2 0x1326 DUP8 DUP3 DUP9 ADD PUSH2 0x1285 JUMP JUMPDEST SWAP3 POP POP PUSH1 0x60 PUSH2 0x1337 DUP8 DUP3 DUP9 ADD PUSH2 0x12AF JUMP JUMPDEST SWAP2 POP POP SWAP3 SWAP6 SWAP2 SWAP5 POP SWAP3 POP JUMP JUMPDEST PUSH0 DUP3 DUP3 MSTORE PUSH1 0x20 DUP3 ADD SWAP1 POP SWAP3 SWAP2 POP POP JUMP JUMPDEST PUSH0 PUSH2 0x135D DUP3 PUSH2 0xEB8 JUMP JUMPDEST PUSH2 0x1367 DUP2 DUP6 PUSH2 0x1343 JUMP JUMPDEST SWAP4 POP PUSH2 0x1377 DUP2 DUP6 PUSH1 0x20 DUP7 ADD PUSH2 0xED2 JUMP JUMPDEST PUSH2 0x1380 DUP2 PUSH2 0xEE0 JUMP JUMPDEST DUP5 ADD SWAP2 POP POP SWAP3 SWAP2 POP POP JUMP JUMPDEST PUSH0 PUSH1 0x20 DUP3 ADD SWAP1 POP DUP2 DUP2 SUB PUSH0 DUP4 ADD MSTORE PUSH2 0x13A3 DUP2 DUP5 PUSH2 0x1353 JUMP JUMPDEST SWAP1 POP SWAP3 SWAP2 POP POP JUMP JUMPDEST PUSH0 PUSH1 0x20 DUP3 DUP5 SUB SLT ISZERO PUSH2 0x13C0 JUMPI PUSH2 0x13BF PUSH2 0x113B JUMP JUMPDEST JUMPDEST PUSH0 DUP3 ADD CALLDATALOAD PUSH8 0xFFFFFFFFFFFFFFFF DUP2 GT ISZERO PUSH2 0x13DD JUMPI PUSH2 0x13DC PUSH2 0x113F JUMP JUMPDEST JUMPDEST PUSH2 0x13E9 DUP5 DUP3 DUP6 ADD PUSH2 0x1242 JUMP JUMPDEST SWAP2 POP POP SWAP3 SWAP2 POP POP JUMP JUMPDEST PUSH0 PUSH1 0xA0 DUP4 ADD PUSH0 DUP4 ADD MLOAD DUP5 DUP3 SUB PUSH0 DUP7 ADD MSTORE PUSH2 0x140C DUP3 DUP3 PUSH2 0xEF0 JUMP JUMPDEST SWAP2 POP POP PUSH1 0x20 DUP4 ADD MLOAD PUSH2 0x1421 PUSH1 0x20 DUP7 ADD DUP3 PUSH2 0xF31 JUMP JUMPDEST POP PUSH1 0x40 DUP4 ADD MLOAD PUSH2 0x1434 PUSH1 0x40 DUP7 ADD DUP3 PUSH2 0xF31 JUMP JUMPDEST POP PUSH1 0x60 DUP4 ADD MLOAD PUSH2 0x1447 PUSH1 0x60 DUP7 ADD DUP3 PUSH2 0xF70 JUMP JUMPDEST POP PUSH1 0x80 DUP4 ADD MLOAD PUSH2 0x145A PUSH1 0x80 DUP7 ADD DUP3 PUSH2 0xF8A JUMP JUMPDEST POP DUP1 SWAP2 POP POP SWAP3 SWAP2 POP POP JUMP JUMPDEST PUSH0 PUSH1 0x20 DUP3 ADD SWAP1 POP DUP2 DUP2 SUB PUSH0 DUP4 ADD MSTORE PUSH2 0x147D DUP2 DUP5 PUSH2 0x13F2 JUMP JUMPDEST SWAP1 POP SWAP3 SWAP2 POP POP JUMP JUMPDEST PUSH0 PUSH1 0x20 DUP3 DUP5 SUB SLT ISZERO PUSH2 0x149A JUMPI PUSH2 0x1499 PUSH2 0x113B JUMP JUMPDEST JUMPDEST PUSH0 PUSH2 0x14A7 DUP5 DUP3 DUP6 ADD PUSH2 0x12AF JUMP JUMPDEST SWAP2 POP POP SWAP3 SWAP2 POP POP JUMP JUMPDEST PUSH0 PUSH1 0x60 DUP4 ADD PUSH0 DUP4 ADD MLOAD PUSH2 0x14C5 PUSH0 DUP7 ADD DUP3 PUSH2 0xF70 JUMP JUMPDEST POP PUSH1 0x20 DUP4 ADD MLOAD DUP5 DUP3 SUB PUSH1 0x20 DUP7 ADD MSTORE PUSH2 0x14DD DUP3 DUP3 PUSH2 0xEF0 JUMP JUMPDEST SWAP2 POP POP PUSH1 0x40 DUP4 ADD MLOAD PUSH2 0x14F2 PUSH1 0x40 DUP7 ADD DUP3 PUSH2 0xF8A JUMP JUMPDEST POP DUP1 SWAP2 POP POP SWAP3 SWAP2 POP POP JUMP JUMPDEST PUSH0 PUSH1 0x20 DUP3 ADD SWAP1 POP DUP2 DUP2 SUB PUSH0 DUP4 ADD MSTORE PUSH2 0x1515 DUP2 DUP5 PUSH2 0x14B0 JUMP JUMPDEST SWAP1 POP SWAP3 SWAP2 POP POP JUMP JUMPDEST PUSH0 PUSH1 0x20 DUP3 DUP5 SUB SLT ISZERO PUSH2 0x1532 JUMPI PUSH2 0x1531 PUSH2 0x113B JUMP JUMPDEST JUMPDEST PUSH0 PUSH2 0x153F DUP5 DUP3 DUP6 ADD PUSH2 0x1285 JUMP JUMPDEST SWAP2 POP POP SWAP3 SWAP2 POP POP JUMP JUMPDEST PUSH2 0x1551 DUP2 PUSH2 0xF28 JUMP JUMPDEST DUP3 MSTORE POP POP JUMP JUMPDEST PUSH2 0x1560 DUP2 PUSH2 0xF5F JUMP JUMPDEST DUP3 MSTORE POP POP JUMP JUMPDEST PUSH2 0x156F DUP2 PUSH2 0xF7F JUMP JUMPDEST DUP3 MSTORE POP POP JUMP JUMPDEST PUSH0 PUSH1 0xA0 DUP3 ADD SWAP1 POP DUP2 DUP2 SUB PUSH0 DUP4 ADD MSTORE PUSH2 0x158D DUP2 DUP9 PUSH2 0x1353 JUMP JUMPDEST SWAP1 POP PUSH2 0x159C PUSH1 0x20 DUP4 ADD DUP8 PUSH2 0x1548 JUMP JUMPDEST PUSH2 0x15A9 PUSH1 0x40 DUP4 ADD DUP7 PUSH2 0x1548 JUMP JUMPDEST PUSH2 0x15B6 PUSH1 0x60 DUP4 ADD DUP6 PUSH2 0x1557 JUMP JUMPDEST PUSH2 0x15C3 PUSH1 0x80 DUP4 ADD DUP5 PUSH2 0x1566 JUMP JUMPDEST SWAP7 SWAP6 POP POP POP POP POP POP JUMP JUMPDEST PUSH0 PUSH1 0x20 DUP3 ADD SWAP1 POP PUSH2 0x15E0 PUSH0 DUP4 ADD DUP5 PUSH2 0x1557 JUMP JUMPDEST SWAP3 SWAP2 POP POP JUMP JUMPDEST PUSH32 0x4E487B7100000000000000000000000000000000000000000000000000000000 PUSH0 MSTORE PUSH1 0x32 PUSH1 0x4 MSTORE PUSH1 0x24 PUSH0 REVERT JUMPDEST PUSH32 0x4E487B7100000000000000000000000000000000000000000000000000000000 PUSH0 MSTORE PUSH1 0x22 PUSH1 0x4 MSTORE PUSH1 0x24 PUSH0 REVERT JUMPDEST PUSH0 PUSH1 0x2 DUP3 DIV SWAP1 POP PUSH1 0x1 DUP3 AND DUP1 PUSH2 0x1657 JUMPI PUSH1 0x7F DUP3 AND SWAP2 POP JUMPDEST PUSH1 0x20 DUP3 LT DUP2 SUB PUSH2 0x166A JUMPI PUSH2 0x1669 PUSH2 0x1613 JUMP JUMPDEST JUMPDEST POP SWAP2 SWAP1 POP JUMP JUMPDEST PUSH32 0x536F6C6F20656C204475656E6E6F207075656465207265616C697A6172206573 PUSH0 DUP3 ADD MSTORE PUSH32 0x746120616363696F6E0000000000000000000000000000000000000000000000 PUSH1 0x20 DUP3 ADD MSTORE POP JUMP JUMPDEST PUSH0 PUSH2 0x16CA PUSH1 0x29 DUP4 PUSH2 0x1343 JUMP JUMPDEST SWAP2 POP PUSH2 0x16D5 DUP3 PUSH2 0x1670 JUMP JUMPDEST PUSH1 0x40 DUP3 ADD SWAP1 POP SWAP2 SWAP1 POP JUMP JUMPDEST PUSH0 PUSH1 0x20 DUP3 ADD SWAP1 POP DUP2 DUP2 SUB PUSH0 DUP4 ADD MSTORE PUSH2 0x16F7 DUP2 PUSH2 0x16BE JUMP JUMPDEST SWAP1 POP SWAP2 SWAP1 POP JUMP JUMPDEST PUSH0 DUP2 SWAP1 POP SWAP3 SWAP2 POP POP JUMP JUMPDEST PUSH0 PUSH2 0x1712 DUP3 PUSH2 0xEB8 JUMP JUMPDEST PUSH2 0x171C DUP2 DUP6 PUSH2 0x16FE JUMP JUMPDEST SWAP4 POP PUSH2 0x172C DUP2 DUP6 PUSH1 0x20 DUP7 ADD PUSH2 0xED2 JUMP JUMPDEST DUP1 DUP5 ADD SWAP2 POP POP SWAP3 SWAP2 POP POP JUMP JUMPDEST PUSH0 PUSH2 0x1743 DUP3 DUP5 PUSH2 0x1708 JUMP JUMPDEST SWAP2 POP DUP2 SWAP1 POP SWAP3 SWAP2 POP POP JUMP JUMPDEST PUSH0 DUP2 SWAP1 POP DUP2 PUSH0 MSTORE PUSH1 0x20 PUSH0 KECCAK256 SWAP1 POP SWAP2 SWAP1 POP JUMP JUMPDEST PUSH0 DUP2 SLOAD PUSH2 0x176C DUP2 PUSH2 0x1640 JUMP JUMPDEST PUSH2 0x1776 DUP2 DUP7 PUSH2 0x16FE JUMP JUMPDEST SWAP5 POP PUSH1 0x1 DUP3 AND PUSH0 DUP2 EQ PUSH2 0x1790 JUMPI PUSH1 0x1 DUP2 EQ PUSH2 0x17A5 JUMPI PUSH2 0x17D7 JUMP JUMPDEST PUSH1 0xFF NOT DUP4 AND DUP7 MSTORE DUP2 ISZERO ISZERO DUP3 MUL DUP7 ADD SWAP4 POP PUSH2 0x17D7 JUMP JUMPDEST PUSH2 0x17AE DUP6 PUSH2 0x174E JUMP JUMPDEST PUSH0 JUMPDEST DUP4 DUP2 LT ISZERO PUSH2 0x17CF JUMPI DUP2 SLOAD DUP2 DUP10 ADD MSTORE PUSH1 0x1 DUP3 ADD SWAP2 POP PUSH1 0x20 DUP2 ADD SWAP1 POP PUSH2 0x17B0 JUMP JUMPDEST DUP4 DUP9 ADD SWAP6 POP POP POP JUMPDEST POP POP POP SWAP3 SWAP2 POP POP JUMP JUMPDEST PUSH0 PUSH2 0x17EB DUP3 DUP5 PUSH2 0x1760 JUMP JUMPDEST SWAP2 POP DUP2 SWAP1 POP SWAP3 SWAP2 POP POP JUMP JUMPDEST PUSH32 0x44656265722073657220756E2067756961207265676973747261646F00000000 PUSH0 DUP3 ADD MSTORE POP JUMP JUMPDEST PUSH0 PUSH2 0x182A PUSH1 0x1C DUP4 PUSH2 0x1343 JUMP JUMPDEST SWAP2 POP PUSH2 0x1835 DUP3 PUSH2 0x17F6 JUMP JUMPDEST PUSH1 0x20 DUP3 ADD SWAP1 POP SWAP2 SWAP1 POP JUMP JUMPDEST PUSH0 PUSH1 0x20 DUP3 ADD SWAP1 POP DUP2 DUP2 SUB PUSH0 DUP4 ADD MSTORE PUSH2 0x1857 DUP2 PUSH2 0x181E JUMP JUMPDEST SWAP1 POP SWAP2 SWAP1 POP JUMP JUMPDEST PUSH0 PUSH1 0x20 PUSH1 0x1F DUP4 ADD DIV SWAP1 POP SWAP2 SWAP1 POP JUMP JUMPDEST PUSH0 DUP3 DUP3 SHL SWAP1 POP SWAP3 SWAP2 POP POP JUMP JUMPDEST PUSH0 PUSH1 0x8 DUP4 MUL PUSH2 0x18A8 PUSH32 0xFFFFFFFFFFFFFFFFFFFFFFFFFFFFFFFFFFFFFFFFFFFFFFFFFFFFFFFFFFFFFFFF DUP3 PUSH2 0x186D JUMP JUMPDEST PUSH2 0x18B2 DUP7 DUP4 PUSH2 0x186D JUMP JUMPDEST SWAP6 POP DUP1 NOT DUP5 AND SWAP4 POP DUP1 DUP7 AND DUP5 OR SWAP3 POP POP POP SWAP4 SWAP3 POP POP POP JUMP JUMPDEST PUSH0 PUSH2 0x18E4 PUSH2 0x18DF PUSH2 0x18DA DUP5 PUSH2 0xF28 JUMP JUMPDEST PUSH2 0x10BE JUMP JUMPDEST PUSH2 0xF28 JUMP JUMPDEST SWAP1 POP SWAP2 SWAP1 POP JUMP JUMPDEST PUSH0 DUP2 SWAP1 POP SWAP2 SWAP1 POP JUMP JUMPDEST PUSH2 0x18FD DUP4 PUSH2 0x18CA JUMP JUMPDEST PUSH2 0x1911 PUSH2 0x1909 DUP3 PUSH2 0x18EB JUMP JUMPDEST DUP5 DUP5 SLOAD PUSH2 0x1879 JUMP JUMPDEST DUP3 SSTORE POP POP POP POP JUMP JUMPDEST PUSH0 PUSH0 SWAP1 POP SWAP1 JUMP JUMPDEST PUSH2 0x1928 PUSH2 0x1919 JUMP JUMPDEST PUSH2 0x1933 DUP2 DUP5 DUP5 PUSH2 0x18F4 JUMP JUMPDEST POP POP POP JUMP JUMPDEST JUMPDEST DUP2 DUP2 LT ISZERO PUSH2 0x1956 JUMPI PUSH2 0x194B PUSH0 DUP3 PUSH2 0x1920 JUMP JUMPDEST PUSH1 0x1 DUP2 ADD SWAP1 POP PUSH2 0x1939 JUMP JUMPDEST POP POP JUMP JUMPDEST PUSH1 0x1F DUP3 GT ISZERO PUSH2 0x199B JUMPI PUSH2 0x196C DUP2 PUSH2 0x174E JUMP JUMPDEST PUSH2 0x1975 DUP5 PUSH2 0x185E JUMP JUMPDEST DUP2 ADD PUSH1 0x20 DUP6 LT ISZERO PUSH2 0x1984 JUMPI DUP2 SWAP1 POP JUMPDEST PUSH2 0x1998 PUSH2 0x1990 DUP6 PUSH2 0x185E JUMP JUMPDEST DUP4 ADD DUP3 PUSH2 0x1938 JUMP JUMPDEST POP POP JUMPDEST POP POP POP JUMP JUMPDEST PUSH0 DUP3 DUP3 SHR SWAP1 POP SWAP3 SWAP2 POP POP JUMP JUMPDEST PUSH0 PUSH2 0x19BB PUSH0 NOT DUP5 PUSH1 0x8 MUL PUSH2 0x19A0 JUMP JUMPDEST NOT DUP1 DUP4 AND SWAP2 POP POP SWAP3 SWAP2 POP POP JUMP JUMPDEST PUSH0 PUSH2 0x19D3 DUP4 DUP4 PUSH2 0x19AC JUMP JUMPDEST SWAP2 POP DUP3 PUSH1 0x2 MUL DUP3 OR SWAP1 POP SWAP3 SWAP2 POP POP JUMP JUMPDEST PUSH2 0x19EC DUP3 PUSH2 0xEB8 JUMP JUMPDEST PUSH8 0xFFFFFFFFFFFFFFFF DUP2 GT ISZERO PUSH2 0x1A05 JUMPI PUSH2 0x1A04 PUSH2 0x114B JUMP JUMPDEST JUMPDEST PUSH2 0x1A0F DUP3 SLOAD PUSH2 0x1640 JUMP JUMPDEST PUSH2 0x1A1A DUP3 DUP3 DUP6 PUSH2 0x195A JUMP JUMPDEST PUSH0 PUSH1 0x20 SWAP1 POP PUSH1 0x1F DUP4 GT PUSH1 0x1 DUP2 EQ PUSH2 0x1A4B JUMPI PUSH0 DUP5 ISZERO PUSH2 0x1A39 JUMPI DUP3 DUP8 ADD MLOAD SWAP1 POP JUMPDEST PUSH2 0x1A43 DUP6 DUP3 PUSH2 0x19C8 JUMP JUMPDEST DUP7 SSTORE POP PUSH2 0x1AAA JUMP JUMPDEST PUSH1 0x1F NOT DUP5 AND PUSH2 0x1A59 DUP7 PUSH2 0x174E JUMP JUMPDEST PUSH0 JUMPDEST DUP3 DUP2 LT ISZERO PUSH2 0x1A80 JUMPI DUP5 DUP10 ADD MLOAD DUP3 SSTORE PUSH1 0x1 DUP3 ADD SWAP2 POP PUSH1 0x20 DUP6 ADD SWAP5 POP PUSH1 0x20 DUP2 ADD SWAP1 POP PUSH2 0x1A5B JUMP JUMPDEST DUP7 DUP4 LT ISZERO PUSH2 0x1A9D JUMPI DUP5 DUP10 ADD MLOAD PUSH2 0x1A99 PUSH1 0x1F DUP10 AND DUP3 PUSH2 0x19AC JUMP JUMPDEST DUP4 SSTORE POP JUMPDEST PUSH1 0x1 PUSH1 0x2 DUP9 MUL ADD DUP9 SSTORE POP POP POP JUMPDEST POP POP POP POP POP POP JUMP JUMPDEST PUSH0 PUSH0 REVERT JUMPDEST PUSH0 PUSH0 REVERT JUMPDEST PUSH0 DUP2 MLOAD SWAP1 POP PUSH2 0x1AC8 DUP2 PUSH2 0x1299 JUMP JUMPDEST SWAP3 SWAP2 POP POP JUMP JUMPDEST PUSH0 PUSH2 0x1AE0 PUSH2 0x1ADB DUP5 PUSH2 0x11C3 JUMP JUMPDEST PUSH2 0x11A9 JUMP JUMPDEST SWAP1 POP DUP3 DUP2 MSTORE PUSH1 0x20 DUP2 ADD DUP5 DUP5 DUP5 ADD GT ISZERO PUSH2 0x1AFC JUMPI PUSH2 0x1AFB PUSH2 0x1147 JUMP JUMPDEST JUMPDEST PUSH2 0x1B07 DUP5 DUP3 DUP6 PUSH2 0xED2 JUMP JUMPDEST POP SWAP4 SWAP3 POP POP POP JUMP JUMPDEST PUSH0 DUP3 PUSH1 0x1F DUP4 ADD SLT PUSH2 0x1B23 JUMPI PUSH2 0x1B22 PUSH2 0x1143 JUMP JUMPDEST JUMPDEST DUP2 MLOAD PUSH2 0x1B33 DUP5 DUP3 PUSH1 0x20 DUP7 ADD PUSH2 0x1ACE JUMP JUMPDEST SWAP2 POP POP SWAP3 SWAP2 POP POP JUMP JUMPDEST PUSH2 0x1B45 DUP2 PUSH2 0xF7F JUMP JUMPDEST DUP2 EQ PUSH2 0x1B4F JUMPI PUSH0 PUSH0 REVERT JUMPDEST POP JUMP JUMPDEST PUSH0 DUP2 MLOAD SWAP1 POP PUSH2 0x1B60 DUP2 PUSH2 0x1B3C JUMP JUMPDEST SWAP3 SWAP2 POP POP JUMP JUMPDEST PUSH0 PUSH1 0x60 DUP3 DUP5 SUB SLT ISZERO PUSH2 0x1B7B JUMPI PUSH2 0x1B7A PUSH2 0x1AB2 JUMP JUMPDEST JUMPDEST PUSH2 0x1B85 PUSH1 0x60 PUSH2 0x11A9 JUMP JUMPDEST SWAP1 POP PUSH0 PUSH2 0x1B94 DUP5 DUP3 DUP6 ADD PUSH2 0x1ABA JUMP JUMPDEST PUSH0 DUP4 ADD MSTORE POP PUSH1 0x20 DUP3 ADD MLOAD PUSH8 0xFFFFFFFFFFFFFFFF DUP2 GT ISZERO PUSH2 0x1BB7 JUMPI PUSH2 0x1BB6 PUSH2 0x1AB6 JUMP JUMPDEST JUMPDEST PUSH2 0x1BC3 DUP5 DUP3 DUP6 ADD PUSH2 0x1B0F JUMP JUMPDEST PUSH1 0x20 DUP4 ADD MSTORE POP PUSH1 0x40 PUSH2 0x1BD7 DUP5 DUP3 DUP6 ADD PUSH2 0x1B52 JUMP JUMPDEST PUSH1 0x40 DUP4 ADD MSTORE POP SWAP3 SWAP2 POP POP JUMP JUMPDEST PUSH0 PUSH1 0x20 DUP3 DUP5 SUB SLT ISZERO PUSH2 0x1BF8 JUMPI PUSH2 0x1BF7 PUSH2 0x113B JUMP JUMPDEST JUMPDEST PUSH0 DUP3 ADD MLOAD PUSH8 0xFFFFFFFFFFFFFFFF DUP2 GT ISZERO PUSH2 0x1C15 JUMPI PUSH2 0x1C14 PUSH2 0x113F JUMP JUMPDEST JUMPDEST PUSH2 0x1C21 DUP5 DUP3 DUP6 ADD PUSH2 0x1B66 JUMP JUMPDEST SWAP2 POP POP SWAP3 SWAP2 POP POP JUMP JUMPDEST PUSH0 DUP2 SLOAD PUSH2 0x1C36 DUP2 PUSH2 0x1640 JUMP JUMPDEST PUSH2 0x1C40 DUP2 DUP7 PUSH2 0x1343 JUMP JUMPDEST SWAP5 POP PUSH1 0x1 DUP3 AND PUSH0 DUP2 EQ PUSH2 0x1C5A JUMPI PUSH1 0x1 DUP2 EQ PUSH2 0x1C70 JUMPI PUSH2 0x1CA2 JUMP JUMPDEST PUSH1 0xFF NOT DUP4 AND DUP7 MSTORE DUP2 ISZERO ISZERO PUSH1 0x20 MUL DUP7 ADD SWAP4 POP PUSH2 0x1CA2 JUMP JUMPDEST PUSH2 0x1C79 DUP6 PUSH2 0x174E JUMP JUMPDEST PUSH0 JUMPDEST DUP4 DUP2 LT ISZERO PUSH2 0x1C9A JUMPI DUP2 SLOAD DUP2 DUP10 ADD MSTORE PUSH1 0x1 DUP3 ADD SWAP2 POP PUSH1 0x20 DUP2 ADD SWAP1 POP PUSH2 0x1C7B JUMP JUMPDEST DUP1 DUP9 ADD SWAP6 POP POP POP JUMPDEST POP POP POP SWAP3 SWAP2 POP POP JUMP JUMPDEST PUSH0 PUSH1 0x20 DUP3 ADD SWAP1 POP DUP2 DUP2 SUB PUSH0 DUP4 ADD MSTORE PUSH2 0x1CC3 DUP2 DUP5 PUSH2 0x1C2A JUMP JUMPDEST SWAP1 POP SWAP3 SWAP2 POP POP JUMP JUMPDEST PUSH32 0x4E487B7100000000000000000000000000000000000000000000000000000000 PUSH0 MSTORE PUSH1 0x11 PUSH1 0x4 MSTORE PUSH1 0x24 PUSH0 REVERT JUMPDEST PUSH0 PUSH2 0x1D02 DUP3 PUSH2 0xF28 JUMP JUMPDEST SWAP2 POP PUSH2 0x1D0D DUP4 PUSH2 0xF28 JUMP JUMPDEST SWAP3 POP DUP3 DUP3 SUB SWAP1 POP DUP2 DUP2 GT ISZERO PUSH2 0x1D25 JUMPI PUSH2 0x1D24 PUSH2 0x1CCB JUMP JUMPDEST JUMPDEST SWAP3 SWAP2 POP POP JUMP JUMPDEST PUSH0 DUP2 SLOAD SWAP1 POP PUSH2 0x1D39 DUP2 PUSH2 0x1640 JUMP JUMPDEST SWAP1 POP SWAP2 SWAP1 POP JUMP JUMPDEST DUP2 DUP2 SUB PUSH2 0x1D4E JUMPI POP POP PUSH2 0x1E23 JUMP JUMPDEST PUSH2 0x1D57 DUP3 PUSH2 0x1D2B JUMP JUMPDEST PUSH8 0xFFFFFFFFFFFFFFFF DUP2 GT ISZERO PUSH2 0x1D70 JUMPI PUSH2 0x1D6F PUSH2 0x114B JUMP JUMPDEST JUMPDEST PUSH2 0x1D7A DUP3 SLOAD PUSH2 0x1640 JUMP JUMPDEST PUSH2 0x1D85 DUP3 DUP3 DUP6 PUSH2 0x195A JUMP JUMPDEST PUSH0 PUSH1 0x1F DUP4 GT PUSH1 0x1 DUP2 EQ PUSH2 0x1DB2 JUMPI PUSH0 DUP5 ISZERO PUSH2 0x1DA0 JUMPI DUP3 DUP8 ADD SLOAD SWAP1 POP JUMPDEST PUSH2 0x1DAA DUP6 DUP3 PUSH2 0x19C8 JUMP JUMPDEST DUP7 SSTORE POP PUSH2 0x1E1C JUMP JUMPDEST PUSH1 0x1F NOT DUP5 AND PUSH2 0x1DC0 DUP8 PUSH2 0x174E JUMP JUMPDEST SWAP7 POP PUSH2 0x1DCB DUP7 PUSH2 0x174E JUMP JUMPDEST PUSH0 JUMPDEST DUP3 DUP2 LT ISZERO PUSH2 0x1DF2 JUMPI DUP5 DUP10 ADD SLOAD DUP3 SSTORE PUSH1 0x1 DUP3 ADD SWAP2 POP PUSH1 0x1 DUP6 ADD SWAP5 POP PUSH1 0x20 DUP2 ADD SWAP1 POP PUSH2 0x1DCD JUMP JUMPDEST DUP7 DUP4 LT ISZERO PUSH2 0x1E0F JUMPI DUP5 DUP10 ADD SLOAD PUSH2 0x1E0B PUSH1 0x1F DUP10 AND DUP3 PUSH2 0x19AC JUMP JUMPDEST DUP4 SSTORE POP JUMPDEST PUSH1 0x1 PUSH1 0x2 DUP9 MUL ADD DUP9 SSTORE POP POP POP JUMPDEST POP POP POP POP POP POP JUMPDEST JUMP JUMPDEST PUSH32 0x4E487B7100000000000000000000000000000000000000000000000000000000 PUSH0 MSTORE PUSH1 0x31 PUSH1 0x4 MSTORE PUSH1 0x24 PUSH0 REVERT INVALID GASLIMIT PUSH13 0x206C7567617220796120736520 PUSH6 0x6E6375656E74 PUSH19 0x61207265676973747261646F47756961206465 KECCAK256 SLOAD PUSH22 0x726973746173207265676973747261646F20636F6E20 PUSH6 0x7869746FA264 PUSH10 0x7066735822122010DF5C SLT PUSH17 0x5313D423081227FA0A43D9224866315890 DUP5 0x1E SUB JUMPI CALLDATACOPY DUP4 0xBA 0xCA 0x22 0xC9 PUSH5 0x736F6C6343 STOP ADDMOD 0x1E STOP CALLER "
		},
		"gasEstimates": {
			"creation": {
				"codeDepositCost": "1577600",
				"executionCost": "infinite",
				"totalCost": "infinite"
			},
			"external": {
				"duenno()": "2552",
				"eliminarLugar(string)": "infinite",
				"listaLugares(uint256)": "infinite",
				"obtenerGuia(address)": "infinite",
				"registrarLugar(string,uint256,uint256,address)": "infinite",
				"usuariosContrato()": "infinite",
				"verLugar(string)": "infinite",
				"verLugares()": "infinite"
			}
		},
		"methodIdentifiers": {
			"duenno()": "9dc43f77",
			"eliminarLugar(string)": "bcfbb717",
			"listaLugares(uint256)": "9c9eea79",
			"obtenerGuia(address)": "7b21b786",
			"registrarLugar(string,uint256,uint256,address)": "677c8d60",
			"usuariosContrato()": "3448e618",
			"verLugar(string)": "77acb280",
			"verLugares()": "2f8db574"
		}
	},
	"abi": [
		{
			"inputs": [
				{
					"internalType": "address",
					"name": "_usuariosContrato",
					"type": "address"
				}
			],
			"stateMutability": "nonpayable",
			"type": "constructor"
		},
		{
			"anonymous": false,
			"inputs": [
				{
					"indexed": false,
					"internalType": "string",
					"name": "nombre",
					"type": "string"
				}
			],
			"name": "LugarEliminado",
			"type": "event"
		},
		{
			"anonymous": false,
			"inputs": [
				{
					"indexed": false,
					"internalType": "string",
					"name": "nombre",
					"type": "string"
				}
			],
			"name": "LugarRegistrado",
			"type": "event"
		},
		{
			"inputs": [],
			"name": "duenno",
			"outputs": [
				{
					"internalType": "address",
					"name": "",
					"type": "address"
				}
			],
			"stateMutability": "view",
			"type": "function"
		},
		{
			"inputs": [
				{
					"internalType": "string",
					"name": "_nombre",
					"type": "string"
				}
			],
			"name": "eliminarLugar",
			"outputs": [
				{
					"internalType": "string",
					"name": "mensaje",
					"type": "string"
				}
			],
			"stateMutability": "nonpayable",
			"type": "function"
		},
		{
			"inputs": [
				{
					"internalType": "uint256",
					"name": "",
					"type": "uint256"
				}
			],
			"name": "listaLugares",
			"outputs": [
				{
					"internalType": "string",
					"name": "nombre",
					"type": "string"
				},
				{
					"internalType": "uint256",
					"name": "precio",
					"type": "uint256"
				},
				{
					"internalType": "uint256",
					"name": "cupos",
					"type": "uint256"
				},
				{
					"internalType": "address",
					"name": "guiaTurustas",
					"type": "address"
				},
				{
					"internalType": "bool",
					"name": "estado",
					"type": "bool"
				}
			],
			"stateMutability": "view",
			"type": "function"
		},
		{
			"inputs": [
				{
					"internalType": "address",
					"name": "_cuenta",
					"type": "address"
				}
			],
			"name": "obtenerGuia",
			"outputs": [
				{
					"components": [
						{
							"internalType": "address",
							"name": "cuenta",
							"type": "address"
						},
						{
							"internalType": "string",
							"name": "nombreCompleto",
							"type": "string"
						},
						{
							"internalType": "bool",
							"name": "estado",
							"type": "bool"
						}
					],
					"internalType": "struct Usuarios.GuiaTuristas",
					"name": "",
					"type": "tuple"
				}
			],
			"stateMutability": "view",
			"type": "function"
		},
		{
			"inputs": [
				{
					"internalType": "string",
					"name": "_nombre",
					"type": "string"
				},
				{
					"internalType": "uint256",
					"name": "_precio",
					"type": "uint256"
				},
				{
					"internalType": "uint256",
					"name": "_cupos",
					"type": "uint256"
				},
				{
					"internalType": "address",
					"name": "_guiaTuristas",
					"type": "address"
				}
			],
			"name": "registrarLugar",
			"outputs": [
				{
					"internalType": "string",
					"name": "",
					"type": "string"
				}
			],
			"stateMutability": "nonpayable",
			"type": "function"
		},
		{
			"inputs": [],
			"name": "usuariosContrato",
			"outputs": [
				{
					"internalType": "contract Usuarios",
					"name": "",
					"type": "address"
				}
			],
			"stateMutability": "view",
			"type": "function"
		},
		{
			"inputs": [
				{
					"internalType": "string",
					"name": "_nombre",
					"type": "string"
				}
			],
			"name": "verLugar",
			"outputs": [
				{
					"components": [
						{
							"internalType": "string",
							"name": "nombre",
							"type": "string"
						},
						{
							"internalType": "uint256",
							"name": "precio",
							"type": "uint256"
						},
						{
							"internalType": "uint256",
							"name": "cupos",
							"type": "uint256"
						},
						{
							"internalType": "address",
							"name": "guiaTurustas",
							"type": "address"
						},
						{
							"internalType": "bool",
							"name": "estado",
							"type": "bool"
						}
					],
					"internalType": "struct Lugares.Lugar",
					"name": "lugar",
					"type": "tuple"
				}
			],
			"stateMutability": "view",
			"type": "function"
		},
		{
			"inputs": [],
			"name": "verLugares",
			"outputs": [
				{
					"components": [
						{
							"internalType": "string",
							"name": "nombre",
							"type": "string"
						},
						{
							"internalType": "uint256",
							"name": "precio",
							"type": "uint256"
						},
						{
							"internalType": "uint256",
							"name": "cupos",
							"type": "uint256"
						},
						{
							"internalType": "address",
							"name": "guiaTurustas",
							"type": "address"
						},
						{
							"internalType": "bool",
							"name": "estado",
							"type": "bool"
						}
					],
					"internalType": "struct Lugares.Lugar[]",
					"name": "resultado",
					"type": "tuple[]"
				}
			],
			"stateMutability": "view",
			"type": "function"
		}
	]
}