{
	"data": {
		"bytecode": {
			"linkReferences": {},
			"object": "608060405234801561000f575f5ffd5b5060405161264f38038061264f83398181016040528101906100319190610115565b815f5f6101000a81548173ffffffffffffffffffffffffffffffffffffffff021916908373ffffffffffffffffffffffffffffffffffffffff1602179055508060015f6101000a81548173ffffffffffffffffffffffffffffffffffffffff021916908373ffffffffffffffffffffffffffffffffffffffff1602179055505050610153565b5f5ffd5b5f73ffffffffffffffffffffffffffffffffffffffff82169050919050565b5f6100e4826100bb565b9050919050565b6100f4816100da565b81146100fe575f5ffd5b50565b5f8151905061010f816100eb565b92915050565b5f5f6040838503121561012b5761012a6100b7565b5b5f61013885828601610101565b925050602061014985828601610101565b9150509250929050565b6124ef806101605f395ff3fe608060405234801561000f575f5ffd5b5060043610610086575f3560e01c80637b21b786116100595780637b21b786146101365780638693099914610166578063c158cded14610182578063c8d63c50146101a057610086565b806316381e251461008a5780631efb90eb146100ba57806347508738146100d65780636b6d262a14610106575b5f5ffd5b6100a4600480360381019061009f919061104d565b6101d0565b6040516100b1919061118c565b60405180910390f35b6100d460048036038101906100cf9190611302565b61027a565b005b6100f060048036038101906100eb919061139e565b61050d565b6040516100fd9190611470565b60405180910390f35b610120600480360381019061011b919061139e565b6105b8565b60405161012d91906115c5565b60405180910390f35b610150600480360381019061014b919061104d565b610a09565b60405161015d9190611632565b60405180910390f35b610180600480360381019061017b919061167c565b610ab3565b005b61018a610c15565b60405161019791906116b6565b60405180910390f35b6101ba60048036038101906101b5919061167c565b610ca8565b6040516101c79190611749565b60405180910390f35b6101d8610ede565b5f5f9054906101000a900473ffffffffffffffffffffffffffffffffffffffff1673ffffffffffffffffffffffffffffffffffffffff16638e12bf87836040518263ffffffff1660e01b815260040161023191906116b6565b5f60405180830381865afa15801561024b573d5f5f3e3d5ffd5b505050506040513d5f823e3d601f19601f8201168201806040525081019061027391906118c2565b9050919050565b5f8451116102bd576040517f08c379a00000000000000000000000000000000000000000000000000000000081526004016102b490611989565b60405180910390fd5b6102c68461050d565b60800151610309576040517f08c379a0000000000000000000000000000000000000000000000000000000008152600401610300906119f1565b60405180910390fd5b610312836101d0565b60600151610355576040517f08c379a000000000000000000000000000000000000000000000000000000000815260040161034c90611a59565b60405180910390fd5b60018260ff161015801561036d5750600a8260ff1611155b6103ac576040517f08c379a00000000000000000000000000000000000000000000000000000000081526004016103a390611ac1565b60405180910390fd5b6040518060a001604052808581526020018473ffffffffffffffffffffffffffffffffffffffff1681526020018360ff1681526020018281526020016001151581525060025f60035481526020019081526020015f205f820151815f0190816104159190611cdc565b506020820151816001015f6101000a81548173ffffffffffffffffffffffffffffffffffffffff021916908373ffffffffffffffffffffffffffffffffffffffff16021790555060408201518160010160146101000a81548160ff021916908360ff16021790555060608201518160020190816104929190611cdc565b506080820151816003015f6101000a81548160ff02191690831515021790555090505060035f8154809291906104c790611dd8565b91905055507f7acb1190ce5e2a1b5f4eab3a2abffeb5c2864903703f3f183a370bf3862c37a4600354856040516104ff929190611e66565b60405180910390a150505050565b610515610f1e565b60015f9054906101000a900473ffffffffffffffffffffffffffffffffffffffff1673ffffffffffffffffffffffffffffffffffffffff166377acb280836040518263ffffffff1660e01b815260040161056f9190611e94565b5f60405180830381865afa158015610589573d5f5f3e3d5ffd5b505050506040513d5f823e3d601f19601f820116820180604052508101906105b19190611f6d565b9050919050565b60605f8251116105fd576040517f08c379a00000000000000000000000000000000000000000000000000000000081526004016105f490612024565b60405180910390fd5b6106068261050d565b60800151610649576040517f08c379a00000000000000000000000000000000000000000000000000000000081526004016106409061208c565b60405180910390fd5b5f5f90505f5f90505b600354811015610707578360405160200161066d91906120e4565b6040516020818303038152906040528051906020012060025f8381526020019081526020015f205f016040516020016106a6919061217a565b604051602081830303815290604052805190602001201480156106e6575060025f8281526020019081526020015f206003015f9054906101000a900460ff165b156106fa5781806106f690611dd8565b9250505b8080600101915050610652565b508067ffffffffffffffff811115610722576107216111b4565b5b60405190808252806020026020018201604052801561075b57816020015b610748610f64565b8152602001906001900390816107405790505b5091505f5f90505f5f90505b600354811015610a01578460405160200161078291906120e4565b6040516020818303038152906040528051906020012060025f8381526020019081526020015f205f016040516020016107bb919061217a565b604051602081830303815290604052805190602001201480156107fb575060025f8281526020019081526020015f206003015f9054906101000a900460ff165b156109f45760025f8281526020019081526020015f206040518060a00160405290815f8201805461082b90611b0c565b80601f016020809104026020016040519081016040528092919081815260200182805461085790611b0c565b80156108a25780601f10610879576101008083540402835291602001916108a2565b820191905f5260205f20905b81548152906001019060200180831161088557829003601f168201915b50505050508152602001600182015f9054906101000a900473ffffffffffffffffffffffffffffffffffffffff1673ffffffffffffffffffffffffffffffffffffffff1673ffffffffffffffffffffffffffffffffffffffff1681526020016001820160149054906101000a900460ff1660ff1660ff16815260200160028201805461092d90611b0c565b80601f016020809104026020016040519081016040528092919081815260200182805461095990611b0c565b80156109a45780601f1061097b576101008083540402835291602001916109a4565b820191905f5260205f20905b81548152906001019060200180831161098757829003601f168201915b50505050508152602001600382015f9054906101000a900460ff1615151515815250508483815181106109da576109d9612190565b5b602002602001018190525081806109f090611dd8565b9250505b8080600101915050610767565b505050919050565b610a11610fab565b5f5f9054906101000a900473ffffffffffffffffffffffffffffffffffffffff1673ffffffffffffffffffffffffffffffffffffffff1663db096f25836040518263ffffffff1660e01b8152600401610a6a91906116b6565b5f60405180830381865afa158015610a84573d5f5f3e3d5ffd5b505050506040513d5f823e3d601f19601f82011682018060405250810190610aac919061223a565b9050919050565b610abb610c15565b73ffffffffffffffffffffffffffffffffffffffff163373ffffffffffffffffffffffffffffffffffffffff161480610afd5750610af833610a09565b604001515b610b3c576040517f08c379a0000000000000000000000000000000000000000000000000000000008152600401610b33906122f1565b60405180910390fd5b60025f8281526020019081526020015f206003015f9054906101000a900460ff16610b9c576040517f08c379a0000000000000000000000000000000000000000000000000000000008152600401610b9390612359565b60405180910390fd5b5f60025f8381526020019081526020015f206003015f6101000a81548160ff0219169083151502179055507f9e7c73b94c509b6545019d3256a7cf989083b66882e3458ef9ca07c8937ee70d8160025f8481526020019081526020015f205f01604051610c0a9291906123f8565b60405180910390a150565b5f5f5f9054906101000a900473ffffffffffffffffffffffffffffffffffffffff1673ffffffffffffffffffffffffffffffffffffffff16630a4c199a6040518163ffffffff1660e01b8152600401602060405180830381865afa158015610c7f573d5f5f3e3d5ffd5b505050506040513d601f19601f82011682018060405250810190610ca39190612426565b905090565b610cb0610f64565b60025f8381526020019081526020015f206003015f9054906101000a900460ff16610d10576040517f08c379a0000000000000000000000000000000000000000000000000000000008152600401610d079061249b565b60405180910390fd5b60025f8381526020019081526020015f206040518060a00160405290815f82018054610d3b90611b0c565b80601f0160208091040260200160405190810160405280929190818152602001828054610d6790611b0c565b8015610db25780601f10610d8957610100808354040283529160200191610db2565b820191905f5260205f20905b815481529060010190602001808311610d9557829003601f168201915b50505050508152602001600182015f9054906101000a900473ffffffffffffffffffffffffffffffffffffffff1673ffffffffffffffffffffffffffffffffffffffff1673ffffffffffffffffffffffffffffffffffffffff1681526020016001820160149054906101000a900460ff1660ff1660ff168152602001600282018054610e3d90611b0c565b80601f0160208091040260200160405190810160405280929190818152602001828054610e6990611b0c565b8015610eb45780601f10610e8b57610100808354040283529160200191610eb4565b820191905f5260205f20905b815481529060010190602001808311610e9757829003601f168201915b50505050508152602001600382015f9054906101000a900460ff1615151515815250509050919050565b60405180608001604052805f73ffffffffffffffffffffffffffffffffffffffff168152602001606081526020015f60ff1681526020015f151581525090565b6040518060a00160405280606081526020015f81526020015f60ff1681526020015f73ffffffffffffffffffffffffffffffffffffffff1681526020015f151581525090565b6040518060a00160405280606081526020015f73ffffffffffffffffffffffffffffffffffffffff1681526020015f60ff168152602001606081526020015f151581525090565b60405180606001604052805f73ffffffffffffffffffffffffffffffffffffffff168152602001606081526020015f151581525090565b5f604051905090565b5f5ffd5b5f5ffd5b5f73ffffffffffffffffffffffffffffffffffffffff82169050919050565b5f61101c82610ff3565b9050919050565b61102c81611012565b8114611036575f5ffd5b50565b5f8135905061104781611023565b92915050565b5f6020828403121561106257611061610feb565b5b5f61106f84828501611039565b91505092915050565b61108181611012565b82525050565b5f81519050919050565b5f82825260208201905092915050565b8281835e5f83830152505050565b5f601f19601f8301169050919050565b5f6110c982611087565b6110d38185611091565b93506110e38185602086016110a1565b6110ec816110af565b840191505092915050565b5f60ff82169050919050565b61110c816110f7565b82525050565b5f8115159050919050565b61112681611112565b82525050565b5f608083015f8301516111415f860182611078565b506020830151848203602086015261115982826110bf565b915050604083015161116e6040860182611103565b506060830151611181606086018261111d565b508091505092915050565b5f6020820190508181035f8301526111a4818461112c565b905092915050565b5f5ffd5b5f5ffd5b7f4e487b71000000000000000000000000000000000000000000000000000000005f52604160045260245ffd5b6111ea826110af565b810181811067ffffffffffffffff82111715611209576112086111b4565b5b80604052505050565b5f61121b610fe2565b905061122782826111e1565b919050565b5f67ffffffffffffffff821115611246576112456111b4565b5b61124f826110af565b9050602081019050919050565b828183375f83830152505050565b5f61127c6112778461122c565b611212565b905082815260208101848484011115611298576112976111b0565b5b6112a384828561125c565b509392505050565b5f82601f8301126112bf576112be6111ac565b5b81356112cf84826020860161126a565b91505092915050565b6112e1816110f7565b81146112eb575f5ffd5b50565b5f813590506112fc816112d8565b92915050565b5f5f5f5f6080858703121561131a57611319610feb565b5b5f85013567ffffffffffffffff81111561133757611336610fef565b5b611343878288016112ab565b945050602061135487828801611039565b9350506040611365878288016112ee565b925050606085013567ffffffffffffffff81111561138657611385610fef565b5b611392878288016112ab565b91505092959194509250565b5f602082840312156113b3576113b2610feb565b5b5f82013567ffffffffffffffff8111156113d0576113cf610fef565b5b6113dc848285016112ab565b91505092915050565b5f819050919050565b6113f7816113e5565b82525050565b5f60a083015f8301518482035f86015261141782826110bf565b915050602083015161142c60208601826113ee565b50604083015161143f6040860182611103565b5060608301516114526060860182611078565b506080830151611465608086018261111d565b508091505092915050565b5f6020820190508181035f83015261148881846113fd565b905092915050565b5f81519050919050565b5f82825260208201905092915050565b5f819050602082019050919050565b5f60a083015f8301518482035f8601526114d382826110bf565b91505060208301516114e86020860182611078565b5060408301516114fb6040860182611103565b506060830151848203606086015261151382826110bf565b9150506080830151611528608086018261111d565b508091505092915050565b5f61153e83836114b9565b905092915050565b5f602082019050919050565b5f61155c82611490565b611566818561149a565b935083602082028501611578856114aa565b805f5b858110156115b357848403895281516115948582611533565b945061159f83611546565b925060208a0199505060018101905061157b565b50829750879550505050505092915050565b5f6020820190508181035f8301526115dd8184611552565b905092915050565b5f606083015f8301516115fa5f860182611078565b506020830151848203602086015261161282826110bf565b9150506040830151611627604086018261111d565b508091505092915050565b5f6020820190508181035f83015261164a81846115e5565b905092915050565b61165b816113e5565b8114611665575f5ffd5b50565b5f8135905061167681611652565b92915050565b5f6020828403121561169157611690610feb565b5b5f61169e84828501611668565b91505092915050565b6116b081611012565b82525050565b5f6020820190506116c95f8301846116a7565b92915050565b5f60a083015f8301518482035f8601526116e982826110bf565b91505060208301516116fe6020860182611078565b5060408301516117116040860182611103565b506060830151848203606086015261172982826110bf565b915050608083015161173e608086018261111d565b508091505092915050565b5f6020820190508181035f83015261176181846116cf565b905092915050565b5f5ffd5b5f5ffd5b5f8151905061177f81611023565b92915050565b5f6117976117928461122c565b611212565b9050828152602081018484840111156117b3576117b26111b0565b5b6117be8482856110a1565b509392505050565b5f82601f8301126117da576117d96111ac565b5b81516117ea848260208601611785565b91505092915050565b5f81519050611801816112d8565b92915050565b61181081611112565b811461181a575f5ffd5b50565b5f8151905061182b81611807565b92915050565b5f6080828403121561184657611845611769565b5b6118506080611212565b90505f61185f84828501611771565b5f83015250602082015167ffffffffffffffff8111156118825761188161176d565b5b61188e848285016117c6565b60208301525060406118a2848285016117f3565b60408301525060606118b68482850161181d565b60608301525092915050565b5f602082840312156118d7576118d6610feb565b5b5f82015167ffffffffffffffff8111156118f4576118f3610fef565b5b61190084828501611831565b91505092915050565b5f82825260208201905092915050565b7f4465626520646566696e697220656c206c7567617220717565207365736561205f8201527f63616c6966696361720000000000000000000000000000000000000000000000602082015250565b5f611973602983611909565b915061197e82611919565b604082019050919050565b5f6020820190508181035f8301526119a081611967565b9050919050565b7f44656265722073657220756e206c75676172207265676973747261646f0000005f82015250565b5f6119db601d83611909565b91506119e6826119a7565b602082019050919050565b5f6020820190508181035f830152611a08816119cf565b9050919050565b7f44656265722073657220756e2074757269737461207265676973747261646f005f82015250565b5f611a43601f83611909565b9150611a4e82611a0f565b602082019050919050565b5f6020820190508181035f830152611a7081611a37565b9050919050565b7f446562652073657220756e2070756e74616a6520656e747265203120792031305f82015250565b5f611aab602083611909565b9150611ab682611a77565b602082019050919050565b5f6020820190508181035f830152611ad881611a9f565b9050919050565b7f4e487b71000000000000000000000000000000000000000000000000000000005f52602260045260245ffd5b5f6002820490506001821680611b2357607f821691505b602082108103611b3657611b35611adf565b5b50919050565b5f819050815f5260205f209050919050565b5f6020601f8301049050919050565b5f82821b905092915050565b5f60088302611b987fffffffffffffffffffffffffffffffffffffffffffffffffffffffffffffffff82611b5d565b611ba28683611b5d565b95508019841693508086168417925050509392505050565b5f819050919050565b5f611bdd611bd8611bd3846113e5565b611bba565b6113e5565b9050919050565b5f819050919050565b611bf683611bc3565b611c0a611c0282611be4565b848454611b69565b825550505050565b5f5f905090565b611c21611c12565b611c2c818484611bed565b505050565b5b81811015611c4f57611c445f82611c19565b600181019050611c32565b5050565b601f821115611c9457611c6581611b3c565b611c6e84611b4e565b81016020851015611c7d578190505b611c91611c8985611b4e565b830182611c31565b50505b505050565b5f82821c905092915050565b5f611cb45f1984600802611c99565b1980831691505092915050565b5f611ccc8383611ca5565b9150826002028217905092915050565b611ce582611087565b67ffffffffffffffff811115611cfe57611cfd6111b4565b5b611d088254611b0c565b611d13828285611c53565b5f60209050601f831160018114611d44575f8415611d32578287015190505b611d3c8582611cc1565b865550611da3565b601f198416611d5286611b3c565b5f5b82811015611d7957848901518255600182019150602085019450602081019050611d54565b86831015611d965784890151611d92601f891682611ca5565b8355505b6001600288020188555050505b505050505050565b7f4e487b71000000000000000000000000000000000000000000000000000000005f52601160045260245ffd5b5f611de2826113e5565b91507fffffffffffffffffffffffffffffffffffffffffffffffffffffffffffffffff8203611e1457611e13611dab565b5b600182019050919050565b611e28816113e5565b82525050565b5f611e3882611087565b611e428185611909565b9350611e528185602086016110a1565b611e5b816110af565b840191505092915050565b5f604082019050611e795f830185611e1f565b8181036020830152611e8b8184611e2e565b90509392505050565b5f6020820190508181035f830152611eac8184611e2e565b905092915050565b5f81519050611ec281611652565b92915050565b5f60a08284031215611edd57611edc611769565b5b611ee760a0611212565b90505f82015167ffffffffffffffff811115611f0657611f0561176d565b5b611f12848285016117c6565b5f830152506020611f2584828501611eb4565b6020830152506040611f39848285016117f3565b6040830152506060611f4d84828501611771565b6060830152506080611f618482850161181d565b60808301525092915050565b5f60208284031215611f8257611f81610feb565b5b5f82015167ffffffffffffffff811115611f9f57611f9e610fef565b5b611fab84828501611ec8565b91505092915050565b7f4465626520696e67726573617220656c206e6f6d6272652064656c206c7567615f8201527f72207175652073656120766572206c617320726573656e6e6173000000000000602082015250565b5f61200e603a83611909565b915061201982611fb4565b604082019050919050565b5f6020820190508181035f83015261203b81612002565b9050919050565b7f446562652073657220756e206c756761722072656769737461646f00000000005f82015250565b5f612076601b83611909565b915061208182612042565b602082019050919050565b5f6020820190508181035f8301526120a38161206a565b9050919050565b5f81905092915050565b5f6120be82611087565b6120c881856120aa565b93506120d88185602086016110a1565b80840191505092915050565b5f6120ef82846120b4565b915081905092915050565b5f815461210681611b0c565b61211081866120aa565b9450600182165f811461212a576001811461213f57612171565b60ff1983168652811515820286019350612171565b61214885611b3c565b5f5b838110156121695781548189015260018201915060208101905061214a565b838801955050505b50505092915050565b5f61218582846120fa565b915081905092915050565b7f4e487b71000000000000000000000000000000000000000000000000000000005f52603260045260245ffd5b5f606082840312156121d2576121d1611769565b5b6121dc6060611212565b90505f6121eb84828501611771565b5f83015250602082015167ffffffffffffffff81111561220e5761220d61176d565b5b61221a848285016117c6565b602083015250604061222e8482850161181d565b60408301525092915050565b5f6020828403121561224f5761224e610feb565b5b5f82015167ffffffffffffffff81111561226c5761226b610fef565b5b612278848285016121bd565b91505092915050565b7f536f6c6f20656c204475656e6e6f206f204775696173206465207475726973745f8201527f6173207075656465207265616c697a6172206573746120616363696f6e000000602082015250565b5f6122db603d83611909565b91506122e682612281565b604082019050919050565b5f6020820190508181035f830152612308816122cf565b9050919050565b7f4573746120726573656e6e61206e6f20657869737465000000000000000000005f82015250565b5f612343601683611909565b915061234e8261230f565b602082019050919050565b5f6020820190508181035f83015261237081612337565b9050919050565b5f815461238381611b0c565b61238d8186611909565b9450600182165f81146123a757600181146123bd576123ef565b60ff1983168652811515602002860193506123ef565b6123c685611b3c565b5f5b838110156123e7578154818901526001820191506020810190506123c8565b808801955050505b50505092915050565b5f60408201905061240b5f830185611e1f565b818103602083015261241d8184612377565b90509392505050565b5f6020828403121561243b5761243a610feb565b5b5f61244884828501611771565b91505092915050565b7f4573746120726573657661206e6f2065786973746500000000000000000000005f82015250565b5f612485601583611909565b915061249082612451565b602082019050919050565b5f6020820190508181035f8301526124b281612479565b905091905056fea2646970667358221220a56d258925c4e3a3de0ca3200412373d81b6172403382b231e5fffbdcb37c25f64736f6c634300081e0033",
			"opcodes": "PUSH1 0x80 PUSH1 0x40 MSTORE CALLVALUE DUP1 ISZERO PUSH2 0xF JUMPI PUSH0 PUSH0 REVERT JUMPDEST POP PUSH1 0x40 MLOAD PUSH2 0x264F CODESIZE SUB DUP1 PUSH2 0x264F DUP4 CODECOPY DUP2 DUP2 ADD PUSH1 0x40 MSTORE DUP2 ADD SWAP1 PUSH2 0x31 SWAP2 SWAP1 PUSH2 0x115 JUMP JUMPDEST DUP2 PUSH0 PUSH0 PUSH2 0x100 EXP DUP2 SLOAD DUP2 PUSH20 0xFFFFFFFFFFFFFFFFFFFFFFFFFFFFFFFFFFFFFFFF MUL NOT AND SWAP1 DUP4 PUSH20 0xFFFFFFFFFFFFFFFFFFFFFFFFFFFFFFFFFFFFFFFF AND MUL OR SWAP1 SSTORE POP DUP1 PUSH1 0x1 PUSH0 PUSH2 0x100 EXP DUP2 SLOAD DUP2 PUSH20 0xFFFFFFFFFFFFFFFFFFFFFFFFFFFFFFFFFFFFFFFF MUL NOT AND SWAP1 DUP4 PUSH20 0xFFFFFFFFFFFFFFFFFFFFFFFFFFFFFFFFFFFFFFFF AND MUL OR SWAP1 SSTORE POP POP POP PUSH2 0x153 JUMP JUMPDEST PUSH0 PUSH0 REVERT JUMPDEST PUSH0 PUSH20 0xFFFFFFFFFFFFFFFFFFFFFFFFFFFFFFFFFFFFFFFF DUP3 AND SWAP1 POP SWAP2 SWAP1 POP JUMP JUMPDEST PUSH0 PUSH2 0xE4 DUP3 PUSH2 0xBB JUMP JUMPDEST SWAP1 POP SWAP2 SWAP1 POP JUMP JUMPDEST PUSH2 0xF4 DUP2 PUSH2 0xDA JUMP JUMPDEST DUP2 EQ PUSH2 0xFE JUMPI PUSH0 PUSH0 REVERT JUMPDEST POP JUMP JUMPDEST PUSH0 DUP2 MLOAD SWAP1 POP PUSH2 0x10F DUP2 PUSH2 0xEB JUMP JUMPDEST SWAP3 SWAP2 POP POP JUMP JUMPDEST PUSH0 PUSH0 PUSH1 0x40 DUP4 DUP6 SUB SLT ISZERO PUSH2 0x12B JUMPI PUSH2 0x12A PUSH2 0xB7 JUMP JUMPDEST JUMPDEST PUSH0 PUSH2 0x138 DUP6 DUP3 DUP7 ADD PUSH2 0x101 JUMP JUMPDEST SWAP3 POP POP PUSH1 0x20 PUSH2 0x149 DUP6 DUP3 DUP7 ADD PUSH2 0x101 JUMP JUMPDEST SWAP2 POP POP SWAP3 POP SWAP3 SWAP1 POP JUMP JUMPDEST PUSH2 0x24EF DUP1 PUSH2 0x160 PUSH0 CODECOPY PUSH0 RETURN INVALID PUSH1 0x80 PUSH1 0x40 MSTORE CALLVALUE DUP1 ISZERO PUSH2 0xF JUMPI PUSH0 PUSH0 REVERT JUMPDEST POP PUSH1 0x4 CALLDATASIZE LT PUSH2 0x86 JUMPI PUSH0 CALLDATALOAD PUSH1 0xE0 SHR DUP1 PUSH4 0x7B21B786 GT PUSH2 0x59 JUMPI DUP1 PUSH4 0x7B21B786 EQ PUSH2 0x136 JUMPI DUP1 PUSH4 0x86930999 EQ PUSH2 0x166 JUMPI DUP1 PUSH4 0xC158CDED EQ PUSH2 0x182 JUMPI DUP1 PUSH4 0xC8D63C50 EQ PUSH2 0x1A0 JUMPI PUSH2 0x86 JUMP JUMPDEST DUP1 PUSH4 0x16381E25 EQ PUSH2 0x8A JUMPI DUP1 PUSH4 0x1EFB90EB EQ PUSH2 0xBA JUMPI DUP1 PUSH4 0x47508738 EQ PUSH2 0xD6 JUMPI DUP1 PUSH4 0x6B6D262A EQ PUSH2 0x106 JUMPI JUMPDEST PUSH0 PUSH0 REVERT JUMPDEST PUSH2 0xA4 PUSH1 0x4 DUP1 CALLDATASIZE SUB DUP2 ADD SWAP1 PUSH2 0x9F SWAP2 SWAP1 PUSH2 0x104D JUMP JUMPDEST PUSH2 0x1D0 JUMP JUMPDEST PUSH1 0x40 MLOAD PUSH2 0xB1 SWAP2 SWAP1 PUSH2 0x118C JUMP JUMPDEST PUSH1 0x40 MLOAD DUP1 SWAP2 SUB SWAP1 RETURN JUMPDEST PUSH2 0xD4 PUSH1 0x4 DUP1 CALLDATASIZE SUB DUP2 ADD SWAP1 PUSH2 0xCF SWAP2 SWAP1 PUSH2 0x1302 JUMP JUMPDEST PUSH2 0x27A JUMP JUMPDEST STOP JUMPDEST PUSH2 0xF0 PUSH1 0x4 DUP1 CALLDATASIZE SUB DUP2 ADD SWAP1 PUSH2 0xEB SWAP2 SWAP1 PUSH2 0x139E JUMP JUMPDEST PUSH2 0x50D JUMP JUMPDEST PUSH1 0x40 MLOAD PUSH2 0xFD SWAP2 SWAP1 PUSH2 0x1470 JUMP JUMPDEST PUSH1 0x40 MLOAD DUP1 SWAP2 SUB SWAP1 RETURN JUMPDEST PUSH2 0x120 PUSH1 0x4 DUP1 CALLDATASIZE SUB DUP2 ADD SWAP1 PUSH2 0x11B SWAP2 SWAP1 PUSH2 0x139E JUMP JUMPDEST PUSH2 0x5B8 JUMP JUMPDEST PUSH1 0x40 MLOAD PUSH2 0x12D SWAP2 SWAP1 PUSH2 0x15C5 JUMP JUMPDEST PUSH1 0x40 MLOAD DUP1 SWAP2 SUB SWAP1 RETURN JUMPDEST PUSH2 0x150 PUSH1 0x4 DUP1 CALLDATASIZE SUB DUP2 ADD SWAP1 PUSH2 0x14B SWAP2 SWAP1 PUSH2 0x104D JUMP JUMPDEST PUSH2 0xA09 JUMP JUMPDEST PUSH1 0x40 MLOAD PUSH2 0x15D SWAP2 SWAP1 PUSH2 0x1632 JUMP JUMPDEST PUSH1 0x40 MLOAD DUP1 SWAP2 SUB SWAP1 RETURN JUMPDEST PUSH2 0x180 PUSH1 0x4 DUP1 CALLDATASIZE SUB DUP2 ADD SWAP1 PUSH2 0x17B SWAP2 SWAP1 PUSH2 0x167C JUMP JUMPDEST PUSH2 0xAB3 JUMP JUMPDEST STOP JUMPDEST PUSH2 0x18A PUSH2 0xC15 JUMP JUMPDEST PUSH1 0x40 MLOAD PUSH2 0x197 SWAP2 SWAP1 PUSH2 0x16B6 JUMP JUMPDEST PUSH1 0x40 MLOAD DUP1 SWAP2 SUB SWAP1 RETURN JUMPDEST PUSH2 0x1BA PUSH1 0x4 DUP1 CALLDATASIZE SUB DUP2 ADD SWAP1 PUSH2 0x1B5 SWAP2 SWAP1 PUSH2 0x167C JUMP JUMPDEST PUSH2 0xCA8 JUMP JUMPDEST PUSH1 0x40 MLOAD PUSH2 0x1C7 SWAP2 SWAP1 PUSH2 0x1749 JUMP JUMPDEST PUSH1 0x40 MLOAD DUP1 SWAP2 SUB SWAP1 RETURN JUMPDEST PUSH2 0x1D8 PUSH2 0xEDE JUMP JUMPDEST PUSH0 PUSH0 SWAP1 SLOAD SWAP1 PUSH2 0x100 EXP SWAP1 DIV PUSH20 0xFFFFFFFFFFFFFFFFFFFFFFFFFFFFFFFFFFFFFFFF AND PUSH20 0xFFFFFFFFFFFFFFFFFFFFFFFFFFFFFFFFFFFFFFFF AND PUSH4 0x8E12BF87 DUP4 PUSH1 0x40 MLOAD DUP3 PUSH4 0xFFFFFFFF AND PUSH1 0xE0 SHL DUP2 MSTORE PUSH1 0x4 ADD PUSH2 0x231 SWAP2 SWAP1 PUSH2 0x16B6 JUMP JUMPDEST PUSH0 PUSH1 0x40 MLOAD DUP1 DUP4 SUB DUP2 DUP7 GAS STATICCALL ISZERO DUP1 ISZERO PUSH2 0x24B JUMPI RETURNDATASIZE PUSH0 PUSH0 RETURNDATACOPY RETURNDATASIZE PUSH0 REVERT JUMPDEST POP POP POP POP PUSH1 0x40 MLOAD RETURNDATASIZE PUSH0 DUP3 RETURNDATACOPY RETURNDATASIZE PUSH1 0x1F NOT PUSH1 0x1F DUP3 ADD AND DUP3 ADD DUP1 PUSH1 0x40 MSTORE POP DUP2 ADD SWAP1 PUSH2 0x273 SWAP2 SWAP1 PUSH2 0x18C2 JUMP JUMPDEST SWAP1 POP SWAP2 SWAP1 POP JUMP JUMPDEST PUSH0 DUP5 MLOAD GT PUSH2 0x2BD JUMPI PUSH1 0x40 MLOAD PUSH32 0x8C379A000000000000000000000000000000000000000000000000000000000 DUP2 MSTORE PUSH1 0x4 ADD PUSH2 0x2B4 SWAP1 PUSH2 0x1989 JUMP JUMPDEST PUSH1 0x40 MLOAD DUP1 SWAP2 SUB SWAP1 REVERT JUMPDEST PUSH2 0x2C6 DUP5 PUSH2 0x50D JUMP JUMPDEST PUSH1 0x80 ADD MLOAD PUSH2 0x309 JUMPI PUSH1 0x40 MLOAD PUSH32 0x8C379A000000000000000000000000000000000000000000000000000000000 DUP2 MSTORE PUSH1 0x4 ADD PUSH2 0x300 SWAP1 PUSH2 0x19F1 JUMP JUMPDEST PUSH1 0x40 MLOAD DUP1 SWAP2 SUB SWAP1 REVERT JUMPDEST PUSH2 0x312 DUP4 PUSH2 0x1D0 JUMP JUMPDEST PUSH1 0x60 ADD MLOAD PUSH2 0x355 JUMPI PUSH1 0x40 MLOAD PUSH32 0x8C379A000000000000000000000000000000000000000000000000000000000 DUP2 MSTORE PUSH1 0x4 ADD PUSH2 0x34C SWAP1 PUSH2 0x1A59 JUMP JUMPDEST PUSH1 0x40 MLOAD DUP1 SWAP2 SUB SWAP1 REVERT JUMPDEST PUSH1 0x1 DUP3 PUSH1 0xFF AND LT ISZERO DUP1 ISZERO PUSH2 0x36D JUMPI POP PUSH1 0xA DUP3 PUSH1 0xFF AND GT ISZERO JUMPDEST PUSH2 0x3AC JUMPI PUSH1 0x40 MLOAD PUSH32 0x8C379A000000000000000000000000000000000000000000000000000000000 DUP2 MSTORE PUSH1 0x4 ADD PUSH2 0x3A3 SWAP1 PUSH2 0x1AC1 JUMP JUMPDEST PUSH1 0x40 MLOAD DUP1 SWAP2 SUB SWAP1 REVERT JUMPDEST PUSH1 0x40 MLOAD DUP1 PUSH1 0xA0 ADD PUSH1 0x40 MSTORE DUP1 DUP6 DUP2 MSTORE PUSH1 0x20 ADD DUP5 PUSH20 0xFFFFFFFFFFFFFFFFFFFFFFFFFFFFFFFFFFFFFFFF AND DUP2 MSTORE PUSH1 0x20 ADD DUP4 PUSH1 0xFF AND DUP2 MSTORE PUSH1 0x20 ADD DUP3 DUP2 MSTORE PUSH1 0x20 ADD PUSH1 0x1 ISZERO ISZERO DUP2 MSTORE POP PUSH1 0x2 PUSH0 PUSH1 0x3 SLOAD DUP2 MSTORE PUSH1 0x20 ADD SWAP1 DUP2 MSTORE PUSH1 0x20 ADD PUSH0 KECCAK256 PUSH0 DUP3 ADD MLOAD DUP2 PUSH0 ADD SWAP1 DUP2 PUSH2 0x415 SWAP2 SWAP1 PUSH2 0x1CDC JUMP JUMPDEST POP PUSH1 0x20 DUP3 ADD MLOAD DUP2 PUSH1 0x1 ADD PUSH0 PUSH2 0x100 EXP DUP2 SLOAD DUP2 PUSH20 0xFFFFFFFFFFFFFFFFFFFFFFFFFFFFFFFFFFFFFFFF MUL NOT AND SWAP1 DUP4 PUSH20 0xFFFFFFFFFFFFFFFFFFFFFFFFFFFFFFFFFFFFFFFF AND MUL OR SWAP1 SSTORE POP PUSH1 0x40 DUP3 ADD MLOAD DUP2 PUSH1 0x1 ADD PUSH1 0x14 PUSH2 0x100 EXP DUP2 SLOAD DUP2 PUSH1 0xFF MUL NOT AND SWAP1 DUP4 PUSH1 0xFF AND MUL OR SWAP1 SSTORE POP PUSH1 0x60 DUP3 ADD MLOAD DUP2 PUSH1 0x2 ADD SWAP1 DUP2 PUSH2 0x492 SWAP2 SWAP1 PUSH2 0x1CDC JUMP JUMPDEST POP PUSH1 0x80 DUP3 ADD MLOAD DUP2 PUSH1 0x3 ADD PUSH0 PUSH2 0x100 EXP DUP2 SLOAD DUP2 PUSH1 0xFF MUL NOT AND SWAP1 DUP4 ISZERO ISZERO MUL OR SWAP1 SSTORE POP SWAP1 POP POP PUSH1 0x3 PUSH0 DUP2 SLOAD DUP1 SWAP3 SWAP2 SWAP1 PUSH2 0x4C7 SWAP1 PUSH2 0x1DD8 JUMP JUMPDEST SWAP2 SWAP1 POP SSTORE POP PUSH32 0x7ACB1190CE5E2A1B5F4EAB3A2ABFFEB5C2864903703F3F183A370BF3862C37A4 PUSH1 0x3 SLOAD DUP6 PUSH1 0x40 MLOAD PUSH2 0x4FF SWAP3 SWAP2 SWAP1 PUSH2 0x1E66 JUMP JUMPDEST PUSH1 0x40 MLOAD DUP1 SWAP2 SUB SWAP1 LOG1 POP POP POP POP JUMP JUMPDEST PUSH2 0x515 PUSH2 0xF1E JUMP JUMPDEST PUSH1 0x1 PUSH0 SWAP1 SLOAD SWAP1 PUSH2 0x100 EXP SWAP1 DIV PUSH20 0xFFFFFFFFFFFFFFFFFFFFFFFFFFFFFFFFFFFFFFFF AND PUSH20 0xFFFFFFFFFFFFFFFFFFFFFFFFFFFFFFFFFFFFFFFF AND PUSH4 0x77ACB280 DUP4 PUSH1 0x40 MLOAD DUP3 PUSH4 0xFFFFFFFF AND PUSH1 0xE0 SHL DUP2 MSTORE PUSH1 0x4 ADD PUSH2 0x56F SWAP2 SWAP1 PUSH2 0x1E94 JUMP JUMPDEST PUSH0 PUSH1 0x40 MLOAD DUP1 DUP4 SUB DUP2 DUP7 GAS STATICCALL ISZERO DUP1 ISZERO PUSH2 0x589 JUMPI RETURNDATASIZE PUSH0 PUSH0 RETURNDATACOPY RETURNDATASIZE PUSH0 REVERT JUMPDEST POP POP POP POP PUSH1 0x40 MLOAD RETURNDATASIZE PUSH0 DUP3 RETURNDATACOPY RETURNDATASIZE PUSH1 0x1F NOT PUSH1 0x1F DUP3 ADD AND DUP3 ADD DUP1 PUSH1 0x40 MSTORE POP DUP2 ADD SWAP1 PUSH2 0x5B1 SWAP2 SWAP1 PUSH2 0x1F6D JUMP JUMPDEST SWAP1 POP SWAP2 SWAP1 POP JUMP JUMPDEST PUSH1 0x60 PUSH0 DUP3 MLOAD GT PUSH2 0x5FD JUMPI PUSH1 0x40 MLOAD PUSH32 0x8C379A000000000000000000000000000000000000000000000000000000000 DUP2 MSTORE PUSH1 0x4 ADD PUSH2 0x5F4 SWAP1 PUSH2 0x2024 JUMP JUMPDEST PUSH1 0x40 MLOAD DUP1 SWAP2 SUB SWAP1 REVERT JUMPDEST PUSH2 0x606 DUP3 PUSH2 0x50D JUMP JUMPDEST PUSH1 0x80 ADD MLOAD PUSH2 0x649 JUMPI PUSH1 0x40 MLOAD PUSH32 0x8C379A000000000000000000000000000000000000000000000000000000000 DUP2 MSTORE PUSH1 0x4 ADD PUSH2 0x640 SWAP1 PUSH2 0x208C JUMP JUMPDEST PUSH1 0x40 MLOAD DUP1 SWAP2 SUB SWAP1 REVERT JUMPDEST PUSH0 PUSH0 SWAP1 POP PUSH0 PUSH0 SWAP1 POP JUMPDEST PUSH1 0x3 SLOAD DUP2 LT ISZERO PUSH2 0x707 JUMPI DUP4 PUSH1 0x40 MLOAD PUSH1 0x20 ADD PUSH2 0x66D SWAP2 SWAP1 PUSH2 0x20E4 JUMP JUMPDEST PUSH1 0x40 MLOAD PUSH1 0x20 DUP2 DUP4 SUB SUB DUP2 MSTORE SWAP1 PUSH1 0x40 MSTORE DUP1 MLOAD SWAP1 PUSH1 0x20 ADD KECCAK256 PUSH1 0x2 PUSH0 DUP4 DUP2 MSTORE PUSH1 0x20 ADD SWAP1 DUP2 MSTORE PUSH1 0x20 ADD PUSH0 KECCAK256 PUSH0 ADD PUSH1 0x40 MLOAD PUSH1 0x20 ADD PUSH2 0x6A6 SWAP2 SWAP1 PUSH2 0x217A JUMP JUMPDEST PUSH1 0x40 MLOAD PUSH1 0x20 DUP2 DUP4 SUB SUB DUP2 MSTORE SWAP1 PUSH1 0x40 MSTORE DUP1 MLOAD SWAP1 PUSH1 0x20 ADD KECCAK256 EQ DUP1 ISZERO PUSH2 0x6E6 JUMPI POP PUSH1 0x2 PUSH0 DUP3 DUP2 MSTORE PUSH1 0x20 ADD SWAP1 DUP2 MSTORE PUSH1 0x20 ADD PUSH0 KECCAK256 PUSH1 0x3 ADD PUSH0 SWAP1 SLOAD SWAP1 PUSH2 0x100 EXP SWAP1 DIV PUSH1 0xFF AND JUMPDEST ISZERO PUSH2 0x6FA JUMPI DUP2 DUP1 PUSH2 0x6F6 SWAP1 PUSH2 0x1DD8 JUMP JUMPDEST SWAP3 POP POP JUMPDEST DUP1 DUP1 PUSH1 0x1 ADD SWAP2 POP POP PUSH2 0x652 JUMP JUMPDEST POP DUP1 PUSH8 0xFFFFFFFFFFFFFFFF DUP2 GT ISZERO PUSH2 0x722 JUMPI PUSH2 0x721 PUSH2 0x11B4 JUMP JUMPDEST JUMPDEST PUSH1 0x40 MLOAD SWAP1 DUP1 DUP3 MSTORE DUP1 PUSH1 0x20 MUL PUSH1 0x20 ADD DUP3 ADD PUSH1 0x40 MSTORE DUP1 ISZERO PUSH2 0x75B JUMPI DUP2 PUSH1 0x20 ADD JUMPDEST PUSH2 0x748 PUSH2 0xF64 JUMP JUMPDEST DUP2 MSTORE PUSH1 0x20 ADD SWAP1 PUSH1 0x1 SWAP1 SUB SWAP1 DUP2 PUSH2 0x740 JUMPI SWAP1 POP JUMPDEST POP SWAP2 POP PUSH0 PUSH0 SWAP1 POP PUSH0 PUSH0 SWAP1 POP JUMPDEST PUSH1 0x3 SLOAD DUP2 LT ISZERO PUSH2 0xA01 JUMPI DUP5 PUSH1 0x40 MLOAD PUSH1 0x20 ADD PUSH2 0x782 SWAP2 SWAP1 PUSH2 0x20E4 JUMP JUMPDEST PUSH1 0x40 MLOAD PUSH1 0x20 DUP2 DUP4 SUB SUB DUP2 MSTORE SWAP1 PUSH1 0x40 MSTORE DUP1 MLOAD SWAP1 PUSH1 0x20 ADD KECCAK256 PUSH1 0x2 PUSH0 DUP4 DUP2 MSTORE PUSH1 0x20 ADD SWAP1 DUP2 MSTORE PUSH1 0x20 ADD PUSH0 KECCAK256 PUSH0 ADD PUSH1 0x40 MLOAD PUSH1 0x20 ADD PUSH2 0x7BB SWAP2 SWAP1 PUSH2 0x217A JUMP JUMPDEST PUSH1 0x40 MLOAD PUSH1 0x20 DUP2 DUP4 SUB SUB DUP2 MSTORE SWAP1 PUSH1 0x40 MSTORE DUP1 MLOAD SWAP1 PUSH1 0x20 ADD KECCAK256 EQ DUP1 ISZERO PUSH2 0x7FB JUMPI POP PUSH1 0x2 PUSH0 DUP3 DUP2 MSTORE PUSH1 0x20 ADD SWAP1 DUP2 MSTORE PUSH1 0x20 ADD PUSH0 KECCAK256 PUSH1 0x3 ADD PUSH0 SWAP1 SLOAD SWAP1 PUSH2 0x100 EXP SWAP1 DIV PUSH1 0xFF AND JUMPDEST ISZERO PUSH2 0x9F4 JUMPI PUSH1 0x2 PUSH0 DUP3 DUP2 MSTORE PUSH1 0x20 ADD SWAP1 DUP2 MSTORE PUSH1 0x20 ADD PUSH0 KECCAK256 PUSH1 0x40 MLOAD DUP1 PUSH1 0xA0 ADD PUSH1 0x40 MSTORE SWAP1 DUP2 PUSH0 DUP3 ADD DUP1 SLOAD PUSH2 0x82B SWAP1 PUSH2 0x1B0C JUMP JUMPDEST DUP1 PUSH1 0x1F ADD PUSH1 0x20 DUP1 SWAP2 DIV MUL PUSH1 0x20 ADD PUSH1 0x40 MLOAD SWAP1 DUP2 ADD PUSH1 0x40 MSTORE DUP1 SWAP3 SWAP2 SWAP1 DUP2 DUP2 MSTORE PUSH1 0x20 ADD DUP3 DUP1 SLOAD PUSH2 0x857 SWAP1 PUSH2 0x1B0C JUMP JUMPDEST DUP1 ISZERO PUSH2 0x8A2 JUMPI DUP1 PUSH1 0x1F LT PUSH2 0x879 JUMPI PUSH2 0x100 DUP1 DUP4 SLOAD DIV MUL DUP4 MSTORE SWAP2 PUSH1 0x20 ADD SWAP2 PUSH2 0x8A2 JUMP JUMPDEST DUP3 ADD SWAP2 SWAP1 PUSH0 MSTORE PUSH1 0x20 PUSH0 KECCAK256 SWAP1 JUMPDEST DUP2 SLOAD DUP2 MSTORE SWAP1 PUSH1 0x1 ADD SWAP1 PUSH1 0x20 ADD DUP1 DUP4 GT PUSH2 0x885 JUMPI DUP3 SWAP1 SUB PUSH1 0x1F AND DUP3 ADD SWAP2 JUMPDEST POP POP POP POP POP DUP2 MSTORE PUSH1 0x20 ADD PUSH1 0x1 DUP3 ADD PUSH0 SWAP1 SLOAD SWAP1 PUSH2 0x100 EXP SWAP1 DIV PUSH20 0xFFFFFFFFFFFFFFFFFFFFFFFFFFFFFFFFFFFFFFFF AND PUSH20 0xFFFFFFFFFFFFFFFFFFFFFFFFFFFFFFFFFFFFFFFF AND PUSH20 0xFFFFFFFFFFFFFFFFFFFFFFFFFFFFFFFFFFFFFFFF AND DUP2 MSTORE PUSH1 0x20 ADD PUSH1 0x1 DUP3 ADD PUSH1 0x14 SWAP1 SLOAD SWAP1 PUSH2 0x100 EXP SWAP1 DIV PUSH1 0xFF AND PUSH1 0xFF AND PUSH1 0xFF AND DUP2 MSTORE PUSH1 0x20 ADD PUSH1 0x2 DUP3 ADD DUP1 SLOAD PUSH2 0x92D SWAP1 PUSH2 0x1B0C JUMP JUMPDEST DUP1 PUSH1 0x1F ADD PUSH1 0x20 DUP1 SWAP2 DIV MUL PUSH1 0x20 ADD PUSH1 0x40 MLOAD SWAP1 DUP2 ADD PUSH1 0x40 MSTORE DUP1 SWAP3 SWAP2 SWAP1 DUP2 DUP2 MSTORE PUSH1 0x20 ADD DUP3 DUP1 SLOAD PUSH2 0x959 SWAP1 PUSH2 0x1B0C JUMP JUMPDEST DUP1 ISZERO PUSH2 0x9A4 JUMPI DUP1 PUSH1 0x1F LT PUSH2 0x97B JUMPI PUSH2 0x100 DUP1 DUP4 SLOAD DIV MUL DUP4 MSTORE SWAP2 PUSH1 0x20 ADD SWAP2 PUSH2 0x9A4 JUMP JUMPDEST DUP3 ADD SWAP2 SWAP1 PUSH0 MSTORE PUSH1 0x20 PUSH0 KECCAK256 SWAP1 JUMPDEST DUP2 SLOAD DUP2 MSTORE SWAP1 PUSH1 0x1 ADD SWAP1 PUSH1 0x20 ADD DUP1 DUP4 GT PUSH2 0x987 JUMPI DUP3 SWAP1 SUB PUSH1 0x1F AND DUP3 ADD SWAP2 JUMPDEST POP POP POP POP POP DUP2 MSTORE PUSH1 0x20 ADD PUSH1 0x3 DUP3 ADD PUSH0 SWAP1 SLOAD SWAP1 PUSH2 0x100 EXP SWAP1 DIV PUSH1 0xFF AND ISZERO ISZERO ISZERO ISZERO DUP2 MSTORE POP POP DUP5 DUP4 DUP2 MLOAD DUP2 LT PUSH2 0x9DA JUMPI PUSH2 0x9D9 PUSH2 0x2190 JUMP JUMPDEST JUMPDEST PUSH1 0x20 MUL PUSH1 0x20 ADD ADD DUP2 SWAP1 MSTORE POP DUP2 DUP1 PUSH2 0x9F0 SWAP1 PUSH2 0x1DD8 JUMP JUMPDEST SWAP3 POP POP JUMPDEST DUP1 DUP1 PUSH1 0x1 ADD SWAP2 POP POP PUSH2 0x767 JUMP JUMPDEST POP POP POP SWAP2 SWAP1 POP JUMP JUMPDEST PUSH2 0xA11 PUSH2 0xFAB JUMP JUMPDEST PUSH0 PUSH0 SWAP1 SLOAD SWAP1 PUSH2 0x100 EXP SWAP1 DIV PUSH20 0xFFFFFFFFFFFFFFFFFFFFFFFFFFFFFFFFFFFFFFFF AND PUSH20 0xFFFFFFFFFFFFFFFFFFFFFFFFFFFFFFFFFFFFFFFF AND PUSH4 0xDB096F25 DUP4 PUSH1 0x40 MLOAD DUP3 PUSH4 0xFFFFFFFF AND PUSH1 0xE0 SHL DUP2 MSTORE PUSH1 0x4 ADD PUSH2 0xA6A SWAP2 SWAP1 PUSH2 0x16B6 JUMP JUMPDEST PUSH0 PUSH1 0x40 MLOAD DUP1 DUP4 SUB DUP2 DUP7 GAS STATICCALL ISZERO DUP1 ISZERO PUSH2 0xA84 JUMPI RETURNDATASIZE PUSH0 PUSH0 RETURNDATACOPY RETURNDATASIZE PUSH0 REVERT JUMPDEST POP POP POP POP PUSH1 0x40 MLOAD RETURNDATASIZE PUSH0 DUP3 RETURNDATACOPY RETURNDATASIZE PUSH1 0x1F NOT PUSH1 0x1F DUP3 ADD AND DUP3 ADD DUP1 PUSH1 0x40 MSTORE POP DUP2 ADD SWAP1 PUSH2 0xAAC SWAP2 SWAP1 PUSH2 0x223A JUMP JUMPDEST SWAP1 POP SWAP2 SWAP1 POP JUMP JUMPDEST PUSH2 0xABB PUSH2 0xC15 JUMP JUMPDEST PUSH20 0xFFFFFFFFFFFFFFFFFFFFFFFFFFFFFFFFFFFFFFFF AND CALLER PUSH20 0xFFFFFFFFFFFFFFFFFFFFFFFFFFFFFFFFFFFFFFFF AND EQ DUP1 PUSH2 0xAFD JUMPI POP PUSH2 0xAF8 CALLER PUSH2 0xA09 JUMP JUMPDEST PUSH1 0x40 ADD MLOAD JUMPDEST PUSH2 0xB3C JUMPI PUSH1 0x40 MLOAD PUSH32 0x8C379A000000000000000000000000000000000000000000000000000000000 DUP2 MSTORE PUSH1 0x4 ADD PUSH2 0xB33 SWAP1 PUSH2 0x22F1 JUMP JUMPDEST PUSH1 0x40 MLOAD DUP1 SWAP2 SUB SWAP1 REVERT JUMPDEST PUSH1 0x2 PUSH0 DUP3 DUP2 MSTORE PUSH1 0x20 ADD SWAP1 DUP2 MSTORE PUSH1 0x20 ADD PUSH0 KECCAK256 PUSH1 0x3 ADD PUSH0 SWAP1 SLOAD SWAP1 PUSH2 0x100 EXP SWAP1 DIV PUSH1 0xFF AND PUSH2 0xB9C JUMPI PUSH1 0x40 MLOAD PUSH32 0x8C379A000000000000000000000000000000000000000000000000000000000 DUP2 MSTORE PUSH1 0x4 ADD PUSH2 0xB93 SWAP1 PUSH2 0x2359 JUMP JUMPDEST PUSH1 0x40 MLOAD DUP1 SWAP2 SUB SWAP1 REVERT JUMPDEST PUSH0 PUSH1 0x2 PUSH0 DUP4 DUP2 MSTORE PUSH1 0x20 ADD SWAP1 DUP2 MSTORE PUSH1 0x20 ADD PUSH0 KECCAK256 PUSH1 0x3 ADD PUSH0 PUSH2 0x100 EXP DUP2 SLOAD DUP2 PUSH1 0xFF MUL NOT AND SWAP1 DUP4 ISZERO ISZERO MUL OR SWAP1 SSTORE POP PUSH32 0x9E7C73B94C509B6545019D3256A7CF989083B66882E3458EF9CA07C8937EE70D DUP2 PUSH1 0x2 PUSH0 DUP5 DUP2 MSTORE PUSH1 0x20 ADD SWAP1 DUP2 MSTORE PUSH1 0x20 ADD PUSH0 KECCAK256 PUSH0 ADD PUSH1 0x40 MLOAD PUSH2 0xC0A SWAP3 SWAP2 SWAP1 PUSH2 0x23F8 JUMP JUMPDEST PUSH1 0x40 MLOAD DUP1 SWAP2 SUB SWAP1 LOG1 POP JUMP JUMPDEST PUSH0 PUSH0 PUSH0 SWAP1 SLOAD SWAP1 PUSH2 0x100 EXP SWAP1 DIV PUSH20 0xFFFFFFFFFFFFFFFFFFFFFFFFFFFFFFFFFFFFFFFF AND PUSH20 0xFFFFFFFFFFFFFFFFFFFFFFFFFFFFFFFFFFFFFFFF AND PUSH4 0xA4C199A PUSH1 0x40 MLOAD DUP2 PUSH4 0xFFFFFFFF AND PUSH1 0xE0 SHL DUP2 MSTORE PUSH1 0x4 ADD PUSH1 0x20 PUSH1 0x40 MLOAD DUP1 DUP4 SUB DUP2 DUP7 GAS STATICCALL ISZERO DUP1 ISZERO PUSH2 0xC7F JUMPI RETURNDATASIZE PUSH0 PUSH0 RETURNDATACOPY RETURNDATASIZE PUSH0 REVERT JUMPDEST POP POP POP POP PUSH1 0x40 MLOAD RETURNDATASIZE PUSH1 0x1F NOT PUSH1 0x1F DUP3 ADD AND DUP3 ADD DUP1 PUSH1 0x40 MSTORE POP DUP2 ADD SWAP1 PUSH2 0xCA3 SWAP2 SWAP1 PUSH2 0x2426 JUMP JUMPDEST SWAP1 POP SWAP1 JUMP JUMPDEST PUSH2 0xCB0 PUSH2 0xF64 JUMP JUMPDEST PUSH1 0x2 PUSH0 DUP4 DUP2 MSTORE PUSH1 0x20 ADD SWAP1 DUP2 MSTORE PUSH1 0x20 ADD PUSH0 KECCAK256 PUSH1 0x3 ADD PUSH0 SWAP1 SLOAD SWAP1 PUSH2 0x100 EXP SWAP1 DIV PUSH1 0xFF AND PUSH2 0xD10 JUMPI PUSH1 0x40 MLOAD PUSH32 0x8C379A000000000000000000000000000000000000000000000000000000000 DUP2 MSTORE PUSH1 0x4 ADD PUSH2 0xD07 SWAP1 PUSH2 0x249B JUMP JUMPDEST PUSH1 0x40 MLOAD DUP1 SWAP2 SUB SWAP1 REVERT JUMPDEST PUSH1 0x2 PUSH0 DUP4 DUP2 MSTORE PUSH1 0x20 ADD SWAP1 DUP2 MSTORE PUSH1 0x20 ADD PUSH0 KECCAK256 PUSH1 0x40 MLOAD DUP1 PUSH1 0xA0 ADD PUSH1 0x40 MSTORE SWAP1 DUP2 PUSH0 DUP3 ADD DUP1 SLOAD PUSH2 0xD3B SWAP1 PUSH2 0x1B0C JUMP JUMPDEST DUP1 PUSH1 0x1F ADD PUSH1 0x20 DUP1 SWAP2 DIV MUL PUSH1 0x20 ADD PUSH1 0x40 MLOAD SWAP1 DUP2 ADD PUSH1 0x40 MSTORE DUP1 SWAP3 SWAP2 SWAP1 DUP2 DUP2 MSTORE PUSH1 0x20 ADD DUP3 DUP1 SLOAD PUSH2 0xD67 SWAP1 PUSH2 0x1B0C JUMP JUMPDEST DUP1 ISZERO PUSH2 0xDB2 JUMPI DUP1 PUSH1 0x1F LT PUSH2 0xD89 JUMPI PUSH2 0x100 DUP1 DUP4 SLOAD DIV MUL DUP4 MSTORE SWAP2 PUSH1 0x20 ADD SWAP2 PUSH2 0xDB2 JUMP JUMPDEST DUP3 ADD SWAP2 SWAP1 PUSH0 MSTORE PUSH1 0x20 PUSH0 KECCAK256 SWAP1 JUMPDEST DUP2 SLOAD DUP2 MSTORE SWAP1 PUSH1 0x1 ADD SWAP1 PUSH1 0x20 ADD DUP1 DUP4 GT PUSH2 0xD95 JUMPI DUP3 SWAP1 SUB PUSH1 0x1F AND DUP3 ADD SWAP2 JUMPDEST POP POP POP POP POP DUP2 MSTORE PUSH1 0x20 ADD PUSH1 0x1 DUP3 ADD PUSH0 SWAP1 SLOAD SWAP1 PUSH2 0x100 EXP SWAP1 DIV PUSH20 0xFFFFFFFFFFFFFFFFFFFFFFFFFFFFFFFFFFFFFFFF AND PUSH20 0xFFFFFFFFFFFFFFFFFFFFFFFFFFFFFFFFFFFFFFFF AND PUSH20 0xFFFFFFFFFFFFFFFFFFFFFFFFFFFFFFFFFFFFFFFF AND DUP2 MSTORE PUSH1 0x20 ADD PUSH1 0x1 DUP3 ADD PUSH1 0x14 SWAP1 SLOAD SWAP1 PUSH2 0x100 EXP SWAP1 DIV PUSH1 0xFF AND PUSH1 0xFF AND PUSH1 0xFF AND DUP2 MSTORE PUSH1 0x20 ADD PUSH1 0x2 DUP3 ADD DUP1 SLOAD PUSH2 0xE3D SWAP1 PUSH2 0x1B0C JUMP JUMPDEST DUP1 PUSH1 0x1F ADD PUSH1 0x20 DUP1 SWAP2 DIV MUL PUSH1 0x20 ADD PUSH1 0x40 MLOAD SWAP1 DUP2 ADD PUSH1 0x40 MSTORE DUP1 SWAP3 SWAP2 SWAP1 DUP2 DUP2 MSTORE PUSH1 0x20 ADD DUP3 DUP1 SLOAD PUSH2 0xE69 SWAP1 PUSH2 0x1B0C JUMP JUMPDEST DUP1 ISZERO PUSH2 0xEB4 JUMPI DUP1 PUSH1 0x1F LT PUSH2 0xE8B JUMPI PUSH2 0x100 DUP1 DUP4 SLOAD DIV MUL DUP4 MSTORE SWAP2 PUSH1 0x20 ADD SWAP2 PUSH2 0xEB4 JUMP JUMPDEST DUP3 ADD SWAP2 SWAP1 PUSH0 MSTORE PUSH1 0x20 PUSH0 KECCAK256 SWAP1 JUMPDEST DUP2 SLOAD DUP2 MSTORE SWAP1 PUSH1 0x1 ADD SWAP1 PUSH1 0x20 ADD DUP1 DUP4 GT PUSH2 0xE97 JUMPI DUP3 SWAP1 SUB PUSH1 0x1F AND DUP3 ADD SWAP2 JUMPDEST POP POP POP POP POP DUP2 MSTORE PUSH1 0x20 ADD PUSH1 0x3 DUP3 ADD PUSH0 SWAP1 SLOAD SWAP1 PUSH2 0x100 EXP SWAP1 DIV PUSH1 0xFF AND ISZERO ISZERO ISZERO ISZERO DUP2 MSTORE POP POP SWAP1 POP SWAP2 SWAP1 POP JUMP JUMPDEST PUSH1 0x40 MLOAD DUP1 PUSH1 0x80 ADD PUSH1 0x40 MSTORE DUP1 PUSH0 PUSH20 0xFFFFFFFFFFFFFFFFFFFFFFFFFFFFFFFFFFFFFFFF AND DUP2 MSTORE PUSH1 0x20 ADD PUSH1 0x60 DUP2 MSTORE PUSH1 0x20 ADD PUSH0 PUSH1 0xFF AND DUP2 MSTORE PUSH1 0x20 ADD PUSH0 ISZERO ISZERO DUP2 MSTORE POP SWAP1 JUMP JUMPDEST PUSH1 0x40 MLOAD DUP1 PUSH1 0xA0 ADD PUSH1 0x40 MSTORE DUP1 PUSH1 0x60 DUP2 MSTORE PUSH1 0x20 ADD PUSH0 DUP2 MSTORE PUSH1 0x20 ADD PUSH0 PUSH1 0xFF AND DUP2 MSTORE PUSH1 0x20 ADD PUSH0 PUSH20 0xFFFFFFFFFFFFFFFFFFFFFFFFFFFFFFFFFFFFFFFF AND DUP2 MSTORE PUSH1 0x20 ADD PUSH0 ISZERO ISZERO DUP2 MSTORE POP SWAP1 JUMP JUMPDEST PUSH1 0x40 MLOAD DUP1 PUSH1 0xA0 ADD PUSH1 0x40 MSTORE DUP1 PUSH1 0x60 DUP2 MSTORE PUSH1 0x20 ADD PUSH0 PUSH20 0xFFFFFFFFFFFFFFFFFFFFFFFFFFFFFFFFFFFFFFFF AND DUP2 MSTORE PUSH1 0x20 ADD PUSH0 PUSH1 0xFF AND DUP2 MSTORE PUSH1 0x20 ADD PUSH1 0x60 DUP2 MSTORE PUSH1 0x20 ADD PUSH0 ISZERO ISZERO DUP2 MSTORE POP SWAP1 JUMP JUMPDEST PUSH1 0x40 MLOAD DUP1 PUSH1 0x60 ADD PUSH1 0x40 MSTORE DUP1 PUSH0 PUSH20 0xFFFFFFFFFFFFFFFFFFFFFFFFFFFFFFFFFFFFFFFF AND DUP2 MSTORE PUSH1 0x20 ADD PUSH1 0x60 DUP2 MSTORE PUSH1 0x20 ADD PUSH0 ISZERO ISZERO DUP2 MSTORE POP SWAP1 JUMP JUMPDEST PUSH0 PUSH1 0x40 MLOAD SWAP1 POP SWAP1 JUMP JUMPDEST PUSH0 PUSH0 REVERT JUMPDEST PUSH0 PUSH0 REVERT JUMPDEST PUSH0 PUSH20 0xFFFFFFFFFFFFFFFFFFFFFFFFFFFFFFFFFFFFFFFF DUP3 AND SWAP1 POP SWAP2 SWAP1 POP JUMP JUMPDEST PUSH0 PUSH2 0x101C DUP3 PUSH2 0xFF3 JUMP JUMPDEST SWAP1 POP SWAP2 SWAP1 POP JUMP JUMPDEST PUSH2 0x102C DUP2 PUSH2 0x1012 JUMP JUMPDEST DUP2 EQ PUSH2 0x1036 JUMPI PUSH0 PUSH0 REVERT JUMPDEST POP JUMP JUMPDEST PUSH0 DUP2 CALLDATALOAD SWAP1 POP PUSH2 0x1047 DUP2 PUSH2 0x1023 JUMP JUMPDEST SWAP3 SWAP2 POP POP JUMP JUMPDEST PUSH0 PUSH1 0x20 DUP3 DUP5 SUB SLT ISZERO PUSH2 0x1062 JUMPI PUSH2 0x1061 PUSH2 0xFEB JUMP JUMPDEST JUMPDEST PUSH0 PUSH2 0x106F DUP5 DUP3 DUP6 ADD PUSH2 0x1039 JUMP JUMPDEST SWAP2 POP POP SWAP3 SWAP2 POP POP JUMP JUMPDEST PUSH2 0x1081 DUP2 PUSH2 0x1012 JUMP JUMPDEST DUP3 MSTORE POP POP JUMP JUMPDEST PUSH0 DUP2 MLOAD SWAP1 POP SWAP2 SWAP1 POP JUMP JUMPDEST PUSH0 DUP3 DUP3 MSTORE PUSH1 0x20 DUP3 ADD SWAP1 POP SWAP3 SWAP2 POP POP JUMP JUMPDEST DUP3 DUP2 DUP4 MCOPY PUSH0 DUP4 DUP4 ADD MSTORE POP POP POP JUMP JUMPDEST PUSH0 PUSH1 0x1F NOT PUSH1 0x1F DUP4 ADD AND SWAP1 POP SWAP2 SWAP1 POP JUMP JUMPDEST PUSH0 PUSH2 0x10C9 DUP3 PUSH2 0x1087 JUMP JUMPDEST PUSH2 0x10D3 DUP2 DUP6 PUSH2 0x1091 JUMP JUMPDEST SWAP4 POP PUSH2 0x10E3 DUP2 DUP6 PUSH1 0x20 DUP7 ADD PUSH2 0x10A1 JUMP JUMPDEST PUSH2 0x10EC DUP2 PUSH2 0x10AF JUMP JUMPDEST DUP5 ADD SWAP2 POP POP SWAP3 SWAP2 POP POP JUMP JUMPDEST PUSH0 PUSH1 0xFF DUP3 AND SWAP1 POP SWAP2 SWAP1 POP JUMP JUMPDEST PUSH2 0x110C DUP2 PUSH2 0x10F7 JUMP JUMPDEST DUP3 MSTORE POP POP JUMP JUMPDEST PUSH0 DUP2 ISZERO ISZERO SWAP1 POP SWAP2 SWAP1 POP JUMP JUMPDEST PUSH2 0x1126 DUP2 PUSH2 0x1112 JUMP JUMPDEST DUP3 MSTORE POP POP JUMP JUMPDEST PUSH0 PUSH1 0x80 DUP4 ADD PUSH0 DUP4 ADD MLOAD PUSH2 0x1141 PUSH0 DUP7 ADD DUP3 PUSH2 0x1078 JUMP JUMPDEST POP PUSH1 0x20 DUP4 ADD MLOAD DUP5 DUP3 SUB PUSH1 0x20 DUP7 ADD MSTORE PUSH2 0x1159 DUP3 DUP3 PUSH2 0x10BF JUMP JUMPDEST SWAP2 POP POP PUSH1 0x40 DUP4 ADD MLOAD PUSH2 0x116E PUSH1 0x40 DUP7 ADD DUP3 PUSH2 0x1103 JUMP JUMPDEST POP PUSH1 0x60 DUP4 ADD MLOAD PUSH2 0x1181 PUSH1 0x60 DUP7 ADD DUP3 PUSH2 0x111D JUMP JUMPDEST POP DUP1 SWAP2 POP POP SWAP3 SWAP2 POP POP JUMP JUMPDEST PUSH0 PUSH1 0x20 DUP3 ADD SWAP1 POP DUP2 DUP2 SUB PUSH0 DUP4 ADD MSTORE PUSH2 0x11A4 DUP2 DUP5 PUSH2 0x112C JUMP JUMPDEST SWAP1 POP SWAP3 SWAP2 POP POP JUMP JUMPDEST PUSH0 PUSH0 REVERT JUMPDEST PUSH0 PUSH0 REVERT JUMPDEST PUSH32 0x4E487B7100000000000000000000000000000000000000000000000000000000 PUSH0 MSTORE PUSH1 0x41 PUSH1 0x4 MSTORE PUSH1 0x24 PUSH0 REVERT JUMPDEST PUSH2 0x11EA DUP3 PUSH2 0x10AF JUMP JUMPDEST DUP2 ADD DUP2 DUP2 LT PUSH8 0xFFFFFFFFFFFFFFFF DUP3 GT OR ISZERO PUSH2 0x1209 JUMPI PUSH2 0x1208 PUSH2 0x11B4 JUMP JUMPDEST JUMPDEST DUP1 PUSH1 0x40 MSTORE POP POP POP JUMP JUMPDEST PUSH0 PUSH2 0x121B PUSH2 0xFE2 JUMP JUMPDEST SWAP1 POP PUSH2 0x1227 DUP3 DUP3 PUSH2 0x11E1 JUMP JUMPDEST SWAP2 SWAP1 POP JUMP JUMPDEST PUSH0 PUSH8 0xFFFFFFFFFFFFFFFF DUP3 GT ISZERO PUSH2 0x1246 JUMPI PUSH2 0x1245 PUSH2 0x11B4 JUMP JUMPDEST JUMPDEST PUSH2 0x124F DUP3 PUSH2 0x10AF JUMP JUMPDEST SWAP1 POP PUSH1 0x20 DUP2 ADD SWAP1 POP SWAP2 SWAP1 POP JUMP JUMPDEST DUP3 DUP2 DUP4 CALLDATACOPY PUSH0 DUP4 DUP4 ADD MSTORE POP POP POP JUMP JUMPDEST PUSH0 PUSH2 0x127C PUSH2 0x1277 DUP5 PUSH2 0x122C JUMP JUMPDEST PUSH2 0x1212 JUMP JUMPDEST SWAP1 POP DUP3 DUP2 MSTORE PUSH1 0x20 DUP2 ADD DUP5 DUP5 DUP5 ADD GT ISZERO PUSH2 0x1298 JUMPI PUSH2 0x1297 PUSH2 0x11B0 JUMP JUMPDEST JUMPDEST PUSH2 0x12A3 DUP5 DUP3 DUP6 PUSH2 0x125C JUMP JUMPDEST POP SWAP4 SWAP3 POP POP POP JUMP JUMPDEST PUSH0 DUP3 PUSH1 0x1F DUP4 ADD SLT PUSH2 0x12BF JUMPI PUSH2 0x12BE PUSH2 0x11AC JUMP JUMPDEST JUMPDEST DUP2 CALLDATALOAD PUSH2 0x12CF DUP5 DUP3 PUSH1 0x20 DUP7 ADD PUSH2 0x126A JUMP JUMPDEST SWAP2 POP POP SWAP3 SWAP2 POP POP JUMP JUMPDEST PUSH2 0x12E1 DUP2 PUSH2 0x10F7 JUMP JUMPDEST DUP2 EQ PUSH2 0x12EB JUMPI PUSH0 PUSH0 REVERT JUMPDEST POP JUMP JUMPDEST PUSH0 DUP2 CALLDATALOAD SWAP1 POP PUSH2 0x12FC DUP2 PUSH2 0x12D8 JUMP JUMPDEST SWAP3 SWAP2 POP POP JUMP JUMPDEST PUSH0 PUSH0 PUSH0 PUSH0 PUSH1 0x80 DUP6 DUP8 SUB SLT ISZERO PUSH2 0x131A JUMPI PUSH2 0x1319 PUSH2 0xFEB JUMP JUMPDEST JUMPDEST PUSH0 DUP6 ADD CALLDATALOAD PUSH8 0xFFFFFFFFFFFFFFFF DUP2 GT ISZERO PUSH2 0x1337 JUMPI PUSH2 0x1336 PUSH2 0xFEF JUMP JUMPDEST JUMPDEST PUSH2 0x1343 DUP8 DUP3 DUP9 ADD PUSH2 0x12AB JUMP JUMPDEST SWAP5 POP POP PUSH1 0x20 PUSH2 0x1354 DUP8 DUP3 DUP9 ADD PUSH2 0x1039 JUMP JUMPDEST SWAP4 POP POP PUSH1 0x40 PUSH2 0x1365 DUP8 DUP3 DUP9 ADD PUSH2 0x12EE JUMP JUMPDEST SWAP3 POP POP PUSH1 0x60 DUP6 ADD CALLDATALOAD PUSH8 0xFFFFFFFFFFFFFFFF DUP2 GT ISZERO PUSH2 0x1386 JUMPI PUSH2 0x1385 PUSH2 0xFEF JUMP JUMPDEST JUMPDEST PUSH2 0x1392 DUP8 DUP3 DUP9 ADD PUSH2 0x12AB JUMP JUMPDEST SWAP2 POP POP SWAP3 SWAP6 SWAP2 SWAP5 POP SWAP3 POP JUMP JUMPDEST PUSH0 PUSH1 0x20 DUP3 DUP5 SUB SLT ISZERO PUSH2 0x13B3 JUMPI PUSH2 0x13B2 PUSH2 0xFEB JUMP JUMPDEST JUMPDEST PUSH0 DUP3 ADD CALLDATALOAD PUSH8 0xFFFFFFFFFFFFFFFF DUP2 GT ISZERO PUSH2 0x13D0 JUMPI PUSH2 0x13CF PUSH2 0xFEF JUMP JUMPDEST JUMPDEST PUSH2 0x13DC DUP5 DUP3 DUP6 ADD PUSH2 0x12AB JUMP JUMPDEST SWAP2 POP POP SWAP3 SWAP2 POP POP JUMP JUMPDEST PUSH0 DUP2 SWAP1 POP SWAP2 SWAP1 POP JUMP JUMPDEST PUSH2 0x13F7 DUP2 PUSH2 0x13E5 JUMP JUMPDEST DUP3 MSTORE POP POP JUMP JUMPDEST PUSH0 PUSH1 0xA0 DUP4 ADD PUSH0 DUP4 ADD MLOAD DUP5 DUP3 SUB PUSH0 DUP7 ADD MSTORE PUSH2 0x1417 DUP3 DUP3 PUSH2 0x10BF JUMP JUMPDEST SWAP2 POP POP PUSH1 0x20 DUP4 ADD MLOAD PUSH2 0x142C PUSH1 0x20 DUP7 ADD DUP3 PUSH2 0x13EE JUMP JUMPDEST POP PUSH1 0x40 DUP4 ADD MLOAD PUSH2 0x143F PUSH1 0x40 DUP7 ADD DUP3 PUSH2 0x1103 JUMP JUMPDEST POP PUSH1 0x60 DUP4 ADD MLOAD PUSH2 0x1452 PUSH1 0x60 DUP7 ADD DUP3 PUSH2 0x1078 JUMP JUMPDEST POP PUSH1 0x80 DUP4 ADD MLOAD PUSH2 0x1465 PUSH1 0x80 DUP7 ADD DUP3 PUSH2 0x111D JUMP JUMPDEST POP DUP1 SWAP2 POP POP SWAP3 SWAP2 POP POP JUMP JUMPDEST PUSH0 PUSH1 0x20 DUP3 ADD SWAP1 POP DUP2 DUP2 SUB PUSH0 DUP4 ADD MSTORE PUSH2 0x1488 DUP2 DUP5 PUSH2 0x13FD JUMP JUMPDEST SWAP1 POP SWAP3 SWAP2 POP POP JUMP JUMPDEST PUSH0 DUP2 MLOAD SWAP1 POP SWAP2 SWAP1 POP JUMP JUMPDEST PUSH0 DUP3 DUP3 MSTORE PUSH1 0x20 DUP3 ADD SWAP1 POP SWAP3 SWAP2 POP POP JUMP JUMPDEST PUSH0 DUP2 SWAP1 POP PUSH1 0x20 DUP3 ADD SWAP1 POP SWAP2 SWAP1 POP JUMP JUMPDEST PUSH0 PUSH1 0xA0 DUP4 ADD PUSH0 DUP4 ADD MLOAD DUP5 DUP3 SUB PUSH0 DUP7 ADD MSTORE PUSH2 0x14D3 DUP3 DUP3 PUSH2 0x10BF JUMP JUMPDEST SWAP2 POP POP PUSH1 0x20 DUP4 ADD MLOAD PUSH2 0x14E8 PUSH1 0x20 DUP7 ADD DUP3 PUSH2 0x1078 JUMP JUMPDEST POP PUSH1 0x40 DUP4 ADD MLOAD PUSH2 0x14FB PUSH1 0x40 DUP7 ADD DUP3 PUSH2 0x1103 JUMP JUMPDEST POP PUSH1 0x60 DUP4 ADD MLOAD DUP5 DUP3 SUB PUSH1 0x60 DUP7 ADD MSTORE PUSH2 0x1513 DUP3 DUP3 PUSH2 0x10BF JUMP JUMPDEST SWAP2 POP POP PUSH1 0x80 DUP4 ADD MLOAD PUSH2 0x1528 PUSH1 0x80 DUP7 ADD DUP3 PUSH2 0x111D JUMP JUMPDEST POP DUP1 SWAP2 POP POP SWAP3 SWAP2 POP POP JUMP JUMPDEST PUSH0 PUSH2 0x153E DUP4 DUP4 PUSH2 0x14B9 JUMP JUMPDEST SWAP1 POP SWAP3 SWAP2 POP POP JUMP JUMPDEST PUSH0 PUSH1 0x20 DUP3 ADD SWAP1 POP SWAP2 SWAP1 POP JUMP JUMPDEST PUSH0 PUSH2 0x155C DUP3 PUSH2 0x1490 JUMP JUMPDEST PUSH2 0x1566 DUP2 DUP6 PUSH2 0x149A JUMP JUMPDEST SWAP4 POP DUP4 PUSH1 0x20 DUP3 MUL DUP6 ADD PUSH2 0x1578 DUP6 PUSH2 0x14AA JUMP JUMPDEST DUP1 PUSH0 JUMPDEST DUP6 DUP2 LT ISZERO PUSH2 0x15B3 JUMPI DUP5 DUP5 SUB DUP10 MSTORE DUP2 MLOAD PUSH2 0x1594 DUP6 DUP3 PUSH2 0x1533 JUMP JUMPDEST SWAP5 POP PUSH2 0x159F DUP4 PUSH2 0x1546 JUMP JUMPDEST SWAP3 POP PUSH1 0x20 DUP11 ADD SWAP10 POP POP PUSH1 0x1 DUP2 ADD SWAP1 POP PUSH2 0x157B JUMP JUMPDEST POP DUP3 SWAP8 POP DUP8 SWAP6 POP POP POP POP POP POP SWAP3 SWAP2 POP POP JUMP JUMPDEST PUSH0 PUSH1 0x20 DUP3 ADD SWAP1 POP DUP2 DUP2 SUB PUSH0 DUP4 ADD MSTORE PUSH2 0x15DD DUP2 DUP5 PUSH2 0x1552 JUMP JUMPDEST SWAP1 POP SWAP3 SWAP2 POP POP JUMP JUMPDEST PUSH0 PUSH1 0x60 DUP4 ADD PUSH0 DUP4 ADD MLOAD PUSH2 0x15FA PUSH0 DUP7 ADD DUP3 PUSH2 0x1078 JUMP JUMPDEST POP PUSH1 0x20 DUP4 ADD MLOAD DUP5 DUP3 SUB PUSH1 0x20 DUP7 ADD MSTORE PUSH2 0x1612 DUP3 DUP3 PUSH2 0x10BF JUMP JUMPDEST SWAP2 POP POP PUSH1 0x40 DUP4 ADD MLOAD PUSH2 0x1627 PUSH1 0x40 DUP7 ADD DUP3 PUSH2 0x111D JUMP JUMPDEST POP DUP1 SWAP2 POP POP SWAP3 SWAP2 POP POP JUMP JUMPDEST PUSH0 PUSH1 0x20 DUP3 ADD SWAP1 POP DUP2 DUP2 SUB PUSH0 DUP4 ADD MSTORE PUSH2 0x164A DUP2 DUP5 PUSH2 0x15E5 JUMP JUMPDEST SWAP1 POP SWAP3 SWAP2 POP POP JUMP JUMPDEST PUSH2 0x165B DUP2 PUSH2 0x13E5 JUMP JUMPDEST DUP2 EQ PUSH2 0x1665 JUMPI PUSH0 PUSH0 REVERT JUMPDEST POP JUMP JUMPDEST PUSH0 DUP2 CALLDATALOAD SWAP1 POP PUSH2 0x1676 DUP2 PUSH2 0x1652 JUMP JUMPDEST SWAP3 SWAP2 POP POP JUMP JUMPDEST PUSH0 PUSH1 0x20 DUP3 DUP5 SUB SLT ISZERO PUSH2 0x1691 JUMPI PUSH2 0x1690 PUSH2 0xFEB JUMP JUMPDEST JUMPDEST PUSH0 PUSH2 0x169E DUP5 DUP3 DUP6 ADD PUSH2 0x1668 JUMP JUMPDEST SWAP2 POP POP SWAP3 SWAP2 POP POP JUMP JUMPDEST PUSH2 0x16B0 DUP2 PUSH2 0x1012 JUMP JUMPDEST DUP3 MSTORE POP POP JUMP JUMPDEST PUSH0 PUSH1 0x20 DUP3 ADD SWAP1 POP PUSH2 0x16C9 PUSH0 DUP4 ADD DUP5 PUSH2 0x16A7 JUMP JUMPDEST SWAP3 SWAP2 POP POP JUMP JUMPDEST PUSH0 PUSH1 0xA0 DUP4 ADD PUSH0 DUP4 ADD MLOAD DUP5 DUP3 SUB PUSH0 DUP7 ADD MSTORE PUSH2 0x16E9 DUP3 DUP3 PUSH2 0x10BF JUMP JUMPDEST SWAP2 POP POP PUSH1 0x20 DUP4 ADD MLOAD PUSH2 0x16FE PUSH1 0x20 DUP7 ADD DUP3 PUSH2 0x1078 JUMP JUMPDEST POP PUSH1 0x40 DUP4 ADD MLOAD PUSH2 0x1711 PUSH1 0x40 DUP7 ADD DUP3 PUSH2 0x1103 JUMP JUMPDEST POP PUSH1 0x60 DUP4 ADD MLOAD DUP5 DUP3 SUB PUSH1 0x60 DUP7 ADD MSTORE PUSH2 0x1729 DUP3 DUP3 PUSH2 0x10BF JUMP JUMPDEST SWAP2 POP POP PUSH1 0x80 DUP4 ADD MLOAD PUSH2 0x173E PUSH1 0x80 DUP7 ADD DUP3 PUSH2 0x111D JUMP JUMPDEST POP DUP1 SWAP2 POP POP SWAP3 SWAP2 POP POP JUMP JUMPDEST PUSH0 PUSH1 0x20 DUP3 ADD SWAP1 POP DUP2 DUP2 SUB PUSH0 DUP4 ADD MSTORE PUSH2 0x1761 DUP2 DUP5 PUSH2 0x16CF JUMP JUMPDEST SWAP1 POP SWAP3 SWAP2 POP POP JUMP JUMPDEST PUSH0 PUSH0 REVERT JUMPDEST PUSH0 PUSH0 REVERT JUMPDEST PUSH0 DUP2 MLOAD SWAP1 POP PUSH2 0x177F DUP2 PUSH2 0x1023 JUMP JUMPDEST SWAP3 SWAP2 POP POP JUMP JUMPDEST PUSH0 PUSH2 0x1797 PUSH2 0x1792 DUP5 PUSH2 0x122C JUMP JUMPDEST PUSH2 0x1212 JUMP JUMPDEST SWAP1 POP DUP3 DUP2 MSTORE PUSH1 0x20 DUP2 ADD DUP5 DUP5 DUP5 ADD GT ISZERO PUSH2 0x17B3 JUMPI PUSH2 0x17B2 PUSH2 0x11B0 JUMP JUMPDEST JUMPDEST PUSH2 0x17BE DUP5 DUP3 DUP6 PUSH2 0x10A1 JUMP JUMPDEST POP SWAP4 SWAP3 POP POP POP JUMP JUMPDEST PUSH0 DUP3 PUSH1 0x1F DUP4 ADD SLT PUSH2 0x17DA JUMPI PUSH2 0x17D9 PUSH2 0x11AC JUMP JUMPDEST JUMPDEST DUP2 MLOAD PUSH2 0x17EA DUP5 DUP3 PUSH1 0x20 DUP7 ADD PUSH2 0x1785 JUMP JUMPDEST SWAP2 POP POP SWAP3 SWAP2 POP POP JUMP JUMPDEST PUSH0 DUP2 MLOAD SWAP1 POP PUSH2 0x1801 DUP2 PUSH2 0x12D8 JUMP JUMPDEST SWAP3 SWAP2 POP POP JUMP JUMPDEST PUSH2 0x1810 DUP2 PUSH2 0x1112 JUMP JUMPDEST DUP2 EQ PUSH2 0x181A JUMPI PUSH0 PUSH0 REVERT JUMPDEST POP JUMP JUMPDEST PUSH0 DUP2 MLOAD SWAP1 POP PUSH2 0x182B DUP2 PUSH2 0x1807 JUMP JUMPDEST SWAP3 SWAP2 POP POP JUMP JUMPDEST PUSH0 PUSH1 0x80 DUP3 DUP5 SUB SLT ISZERO PUSH2 0x1846 JUMPI PUSH2 0x1845 PUSH2 0x1769 JUMP JUMPDEST JUMPDEST PUSH2 0x1850 PUSH1 0x80 PUSH2 0x1212 JUMP JUMPDEST SWAP1 POP PUSH0 PUSH2 0x185F DUP5 DUP3 DUP6 ADD PUSH2 0x1771 JUMP JUMPDEST PUSH0 DUP4 ADD MSTORE POP PUSH1 0x20 DUP3 ADD MLOAD PUSH8 0xFFFFFFFFFFFFFFFF DUP2 GT ISZERO PUSH2 0x1882 JUMPI PUSH2 0x1881 PUSH2 0x176D JUMP JUMPDEST JUMPDEST PUSH2 0x188E DUP5 DUP3 DUP6 ADD PUSH2 0x17C6 JUMP JUMPDEST PUSH1 0x20 DUP4 ADD MSTORE POP PUSH1 0x40 PUSH2 0x18A2 DUP5 DUP3 DUP6 ADD PUSH2 0x17F3 JUMP JUMPDEST PUSH1 0x40 DUP4 ADD MSTORE POP PUSH1 0x60 PUSH2 0x18B6 DUP5 DUP3 DUP6 ADD PUSH2 0x181D JUMP JUMPDEST PUSH1 0x60 DUP4 ADD MSTORE POP SWAP3 SWAP2 POP POP JUMP JUMPDEST PUSH0 PUSH1 0x20 DUP3 DUP5 SUB SLT ISZERO PUSH2 0x18D7 JUMPI PUSH2 0x18D6 PUSH2 0xFEB JUMP JUMPDEST JUMPDEST PUSH0 DUP3 ADD MLOAD PUSH8 0xFFFFFFFFFFFFFFFF DUP2 GT ISZERO PUSH2 0x18F4 JUMPI PUSH2 0x18F3 PUSH2 0xFEF JUMP JUMPDEST JUMPDEST PUSH2 0x1900 DUP5 DUP3 DUP6 ADD PUSH2 0x1831 JUMP JUMPDEST SWAP2 POP POP SWAP3 SWAP2 POP POP JUMP JUMPDEST PUSH0 DUP3 DUP3 MSTORE PUSH1 0x20 DUP3 ADD SWAP1 POP SWAP3 SWAP2 POP POP JUMP JUMPDEST PUSH32 0x4465626520646566696E697220656C206C756761722071756520736573656120 PUSH0 DUP3 ADD MSTORE PUSH32 0x63616C6966696361720000000000000000000000000000000000000000000000 PUSH1 0x20 DUP3 ADD MSTORE POP JUMP JUMPDEST PUSH0 PUSH2 0x1973 PUSH1 0x29 DUP4 PUSH2 0x1909 JUMP JUMPDEST SWAP2 POP PUSH2 0x197E DUP3 PUSH2 0x1919 JUMP JUMPDEST PUSH1 0x40 DUP3 ADD SWAP1 POP SWAP2 SWAP1 POP JUMP JUMPDEST PUSH0 PUSH1 0x20 DUP3 ADD SWAP1 POP DUP2 DUP2 SUB PUSH0 DUP4 ADD MSTORE PUSH2 0x19A0 DUP2 PUSH2 0x1967 JUMP JUMPDEST SWAP1 POP SWAP2 SWAP1 POP JUMP JUMPDEST PUSH32 0x44656265722073657220756E206C75676172207265676973747261646F000000 PUSH0 DUP3 ADD MSTORE POP JUMP JUMPDEST PUSH0 PUSH2 0x19DB PUSH1 0x1D DUP4 PUSH2 0x1909 JUMP JUMPDEST SWAP2 POP PUSH2 0x19E6 DUP3 PUSH2 0x19A7 JUMP JUMPDEST PUSH1 0x20 DUP3 ADD SWAP1 POP SWAP2 SWAP1 POP JUMP JUMPDEST PUSH0 PUSH1 0x20 DUP3 ADD SWAP1 POP DUP2 DUP2 SUB PUSH0 DUP4 ADD MSTORE PUSH2 0x1A08 DUP2 PUSH2 0x19CF JUMP JUMPDEST SWAP1 POP SWAP2 SWAP1 POP JUMP JUMPDEST PUSH32 0x44656265722073657220756E2074757269737461207265676973747261646F00 PUSH0 DUP3 ADD MSTORE POP JUMP JUMPDEST PUSH0 PUSH2 0x1A43 PUSH1 0x1F DUP4 PUSH2 0x1909 JUMP JUMPDEST SWAP2 POP PUSH2 0x1A4E DUP3 PUSH2 0x1A0F JUMP JUMPDEST PUSH1 0x20 DUP3 ADD SWAP1 POP SWAP2 SWAP1 POP JUMP JUMPDEST PUSH0 PUSH1 0x20 DUP3 ADD SWAP1 POP DUP2 DUP2 SUB PUSH0 DUP4 ADD MSTORE PUSH2 0x1A70 DUP2 PUSH2 0x1A37 JUMP JUMPDEST SWAP1 POP SWAP2 SWAP1 POP JUMP JUMPDEST PUSH32 0x446562652073657220756E2070756E74616A6520656E74726520312079203130 PUSH0 DUP3 ADD MSTORE POP JUMP JUMPDEST PUSH0 PUSH2 0x1AAB PUSH1 0x20 DUP4 PUSH2 0x1909 JUMP JUMPDEST SWAP2 POP PUSH2 0x1AB6 DUP3 PUSH2 0x1A77 JUMP JUMPDEST PUSH1 0x20 DUP3 ADD SWAP1 POP SWAP2 SWAP1 POP JUMP JUMPDEST PUSH0 PUSH1 0x20 DUP3 ADD SWAP1 POP DUP2 DUP2 SUB PUSH0 DUP4 ADD MSTORE PUSH2 0x1AD8 DUP2 PUSH2 0x1A9F JUMP JUMPDEST SWAP1 POP SWAP2 SWAP1 POP JUMP JUMPDEST PUSH32 0x4E487B7100000000000000000000000000000000000000000000000000000000 PUSH0 MSTORE PUSH1 0x22 PUSH1 0x4 MSTORE PUSH1 0x24 PUSH0 REVERT JUMPDEST PUSH0 PUSH1 0x2 DUP3 DIV SWAP1 POP PUSH1 0x1 DUP3 AND DUP1 PUSH2 0x1B23 JUMPI PUSH1 0x7F DUP3 AND SWAP2 POP JUMPDEST PUSH1 0x20 DUP3 LT DUP2 SUB PUSH2 0x1B36 JUMPI PUSH2 0x1B35 PUSH2 0x1ADF JUMP JUMPDEST JUMPDEST POP SWAP2 SWAP1 POP JUMP JUMPDEST PUSH0 DUP2 SWAP1 POP DUP2 PUSH0 MSTORE PUSH1 0x20 PUSH0 KECCAK256 SWAP1 POP SWAP2 SWAP1 POP JUMP JUMPDEST PUSH0 PUSH1 0x20 PUSH1 0x1F DUP4 ADD DIV SWAP1 POP SWAP2 SWAP1 POP JUMP JUMPDEST PUSH0 DUP3 DUP3 SHL SWAP1 POP SWAP3 SWAP2 POP POP JUMP JUMPDEST PUSH0 PUSH1 0x8 DUP4 MUL PUSH2 0x1B98 PUSH32 0xFFFFFFFFFFFFFFFFFFFFFFFFFFFFFFFFFFFFFFFFFFFFFFFFFFFFFFFFFFFFFFFF DUP3 PUSH2 0x1B5D JUMP JUMPDEST PUSH2 0x1BA2 DUP7 DUP4 PUSH2 0x1B5D JUMP JUMPDEST SWAP6 POP DUP1 NOT DUP5 AND SWAP4 POP DUP1 DUP7 AND DUP5 OR SWAP3 POP POP POP SWAP4 SWAP3 POP POP POP JUMP JUMPDEST PUSH0 DUP2 SWAP1 POP SWAP2 SWAP1 POP JUMP JUMPDEST PUSH0 PUSH2 0x1BDD PUSH2 0x1BD8 PUSH2 0x1BD3 DUP5 PUSH2 0x13E5 JUMP JUMPDEST PUSH2 0x1BBA JUMP JUMPDEST PUSH2 0x13E5 JUMP JUMPDEST SWAP1 POP SWAP2 SWAP1 POP JUMP JUMPDEST PUSH0 DUP2 SWAP1 POP SWAP2 SWAP1 POP JUMP JUMPDEST PUSH2 0x1BF6 DUP4 PUSH2 0x1BC3 JUMP JUMPDEST PUSH2 0x1C0A PUSH2 0x1C02 DUP3 PUSH2 0x1BE4 JUMP JUMPDEST DUP5 DUP5 SLOAD PUSH2 0x1B69 JUMP JUMPDEST DUP3 SSTORE POP POP POP POP JUMP JUMPDEST PUSH0 PUSH0 SWAP1 POP SWAP1 JUMP JUMPDEST PUSH2 0x1C21 PUSH2 0x1C12 JUMP JUMPDEST PUSH2 0x1C2C DUP2 DUP5 DUP5 PUSH2 0x1BED JUMP JUMPDEST POP POP POP JUMP JUMPDEST JUMPDEST DUP2 DUP2 LT ISZERO PUSH2 0x1C4F JUMPI PUSH2 0x1C44 PUSH0 DUP3 PUSH2 0x1C19 JUMP JUMPDEST PUSH1 0x1 DUP2 ADD SWAP1 POP PUSH2 0x1C32 JUMP JUMPDEST POP POP JUMP JUMPDEST PUSH1 0x1F DUP3 GT ISZERO PUSH2 0x1C94 JUMPI PUSH2 0x1C65 DUP2 PUSH2 0x1B3C JUMP JUMPDEST PUSH2 0x1C6E DUP5 PUSH2 0x1B4E JUMP JUMPDEST DUP2 ADD PUSH1 0x20 DUP6 LT ISZERO PUSH2 0x1C7D JUMPI DUP2 SWAP1 POP JUMPDEST PUSH2 0x1C91 PUSH2 0x1C89 DUP6 PUSH2 0x1B4E JUMP JUMPDEST DUP4 ADD DUP3 PUSH2 0x1C31 JUMP JUMPDEST POP POP JUMPDEST POP POP POP JUMP JUMPDEST PUSH0 DUP3 DUP3 SHR SWAP1 POP SWAP3 SWAP2 POP POP JUMP JUMPDEST PUSH0 PUSH2 0x1CB4 PUSH0 NOT DUP5 PUSH1 0x8 MUL PUSH2 0x1C99 JUMP JUMPDEST NOT DUP1 DUP4 AND SWAP2 POP POP SWAP3 SWAP2 POP POP JUMP JUMPDEST PUSH0 PUSH2 0x1CCC DUP4 DUP4 PUSH2 0x1CA5 JUMP JUMPDEST SWAP2 POP DUP3 PUSH1 0x2 MUL DUP3 OR SWAP1 POP SWAP3 SWAP2 POP POP JUMP JUMPDEST PUSH2 0x1CE5 DUP3 PUSH2 0x1087 JUMP JUMPDEST PUSH8 0xFFFFFFFFFFFFFFFF DUP2 GT ISZERO PUSH2 0x1CFE JUMPI PUSH2 0x1CFD PUSH2 0x11B4 JUMP JUMPDEST JUMPDEST PUSH2 0x1D08 DUP3 SLOAD PUSH2 0x1B0C JUMP JUMPDEST PUSH2 0x1D13 DUP3 DUP3 DUP6 PUSH2 0x1C53 JUMP JUMPDEST PUSH0 PUSH1 0x20 SWAP1 POP PUSH1 0x1F DUP4 GT PUSH1 0x1 DUP2 EQ PUSH2 0x1D44 JUMPI PUSH0 DUP5 ISZERO PUSH2 0x1D32 JUMPI DUP3 DUP8 ADD MLOAD SWAP1 POP JUMPDEST PUSH2 0x1D3C DUP6 DUP3 PUSH2 0x1CC1 JUMP JUMPDEST DUP7 SSTORE POP PUSH2 0x1DA3 JUMP JUMPDEST PUSH1 0x1F NOT DUP5 AND PUSH2 0x1D52 DUP7 PUSH2 0x1B3C JUMP JUMPDEST PUSH0 JUMPDEST DUP3 DUP2 LT ISZERO PUSH2 0x1D79 JUMPI DUP5 DUP10 ADD MLOAD DUP3 SSTORE PUSH1 0x1 DUP3 ADD SWAP2 POP PUSH1 0x20 DUP6 ADD SWAP5 POP PUSH1 0x20 DUP2 ADD SWAP1 POP PUSH2 0x1D54 JUMP JUMPDEST DUP7 DUP4 LT ISZERO PUSH2 0x1D96 JUMPI DUP5 DUP10 ADD MLOAD PUSH2 0x1D92 PUSH1 0x1F DUP10 AND DUP3 PUSH2 0x1CA5 JUMP JUMPDEST DUP4 SSTORE POP JUMPDEST PUSH1 0x1 PUSH1 0x2 DUP9 MUL ADD DUP9 SSTORE POP POP POP JUMPDEST POP POP POP POP POP POP JUMP JUMPDEST PUSH32 0x4E487B7100000000000000000000000000000000000000000000000000000000 PUSH0 MSTORE PUSH1 0x11 PUSH1 0x4 MSTORE PUSH1 0x24 PUSH0 REVERT JUMPDEST PUSH0 PUSH2 0x1DE2 DUP3 PUSH2 0x13E5 JUMP JUMPDEST SWAP2 POP PUSH32 0xFFFFFFFFFFFFFFFFFFFFFFFFFFFFFFFFFFFFFFFFFFFFFFFFFFFFFFFFFFFFFFFF DUP3 SUB PUSH2 0x1E14 JUMPI PUSH2 0x1E13 PUSH2 0x1DAB JUMP JUMPDEST JUMPDEST PUSH1 0x1 DUP3 ADD SWAP1 POP SWAP2 SWAP1 POP JUMP JUMPDEST PUSH2 0x1E28 DUP2 PUSH2 0x13E5 JUMP JUMPDEST DUP3 MSTORE POP POP JUMP JUMPDEST PUSH0 PUSH2 0x1E38 DUP3 PUSH2 0x1087 JUMP JUMPDEST PUSH2 0x1E42 DUP2 DUP6 PUSH2 0x1909 JUMP JUMPDEST SWAP4 POP PUSH2 0x1E52 DUP2 DUP6 PUSH1 0x20 DUP7 ADD PUSH2 0x10A1 JUMP JUMPDEST PUSH2 0x1E5B DUP2 PUSH2 0x10AF JUMP JUMPDEST DUP5 ADD SWAP2 POP POP SWAP3 SWAP2 POP POP JUMP JUMPDEST PUSH0 PUSH1 0x40 DUP3 ADD SWAP1 POP PUSH2 0x1E79 PUSH0 DUP4 ADD DUP6 PUSH2 0x1E1F JUMP JUMPDEST DUP2 DUP2 SUB PUSH1 0x20 DUP4 ADD MSTORE PUSH2 0x1E8B DUP2 DUP5 PUSH2 0x1E2E JUMP JUMPDEST SWAP1 POP SWAP4 SWAP3 POP POP POP JUMP JUMPDEST PUSH0 PUSH1 0x20 DUP3 ADD SWAP1 POP DUP2 DUP2 SUB PUSH0 DUP4 ADD MSTORE PUSH2 0x1EAC DUP2 DUP5 PUSH2 0x1E2E JUMP JUMPDEST SWAP1 POP SWAP3 SWAP2 POP POP JUMP JUMPDEST PUSH0 DUP2 MLOAD SWAP1 POP PUSH2 0x1EC2 DUP2 PUSH2 0x1652 JUMP JUMPDEST SWAP3 SWAP2 POP POP JUMP JUMPDEST PUSH0 PUSH1 0xA0 DUP3 DUP5 SUB SLT ISZERO PUSH2 0x1EDD JUMPI PUSH2 0x1EDC PUSH2 0x1769 JUMP JUMPDEST JUMPDEST PUSH2 0x1EE7 PUSH1 0xA0 PUSH2 0x1212 JUMP JUMPDEST SWAP1 POP PUSH0 DUP3 ADD MLOAD PUSH8 0xFFFFFFFFFFFFFFFF DUP2 GT ISZERO PUSH2 0x1F06 JUMPI PUSH2 0x1F05 PUSH2 0x176D JUMP JUMPDEST JUMPDEST PUSH2 0x1F12 DUP5 DUP3 DUP6 ADD PUSH2 0x17C6 JUMP JUMPDEST PUSH0 DUP4 ADD MSTORE POP PUSH1 0x20 PUSH2 0x1F25 DUP5 DUP3 DUP6 ADD PUSH2 0x1EB4 JUMP JUMPDEST PUSH1 0x20 DUP4 ADD MSTORE POP PUSH1 0x40 PUSH2 0x1F39 DUP5 DUP3 DUP6 ADD PUSH2 0x17F3 JUMP JUMPDEST PUSH1 0x40 DUP4 ADD MSTORE POP PUSH1 0x60 PUSH2 0x1F4D DUP5 DUP3 DUP6 ADD PUSH2 0x1771 JUMP JUMPDEST PUSH1 0x60 DUP4 ADD MSTORE POP PUSH1 0x80 PUSH2 0x1F61 DUP5 DUP3 DUP6 ADD PUSH2 0x181D JUMP JUMPDEST PUSH1 0x80 DUP4 ADD MSTORE POP SWAP3 SWAP2 POP POP JUMP JUMPDEST PUSH0 PUSH1 0x20 DUP3 DUP5 SUB SLT ISZERO PUSH2 0x1F82 JUMPI PUSH2 0x1F81 PUSH2 0xFEB JUMP JUMPDEST JUMPDEST PUSH0 DUP3 ADD MLOAD PUSH8 0xFFFFFFFFFFFFFFFF DUP2 GT ISZERO PUSH2 0x1F9F JUMPI PUSH2 0x1F9E PUSH2 0xFEF JUMP JUMPDEST JUMPDEST PUSH2 0x1FAB DUP5 DUP3 DUP6 ADD PUSH2 0x1EC8 JUMP JUMPDEST SWAP2 POP POP SWAP3 SWAP2 POP POP JUMP JUMPDEST PUSH32 0x4465626520696E67726573617220656C206E6F6D6272652064656C206C756761 PUSH0 DUP3 ADD MSTORE PUSH32 0x72207175652073656120766572206C617320726573656E6E6173000000000000 PUSH1 0x20 DUP3 ADD MSTORE POP JUMP JUMPDEST PUSH0 PUSH2 0x200E PUSH1 0x3A DUP4 PUSH2 0x1909 JUMP JUMPDEST SWAP2 POP PUSH2 0x2019 DUP3 PUSH2 0x1FB4 JUMP JUMPDEST PUSH1 0x40 DUP3 ADD SWAP1 POP SWAP2 SWAP1 POP JUMP JUMPDEST PUSH0 PUSH1 0x20 DUP3 ADD SWAP1 POP DUP2 DUP2 SUB PUSH0 DUP4 ADD MSTORE PUSH2 0x203B DUP2 PUSH2 0x2002 JUMP JUMPDEST SWAP1 POP SWAP2 SWAP1 POP JUMP JUMPDEST PUSH32 0x446562652073657220756E206C756761722072656769737461646F0000000000 PUSH0 DUP3 ADD MSTORE POP JUMP JUMPDEST PUSH0 PUSH2 0x2076 PUSH1 0x1B DUP4 PUSH2 0x1909 JUMP JUMPDEST SWAP2 POP PUSH2 0x2081 DUP3 PUSH2 0x2042 JUMP JUMPDEST PUSH1 0x20 DUP3 ADD SWAP1 POP SWAP2 SWAP1 POP JUMP JUMPDEST PUSH0 PUSH1 0x20 DUP3 ADD SWAP1 POP DUP2 DUP2 SUB PUSH0 DUP4 ADD MSTORE PUSH2 0x20A3 DUP2 PUSH2 0x206A JUMP JUMPDEST SWAP1 POP SWAP2 SWAP1 POP JUMP JUMPDEST PUSH0 DUP2 SWAP1 POP SWAP3 SWAP2 POP POP JUMP JUMPDEST PUSH0 PUSH2 0x20BE DUP3 PUSH2 0x1087 JUMP JUMPDEST PUSH2 0x20C8 DUP2 DUP6 PUSH2 0x20AA JUMP JUMPDEST SWAP4 POP PUSH2 0x20D8 DUP2 DUP6 PUSH1 0x20 DUP7 ADD PUSH2 0x10A1 JUMP JUMPDEST DUP1 DUP5 ADD SWAP2 POP POP SWAP3 SWAP2 POP POP JUMP JUMPDEST PUSH0 PUSH2 0x20EF DUP3 DUP5 PUSH2 0x20B4 JUMP JUMPDEST SWAP2 POP DUP2 SWAP1 POP SWAP3 SWAP2 POP POP JUMP JUMPDEST PUSH0 DUP2 SLOAD PUSH2 0x2106 DUP2 PUSH2 0x1B0C JUMP JUMPDEST PUSH2 0x2110 DUP2 DUP7 PUSH2 0x20AA JUMP JUMPDEST SWAP5 POP PUSH1 0x1 DUP3 AND PUSH0 DUP2 EQ PUSH2 0x212A JUMPI PUSH1 0x1 DUP2 EQ PUSH2 0x213F JUMPI PUSH2 0x2171 JUMP JUMPDEST PUSH1 0xFF NOT DUP4 AND DUP7 MSTORE DUP2 ISZERO ISZERO DUP3 MUL DUP7 ADD SWAP4 POP PUSH2 0x2171 JUMP JUMPDEST PUSH2 0x2148 DUP6 PUSH2 0x1B3C JUMP JUMPDEST PUSH0 JUMPDEST DUP4 DUP2 LT ISZERO PUSH2 0x2169 JUMPI DUP2 SLOAD DUP2 DUP10 ADD MSTORE PUSH1 0x1 DUP3 ADD SWAP2 POP PUSH1 0x20 DUP2 ADD SWAP1 POP PUSH2 0x214A JUMP JUMPDEST DUP4 DUP9 ADD SWAP6 POP POP POP JUMPDEST POP POP POP SWAP3 SWAP2 POP POP JUMP JUMPDEST PUSH0 PUSH2 0x2185 DUP3 DUP5 PUSH2 0x20FA JUMP JUMPDEST SWAP2 POP DUP2 SWAP1 POP SWAP3 SWAP2 POP POP JUMP JUMPDEST PUSH32 0x4E487B7100000000000000000000000000000000000000000000000000000000 PUSH0 MSTORE PUSH1 0x32 PUSH1 0x4 MSTORE PUSH1 0x24 PUSH0 REVERT JUMPDEST PUSH0 PUSH1 0x60 DUP3 DUP5 SUB SLT ISZERO PUSH2 0x21D2 JUMPI PUSH2 0x21D1 PUSH2 0x1769 JUMP JUMPDEST JUMPDEST PUSH2 0x21DC PUSH1 0x60 PUSH2 0x1212 JUMP JUMPDEST SWAP1 POP PUSH0 PUSH2 0x21EB DUP5 DUP3 DUP6 ADD PUSH2 0x1771 JUMP JUMPDEST PUSH0 DUP4 ADD MSTORE POP PUSH1 0x20 DUP3 ADD MLOAD PUSH8 0xFFFFFFFFFFFFFFFF DUP2 GT ISZERO PUSH2 0x220E JUMPI PUSH2 0x220D PUSH2 0x176D JUMP JUMPDEST JUMPDEST PUSH2 0x221A DUP5 DUP3 DUP6 ADD PUSH2 0x17C6 JUMP JUMPDEST PUSH1 0x20 DUP4 ADD MSTORE POP PUSH1 0x40 PUSH2 0x222E DUP5 DUP3 DUP6 ADD PUSH2 0x181D JUMP JUMPDEST PUSH1 0x40 DUP4 ADD MSTORE POP SWAP3 SWAP2 POP POP JUMP JUMPDEST PUSH0 PUSH1 0x20 DUP3 DUP5 SUB SLT ISZERO PUSH2 0x224F JUMPI PUSH2 0x224E PUSH2 0xFEB JUMP JUMPDEST JUMPDEST PUSH0 DUP3 ADD MLOAD PUSH8 0xFFFFFFFFFFFFFFFF DUP2 GT ISZERO PUSH2 0x226C JUMPI PUSH2 0x226B PUSH2 0xFEF JUMP JUMPDEST JUMPDEST PUSH2 0x2278 DUP5 DUP3 DUP6 ADD PUSH2 0x21BD JUMP JUMPDEST SWAP2 POP POP SWAP3 SWAP2 POP POP JUMP JUMPDEST PUSH32 0x536F6C6F20656C204475656E6E6F206F20477569617320646520747572697374 PUSH0 DUP3 ADD MSTORE PUSH32 0x6173207075656465207265616C697A6172206573746120616363696F6E000000 PUSH1 0x20 DUP3 ADD MSTORE POP JUMP JUMPDEST PUSH0 PUSH2 0x22DB PUSH1 0x3D DUP4 PUSH2 0x1909 JUMP JUMPDEST SWAP2 POP PUSH2 0x22E6 DUP3 PUSH2 0x2281 JUMP JUMPDEST PUSH1 0x40 DUP3 ADD SWAP1 POP SWAP2 SWAP1 POP JUMP JUMPDEST PUSH0 PUSH1 0x20 DUP3 ADD SWAP1 POP DUP2 DUP2 SUB PUSH0 DUP4 ADD MSTORE PUSH2 0x2308 DUP2 PUSH2 0x22CF JUMP JUMPDEST SWAP1 POP SWAP2 SWAP1 POP JUMP JUMPDEST PUSH32 0x4573746120726573656E6E61206E6F2065786973746500000000000000000000 PUSH0 DUP3 ADD MSTORE POP JUMP JUMPDEST PUSH0 PUSH2 0x2343 PUSH1 0x16 DUP4 PUSH2 0x1909 JUMP JUMPDEST SWAP2 POP PUSH2 0x234E DUP3 PUSH2 0x230F JUMP JUMPDEST PUSH1 0x20 DUP3 ADD SWAP1 POP SWAP2 SWAP1 POP JUMP JUMPDEST PUSH0 PUSH1 0x20 DUP3 ADD SWAP1 POP DUP2 DUP2 SUB PUSH0 DUP4 ADD MSTORE PUSH2 0x2370 DUP2 PUSH2 0x2337 JUMP JUMPDEST SWAP1 POP SWAP2 SWAP1 POP JUMP JUMPDEST PUSH0 DUP2 SLOAD PUSH2 0x2383 DUP2 PUSH2 0x1B0C JUMP JUMPDEST PUSH2 0x238D DUP2 DUP7 PUSH2 0x1909 JUMP JUMPDEST SWAP5 POP PUSH1 0x1 DUP3 AND PUSH0 DUP2 EQ PUSH2 0x23A7 JUMPI PUSH1 0x1 DUP2 EQ PUSH2 0x23BD JUMPI PUSH2 0x23EF JUMP JUMPDEST PUSH1 0xFF NOT DUP4 AND DUP7 MSTORE DUP2 ISZERO ISZERO PUSH1 0x20 MUL DUP7 ADD SWAP4 POP PUSH2 0x23EF JUMP JUMPDEST PUSH2 0x23C6 DUP6 PUSH2 0x1B3C JUMP JUMPDEST PUSH0 JUMPDEST DUP4 DUP2 LT ISZERO PUSH2 0x23E7 JUMPI DUP2 SLOAD DUP2 DUP10 ADD MSTORE PUSH1 0x1 DUP3 ADD SWAP2 POP PUSH1 0x20 DUP2 ADD SWAP1 POP PUSH2 0x23C8 JUMP JUMPDEST DUP1 DUP9 ADD SWAP6 POP POP POP JUMPDEST POP POP POP SWAP3 SWAP2 POP POP JUMP JUMPDEST PUSH0 PUSH1 0x40 DUP3 ADD SWAP1 POP PUSH2 0x240B PUSH0 DUP4 ADD DUP6 PUSH2 0x1E1F JUMP JUMPDEST DUP2 DUP2 SUB PUSH1 0x20 DUP4 ADD MSTORE PUSH2 0x241D DUP2 DUP5 PUSH2 0x2377 JUMP JUMPDEST SWAP1 POP SWAP4 SWAP3 POP POP POP JUMP JUMPDEST PUSH0 PUSH1 0x20 DUP3 DUP5 SUB SLT ISZERO PUSH2 0x243B JUMPI PUSH2 0x243A PUSH2 0xFEB JUMP JUMPDEST JUMPDEST PUSH0 PUSH2 0x2448 DUP5 DUP3 DUP6 ADD PUSH2 0x1771 JUMP JUMPDEST SWAP2 POP POP SWAP3 SWAP2 POP POP JUMP JUMPDEST PUSH32 0x4573746120726573657661206E6F206578697374650000000000000000000000 PUSH0 DUP3 ADD MSTORE POP JUMP JUMPDEST PUSH0 PUSH2 0x2485 PUSH1 0x15 DUP4 PUSH2 0x1909 JUMP JUMPDEST SWAP2 POP PUSH2 0x2490 DUP3 PUSH2 0x2451 JUMP JUMPDEST PUSH1 0x20 DUP3 ADD SWAP1 POP SWAP2 SWAP1 POP JUMP JUMPDEST PUSH0 PUSH1 0x20 DUP3 ADD SWAP1 POP DUP2 DUP2 SUB PUSH0 DUP4 ADD MSTORE PUSH2 0x24B2 DUP2 PUSH2 0x2479 JUMP JUMPDEST SWAP1 POP SWAP2 SWAP1 POP JUMP INVALID LOG2 PUSH5 0x6970667358 0x22 SLT KECCAK256 0xA5 PUSH14 0x258925C4E3A3DE0CA3200412373D DUP2 0xB6 OR 0x24 SUB CODESIZE 0x2B 0x23 0x1E PUSH0 SELFDESTRUCT 0xBD 0xCB CALLDATACOPY 0xC2 PUSH0 PUSH5 0x736F6C6343 STOP ADDMOD 0x1E STOP CALLER "
		},
		"gasEstimates": {
			"creation": {
				"codeDepositCost": "1891000",
				"executionCost": "infinite",
				"totalCost": "infinite"
			},
			"external": {
				"eliminarResenna(uint256)": "infinite",
				"obtenerDuenno()": "infinite",
				"obtenerGuia(address)": "infinite",
				"obtenerLugar(string)": "infinite",
				"obtenerTurista(address)": "infinite",
				"registrarResenna(string,address,uint8,string)": "infinite",
				"verResernnaPorID(uint256)": "infinite",
				"verResernnasPorNombreLugar(string)": "infinite"
			}
		},
		"methodIdentifiers": {
			"eliminarResenna(uint256)": "86930999",
			"obtenerDuenno()": "c158cded",
			"obtenerGuia(address)": "7b21b786",
			"obtenerLugar(string)": "47508738",
			"obtenerTurista(address)": "16381e25",
			"registrarResenna(string,address,uint8,string)": "1efb90eb",
			"verResernnaPorID(uint256)": "c8d63c50",
			"verResernnasPorNombreLugar(string)": "6b6d262a"
		}
	},
	"abi": [
		{
			"inputs": [
				{
					"internalType": "address",
					"name": "_usuariosContrato",
					"type": "address"
				},
				{
					"internalType": "address",
					"name": "_lugaresContrato",
					"type": "address"
				}
			],
			"stateMutability": "nonpayable",
			"type": "constructor"
		},
		{
			"anonymous": false,
			"inputs": [
				{
					"indexed": false,
					"internalType": "uint256",
					"name": "id",
					"type": "uint256"
				},
				{
					"indexed": false,
					"internalType": "string",
					"name": "nombreLugar",
					"type": "string"
				}
			],
			"name": "ResennaEliminada",
			"type": "event"
		},
		{
			"anonymous": false,
			"inputs": [
				{
					"indexed": false,
					"internalType": "uint256",
					"name": "id",
					"type": "uint256"
				},
				{
					"indexed": false,
					"internalType": "string",
					"name": "nombreLugar",
					"type": "string"
				}
			],
			"name": "ResennaRegistrada",
			"type": "event"
		},
		{
			"inputs": [
				{
					"internalType": "uint256",
					"name": "_idResenna",
					"type": "uint256"
				}
			],
			"name": "eliminarResenna",
			"outputs": [],
			"stateMutability": "nonpayable",
			"type": "function"
		},
		{
			"inputs": [],
			"name": "obtenerDuenno",
			"outputs": [
				{
					"internalType": "address",
					"name": "",
					"type": "address"
				}
			],
			"stateMutability": "view",
			"type": "function"
		},
		{
			"inputs": [
				{
					"internalType": "address",
					"name": "_cuenta",
					"type": "address"
				}
			],
			"name": "obtenerGuia",
			"outputs": [
				{
					"components": [
						{
							"internalType": "address",
							"name": "cuenta",
							"type": "address"
						},
						{
							"internalType": "string",
							"name": "nombreCompleto",
							"type": "string"
						},
						{
							"internalType": "bool",
							"name": "estado",
							"type": "bool"
						}
					],
					"internalType": "struct Usuarios.GuiaTuristas",
					"name": "",
					"type": "tuple"
				}
			],
			"stateMutability": "view",
			"type": "function"
		},
		{
			"inputs": [
				{
					"internalType": "string",
					"name": "_nombreLugar",
					"type": "string"
				}
			],
			"name": "obtenerLugar",
			"outputs": [
				{
					"components": [
						{
							"internalType": "string",
							"name": "nombre",
							"type": "string"
						},
						{
							"internalType": "uint256",
							"name": "precio",
							"type": "uint256"
						},
						{
							"internalType": "uint8",
							"name": "cupos",
							"type": "uint8"
						},
						{
							"internalType": "address",
							"name": "guiaTuristas",
							"type": "address"
						},
						{
							"internalType": "bool",
							"name": "estado",
							"type": "bool"
						}
					],
					"internalType": "struct Lugares.Lugar",
					"name": "",
					"type": "tuple"
				}
			],
			"stateMutability": "view",
			"type": "function"
		},
		{
			"inputs": [
				{
					"internalType": "address",
					"name": "_cuenta",
					"type": "address"
				}
			],
			"name": "obtenerTurista",
			"outputs": [
				{
					"components": [
						{
							"internalType": "address",
							"name": "cuenta",
							"type": "address"
						},
						{
							"internalType": "string",
							"name": "nombreCompleto",
							"type": "string"
						},
						{
							"internalType": "uint8",
							"name": "edad",
							"type": "uint8"
						},
						{
							"internalType": "bool",
							"name": "estado",
							"type": "bool"
						}
					],
					"internalType": "struct Usuarios.Turista",
					"name": "",
					"type": "tuple"
				}
			],
			"stateMutability": "view",
			"type": "function"
		},
		{
			"inputs": [
				{
					"internalType": "string",
					"name": "_nombreLugar",
					"type": "string"
				},
				{
					"internalType": "address",
					"name": "_turista",
					"type": "address"
				},
				{
					"internalType": "uint8",
					"name": "_puntaje",
					"type": "uint8"
				},
				{
					"internalType": "string",
					"name": "_comentario",
					"type": "string"
				}
			],
			"name": "registrarResenna",
			"outputs": [],
			"stateMutability": "nonpayable",
			"type": "function"
		},
		{
			"inputs": [
				{
					"internalType": "uint256",
					"name": "_idResenna",
					"type": "uint256"
				}
			],
			"name": "verResernnaPorID",
			"outputs": [
				{
					"components": [
						{
							"internalType": "string",
							"name": "nombreLugar",
							"type": "string"
						},
						{
							"internalType": "address",
							"name": "turista",
							"type": "address"
						},
						{
							"internalType": "uint8",
							"name": "puntaje",
							"type": "uint8"
						},
						{
							"internalType": "string",
							"name": "comentario",
							"type": "string"
						},
						{
							"internalType": "bool",
							"name": "estado",
							"type": "bool"
						}
					],
					"internalType": "struct Resennas.Resenna",
					"name": "",
					"type": "tuple"
				}
			],
			"stateMutability": "view",
			"type": "function"
		},
		{
			"inputs": [
				{
					"internalType": "string",
					"name": "_nombreLugar",
					"type": "string"
				}
			],
			"name": "verResernnasPorNombreLugar",
			"outputs": [
				{
					"components": [
						{
							"internalType": "string",
							"name": "nombreLugar",
							"type": "string"
						},
						{
							"internalType": "address",
							"name": "turista",
							"type": "address"
						},
						{
							"internalType": "uint8",
							"name": "puntaje",
							"type": "uint8"
						},
						{
							"internalType": "string",
							"name": "comentario",
							"type": "string"
						},
						{
							"internalType": "bool",
							"name": "estado",
							"type": "bool"
						}
					],
					"internalType": "struct Resennas.Resenna[]",
					"name": "_resultado",
					"type": "tuple[]"
				}
			],
			"stateMutability": "view",
			"type": "function"
		}
	]
}